:020000022000DC
:10200000000004206D7202009572020097720200B7
:10201000997202009B7202009D7202000000000093
:102020000000000000000000000000009F7202009D
:10203000A172020000000000A3720200A57202005B
:10204000FD39020079C50300B5B40300A772020090
:10205000A7720200A7720200C53E0200A77202002A
:10206000A7720200A7720200A7720200A772020004
:10207000A7720200A7720200A7720200A7720200F4
:10208000A7720200E12C0200A7720200A7720200F0
:10209000812D0200A77202003978020079DB03006B
:1020A000A7720200A7720200A7720200A7720200C4
:1020B000A7720200A77202000000000000000000EA
:1020C000A7720200A7720200A7720200A7720200A4
:1020D000C9B10300A7720200A7720200A772020032
:1020E000B1450200A7720200A7720200A7720200A7
:1020F00000000000A77202000000000000000000C5
:1021000000000000000000000000000000000000CF
:1021100000000000000000000000000000000000BF
:1021200000000000000000000000000000000000AF
:10213000000000000000000000000000000000009F
:10214000000000000000000000000000000000008F
:10215000000000000000000000000000000000007F
:10216000000000000000000000000000000000006F
:10217000000000000000000000000000000000005F
:10218000000000000000000000000000000000004F
:10219000000000000000000000000000000000003F
:1021A000000000000000000000000000000000002F
:1021B000000000000000000000000000000000001F
:1021C000000000000000000000000000000000000F
:1021D00000000000000000000000000000000000FF
:1021E00000000000000000000000000000000000EF
:1021F00000000000000000000000000000000000DF
:1022000010B5054C237833B9044B13B10448AFF330
:1022100000800123237010BD30300020000000003A
:102220000C770500084B10B51BB108480849AFF3FF
:1022300000800848036803B910BD074B002BFBD092
:10224000BDE81040184700BF000000000C770500F3
:10225000343000202C30002000000000154B002BF3
:1022600008BF134B9D46A3F5803A00218B460F46CD
:102270001348144A121A00F065F80F4B002B00D0D7
:1022800098470E4B002B00D09847002000210400F7
:102290000D000D48002802D00C48AFF3008000F07C
:1022A0002BF82000290003F0DDFA00F011F800BF40
:1022B00000000800000004200000000000000000F2
:1022C000303000201CF90020000000000000000059
:1022D00008B5074B044613B10021AFF30080054B4E
:1022E0001868836A03B19847204600F033F800BFAE
:1022F0000000000084F8040070B50E4B0E4CE41A88
:10230000A41000251E46A54204D056F82530984753
:102310000135F8E72DF0A8FA084C094BE41AA4108F
:1023200000251E46A54204D056F8253098470135B1
:10233000F8E770BD24300020243000202830002031
:102340002430002002440346934202D003F8011BCC
:10235000FAE77047FEE700BF2DE9F04F1546C7B01A
:102360001C46002900F01C81002B00F0EF800A239E
:1023700001930023194606AE519B539A519F03EBDC
:10238000020B019B013B059320258C4601980CEB29
:10239000000304933133F318029306EB0C03002877
:1023A0005FD05A4202F00302824228BF024606284A
:1023B00000F2EC80019A06F80C50012A03F10101A9
:1023C00000F0E280022A5D7003F1020100F0DC807F
:1023D000032A9D7003F1030100F0D680042ADD700A
:1023E00003F1040100F0D080062A1D7103F10501FC
:1023F00040F0D3805D71991D9646019890422ED091
:10240000C2EB0009A9F1040080080130039005988F
:10241000C2EB000A0398BAF1020F4FEA800812D902
:10242000624401284FF0203C06EB020A46F802C045
:1024300005D00228CAF804C001D0CAF808C0C845AF
:102440004144C6440BD001980D700EF10102904238
:1024500005D90EF1020E70454D7000D98D70019AAC
:102460001344534A0299D2F80080DDF84891DA1CEF
:10247000481C03F1330C0CE002F8035C02F8025C28
:1024800002F8015C0332624500F8015C00F10100D2
:1024900033D0A345F0D9A74295BFE11B509919F855
:1024A0000110095D02F8015C4FEA211E5FFA8EFA05
:1024B000BEF1090F01F00F0ED4BF0AF1300A0AF184
:1024C000370ABEF1090F02F803AC94BF0EF1300ECB
:1024D0000EF1370E08EB010A02F802EC9AF801E05F
:1024E00003321EF0970F08BF2E21624500F8011C31
:1024F00004F1010400F10100CBD1029804990D22EE
:102500004FF00A0801F14309027480F8118083F842
:10251000305023464FF0000A4C46994606EB0A011C
:102520002246002003F080FB8244241A10B9B8F13F
:10253000010801D0002CF1D1CB454C464FF0000CE6
:102540003FF624AF204647B0BDE8F08F06AE0B68DB
:10255000184A30464FF480712CF076FA0028F1DBEF
:102560000A230746019328462CF0D5FAC22828BF33
:10257000C220804629460246F0192BF0D3FE08EB14
:10258000070300241946F7E6964636E7002A7FF44B
:1025900012AF19469646019832E74FF0050E2CE728
:1025A00013B1019106AEE7E60194274606AEDAE7DD
:1025B0002030002088F804002DE9F0419046C6B094
:1025C0001F46C1B106AE0B68564A30464FF48071C3
:1025D0002CF03AFA00280ADB4C9B0546062B00F249
:1025E0009F80DFE803F042525D6A798A1400002080
:1025F00046B0BDE8F0814C9B062B00F28F80DFE8EF
:1026000003F033424D5A697A0400002506AE07F103
:102610000C017A683B68D7F808C092C9701900921B
:10262000029103944246CDF804C00497C5F5807129
:102630002CF00AFA0446002CD9DB2C44B4F5807F38
:10264000D5D80A27002506AE71192246002003F0CE
:10265000EBFA0544241A08B9013F01D0002CF3D14C
:10266000012046B0BDE8F081002540462CF053FA29
:102670004319FF2B0446DED806AE414670192246A8
:102680002BF050FED7E7002506AE701942463B6896
:10269000C5F580712CF0D8F90446CCE7002506AECC
:1026A0007A683B68009270194246C5F580712CF03B
:1026B000CBF90446BFE7002506AE7A68B9683B68E7
:1026C0000092019170194246C5F580712CF0BCF959
:1026D0000446B0E7002506AE7A68BC68F9683B6836
:1026E00000920194029170194246C5F580712CF058
:1026F000ABF904469FE7002506AE07F108017A68AA
:102700003B6892C970190092019102944246039766
:10271000C5F580712CF098F904468CE7002490E709
:1027200000248AE788F8040070B5074C074D237829
:10273000064613B12B78834204D003F0B9FB012382
:102740002E702370002070BD4D3000204C300020D2
:1027500000487047B925020000487047592302001D
:1027600038B50120FFF7E0FF044638B9FFF7F0FF66
:102770000546FFF7F1FF024B5D619861204638BDC9
:102780005030002010B5054C82B00A460021646923
:1027900000910B46A04702B010BD00BF5030002092
:1027A00030B585B004AB054C43F8042D01250A462D
:1027B000646900950021A04705B030BD503000206D
:1027C00030B5064C85B00225029203930A4664692F
:1027D0000095002102ABA04705B030BD503000206D
:1027E000084B1B5C1F2B8ABF074A4FF0A04203F027
:1027F0001F03D2F80405D84000F0010080F001006A
:10280000704700BF94F8040000030050074B1B5CA6
:102810001F2B86BF03F01F0305494FF0A041012283
:1028200002FA03F3C1F80C35704700BF94F80400B6
:1028300000030050064B1A5C1F2A86BF02F01F02DD
:1028400004494FF0A04101239340C1F80835704777
:1028500094F80400000300504FF0A04310B44FF46C
:1028600080404FF400544FF400414FF48032C3F8DD
:102870000845C3F80805C3F80815C3F808255DF82E
:10288000044B70474FF0A04310B44FF480404FF416
:1028900000544FF400414FF48032C3F80C45C3F8A4
:1028A0000C05C3F80C15C3F80C255DF8044B7047F4
:1028B0000A4B195C1F298ABF09484FF0A04001F05C
:1028C0001F01D0F8043501228A4022EA0301134097
:1028D000C0F80815C0F80C35704700BF94F8040024
:1028E0000003005030B44FF0A04303224FF40055D2
:1028F0004FF480444FF400404FF48031C3F8342744
:10290000C3F83827C3F83C27C3F84027C3F8085555
:10291000C3F80845C3F80805C3F8081530BC70476C
:10292000084B1B5C1F2B8ABF074A4FF0A04203F0E5
:102930001F03D2F81005D84000F0010080F001001C
:10294000704700BF90F80400000300500B2809D026
:102950000C2809D0182809D0192814BF4FF0FF30CF
:102960000320704700207047012070470220704705
:102970004B4B1978002900F091802DE9F04F87B07A
:10298000DFF828C104910024012504E00134049BF0
:10299000E4B29C4265D227B2DCF8006016F837003A
:1029A000A0F1200305FA03F93E4BC0F1200ED3E954
:1029B000002325FA0EFE49EA0E0905FA00F808EA96
:1029C000020A09EA030B06EBC7015AEA0B0E05914E
:1029D000DCD03449CDF810C022EA080223EA09030A
:1029E000C1E9002301F05EFA16F83760DDF810C087
:1029F000A6F1200205FA02F201920199C6F1200324
:102A00005FFA80FA25FA03F3A6F1200219430AFAC5
:102A100002F30393019105FA06F10091C6F1200734
:102A20000399214B2AFA07F7394303910AFA06F171
:102A3000D3E900230291DDE900011040194002466C
:102A40000B46DDE902018B4208BF82424FF0000BCA
:102A50000AD0134B1B7804930134049BE4B29C42CC
:102A600099D307B0BDE8F08F059A576852780023D4
:102A7000A2F10102B2FA82F25209002FE9D05B45BD
:102A800006BF5245012100213046CDF814C0B84799
:102A9000034BDDF814C01B78049377E7704700BF41
:102AA00074300020A03000209830002070300020CA
:102AB0002DE9F8430746204800F0A0FDD0B91F4E8D
:102AC0000123A7F1200103FA01F5C7F12002D6E99D
:102AD000000123FA02F2154303FA07F404EA0002A4
:102AE00005EA0103134307D020EA040421EA05059F
:102AF000C6E90045BDE8F883384601F0D3F9104F28
:102B0000D7E9002398B144EA020845EA0309D6E967
:102B1000002314431D43C7E90089C6E9004509495C
:102B2000054809680022BDE8F84300F00DBD22EA1F
:102B3000040823EA0509EAE778300020A0300020E5
:102B4000983000206C300020F0B5042A83B016467F
:102B500002D8072003B0F0BD05460F4601F042F849
:102B6000002836D01D4BDFF88CC0DFF88CE01C4805
:102B70001C491D60002200237C1E8CF80070CEF8DA
:102B80000060C0E90023C1E90023E4B2DFB10327FC
:102B9000002600E01C4623B205EBC30215F8330003
:102BA0009378114A8DF8053001A98DF804708DF8DD
:102BB00006608DF8076001F01FF8631E0028C9D178
:102BC000DBB2002CE6D1094A0948002100F0AAFC3A
:102BD000C0E700F0C1FF0028C4D0BBE77030002080
:102BE00098300020A0300020B12A02007129020094
:102BF00098F80400743000206C30002070B5084D47
:102C00002B785BB1074E00243368012113F83400A0
:102C100001F0CCF82B780134A342F5D8002070BD28
:102C2000743000207030002000B585B00023039080
:102C3000194644F2010001AAADF80430029300F0F5
:102C400003F805B05DF804FB08B501200949FFF75A
:102C500099FD03200849FFF795FDBFF34F8F074902
:102C6000074BCA6802F4E0621343CB60BFF34F8F97
:102C700000BFFDE79CF80400ACF8040000ED00E0A4
:102C80000400FA0510B48468C26803468088121BE9
:102C9000904203D204205DF8044B7047DA681C6848
:102CA00002400020A154DA680132DA605DF8044B7A
:102CB000704700BF03468068DA6890420DD010B4B8
:102CC0009A6898881C6802400020A25C0A709A6882
:102CD00001329A605DF8044B70470520704700BFD1
:102CE000F8B5204A204B0025C2F84051C2F84451A3
:102CF000C2F84851C2F84C51C2F80051C2F8045110
:102D00001B6813B31949D2F804250C68141B1A6800
:102D100024F07F44A2422F4609D8197CDE69A41A08
:102D2000154499B91EB133461A68A242F5D9104B21
:102D300010491A780B789A420DD00F490F4A41F882
:102D400023504FF48013C2F80031F8BD1F745A6944
:102D500098699047E6E7531CDBB2022B08BF0023BB
:102D60000B70EAE700100140AC300020A8300020D2
:102D7000B0300020B1300020C031002000E100E080
:102D80002DE9F04F7D4A7E49137809787D489942B4
:102D900087B0066800F0E8810133DBB2022B08BF80
:102DA000002379491370794A0291084652F823109A
:102DB000036874488A19002522F07F420260AE46FB
:102DC0002846A3B11A688A4200F2D681DC68C3F8AB
:102DD00000E0891A1044DA6934B1871927F07F4777
:102DE000DD619C605F601D461346002BEAD1029AAC
:102DF00004931360049C01230593654BDFF89481D1
:102E00001B7801935F4BDFF890C1D3F800A0029BC1
:102E10001F680023BB462F460093C1461E464FF055
:102E2000010E37B37A68B9683D46FF69CAEB020301
:102E300023F07F4363453CD80B442B606E60AE604B
:102E400085F810E0EE61002C67D021688B4242D9F2
:102E5000204603E01168994244D21046C2695B1AC9
:102E6000002AF7D12B60EA612346C5611C46002F7A
:102E7000D8D198F8003098F801209A4200F08E805E
:102E80005A1C03EB430308EBC30399F802109D6837
:102E9000D2B2914289F800201A7908BF89F80070EF
:102EA000022A48D0032A3CD0012A22D023461C46BD
:102EB000DDE7C2EB0A0222F07F428A4202D28B1A7D
:102EC0002B60BBE72E606E60AE6085F810E0EE61AF
:102ED0001CB321680023CB1A23602B46EC61AB4660
:102EE0001C46C4E7C91A11602B60EA612346C5611C
:102EF000BCE72A7C0392002AD8D1DA686A60196993
:102F0000A9605869E86010339B68AB61019B002B96
:102F10008CD0039B6B601A4688E72B46AB461C4659
:102F2000A5E70CB9C2E71C46E3692674002BFAD169
:102F30009B461C469BE754B1A54200F008812346FE
:102F400002E0954207D01346DA69002AF9D12346F8
:102F50002E741C468BE7AB4200F0FA80E9692868C2
:102F6000D9610029F3D023460A6802440A60009A16
:102F70002E749C4218BF01220092EAE7B030002074
:102F8000B1300020A8300020AC300020C03100203B
:102F9000B2300020B4300020FEFF7F00029B9DF87D
:102FA0000420C3F800B0764BC3F800A0754B1A702C
:102FB000009B1BB9049BA34200F0D081002C00F0C1
:102FC0003C81714D6E4BD5F804051B686F4ED4F8EB
:102FD00000C03178C21A22F07F420332002952D158
:102FE0006B4FDFF8B091DFF8B0814FF480314FF4D0
:102FF000003E0124C5F84413C5F80413C7F880E166
:10300000C7F800E02C602F21D9F8005000BF00BFA6
:1030100000BF00BF00BF00BF00BF00BF45452FD0AD
:1030200000BF00BF00BF00BF00BF00BF00BF00BFA8
:1030300000BF00BF00BF00BF00BF00BF00BF00BF98
:1030400000BF00BF00BF00BF00BF00BF00BF00BF88
:1030500000BF00BF00BF00BF00BF00BF00BF00BF78
:1030600000BF00BF00BF00BF00BF00BF00BF00BF68
:1030700000BF00BF00BF00BF00BF00BF00BF00BF58
:103080000139C3D1347062452CBF9A1803EB0C028E
:103090003D4922F07F43C1F84035D1F80425121A8A
:1030A0001B1A22F07F4223F07F4303329A4248D911
:1030B000D1F80435374AC1F84035126836492F2314
:1030C00000BF00BF00BF00BF00BF00BF00BF00BF08
:1030D0008A422FD000BF00BF00BF00BF00BF00BFAB
:1030E00000BF00BF00BF00BF00BF00BF00BF00BFE8
:1030F00000BF00BF00BF00BF00BF00BF00BF00BFD8
:1031000000BF00BF00BF00BF00BF00BF00BF00BFC7
:1031100000BF00BF00BF00BF00BF00BF00BF00BFB7
:1031200000BF00BF00BF00BF00BF00BF00BF00BFA7
:1031300000BF00BF013BC3D1154B4FF40032C3F8B1
:103140000021104A0023137007B0BDE8F08F22461B
:10315000D4F81CB0BBF1000F22D0D16910685B46D7
:1031600000297FF401AF02E70C4B02931B68049324
:10317000002505951C4640E6521A1A6037E600BF46
:10318000A8300020B230002000100140C8310020DB
:1031900000E100E0D02F00200024F400AC3000203B
:1031A0007549764BC1F808E075492F20096800BFC2
:1031B00000BF00BF00BF00BF00BF00BF00BF9942FB
:1031C0002FD000BF00BF00BF00BF00BF00BF00BFC7
:1031D00000BF00BF00BF00BF00BF00BF00BF00BFF7
:1031E00000BF00BF00BF00BF00BF00BF00BF00BFE7
:1031F00000BF00BF00BF00BF00BF00BF00BF00BFD7
:1032000000BF00BF00BF00BF00BF00BF00BF00BFC6
:1032100000BF00BF00BF00BF00BF00BF00BF00BFB6
:1032200000BF0138C3D1D1691068002900F09B802C
:103230000122DA465B46019296E64F4A514B504EC8
:103240004E484FF480314FF400370125C3F88070A9
:10325000C2F848132F23C2F80813556031681E4680
:1032600000BF00BF00BF00BF00BF00BF00BF00BF66
:1032700081422FD000BF00BF00BF00BF00BF00BF12
:1032800000BF00BF00BF00BF00BF00BF00BF00BF46
:1032900000BF00BF00BF00BF00BF00BF00BF00BF36
:1032A00000BF00BF00BF00BF00BF00BF00BF00BF26
:1032B00000BF00BF00BF00BF00BF00BF00BF00BF16
:1032C00000BF00BF00BF00BF00BF00BF00BF00BF06
:1032D00000BF00BF013EC3D195602B4A146000BF00
:1032E00000BF00BF00BF00BF00BF00BF00BF8142E2
:1032F0002FD000BF00BF00BF00BF00BF00BF00BF96
:1033000000BF00BF00BF00BF00BF00BF00BF00BFC5
:1033100000BF00BF00BF00BF00BF00BF00BF00BFB5
:1033200000BF00BF00BF00BF00BF00BF00BF00BFA5
:1033300000BF00BF00BF00BF00BF00BF00BF00BF95
:1033400000BF00BF00BF00BF00BF00BF00BF00BF85
:1033500000BF013BC3D10D4B1C70F2E6059B002B57
:103360003FF4EFAE2AE601231A4601938A468B46C4
:103370000B4600922E74ECE5001001400024F4008E
:10338000D02F002000E100E0A8300020C83100204C
:103390002DE9F041594B5A4A5A4D5B4E4FF4803457
:1033A0004FF400310120C2F88010C3F848432F21A8
:1033B000C3F8084358602D680C4600BF00BF00BF2B
:1033C00000BF00BF00BF00BF00BFB5422FD000BF8D
:1033D00000BF00BF00BF00BF00BF00BF00BF00BFF5
:1033E00000BF00BF00BF00BF00BF00BF00BF00BFE5
:1033F00000BF00BF00BF00BF00BF00BF00BF00BFD5
:1034000000BF00BF00BF00BF00BF00BF00BF00BFC4
:1034100000BF00BF00BF00BF00BF00BF00BF00BFB4
:1034200000BF00BF00BF00BF00BF00BF00BF013C26
:10343000C3D1364C98600020206000BF00BF00BFA1
:1034400000BF00BF00BF00BF00BFB5422FD000BF0C
:1034500000BF00BF00BF00BF00BF00BF00BF00BF74
:1034600000BF00BF00BF00BF00BF00BF00BF00BF64
:1034700000BF00BF00BF00BF00BF00BF00BF00BF54
:1034800000BF00BF00BF00BF00BF00BF00BF00BF44
:1034900000BF00BF00BF00BF00BF00BF00BF00BF34
:1034A00000BF00BF00BF00BF00BF00BF00BF0139A9
:1034B000C3D1174D1749DFF86080DFF860C0DFF82F
:1034C00060E028704FF48016E0250B27C8F8000054
:1034D0008CF800008EF80000087048708F70C2F8F9
:1034E000806182F814531660C3F8080582F81153FE
:1034F000D3F804352360BDE8F08100BF001001401F
:1035000000E100E0D02F00200024F400A8300020CB
:10351000C8310020B4300020AC300020B030002092
:10352000B1300020074B9B780BB9082070473AB1A7
:1035300030B10368187C0028F7D159745A6170477C
:1035400007207047B43000202DE9F043284CA378C1
:1035500083B01BB9082003B0BDE8F0830028F9D080
:10356000042903D8072003B0BDE8F0834369002B8A
:10357000F0D0064602A8737C0025012B00F8015DFF
:103580000CBF8946A94690460F4600F0B5F863780F
:10359000A07821785A1CD2B2904208BF2A469142A4
:1035A0001FD003EB430304EBC30319464FF0010E96
:1035B00041F8086F0F4883F804E0D0F804654E60C6
:1035C0008F609DF80700C3F81490C3F818806270EC
:1035D00000F0BAF8084B4FF480122846C3F80021D7
:1035E000B9E79DF8070000F0AFF80420B3E700BF8B
:1035F000B43000200010014000E100E070B51B4C29
:10360000A37882B013B9082002B070BD0028FAD0A8
:103610004369002BF7D0064602A8002500F8015D9B
:10362000357400F069F86278A0782178531CDBB219
:10363000984208BF2B46994212D002EB420204EB9B
:10364000C20202219DF8070096601171637000F0BC
:103650007BF8074B4FF480122846C3F80021D3E7CC
:103660009DF8070000F070F80420CDE7B43000208A
:1036700000E100E070B50B4C01460B482678FFF7DF
:1036800019FB05460EB9284670BD002307480849B6
:103690002370012200F062FE0028F4D0FFF7C4FA84
:1036A000284670BDE4310020E8310020BC2F002006
:1036B000D031002010B501460C48FFF7E3FA04466C
:1036C00008B1204610BD0A4800F03CFE0028F8D1A1
:1036D00006480849FFF7EEFA0028F2D104480549E8
:1036E0000122BDE8104000F073BD00BFD4310020BE
:1036F000BC2F0020CC310020F0B4EFF3108472B660
:103700000E4B9A68B2B90E4901259D60D1F88070C0
:103710000C4D2E463D401D60C1F88060D1F88450AC
:103720005D604FF0FF33C1F88430027004B962B6B7
:10373000F0BC704701230370F8E700BFC0DF002032
:1037400000E100E0FC06FFBD094B9A6872B168B960
:1037500010B4EFF3108272B606491C680C605C6806
:103760004C60986002B962B65DF8044B704700BFC8
:10377000C0DF002000E100E020B1034B5B6E03607E
:103780000020704703207047F831002070B5161EE6
:1037900007DD0C468D1914F8010BFFF78BFFAC42C7
:1037A000F9D1304670BD00BF10B50C462046FFF77A
:1037B00061FF0528FAD0012010BD00BF3FDF704730
:1037C00040DF704741DF704710B50E4C23780BB1D6
:1037D000852010BD0C4A6360E3601068A36010F0A0
:1037E0000100236102D1072100F08EF903F0BEFF32
:1037F00020B94FF080430122C3F81825012323701C
:10380000002010BD6032002000E100E030B5224D04
:10381000AB7883B0044603F0FF0293B110B1436864
:103820000120984702A8002300F8043DFFF764FF39
:10383000EB689DF804000133EB60FFF785FF03B0F0
:1038400030BD02A800F8052DFFF756FF64B12A69C4
:1038500042B1944208D0134601E09C4204D01B6858
:10386000002BFAD122602C61EB6863B90B4A0C493A
:103870001360136801934FF0804202200123019CE2
:10388000C2F804030B60EB689DF803000133EB60A2
:10389000FFF75AFF03B030BD603200200401004042
:1038A0000800004008B503F061FF28B94FF08043DD
:1038B000D3F81804C0F3004008BD00BF30B5254D53
:1038C0006B7883B0044603F0FF0293B110B14368F4
:1038D0000020984702A8002300F8043DFFF70CFFE2
:1038E0006B689DF8040001336B60FFF72DFF03B098
:1038F00030BD02A800F8052DFFF7FEFE64B1AA68EE
:1039000042B1944208D0134601E09C4204D01B68A7
:10391000002BFAD12260AC606B6843B16B689DF8F4
:10392000030001336B60FFF70FFF03B030BD03F0FE
:103930001DFF58B9084B18601B6801934FF0804376
:1039400001220199C3F804231A60E7E7FFF736FF65
:10395000E4E700BF603200200001004010B582B0F3
:1039600002A80023144C00F8013DFFF7C5FE636870
:10397000013B636063682BB19DF80700FFF7E4FE2D
:1039800002B010BD03F0F2FE98B90C4B01221A6090
:103990004FF08042D2F80C3403F00113B3F1011F51
:1039A000F8D000239DF807006370FFF7CDFE02B04A
:1039B00010BDFFF705FFDFE7603200200400004084
:1039C00000B583B003F0D2FE68B94FF08043D3F85E
:1039D0000C0400F00110A0F10110B0FA80F04009D1
:1039E00003B05DF804FB01A8FFF7ECFE019800307E
:1039F00018BF012003B05DF804FB00BF10B51D4BDC
:103A00001A6882B0F2B91C4B1A680AB902B010BD2C
:103A100000221A601B6801934FF080430222174C6A
:103A20000199C3F8082323690122A270002BEDD06D
:103A30001A6822615B68012098472369002BF7D13F
:103A400002B010BD00221A601B6800934FF0804343
:103A500001220A4C0099C3F80823A3686270002B66
:103A6000D1D01A68A2605B6800209847A368002B39
:103A7000F7D1C8E700010040040100406032002097
:103A800000B1704710B5064CA3683BB11A68A2603C
:103A90005B6800209847A368002BF7D110BD00BFDA
:103AA0006032002010B582B002A80023144C00F848
:103AB000013DFFF721FE237893B9124A6360E3606A
:103AC0001068A36010F00100236114D003F04EFED3
:103AD00020B94FF080430122C3F818250123237039
:103AE000E3689DF8070001330122E360A270FFF74D
:103AF0002BFE02B010BD072100F006F8E6E700BF7C
:103B00006032002000E100E0002810B418DB00F172
:103B1000604303F561434901C9B283F80013C3B29E
:103B20004009800000F1604000F5614003F01F0291
:103B300001239340C0F8803103605DF8044B704767
:103B4000C3B2044A03F00F0449012244C9B21176FA
:103B5000E6E700BFFCEC00E030B51F4C94F8645081
:103B600083B015B1082003B030BD4FF0FF33FF2202
:103B70000620072123636363A363E3632364636411
:103B8000A364E36423656365A365E3652360636001
:103B9000A360E36023616361A361E361236284F84E
:103BA00060306362A36284F86230E36284F8633059
:103BB00084F86120FFF7A8FF084B094A1D601B68C5
:103BC000019301984FF000430121284684F86410C6
:103BD000C2F8043303B030BD743200207C61004071
:103BE00000600040034B93F86400003018BF0120D0
:103BF000704700BF74320020F0B56A4C251895F963
:103C00003030002B01DB0820F0BD91F803E0944632
:103C1000BEF1000F56D02368013300F0BB800826A8
:103C200000256B1C5F4F54F82320013251D0AB1C90
:103C30009E4245D957F8232001324AD0EB1C9E42C0
:103C40003ED957F82320013243D02B1D9E4237D94D
:103C500057F8232001323CD06B1D9E4230D957F8D3
:103C60002370013735D0AB1D9E4229D954F823204B
:103C70004C4F01322DD0EB1D9E4221D957F8232005
:103C8000013226D005F108039E4219D957F82320A6
:103C900001321ED005F109039E4211D957F82320A5
:103CA000013216D005F10A039E4209D957F8237054
:103CB00001370ED00B35AE4202D9E36A013307D08B
:103CC0000420F0BD236A01335CD00C260825A8E748
:103CD0000B232618DDB244F823C0324686F8305054
:103CE000BEF1000F02D1234483F858008B78DBB972
:103CF0001F284A7887BF2C4E00F01F0303464FF061
:103D0000A04603F5E073920046F82320CB78E3B990
:103D10006AB2083A1444097894F8602042EA8112A1
:103D200084F860201846F0BD1F2887BF1E4B00F0A6
:103D30001F0202464FF0A04303EB8203D3F8002793
:103D400022F00202C3F80027E0E76BB29B0003F108
:103D5000804303F5C0430A78D3F8101521F44F319E
:103D600021F44071C3F810151204000202F440312E
:103D7000D3F8104500F47C520A432243C3F81025BF
:103D80000020F0BD082685F830603346C4F820C016
:103D90003546A8E7002385F83030C4F800C01D463A
:103DA000A4E700BF7432002000030050F0B43A4D85
:103DB0002E1882B096F8302053B2072B20DD2B440A
:103DC00093F858309B09032B44D0012B0CBF4FF4C0
:103DD00000324FF440321F2849D900F01F002F4B0A
:103DE00003EB8000D0F8003723F44033C0F80037ED
:103DF000D0F800371A43C0F8002702B0F0BC704773
:103E0000072AFAD8980000F1804000F5C04003F17D
:103E100040029200D0F8104592B202F18042002791
:103E200044F0010402F5C042C0F810450197019822
:103E300017600029E1D096F9302055F82220002A99
:103E4000DBD00122164902FA03F3C1F8043302B0B1
:103E5000F0BC70471F280DD9104BD3F8103500F077
:103E60001F00C340DB0713D54FF44032B7E74FF0D4
:103E7000A043B5E74FF0A0421346D2F81025C24048
:103E800012F0010F0CBF4FF400324FF44032A7E79D
:103E90004FF40032A3E700BF74320020000300504B
:103EA000006000401F288ABF054B4FF0A04300F080
:103EB0001F00D3F8103523FA00F000F0010070471E
:103EC000000300502DE9F04F89B00025B24B029558
:103ED00003951A68012A00F05081B04B1A68012A34
:103EE00000F03D81AE4B1A68012A00F02A81AD4BEB
:103EF0001A68012A00F01781AB4B1A68012A00F0FA
:103F00000481AA4B1A68012A00F0F180A84B1A68B4
:103F1000012A00F0DE80A74B1A68012A00F0CB804E
:103F2000A54B1A68012A00F0B58015F0FF0F1AD0D2
:103F3000A24F01260024A30003F180432E4203F583
:103F4000C0434FEA46060BD0D3F8100557F824209B
:103F5000D3F81015C0F30520C1F3014102B1904719
:103F60000134082CE7D1002D02DB09B0BDE8F08F49
:103F7000934F00224FF0FF33A7F16309049205929B
:103F8000069307938F4C4FF0000A4FF0010814F886
:103F9000013FFF2B30D0DBB223F0C00008AAC608D7
:103FA000951903F0070215F8081C08FA02F21142ED
:103FB00022D009EB000E99099EF930E059F82EC085
:103FC000BCF1000F56D0032956D01F288ABF03F03A
:103FD0001F060646DFF8F0E115F818BC98BF4FF051
:103FE000A04E06F5E0761BEA020F5EF82650C5F3F8
:103FF00001451AD1032D48D0BC42C8D1BAF1000FF7
:10400000B3D04FF0A0430299D3F810356E4A9942CD
:10401000D2F8102502D103999142A6D004980599AF
:104020000293039206900791ACE7022DE4D1032995
:1040300004D0BCF1000FDFD0E047DDE74FF44032A1
:104040001F288BBF604D4FF0A04503F01F030346B0
:1040500005EB83030AF1010AD3F8005725F4403534
:10406000C3F80057D3F800572A435FFA8AFAC3F817
:104070000027DEE70329BFD10DF1100B1BF806E086
:104080004EEA020E0BF806E09FE70329D1D14FF468
:104090000032D5E700221A601B6801934FF0A0425E
:1040A000019BD2F81025484B0292D3F810350393A8
:1040B00045F0004539E7454AD2F8042312067FF55A
:1040C0002FAF00221A601B680093009B45F080050B
:1040D00026E73E4AD2F8042351067FF51CAF0022A2
:1040E0001A601B680093009B45F0400513E7374AB0
:1040F000D2F8042390067FF509AF00221A601B68EE
:104100000093009B45F0200500E7304AD2F80423D5
:10411000D4067FF5F6AE00221A601B680093009B60
:1041200045F01005EDE6294AD2F8042316077FF57D
:10413000E3AE00221A601B680093009B45F008055F
:10414000DAE6224AD2F8042357077FF5D0AE0022E0
:104150001A601B680093009B45F00405C7E61B4AE4
:10416000D2F8042392077FF5BDAE00221A601B68C7
:104170000093009B45F00205B4E61449D1F80413FE
:1041800011F0010105D01D601B680093009B1546CE
:10419000A3E60D46A1E600BF0061004004610040B7
:1041A000086100400C610040106100401461004053
:1041B000186100401C6100407C61004074320020A6
:1041C000D7320020D33200200003005000600040AE
:1041D0002DE9F04103795A4D5B01EC1886B0247F3C
:1041E00044B101F06044B4F1005F03D0102006B088
:1041F000BDE8F0812B44DFF848E19F7D1FB111201D
:1042000006B0BDE8F08199609A759F8206797601C3
:104210000EEB06010B7F2BBB0268C2F81C31D2F8F3
:104220001C41026805940124059F94600468D1F83C
:1042300008C0C4F81C31D4F81C310493049B8F8A45
:104240008B8AD1F804E0BFB201331CF807709BB22F
:104250008B82C4F81C75BEF1000F33D0002006B06D
:10426000BDE8F08103688A68C3F82071D3F8204163
:1042700003680294029CC3F85871D3F8584103684C
:1042800001948C7D019FC3F84425C3F84845036819
:1042900001229A604B68002BE0D1026801E0002BFC
:1042A0004CD1D2F82011D2F85831003318BF012375
:1042B0000029F4D0002B0CBF00200F20AB190022E6
:1042C0009A7594E78F7D8B8A01F110029BB2BB42F5
:1042D00026D2046804E093889BB2B3F5807F05D0B2
:1042E000D4F81C3101F11002002BF4D001F11002BE
:1042F00093889BB2B3F5807FE5D0C4F81CE1D4F875
:104300001C310393039BB2F8048093881FFA88F84A
:1043100001331CF808809BB29380C4F81C85D2E757
:1043200093889BB2B3F5807F08D00268D2F81C3125
:10433000002BFBD00123D3600020BFE70F20BDE797
:10434000DC3200200279044B03EB4213987D0030ED
:1043500018BF0120704700BFDC320020F0B50379A0
:10436000924C5B01E51889B02E7F3EB101F06046AA
:10437000B6F1005F52D0102009B0F0BD6F6827B1D0
:1043800005684FF40176C5F80863234403F110066D
:10439000F579DFF818E255BBF271D9601D765D76CC
:1043A00006797601A31918331F79002F47D19B781E
:1043B0008BB985B90368C3F82451D3F82421036865
:1043C0000492049AC3F80851D3F8082103680392B1
:1043D000012203991A60A5196B68002B64D0036849
:1043E0004FF401720020C3F8042309B0F0BD1D7E14
:1043F00085B1002F00F0AC8003790EEB431E9EF8D0
:104400001C30002B49D003684FF40472C3F8042316
:104410001120B1E719611A760125C1E76F68002FF5
:10442000B3D00568DFF884E14FF404762344C5F87F
:10443000086303F11006F579002DADD0D7E70368C6
:104440000026C3F81061D3F8107103680297029F29
:10445000C3F84461D3F8446103680196019EC3F830
:104460003415C3F8382585B9036801221A60057927
:104470006D0163195B68002B6CD003684FF4047204
:104480000020C3F8042309B0F0BD0268D2F800325E
:1044900043F02003C2F80032E9E703684FF40172E9
:1044A000C3F80423112067E70268C2F84431D2F848
:1044B00044310593059B0168D1F82421D1F8087196
:1044C000D1F84431003218BF0122003318BF012354
:1044D00047B9002B35D1002AEED0A3190022DA7596
:1044E000032049E7002AF8D16BBBEA7D02B3C1F88B
:1044F0000831D1F808310693069A6F7EEA68D1F840
:104500001815D1556A7E0132D2B26A7605F11803C8
:1045100005F110025978D7798F42CCD89B780021C9
:10452000D171002B3CD00368012208461A6023E7B2
:10453000C1F80821D1F808310793079BD1F8183545
:10454000E4E7002AC9D1A3190022DA750F2013E786
:10455000112011E7016801E0D3B9EAB9D1F810617F
:10456000D1F84431D1F82421003318BF012300329F
:1045700018BF0122002EEFD0002A4FF000012C447A
:1045800014BF032008468B42E17518BF0F20F3E6E5
:104590002C440F20E675EFE62C440320E375EBE690
:1045A0000268012118465160E6E600BFDC320020B7
:1045B000F0B59B4C237F8FB0002B75D1994AD2F870
:1045C0000413890548D4974BD3F80423520704D524
:1045D000D3F80821002A40F0CA80924BD3F81C215E
:1045E000C2B1A28AA07D8E4992B282424FF00002EF
:1045F000C3F81C2180F0A980D3F81C210692069AEA
:10460000888A8A8A8D6880B20132285C92B28A8256
:10461000C3F81C05834BD3F84421DAB10022C3F858
:104620004421D3F84411A27E04910499002A40F059
:104630008980E27D7A4B6AB10022587ED968DA75AA
:1046400001228DF830000B918DF828200AA893E8FC
:10465000060090470FB0F0BDD2F824110029B2D067
:10466000C2F82431D2F82411A37E07914FF40171CE
:104670000798C2F808130BB901235360694A022353
:104680008DF82830D2F88034C2F88034E07DE268BA
:104690000D9300238DF83000E375237621680B928B
:1046A00063680AA8984798E75E4BD3F82421002A4C
:1046B00040F09380D3F8101161B1C3F81021D3F802
:1046C000101103910399D3F83C15E07DC9B28842DB
:1046D00000F0AA80534BD3F84421B2B10022C3F8B2
:1046E0004421D3F84411E07D019101994C4960B116
:1046F000D3F83C35C8688DF830300123CA750B906B
:104700008DF828300AA80AC99847464BD3F82021CB
:10471000002A9FD00022C3F82021D3F82011A07DC9
:10472000009100993E49002894D0D3F84C058B683D
:104730008DF830008A750B938DF828200AC90AA8D5
:10474000984787E701221A6073E7D3F81C31059375
:10475000059B00283FF45EAF8B688DF830008A75AA
:104760000B938DF828200AC90AA8984752E7E17DE3
:104770002B4A002970D00021C3F80811D3F8081182
:1047800008910899D068517ED3F818354354537E68
:10479000D17D0133DBB25376627E214B8A427FF4B6
:1047A0001CAF1A7E002A6DD19B7E13B91D4B0122CE
:1047B0005A601C4AE06863684FF40171C2F808133C
:1047C000627E8DF83020002501220B902168E5756E
:1047D0008DF828200AA89847FFE60022C3F8242174
:1047E000D3F82411029102218DF828100299D3F8F0
:1047F0008014C3F880140D91D3F83C15E368E2757A
:1048000022768DF830100B93216863680AA89847C8
:10481000044BD3F84421002A3FF477AF5EE700BF92
:10482000DC32002000800240217EF1B1D3F800721A
:10483000E17527F02001E6682569C3F8001201231D
:104840008DF830008DF82830227621680B96E560CF
:1048500063680AA898473DE7C3F80811D3F8082110
:104860000992099AD3F8183596E7E268E1750123B1
:104870008DF830008DF828300B9294E80A000AA8D1
:10488000984727E7DE685D7E1869DA750121002206
:10489000D8601A765A768DF828100B968DF830501D
:1048A00093E806000AA8904797E600BF0220FDF7AC
:1048B000FFBF00BF2DE9F0470D460646FEF746F85C
:1048C000032804461DD8012D1FD00ED3022D1AD166
:1048D0001C4B00EB40041C44657895B11A4B1B68D7
:1048E0007BB12846BDE8F04718471848FEF786FE1A
:1048F0001449174A04EB44030B44155D9B789D4211
:10490000EBD0BDE8F087BDE8F087DFF838804700DE
:104910003B1808EB030218F8035053782BB92744CF
:1049200047440B4BBA781A55D7E7DFF82890074869
:104930004A464FF40041FEF707FE0028EFD189F800
:104940000060ECE7783300202C3300203033002067
:10495000243300207433002010B50078FDF7F6FFF3
:1049600003280BD8064B00EB40001844407828B1D0
:10497000044B1B6813B1BDE81040184710BD00BFC1
:10498000783300202C330020B34B1B68DB0700D4A6
:10499000704770B5B14EB24D33782C78FBB9172CF7
:1049A0001CD8DFE814F0F100140114016300760054
:1049B000830096005D0039002C0039002C00A30014
:1049C000A800A800A800A800A800CE00DE000101F1
:1049D000460018001800FDF755FF2C7070BDA14B64
:1049E0001B7800203070002B00F00581FDF722FFBE
:1049F0000120FDF71FFF0320FDF71CFFCFE7012378
:104A000018463370FDF754FF97484FF48041002259
:104A1000BDE87040FEF798BD012318463370FDF7DE
:104A200047FF914840F6CD410022BDE87040FEF7B7
:104A30008BBD8C4B1B78002B00F0FE800020FDF717
:104A4000F9FE0120FDF7F6FE0320FDF7F3FE00203E
:104A5000FDF7DCFE0120FDF7D9FE15232B7070BD9C
:104A60000020FDF7D3FE07232B7070BD0020FDF75B
:104A7000B7FE002800F0D3800020FDF7DBFE46F2F1
:104A8000666103232B7078480022BDE87040FEF772
:104A90005BBD0020FDF7A4FE002800F0C5800020CB
:104AA000FDF7C8FE4FF400310423EBE70020FDF7CB
:104AB00097FE002800F0BD800020FDF7BBFE052317
:104AC0002B70694841F69A110022BDE87040FEF74C
:104AD0003BBD0020FDF7ECFE06232B70624840F63C
:104AE000CD410022BDE87040FEF72EBDFDF7CAFEA5
:104AF0000C232B7070BD5D48FEF780FDD4F11104CE
:104B000005467BD0002879D1012C13D0C82303FBA4
:104B100004F44FF4FA704FF400430021C3FB040186
:104B20004FF47A72002329F0E9F82A4601464F48EB
:104B3000FEF70AFD0220FDF769FE4A4B01221A70BA
:104B400070BD484B1B78002B79D00020FDF772FE1A
:104B50000120FDF76FFE0320FDF76CFE12232B7082
:104B600070BD404B1B78002B6FD00020FDF762FE1C
:104B70000120FDF75FFE0320FDF75CFE0020FDF73E
:104B800045FE13232B7070BD364B1B78002B59D07C
:104B90000020FDF74FFE0120FDF74CFE0320FDF73E
:104BA00049FE00232B7070BD2E4B1B78002B4FD07D
:104BB0000020FDF73FFE0120FDF73CFE0320FDF73E
:104BC00039FE0120FDF722FE14232B7070BD00205A
:104BD000FDF706FEC8B10020FDF72CFE022C4EF2B8
:104BE000666118BF4FF400312C701F480022BDE8E9
:104BF0007040FEF7A9BCFDF72FFED0E60220FDF7BE
:104C000019FE184B00221A7070BDFDF7FFFD41F62A
:104C10009A1343F23331022C08BF1946E4E7FDF73B
:104C2000F5FD41F69A112CE7FDF7F0FD43F2333123
:104C30003AE7FDF7EBFD42E7FDF70EFE07E7FDF76C
:104C40000BFE8BE7FDF708FEABE7FDF705FE95E7EA
:104C5000FDF702FEB5E700BF203300202833002017
:104C6000503300201C330020FC320020543300203D
:104C7000FDF756BE38B5C44B1B6813F0010401D1D3
:104C8000204638BDC14C23780546E3B9172D00F204
:104C90007881DFE815F00B013101310169007D00F9
:104CA0009100A5005B003500280035002800B30006
:104CB000BA00BA00BA00BA00BA00E300F6001C015C
:104CC000420063006300B24B1B7800202070002B71
:104CD00000F02781FDF7AEFD0120FDF7ABFD0320BD
:104CE000FDF7A8FDD2E7012318462370FDF7E0FD8C
:104CF000A8484FF480410022BDE83840FEF724BCAC
:104D0000012318462370FDF7D3FDA24840F6CD419C
:104D10000022BDE83840FEF717BC9D4B1B78002BE6
:104D200000F020810020FDF785FD0120FDF782FDC8
:104D30000320FDF77FFD0020FDF768FD0120FDF752
:104D400065FD954B15221A70002499E70020FDF7A8
:104D50005DFD914B07221A70002491E7FDF792FD4B
:104D60008D4B00241D708BE70020FDF739FD0028D6
:104D700000F0E1800020FDF75DFD46F26661864BA4
:104D8000844803241C700022BDE83840FEF7DCBBD9
:104D90000020FDF725FD002800F0DC800020FDF755
:104DA00049FD4FF400317C4B7A4804241C700022EA
:104DB000BDE83840FEF7C8BB0020FDF711FD002814
:104DC00000F0CD800020FDF735FD734B71480524C0
:104DD0001C7041F69A110022BDE83840FEF7B4BBC2
:104DE0000020FDF765FD6C4B6A4806241C7040F6F8
:104DF000CD410022BDE83840FEF7A6BBFDF742FDDD
:104E0000654B0C221A7000243AE76448FEF7F6FB63
:104E1000D5F11105044600F08780002840F0848019
:104E2000012D14D0C82303FB05F54FF4FA704FF49D
:104E300000430021C3FB05014FF47A72002328F0E0
:104E40005DFF224601465548FEF77EFB04460220E0
:104E5000FDF7DCFC4E4B01221A7011E74C4B1B781E
:104E6000002B00F082800020FDF7E4FC0120FDF71C
:104E7000E1FC0320FDF7DEFC474B12221A700024F0
:104E8000FEE6434B1B78002B75D00020FDF7D2FCCB
:104E90000120FDF7CFFC0320FDF7CCFC0020FDF73F
:104EA000B5FC3D4B13221A700024E9E6384B1B7801
:104EB000002B5DD00020FDF7BDFC0120FDF7BAFC02
:104EC0000320FDF7B7FC344B00241C70D8E6304BB0
:104ED0001B78002B52D00020FDF7ACFC0120FDF721
:104EE000A9FC0320FDF7A6FC0120FDF78FFC2A4B4F
:104EF00014221A700024C3E60020FDF771FCF8B1FB
:104F00000020FDF797FC022D4EF2666118BF4FF4AA
:104F10000031214B1F481D700022BDE83840FEF7CC
:104F200013BBFDF799FCB1E60220FDF783FC184B9B
:104F300000221A70A4E6FDF769FC41F69A111EE7FB
:104F4000FDF764FC41F69A1343F23331022D08BF9A
:104F50001946DEE7FDF75AFC43F2333123E7FDF74C
:104F600055FC32E7FDF778FCE5E6FDF775FC83E7D5
:104F7000FDF772FCA7E7FDF76FFC8FE7FDF76CFC10
:104F8000B2E700247CE600BF203300202833002055
:104F90001C330020FC32002050330020543300200A
:104FA000F0B5214A214B1060044610F0020083B096
:104FB000196015D01E4B1F484FF00E0E0F271026FC
:104FC0001125042140F2666283F800E0DF709E71D3
:104FD0005D72FDF7B9FDA0B1E3071DD403B0F0BDCC
:104FE000E20719D41448154A0021FEF79BFA00285D
:104FF000F4D11348134A012103B0BDE8F040FEF795
:1050000091BAFDF7FBFD0028E6D101460E4A0F4894
:10501000FEF788FAE10703D50190FDF763FC0198DC
:105020000028DFD003B0F0BD203300202C33002057
:1050300078330020D0F80400CCF80400894902003D
:10504000F0F80400AD48020059490200C8F8040015
:10505000032801D907207047012A12D0012917D04F
:1050600008D30229F6D10D4B00EB40000344002089
:105070005A707047094B00EB4000034400209A70BF
:105080007047012901D00022E8E700F10E02D2B2F8
:1050900000EB400301490020CA54704778330020D8
:1050A00010B50388102B08D0112B05D1264B18689A
:1050B0000138186038B110BD10BD234C206880B194
:1050C0000130206010BD02210122FFF7C1FF48B36B
:1050D000072827D01D4B1B68002BECD0BDE81040E3
:1050E000184701460122FFF7B3FF48B1072807D050
:1050F000164B1B6803B1984720680130206010BD33
:10510000012002210722FFF7A3FF08B10728EFD1F2
:10511000002002210422FFF79BFF0028ECD0072883
:10512000E6D1E9E7012002210722FFF791FF08B14C
:105130000728CFD1002001460A22FFF789FF002867
:10514000B9D00728C6D110BD883300208433002091
:105150001A4B10B50C46186029B10120FFF788FDE5
:1051600030B102232370164B186848B1002010BDDF
:10517000FFF77EFDF8B9124B207018680028F5D1B2
:1051800002210122FFF764FF10B1072800D010BDF3
:10519000012002210722FFF75BFF08B10728F6D1A3
:1051A000002001460A22FFF753FF0028DED007281F
:1051B00008BF0020EBE70B232370D4E784330020E3
:1051C0008833002076DF70477ADF70477CDF7047D6
:1051D0007FDF704790DF7047A8DF7047A9DF704717
:1051E00069DF704766DF70473EDF7047FDF71CBD23
:1051F000420770B504460D4612D4230605D50F4864
:10520000002282604260C2600261284605F015FFFC
:10521000224603460A490320BDE87040FDF7D0BA94
:10522000084605F00AFF02380228E6D903490022A1
:105230008A604A60CA600A61DFE700BF6434002008
:1052400020F9040003200149FDF79CBA5CF9040031
:1052500070B5B4B0032205468DF80F1010A81021C8
:1052600005F0A4F91F4910A805F0B8F910A805F039
:10527000B7F9284610A905F0C8F968B30DF10F0178
:105280000122064605F09EFD044648B12246164915
:105290000320FDF785FA304605F08CFD34B070BD73
:1052A00021462C2205A8FDF74DF8012241F2336377
:1052B00009A90E488DF83820ADF8363005F049FBC5
:1052C0000094234605AA2846314605F0A7F904466E
:1052D0000028DBD134B070BD03200549FDF752FA38
:1052E00034B070BDACF90400F4F90400ECF904002A
:1052F000B4F9040010B50446FEF7C2FB2046BDE831
:10530000104018F061B900BF10B5044684B001F038
:1053100017FE2146524801F0A1FE2146514802F0F5
:105320009DF82388013B552B39D8DFE803F0783806
:10533000383838383838383838383838382B7F38B3
:105340008E38383838383838383838383838384976
:1053500038383838383838383838383838383838CD
:1053600038383838383838384038383838383838B5
:105370003838383838383838383838383838566E59
:10538000383838400720FFF775FC08B1FDF74CFCB2
:10539000354BA28835491A800320FDF7F3F92046E2
:1053A00001F068FC2046FFF77BFE04B010BDA0882A
:1053B0001321FFF707FF0028F1D0FDF735FCEEE7DA
:1053C000002108226846FCF7BDFF6946A08800223C
:1053D000FFF700FF0028E2D0EFE7A279A37B002AC5
:1053E000DDD0043B022BDAD8022A0CBF02220122B4
:1053F0004FF4C173A0888DF800206946ADF80430E1
:10540000FFF7EAFE0028CAD0D7E7174B002118881B
:105410000A460B46FFF7E2FE0028C0D0CDE7A08881
:105420000021FFF7DFFE0028B9D0C6E70020FFF714
:1054300021FC08B1FDF7F8FB0B4B0D494FF6FF724D
:1054400003201A80FDF79EF9A9E7074B0022188870
:1054500085211346FFF7BCFE0028A0D0ADE700BFB2
:105460007C34002098340020C42F002020FA04004F
:1054700038FA04000B4B4A881B889A4200D07047C8
:105480000A8840F677239A42F9D130B48C88064DC9
:105490000649033CA4B2224623462C80032030BC9C
:1054A000FDF78EB9C42F0020CC2F002050FA040045
:1054B00008B5037803B108BD054B3B211888FFF7F9
:1054C00081FE0028F7D0BDE80840FDF7ADBB00BF66
:1054D000C42F002008B59DF8082003204AB10749D1
:1054E000FDF75EF9064900228A604A60CA600A61D7
:1054F00008BD0449BDE80840FDF744B9A4FA04001A
:105500006434002078FA040010B582B09DF81030A1
:1055100073B91046144605F053FC0DF1070201461D
:105520000123204605F050FC012808D002B010BD30
:105530001A4603200949FDF733F902B010BD9DF862
:105540000730012BF2D1204605F03AFC411C89B20C
:105550002046034A102305F037FCE7E7D0FA0400A1
:105560006834002008B530B1032803D10220FFF7CA
:1055700081FB28B908BD032001F05CFB0028F9D0AD
:10558000BDE80840FDF750BB30B5B3B00322054677
:1055900002240EA800218DF80B4005F007F80EA894
:1055A000214605F019F81F490EA805F017F80EA8B6
:1055B00005F016F828460EA905F027F860B30DF19E
:1055C0000B010122044605F0FDFB48B102461649D5
:1055D0000320FDF7E5F8204605F0ECFB33B030BDC5
:1055E00001462C2203A8FCF7ADFE012241F23363F1
:1055F0000E498DF8302007A81022ADF82E3028F083
:1056000091FE03AA009528462146094B05F006F8AD
:105610000028DBD133B030BD03200649FDF7B2F8D6
:1056200033B030BDACF90400F4F904006834002054
:10563000D5540200B4F9040070B53848B2B00C4635
:1056400029F069FA21460246344829F06CFA40B93B
:10565000334C3449201D05F07AF9002858D032B077
:1056600070BD314829F057FA214602462E4829F0EC
:105670005AFA78B92A4B197D186881F00101197519
:1056800021B10121FFF7E4FD32B070BDFFF7E0FD6D
:1056900032B070BD254829F03EFA21460246234823
:1056A00029F041FA04460028D9D11D4B01220EA849
:1056B00010211D6804F07AFF0EA8022104F08CFF6F
:1056C0001B490EA804F08AFF28460EA904F09DFF8E
:1056D00006460028C3D021462C2203A8FCF732FE40
:1056E000012241F2336307A912488DF83020ADF84A
:1056F0002E3005F02EF903AA0095284631460E4BB0
:1057000004F08CFF0028AAD0304605F053FBA6E732
:105710002068FFF739FF32B070BD00BFF4FA040013
:1057200064340020F8F80400F8FA0400FCFA0400DD
:1057300000FB0400ECF904000955020030B5043800
:10574000B3B00D2838D8DFE800F04437374F37378B
:10575000373737375B393707304B01220EA8102116
:105760001C6804F023FF0EA8022104F035FF2C4929
:105770000EA804F033FF20460EA904F046FF0546AC
:10578000D0B100212C2203A8FCF7DCFD012241F25C
:10579000336307A923488DF83020ADF82E3005F08B
:1057A000D8F803AA0094204629461F4B04F036FF80
:1057B00010B1284605F0FEFA33B030BD174B197D05
:1057C000186881F00101197529B30121FFF740FD27
:1057D000F2E7164B13211888FFF7F4FC30F00803AA
:1057E000EAD0FDF721FAE7E7104B1A884FF6FF736E
:1057F0009A42E1D101F09EFA30F00803DCD0F0E7E4
:10580000064C0B49201D05F0A2F80028D4D12068D1
:10581000FFF7BAFED0E7FFF71BFDCDE764340020A9
:1058200000FB0400ECF9040009550200C42F00201D
:10583000F8F8040008B50948094901F0E7FB48B940
:105840000648402101F0FEFB00B908BDBDE8084054
:10585000FDF7EAB9FDF7E8F9F2E700BF7C34002074
:105860007554020070B5A8B0FDF792FD08B1FDF7C0
:10587000DBF90020FCF774FF08B1FDF7D5F9032030
:10588000B949FFF78DFB08B1FDF7CEF919A9002042
:10589000FFF75EFC08B1FDF7C7F9B44BB4491868CF
:1058A0000290D82202A8002301F066FF08B1FDF79C
:1058B000BBF928AC002344F8783D204601F0D4FF22
:1058C00008B1FDF7B1F900210C2219A8FCF73AFD47
:1058D00001250023402019A90A9A8DF864508DF8FB
:1058E00065308DF86630FFF77BFC08B1FDF79CF959
:1058F00000210C2219A8FCF725FD01259E23232059
:1059000019A90A9A8DF86450ADF86630FFF768FC63
:1059100008B1FDF789F900210C2219A8FCF712FD46
:105920004FF4A0750123202019A90A9A8DF864303C
:105930008DF86630ADF86850FFF752FC08B1FDF7FE
:1059400073F9204601F09AFF08B1FDF76DF9894817
:1059500001F05EFF08B1FDF767F9874801F062FFCB
:1059600008B1FDF761F99DF828308448012262F3FF
:10597000030362F307138DF8283029F0CCF87F4930
:1059800082B22046FFF722FC08B1FDF74DF9002155
:10599000082219A8FCF7D6FC2825502100224FF434
:1059A000C87319A8ADF86450ADF86610ADF868205A
:1059B000ADF86A30FFF708FC08B1FDF735F9FFF7DD
:1059C00039FF002119A80422FCF7BCFC6C4B6D4880
:1059D000199319A901F074FD08B1FDF725F900210B
:1059E0000D4620463C22FCF7ADFC02262946052345
:1059F0003C2219A88DF82A508DF828608DF82B309C
:105A00000126FCF79FFC29465F4B1E93202202A82B
:105A1000ADF87460FCF796FC00952046C825B424C8
:105A200002AA19A9594B8DF80B600695079401F04D
:105A30003FF808B1FDF7F8F8012001F033F8002134
:105A40001C2219A8FCF77EFC4FF4203600234FF4EB
:105A5000702503244E494F4A199319A8ADF87230A6
:105A60008DF874301A961B958DF870401E911F9218
:105A700001F02CFA08B1FDF7D7F80020014615F027
:105A800050FC04F0D9FE0546002800F0A98001F082
:105A900071FF05F02FFB404902460320FCF780FE12
:105AA000284605F08EFA3D4902460320FCF778FEB1
:105AB00028463B492A4604F0D1FE002840F0898060
:105AC000284604F027FE70B928460B2104F071FF28
:105AD000002840F0938028464AF6CD3104F0B4FF08
:105AE000002840F084802846012104F0E1FE0028CF
:105AF00068D12846012105F010FB68BB294C2846D7
:105B000041F23361256004F08EFD0246E8B9206859
:105B1000254904F09CFD03202449FCF733FE0320B3
:105B200001F088F870B9206805F09EF9206815F03A
:105B30000BFC206805F09DF90028F4D1FFF754FB19
:105B40000028F0D0FDF770F8EDE71948194A1A4B14
:105B500040F2973128F0A8FB1548184A184B4FF42B
:105B6000647128F0A1FB00BF3D570200F4F8040067
:105B70008C33002009530200F552020010FB040090
:105B80003956020098340020C82F002065550200C5
:105B9000B1540200ED51020038FB040058FB040030
:105BA000F1510200643400204552020004FD04005B
:105BB0001CFB040008F90400BCFC040014F90400F8
:105BC00084FC04001148124A124B40F28F3128F035
:105BD0006BFB0E480E4A104B40F2873128F064FBF5
:105BE0000A480B4A0D4B4FF4607128F05DFB0748E3
:105BF000074A0B4B4FF4637128F056FB0348044AE5
:105C0000084B40F28B3128F04FFB00BF1CFB040017
:105C100014F9040050FC040078FB04002CFB040081
:105C200014FC0400D4FB04002DE9F84F43001F18B6
:105C3000DFF880B1FF000BEB07048846E16A012919
:105C4000164644D034D302293CD1013000EB400049
:105C5000656A0BEBC0094FF0000A1DE0126A641B75
:105C6000B4422346A2EB050428BF33469C42D9F830
:105C7000040028BF1C4622462844414628F052FB17
:105C80000BEB070325441A6A954208BF0025361B13
:105C9000A244A0445D6217D00BEB0702936AAB42AB
:105CA00003F1FF34DAD8126A1344013B5C1BD7E7D7
:105CB000A16A626A91429CBF246A091901398A1A51
:105CC000964238D94FF0000A5046BDE8F88FA16AD5
:105CD000656AA94229D90139226AC5EB010A034440
:105CE0000BEBC30B0BF1200BDBF80450314BB2452F
:105CF00028BFB246561B0130B24500EB40003FD3EF
:105D000003EBC0044146606832462844C6EB0A05EE
:105D100028F008FB606808EB06012A4628F002FB21
:105D2000CBF804505046BDE8F88F226A8C18013C2D
:105D3000C5EB040AD3E703440BEBC30B0BF12007BD
:105D4000DBF82040D7F804901A4BC9EB040401306B
:105D5000A64200EB40001FD303EBC0054146686834
:105D600022464844C4EB060928F0DCFA686808EBD0
:105D700004014A4628F0D6FAB246C7F80490A3E7D1
:105D800003EBC0034146586852462844554428F066
:105D9000C9FACBF8045097E703EBC00341465868B3
:105DA0003246484428F0BEFA06EB09037B60B2464F
:105DB0008AE700BFCCDF00202DE9F04F364C94F885
:105DC00000E083B00546884617461E46BEF1000F28
:105DD00031D02369DFF8C0A0AB4259D902A84FF0F7
:105DE000000900F8059DCDF80490FDF785FC75B914
:105DF00029460D4404EBC5040C9B9DF80300E362A7
:105E0000019BFDF7A1FC002003B0BDE8F08F6B1CE7
:105E1000690003EB4303DB004A190AEBC2020AEBF9
:105E2000030EC2F828904AF80380CEF80470166278
:105E3000C2F82490DDE7194BDFF86CB0DFF86C9006
:105E4000C4F828E04FF0100C4FF4007A0222C4F896
:105E500024E0A361C4F858E0A3641149C4F82CE01D
:105E6000C4F85CE0C4F854E0C4F850C0E01DC4F8C5
:105E70001CB0C4F820A0C4F84C902261626128F0E4
:105E80002DFE2046074928F029FE2023A371A0E714
:105E90004FF0FF30B8E700BFCCDF00201CFD04004E
:105EA00028FD04002CFD0400C4340020B43400207C
:105EB000F8B5134C23780BBB124ADFF858C0124FC9
:105EC000A3624FF4007E10266362E362A365E3657C
:105ED000636502250D49A261A264C4F81CC0C4F820
:105EE00020E0E01DE76426652561656128F0F6FD88
:105EF0002046074928F0F2FD2023A371F8BD00BF1A
:105F0000CCDF00201CFD0400B434002028FD040078
:105F10002CFD0400C43400206DDF704772DF704731
:105F200079DF70477DDF704764DF7047F0B5048824
:105F3000012C83B007D0148804F1020E9E4505D9C8
:105F40000C2003B0F0BD072003B0F0BD0578012D93
:105F500004D1457802352544AB42F1D3023B0F46CC
:105F60001C1B02A9A4B2054621F8024D07EB0E0046
:105F70001646FFF7D7FF0028E3D12B78022B17D066
:105F8000012B11D023460821FE2BD9D83288581C6A
:105F9000B8543288013292B23280B9543288013218
:105FA000134433800020CCE76B789C42EBD2E9E7C6
:105FB000BDF806309C42E5D30921E5E72DE9F04F15
:105FC00085B083460E9D00882C880194BDF83C90D6
:105FD00000284ED000278A46164698463C4604E0E4
:105FE000BBF800300134A34226DDDBF8043053F85F
:105FF000240003900DF10B0103A80022FFF794FF8A
:1060000018BB9DF80B30B342EAD10FB32A8893191D
:106010004B4519DC424403A80DF10B010127FFF7A2
:1060200083FF90B92B889DF80B2013442B80BBF87D
:1060300000300134A342D8DCDFB12B88019A013B48
:106040009B1A9BB2FF2B12D90C2005B0BDE8F08F34
:106050002B885A1C334402334B4592B2F4DC2A801D
:1060600008F802A02A88013292B22A80D2E708F802
:106070000230002005B0BDE8F08F00BF2DE9F047E9
:1060800000231788138090F82D3086B014460546FB
:106090000E46002B40F0C880AA78002A40F0F0801D
:1060A000EA78002A2CD1696899B1DA1CBA420978D9
:1060B00022D80222F254238801339BB20A22238081
:1060C000F254238801339BB22380F1542388013397
:1060D00023802B89002B40F0F7802B8A002B40F087
:1060E0000C812B8B002B40F021812B6A002B5CD084
:1060F0002288911DB94218D90C2006B0BDE8F0875E
:10610000D91CB942F8D80221F154238801339BB23B
:1061100001212380F15423880B449BB22380F25445
:1061200023880B449BB22380BDE71988052940F2E0
:10613000C9806FF4486801EB080080B24FF27D3EE1
:10614000704540F2BF805888052840F2BB806FF44C
:10615000486C84441FFA8CFCF44540F2B3804FF63F
:10616000FF7E714504D0704502D0814200F2AA80C2
:106170000521B1542288013292B212212280B154F9
:106180002288013292B222801988B1543244090A1D
:1061900051702288023292B222805B88B35432441A
:1061A0001B0A53702388023323806B6A002B2BD089
:1061B000998820880A1D0244BA429DD88A1CFE2A6A
:1061C0009AD8033131542288013292B2FF212280C1
:1061D000B1542288013292B222801988B1543244DB
:1061E000090A51702088023080B220809A885AB102
:1061F00099680393002965D0304428F093F8039BF5
:1062000022889B881344238095F82C30002B40F083
:10621000A680287800283FF470AF284631462246F1
:106220003B46FFF783FE68E7082F7FF665AF04A8BB
:10623000FFF772FE00287FF460AF23880822F25433
:10624000238801339BB21B222380F2542088013023
:1062500080B22080062230440DF1110128F062F84E
:1062600023889DF8102006339BB212F0FE0218BF5F
:1062700001222380F254238801339BB223800BE751
:106280000433BB423FF638AF04A8FFF749FE0028AD
:106290007FF433AF2388BDF810200321F154238805
:1062A00001339BB219212380F154238801339BB21F
:1062B000F1182380100AF2544870238802339BB2ED
:1062C0002380EDE6072018E705F1080802218DE894
:1062D000900040460A463346FFF770FE00287FF4E0
:1062E0000CAF8DE890004046062110223346FFF7A0
:1062F00065FE00287FF401AFEFE605F110088DE898
:1063000090004046032102223346FFF757FE002843
:106310007FF4F3AE8DE8900040460721102233460B
:10632000FFF74CFE00287FF4E8AEDAE605F1180826
:106330008DE890004046142102223346FFF73EFECE
:1063400000287FF4DAAE8DE8900040461521102237
:106350003346FFF733FE00287FF4CFAEC5E6D5F80D
:106360002880B8F1000FADD0B8F804200232FE2A20
:106370003FF6C2AE23884FF000094FF0160A0132F3
:10638000F254238801339BB2238006F803A02388AC
:1063900001339BB22380B8F80020F2543344120A30
:1063A0005A70238802339BB22380B8F80410F01887
:1063B0000A4661B1D8F808301946002B82D027F080
:1063C000B1FFB8F80430228813449BB2238009F14E
:1063D000010995F82C205FFA89F94A4509EB49082B
:1063E0007FF617AFAA6A02EB8808B8F804200232D9
:1063F000FE2AC4D980E600BF2DE9F04794B01F23E0
:106400000D46ADF80E30044600285AD0C278530726
:1064100053D590F82D300021ADF80C10002B6BD126
:106420008378002B40F0AB801846032114AE5F1C2C
:106430000233304416FA87F716FA83F64FF0020E4D
:106440008BB2012100F840ECADF80C3007F8401C8D
:1064500006F8402C6268B2B1D91C1F29167828D8DA
:1064600014AF581C9A1C17FA80F03B4417FA82F2BA
:106470004FF0020E0A2703F840ECADF80C1000F8BC
:10648000407C02F8406C2389002B40F08581238AF0
:10649000002B40F09F81238B002B40F0B981236AB1
:1064A000002B00F0D880BDF80C20911D1F2940F270
:1064B0008F800C2014B0BDE8F087072014B0BDE831
:1064C000F087ADF80C00002D00F00481EB78002B74
:1064D000F3D128460CA90DF10E02FFF7CFFD0028DD
:1064E000ECD19DF80E300CAA20469DF80C10FFF759
:1064F00015FD14B0BDE8F0870CAF3846FFF70CFD72
:106500000028DBD1BDF80C3014AA03F1010C12FAFB
:106510008CFC03F1020E13441FFA8EFE04AE4FF002
:1065200008094FF01B0803F8409C0DF131010622C9
:1065300006EB0E000CF8408CADF80CE027F0F2FEF4
:10654000BDF80C209DF83010931D11F0FE019BB298
:1065500040F07C8114A8034403F8401CD31DA278AA
:106560009BB2ADF80C30002A40F01181E278002A8D
:106570003FF470AFD91C1F2918469AD856E70CAFC4
:106580003846FFF7CDFC002898D1BDF80C30BDF897
:106590003070E278991C0DF1500E581C89B204AE8F
:1065A0000EEB03091EFA80F0043306EB010E4FF0E8
:1065B000030A4FF019089BB24FEA172C09F840ACB8
:1065C000ADF80C3000F8408C77548EF801C0CEE75F
:1065D000188805287FF671AF6FF4486C00EB0C0645
:1065E000B6B24FF27D37BE427FF667AF5E88052EAA
:1065F0007FF663AF6FF4486EB6441FFA8EFEBE4559
:106600007FF65BAF4FF6FF77B84204D0BE4202D0B0
:10661000B0423FF652AF14A8561C10FA86F600EBB3
:10662000020E901C80B212274FF0050C0EF840CCE1
:10663000ADF80C0006F8407C1F88ADF80C1004AED5
:106640003118375404323F0A4F7092B25B88B3540A
:1066500032441B0A5370676A9FB3B888BDF80C3088
:10666000811C9A1C56181F2E3FF623AFFE293FF6B9
:1066700020AF14AE591C06EB030E16FA81F192B24C
:106680000330FF260EF8400CADF80C2001F8406CEA
:10669000398804AEB018B154090A41700433BA887D
:1066A00098B2ADF80C0062B1B96800293FF405AFAB
:1066B000304427F037FEBDF80C30BA881344ADF8EB
:1066C0000C3094F82C3053B904AE2378002B53D1FE
:1066D0003446F8E62B46ADF80E502A4604E7A76A82
:1066E000002F3FF4EAAEB9880231FE293FF6E1AE51
:1066F0009E46BDF80C304FF0000804AE4FF016096E
:1067000014AA581C02EB030C12FA80F09A1C92B2E5
:1067100001310CF8401CADF80C2000F8409C398881
:10672000B1543244090A51700433B9889BB20A4605
:10673000F018ADF80C3079B1BB681946002B3FF466
:10674000BCAE27F0EFFDBDF80C30BA8894F82CE011
:1067500013449BB2ADF80C3008F101085FFA88F8D9
:10676000F04508EB4802B0D2A76A07EB8207B98868
:106770000231FE29C4D99CE62046314603AA1F23D4
:10678000FFF7D4FB00287FF499AE34469BE6043330
:106790001F2B3FF68EAEF3E603AA04F1080704AE02
:1067A0004FF01F0802218DE80401384633460A469F
:1067B000FFF704FC00287FF481AE03AB8DE80801ED
:1067C0003846334606211022FFF7F8FB00287FF4F5
:1067D00075AE5CE603AA04F1100704AE4FF01F0883
:1067E0008DE804013846334603210222FFF7E6FB19
:1067F00000287FF463AE03AB8DE8080138463346CA
:1068000007211022FFF7DAFB00287FF457AE42E69B
:1068100003AA04F1180704AE4FF01F088DE8040125
:106820003846334614210222FFF7C8FB00287FF4C4
:1068300045AE03AB8DE808013846334615211022DA
:10684000FFF7BCFB00287FF439AE28E614A90B44FF
:10685000012103F8401C81E673DF704774DF704745
:10686000F0B5854D85B00646002184480722FBF728
:1068700069FD6B78FBB9AB78814F002B61D17F4C00
:106880006378002B63D1A378002B60D1E378002BD1
:106890005DD12379002B5AD16379002B57D1A3798D
:1068A000003318BF0123701E032800F2E180DFE8E7
:1068B00000F0163B1B43724F3B78012B04D0AA78A3
:1068C000002ADCD0022BDAD16E4B6F4A1B68002BFA
:1068D00000F0C5800121082011709847CFE76A7841
:1068E00012B3002B40F0BD80EB782BB30322654B35
:1068F0003A701B681BB12A78002A40F0A380634BD2
:1069000000221A70102268460021FBF71BFD3B781D
:1069100000228DF800208DF80820042B39D8DFE8FC
:1069200003F085795D3B1800AA78002ADCD0002BA3
:10693000DAD002233B70E2E72B79002BFAD0042255
:10694000D5E73B78012BBFD0022B98D1BCE70123C0
:10695000A9E72B78A969EA69ADF80A10ADF80C200F
:10696000002B67D04A4B1978002963D1494B1B781B
:10697000002B5FD0484B042402221846DC708DF8AF
:106980000820FFF739FD00286ED1444A3B780621E4
:106990001170002B35D02EE02B7829696A69ADF88B
:1069A0000A10ADF80C20002B48D0394B197800297B
:1069B00044D1384B1B78002B40D0374B04240222A3
:1069C0001846DC708DF80820FFF716FD00284BD123
:1069D000324A3B78052111709BB10CE02F48EA68E0
:1069E000AB6801940121022404708DF80010ADF809
:1069F0000C20ADF80A302A4B68461978FFF72CFFB7
:106A000030B9204B1B6813B1244A107898470020F6
:106A100005B0F0BD21490194012200230A708DF8D0
:106A20000020ADF80C30ADF80A30E4E71B4B002233
:106A30001A70E6E7194B04221A70DCE7174B0322A1
:106A40001A70D8E7124A1278002A7FF458AF11481A
:106A50000E490270012207200A70984752E713700E
:106A60000DE701233B704AE73B78002BC9D0C2E712
:106A700000233B7043E700BF443700203C37002031
:106A80008D370020103700208E3700208B370020F4
:106A90003737002000370020C43600209C37002004
:106AA0008C370020014B1870704700BF8C370020D6
:106AB0002DE9F04F83B0DDF830E0002800F09A8037
:106AC000002A00F09780144605461F4601910FCC1E
:106AD0004A4EDFF84C91DFF84CC1DFF84CA1DFF8EB
:106AE0004C81DFF84CB1CCF800700FC694E80F0071
:106AF000002486E80F00424E424B4348CBF800E0AA
:106B0000012289F80020214607224FF6FF79A3F8D9
:106B100000908AF8004088F80040FBF713FC2146FB
:106B20003C223046FBF70EFC05F1100393E803000E
:106B3000AA78EB7895F800E0B270F37006F11003D4
:106B400095F801C086F800E083E8030005F108032A
:106B500093E8030006F1080E05F118038EE8030020
:106B600093E803006A6A86F801C006F1180383E817
:106B700003009AB1254A7262696A254B936088883E
:106B8000B1F800E0A2F800E0908038B1013B8A68DB
:106B9000125D03F8012F01348442F8D1AB6AB3B11E
:106BA0001C4BB362A86A1C4A9A6084889C80018846
:106BB000198044B1013A00238168C95C02F8011FC1
:106BC0000133A342F8D195F82C3086F82C302B6A8B
:106BD00033B1124B33622A6A5188598012881A8065
:106BE0006B6803B173600199054803B0BDE8F04FCD
:106BF000FFF702BC0E2003B0BDE8F08F4437002041
:106C0000C4360020643700203C37002004370020C1
:106C100018370020903700206C370020683700209C
:106C20008F370020103700208D3700208C37002050
:106C3000383700200C4B1B780BB90820704710B573
:106C40000A4B82B0044601A81C70FCF795FD019B1D
:106C50002BB1074B01221A70002002B010BD204654
:106C6000FFF7FEFDF9E700BF8F3700208D370020CA
:106C70001437002010B50388112B82B01BD01B2BBA
:106C80000AD0102B01D002B010BDC37B8288012B2B
:106C9000F9D1214B1A80F6E7037A002BF3D11F4B71
:106CA0001F4A19781378F1B908201E4B1B68002B76
:106CB000E9D09847E7E7184A838812881A490020E4
:106CC0009A420870DFD1154B1B78002BECD0144B87
:106CD000012401A81C70FCF74FFD019BABB1134BC5
:106CE00001221A70CFE7124C013384FB0314D91729
:106CF000C1EB640404EB84041B1BDCB201A8147018
:106D0000FCF73AFD019B002BE9D12046FFF7A8FDD7
:106D10000028B8D0C9E700BF643700208F370020B3
:106D20008D370020383700203737002014370020F7
:106D300067666666F0B583B0FFF790FD164A174C9C
:106D4000174E002306271046012519462370D770D9
:106D50003570FFF751FB044608B103B0F0BD114B8D
:106D6000114A1B7816783BB90820104B1B6803B1F9
:106D70009847002003B0F0BD01A8FCF7FDFC019B83
:106D80001BB10B4B20461D70E7E73046FFF768FD4F
:106D90000028EED0E9E700BFC4360020003700200D
:106DA000373700208F3700208D37002038370020FC
:106DB0001437002075DF704776DF70477ADF704741
:106DC0007BDF7047184B18884FF6FF7398422AD024
:106DD00010B5164A164C1378217B0133DBB2994269
:106DE00082B013700CD2237C002111708BB96369BF
:106DF00023B102A8002200F8042D984702B010BD6C
:106E00000C49FFF7D7FF0028F8D0A369002BF4D175
:106E1000F4E73B21FFF7D0FF0028E8D0A369002B5F
:106E2000E5D09847E3E77047E8370020A83700200F
:106E3000AC370020EC37002070B51E4B1E4A5B8833
:106E40001188994282B00FD852889A420CD31B4BBA
:106E50005B6923B102A8012200F8042D9847184C61
:106E60000023237002B070BD154C227862B1134B21
:106E70005B69002BF4D002A8002200F8042D98478B
:106E80000023237002B070BD0C4D0E48696806786F
:106E9000AB680D48002E18BF1946FCF755FB0028BB
:106EA000DED0AB69002BDBD098470023237002B003
:106EB00070BD00BFA0370020EC370020AC370020A9
:106EC0009D370020A8370020C8370020F8B50546B8
:106ED0000FCD144C144F0FC4064695E8070000234D
:106EE00084E807003B70B6B13068104B716803C38B
:106EF000A3F10800FFF762FF90B90D4D0D4C0E484D
:106F00000E4A00234FF6FF762E8023701946BDE807
:106F1000F840FCF707BB0548FFF752FF0028ECD00C
:106F2000F8BD00BFAC3700209D370020EC370020B3
:106F3000E8370020A837002034FD0400C56D0200AA
:106F400070B50388112B27D012D9122B07D0502BE4
:106F500047D1244CC288E3899A4230D070BD0830B2
:106F600003C8214B83E80300BDE87040FFF764BF0E
:106F7000102B35D11D491B4C1B4B1D4DE48900F1D5
:106F800010028088088092E80300002283E8030052
:106F90002A70002CE8D070BD1449154B15484FF6E7
:106FA000FF7400220C801A70FCF728FB0028D5D053
:106FB0000C4B9B69002BD1D0BDE870401847038A69
:106FC000022BCBD1123000F017F80028CCD10948A1
:106FD000FCF714FB0028C1D0A369002BECD1BDE75E
:106FE00070BD70BDAC370020A0370020E83700200E
:106FF000A8370020C8370020007800F00100704753
:1070000090DF70479EDF7047ADDF70470346B8B131
:1070100070B400209E22A22417261B2599611A8095
:107020005A80DA80DA811C711C731C751E811E82E5
:107030009872D8729874D8745D735D7570BC70471F
:107040000E20704740B1A1F11703872B01D907200B
:1070500070470180002070470E207047F0B58D8882
:10706000012D83B001D903B0F0BD0B88222B04465B
:1070700076D01BD93A2B00F0B580552B00F08C80D0
:10708000232B25D0EE00A3199B7A002BEBD03444A0
:107090002846E188FFF7B6FF00285DD01128E2D02E
:1070A00002466E490120FBF77BFBDCE7102B26D064
:1070B000112BE7D100EBC50300229E251724A22047
:1070C0001B21DD801C81187359739A72DA72CAE72A
:1070D000EE0087190A7A7A738369002B3AD04FF051
:1070E000000E4DF67A21ADF804E0ADF80010ADF8D1
:1070F00002508DF8042069469847BB7AC5E7EE0038
:10710000871903793B73CB7B012B00F08880022B1E
:1071100000F08E80F9883B898B42C0F08C803B7BED
:107120007A7B9A4216D24FF0000E9BB272462846E6
:107130006946ADF80030ADF80230ADF804E0ADF8C6
:1071400006E0FFF75DFF28B10346454901202A46C6
:10715000FBF736FBBB7A98E70123A072E37282E764
:10716000EE0087190A7A3B7B4FF0000E934228BF4E
:107170001346284672466946ADF80030ADF8023035
:10718000CDF804E0FFF73CFF0028E3D00246354984
:107190000120FBF705FBDDE7EE00CB888719172BF5
:1071A000F98838BF17238B4228BF0B4600223B814A
:1071B000BA722846FFF728FF002833D1FB7A002B4C
:1071C000C8D1A369002BC5D040F677213A89ADF824
:1071D0000010ADF80250ADF80420204669469847EB
:1071E000BB7A52E700EBC5064A89F388934228BF71
:1071F0001346172B38BF1723338182695AB1F17AAE
:1072000049B140F67721ADF80010ADF80250ADF865
:107210000430694690470023F372B37223E7018874
:10722000F98078E7024610490120FBF7B9FAC5E773
:107230004188F9806FE72846FFF7E4FE10B9012383
:10724000FB726CE7112802D10123BB7267E702468B
:1072500002490120FBF7A4FA61E700BF38FD0400F2
:1072600094FD040060FE040008FE04000649074A7D
:10727000074B9B1A03DD043BC858D050FBDC00F0E1
:1072800013F8FAF7EBFF000040770500582F0020B5
:1072900030300020FEE7FEE7FEE7FEE7FEE7FEE710
:1072A000FEE7FEE7FEE7FEE770B45E4B1B68082BC7
:1072B00019D05D4AD2F8883043F47003C2F88830A0
:1072C000BFF34F8FBFF36F8F4FF01023D3F800221F
:1072D000002A75DBD3F80432002B71DB534B544A80
:1072E0001A6070BC7047534B19680029E1D14FF008
:1072F00080404FF08052C0F80C114F4BC0F8101175
:10730000C0F83815D2F80414C3F82015D2F80814C0
:10731000C3F82415D2F80C14C3F82815D2F81014A9
:10732000C3F82C15D2F81414C3F83015D2F8181479
:10733000C3F83415D2F81C14C3F84015D2F8201441
:10734000C3F84415D2F82414C3F84815D2F8281409
:10735000C3F84C15D2F82C14C3F85015D2F83014D9
:10736000C3F85415D2F83414C3F86015D2F83814A1
:10737000C3F86415D2F83C14C3F86815D2F8401469
:10738000C3F86C15D2F844642C4C2D49C3F87065D1
:107390002C4D2560FB23C1F81835D0F8E43ED2F817
:1073A000581204F50F3423F00F0204F56D7401F048
:1073B0000F0313434FF40072C0F8E43E226078E7F5
:1073C000214B0122C3F80425D3F80024002AFBD066
:1073D0004FF0102312221C49C3F80022D1F80034C8
:1073E000002BFBD04FF0102312221749C3F80422C0
:1073F000D1F80024144B002AFAD00022C3F8042547
:10740000D3F80024002AFBD0BFF34F8F06490F4B5F
:10741000CA6802F4E0621343CB60BFF34F8F00BF32
:10742000FDE700BF3001001000ED00E0D02F00208C
:107430000090D0033401001000C000408C56004082
:1074400000F000404881030000E001400400FA051C
:10745000A0DF7047A2DF704762DF704710B540B110
:107460000B4631B10A88112A18D0502A02D0102AAE
:1074700011D010BDCA880189914213D081899142EF
:10748000F7D18469002CF4D003F112011A8A234643
:10749000BDE8104018478B88838210BD4FF6FF73FC
:1074A000838210BD198A0229E8D104461846123099
:1074B000FFF7A2FD10B10123A37510BDA07510BD8B
:1074C000F0B5764B95B09A6806460D46186859682F
:1074D000DB6804AC0FC486B17DB14FF6FF73B38295
:1074E0002B68B361002304A8B3753146FFF7B4FFDE
:1074F00038B10446204615B0F0BD0E24204615B024
:10750000F0BD324614A9012512F8023B21F8485D6E
:1075100028468DF80A30FFF79BFF04460028EDD17E
:1075200021461C220DA8FAF70DFF9DF8343096F87D
:1075300000E00E9443F00C0321460227032201A829
:1075400010941194129413948DF834308DF80EE049
:10755000ADF80C70FAF7F6FE9DF806309DF804E0E1
:107560009DF8057065F3420364F3C30364F30413E9
:1075700065F3030E65F30307DBB22B4365F3071EC8
:10758000214665F30717142208A88DF806308DF8F8
:1075900004E08DF80570FAF7D5FE01AB0993ADF85C
:1075A0002A409B2703AC0DA908AA7088089406F10D
:1075B0000C03ADF82850ADF82C70FFF74BFF0446D4
:1075C00000289BD1214603226846FAF7BBFE9DF8AE
:1075D00000209DF801309DF802E065F3030265F399
:1075E000071265F3030365F3071365F3420E2146A3
:1075F0008DF800200DA81C228DF801308DF802E0D6
:10760000FAF7A0FE9DF8343096F800C00E944FF0C3
:10761000030E43F010037246214601A81094119402
:1076200013948DF83430ADF80CE08DF80EC0CDF821
:1076300048D0FAF787FE9DF806309DF804C09DF803
:1076400005E065F3420364F3C30364F3041365F3D5
:10765000030C65F3030EDBB22B4365F3071C65F3E4
:10766000071E2146142208A88DF806308DF804C0A4
:107670008DF805E0FAF766FE03AB708808930DA954
:10768000331D08AA01AEADF82A400996ADF828507E
:10769000ADF82C70FFF7DEFE04462FE7C0FE0400B5
:1076A00048DF704710DF704760DF704761DF704769
:1076B000FBF7CABA2DE9F047DFF8A890264EDFF8AD
:1076C000A880264FD9F80040B4FA84F482B000258F
:1076D00064097DB93378DFF880A063B901A8FFF7AA
:1076E000DFFF05280AD018B3FBF79EFA4CB101243E
:1076F0000025EFE7CCB102B0BDE8F087002CFAD14D
:1077000001259AF80030002BF5D102A93C68B8F8A1
:10771000003021F8043D2046FFF7C8FF052816D0A9
:1077200080B1FBF781FA0024D3E7DFF82CA0E8E76B
:107730000198FCF7A5F90A4B1B68002BD6D00198DD
:107740009847D3E72046D9F800309847EBE7002D5B
:10775000CDD002B0BDE8F087F4370020F837002024
:10776000FC37002000380020F6370020014B187845
:10777000704700BFF537002011B111F0030F01D0A1
:1077800007207047F8B51B4F1B4E1C4D1C4C396031
:1077900032802B602368DB0708D50125C4F88050B0
:1077A0001849FFF77FFF30B12560F8BD1549FFF795
:1077B00079FF00B1F8BD144B01221A70FCF772F981
:1077C0000F4A92F816335B09991E052909D8043B24
:1077D000012B06D90D4B986830B94FF48003136024
:1077E000F8BD42F20200F8BD1A6842F480021A6045
:1077F0000020F8BDF8370020F637002004380020BC
:1078000000E100E0B1760200F5370020C0DF002083
:10781000034618B1024A0020136070470E207047DB
:1078200000380020034618B1024A00201360704758
:107830000E207047FC37002008B5094B1B6833B198
:10784000984700B908BDBDE80840FBF7EDB9054B06
:107850001B78002BF6D0BDE80840FFF72BBF00BF18
:1078600004380020F537002082B0034B0193019BC0
:107870000360002002B07047582F002030B5044646
:1078800083B002A8236840F8043DFFF70DFF23688A
:10789000019A934205460BD110B9284603B030BD7A
:1078A00001200D492A46FAF77BFF284603B030BD78
:1078B00002200A49FAF774FF4FF08052019BD2F878
:1078C0000C210749C3EB822202F100520220FAF791
:1078D00067FF284603B030BD38FF0400D0FE040027
:1078E00004FF04000EB410B5A3B025AB044653F852
:1078F000042B0193802102A827F0FAF902A827F0AF
:107900000AF9236882B21B6802A92046984723B06F
:10791000BDE8104003B07047B0F80636B0F808264E
:10792000C3F580618A42CCBFA0F80A16A0F80A26E7
:10793000B0F80A1621B100F20620184413F098BDE1
:107940007047000010B50A4B0360044600F20C605B
:1079500000F0F2FA0023A4F80432A4F80636A4F8E2
:107960000836A4F80A3613F071FD204610BD00BF9A
:1079700088FF040010B5044C01462046FFF7E2FFE3
:10798000024B1C6010BD00BF1038002008380020DA
:1079900010B5B0F80432C2180446D2780A2A06D1CB
:1079A000013B9BB2A0F80432034400221A71B4F8E0
:1079B0000432E218D2780D2A06D1013B9BB2A4F81A
:1079C0000432234400221A7104F20C602346B4F8F6
:1079D0000422211D02F0FEF80020A4F8040210BDCC
:1079E0002DE9F8432A4FDFF8AC80DFF8AC9004466D
:1079F0008E180D46B542294648D20B780A2B05F160
:107A0000010519D014D8082B2CD0B4F80432B3F5E2
:107A1000007FEFDA236801221B6820469847B4F8FC
:107A200004325A1CA4F8042215F8012C23442BE03C
:107A30000D2B01D07F2BE7E7236802221B68394614
:107A400020469847B4F804322BB1234400221A711F
:107A50002046FFF79DFF236802221B68414620460F
:107A60009847C7E7B4F80432002BC3D02368032239
:107A70001B68494620469847B4F80432013B9BB244
:107A8000A4F80432002223441A71B3E7BDE8F88356
:107A90007DFF04007BFF040078FF0400024B0A46D0
:107AA00001461868FFF79CBF08380020B0F80A3676
:107AB0000BB9FFF731BF704770B5B0F80846C4F591
:107AC0008064A4B29442A8BF14460D466B1A9C422F
:107AD0000FDDB0F80826B0F8063615F8016B134430
