:020000040000FA
:1000000050290020150200001D0200001F02000000
:100010002102000023020000250200000000000071
:1000200000000000000000000000000027020000A7
:1000300029020000000000002B0200002D02000039
:10004000610500002F020000F90700002F020000E8
:100050002F0200002F020000390300002F020000D1
:100060002F0200002F0200002F0200002F020000CC
:100070002F0200002F0200002F0200002F020000BC
:100080002F020000E90500002F0200002F020000EF
:100090000D0600002F0200002F0200002F020000BA
:1000A0002F0200002F0200002F0200002F0200008C
:1000B000B90500002F020000000000000000000051
:1000C0002F020000C9050000D90500002F02000022
:1000D0002F0200002F0200002F0200002F0200005C
:1000E0002F0200002F0200002F0200002F0200004C
:1000F000000000002F0200000000000000000000CF
:1001000000000000000000000000000000000000EF
:1001100000000000000000000000000000000000DF
:1001200000000000000000000000000000000000CF
:1001300000000000000000000000000000000000BF
:1001400000000000000000000000000000000000AF
:10015000000000000000000000000000000000009F
:10016000000000000000000000000000000000008F
:10017000000000000000000000000000000000007F
:10018000000000000000000000000000000000006F
:10019000000000000000000000000000000000005F
:1001A000000000000000000000000000000000004F
:1001B000000000000000000000000000000000003F
:1001C000000000000000000000000000000000002F
:1001D000000000000000000000000000000000001F
:1001E000000000000000000000000000000000000F
:1001F00000000000000000000000000000000000FF
:10020000DFF80CD000F086F800480047711E0000AF
:10021000502900200648804706480047FEE7FEE7D1
:10022000FEE7FEE7FEE7FEE7FEE7FEE7FEE7FEE7A6
:1002300011060000010200002DE9F05F05460020D4
:1002400092469B4688460646814640241BE0284647
:1002500041464746224600F04CF853465A46C01ADB
:10026000914110D311461846224600F016F82D1A77
:1002700067EB01084F4622460120002100F00DF8EF
:1002800017EB00094E41201EA4F10104DFDC4846B3
:1002900031462A464346BDE8F09F202A04DB203A37
:1002A00000FA02F1002070479140C2F1200320FAC9
:1002B00003F31943904070470048704748350000E9
:1002C00040EA01039B0703D009E008C9121F08C0D8
:1002D000042AFAD203E011F8013B00F8013B521E58
:1002E000F9D27047421C10F8011B0029FBD1801A7B
:1002F0007047202A04DB203A21FA02F000217047DF
:1003000021FA02F3D040C2F120029140084319467D
:1003100070470000064C074D06E0E06840F001031E
:1003200094E8070098471034AC42F6D3FFF76CFF0F
:1003300058350000783500002DE9F04F00268FB0C9
:10034000DFF8B081B14602964FF48075012437463C
:100350000396284602F056FA38B1D8F80403204232
:1003600003D0284602F044FA26432D1D64007F1C6A
:10037000ADB2082FEDD34FF4BE74204602F042FA1E
:1003800048B1204602F034FA46F0004602AA0221A3
:10039000002002F017FA584C16F0FF0F15D0012775
:1003A000002537420DD008EB8501D1F81005D1F8B2
:1003B0001015C0F3052054F82520C1F3014102B106
:1003C00090477F006D1C082DEBD3002E7DDA0020B6
:1003D000CDF82890411E0DF1080B08AACDF82C90FD
:1003E00042F82010401C91460228F9D300252E46E1
:1003F000A01910F8607F90F9000027F0C008401C99
:1004000049D008A9404601F06FFD88B34FEA971A1A
:10041000404601F0ABF854F820701FB1BAF1030F59
:1004200003D00FE0BAF1030F35D10AA84FEAD80282
:1004300008F00703815C4FF0010C0CFA03FC41EA61
:100440000C01815406A8CDF8188002F069F90699CC
:1004500000EB8100D0F8000702A9C0F3014006902C
:10046000404601F041FD0028069802D0022802D043
:1004700011E003280FD1BAF1030F08D10698022822
:1004800032D00221404602F024F96D1CEDB217B1C2
:1004900051464046B847761C042EA9D3002D20D0E3
:1004A00004AA0221002002F08DF900205A4604A976
:1004B00052F8206051F82030B34217D000200AAE25
:1004C0004FEA090351F8207000E00AE042F820707A
:1004D00056F8207043F82070401C0228F2D3002DFB
:1004E00084D10FB0BDE8F08F0321CBE7401C022878
:1004F000DED3F6E7006000404802002000F01F0253
:10050000012191404009800000F1E020C0F88012F4
:10051000704700F01F02012191404009800000F166
:10052000E020C0F80011704700F01F020121914047
:100530004009800000F1E020C0F800127047490730
:10054000090E002806DA00F00F0000F1E02080F824
:10055000141D704700F1E02080F80014704700007F
:100560002DE9F0414FF48077384601F0C5FC0124B5
:10057000104EA50748B1384601F0C5FC0120C5F86A
:1005800008037470002000F0F9FF4FF482773846BA
:1005900001F0B2FC00280BD0384601F0B4FC022078
:1005A000C5F80803B470BDE8F041012000F0E6BFD3
:1005B000BDE8F081340200200149024801F060BB2F
:1005C000B002002000C001400149024801F058BBC0
:1005D000B8020020001002400149024801F050BB5F
:1005E000C00200200020024007480021C0F840114E
:1005F000C0F84411C0F84811C0F84C11C0F80011FF
:10060000C0F8041102F008BD0010014002F056BC11
:1006100030B54FF080500022D0F830110123082966
:1006200002D1D0F8344114B1082909D00BE04FF0C1
:100630008041C1F80C21C1F8102161490A6005E030
:10064000D0F8344114B1082957D059E05D49096800
:100650005D4C21605B49091D0968241D21605949D1
:1006600008310968241D216056490C310968241D90
:100670002160544910310968241D21605149143109
:100680000968241D21604F49183109684E4C2034F7
:1006900021604C491C310968241D216049492031E1
:1006A0000968241D2160474924310968241D2160FF
:1006B000444928310968241D216042492C310968C8
:1006C000241D21603F49303109683F4C403421608E
:1006D0003C4934310968241D21603A4938310968A0
:1006E000241D216037493C310968241D21603549AA
:1006F00040310968241D216005E0D0F8344114B16F
:10070000082904D006E0324C3049216005E0D0F8D9
:10071000344114B1082904D006E02E4CFB2121609D
:1007200005E0D0F8344114B1082908D00EE090F863
:1007300058422948016864F30301016002E0D0F8DF
:10074000340118B925494FF4007008602448016845
:1007500041F470010160BFF34F8FBFF36F8F4FF013
:100760001021D1F80002002803DBD1F80402002890
:1007700022DA1C4C23601C480368002BFCD0122397
:10078000C1F800320568002DFCD0C1F804320168C0
:100790000029FCD0226001680029FCD0BFF34F8FF4
:1007A0000F487C380168114A01F4E061114301608F
:1007B000BFF34F8F00BFFDE70E490D48086030BD05
:1007C000380500400404001020C5004048810300A3
:1007D0008C56004018F50040E40E00404096024060
:1007E00088ED00E004E5014000E401400400FA0562
:1007F0000090D003C80000200448017F044800296D
:10080000024901D002F011BD02F080BCC8020020F4
:10081000002000400FB41CB50A46521ECDE900026C
:1008200007A9054B6A46069800F018F8009A0021BF
:1008300011701CBC5DF814FBBF0C000002E008C87E
:10084000121F08C1002AFAD170477047002001E04A
:1008500001C1121F002AFBD1704700002DE9FF4F94
:100860008DB00F460546002606E025280BD0DDE9B1
:100870000F1290476D1C761C28780028F5D111B016
:100880003046BDE8F08F0024A246A1460122EC4983
:1008900000E0044315F8013F203B02FA03F0084250
:1008A000F7D128782A2810D06FF02F022878A0F1ED
:1008B0003001092914D80AEB8A0102EB410144F006
:1008C000020400EB010A6D1CF0E701CF5FEA000AA9
:1008D00003D544F40054CAF1000A44F002046D1C2C
:1008E00028782E2817D115F8010F44F004042A287F
:1008F0000ED06FF02F022878A0F1300109290AD814
:1009000009EB890102EB410100EB01096D1CF2E7E3
:1009100057F8049B6D1C28786C280FD006DC4C28F7
:1009200017D068280DD06A2814D104E0742810D09C
:100930007A280FD10DE044F400140AE044F4801446
:1009400001E044F440146978814202D104F5801436
:100950006D1C6D1C2A786E2A1FD00CDC632A31D0E6
:1009600004DC002A8BD0582A11D1A3E0642A68D075
:10097000692A0CD165E0732A2ED004DC6F2A73D06B
:10098000702A04D19BE0752A6FD0782A6ED0104669
:10099000DDE90F129047761C50E1C4F302500228A3
:1009A00006D0032809D0042801CF09D0066045E10C
:1009B00001CFF117C0E9006140E101CF06803DE1C0
:1009C00006703BE117F8040B8DF8000000208DF84D
:1009D0000100EB46012003E057F804BB4FF0FF3065
:1009E00061074FF0000102D40DE008F101018846D3
:1009F00049450FDA8045F8DB1BF808100029F4D1CF
:100A000008E008F1010188468142FADB1BF8081072
:100A10000029F6D1DDE90F23AAEB08008146214623
:100A200000F036F9304400EB080604E0DDE90F126F
:100A30001BF8010B9047B8F10108F7D22146484650
:100A4000F7E00A21C4F302534FF0000B0891022B88
:100A500004D001CFC117032B09D00AE0FF1D27F0F6
:100A60000707F7E8020108E032E01FE020E000B2EB
:100A7000C117042B01D140B2C117031E71F100034D
:100A800007DA4FF0000CD0EB0C006CEB01012D23CA
:100A900002E0230504D52B238DF82430012303E045
:100AA000E30701D02023F7E7984658E00A2110E039
:100AB00010210EE010204FF0000B08900CE01021E8
:100AC0004FF0000B44F004044FF00809089103E0D4
:100AD00008214FF0000B0891C4F30253022B04D0FD
:100AE00001CF0021032B06D006E0FF1D27F00707EA
:100AF000F7E8020103E080B2042B00D1C0B24FF04E
:100B0000000823072BD5702A07D0DDF820C08CF011
:100B1000100C5CEA0B0C05D00EE040238DF824305D
:100B2000012308E050EA010306D030238DF8243079
:100B30008DF8252002239846DDF820C08CF0080CA3
:100B40005CEA0B0C0BD150EA010301D1630706D517
:100B500030238DF824304FF00108A9F10109582AFB
:100B600004D038A20B9208AA0A920BE03AA2F9E745
:100B70005B46089AFFF760FB0B9B9B5C0A9A521E30
:100B80000A92137050EA0102F2D10A98ADEB00000C
:100B900000F1200B600702D524F4803401E04FF00F
:100BA0000109D94502DDA9EB0B0000E0002000EBB4
:100BB0000B0141440890AAEB010AE00306D4DDE9E9
:100BC0000F232146504600F063F806444FF0000919
:100BD00008E009A911F80900DDE90F12904709F1B1
:100BE0000109761CC145F4DBE0030CD5DDE90F23D8
:100BF0002146504600F04CF8064404E0DDE90F12AF
:100C000030209047761C0899481E08900029F5DC92
:100C100008E00A980A990078491C0A91DDE90F1248
:100C20009047761CBBF10001ABF1010BF1DC2146D2
:100C30005046DDE90F2300F019F806446D1C1BE651
:100C400009280100303132333435363738396162A2
:100C50006364656600000000303132333435363766
:100C60003839414243444546000000002DE9F04137
:100C7000044600251E461746880404D405E039467C
:100C80002020B0476D1C641EF9D52846BDE8F081D0
:100C90002DE9F041044600251E469046C80301D5C3
:100CA000302700E02027880404D505E04146384677
:100CB000B0476D1C641EF9D52846BDE8F0814A682E
:100CC000002A06D00A68531C0B6010704868401E4A
:100CD00048607047022000F08DB9000070B5002414
:100CE000064D06E06868012110F8340001F0D6F9DD
:100CF000641C28788442F5D3002070BD8000002059
:100D0000F8B515460C460646052A01D20720F8BD5F
:100D100001F0A6FA18B901F075FA0028F7D11149C7
:100D200000224E600C708D60C1E90422C1E90622E8
:100D30000D4D0DE006EBC4006968009181788DF8D7
:100D400001100078094A694601F0F4F90028DED163
:100D5000641EE4B2EED2BDE8F840054A0021024824
:100D600000F052B88000002078340000851B00009D
:100D7000951A000070B514460D46064600F093F92A
:100D8000224629463046BDE8704000F00BB80EB54B
:100D900000210091CDE901106A4644F20100FFF7FD
:100DA000E9FF0EBD08B501238DF800309DF8003035
:100DB000144B186059609A606FF48041401807D056
:100DC00001280FD1DA60D86800889861D86807E0F8
:100DD0001A611869806858611869008898611869F3
:100DE0004068D861186858689868D8681869586960
:100DF0009869D86972B600BF9DF800000028FBD141
:100E000062B608BD08030020074B9B7823B12AB1C6
:100E100020B10068037C1BB1082070470720704791
:100E200041744261002070472803002070B501F032
:100E3000BFFF104800240B21047044700E4D8170D8
:100E400014206C602C706C70FFF758FB0721142085
:100E5000FFF775FB1420FFF75CFB084804600721CF
:100E60001120FFF76CFB0548001F0068A8600020F8
:100E700070BD000028030020A000002008150140DC
:100E80002DE9F843DFF8709099F802305BB350B366
:100E9000052902D20720BDE8F88343691BB3437CD0
:100EA000012B22D0002704460025884616462846F6
:100EB00000F036F8684602F031FAC0B10121017045
:100EC0000E4944600968C0E90218C0E904769DF83B
:100ED000000089F80100002000F024F81420FFF73A
:100EE00023FB2846D7E70820D5E70F46DBE7042594
:100EF000002000F017F8F4E7280300200415014053
:100F00000649897839B130B1416921B100210174B4
:100F1000022102F061B80820704700002803002079
:100F200000F002B800F008B872B602480168491C27
:100F300001607047B400002003490868401E086043
:100F400000D162B670470000B400002070B50546BD
:100F500008680C46411C04D001F017FC206801F021
:100F6000AEFB6068411C02D0002101F09FFB287994
:100F70001F4901EB40102968007F0028A069C1F8D3
:100F8000240523D0607D227D29681043C1F86C05BB
:100F9000D4E900122868C0F80C15C0F8142522E026
:100FA000A068411C02D0002101F080FBE068411CD8
:100FB00004D001F0EAFBE06801F081FBD4E9021201
:100FC0002868C0F80825C0F8101570BD607D217D27
:100FD0002A680843C2F86C05D4E900122868C0F8F2
:100FE0001425C0F80C15207D0128D9D070BD000053
:100FF000C8020020094908B5085C0090684601F065
:1010000081FBD0F80425009B0121994021EA0203CD
:10101000C0F808351140C0F80C1508BD3C3400007C
:101020000249085C012101F0BABB00003C34000019
:101030000249085C002101F0B2BB00003C34000012
:10104000084908B5085C0090684601F05BFBD0F8E1
:1010500004050099C84010F0010000D0012080F084
:10106000010008BD3C3400007CB50024084E254634
:101070000122305D009500231146019501F0C2FA6E
:10108000641C042CF4D3BDE87C4000F003B80000DD
:101090003C34000010B500242046FFF7C1FF641C5B
:1010A000042CF9D310BD10B500242046FFF7C0FF73
:1010B000641C042CF9D310BD10B50246064B4FF04A
:1010C000FF3000215C5C944201D1084610BD491CF0
:1010D0000429F7D310BD0000403400002DE9F0478B
:1010E0000D468146FFF7E8FF0446042836D2DFF8B4
:1010F00074801B481C4EA8F10C0725B3012D0ED09F
:10110000022D2BD104EB440030444578002D25D02E
:10111000B968002922D02846BDE8F047084704EB0B
:101120004401755C0E44717849B10E4A4FF4004198
:10113000093A8068FFF7A4FE08B987F80390B178F0
:1011400008F80410E2E78068FFF7DAFE04EB4401D8
:10115000314418F804008D78A842D7D0BDE8F08754
:10116000443400007C00002008020020FFF7B6BDD8
:1011700070B50023042810D20D4D00EB4004012A65
:1011800002D101290CD00022094E00EB400030446E
:1011900061B1012906D0022906D00723184670BD87
:1011A0000E30C2B22A55F9E74270F7E78270F5E7D0
:1011B0000802002070B586B0064614221949684618
:1011C000FFF77EF8184C00250E2E617806D00F2E02
:1011D00025D1042908D2491C617006E009B1491ED5
:1011E000FAE70420607000E065702078C00703D043
:1011F0000D48001D01F0FCF82078800703D50A484F
:101200000C3001F0F5F82078400703D5064814307B
:1012100001F0EEF8257061785DF82100804706B096
:1012200070BD0000283400000000002070B50646A4
:101230001E480024C0E90161B00720D50025012225
:1012400011462846FFF794FF6D1C0446042D02D278
:10125000002CF4D013E094B940F2666204211448E3
:10126000FFF74EFD04000AD1FFF738FD040006D158
:101270000F48104A0021001FFFF7C6FD0446F00783
:1012800001D0FFF7F1FE74B909480B4A00210C3870
:10129000FFF7BAFD040006D10548084A01210838C5
:1012A000FFF7B2FD0446204670BD0000700000202C
:1012B0005034000001150000651D0000D50C000031
:1012C0002DE9F05F6A4C054600266078B34618B1F8
:1012D00084F801B000F02EFD664F4FF47A694FF4A8
:1012E000C87A4FF00108182D62D2DFE805F0AC0C87
:1012F0000C31404D62676B746B74BE7D7D7D7D7D6E
:10130000ACAFB2B5BEBE0020FFF79AFE00284FF08A
:10131000000008D0FFF784FE022D02D14FF4E160F7
:1013200008E0484606E0FFF783FE022D01D1C82001
:1013300000E05046410CC0034FF4FA72801841F1AE
:101340000001257052000023FEF776FF01462AE0D7
:101350000020FFF775FE00284FF0000004D0FFF7D3
:101360005FFE4FF44870E5E7FFF762FEDFE700201D
:10137000FFF766FE00284FF0000002D0FFF750FE96
:10138000CFE7FFF755FED4E70020FFF759FE00280E
:101390004FF0000002D0FFF743FE01E0FFF748FEE8
:1013A000257041F69A1100223868FFF769FD06465C
:1013B00046E00020FFF71EFE257008E0002051E007
:1013C00025703DE084F801800120FFF713FE002224
:1013D00040F6CD41E8E784F801800120FFF70AFEDE
:1013E00000224FF48041DFE77868FFF789FD064669
:1013F000D5F1110000D02EB10220FFF711FE84F8C4
:1014000002B01DE0012816D980B2C8214843C11797
:10141000C90341EA5041C0034FF4FA72801841F108
:10142000000152000023FEF707FF01460022786802
:10143000FFF726FD06460220FFF7FAFD84F802803A
:101440003046BDE8F09F00F075FCB9E700F072FC93
:10145000B4E700F06FFC04E000F06CFC0020FFF744
:10146000E7FD0120FFF7E4FDAAE7FFF71CFEA7E771
:101470007000002044340000002901DA0020704789
:1014800002681144016001207047000070B5461CDD
:101490000D4601240020FFF743FD114A1068286023
:1014A000D2E900109568081A2B1A701C5B1C984230
:1014B0000FD963B10B480C4B294000681B6802EB45
:1014C000810163F39F20C8601068401C10600024F5
:1014D00001E0881910600020FFF724FD204670BD50
:1014E00034050020A0340000C4000020034803C8D5
:1014F000814201D10120704700207047340500204F
:1015000000780221FFF7EABD05494FF0FF320828B5
:1015100041F8202002D3084480F85820704700008A
:1015200048020020F0B54FF0FF3512B10023082625
:1015300001E008230C260C4C05E000BF54F8237092
:101540007F1C04D05B1CB342F8D32846F0BD26189C
:101550005DB286F8305044F82310002AF5D1E11826
:1015600081F85800F1E700004802002002490844D1
:1015700090F93000704700004802002070B5084C18
:10158000050009D010342168002907D008682060C0
:10159000496828468847F6E70834F4E770BD00003C
:1015A000340200202DE9F05F26484168F1B3DFF8EE
:1015B00098B00E688146DBF8004087688078E11BB0
:1015C00021F07F45ED1CB0B9DFF880804FF480300A
:1015D000C8F84403C8F804031120FEF78FFF112058
:1015E000FEF797FF4FF0010AC8F800A02F2000F087
:1015F00093FC89F802A0B54200D23546124BE81997
:101600003C3320F07F401860DBF800105A46091B7D
:1016100021F07F41001B20F07F40C91C81420FD97F
:10162000106818602F2000F077FC00E004E0BDE8AF
:10163000F05F1120FEF778BFBDE8F05F01F0B8BBA6
:10164000BDE8F09FA00000200415014000100140FB
:101650002DE9F04186B000240F46804601256E46F4
:10166000385DFF2823D0C10920F0800046F824000F
:10167000049004A807D001F061F8049905FA01F17B
:10168000C0F8081506E001F059F8049905FA01F1CF
:10169000C0F80C1556F82400049004A801F04EF888
:1016A000049A032100EB8200C0F8001703E04FF01A
:1016B000FF3046F82400641CE4B2042CD0D3D8F8E0
:1016C00000106B46002000BF01EB800253F8204061
:1016D000C2F86045401CC0B20428F5D306B0BDE88E
:1016E000F08100000EB513A1032001F097FA164A0D
:1016F00007CA8DE80700154A6946154800F0F0FD55
:1017000008B1FFF744FB124A0223121F02F11C0129
:10171000107840F001001070002008804880888018
:10172000C8809070084901221039094800F028FE4D
:101730000EBD00004150503A494E464F3A44656D47
:101740006F20310D0A0000005C33000055170000C7
:101750000400002070B5002822D112484FF000028A
:1017600000F11C0483785D0813F0010F34F81510A4
:1017700004D0C8390904090C06D006E0C83189B282
:1017800042F21076B14200D3012224F81510002A4B
:1017900006D05B1CD9B28170082901D30021817069
:1017A00070BD00000000002010B58CB01DA103200A
:1017B00001F034FA204C09AB04F11C0007C883E89F
:1017C0000700002209A91D4800F08AFD08B1FFF7B3
:1017D000DEFA1A481A4B001F4FF4C872017841F024
:1017E0000101017000210846114489B223F810104C
:1017F000401CC0B21928F7D328340DF1040C0FCCCB
:101800008CE80F0094E80F000DF1140C8CE80F0029
:1018100002200090012305AA01A9084800F032FD2A
:101820000CB010BD4150503A494E464F3A44656D98
:101830006F20320D0A0000004C330000040000202D
:10184000CC00002010B588B012A1032001F0E6F909
:10185000154C04AB04F1480007C883E807000022D8
:1018600004A9124800F03CFD08B1FFF790FA0F48B8
:101870005434001F017841F00101017094E80F0019
:101880008DE80F00012303226946084800F078FD27
:1018900008B010BD4150503A494E464F3A44656D2C
:1018A0006F20330D0A0000004C33000004000020BC
:1018B000F0B59BB054A1032001F0B0F9574E02AB34
:1018C00006F16400FF2407C883E807008D208DF827
:1018D00008008DF809408E208DF80A0007208DF849
:1018E0000D0047F61220ADF8100001208DF812000F
:1018F0008DF80B40002202A9494800F0F1FC08B124
:10190000FFF745FA464D05AF2D1F7036287840F099
:101910000100287096E80F0087E80F0004208DF87A
:101920000D00002041F28833ADF810303D4A8DF8AB
:10193000120001466426314489B222F8101002EBED
:10194000400C5F1A401CC0B2ACF864703228F2D36D
:101950008DF808408DF809408F208DF80A00304836
:101960008DF80B40002202A9083000F0B9FC08B144
:10197000FFF70DFA2878294E40F0020080362870D3
:101980000FCE09AF87E80F0096E80F000DAF103EAD
:1019900087E80F008DF808408DF809408DF80A405F
:1019A00090208DF80B001E48002202A9103000F094
:1019B00097FC08B1FFF7EBF92878203640F00400D7
:1019C00028700FCE11AC84E80F0096E80F0015AC1C
:1019D00084E80F000223012205A9114800F0D0FC81
:1019E0000F48022401230DAA09A90830009400F031
:1019F00049FC0B48012315AA11A91030009400F0EE
:101A000041FC1BB0F0BD00004150503A494E464FDA
:101A10003A44656D6F20340D0A0000004C3300001D
:101A200004000020FE00002010B588B012A10320A1
:101A300001F0F4F8154C04AB04F1400007C883E84A
:101A40000700002204A9124800F04AFC08B1FFF781
:101A50009EF90F484C34001F017841F001010170DC
:101A600094E80F008DE80F00022301226946084820
:101A700000F086FC08B010BD4150503A494E464F28
:101A80003A44656D6F20350D0A000000CC3300002C
:101A9000040000202DE9F05F0025DFF8A48043E07A
:101AA0006068002100EBC506012032789146FEF700
:101AB000F4FBD4E9062300EA020701EA030C57EA23
:101AC0000C072FD0C7433A408B434846C4E906234E
:101AD00000F090FB32784FF0000A814693460120D7
:101AE0005146FEF7DAFBD4E9042300EA020401EAD6
:101AF00003075A4648465146FEF7CFFB44404F4045
:101B00003C430FD17078012815D0002289EA0200E9
:101B10008AEAE271084310D00020726812B1C1B2A3
:101B2000584690476D1CEDB298F800004446854237
:101B3000B6D3BDE8F09F0122E8E70120EDE7000001
:101B4000800000200E4910B50A784C780023A2428C
:101B500012D0521CD2B20A70022A00D10B70084A6D
:101B60000B780C3252F8232002608868104420F071
:101B70007F408860012010BD0360002010BD000080
:101B8000A00000202DE9F0418046024601200021FE
:101B9000FEF783FB1A4F05460E463868FFF7B0F98B
:101BA00000280CD1174CD4E9062110462A4001EA3E
:101BB00006031A4305D0A843B143C4E90601BDE8B2
:101BC000F081404600F016FB30B1D4E9040128430F
:101BD0003143C4E9040105E0D4E90410A943B0434A
:101BE000C4E90410D4E9060128433143C4E90601DD
:101BF000A1683868BDE8F0410022FFF741B9000054
:101C0000783400008000002070B50E46044600794C
:101C100018494FF4A27501EB4010017F2068A1B173
:101C20004FF4887101F06AF84FF49071206801F068
:101C300065F84FF49271206801F060F82946206839
:101C400001F05CF80C49206809E04FF48E7101F056
:101C500044F82946206801F040F808492068C0F897
:101C60000413206800F017FA3146BDE8704000F018
:101C7000F6B90000C8020020100302008000020034
:101C800070B50C464FF488760546314601F006F8EB
:101C900050B13146284601F006F86079400703D577
:101CA000216809B1012088474FF48A7631462846D9
:101CB00000F0F4FF50B13146284600F0F4FF60799F
:101CC000000703D5216809B1022088474FF48E76BA
:101CD0003146284600F0E2FF50B13146284600F078
:101CE000E2FF6079C00603D4216809B1002088476B
:101CF0004FF482763146284600F0D0FF00280CD001
:101D00003146284600F0CFFF0120207121680029CC
:101D100003D0BDE870400320084770BD0268134639
:101D200002E08A4204D01268002AFAD10B600160F6
:101D3000704700000A4810B5807860B1002401E0C7
:101D4000022C06D02046FFF76BF9641C042CF7D355
:101D500010BD0324F6E7BDE81040FFF79BB9000073
:101D60007000002003480179C90702D00078FFF70E
:101D7000A7BA7047700000202DE9F047394E0027C0
:101D800080463D46DFF8E090D6F804A057E003D047
:101D90000446D0F81C8035E099F8002002EB42019F
:101DA000521CD2B289F8002009EBC10199F8023027
:101DB000091D9A4201D189F8005048680A78044602
:101DC000012A12D0022A02D0032A3BD108E001F0F6
:101DD000D3F800B10127257434E00574C06900E030
:101DE00070680028F9D170602CE0207C50BB8868B6
:101DF0006060C868A0600869E0604869A061F07828
:101E000000B165606268B168184B501A20F07F40DD
:101E1000984202D2A168084406E0881AA16820F01E
:101E20007F40814202D9081A206000E02560656089
:101E30000120A56020742046E56101F07FF8B8F12B
:101E40000000A4D199F8001099F801008142A3D1B3
:101E500017B97168514502D00120BDE8F087002014
:101E6000FBE70000A000002028030020FFFF7F0008
:101E700000F098F808B1FEF78AFF002000F0B4F8EF
:101E8000FEF7D4FF08B1FEF782FF10490220FFF7EA
:101E9000CDF908B1FEF77BFFFFF768F908B1FEF74F
:101EA00076FF002000F0E8FE08B1FEF770FF08A101
:101EB000032000F0B3FEFFF715FC20BF40BF20BF9A
:101EC00000F00AFE0028FBD1F7E70000B511000082
:101ED0004150503A494E464F3A50574D206578612F
:101EE0006D706C650D0A0000C20800F00703012048
:101EF000895C98400840704700F1804000680028E5
:101F000000D00120704708B500F180400021016039
:101F10000068009008BD000000283ED01F49204AFC
:101F2000096800BF00BF00BF00BF00BF00BF00BF07
:101F300000BF91422FD000BF00BF00BF00BF00BF55
:101F400000BF00BF00BF00BF00BF00BF00BF00BF99
:101F500000BF00BF00BF00BF00BF00BF00BF00BF89
:101F600000BF00BF00BF00BF00BF00BF00BF00BF79
:101F700000BF00BF00BF00BF00BF00BF00BF00BF69
:101F800000BF00BF00BF00BF00BF00BF00BF00BF59
:101F900000BF00BF00BF0138C3D17047C800002098
:101FA0000024F40070B50E4C0025207808B185257A
:101FB00013E00021A16061602161E1604FF0E02049
:101FC000D0F80001012610F0010F03D107210020F5
:101FD00000F045F8034806602670284670BD0000F2
:101FE000340200201805004070B5154D0446A8784D
:101FF00038B114B16168012088470020FEF790FFD6
:1020000015E00020FEF78CFF24B10D48214610306A
:10201000FFF784FEE86850B94FF48270FFF773FF52
:1020200002204107C1F80403064901200860E8685E
:10203000401CE860BDE870400020FEF773BF000060
:10204000340200200800004000F01F0201219140EE
:102050004009800000F1E020C0F880117047490776
:10206000090E002806DA00F00F0202F1E02282F8E1
:10207000141D03E000F1E02282F8001400F01F02BA
:10208000012191404009800000F1E020C0F8801259
:10209000C0F800117047000B40B270472DE9F041C5
:1020A0000E46804600F030FE204D0028404616D0F7
:1020B000FFF75CFA284490F858008009032802D002
:1020C00001280AD003E0404600F054FB28B1032168
:1020D0004046BDE8F04100F0FCBA0221F8E700F00C
:1020E0001FFE002820D04046FFF740FA0446104F5C
:1020F0004FF4807007EB840100EB8400D1F81025C9
:1021000080B242F00102C1F8102500F071FB002EF0
:102110000AD04046FFF72AFA55F82000002803D0DD
:102120000120A040C7F80403BDE8F0814802002068
:10213000006000402DE9FC41DFF8AC80044608EB6C
:102140000400002790F930001346C0170E46401CCB
:1021500001D0082744E0F27819462046FFF7E2F95B
:102160000546401C3BD0B07868B16846009400F04A
:10217000D7FA009900EB8100D0F8001721F0020196
:10218000C0F8001707E000217378204600910A4646
:10219000019100F050FAF078C0B11448317800EBAA
:1021A0008500D0F81025124B1A40C0F810254FF4C6
:1021B0007C524FF4403302EA042203EA01410A430D
:1021C000D0F810150A43C0F8102509E008EB050007
:1021D000327810F8581F41EA8211017000E004279C
:1021E0003846BDE8FC810000480200200060004045
:1021F000FFC0FCFF10B500F0BDFA002800D00120A0
:1022000010BD000070B5144D95F8640008B10820A9
:1022100070BD0020411E2A18401CC0B282F8301048
:102220003028F8D300242046FFF76EF9641CE4B28E
:102230000C2CF8D307210620FFF711FF4FF4BE70D6
:1022400000F0D6FA05494FF00040C1F80403012020
:1022500085F86400002070BD480200200060004046
:10226000034890F86400002800D001207047000067
:10227000480200200121B1EB507F01D101207047BD
:10228000002070472DE9F041904604460079134A3A
:102290001F4602EBC0060A46069D0021206800F09A
:1022A00008FD42460121206800F003FD2068C0F8C7
:1022B0001475E80701D0102004E0A80701D5042018
:1022C00000E000202168C1F80002EAB23146204651
:1022D000BDE8F041082300F0CBBD0000B0020020B3
:1022E0002DE9F0410D4604460079244901EBC00672
:1022F000307910B10820BDE8F081294620463260CF
:10230000FFF7A6F920680127C0F8007520686B79EF
:10231000AA792989C0F80C35C0F80425C0F8081539
:10232000AA7AE87A216842EA0020C1F810052068FC
:102330000021C0F800122068C0F800134FF48E711D
:10234000206800F0B0FC4FF48871206800F0ABFC0E
:102350004FF48A71206800F0A6FC4FF48271206867
:1023600000F0A1FC306828B120682979000B40B248
:10237000FFF775FE37710020BDE70000B0020020B6
:102380002DE9F0410F46044600791849164601EB45
:10239000C0081D463A460021206800F08AFC3A46F3
:1023A0000121206800F085FC206806F0010101EBA6
:1023B0005602C0F81425E80701D0102007E0A8074E
:1023C00004D509B1082002E0042000E000202268C2
:1023D000C2F8000209B10C2300E00823EAB241462A
:1023E0002046BDE8F04100F043BD0000B0020020EF
:1023F00010B501790A4A012302EBC1020168090BF9
:1024000049B201F01F04A3404909890001F1E0210C
:10241000C1F8803100680021C0F80015117110BDAD
:10242000B00200202DE9F04105460079164F904694
:1024300007EB40140E46E07E10B10820BDE8F081A5
:10244000707F20772846FEF781FD5FEA0800606014
:102450003169216003D0317F2846FFF7D5FB287909
:1024600007EB4010007F0028286801D0082100E019
:102470000421C0F800150020E0752076A075012128
:10248000E176A076DAE70000C80200202DE9F047E7
:10249000054600793F4E904606EB40140F46207FDC
:1024A00018B10846FFF7E6FE30B1284600F074F890
:1024B00020B11120BDE8F0871020FBE784F81680DA
:1024C000A7600027A78228794FF0010806EB401487
:1024D0003E46207F0028286825D04FF49079494651
:1024E00000F00CFC4FF4AC7A5146286800F006FC72
:1024F0002868A17DA268C0F84425C0F8481528685E
:10250000C0F808806068F0B94946286800F0F1FB1F
:1025100080465146286800F0ECFB58EA0001F3D0F1
:1025200058BBA7750FE04FF48E7A514600F0D5FBEB
:102530002868C0F808802146286800F0C1FD61685D
:102540004FF4807089B13046B4E75146286800F0F6
:10255000BFFB10B9A08A4845F7D1A08A484505D0ED
:102560002146286800F0ACFD00E08146A08AA17DEC
:102570008842EAD3A08A484501D10F26D1E75146C7
:10258000286800F0A5FB0028F9D02868C0F80C8066
:10259000C7E70000C80200200079044901EB4010A1
:1025A000807D002800D0012070470000C802002074
:1025B00070B5044600791149002601EB40152068EA
:1025C0002A7FC0F80065686888B1207901EB401067
:1025D000007F0028206801D0094901E008498C39B2
:1025E000C0F808132068FFF756FDFFF72DFD2046C1
:1025F00000F0A2FBEE766E6070BD0000C802002005
:10260000100302002DE9FF411C46DDE90A7815465A
:102610000E46684600F076F846EA450141EA840134
:1026200041EA072242EA0841009A00EB8200C0F822
:102630000017BDE8FF812DE9FF411C46DDE90A785E
:1026400015460E46684600F06BF846EA450141EA39
:10265000840141EA072242EA0841009A00EB820025
:10266000C0F80017BDE8FF812DE9FF411C46DDE9F8
:102670000A7815460E46684600F06EF846EA4501AF
:1026800041EA840141EA072242EA0841009A00EB4C
:102690008200C0F80017BDE8FF811CB50021009141
:1026A0000B4601220191FFF7DFFF1CBD1CB5002284
:1026B0000B46009211460192FFF7D6FF1CBD1CB5D8
:1026C000002100910B46012201911146FFF7CCFF3A
:1026D0001CBD13B50C46684600F022F8009900EBCB
:1026E0008101D1F8002722F44032C1F80027009977
:1026F00000EB8100D0F8001741EA0441C0F8001750
:102700001CBD00000168202902D24FF0A040704794
:1027100001F01F01016001487047000000030050F4
:102720000168202902D24FF0A040704701F01F013C
:102730000160014870470000000300500168202933
:1027400002D24FF0A040704701F01F010160014824
:1027500070470000000300500168202902D24FF0AA
:10276000A040704701F01F01016001487047000060
:102770000003005001B56846FFF7D2FFD0F81005FE
:102780000099C84000F0010008BD01B56846FFF798
:10279000E3FF009A01219140C0F8081508BD38B543
:1027A00001240090684631B1FFF7ACFF00998C40DE
:1027B000C0F8084538BDFFF7A5FF00998C40C0F868
:1027C0000C4538BD1CB5094C0144D4E90034CDE9B1
:1027D00000346C4606E000BF54F82030D3F81035C2
:1027E000401C08C28142F7D81CBD000070340000B4
:1027F000034908B50844002101600068009008BD45
:102800000060004002494058012800D00020704775
:1028100000600040004870478D28000030B5184C1B
:10282000054689B0207828B16078854202D1002021
:1028300009B030BD202213496846FDF741FD002054
:102840008DF81400062000900820019005200390C8
:10285000072002904FF0EB7006900948001DFFF72B
:10286000A7FE0DB1002200E0074A05486946001D99
:10287000FFF7D8FD0028DBD1012020706570D6E776
:10288000B800002080340000FD3000002DE9F04F3A
:10289000C1B00D004FF0000140914D984B991C467E
:1028A000174601EB000B01D00A2000E00020804613
:1028B00000F0C2FA00287CD16E46BCB9409840AA0C
:1028C0003118284600F0E2FB002872D03846FDF7A8
:1028D00009FDC22800D9C220054640982A46304446
:1028E0003946FDF7EDFC4098284440904FF0200A0F
:1028F000409901EB080231320DEB01050DEB0206A8
:10290000002002E005F801AB401C4045FAD3002747
:102910005C4508D305F801AB05F801AB05F801AB40
:1029200006F801AB2DE04B98844202D24A98005D34
:1029300002E0211A4C98405C2B4681460246012158
:10294000880022FA00F000F00F00092801D9373082
:1029500000E03030C1F1010C491E03F80C00EFD249
:102960009D1C05F801ABFDF7A7FC016811F80900F3
:1029700010F03E0F01D0484600E02E2006F8010B73
:10298000641C7F1C102FC3D30D2030700A20707080
:1029900085F800A04099684641444331409100F0D9
:1029A00051FA30B100F048FA18B9002040905C4567
:1029B0009ED341B02046BDE8F08F2DE9F043C7B06B
:1029C00000251C46904689464E9F459500F034FAF6
:1029D00000287AD1459805AE311845AA484600F03E
:1029E00055FB002835D0072F27D2DFE807F0041267
:1029F0001B35424F5D004046FDF774FC0546459887
:102A00002918FF2919D830442A464146FDF758FCB9
:102A100013E045982368C0F5807130444246FDF7C5
:102A2000F9FE09E06068009045982368C0F5807160
:102A300030444246FDF7EEFE0546294645A8FEF71E
:102A40001BFD459978B3B1F5807F3ED805A800F00D
:102A5000F9F947B0BDE8F083D4E90101CDE90001FF
:102A600045982368C0F5807130444246FDF7D2FE98
:102A7000E2E7201D07C88DE8070045982368C0F5E8
:102A8000807130444246FDF7C5FED5E7201D0FC8D2
:102A90008DE80F0045982368C0F5807130444246A8
:102AA000FDF7B8FEC8E710E004F1080001AD0FC85B
:102AB00085E80F006068009045982368C0F5807134
:102AC00030444246FDF7A6FEB6E70020C1E700000D
:102AD00000487047BB2900002DE9F04F87B0FEF792
:102AE00005FD18B1002007B0BDE8F08F454ED6E9CE
:102AF000014704EA070006EB8000A146641CC56894
:102B00000CE000BFC5F3891000EB9550044404EAC3
:102B1000070006EB8000A146C568641CA807F1D039
:102B200005F003004FF0000B022805D0AA0A01A807
:102B3000C5F38313002153E004EA070006EB80008D
:102B400004F1010A0AEA0704C268381B80004FEA50
:102B50009558001DC5F38913804521D929490C31A9
:102B600038B106EB840400F0FF0CA8EB00000C3435
:102B700004E00C46002108F0FF0C0846C0B2CDE985
:102B80000210CDE9004CD6F81444C5F3C2005946F2
:102B9000A047404511D108F103080AEB98042AE048
:102BA000002106EB84000C300090CDE901810391F7
:102BB000C5F3C200D6F81444EAE760F38F1509EABA
:102BC000070006EB8000C56016E000BF04EA070CB2
:102BD00006EB8C0C491CDCF80CC040F804CB641CE0
:102BE0009942F3D3C5F3C2000093D6F8105401AB59
:102BF0005946A84700B17460FEF778FC80F00100E8
:102C000071E7000034050020034AFF23936000238E
:102C10001360536000F028B8340500202DE9F84314
:102C20000F4F88460446002569462846BE68FEF7D1
:102C30002DFC002812D00B480021406861F382006F
:102C4000009964F3C50001EA060265F3891007EBF9
:102C5000820268F39F20491CD0600091BDE8F88390
:102C600034050020A0340000024A02F5826203C24B
:102C7000704700003405002070B506460020FFF7BD
:102C8000CDFD040008D1FFF7C5FD0546FFF720FF85
:102C900032462946FFF7B8FF204670BD405800284D
:102CA00000D00120704708B50022425040580090E3
:102CB00008BD00EB41101368C0F820359188C0F8BA
:102CC00024159168C0F82815D168C0F82C157047F4
:102CD0004058002800D00120704708B5002242501B
:102CE0004058009008BDD0F80403084000D00120EF
:102CF00070474058002800D00120704708B50022D6
:102D000042504058009008BD0449084490F93000F2
:102D1000082801DB0120704700207047480200208E
:102D20000449084490F93000082801D20120704776
:102D3000002070474802002070B5034600791B4907
:102D400001EB40101968027F4FF0FF30002AD1F8E4
:102D50000C25D1F81465D1F80855D1F8104504D0E8
:102D6000C1F80C05C1F8140503E0C1F81405C1F859
:102D70000C051968C1F80805C1F81005501C02D0EF
:102D80001046FFF78AFC701C02D03046FFF785FC26
:102D9000601C02D02046FFF780FC681C04D0284647
:102DA000BDE87040FFF779BC70BD0000C80200208C
:102DB00070B5012670044FF0E0210025C1F88001B4
:102DC000084C4010C4F84803C4F8080366602F207C
:102DD000FFF7A2F8A660044C2F20A560FFF79CF82F
:102DE000A57070BD00100140A000002070B5054620
:102DF000C87D0C4600284FF4847128460AD0FFF79E
:102E00006CFFD5F81805627EE1688854607E401C2E
:102E1000607670BDFFF761FFD5F8180570BD1FB56E
:102E200001238DF800308DF808100192D0E90012CE
:102E3000684690471FBD00000148FFF7ADBB00008A
:102E4000BC00002070B50D460A4601460124064824
:102E5000FDF736FAEAB204490448FFF717FB00B160
:102E60000024204670BD000034040020BC00002077
:102E700070B5054602201E46144608714A7108685E
:102E800070B18221600700D59221200701D541F061
:102E90002001E00601D521F080012868C0F8001368
:102EA0004FF482712868FFF7FEFE2006286801D5DE
:102EB000304470BD01218151002070BD2DE9F84FD3
:102EC0001D4C00256846D4E901A6FEF73BFE00270D
:102ED00038B30023009A61681CE0D1F800C00846AE
:102EE000944503D9ACEB02020A6015E0A2EB0C0298
:102EF00063440760D0F80CC0C1698146BCF1000F83
:102F000008D006EB030828F07F48C0E9018CC9F817
:102F10001C5005460029E0D128466160FEF72CFFD1
:102F200003E02846FEF728FF10B15046FEF73AFBB3
:102F3000E770BDE8F88F0000A00000200D4B10B531
:102F4000596831B102680C68A24204D8A21A0A601A
:102F5000C161586010BD0B4603E00B46C969121BE6
:102F600021B10C689442F8D3A41A0C600260C161CC
:102F7000D86110BDA00000202DE9F041144E776803
:102F80003D462C4603E0844204D02546E469002CEB
:102F9000F9D11BE0D4B1A5420BD1F869706040B9FA
:102FA0000C49012088600021B160F0702F20FEF7ED
:102FB000B3FF2168E069E86110B102681144016063
:102FC0007068874202D00120BDE8F0810020FBE755
:102FD000A000002000100140F8B5064600240D4670
:102FE0002046FDF79DFF684600F098F968B105702E
:102FF000084946609DF8000048700020FDF792FFE8
:103000001420FDF791FA2046F8BD04240020FDF7B6
:1030100089FFF8E7280300202DE9F041194D6C687D
:10302000002C2CD0184800270068A968B846401A20
:1030300020F07F462068B0420CD82146361A07445B
:10304000E469087C20B181F8108088694969884763
:10305000002CEFD129786878814206D1401CC0B29B
:103060006870022801D185F80180064869780C3023
:1030700040F82170BDE8F0411420FDF755BABDE8D5
:10308000F0810000A00000200415014010B5144696
:1030900002004FF001000CD00846136806A24FF45E
:1030A0008071FDF7B7FB01462046BDE81040FEF7F2
:1030B000E3B90021216010BD5B253038645D00005C
:1030C00070B50C4605464FF48E71FFF706FEA18AD7
:1030D000A068415CA08A401CA082C5F81C1570BD88
:1030E0001FB500228DF800208DF80810816801912D
:1030F0008275D0E90012684690471FBD007801280C
:1031000001D1014988707047B80000202DE9FF47C0
:103110000C4605464FF40071FFF7E5FD01274FF41B
:103120000178002618B34FF4927949462846FFF7F4
:10313000CFFDE0B149462846FFF7CFFDC5F808832B
:10314000A07E00B96F6002208DF80000D5F88004E1
:10315000C5F880040390E07D8DF80800E0680190D8
:10316000E6752676D4E900126846904727E00421E8
:103170002846FFF7B8FD10B34FF484712846FFF7D7
:10318000A7FDE0B121462846FFF730FEE07D617ED5
:10319000884214D1207E38B1617EE268E0752069F2
:1031A000E0602676667607E0A07E00B96F60C5F81D
:1031B0000883E675617EE2682046FFF730FE4FF433
:1031C0008E7841462846FFF783FD88B1A08AA17D0D
:1031D000884204D221462846FFF772FF08E04146A4
:1031E0002846FFF77AFDA17D11B12046FFF778FF51
:1031F0004FF4A27841462846FFF76AFD002812D016
:1032000041462846FFF769FDA07E00B12F60E07DB2
:10321000002808D0E675617EE26804B02046BDE86B
:10322000F047FFF7FCBDBDE8FF872DE9FF410C46E5
:103230004FF4927705463946FFF75BFD0026C0B193
:1032400039462846FFF75AFD02208DF80000D5F8D0
:103250008004C5F880040390D5F83C058DF808007B
:10326000E0680190E6752676D4E90012684690473A
:1032700024E04FF4887739462846FFF73AFDE8B155
:1032800039462846FFF73AFDD5F83C05C1B2E07D46
:10329000884213D1207E60B1E268D5F8000220F0A8
:1032A0002000C5F80002207EE0752069E0602676E7
:1032B00001E0E675E2682046FFF7B1FD4FF4A27722
:1032C00039462846FFF715FD68B139462846FFF70D
:1032D00015FDE07D38B1E675D5F83C05E268C1B270
:1032E0002046FFF79CFD4FF4907631462846FFF7C5
:1032F00000FD00280FD031462846FFF7FFFCA07DD7
:10330000002808D0D5F84C0504B0C1B22046BDE86D
:10331000F041FFF7E5BEBDE8FF8100000A494A78A9
:103320008B78521CD2B2934200D100220B78934288
:1033300001D1002070470270487800EB400001EB9B
:10334000C000001D70470000280300201C00002062
:103350000400000000000000000000008D8E908F2F
:1033600007040000102702008D8E8F9007050000D3
:1033700010270000CC000020190000000100000010
:1033800000000000240000200600000004000000EF
:10339000000000008DFFFFFF07070000A86100008C
:1033A00030000020060000000000000004000000C3
:1033B0000000000007000000000000003C000020AA
:1033C000080000000100000000000000FE000020D6
:1033D0006400000000000000000000004C0000201D
:1033E0000200000095000000000000004C000020DA
:1033F000020000003100000000000000FE0000207C
:103400006400000002000000000000008D8F908E1C
:1034100007070000093D02005000002010000000D6
:103420000000000000000000E5160000A9170000E1
:1034300045180000B1180000291A00000D0E0F10E9
:103440000B0C1819C8010020E8010020140200200C
:103450000B000300DD1000000C000300DD10000075
:1034600018000300DD10000019000300DD1000004B
:103470000000005000030050E8020020030000009C
:10348000FFFFFFFFFFFFFFFFFFFFFFFFFFFFFFFF4C
:1034900000000000000000000000D601070100004D
:1034A00029000000010000000100000001000000F0
:1034B0000100000001000000010000000100000008
:1034C0000200000000404040404040404040414138
:1034D00041414140404040404040404040404040E9
:1034E0004040404040050202020202020202020283
:1034F0000202020202202020202020202020200280
:10350000020202020202909090909090101010100F
:1035100010101010101010101010101010101010AB
:10352000020202020202888888888888080808083F
:10353000080808080808080808080808080808080B
:103540000202020240000000C53400004F7665729E
:10355000666C6F770D0A00007835000000000020CF
:10356000CC0000003C08000044360000CC000020E5
:10357000842800004C0800000000000000C001404A
:103580000000000000100240010000000020024086
:1035900002000000000000000000000000000080A9
:1035A000000000800000000000800000008000009B
:1035B000008000000000000000800000000000808B
:1035C000008000800000000000800000000000007B
:1035D00000000080000000000000000000800000EB
:1035E000000000000000008000000000000000005B
:1035F00000000000000000000000000000000000CB
:1036000000000000000000000000000000000000BA
:1036100000000000000000000000000000000000AA
:10362000000000000000000000000000000000009A
:103630000000000000200040000000004C350000A9
:043640000090D00323
:0400000500000201F4
:00000001FF
