:020000022000DC
:102000000000042005F002002DF002002FF0020075
:1020100031F0020033F0020035F002000000000051
:1020200000000000000000000000000037F0020087
:1020300039F00200000000003BF002003DF0020019
:102040009D580200010D0500A1FB04003FF00200B5
:102050003FF002003FF00200655D02007160020087
:102060003FF002003FF002003FF002003FF00200AC
:102070003FF002003FF002003FF002003FF002009C
:102080003FF00200A92C02003FF002003FF00200E6
:10209000492D02003FF0020001FB02000123050070
:1020A0003FF002003FF002003FF002003FF002006C
:1020B0003FF002003FF002000000000000000000BE
:1020C0003FF002003FF002003FF002003FF002004C
:1020D000B5F804003FF002003FF002003FF00200BC
:1020E0001D6402003FF002003FF002003FF00200DA
:1020F000000000003FF002000000000000000000AF
:1021000000000000000000000000000000000000CF
:1021100000000000000000000000000000000000BF
:1021200000000000000000000000000000000000AF
:10213000000000000000000000000000000000009F
:10214000000000000000000000000000000000008F
:10215000000000000000000000000000000000007F
:10216000000000000000000000000000000000006F
:10217000000000000000000000000000000000005F
:10218000000000000000000000000000000000004F
:10219000000000000000000000000000000000003F
:1021A000000000000000000000000000000000002F
:1021B000000000000000000000000000000000001F
:1021C000000000000000000000000000000000000F
:1021D00000000000000000000000000000000000FF
:1021E00000000000000000000000000000000000EF
:1021F00000000000000000000000000000000000DF
:1022000010B5054C237833B9044B13B10448AFF330
:1022100000800123237010BD7830002000000000F2
:10222000BCC60600084B10B51BB108480849AFF3FF
:1022300000800848036803B910BD074B002BFBD092
:10224000BDE81040184700BF00000000BCC60600F3
:102250007C3000206430002000000000154B002B73
:1022600008BF134B9D46A3F5803A00218B460F46CD
:102270001348144A121A00F065F80F4B002B00D0D7
:1022800098470E4B002B00D09847002000210400F7
:102290000D000D48002802D00C48AFF3008000F07C
:1022A0002BF82000290005F017FB00F011F800BF03
:1022B00000000800000004200000000000000000F2
:1022C00078300020D4190120000000000000000038
:1022D00008B5074B044613B10021AFF30080054B4E
:1022E0001868836A03B19847204600F033F800BFAE
:1022F000000000006C41060070B50E4B0E4CE41A55
:10230000A41000251E46A54204D056F82530984753
:102310000135F8E741F01CFF084C094BE41AA41002
:1023200000251E46A54204D056F8253098470135B1
:10233000F8E770BD5C3000205C3000206030002089
:102340005C30002002440346934202D003F8011B94
:10235000FAE77047FEE700BF2DE9F04F1546C7B01A
:102360001C46002900F01C81002B00F0EF800A239E
:1023700001930023194606AE519B539A519F03EBDC
:10238000020B019B013B059320258C4601980CEB29
:10239000000304933133F318029306EB0C03002877
:1023A0005FD05A4202F00302824228BF024606284A
:1023B00000F2EC80019A06F80C50012A03F10101A9
:1023C00000F0E280022A5D7003F1020100F0DC807F
:1023D000032A9D7003F1030100F0D680042ADD700A
:1023E00003F1040100F0D080062A1D7103F10501FC
:1023F00040F0D3805D71991D9646019890422ED091
:10240000C2EB0009A9F1040080080130039005988F
:10241000C2EB000A0398BAF1020F4FEA800812D902
:10242000624401284FF0203C06EB020A46F802C045
:1024300005D00228CAF804C001D0CAF808C0C845AF
:102440004144C6440BD001980D700EF10102904238
:1024500005D90EF1020E70454D7000D98D70019AAC
:102460001344534A0299D2F80080DDF84891DA1CEF
:10247000481C03F1330C0CE002F8035C02F8025C28
:1024800002F8015C0332624500F8015C00F10100D2
:1024900033D0A345F0D9A74295BFE11B509919F855
:1024A0000110095D02F8015C4FEA211E5FFA8EFA05
:1024B000BEF1090F01F00F0ED4BF0AF1300A0AF184
:1024C000370ABEF1090F02F803AC94BF0EF1300ECB
:1024D0000EF1370E08EB010A02F802EC9AF801E05F
:1024E00003321EF0970F08BF2E21624500F8011C31
:1024F00004F1010400F10100CBD1029804990D22EE
:102500004FF00A0801F14309027480F8118083F842
:10251000305023464FF0000A4C46994606EB0A011C
:102520002246002005F004FD8244241A10B9B8F1B7
:10253000010801D0002CF1D1CB454C464FF0000CE6
:102540003FF624AF204647B0BDE8F08F06AE0B68DB
:10255000184A30464FF4807140F050FE0028F1DBFD
:102560000A2307460193284640F0AFFEC22828BF41
:10257000C220804629460246F01940F0ADFA08EB29
:10258000070300241946F7E6964636E7002A7FF44B
:1025900012AF19469646019832E74FF0050E2CE728
:1025A00013B1019106AEE7E60194274606AEDAE7DD
:1025B00058300020704106002DE9F0419046C6B029
:1025C0001F46C1B106AE0B68564A30464FF48071C3
:1025D00040F014FE00280ADB4C9B0546062B00F257
:1025E0009F80DFE803F042525D6A798A1400002080
:1025F00046B0BDE8F0814C9B062B00F28F80DFE8EF
:1026000003F033424D5A697A0400002506AE07F103
:102610000C017A683B68D7F808C092C9701900921B
:10262000029103944246CDF804C00497C5F5807129
:1026300040F0E4FD0446002CD9DB2C44B4F5807F47
:10264000D5D80A27002506AE71192246002005F0CC
:102650006FFC0544241A08B9013F01D0002CF3D1C6
:10266000012046B0BDE8F0810025404640F02DFE37
:102670004319FF2B0446DED806AE414670192246A8
:1026800040F02AFAD7E7002506AE701942463B68AB
:10269000C5F5807140F0B2FD0446CCE7002506AEDA
:1026A0007A683B68009270194246C5F5807140F027
:1026B000A5FD0446BFE7002506AE7A68B9683B6809
:1026C0000092019170194246C5F5807140F096FD67
:1026D0000446B0E7002506AE7A68BC68F9683B6836
:1026E00000920194029170194246C5F5807140F044
:1026F00085FD04469FE7002506AE07F108017A68CC
:102700003B6892C970190092019102944246039766
:10271000C5F5807140F072FD04468CE7002490E717
:1027200000248AE77041060070B5074C074D2378F6
:10273000064613B12B78834204D005F03DFD0123FA
:102740002E702370002070BD953000209430002042
:1027500000487047B925020000487047592302001D
:1027600038B50120FFF7E0FF044638B9FFF7F0FF66
:102770000546FFF7F1FF024B5D619861204638BDC9
:102780009830002010B5054C82B00A4600216469DB
:1027900000910B46A04702B010BD00BF983000204A
:1027A00030B585B004AB054C43F8042D01250A462D
:1027B000646900950021A04705B030BD9830002025
:1027C00030B5064C85B00225029203930A4664692F
:1027D0000095002102ABA04705B030BD9830002025
:1027E00070B586B0064C0A9E039203250A460493F0
:1027F000646905960095002103ABA04706B070BD43
:1028000098300020084B1B5C1F2B8ABF074A4FF0F3
:10281000A04203F01F03D2F80405D84000F00100E5
:1028200080F00100704700BF7C41060000030050AB
:10283000074B1B5C1F2B86BF03F01F0305494FF09E
:10284000A041012202FA03F3C1F80C35704700BF22
:102850007C41060000030050064B1A5C1F2A86BF0D
:1028600002F01F0204494FF0A04101239340C1F838
:10287000083570477C410600000300504FF0A0432C
:1028800010B44FF480404FF400544FF400414FF423
:102890008032C3F80845C3F80805C3F80815C3F823
:1028A00008255DF8044B70474FF0A04310B44FF477
:1028B00080404FF400544FF400414FF48032C3F88D
:1028C0000C45C3F80C05C3F80C15C3F80C255DF8CE
:1028D000044B70470A4B195C1F298ABF09484FF007
:1028E000A04001F01F01D0F8043501228A4022EAFD
:1028F00003011340C0F80815C0F80C35704700BF3D
:102900007C4106000003005030B44FF0A043032286
:102910004FF400554FF480444FF400404FF48031A1
:10292000C3F83427C3F83827C3F83C27C3F8402737
:10293000C3F80855C3F80845C3F80805C3F80815D7
:1029400030BC7047084B1B5C1F2B8ABF074A4FF0F7
:10295000A04203F01F03D2F81005D84000F0010098
:1029600080F00100704700BF78410600000300506E
:102970000B2809D00C2809D0182809D0192814BF11
:102980004FF0FF3003207047002070470120704750
:10299000022070474B4B1978002900F091802DE9F7
:1029A000F04F87B0DFF828C104910024012504E02E
:1029B0000134049BE4B29C4265D227B2DCF800608B
:1029C00016F83700A0F1200305FA03F93E4BC0F1D9
:1029D000200ED3E9002325FA0EFE49EA0E0905FA76
:1029E00000F808EA020A09EA030B06EBC7015AEAF3
:1029F0000B0E0591DCD03449CDF810C022EA080254
:102A000023EA0903C1E9002303F09CF916F83760B3
:102A1000DDF810C0A6F1200205FA02F20192019938
:102A2000C6F120035FFA80FA25FA03F3A6F120022B
:102A300019430AFA02F30393019105FA06F1009192
:102A4000C6F120070399214B2AFA07F7394303916E
:102A50000AFA06F1D3E900230291DDE900011040F2
:102A6000194002460B46DDE902018B4208BF824253
:102A70004FF0000B0AD0134B1B7804930134049BD6
:102A8000E4B29C4299D307B0BDE8F08F059A57682D
:102A900052780023A2F10102B2FA82F25209002F09
:102AA000E9D05B4506BF5245012100213046CDF8F3
:102AB00014C0B847034BDDF814C01B78049377E7C4
:102AC000704700BFBC300020E8300020E03000201C
:102AD000B83000202DE9F8430746204800F072FD89
:102AE000D0B91F4E0123A7F1200103FA01F5C7F168
:102AF0002002D6E9000123FA02F2154303FA07F493
:102B000004EA000205EA0103134307D020EA0404A3
:102B100021EA0505C6E90045BDE8F883384603F01B
:102B200011F9104FD7E9002398B144EA020845EAA9
:102B30000309D6E9002314431D43C7E90089C6E908
:102B400000450949054809680022BDE8F84300F03E
:102B5000DFBC22EA040823EA0509EAE7C0300020C6
:102B6000E8300020E0300020B4300020F0B5042A26
:102B700083B0164602D8072003B0F0BD05460F46C5
:102B800002F080FF002836D01D4BDFF88CC0DFF844
:102B90008CE01C481C491D60002200237C1E8CF820
:102BA0000070CEF80060C0E90023C1E90023E4B260
:102BB000DFB10327002600E01C4623B205EBC30269
:102BC00015F833009378114A8DF8053001A98DF876
:102BD00004708DF806608DF8076002F05DFF631EDB
:102BE0000028C9D1DBB2002CE6D1094A09480021EE
:102BF00000F07CFCC0E702F0FFFE0028C4D0BBE779
:102C0000B8300020E0300020E8300020D52A020053
:102C10009529020080410600BC300020B43000201D
:102C200070B5084D2B785BB1074E00243368012145
:102C300013F8340003F00AF82B780134A342F5D8D6
:102C4000002070BDBC300020B830002000B585B039
:102C500000230390194644F2010001AAADF80430A4
:102C6000029300F003F805B05DF804FB08B50120FD
:102C70000949FFF787FD03200849FFF783FDBFF3EC
:102C80004F8F0749074BCA6802F4E0621343CB60D9
:102C9000BFF34F8F00BFFDE784410600944106005B
:102CA00000ED00E00400FA05F8B5204A204B0025AD
:102CB000C2F84051C2F84451C2F84851C2F84C51D0
:102CC000C2F80051C2F804511B6813B31949D2F875
:102CD00004250C68141B1A6824F07F44A2422F4676
:102CE00009D8197CDE69A41A154499B91EB1334676
:102CF0001A68A242F5D9104B10491A780B789A42FB
:102D00000DD00F490F4A41F823504FF48013C2F8F9
:102D10000031F8BD1F745A6998699047E6E7531C63
:102D2000DBB2022B08BF00230B70EAE70010014062
:102D3000F4300020F0300020F8300020F93000207E
:102D40000832002000E100E02DE9F04F7D4A7E4985
:102D5000137809787D48994287B0066800F0E881C9
:102D60000133DBB2022B08BF002379491370794A83
:102D70000291084652F82310036874488A19002506
:102D800022F07F420260AE462846A3B11A688A420A
:102D900000F2D681DC68C3F800E0891A1044DA69D1
:102DA00034B1871927F07F47DD619C605F601D4665
:102DB0001346002BEAD1029A04931360049C01236A
:102DC0000593654BDFF894811B7801935F4BDFF827
:102DD00090C1D3F800A0029B1F680023BB462F467A
:102DE0000093C1461E464FF0010E37B37A68B968AA
:102DF0003D46FF69CAEB020323F07F4363453CD89D
:102E00000B442B606E60AE6085F810E0EE61002C24
:102E100067D021688B4242D9204603E0116899426D
:102E200044D21046C2695B1A002AF7D12B60EA61CE
:102E30002346C5611C46002FD8D198F8003098F879
:102E400001209A4200F08E805A1C03EB430308EBEA
:102E5000C30399F802109D68D2B2914289F800200C
:102E60001A7908BF89F80070022A48D0032A3CD09A
:102E7000012A22D023461C46DDE7C2EB0A0222F0DB
:102E80007F428A4202D28B1A2B60BBE72E606E60B3
:102E9000AE6085F810E0EE611CB321680023CB1A08
:102EA00023602B46EC61AB461C46C4E7C91A11608F
:102EB0002B60EA612346C561BCE72A7C0392002AA5
:102EC000D8D1DA686A601969A9605869E860103376
:102ED0009B68AB61019B002B8CD0039B6B601A46F7
:102EE00088E72B46AB461C46A5E70CB9C2E71C4653
:102EF000E3692674002BFAD19B461C469BE754B12C
:102F0000A54200F00881234602E0954207D013460F
:102F1000DA69002AF9D123462E741C468BE7AB42AE
:102F200000F0FA80E9692868D9610029F3D02346C6
:102F30000A6802440A60009A2E749C4218BF01225B
:102F40000092EAE7F8300020F9300020F03000204D
:102F5000F430002008320020FA300020FC3000203D
:102F6000FEFF7F00029B9DF80420C3F800B0764B63
:102F7000C3F800A0754B1A70009B1BB9049BA342B9
:102F800000F0D081002C00F03C81714D6E4BD5F8E3
:102F900004051B686F4ED4F800C03178C21A22F0C5
:102FA0007F420332002952D16B4FDFF8B091DFF836
:102FB000B0814FF480314FF4003E0124C5F8441332
:102FC000C5F80413C7F880E1C7F800E02C602F2192
:102FD000D9F8005000BF00BF00BF00BF00BF00BF56
:102FE00000BF00BF45452FD000BF00BF00BF00BFDE
:102FF00000BF00BF00BF00BF00BF00BF00BF00BFD9
:1030000000BF00BF00BF00BF00BF00BF00BF00BFC8
:1030100000BF00BF00BF00BF00BF00BF00BF00BFB8
:1030200000BF00BF00BF00BF00BF00BF00BF00BFA8
:1030300000BF00BF00BF00BF00BF00BF00BF00BF98
:1030400000BF00BF00BF00BF0139C3D1347062456B
:103050002CBF9A1803EB0C023D4922F07F43C1F8C4
:103060004035D1F80425121A1B1A22F07F4223F0B2
:103070007F4303329A4248D9D1F80435374AC1F820
:103080004035126836492F2300BF00BF00BF00BF84
:1030900000BF00BF00BF00BF8A422FD000BF00BFEB
:1030A00000BF00BF00BF00BF00BF00BF00BF00BF28
:1030B00000BF00BF00BF00BF00BF00BF00BF00BF18
:1030C00000BF00BF00BF00BF00BF00BF00BF00BF08
:1030D00000BF00BF00BF00BF00BF00BF00BF00BFF8
:1030E00000BF00BF00BF00BF00BF00BF00BF00BFE8
:1030F00000BF00BF00BF00BF00BF00BF013BC3D186
:10310000154B4FF40032C3F80021104A002313700E
:1031100007B0BDE8F08F2246D4F81CB0BBF1000F19
:1031200022D0D16910685B4600297FF401AF02E725
:103130000C4B02931B680493002505951C4640E642
:10314000521A1A6037E600BFF0300020FA30002033
:10315000001001401032002000E100E008300020A3
:103160000024F400F43000207549764BC1F808E0E3
:1031700075492F20096800BF00BF00BF00BF00BF16
:1031800000BF00BF00BF99422FD000BF00BF00BFEB
:1031900000BF00BF00BF00BF00BF00BF00BF00BF37
:1031A00000BF00BF00BF00BF00BF00BF00BF00BF27
:1031B00000BF00BF00BF00BF00BF00BF00BF00BF17
:1031C00000BF00BF00BF00BF00BF00BF00BF00BF07
:1031D00000BF00BF00BF00BF00BF00BF00BF00BFF7
:1031E00000BF00BF00BF00BF00BF0138C3D1D1691D
:1031F0001068002900F09B800122DA465B460192AC
:1032000096E64F4A514B504E4E484FF480314FF4A2
:1032100000370125C3F88070C2F848132F23C2F885
:103220000813556031681E4600BF00BF00BF00BFD5
:1032300000BF00BF00BF00BF81422FD000BF00BF52
:1032400000BF00BF00BF00BF00BF00BF00BF00BF86
:1032500000BF00BF00BF00BF00BF00BF00BF00BF76
:1032600000BF00BF00BF00BF00BF00BF00BF00BF66
:1032700000BF00BF00BF00BF00BF00BF00BF00BF56
:1032800000BF00BF00BF00BF00BF00BF00BF00BF46
:1032900000BF00BF00BF00BF00BF00BF013EC3D1E1
:1032A00095602B4A146000BF00BF00BF00BF00BF85
:1032B00000BF00BF00BF81422FD000BF00BF00BFD2
:1032C00000BF00BF00BF00BF00BF00BF00BF00BF06
:1032D00000BF00BF00BF00BF00BF00BF00BF00BFF6
:1032E00000BF00BF00BF00BF00BF00BF00BF00BFE6
:1032F00000BF00BF00BF00BF00BF00BF00BF00BFD6
:1033000000BF00BF00BF00BF00BF00BF00BF00BFC5
:1033100000BF00BF00BF00BF00BF013BC3D10D4BCA
:103320001C70F2E6059B002B3FF4EFAE2AE601236A
:103330001A4601938A468B460B4600922E74ECE5A2
:10334000001001400024F4000830002000E100E0FB
:10335000F0300020103200202DE9F041594B5A4A3C
:103360005A4D5B4E4FF480344FF400310120C2F8C7
:103370008010C3F848432F21C3F8084358602D68D4
:103380000C4600BF00BF00BF00BF00BF00BF00BFB2
:1033900000BFB5422FD000BF00BF00BF00BF00BFBD
:1033A00000BF00BF00BF00BF00BF00BF00BF00BF25
:1033B00000BF00BF00BF00BF00BF00BF00BF00BF15
:1033C00000BF00BF00BF00BF00BF00BF00BF00BF05
:1033D00000BF00BF00BF00BF00BF00BF00BF00BFF5
:1033E00000BF00BF00BF00BF00BF00BF00BF00BFE5
:1033F00000BF00BF00BF013CC3D1364C9860002025
:10340000206000BF00BF00BF00BF00BF00BF00BF03
:1034100000BFB5422FD000BF00BF00BF00BF00BF3C
:1034200000BF00BF00BF00BF00BF00BF00BF00BFA4
:1034300000BF00BF00BF00BF00BF00BF00BF00BF94
:1034400000BF00BF00BF00BF00BF00BF00BF00BF84
:1034500000BF00BF00BF00BF00BF00BF00BF00BF74
:1034600000BF00BF00BF00BF00BF00BF00BF00BF64
:1034700000BF00BF00BF0139C3D1174D1749DFF8A6
:103480006080DFF860C0DFF860E028704FF48016DD
:10349000E0250B27C8F800008CF800008EF800002B
:1034A000087048708F70C2F8806182F814531660FB
:1034B000C3F8080582F81153D3F804352360BDE83A
:1034C000F08100BF0010014000E100E00830002062
:1034D0000024F400F030002010320020FC300020E6
:1034E000F4300020F8300020F9300020074B9B78A2
:1034F0000BB9082070473AB130B10368187C002836
:10350000F7D159745A61704707207047FC3000208A
:103510002DE9F043284CA37883B01BB9082003B0F1
:10352000BDE8F0830028F9D0042903D8072003B0B0
:10353000BDE8F0834369002BF0D0064602A8737CF7
:103540000025012B00F8015D0CBF8946A946904675
:103550000F4600F073F86378A07821785A1CD2B235
:10356000904208BF2A4691421FD003EB430304EB6D
:10357000C30319464FF0010E41F8086F0F4883F856
:1035800004E0D0F804654E608F609DF80700C3F832
:103590001490C3F81880627000F078F8084B4FF46C
:1035A00080122846C3F80021B9E79DF8070000F013
:1035B0006DF80420B3E700BFFC300020001001408C
:1035C00000E100E070B51B4CA37882B013B908206D
:1035D00002B070BD0028FAD04369002BF7D0064630
:1035E00002A8002500F8015D357400F027F8627824
:1035F000A0782178531CDBB2984208BF2B46994231
:1036000012D002EB420204EBC20202219DF8070035
:1036100096601171637000F039F8074B4FF4801217
:103620002846C3F80021D3E79DF8070000F02EF8E4
:103630000420CDE7FC30002000E100E0F0B4EFF31F
:10364000108472B60E4B9A68B2B90E4901259D607E
:10365000D1F880700C4D2E463D401D60C1F8806051
:10366000D1F884505D604FF0FF33C1F884300270B0
:1036700004B962B6F0BC704701230370F8E700BFDD
:103680007800012000E100E0FC06FFBD094B9A68CC
:1036900072B168B910B4EFF3108272B606491C68B3
:1036A0000C605C684C60986002B962B65DF8044BCF
:1036B000704700BF7800012000E100E0033080B2D5
:1036C00040F2FD33984201D90920704730B4124BC3
:1036D0001C783CB95D891A892A44024492B2B2F539
:1036E000806F10D31A7C0C4C12B1072030BC70478D
:1036F000658B228B2A44024492B2B2F5806FF4D2D9
:103700000124224600E0224603EB02130C805A8972
:10371000104458810020E9E764320020F0B5436886
:103720004BB1304A1468A34205D35268934202D881
:1037300013F0030234D00023DFF8B0E00B804FF029
:10374000010C4FF6FF75DEF80470002307F5805476
:10375000C3B15A88033203EB8203A34216D21A681C
:10376000013213D09A881E88AA42F2D0002EF0D0DF
:103770009E6802689642EBD11B4A4360138903811D
:103780000120F0BD07F10803A342E8D3BCF1020F0A
:10379000A1F800C00EF1100E21D04FF0020CD2E7BC
:1037A000114C05892489A542C5D105689C68A542AC
:1037B000C1D10E4C6068834205D900F58050834228
:1037C00001D2134608E06269934208D902F580529B
:1037D000934238BF012302D20B800120F0BD0020AC
:1037E000F0BD00BF68300020843200206432002029
:1037F0002DE9F04FB04C256FEF007E1BB6008FB067
:10380000A35D5A1E824604EB060BA046052A00F271
:10381000FE80DFE802F05230301D1D0300285AD12F
:10382000DFF8B09299F80C30002B00F0678399F81C
:10383000003089F80C00013B062B00F2E780DFE83E
:1038400013F01C03AF0292016E01E5009D02F1022C
:10385000002841D1C5EB070904EB890999F8042038
:10386000012A00F0B783C0F09F83022A40F0CF8086
:1038700000220A9238E07A1B04EB820202F108016E
:103880008E48B1F80A90039000EB0919BAF1000FC5
:1038900040F0AC80B9F80800D9F80420097A02EBAE
:1038A0008002062900F2A383DFE811F07401CD0144
:1038B000AD011D020302ED01AA01002840F08E8037
:1038C0009BF80430032B00F25884DFE813F01B014F
:1038D0000701E400B2000623012018F806200A9030
:1038E000023A012A40F29B80013B052B07D8DFE812
:1038F00003F02D664F3E310305238DF82430704DC3
:1039000005F1200655F8043F0BB109A89847B542C8
:10391000F8D1206F684DC0EBC00004EB800000219F
:103920001C22FEF70FFD636F43B12A6F0132013B8A
:1039300002F003026B672A67002B6AD1614A137891
:1039400023F0040313700FB0BDE8F08F00238DF84F
:103950002430D4E77B1B04EB83030422DB88ADF81F
:10396000303000238DF82420ADF83230C7E77B1BC0
:1039700004EB83031A46DB8832F8081FADF83030B9
:1039800053680B930323ADF832108DF82430B6E75B
:103990007B1B04EB83031A7C1889DD6899880B95DF
:1039A000A2F106030222B3FA83F35B098DF83430E7
:1039B000ADF83000ADF832108DF824209FE77B1B66
:1039C00004EB8303012218899988DB68ADF8300085
:1039D000ADF832100B938DF8242090E739490A781E
:1039E000012322F001020A70184676E7D088B9F860
:1039F0000A20B9F8081000F1030E121A7144033AB4
:103A0000A9F80810A9F80A20012066E706230F206C
:103A100063E70020FFF7ECFE0FB0BDE8F08F2A4A05
:103A20009BF81660106C516C3044891B1064516413
:103A30005AE7DFF8A490254AD9F8001024484FF03F
:103A4000000A0223CDF800A001F07AFB214BDFF839
:103A50006CC05B88D9F80010B9F804E08BF804A0BA
:103A60001B010CEB03020CF803A05368C9F80030EB
:103A700002235160A2F808E0A9F8043000283FF4BE
:103A800062AF7B1B14F823300E490A7822F0010242
:103A90000A700E2021E7DFF840900D48D9F8001099
:103AA0000122002301F096FB02220023A9F8042042
:103AB0008BF80430E2E700BF94320020643200202B
:103AC0002C3300202C33002014320020BC4106008F
:103AD000683000208432002018330020C54B039347
:103AE00019461B78022B00F045830B7C022B00F05B
:103AF0002D83C14A137843F0020323F001031370AE
:103B00000123B5E6BD4BBE481968BE4A00230093A9
:103B1000022301F015FB01238BF80430AEE7B9F85E
:103B20000220B44BDFF8F49203EB02129389002BCE
:103B300000F0BF82DFF8C4E2B148DEF800104FF0B9
:103B4000020A4FF0050C01220023AEF804A089F808
:103B500000C001F03FFB00283FF4F5AE1C2303FB3F
:103B600005F3E35CB9E6D9F80420A4495388B1F819
:103B700004C00968A2484FF0000ECDF800E00333FE
:103B80004FF0030E9BB201EB8C0189F800E001F0CD
:103B9000D7FAE0E7C5EB070A4FEA8A0A04EB0A0CFA
:103BA0000023114600930CF1040201239448CDF840
:103BB0000CC001F0C5FADDF80CC002238CF81030FF
:103BC00000283FF4C0AE904B13F80A300E20791B4A
:103BD00004EB8101B9F80A20B1F806E0B9F8081041
:103BE0000EF1030CCEEB020241F61D5E6144033A76
:103BF0007045A9F80810A9F80A203FF439AE6CE620
:103C000041F61D50E3E7C5EB070A4FEA8A0A04EBC9
:103C10000A00002302F10801009300F10C020123C5
:103C2000774801F08DFA04EB0A0377499A7D002A60
:103C300014BF032201221A7400283FF484AE11F845
:103C40000A300E20C3E77B1B4FEA830C04EB0C0AFF
:103C50000AF1080A0023111D009352460123684807
:103C6000CDF80CC001F06CFADDF80CC014F80C3083
:103C7000032B0CBF052206228AF8082000283FF4F7
:103C800062AE0E20A3E7614B614AB3F800A0516811
:103C90005B48604A00230093012301F051FA002899
:103CA00000F01D827B1B9B00E2180621E35C11746F
:103CB000E7E77B1B4FEA830A04EB0A01544B886950
:103CC00018604FF0000E514903921846C3F804E003
:103CD000FFF724FD039A00287FF45CAF4A4B0A20CB
:103CE00013F80A30F9E5DFF838E1DEF844300393E1
:103CF000002B00F07A81DEF8401041485EF8311068
:103D000006917B1BDEF8401004EB830303F1100ADD
:103D1000013104910399BAF804C005930139DEF822
:103D20004030CEF8441002EB8C01049A0EEBC30332
:103D300002F0070CCEF840C04FF0000E0793069A31
:103D40009B88CDF800E001F0FBF9079A9AF806305D
:103D50009188BAF80420013B0A44DBB2AAF8042097
:103D60008AF8063013B9059A0123137400283FF42A
:103D7000EAAD7B1B0E2014F8233028E7B9F8023097
:103D80001C4A03921B011A44002351680093062326
:103D900089F80030204A1A48022301F0D1F9DAE606
:103DA000D9F80430B9F802E0002B00F0BF81114AC5
:103DB000039211464FEA0E1E5A8871440332496835
:103DC00003EB820201F58050824280F08980136803
:103DD000013318BF4FF6FF7C00F082809388B2F861
:103DE00000A0634572D0BAF1000F6FD0C9F804206B
:103DF000BBE600BF643200202C33002018330020C3
:103E000068300020B44106009432002014330020B2
:103E100020330020B0410600BC410600843200205F
:103E200014320020B94BBA4A1968BA484FF0000E54
:103E30004FF0070CCDF800E00223C9F804E089F840
:103E400000C001F07DF986E6B34BB9F808101A7886
:103E50001B7CB2FA82F2B3FA83F352095B09013197
:103E60004FF0000E012089F80A2089F80B30A9F8DC
:103E7000081089F80CE089F8000099F80A30A74A80
:103E800053B1A54B03939B890021917223B9A24A98
:103E9000927B002A40F0AF8199F80B309F4A53B1D2
:103EA0009D4B03939B8B0021D17223B99A4B9B7F2F
:103EB000002B40F064817B1B002214F8233089F82A
:103EC0000020A9F80220C9F80420D1E45388033364
:103ED00002EB8302824203D2136801337FF47EAF88
:103EE000039B73449B89002B7FF424AE89480122F5
:103EF00001F070F9042389F800302CE699F80030BD
:103F0000072B3BD801A252F823F000BF493E020024
:103F10007D3F02007D3F0200613F0200353F02000D
:103F2000253E0200253E02002D3F0200012389F8B4
:103F30000030A2E7784AB9F80230039211461B011B
:103F4000724A19441068B2F804E0D1F804C048601D
:103F50000220C2F800C09080A1F808E0039A12E79E
:103F60006A48D9F8043081885A88B9F802E01144C7
:103F700003310222818089F8002018E7013B062BDB
:103F80003FF644AD01A252F823F000BF7B3E020091
:103F9000A13D0200673B02001F3B02000D3A0200F8
:103FA0007D3D0200253E02000EA8D9F80C3040F8F5
:103FB000143D0DF12201CDF828A0CDF82CA0FFF77B
:103FC000ADFB002877D10A207B1B04EB8303022280
:103FD0001A71C0E5524B1B789B070AD40146082290
:103FE0005048FEF7AFF90220B8E51B68FFDE0F204E
:103FF000EDE5DFF830E1BEF804300493012B19D869
:10400000454B0690059503934FF6FF704D46049B74
:1040100003994FEA031A01EB0A0211F80A3093B12F
:10402000049B01339BB20122022BAEF804300492B0
:10403000EDD1059D3B4800210822FEF783F97B1B4B
:1040400014F8233014E45368DEF80090079303F566
:104050008052B9F1000F4ED0B9F80210033109EBCC
:104060008101914221D20B6801331ED08B88B1F8B7
:1040700000C0834214D0BCF1000F11D0B5F806C0C7
:10408000CEF800109C458946E3D1002300932148D7
:10409000254A059D012301F053F880B30E205DE50C
:1040A0004B88033301EB8301DBE7069BCEF800303E
:1040B000B6E751681AE70A9916488B88A9F80630BE
:1040C000B1F800E0184ACDF800A00123A9F808E0F3
:1040D000BDF8229001F034F888B30E2074E7039BFA
:1040E0007D1B03EB0A1A04EB8504062201232274CC
:1040F0008AF80E3027E4079B03F10801B1E7039B20
:1041000053449A4601238AF80E301CE418330020E9
:10411000B441060068300020643200208432002060
:104120002C3300200C330020B0410600334B0393A6
:104130004FEA0E1E7344596801F1080242E62F4B04
:1041400003EB0913012250469A733DE74FF0010932
:10415000039B2B482B4A4FEA09194B444FF0000AA6
:104160005968CDF800A0022300F0EAFF039B03F892
:1041700009A083E44FF00009EAE7012384E4012366
:104180001946D9F80420A9F802306AB3039B03EB5F
:10419000011153884968033302EB830201F5805013
:1041A000824218D21368013318BF4FF6FF7E03D145
:1041B00011E0136801330ED09388B2F800C0734544
:1041C00003D0BCF1000F7FF411AE5388033302EB30
:1041D00083029042EDD800230948012200F0FAFF43
:1041E000042389F80030B6E4039B03EB011149680E
:1041F00001F10802D2E71946C3E700BF643200208C
:1042000068300020BC4106000846FFF7F1BA00BF45
:10421000074A1378082B09D010B4591C054C1170AB
:1042200044F8230000205DF8044B70470C207047D1
:1042300060320020303300202DE9F04FB04F8DB0B8
:104240003A7800230793089309930A930B939307F3
:104250000DD5AC4C04F1200554F8043F07A803B178
:104260009847AC42F8D100200DB0BDE8F08F12F0B5
:104270000104F8D142F001023A7000F005FFA24BB0
:10428000A24A1B681668039403F53F513C3103F1C1
:10429000080C03F580500194A6460291043B4FF6AA
:1042A000FF745A689A498A4203F1040557D003F50E
:1042B000805102E0994200F0008153F8042F01324E
:1042C000F8D04FEA0E13934D03220EF1010EEA547B
:1042D0001FFA8EFE029A91420CF5805C00F5805028
:1042E0000B46DED1894A9DF8043016600B2B0FD89F
:1042F000DFE813F0C500DE00C500DE000E00DB00C5
:10430000CA00DB000E000C00C7000C00032304935E
:10431000814A516F032912D8804B5B6C082B0ED851
:10432000136F0B4403F00303C3EBC3039B00D018CC
:104330000124D45401319DF81030037151673B784A
:104340006F4903F0040202F0FF04002A8BD143F00E
:10435000040320460B70FFF74BFA204684E79A6867
:104360006F498A424DD001318A42A0D1039A002A76
:1043700000F0A180674A4FEA0E1102EB0108694A7A
:1043800012680592634A4FF0020902F801900EF19B
:10439000010E059A6349C8F804201FFA8EFEA8F89A
:1043A00008904FF002080D60A1F80480DA6801322D
:1043B000654604D1BAE02A68B2F1FF3F16D0AA8858
:1043C000B5F80090A24206D0B9F1000F03D0AA6858
:1043D000964238BF16466A880332904405EB820540
:1043E0001FFA88F8A842A1F80480E4D8B8F1020FB7
:1043F0000CBF0422082201991143019103F5805159
:1044000068E7444A4FEA0E1802EB08094FF0000A29
:1044100002F808A00221C9F80450A9F80810DD68C4
:104420000135624611D11BE09568AE4238BF2E4679
:1044300055880335294402EB850289B29042A9F8D8
:1044400008100DD9156801350AD09588B2F800B06A
:10445000A54202D0BBF1000FE6D14FF0010AE7E719
:104460002C4A9044019A88F80EA00EF1010E42F0F9
:1044700002021FFA8EFE019203F580512AE70B20FB
:10448000F2E60223049343E73B781E4C43F0020319
:1044900023F001033B7004F1200554F8043F07A802
:1044A00003B19847AC42F8D1DDE6012304932FE72E
:1044B000002304932CE71B4973E71A4B1B68C3B115
:1044C000144ADFF864904FEA0E1302EB030802224D
:1044D000C8F804500F4DA8F80820EA540EF101085E
:1044E000A9F802E01FFA88FE019B43F00103019343
:1044F000F0E60C4A02239380012315600393F3E74F
:104500002C3300202C330020683000205C32002047
:10451000DEC0ADDE64320020943200201432002070
:10452000FE011EF11833002084320020042262E7CD
:1045300060B159B130B583B00C460DF106010546A6
:10454000FFF7ECF820B90A2003B030BD0520704712
:10455000BDF80620074B686803EB021301219A8916
:104560000A449A8120606B6800200C336360A97252
:1045700003B030BD64320020D0B110B582B00DF16F
:1045800006010446FFF7CAF810B90A2002B010BDB0
:10459000BDF80620094B03EB021308339A884AB191
:1045A000A17A39B10021013A9A800846A172EDE75B
:1045B00005207047062002B010BD00BF6432002005
:1045C0001D4B1B789B0702D402231846704740B14D
:1045D000CB1C9BB240F2FD32934205D90923184609
:1045E000704705231846704770B4144A167886B988
:1045F000558914892C441C44A4B2B4F5806F08D2A8
:10460000344602EB04122B44538100230680418080
:104610000EE0157C094C55B9658B248B2C441C4449
:10462000A4B2B4F5806F02D201263446E9E707232D
:10463000184670BC704700BF2C3300206432002045
:10464000144B1B789B0702D4022318467047E8B12D
:104650000388022B02D904231846704710B40E4A6F
:10466000448802EB03136FF002015A89091BCA4206
:1046700003F108030CD4033A0021121B5A800B46A5
:104680000180418018465DF8044B70470523DCE744
:104690000423F7E72C330020643200207C4A13788F
:1046A00013F0020F01D10220704771B12DE9F04FD4
:1046B0000D8804464FF6FF70854287B001D04888C8
:1046C00028B9042007B0BDE8F08F0520704708899D
:1046D0004E68F8B1356815F0030504D018E056F8B7
:1046E0003570BF0714D10135A842F8D1354606EB25
:1046F000C0060020AF8808353844B54280B2F9D1F1
:10470000C51CADB240F2FD36B54204D90920D9E747
:104710000320D7E70325DFF888E19EF800C0BCF14D
:10472000000F0AD1BEF80A70BEF808603E442E445D
:10473000B6B2B6F5806FC0F0A6809EF81060DFF8C4
:1047400060C14EB9BCF81A70BCF818603E442E44E3
:10475000B6B2B6F5806F01D30720B3E70126029603
:10476000B0464FEA08183D440EEB080CADB2ACF869
:104770000A500E880F89DFF82C910496D1F804C0F6
:104780004E884449D9F874A009680596414E013114
:104790005FFA87FBBAF1030FCDF80CB001913160DD
:1047A00060D83D4ED6F844B0C7F108018B4559D8C2
:1047B000D9F87010BDF81480514401F00301C1EB29
:1047C000C101890009EB010E022509F80150AEF87C
:1047D00006000198CEF80C00BDF80800AEF8048081
:1047E0000025AEF812000AF1010A0321BDF810807D
:1047F0009DF80C00AEF808808EF81600AEF8141084
:10480000AEF80A508EF81050C9F874A0D7B1316CC8
:104810000BEB010E0EF0070E06EBCE0E06F138097B
:104820000CEBC50103C901350EF108088EE8030041
:10483000CE4514BFC646B646AF421749F0D1486CC4
:10484000384448643CB100211448019D25606160F2
:104850000089A172208103F0040101F0FF0451B12D
:1048600000202FE7C0F57F40FD30C6442844AEF855
:104870000A00082026E743F0040320461370FEF7E1
:10488000B7FF20461EE7CDF808C0E04669E700BF45
:104890002C3300205C3200201432002084320020AF
:1048A000643200209432002052B12DE9F04F5B4D6C
:1048B0002C78A60785B005D4022005B0BDE8F08F9E
:1048C00005207047002900F09280064608884FF6C0
:1048D000FF73984204D0B1F802C0BCF1000F03D1BD
:1048E000042005B0BDE8F08F0F89D1F804E067B16E
:1048F000DEF8003013F0030304D07AE05EF83310E2
:10490000890776D101339F42F8D1DFF824914449D9
:10491000D9F80030D1F87480B2F800A0B2F802B033
:104920000133B8F1030FC9F8003064D8DFF8F49010
:10493000D9F844200292C7F108018A425BD8384A6C
:104940003749126F424402F00302C2EBC2029200E6
:104950005118019108F101081146314ACDF80C8037
:104960004FF0020802F80180019A039910814FF07C
:1049700000084FF00300A2F804C0A2F806B0D3600C
:10498000A2F812A097759082A2F80A8082F810808F
:10499000234A5167E7B1D9F840200299114401F048
:1049A000070209EBC20209F1380A0EEBC80103C97C
:1049B00008F1010802F1080C82E80300524514BF17
:1049C00062464A4647451749EFD14A6C3A444A6421
:1049D00036B100221449336072600B89B2723381A0
:1049E00004F0040303F0FF0683B1002065E705200F
:1049F00063E7032061E70D4B03EB0A1308205A8994
:104A0000033ACBEB020BA3F80AB056E7304644F06A
:104A100004042C70FEF7ECFE30464EE72C330020E9
:104A200094320020143200208432002064320020AE
:104A30005C32002050B12DE9F04F694E3578AF0758
:104A400089B005D4022009B0BDE8F08F0520704779
:104A5000002900F0B8800A884FF6FF739A4201D00F
:104A60004B881BB9042009B0BDE8F08F0F894A6854
:104A7000B7B1136813F0030305D0A6E052F8334032
:104A8000A40740F0A28001339F42F7D1134602EB06
:104A9000C70200279C88083327449342BFB2F9D14C
:104AA0000446894638460DF11E01FEF707FE002830
:104AB000C9D14C49DFF83CC10B680193B9F8023009
:104AC000B9F80820DCF874800493019B0292B9F8CD
:104AD00000200392D9F804E02268BDF81EA00592D8
:104AE00003F10109B8F1030FC1F800906FD83E4AF5
:104AF000029B516C0191C3F10803994267D8DCF81D
:104B00007010414401F00301C1EBC10189000CEBBD
:104B1000010B08F101034FF003080CF80180ABF81A
:104B20000670BDF80C70BDF81010ABF80870029F4D
:104B3000ABF80410ABF814800599ABF80A004FF0FD
:104B40000408CBF80C90ABF812A08BF81670CBF8D9
:104B500018108BF81080CCF874303B46E7B1116C1C
:104B6000019F0F4407F00707844602EBC70702F1D5
:104B7000380A0EEBCC0103C90CF1010C07F108084F
:104B800087E80300574514BF474617466345164953
:104B9000EFD14A6C13444B640020144BC4F80090CE
:104BA00060601A89A07205F00403228103F0FF04FB
:104BB000002B7FF448AF204645F004053570FEF722
:104BC00017FE20463FE705203DE703203BE7084B63
:104BD00003EB0A1308205A89033AD71B5F8132E797
:104BE0002C3300205C32002014320020843200205C
:104BF0006432002094320020F8B51C4A13789907DB
:104C000001D40220F8BD4FF6FF71884201D1042083
:104C1000F8BD174D6C6F032C1ED81649496C082936
:104C20001AD8296F214401F00301C1EBC1018900A9
:104C30006F18661C4FF0050C03F0040405F801C062
:104C40004FF0010E2146F88087F804E004F0FF04DD
:104C50006E6719B10020F8BD0820F8BD43F00403C9
:104C600020461370FEF7C4FD2046F8BD2C3300200B
:104C70009432002014320020F8B5174A13789907AF
:104C800001D40220F8BD154C616F03291AD81448CD
:104C9000406C082816D8206F124D084400F003001D
:104CA000C0EBC0002E780131062704F82070616740
:104CB0000EB10121297303F0040101F0FF0419B1C1
:104CC0000020F8BD0820F8BD43F00403204613700F
:104CD000FEF78EFD2046F8BD2C33002094320020D4
:104CE00014320020843200202DE9F047304C247823
:104CF000A40702D40220BDE8F0879446002A3DD0E4
:104D0000002B3BD0B3F80480B8F1010F48D8DFF88E
:104D1000A8908A464FF6FF7700224FEA081409EB65
:104D2000040E19F80440002C32D11C68002C3AD033
:104D30006588DEF80460033504EB850406F58056CB
:104D4000B44224D22568013521D0A5882188BD42EE
:104D500017D0B1B11C60A5888542E7D1258855459B
:104D6000E4D1A268CCF800201A68124BCCF80420D9
:104D70001B89ACF808300020BDE8F0870520BDE8AD
:104D8000F0876588033504EB8504B442DAD31A60F2
:104D900008F10104A4B2022C9C804FF00108BCD1A0
:104DA0000A20BDE8F087DEF8046006F10804C5E7D4
:104DB0002C3300208432002064320020304B1B78DA
:104DC0009B0701D40220704700293ED0002A3CD026
:104DD0002DE9F047B2F804E0BEF1010F48D8DFF842
:104DE000A8C04FF6FF764FF000084FEA0E130CEB09
:104DF00003071CF80330002B31D1D2F80090BA46DB
:104E0000B9F1000F37D0B9F80230DAF804500333A3
:104E100009EB830305F580559D421ED91C680134BA
:104E20001BD09C881F88B44211D087B113601C88A6
:104E300084429946E4D19B680B601268114B4A602A
:104E40001B890B810020BDE8F087052070475C8836
:104E5000033403EB84039D42E0D8C2F800800EF1D6
:104E6000010E1FFA8EF3022B93804FF0010EBCD17E
:104E70000A20BDE8F087DAF8045005F10803C9E715
:104E80002C3300208432002064320020304B1B7809
:104E90009B0701D40220704700293ED0002A3CD055
:104EA0002DE9F047B2F804E0BEF1010F48D8DFF871
:104EB000A8C04FF6FF764FF000084FEA0E130CEB38
:104EC00003071CF80330002B31D1D2F80090BA460A
:104ED000B9F1000F37D0B9F80230DAF804500333D3
:104EE00009EB830305F580559D421ED91C680134EA
:104EF0001BD09C881F88B44211D087B113609C8856
:104F000084429946E4D19B680B601268114B4A6059
:104F10001B890B810020BDE8F087052070475C8865
:104F2000033403EB84039D42E0D8C2F800800EF105
:104F3000010E1FFA8EF3022B93804FF0010EBCD1AD
:104F40000A20BDE8F087DAF8045005F10803C9E744
:104F50002C330020843200206432002020B119B1AB
:104F600003680B60002070470520704729DF7047F9
:104F700028DF704770B50C4D696E042911D02B6E77
:104F80000B44032B88BF043B182202FB0354064644
:104F90004B1C204600216B66FDF7D4F934600120DC
:104FA00070BD002070BD00BF54330020F0B5344BFD
:104FB0001D7815F0060F85B060D1324A1C46516E3F
:104FC000176E45F0020316462370002956D01823A9
:104FD00003FB07231A7A012A05D0022A21D19889D6
:104FE000FFF7C6FF14E0D98A9A8A182303FB0763E8
:104FF000083398685B68521AB2F5806F4FEA8101F6
:105000000844B4BF92B24FF480621944FFF7AEFF78
:10501000112805D125F0020545F0040525702DE085
:1050200060B3002110226846FDF78CF9182303FBBA
:10503000076303F108011A7A012A0CD0022A12D15F
:105040008B88CA88ADF80A309B1A0122ADF8083067
:105050008DF8002007E09A8A896802910023ADF854
:105060000C208DF80030182303FB07F7F219F359D1
:105070005268019268469B680921984705B0F0BDC7
:1050800050330020543300202DE9F0434FF010231B
:105090005D696B1C49D0DFF8A48098F800C01CF053
:1050A000010F3FD1DFF890E02248CEEB000000096D
:1050B00034D00EEB0011734607461A6812B15A68D5
:1050C00002B1013F10338B42F7D13FB300260022DB
:1050D000194B9146F4B206E0596839B10132824267
:1050E00003F110030ED019680029F5D1597B494509
:1050F00088BFD4B202F1010288BF8946824203F11F
:105100001003F0D124010EEB040301361A7B5D601D
:10511000BE42A5EB02354EF80450D8D14CF0010C3C
:1051200088F800C00020BDE8F0834FF080535D692F
:105130002D03B0E778300020683000205033002085
:1051400030B5214C2578EC0787B012D5044610B154
:105150001E48844202D2022007B030BD1C4884425F
:10516000F9D24AB141B142EA0100800706D00620D7
:10517000F2E7012007B030BD0320EDE7206881424F
:1051800001D20520E8E7656801EB83008542F8D38A
:105190000BB90420E0E705A8039302920191FFF701
:1051A000E9FE01A90EC908B90720D5E7059D2C60C5
:1051B00005980A9C6C600124C260016183820472BC
:1051C000FFF7F4FE0020C7E75033002068300020CE
:1051D0007830002030B5204C2578EC0787B010D50A
:1051E000044610B11D48844202D2022007B030BDEF
:1051F0001B488442F9D261B1C1F30B0020B10620F3
:10520000F4E7012007B030BD2068814203D20520B9
:10521000ECE70320EAE7656801EB02308542F6D34C
:105220000AB90420E2E705A8039302920191FFF76F
:10523000A1FE01A90EC908B90720D7E7059D2C607A
:1052400005986B60090B0223818102820372FFF7CC
:10525000ADFE0020CAE700BF5033002068300020B8
:105260007830002020B1034B5B6E03600020704754
:1052700003207047543300202DE9F04FAB4FAC4C66
:105280003B78256E990785B05BD5022865D0032849
:1052900040F08480DFF89CE29EF800300133DBB2FE
:1052A000032B8EF8003079D94FF0000841461022C8
:1052B00068466E008EF80080FDF744F8731904EB21
:1052C000C303E9461A7A012A03F1080100F0D780E6
:1052D000022A09D18B88CA88ADF80A309B1A0122AC
:1052E000ADF808308DF800203544ED00621963599F
:1052F000526801929B68484608219847636E013BBB
:1053000063661BB93A7822F002023A70256E884A29
:105310000135042D08BF002515667BB16E00731999
:1053200004EBC3031A7A012A3CD0022A5AD1988985
:10533000FFF71EFE11284CD0002853D105B0BDE860
:10534000F08F5A072AD5626E03F0FB033B70002AE8
:10535000F4D043F002033B70E0E76E0006EB050873
:1053600004EBC808734A98F808304FF0000B012B83
:1053700008F1080A82F800B064D0022B0ED1BAF806
:105380000630BAF80420BAF8081001339BB2013293
:105390009942AAF80630AAF8042078D0636E002B50
:1053A000BCD1CBE7D98A9A8A731904EBC3030833BB
:1053B00098685B68521AB2F5806F4FEA8101B4BFFA
:1053C00092B24FF4806208441944FFF7CFFD1128D0
:1053D000B2D13B7823F0020343F004033B7005B0E5
:1053E000BDE8F08F002110226846FCF7ABFF73196F
:1053F00004EBC303E9461A7A012A03F1080118D025
:10540000022A09D18B88CA88ADF80A309B1A01227A
:10541000ADF808308DF800203544ED00621963596D
:105420005268019248469B680921984705B0BDE83B
:10543000F08F9A8A896802910023ADF80C208DF8CC
:105440000030E9E7B8F81410B8F81630CA1AB2F507
:10545000806FB4BF92B24FF4806206EB050804EB94
:10546000C80813449BB208F1100A9942AAF8063002
:105470002F4A2ED0536E002B7FF450AF5EE78A6820
:105480009B8A0292ADF80C308DF800802CE76846BC
:1054900059461022FCF756FF98F80830012BE946D0
:1054A00030D0022B0BD1BAF80430BAF80620ADF890
:1054B0000A309B1A0122ADF808308DF800203544DF
:1054C000EB00E218E3585268019248469B680021BD
:1054D00013E7102268460021FCF734FF98F80820F3
:1054E000012AE94608F1080316D0022AE7D19A8872
:1054F000DB88ADF80A20D21A0123ADF808208DF818
:105500000030DCE7DAF80820B8F814300292ADF881
:105510000C308DF800B0D2E79B68BAF804200293F3
:105520000023ADF80C208DF80030C8E75033002080
:1055300054330020BC33002010B40023012401E0C8
:10554000202B0AD004FA03F2024299B203F10103BC
:10555000F6D008465DF8044B70474FF6FF705DF8D3
:10556000044B704790B189B130B40238002402E096
:105570000134202C09D030F8025F9542F8D133B1C4
:105580000A680123A34013430B6030BC70470B68CB
:105590000122A24023EA02030B6030BCF6E700BF01
:1055A00070B49DF80C60B8B1B1B1AAB10238002452
:1055B00002E00134202C0FD030F8025F9D42F8D178
:1055C0000120A04001EB820246B9C0430B680340B2
:1055D00041F8043B9142F9D170BC70470B6803431A
:1055E00041F8043B9142F7D00B68034341F8043B78
:1055F0009142F3D1F0E700BF98B110B40238002314
:1056000002E00133202B0DD030F8024F9442F8D144
:10561000012202FA03F30B4214BF104600205DF88A
:10562000044B70470020FAE7F0B491B100252B46F7
:10563000012606FA03F4144205D000EB450431F8C4
:105640001370A78001350133202BF2D10560F0BC27
:1056500070470D460560F0BC704700BF3FDF7047E4
:1056600040DF704741DF704710B50E4C23780BB117
:10567000852010BD0C4A6360E3601068A36010F0E1
:105680000100236102D1072100F08EF90AF0D2F95E
:1056900020B94FF080430122C3F81825012323705D
:1056A000002010BDC033002000E100E030B5224DE5
:1056B000AB7883B0044603F0FF0293B110B14368A6
:1056C0000120984702A8002300F8043DFDF7B6FF2B
:1056D000EB689DF804000133EB60FDF7D7FF03B0E2
:1056E00030BD02A800F8052DFDF7A8FF64B12A69B6
:1056F00042B1944208D0134601E09C4204D01B689A
:10570000002BFAD122602C61EB6863B90B4A0C497B
:105710001360136801934FF0804202200123019C23
:10572000C2F804030B60EB689DF803000133EB60E3
:10573000FDF7ACFF03B030BDC033002004010040D2
:105740000800004008B50AF075F928B94FF0804309
:10575000D3F81804C0F3004008BD00BF30B5254D94
:105760006B7883B0044603F0FF0293B110B1436835
:105770000020984702A8002300F8043DFDF75EFFD3
:105780006B689DF8040001336B60FDF77FFF03B089
:1057900030BD02A800F8052DFDF750FF64B1AA68DE
:1057A00042B1944208D0134601E09C4204D01B68E9
:1057B000002BFAD12260AC606B6843B16B689DF836
:1057C000030001336B60FDF761FF03B030BD0AF0E9
:1057D00031F958B9084B18601B6801934FF08043AA
:1057E00001220199C3F804231A60E7E7FFF736FFA7
:1057F000E4E700BFC03300200001004010B582B0D4
:1058000002A80023144C00F8013DFDF717FF636860
:10581000013B636063682BB19DF80700FDF736FF1D
:1058200002B010BD0AF006F998B90C4B01221A60BB
:105830004FF08042D2F80C3403F00113B3F1011F92
:10584000F8D000239DF807006370FDF71FFF02B03A
:1058500010BDFFF705FFDFE7C03300200400004064
:1058600000B583B00AF0E6F868B94FF08043D3F88A
:105870000C0400F00110A0F10110B0FA80F0400912
:1058800003B05DF804FB01A8FFF7ECFE01980030BF
:1058900018BF012003B05DF804FB00BF10B51D4B1D
:1058A0001A6882B0F2B91C4B1A680AB902B010BD6E
:1058B00000221A601B6801934FF080430222174CAC
:1058C0000199C3F8082323690122A270002BEDD0AF
:1058D0001A6822615B68012098472369002BF7D181
:1058E00002B010BD00221A601B6800934FF0804385
:1058F00001220A4C0099C3F80823A3686270002BA8
:10590000D1D01A68A2605B6800209847A368002B7A
:10591000F7D1C8E70001004004010040C033002077
:1059200000B1704710B5064CA3683BB11A68A2607D
:105930005B6800209847A368002BF7D110BD00BF1B
:10594000C033002010B582B002A80023144C00F828
:10595000013DFDF773FE237893B9124A6360E3605B
:105960001068A36010F00100236114D00AF062F8FF
:1059700020B94FF080430122C3F81825012323707A
:10598000E3689DF8070001330122E360A270FDF790
:105990007DFE02B010BD072100F006F8E6E700BF6B
:1059A000C033002000E100E0002810B418DB00F153
:1059B000604303F561434901C9B283F80013C3B2E0
:1059C0004009800000F1604000F5614003F01F02D3
:1059D00001239340C0F8803103605DF8044B7047A9
:1059E000C3B2044A03F00F0449012244C9B211763C
:1059F000E6E700BFFCEC00E030B51F4C94F86450C3
:105A000083B015B1082003B030BD4FF0FF33FF2243
:105A10000620072123636363A363E3632364636452
:105A2000A364E36423656365A365E3652360636042
:105A3000A360E36023616361A361E361236284F88F
:105A400060306362A36284F86230E36284F863309A
:105A500084F86120FFF7A8FF084B094A1D601B6806
:105A6000019301984FF000430121284684F8641007
:105A7000C2F8043303B030BDD43300207C61004051
:105A800000600040034B93F86400003018BF012011
:105A9000704700BFD4330020F0B56A4C251895F943
:105AA0003030002B01DB0820F0BD91F803E0944674
:105AB000BEF1000F56D02368013300F0BB800826EA
:105AC00000256B1C5F4F54F82320013251D0AB1CD2
:105AD0009E4245D957F8232001324AD0EB1C9E4202
:105AE0003ED957F82320013243D02B1D9E4237D98F
:105AF00057F8232001323CD06B1D9E4230D957F815
:105B00002370013735D0AB1D9E4229D954F823208C
:105B10004C4F01322DD0EB1D9E4221D957F8232046
:105B2000013226D005F108039E4219D957F82320E7
:105B300001321ED005F109039E4211D957F82320E6
:105B4000013216D005F10A039E4209D957F8237095
:105B500001370ED00B35AE4202D9E36A013307D0CC
:105B60000420F0BD236A01335CD00C260825A8E789
:105B70000B232618DDB244F823C0324686F8305095
:105B8000BEF1000F02D1234483F858008B78DBB9B3
:105B90001F284A7887BF2C4E00F01F0303464FF0A2
:105BA000A04603F5E073920046F82320CB78E3B9D2
:105BB0006AB2083A1444097894F8602042EA8112E3
:105BC00084F860201846F0BD1F2887BF1E4B00F0E8
:105BD0001F0202464FF0A04303EB8203D3F80027D5
:105BE00022F00202C3F80027E0E76BB29B0003F14A
:105BF000804303F5C0430A78D3F8101521F44F31E0
:105C000021F44071C3F810151204000202F440316F
:105C1000D3F8104500F47C520A432243C3F8102500
:105C20000020F0BD082685F830603346C4F820C057
:105C30003546A8E7002385F83030C4F800C01D467B
:105C4000A4E700BFD433002000030050F0B43A4D65
:105C50002E1882B096F8302053B2072B20DD2B444B
:105C600093F858309B09032B44D0012B0CBF4FF401
:105C700000324FF440321F2849D900F01F002F4B4B
:105C800003EB8000D0F8003723F44033C0F800372E
:105C9000D0F800371A43C0F8002702B0F0BC7047B4
:105CA000072AFAD8980000F1804000F5C04003F1BF
:105CB00040029200D0F8104592B202F180420027D3
:105CC00044F0010402F5C042C0F810450197019864
:105CD00017600029E1D096F9302055F82220002ADB
:105CE000DBD00122164902FA03F3C1F8043302B0F3
:105CF000F0BC70471F280DD9104BD3F8103500F0B9
:105D00001F00C340DB0713D54FF44032B7E74FF015
:105D1000A043B5E74FF0A0421346D2F81025C24089
:105D200012F0010F0CBF4FF400324FF44032A7E7DE
:105D30004FF40032A3E700BFD4330020000300502B
:105D4000006000401F288ABF054B4FF0A04300F0C1
:105D50001F00D3F8103523FA00F000F0010070475F
:105D6000000300502DE9F04F89B00025B24B029599
:105D700003951A68012A00F05081B04B1A68012A75
:105D800000F03D81AE4B1A68012A00F02A81AD4B2C
:105D90001A68012A00F01781AB4B1A68012A00F03B
:105DA0000481AA4B1A68012A00F0F180A84B1A68F6
:105DB000012A00F0DE80A74B1A68012A00F0CB8090
:105DC000A54B1A68012A00F0B58015F0FF0F1AD014
:105DD000A24F01260024A30003F180432E4203F5C5
:105DE000C0434FEA46060BD0D3F8100557F82420DD
:105DF000D3F81015C0F30520C1F3014102B190475B
:105E00000134082CE7D1002D02DB09B0BDE8F08F8A
:105E1000934F00224FF0FF33A7F1630904920592DC
:105E2000069307938F4C4FF0000A4FF0010814F8C7
:105E3000013FFF2B30D0DBB223F0C00008AAC60818
:105E4000951903F0070215F8081C08FA02F211422E
:105E500022D009EB000E99099EF930E059F82EC0C6
:105E6000BCF1000F56D0032956D01F288ABF03F07B
:105E70001F060646DFF8F0E115F818BC98BF4FF092
:105E8000A04E06F5E0761BEA020F5EF82650C5F339
:105E900001451AD1032D48D0BC42C8D1BAF1000F38
:105EA000B3D04FF0A0430299D3F810356E4A99420F
:105EB000D2F8102502D103999142A6D004980599F1
:105EC0000293039206900791ACE7022DE4D10329D7
:105ED00004D0BCF1000FDFD0E047DDE74FF44032E3
:105EE0001F288BBF604D4FF0A04503F01F030346F2
:105EF00005EB83030AF1010AD3F8005725F4403576
:105F0000C3F80057D3F800572A435FFA8AFAC3F858
:105F10000027DEE70329BFD10DF1100B1BF806E0C7
:105F20004EEA020E0BF806E09FE70329D1D14FF4A9
:105F30000032D5E700221A601B6801934FF0A0429F
:105F4000019BD2F81025484B0292D3F810350393E9
:105F500045F0004539E7454AD2F8042312067FF59B
:105F60002FAF00221A601B680093009B45F080054C
:105F700026E73E4AD2F8042351067FF51CAF0022E3
:105F80001A601B680093009B45F0400513E7374AF1
:105F9000D2F8042390067FF509AF00221A601B682F
:105FA0000093009B45F0200500E7304AD2F8042317
:105FB000D4067FF5F6AE00221A601B680093009BA2
:105FC00045F01005EDE6294AD2F8042316077FF5BF
:105FD000E3AE00221A601B680093009B45F00805A1
:105FE000DAE6224AD2F8042357077FF5D0AE002222
:105FF0001A601B680093009B45F00405C7E61B4A26
:10600000D2F8042392077FF5BDAE00221A601B6808
:106010000093009B45F00205B4E61449D1F804133F
:1060200011F0010105D01D601B680093009B15460F
:10603000A3E60D46A1E600BF0061004004610040F8
:10604000086100400C610040106100401461004094
:10605000186100401C6100407C610040D433002086
:10606000373400203334002000030050006000402B
:106070002DE9F041684B1A6888B0002A3CD1674F7F
:1060800097F82E30002B45D1654B1A68002A5FD156
:10609000644B1D68002D6BD17C699CB14FF00048AA
:1060A0000126B4FA84F18B0003F58C7303F180426E
:1060B00002F5E04228FA01F0116824EA000421B94F
:1060C000002CEED108B0BDE8F0811560A3F58C730B
:1060D0001268049283F00401C1F38002DB088DF89A
:1060E00019208DF818308DF814603B68049A05A8C3
:1060F0009847002CD5D1E5E70022484F1A6019686F
:1061000097F82E3000910099002B3AD097F82F3055
:10611000002B4FD1444B1A68002AB5D000211960DA
:1061200097F82D401A687B8B0192A5B2AB42019A79
:106130003A4A4ED85FD0384B3C4A002119601B6860
:106140000293012302991360354B1A68002A9FD0ED
:1061500000221A6008A81B680393022100F80C1D96
:106160003B6803993A7498472E4B1D68002D93D0D5
:1061700000221A601B680593059B3A7408B0BDE8BD
:10618000F081FA68786839898DF814300690ADF896
:106190001C10002A2CD02648398B7A600122FB6023
:1061A0007983398102603B6805A89847002387F806
:1061B0002F3065E7FB68786839898DF814200690E0
:1061C000ADF81C10A3B1398B7B60FA6079833981FB
:1061D000E9E711895068164E5B1B9BB289B2C91A58
:1061E00000EB41015383C6F82C16C6F83046A2E7EF
:1061F00000233B74D7E7D3684BB10D48518301218D
:10620000C0F82C3682F82F10C0F8304693E70121F1
:10621000538382F82F108EE7047100403C34002035
:106220001071004014710040007100400470004083
:1062300000700040F0B5234C94F82C3083B013B1BB
:10624000082003B0F0BD002939D01F4A1F4D21603E
:10625000002808BF10461E4A0178C5F8F01541789D
:10626000C5F8F4156FF000412374C778C5F808131A
:10627000136011680091009942F8043C043A817857
:10628000126801920126072084F82D30636184F89A
:106290002F3084F82E70019B84F82C60FFF784FB6C
:1062A00094F82E300222C5F804230BB1C5F804631C
:1062B000064B01220020C3F8002503B0F0BD0720E3
:1062C000BFE700BF3C340020C4410600007000401E
:1062D0000471004038B5134B1A7C0AB1112038BD47
:1062E00000F10C0203EB4204247924B993F82D4009
:1062F000013483F82D4003EB4203CA791A710A7AFC
:106300005A7104460D4600F007FA200100F180435F
:1063100003F5E043EA79297AC3F81415C3F8102588
:10632000002038BD3C340020F0B42D4A2D4B1224FF
:10633000C2F808431D7C022D82B01CD01C7C012CAD
:106340001FD093F82E405860022701250026C2F87E
:1063500004731D74DE601981E4B9234BC2F82C0666
:10636000C2F830161C601B680193019B1560204623
:1063700002B0F0BC70471120C2F8044302B0F0BC78
:106380007047DC688CB102231120C2F8043302B0DC
:10639000F0BC704793F82D40C2F82C063046598364
:1063A000C2F8304602B0F0BC704793F82E20D86097
:1063B000198372B90C4C23680B4A002BFBD00023C5
:1063C00013601268064B0092009AC3F82C06C3F8BB
:1063D0003016034B0222C3F804230020C8E700BF95
:1063E000007000403C34002000710040084A137CDB
:1063F000DBB2012B01D00820704792F82E0010B9B3
:10640000044A13607047044A00201360704700BFBD
:106410003C3400200470004000700040F0B59B4CFC
:10642000237F8FB0002B75D1994AD2F804138905C8
:1064300048D4974BD3F80423520704D5D3F8082146
:10644000002A40F0CA80924BD3F81C21C2B1A28A24
:10645000A07D8E4992B282424FF00002C3F81C2107
:1064600080F0A980D3F81C210692069A888A8A8A2D
:106470008D6880B20132285C92B28A82C3F81C0512
:10648000834BD3F84421DAB10022C3F84421D3F876
:106490004411A27E04910499002A40F08980E27D93
:1064A0007A4B6AB10022587ED968DA7501228DF8DC
:1064B00030000B918DF828200AA893E80600904739
:1064C0000FB0F0BDD2F824110029B2D0C2F82431A7
:1064D000D2F82411A37E07914FF401710798C2F8F6
:1064E00008130BB901235360694A02238DF8283041
:1064F000D2F88034C2F88034E07DE2680D93002346
:106500008DF83000E375237621680B9263680AA842
:10651000984798E75E4BD3F82421002A40F09380F7
:10652000D3F8101161B1C3F81021D3F81011039101
:106530000399D3F83C15E07DC9B2884200F0AA80E7
:10654000534BD3F84421B2B10022C3F84421D3F80D
:106550004411E07D019101994C4960B1D3F83C357B
:10656000C8688DF830300123CA750B908DF828303B
:106570000AA80AC99847464BD3F82021002A9FD081
:106580000022C3F82021D3F82011A07D00910099AA
:106590003E49002894D0D3F84C058B688DF8300024
:1065A0008A750B938DF828200AC90AA8984787E7AF
:1065B00001221A6073E7D3F81C310593059B00286C
:1065C0003FF45EAF8B688DF830008A750B938DF8C1
:1065D00028200AC90AA8984752E7E17D2B4A0029DA
:1065E00070D00021C3F80811D3F808110891089958
:1065F000D068517ED3F818354354537ED17D013392
:10660000DBB25376627E214B8A427FF41CAF1A7E46
:10661000002A6DD19B7E13B91D4B01225A601C4A82
:10662000E06863684FF40171C2F80813627E8DF868
:106630003020002501220B902168E5758DF8282077
:106640000AA89847FFE60022C3F82421D3F82411B2
:10665000029102218DF828100299D3F88014C3F812
:1066600080140D91D3F83C15E368E27522768DF81D
:1066700030100B93216863680AA89847044BD3F83D
:106680004421002A3FF477AF5EE700BF6C3400205E
:1066900000800240217EF1B1D3F80072E17527F04D
:1066A0002001E6682569C3F8001201238DF8300047
:1066B0008DF82830227621680B96E56063680AA879
:1066C00098473DE7C3F80811D3F808210992099AC1
:1066D000D3F8183596E7E268E17501238DF83000AC
:1066E0008DF828300B9294E80A000AA8984727E70B
:1066F000DE685D7E1869DA7501210022D8601A769D
:106700005A768DF828100B968DF8305093E80600D5
:106710000AA8904797E600BFF0B54E788F7891F8B9
:1067200000E0CD780C794A798B7936013F0207F485
:10673000E06706F030063E432D030EF003073E43AC
:1067400005F480552404354304F4E02412050601C1
:106750002C4302F480121B0606F1804505F5E04546
:10676000224303F080731343C5F81835CB790A7AB6
:10677000C5F81425C5F81035F0BD00BF0220FCF7A0
:10678000A9B800BF2DE9F0470D460646FCF7F0F822
:10679000032804461DD8012D1FD00ED3022D1AD177
:1067A0001C4B00EB40041C44657895B11A4B1B68E8
:1067B0007BB12846BDE8F04718471848FCF702FFB0
:1067C0001449174A04EB44030B44155D9B789D4222
:1067D000EBD0BDE8F087BDE8F087DFF838804700F0
:1067E0003B1808EB030218F8035053782BB92744E1
:1067F00047440B4BBA781A55D7E7DFF8289007487B
:106800004A464FF40041FCF783FE0028EFD189F897
:106810000060ECE708350020BC340020C0340020C4
:10682000B43400200435002010B50078FCF7A0F83F
:1068300003280BD8064B00EB40001844407828B1E1
:10684000044B1B6813B1BDE81040184710BD00BFD2
:1068500008350020BC340020B34B1B68DB0700D494
:10686000704770B5B14EB24D33782C78FBB9172C08
:106870001CD8DFE814F0F100140114016300760065
:10688000830096005D0039002C0039002C00A30025
:10689000A800A800A800A800A800CE00DE00010102
:1068A000460018001800FBF7FFFF2C7070BDA14BCD
:1068B0001B7800203070002B00F00581FBF7CCFF27
:1068C0000120FBF7C9FF0320FBF7C6FFCFE7012339
:1068D00018463370FBF7FEFF97484FF480410022C3
:1068E000BDE87040FCF714BE012318463370FBF777
:1068F000F1FF914840F6CD410022BDE87040FCF721
:1069000007BE8C4B1B78002B00F0FE800020FBF7AD
:10691000A3FF0120FBF7A0FF0320FBF79DFF002052
:10692000FBF786FF0120FBF783FF15232B7070BD5B
:106930000020FBF77DFF07232B7070BD0020FBF7C5
:1069400061FF002800F0D3800020FBF785FF46F2AE
:10695000666103232B7078480022BDE87040FCF785
:10696000D7BD0020FBF74EFF002800F0C5800020B7
:10697000FBF772FF4FF400310423EBE70020FBF735
:1069800041FF002800F0BD800020FBF765FF0523D4
:106990002B70694841F69A110022BDE87040FCF75F
:1069A000B7BD0020FBF796FF06232B70624840F628
:1069B000CD410022BDE87040FCF7AABDFBF774FF93
:1069C0000C232B7070BD5D48FCF7FCFDD4F1110465
:1069D00005467BD0002879D1012C13D0C82303FBB6
:1069E00004F44FF4FA704FF400430021C3FB040198
:1069F0004FF47A7200233BF05BFD2A4601464F4874
:106A0000FCF786FD0220FBF713FF4A4B01221A70A8
:106A100070BD484B1B78002B79D00020FBF71CFF82
:106A20000120FBF719FF0320FBF716FF12232B7041
:106A300070BD404B1B78002B6FD00020FBF70CFF84
:106A40000120FBF709FF0320FBF706FF0020FBF7FF
:106A5000EFFE13232B7070BD364B1B78002B59D0E3
:106A60000020FBF7F9FE0120FBF7F6FE0320FBF701
:106A7000F3FE00232B7070BD2E4B1B78002B4FD0E4
:106A80000020FBF7E9FE0120FBF7E6FE0320FBF701
:106A9000E3FE0120FBF7CCFE14232B7070BD002019
:106AA000FBF7B0FEC8B10020FBF7D6FE022C4EF279
:106AB000666118BF4FF400312C701F480022BDE8FA
:106AC0007040FCF725BDFBF7D9FED0E60220FBF7AE
:106AD000C3FE184B00221A7070BDFBF7A9FE41F6E9
:106AE0009A1343F23331022C08BF1946E4E7FBF74F
:106AF0009FFE41F69A112CE7FBF79AFE43F23331E1
:106B00003AE7FBF795FE42E7FBF7B8FE07E7FBF72E
:106B1000B5FE8BE7FBF7B2FEABE7FBF7AFFE95E701
:106B2000FBF7ACFEB5E700BFB0340020B83400205E
:106B3000E0340020AC3400208C340020E434002009
:106B4000FBF700BF38B5C44B1B6813F0010401D13B
:106B5000204638BDC14C23780546E3B9172D00F215
:106B60007881DFE815F00B013101310169007D000A
:106B70009100A5005B003500280035002800B30017
:106B8000BA00BA00BA00BA00BA00E300F6001C016D
:106B9000420063006300B24B1B7800202070002B82
:106BA00000F02781FBF758FE0120FBF755FE03207C
:106BB000FBF752FED2E7012318462370FBF78AFE4B
:106BC000A8484FF480410022BDE83840FCF7A0BC43
:106BD000012318462370FBF77DFEA24840F6CD4105
:106BE0000022BDE83840FCF793BC9D4B1B78002B7E
:106BF00000F020810020FBF72FFE0120FBF72CFE88
:106C00000320FBF729FE0020FBF712FE0120FBF713
:106C10000FFE954B15221A70002499E70020FBF710
:106C200007FE914B07221A70002491E7FBF73CFE08
:106C30008D4B00241D708BE70020FBF7E3FD00283F
:106C400000F0E1800020FBF707FE46F26661864B0C
:106C5000844803241C700022BDE83840FCF758BC6F
:106C60000020FBF7CFFD002800F0DC800020FBF7C0
:106C7000F3FD4FF400317C4B7A4804241C70002251
:106C8000BDE83840FCF744BC0020FBF7BBFD002802
:106C900000F0CD800020FBF7DFFD734B7148052429
:106CA0001C7041F69A110022BDE83840FCF730BC58
:106CB0000020FBF70FFE6C4B6A4806241C7040F660
:106CC000CD410022BDE83840FCF722BCFBF7ECFDCB
:106CD000654B0C221A7000243AE76448FCF772FCFA
:106CE000D5F11105044600F08780002840F084802B
:106CF000012D14D0C82303FB05F54FF4FA704FF4AF
:106D000000430021C3FB05014FF47A7200233BF0DE
:106D1000CFFB224601465548FCF7FAFB0446022009
:106D2000FBF786FD4E4B01221A7011E74C4B1B7886
:106D3000002B00F082800020FBF78EFD0120FBF786
:106D40008BFD0320FBF788FD474B12221A700024AD
:106D5000FEE6434B1B78002B75D00020FBF77CFD33
:106D60000120FBF779FD0320FBF776FD0020FBF700
:106D70005FFD3D4B13221A700024E9E6384B1B7867
:106D8000002B5DD00020FBF767FD0120FBF764FDC1
:106D90000320FBF761FD344B00241C70D8E6304B18
:106DA0001B78002B52D00020FBF756FD0120FBF78B
:106DB00053FD0320FBF750FD0120FBF739FD2A4B63
:106DC00014221A700024C3E60020FBF71BFDF8B163
:106DD0000020FBF741FD022D4EF2666118BF4FF413
:106DE0000031214B1F481D700022BDE83840FCF7E0
:106DF0008FBBFBF743FDB1E60220FBF72DFD184BDF
:106E000000221A70A4E6FBF713FD41F69A111EE763
:106E1000FBF70EFD41F69A1343F23331022D08BF02
:106E20001946DEE7FBF704FD43F2333123E7FBF7B6
:106E3000FFFC32E7FBF722FDE5E6FBF71FFD83E7EA
:106E4000FBF71CFDA7E7FBF719FD8FE7FBF716FD26
:106E5000B2E700247CE600BFB0340020B834002044
:106E6000AC3400208C340020E0340020E4340020D6
:106E7000F0B5214A214B1060044610F0020083B0A7
:106E8000196015D01E4B1F484FF00E0E0F2710260D
:106E90001125042140F2666283F800E0DF709E71E4
:106EA0005D72FBF763FEA0B1E3071DD403B0F0BD34
:106EB000E20719D41448154A0021FCF717FB0028F3
:106EC000F4D11348134A012103B0BDE8F040FCF7A8
:106ED0000DBBFBF7A5FE0028E6D101460E4A0F4880
:106EE000FCF704FBE10703D50190FBF70DFD0198CA
:106EF0000028DFD003B0F0BDB0340020BC34002047
:106F000008350020D0410600CC4106005968020037
:106F1000F04106007D67020029680200C8410600B2
:106F2000032801D907207047012A12D0012917D060
:106F300008D30229F6D10D4B00EB4000034400209A
:106F40005A707047094B00EB4000034400209A70D0
:106F50007047012901D00022E8E700F10E02D2B209
:106F600000EB400301490020CA5470470835002057
:106F700010B50388102B08D0112B05D1264B1868AB
:106F80000138186038B110BD10BD234C206880B1A5
:106F90000130206010BD02210122FFF7C1FF48B37C
:106FA000072827D01D4B1B68002BECD0BDE81040F4
:106FB000184701460122FFF7B3FF48B1072807D061
:106FC000164B1B6803B1984720680130206010BD44
:106FD000012002210722FFF7A3FF08B10728EFD104
:106FE000002002210422FFF79BFF0028ECD0072895
:106FF000E6D1E9E7012002210722FFF791FF08B15E
:107000000728CFD1002001460A22FFF789FF002878
:10701000B9D00728C6D110BD18350020143500207E
:107020001A4B10B50C46186029B10120FFF788FDF6
:1070300030B102232370164B186848B1002010BDF0
:10704000FFF77EFDF8B9124B207018680028F5D1C3
:1070500002210122FFF764FF10B1072800D010BD04
:10706000012002210722FFF75BFF08B10728F6D1B4
:10707000002001460A22FFF753FF0028DED0072830
:1070800008BF0020EBE70B232370D4E71435002062
:107090001835002076DF704777DF704778DF70475C
:1070A0007ADF70477CDF7047A8DF704769DF704781
:1070B00066DF70473EDF7047FBF7C8BDFBF7C6BD14
:1070C00008B5FFF793F900B908BDBDE80840FBF724
:1070D000BDBD00BF10B50446FEF7CEF8204601F056
:1070E000A5FF2046FEF71CFC2046BDE810402AF014
:1070F0002FBE00BF10B5044684B002F0E9F8204668
:1071000006F070FD21463F4802F0B2FB204602F037
:1071100083F821463C4808F0BFF921463B4808F077
:10712000FBFA21463A4808F069F82146394808F048
:10713000ABFA2146384808F0ABFB2046FFF718FFB2
:107140002388112B51D017D9512B2FD0562B0AD071
:107150003B2B08D0204601F009FF21462F4804F0C0
:10716000CFF804B010BDA0881321FFF793FF0028CB
:10717000F0D0FBF76BFDEDE7012B2FD0102BE9D101
:1071800003202749FBF7FEFA0720FFF7DBFC002866
:1071900035D100211B484FF41872FBF7D3F819487A
:1071A000A18802F031FB0028D4D0E2E7A279A37BCA
:1071B000002ACFD0043B022BCCD8022A0CBF0222DB
:1071C00001224FF4C173A0888DF800206946ADF804
:1071D0000430FFF769FF0028BCD0CAE7A08800216F
:1071E000FFF766FF0028B5D0C3E703200D49FBF782
:1071F000C9FA0020FFF7A6FC0028ABD0B9E7FBF7DF
:1072000025FDC6E710360020CC350020FC350020D7
:107210009C3800204035002070380020E0350020E8
:1072200030420600144206000146014808F0CCB97D
:1072300040350020084B1B7963B14FF0A042D2F8D3
:107240000435D94301F4004103F40043C2F80815A2
:10725000C2F80C35704700BFCC2F0020037803B173
:10726000704710B54368012118461C88FFF75CF889
:10727000002844D123B203EB8303C3EB0313DB00E9
:1072800048BF03F2FF339B1203EB43035B0003F59C
:1072900087739BB240F6B732934211D964212F48CD
:1072A00008F0AEF830F0080209D0132807D043F2F6
:1072B0000142904203D0BDE81040FBF7C7BC10BDAF
:1072C00040F6543293421DD840F6B422934228D857
:1072D00040F68812934233D840F6340293423BD9A9
:1072E000C3F51863083303EB43031D495B0081FBBF
:1072F0000321DB17A3EBE1110631C9B2CFE7FBF79E
:10730000A5FCB7E7C3F53B633A220833154902FBF6
:1073100003F381FB0321DB17A3EB61116431C9B2D5
:10732000BDE7C3F53563043303EB43030E49DB00CC
:1073300081FB0321DB17A3EBA1112A31C9B2AEE710
:10734000C3F52B630749043381FB0321DB17A3EB50
:10735000E1011231C9B2A2E70021A0E79C38002068
:10736000616060601F85EB51676666662DE9F041DC
:107370000746A6B008460C46164698460CF0B7FEDF
:1073800038B120460CF0B3FE102802D026B0BDE87C
:10739000F08120460CF0AFFE03280546F6D13046BA
:1073A0000DF0F6FA0DF107020146012330460DF00B
:1073B000F3FA012803D028462D49FBF7E3F99DF89D
:1073C0000730012B49D03ED3022B2ED020460CF0A3
:1073D0008EFE0028DAD14422202102A80CF068FE9B
:1073E00020460CF08AFE014602A80CF07DFE2046E5
:1073F0000CF08BFE054620460CF083FE2946024623
:1074000002A80CF057FE384602A90CF080FE044694
:107410000028BBD03846424621460CF09AFE002890
:10742000B4D020460DF0AEFAB0E74FF0A042D2F84B
:107430000435D94301F4803103F48033C2F80815D0
:10744000C2F80C35C2E74FF0A0434FF48031002260
:10745000C3F80815C3F80C25B8E74FF0A0434FF464
:1074600080310022C3F80C15C3F80825AEE700BF31
:107470004842060008B50B7803B108BD4B78012BD4
:1074800010D002D3022B17D008BD03200F49FBF701
:1074900079F91120FFF756FB0028EED0BDE808402F
:1074A000FBF7D4BB03200A49FBF76CF90D20FFF76B
:1074B00049FB0028E1D0F1E703200649FBF762F918
:1074C0001020FFF73FFB0028D7D0E7E77442060003
:1074D0008C420600A4420600043870B50D2810D86E
:1074E000DFE800F0070F0F0F0F0F0F0F0F0F4137DF
:1074F0000F102D4B13211889FFF7CCFD30F0080336
:1075000023D170BD294C01232371266828F082F90C
:107510004FF0A04300F59C55D3F80435244883F47C
:10752000F0330835C3F3C03332464FF42031A56041
:1075300084F82C30FBF7ECFF50BB1E4840F6CD41E1
:107540000022FBF7E5FF0028DBD0BDE87040FBF729
:107550007DBB03201849FBF715F91120FFF7F2FA5C
:107560000028F2D170BD154B1B78002BC9D0144CEC
:107570000D4823787BB9022108F09CF878B11328D4
:10758000BFD043F201439842BBD00528DDD1B8E714
:10759000FBF75CFBD1E7002108F08CF8EEE72378DD
:1075A00083F00103237070BD40350020CC2F0020F4
:1075B0005835002020350020BC4206001C35002034
:1075C000C835002008B50A783AB1012A04D1084824
:1075D000FBF7F8FF40B908BD08BD05484FF470112E
:1075E000FBF796FF0028F6D0BDE80840FBF72EBB5E
:1075F0007C38002008B548B1032806D10849FBF7BC
:10760000C1F80220FFF79EFA28B908BD032001F057
:107610008DFC0028F9D0BDE80840FBF717BB00BF80
:10762000D442060008B50B7833B1022B03D1094BC5
:1076300000221A7008BD08BD0B46074849889A8980
:1076400008F05CF808B1FBF701FB024B01221A704D
:1076500008BD00BF1C350020403500202DE9F04357
:10766000344C2279B1B012B931B0BDE8F08306468E
:1076700008461D460F460CF03AFD10288046F3D10F
:1076800038460CF038FD01288146EDD10FCD0DF1C3
:10769000040EAEE80F000FCDAEE80F0095E807002E
:1076A0008EE807000021424601A8FAF74BFE41464A
:1076B00045220CA88DF803900CF0FAFC38460CF02B
:1076C00024FD054638460CF01CFD294602460CA850
:1076D0000CF0F0FC0CA80CF005FD30460CA90CF0E9
:1076E00016FD05460028BFD04A460DF103010DF0F6
:1076F00051F918B128460DF045F9B5E730460DF0BF
:1077000048FA4246014628460DF044F90028F1D1D6
:10771000304601AA29460CF01CFD03460028E9D199
:1077200005482371A360FBF74DFF0448FBF74AFFB0
:107730009AE700BFCC2F00205835002020350020CC
:1077400038B50F4C0F4800252571A560FBF73AFFAF
:107750000D48FBF737FF94F82C3043B94FF0A042A7
:107760004FF40041C2F80815C2F80C3538BD4FF08F
:10777000A0434FF40042C3F80C25C3F8085538BDA8
:10778000CC2F0020583500202035002010B503787C
:1077900084B004460E2B0FD8DFE803F0220E270E2C
:1077A0003315100E1E0E1008100E3B00032001F0C2
:1077B000BDFB08B1FBF74AFA04B010BD8068002891
:1077C000F8D104B010BDFDF757FA0E280346F3D0E8
:1077D00033F00803F0D0EDE700690028ECD0E9E7CA
:1077E00003200D49FAF7CEFFE6E7408801F0F8FDE7
:1077F000217A63880091024608490320FAF7F0FFD6
:10780000DAE704A9002301F8043D408806F06AFA8B
:10781000D2E706F069FACFE7F442060028430600F3
:10782000430770B504460D460AD428460DF0F2F918
:10783000224603460B490320BDE87040FAF7C0BF5B
:1078400008460DF0E7F902380228EED9064B074842
:1078500000221A719A60FBF7B5FE0548FBF7B2FEED
:10786000E3E700BF74430600CC2F0020583500200A
:107870002035002008B50B7803B108BD4B78012BEB
:1078800010D002D3022B17D008BD03200F49FAF7FE
:1078900079FF1120FFF756F90028EED0BDE8084027
:1078A000FBF7D4B903200A49FAF76CFF0D20FFF764
:1078B00049F90028E1D0F1E703200649FAF762FF11
:1078C0001020FFF73FF90028D7D0E7E77442060001
:1078D0008C420600A44206002DE9F04100209AB037
:1078E000FAF73EFF08B1FBF7B1F9FBF735FD08B138
:1078F000FBF7ACF9B848B94A0121FBF7F7FD08B12D
:10790000FBF7A4F9B648B74A0021FBF7EFFD08B131
:10791000FBF79CF9B448B54A0121FBF7E7FD08B134
:10792000FBF794F90320B249FFF7A2FA08B1FBF77D
:107930008DF90BA90020FFF773FB08B1FBF786F95F
:10794000AC4BAD4918680290502202A800239DF864
:107950002C6008F075F808B1FBF778F91AAC002331
:1079600044F85C3D204608F0E3F808B1FBF76EF9F7
:1079700000210C220BA8FAF7E5FC002301200BA93B
:10798000039A8DF82C30FFF791FB08B1FBF75EF9F5
:1079900000210C220BA8FAF7D5FC0125002340207A
:1079A0000BA9039A8DF82C508DF82D308DF82E30C0
:1079B000FFF77CFB08B1FBF749F9204608F0C2F855
:1079C00008B1FBF743F98D4808F086F808B1FBF7DA
:1079D0003DF98B4808F08AF808B1FBF737F9002029
:1079E0008849FEF727FC08B1FBF730F9864B186889
:1079F00059681A7A0BAB03C300200BA91A70FEF763
:107A000069FC08B1FBF722F980480121FEF78CFCE4
:107A100008B1FBF71BF97E480121FEF785FC08B190
:107A2000FBF714F99DF80C307A48012262F3030346
:107A300062F307138DF80C303BF047FC754982B2B6
:107A40002046FFF72FFB08B1FBF700F94FF4107049
:107A5000FFF724FB08B1FBF7F9F8002108220BA877
:107A6000FAF770FC4FF4C873A02100220BA8ADF800
:107A70002C10ADF82E30ADF83230ADF83020FFF7D5
:107A80000FFB08B1FBF7E2F86FF00700FFF704FB0C
:107A900008B1FBF7DBF86048002103F015FC08B1E2
:107AA000FBF7D4F800213C220BA8FAF74BFC02228A
:107AB0005A4B8DF82C2001254FF0050E0427204647
:107AC00000212022ADF83C7010938DF82E508DF8D7
:107AD0002FE0FAF737FC002122462827B424009132
