:1000000000000420552F00007D2F00007F2F0000EE
:10001000812F0000832F0000852F000000000000CA
:10002000000000000000000000000000872F00001A
:10003000892F0000000000008B2F00008D2F000092
:10004000911700007D490200213702008F2F000028
:100050008F2F0000E1320000D11B00008F2F000025
:100060008F2F00008F2F00008F2F00008F2F000098
:100070008F2F0000713C02008F2F00008F2F000097
:100080008F2F0000590C00008F2F00008F2F0000D1
:10009000F90C00008F2F00008F2F00008F2F000021
:1000A0008F2F00008F2F00008F2F00008F2F000058
:1000B0008F2F00008F2F00000000000000000000C4
:1000C0008F2F00008F2F00008F2F00008F2F000038
:1000D000393402008F2F00008F2F00008F2F000077
:1000E0008F2F00008F2F00008F2F00008F2F000018
:1000F000000000008F2F0000000000000000000042
:1001000000000000000000000000000000000000EF
:1001100000000000000000000000000000000000DF
:1001200000000000000000000000000000000000CF
:1001300000000000000000000000000000000000BF
:1001400000000000000000000000000000000000AF
:10015000000000000000000000000000000000009F
:10016000000000000000000000000000000000008F
:10017000000000000000000000000000000000007F
:10018000000000000000000000000000000000006F
:10019000000000000000000000000000000000005F
:1001A000000000000000000000000000000000004F
:1001B000000000000000000000000000000000003F
:1001C000000000000000000000000000000000002F
:1001D000000000000000000000000000000000001F
:1001E000000000000000000000000000000000000F
:1001F00000000000000000000000000000000000FF
:1002000010B5054C237833B9044B13B10448AFF350
:1002100000800123237010BDB809002000000000F9
:10022000D8EF0300084B10B51BB108480849AFF3DD
:1002300000800848036803B910BD074B002BFBD0B2
:10024000BDE81040184700BF00000000D8EF0300D1
:10025000BC090020B409002000000000154B002B51
:1002600008BF134B9D46A3F5803A00218B460F46ED
:100270001348144A121A00F065F80F4B002B00D0F7
:1002800098470E4B002B00D0984700200021040017
:100290000D000D48002802D00C48AFF3008000F09C
:1002A0002BF82000290002F0F9FB00F011F800BF44
:1002B0000000080000000420000000000000000012
:1002C000B8090020D0E40020000000000000000079
:1002D00008B5074B044613B10021AFF30080054B6E
:1002E0001868836A03B19847204600F033F800BFCE
:1002F000000000002875030070B50E4B0E4CE41A88
:10030000A41000251E46A54204D056F82530984773
:100310000135F8E737F0FAF8084C094BE41AA41055
:1003200000251E46A54204D056F8253098470135D1
:10033000F8E770BDAC090020AC090020B00900202E
:10034000AC09002002440346934202D003F8011B8B
:10035000FAE77047FEE700BF2DE9F04F1546C7B03A
:100360001C46002900F01C81002B00F0EF800A23BE
:1003700001930023194606AE519B539A519F03EBFC
:10038000020B019B013B059320258C4601980CEB49
:10039000000304933133F318029306EB0C03002897
:1003A0005FD05A4202F00302824228BF024606286A
:1003B00000F2EC80019A06F80C50012A03F10101C9
:1003C00000F0E280022A5D7003F1020100F0DC809F
:1003D000032A9D7003F1030100F0D680042ADD702A
:1003E00003F1040100F0D080062A1D7103F105011C
:1003F00040F0D3805D71991D9646019890422ED0B1
:10040000C2EB0009A9F104008008013003900598AF
:10041000C2EB000A0398BAF1020F4FEA800812D922
:10042000624401284FF0203C06EB020A46F802C065
:1004300005D00228CAF804C001D0CAF808C0C845CF
:100440004144C6440BD001980D700EF10102904258
:1004500005D90EF1020E70454D7000D98D70019ACC
:100460001344534A0299D2F80080DDF84891DA1C0F
:10047000481C03F1330C0CE002F8035C02F8025C48
:1004800002F8015C0332624500F8015C00F10100F2
:1004900033D0A345F0D9A74295BFE11B509919F875
:1004A0000110095D02F8015C4FEA211E5FFA8EFA25
:1004B000BEF1090F01F00F0ED4BF0AF1300A0AF1A4
:1004C000370ABEF1090F02F803AC94BF0EF1300EEB
:1004D0000EF1370E08EB010A02F802EC9AF801E07F
:1004E00003321EF0970F08BF2E21624500F8011C51
:1004F00004F1010400F10100CBD1029804990D220E
:100500004FF00A0801F14309027480F8118083F862
:10051000305023464FF0000A4C46994606EB0A013C
:100520002246002002F0A2FB8244241A10B9B8F13E
:10053000010801D0002CF1D1CB454C464FF0000C06
:100540003FF624AF204647B0BDE8F08F06AE0B68FB
:10055000184A30464FF4807136F02EF80028F1DB4F
:100560000A2307460193284636F08DF8C22828BF93
:10057000C220804629460246F01935F08BFC08EB74
:10058000070300241946F7E6964636E7002A7FF46B
:1005900012AF19469646019832E74FF0050E2CE748
:1005A00013B1019106AEE7E60194274606AEDAE7FD
:1005B000A80900202C7503002DE9F0419046C6B033
:1005C0001F46C1B106AE0B68564A30464FF48071E3
:1005D00035F0F2FF00280ADB4C9B0546062B00F2A3
:1005E0009F80DFE803F042525D6A798A14000020A0
:1005F00046B0BDE8F0814C9B062B00F28F80DFE80F
:1006000003F033424D5A697A0400002506AE07F123
:100610000C017A683B68D7F808C092C9701900923B
:10062000029103944246CDF804C00497C5F5807149
:1006300035F0C2FF0446002CD9DB2C44B4F5807F92
:10064000D5D80A27002506AE71192246002002F0EF
:100650000DFB0544241A08B9013F01D0002CF3D149
:10066000012046B0BDE8F0810025404636F00BF889
:100670004319FF2B0446DED806AE414670192246C8
:1006800035F008FCD7E7002506AE701942463B68F6
:10069000C5F5807135F090FF0446CCE7002506AE25
:1006A0007A683B68009270194246C5F5807135F052
:1006B00083FF0446BFE7002506AE7A68B9683B6849
:1006C0000092019170194246C5F5807135F074FFB2
:1006D0000446B0E7002506AE7A68BC68F9683B6856
:1006E00000920194029170194246C5F5807135F06F
:1006F00063FF04469FE7002506AE07F108017A680C
:100700003B6892C970190092019102944246039786
:10071000C5F5807135F050FF04468CE7002490E762
:1007200000248AE72C75030070B5074C074D237829
:10073000064613B12B78834204D002F0D7FB012385
:100740002E702370002070BDD5090020D409002030
:1007500000487047B9050000004870475903000081
:1007600038B50120FFF7E0FF044638B9FFF7F0FF86
:100770000546FFF7F1FF024B5D619861204638BDE9
:10078000D809002010B5054C82B00A4600216469E2
:1007900000910B46A04702B010BD00BFD809002051
:1007A00030B585B004AB054C43F8042D01250A464D
:1007B000646900950021A04705B030BDD80900202C
:1007C00030B5064C85B00225029203930A4664694F
:1007D0000095002102ABA04705B030BDD80900202C
:1007E000084B1B5C1F2B8ABF074A4FF0A04203F047
:1007F0001F03D2F80405D84000F0010080F001008A
:10080000704700BF3475030000030050074B1B5CAA
:100810001F2B86BF03F01F0305494FF0A0410122A3
:1008200002FA03F3C1F80C35704700BF34750300BA
:1008300000030050064B1A5C1F2A86BF02F01F02FD
:1008400004494FF0A04101239340C1F80835704797
:1008500034750300000300504FF0A04310B44FF470
:1008600080404FF400544FF400414FF48032C3F8FD
:100870000845C3F80805C3F80815C3F808255DF84E
:10088000044B70474FF0A04310B44FF480404FF436
:1008900000544FF400414FF48032C3F80C45C3F8C4
:1008A0000C05C3F80C15C3F80C255DF8044B704714
:1008B0000A4B195C1F298ABF09484FF0A04001F07C
:1008C0001F01D0F8043501228A4022EA03011340B7
:1008D000C0F80815C0F80C35704700BF3475030028
:1008E0000003005030B44FF0A04303224FF40055F2
:1008F0004FF480444FF400404FF48031C3F8342764
:10090000C3F83827C3F83C27C3F84027C3F8085575
:10091000C3F80845C3F80805C3F8081530BC70478C
:100920000B2809D00C2809D0182809D0192814BF81
:100930004FF0FF30032070470020704701207047C0
:10094000022070474B4B1978002900F091802DE967
:10095000F04F87B0DFF828C104910024012504E09E
:100960000134049BE4B29C4265D227B2DCF80060FB
:1009700016F83700A0F1200305FA03F93E4BC0F149
:10098000200ED3E9002325FA0EFE49EA0E0905FAE6
:1009900000F808EA020A09EA030B06EBC7015AEA63
:1009A0000B0E0591DCD03449CDF810C022EA0802C4
:1009B00023EA0903C1E9002301F0FAF816F83760C9
:1009C000DDF810C0A6F1200205FA02F201920199A9
:1009D000C6F120035FFA80FA25FA03F3A6F120029C
:1009E00019430AFA02F30393019105FA06F1009103
:1009F000C6F120070399214B2AFA07F739430391DF
:100A00000AFA06F1D3E900230291DDE90001104062
:100A1000194002460B46DDE902018B4208BF8242C3
:100A20004FF0000B0AD0134B1B7804930134049B46
:100A3000E4B29C4299D307B0BDE8F08F059A57689D
:100A400052780023A2F10102B2FA82F25209002F79
:100A5000E9D05B4506BF5245012100213046CDF863
:100A600014C0B847034BDDF814C01B78049377E734
:100A7000704700BFFC090020280A0020200A00203F
:100A8000F80900202DE9F8430746204800F06CFDE6
:100A9000D0B91F4E0123A7F1200103FA01F5C7F1D8
:100AA0002002D6E9000123FA02F2154303FA07F403
:100AB00004EA000205EA0103134307D020EA040414
:100AC00021EA0505C6E90045BDE8F883384601F08E
:100AD0006FF8104FD7E9002398B144EA020845EABD
:100AE0000309D6E9002314431D43C7E90089C6E979
:100AF00000450949054809680022BDE8F84300F0AF
:100B0000DFBC22EA040823EA0509EAE7000A00201C
:100B1000280A0020200A0020F4090020F0B5042A49
:100B200083B0164602D8072003B0F0BD05460F4635
:100B300000F0DEFE002836D01D4BDFF88CC0DFF859
:100B40008CE01C481C491D60002200237C1E8CF890
:100B50000070CEF80060C0E90023C1E90023E4B2D0
:100B6000DFB10327002600E01C4623B205EBC302D9
:100B700015F833009378114A8DF8053001A98DF8E6
:100B800004708DF806608DF8076000F0BBFE631EF0
:100B90000028C9D1DBB2002CE6D1094A094800215E
:100BA00000F07CFCC0E700F05DFE0028C4D0BBE78D
:100BB000F8090020200A0020280A0020850A0000E9
:100BC0004509000038750300FC090020F4090020E5
:100BD00070B5084D2B785BB1074E002433680121B6
:100BE00013F8340000F068FF2B780134A342F5D8E5
:100BF000002070BDFC090020F809002000B585B078
:100C000000230390194644F2010001AAADF8043014
:100C1000029300F003F805B05DF804FB08B501206D
:100C20000949FFF7AFFD03200849FFF7ABFDBFF30C
:100C30004F8F0749074BCA6802F4E0621343CB6049
:100C4000BFF34F8F00BFFDE73C7503004C750300F9
:100C500000ED00E00400FA05F8B5204A204B00251D
:100C6000C2F84051C2F84451C2F84851C2F84C5140
:100C7000C2F80051C2F804511B6813B31949D2F8E5
:100C800004250C68141B1A6824F07F44A2422F46E6
:100C900009D8197CDE69A41A154499B91EB13346E6
:100CA0001A68A242F5D9104B10491A780B789A426B
:100CB0000DD00F490F4A41F823504FF48013C2F86A
:100CC0000031F8BD1F745A6998699047E6E7531CD4
:100CD000DBB2022B08BF00230B70EAE700100140D3
:100CE000340A0020300A0020380A0020390A002087
:100CF000480B002000E100E02DE9F04F7D4A7E49DD
:100D0000137809787D48994287B0066800F0E88139
:100D10000133DBB2022B08BF002379491370794AF3
:100D20000291084652F82310036874488A19002576
:100D300022F07F420260AE462846A3B11A688A427A
:100D400000F2D681DC68C3F800E0891A1044DA6941
:100D500034B1871927F07F47DD619C605F601D46D5
:100D60001346002BEAD1029A04931360049C0123DA
:100D70000593654BDFF894811B7801935F4BDFF897
:100D800090C1D3F800A0029B1F680023BB462F46EA
:100D90000093C1461E464FF0010E37B37A68B9681A
:100DA0003D46FF69CAEB020323F07F4363453CD80D
:100DB0000B442B606E60AE6085F810E0EE61002C95
:100DC00067D021688B4242D9204603E011689942DE
:100DD00044D21046C2695B1A002AF7D12B60EA613F
:100DE0002346C5611C46002FD8D198F8003098F8EA
:100DF00001209A4200F08E805A1C03EB430308EB5B
:100E0000C30399F802109D68D2B2914289F800207C
:100E10001A7908BF89F80070022A48D0032A3CD00A
:100E2000012A22D023461C46DDE7C2EB0A0222F04B
:100E30007F428A4202D28B1A2B60BBE72E606E6023
:100E4000AE6085F810E0EE611CB321680023CB1A78
:100E500023602B46EC61AB461C46C4E7C91A1160FF
:100E60002B60EA612346C561BCE72A7C0392002A15
:100E7000D8D1DA686A601969A9605869E8601033E6
:100E80009B68AB61019B002B8CD0039B6B601A4667
:100E900088E72B46AB461C46A5E70CB9C2E71C46C3
:100EA000E3692674002BFAD19B461C469BE754B19C
:100EB000A54200F00881234602E0954207D0134680
:100EC000DA69002AF9D123462E741C468BE7AB421F
:100ED00000F0FA80E9692868D9610029F3D0234637
:100EE0000A6802440A60009A2E749C4218BF0122CC
:100EF0000092EAE7380A0020390A0020300A002070
:100F0000340A0020480B00203A0A00203C0A002046
:100F1000FEFF7F00029B9DF80420C3F800B0764BD3
:100F2000C3F800A0754B1A70009B1BB9049BA34229
:100F300000F0D081002C00F03C81714D6E4BD5F853
:100F400004051B686F4ED4F800C03178C21A22F035
:100F50007F420332002952D16B4FDFF8B091DFF8A6
:100F6000B0814FF480314FF4003E0124C5F84413A2
:100F7000C5F80413C7F880E1C7F800E02C602F2102
:100F8000D9F8005000BF00BF00BF00BF00BF00BFC6
:100F900000BF00BF45452FD000BF00BF00BF00BF4E
:100FA00000BF00BF00BF00BF00BF00BF00BF00BF49
:100FB00000BF00BF00BF00BF00BF00BF00BF00BF39
:100FC00000BF00BF00BF00BF00BF00BF00BF00BF29
:100FD00000BF00BF00BF00BF00BF00BF00BF00BF19
:100FE00000BF00BF00BF00BF00BF00BF00BF00BF09
:100FF00000BF00BF00BF00BF0139C3D134706245DC
:101000002CBF9A1803EB0C023D4922F07F43C1F834
:101010004035D1F80425121A1B1A22F07F4223F022
:101020007F4303329A4248D9D1F80435374AC1F890
:101030004035126836492F2300BF00BF00BF00BFF4
:1010400000BF00BF00BF00BF8A422FD000BF00BF5B
:1010500000BF00BF00BF00BF00BF00BF00BF00BF98
:1010600000BF00BF00BF00BF00BF00BF00BF00BF88
:1010700000BF00BF00BF00BF00BF00BF00BF00BF78
:1010800000BF00BF00BF00BF00BF00BF00BF00BF68
:1010900000BF00BF00BF00BF00BF00BF00BF00BF58
:1010A00000BF00BF00BF00BF00BF00BF013BC3D1F6
:1010B000154B4FF40032C3F80021104A002313707F
:1010C00007B0BDE8F08F2246D4F81CB0BBF1000F8A
:1010D00022D0D16910685B4600297FF401AF02E796
:1010E0000C4B02931B680493002505951C4640E6B3
:1010F000521A1A6037E600BF300A00203A0A002070
:1011000000100140500B002000E100E030090020F9
:101110000024F400340A00207549764BC1F808E039
:1011200075492F20096800BF00BF00BF00BF00BF86
:1011300000BF00BF00BF99422FD000BF00BF00BF5B
:1011400000BF00BF00BF00BF00BF00BF00BF00BFA7
:1011500000BF00BF00BF00BF00BF00BF00BF00BF97
:1011600000BF00BF00BF00BF00BF00BF00BF00BF87
:1011700000BF00BF00BF00BF00BF00BF00BF00BF77
:1011800000BF00BF00BF00BF00BF00BF00BF00BF67
:1011900000BF00BF00BF00BF00BF0138C3D1D1698D
:1011A0001068002900F09B800122DA465B4601921C
:1011B00096E64F4A514B504E4E484FF480314FF413
:1011C00000370125C3F88070C2F848132F23C2F8F6
:1011D0000813556031681E4600BF00BF00BF00BF46
:1011E00000BF00BF00BF00BF81422FD000BF00BFC3
:1011F00000BF00BF00BF00BF00BF00BF00BF00BFF7
:1012000000BF00BF00BF00BF00BF00BF00BF00BFE6
:1012100000BF00BF00BF00BF00BF00BF00BF00BFD6
:1012200000BF00BF00BF00BF00BF00BF00BF00BFC6
:1012300000BF00BF00BF00BF00BF00BF00BF00BFB6
:1012400000BF00BF00BF00BF00BF00BF013EC3D151
:1012500095602B4A146000BF00BF00BF00BF00BFF5
:1012600000BF00BF00BF81422FD000BF00BF00BF42
:1012700000BF00BF00BF00BF00BF00BF00BF00BF76
:1012800000BF00BF00BF00BF00BF00BF00BF00BF66
:1012900000BF00BF00BF00BF00BF00BF00BF00BF56
:1012A00000BF00BF00BF00BF00BF00BF00BF00BF46
:1012B00000BF00BF00BF00BF00BF00BF00BF00BF36
:1012C00000BF00BF00BF00BF00BF013BC3D10D4B3B
:1012D0001C70F2E6059B002B3FF4EFAE2AE60123DB
:1012E0001A4601938A468B460B4600922E74ECE513
:1012F000001001400024F4003009002000E100E06B
:10130000300A0020500B00202DE9F041594B5A4A79
:101310005A4D5B4E4FF480344FF400310120C2F837
:101320008010C3F848432F21C3F8084358602D6844
:101330000C4600BF00BF00BF00BF00BF00BF00BF22
:1013400000BFB5422FD000BF00BF00BF00BF00BF2D
:1013500000BF00BF00BF00BF00BF00BF00BF00BF95
:1013600000BF00BF00BF00BF00BF00BF00BF00BF85
:1013700000BF00BF00BF00BF00BF00BF00BF00BF75
:1013800000BF00BF00BF00BF00BF00BF00BF00BF65
:1013900000BF00BF00BF00BF00BF00BF00BF00BF55
:1013A00000BF00BF00BF013CC3D1364C9860002095
:1013B000206000BF00BF00BF00BF00BF00BF00BF74
:1013C00000BFB5422FD000BF00BF00BF00BF00BFAD
:1013D00000BF00BF00BF00BF00BF00BF00BF00BF15
:1013E00000BF00BF00BF00BF00BF00BF00BF00BF05
:1013F00000BF00BF00BF00BF00BF00BF00BF00BFF5
:1014000000BF00BF00BF00BF00BF00BF00BF00BFE4
:1014100000BF00BF00BF00BF00BF00BF00BF00BFD4
:1014200000BF00BF00BF0139C3D1174D1749DFF816
:101430006080DFF860C0DFF860E028704FF480164D
:10144000E0250B27C8F800008CF800008EF800009B
:10145000087048708F70C2F8806182F8145316606B
:10146000C3F8080582F81153D3F804352360BDE8AA
:10147000F08100BF0010014000E100E030090020D1
:101480000024F400300A0020500B00203C0A002009
:10149000340A0020380A0020390A0020074B9B78C4
:1014A0000BB9082070473AB130B10368187C0028A6
:1014B000F7D159745A617047072070473C0A0020E1
:1014C0002DE9F041254CA37813B90820BDE8F0813F
:1014D0000028FAD0042902D80720BDE8F08143692A
:1014E000002BF2D0437C0546012B4FF000000CBFCF
:1014F0008846804617460E4600F06CF86378A07860
:1015000021785A1CD2B2904208BF002291421ED0CC
:1015100003EB430304EBC30319464FF0010E41F8FC
:10152000085F0F4883F804E0D0F8040548608E6037
:101530000020C3F814809F61627000F053F8094BDB
:101540004FF48012C3F800210020BDE8F081002094
:1015500000F048F80420BDE8F08100BF3C0A0020FC
:101560000010014000E100E070B5184CA3780BB901
:10157000082070BD0028FBD04369002BF8D000255F
:1015800005740646284600F025F86278A078217890
:10159000531CDBB2984208BF2B46994211D002EB94
:1015A000420204EBC2020221284696601171637068
:1015B00000F018F8064B4FF48012C3F800212846BB
:1015C00070BD284600F00EF8042070BD3C0A0020D3
:1015D00000E100E072B6024A1368013313607047FD
:1015E000540B0020034A1368013B136003B962B631
:1015F000704700BF540B002010B50C4C23780BB182
:10160000852010BD0A4A6360E3601068A36010F093
:101610000100236102D1072100F0FCF84FF0804265
:101620000123C2F818352370002010BD580B00208C
:1016300000E100E030B51B4DAB78044683B003F009
:10164000FF0073B114B16368012098470020FFF7D1
:10165000C1FFEB6800200133EB60FFF7C3FF03B06D
:1016600030BDFFF7B7FF64B12A6942B1944208D098
:10167000134601E09C4204D01B68002BFAD1226083
:101680002C61EB68002BE4D1074A0849136013680A
:1016900001934FF0804202200123019CC2F8040311
:1016A0000B60D6E7580B0020040100400800004002
:1016B0004FF08043D3F81804C0F30040704700BFD8
:1016C00030B51A4D6B78044683B003F0FF0073B158
:1016D00014B16368002098470020FFF77BFF6B6818
:1016E000002001336B60FFF77DFF03B030BDFFF7D3
:1016F00071FF64B1AA6842B1944208D0134601E078
:101700009C4204D01B68002BFAD12260AC606B684D
:10171000002BE4D1064A1360136801934FF0804315
:1017200001220199C3F804231A60D8E7580B00205E
:101730000001004008B50020FFF74CFF0C494B6842
:10174000013B4B604B686BB90A4B01221A604FF0AA
:101750008042D2F80C3403F00113B3F1011FF8D02A
:1017600000234B700020BDE80840FFF73BBF00BFDF
:10177000580B0020040000404FF08043D3F80C04C5
:1017800000F00110A0F10110B0FA80F0400970479C
:1017900010B51D4B1A6882B0F2B91C4B1A680AB911
:1017A00002B010BD00221A601B6801934FF0804305
:1017B0000222174C0199C3F8082323690122A27061
:1017C000002BEDD01A6822615B68012098472369DD
:1017D000002BF7D102B010BD00221A601B680093E5
:1017E0004FF0804301220A4C0099C3F80823A368F4
:1017F0006270002BD1D01A68A2605B680020984705
:10180000A368002BF7D1C8E70001004004010040A5
:10181000580B0020002810B418DB00F1604303F5DA
:1018200061434901C9B283F80013C3B24009800083
:1018300000F1604000F5614003F01F020123934076
:10184000C0F8803103605DF8044B7047C3B2044AAE
:1018500003F00F0449012244C9B21176E6E700BF44
:10186000FCEC00E030B51F4C94F8645083B015B127
:10187000082003B030BD4FF0FF33FF2206200721C0
:1018800023636363A363E36323646364A364E36424
:1018900023656365A365E36523606360A360E3601C
:1018A00023616361A361E361236284F86030636252
:1018B000A36284F86230E36284F8633084F86120C4
:1018C000FFF7A8FF084B094A1D601B6801930198A8
:1018D0004FF000430121284684F86410C2F8043315
:1018E00003B030BD6C0B00207C6100400060004004
:1018F000034B93F86400003018BF0120704700BF0D
:101900006C0B0020F0B56A4C251895F93030002B8F
:1019100001DB0820F0BD91F803E09446BEF1000F12
:1019200056D02368013300F0BB80082600256B1CCD
:101930005F4F54F82320013251D0AB1C9E4245D951
:1019400057F8232001324AD0EB1C9E423ED957F86B
:101950002320013243D02B1D9E4237D957F8232034
:1019600001323CD06B1D9E4230D957F823700137AD
:1019700035D0AB1D9E4229D954F823204C4F01325B
:101980002DD0EB1D9E4221D957F82320013226D0BD
:1019900005F108039E4219D957F8232001321ED0C1
:1019A00005F109039E4211D957F82320013216D0C0
:1019B00005F10A039E4209D957F8237001370ED06A
:1019C0000B35AE4202D9E36A013307D00420F0BDE3
:1019D000236A01335CD00C260825A8E70B232618C0
:1019E000DDB244F823C0324686F83050BEF1000F15
:1019F00002D1234483F858008B78DBB91F284A783A
:101A000087BF2C4E00F01F0303464FF0A04603F59E
:101A1000E073920046F82320CB78E3B96AB2083A23
:101A20001444097894F8602042EA811284F8602016
:101A30001846F0BD1F2887BF1E4B00F01F0202464C
:101A40004FF0A04303EB8203D3F8002722F00202F9
:101A5000C3F80027E0E76BB29B0003F1804303F576
:101A6000C0430A78D3F8101521F44F3121F44071A6
:101A7000C3F810151204000202F44031D3F81045E7
:101A800000F47C520A432243C3F810250020F0BD25
:101A9000082685F830603346C4F820C03546A8E7EC
:101AA000002385F83030C4F800C01D46A4E700BF0D
:101AB0006C0B002000030050F0B43A4D2E1882B099
:101AC00096F8302053B2072B20DD2B4493F8583082
:101AD0009B09032B44D0012B0CBF4FF400324FF471
:101AE00040321F2849D900F01F002F4B03EB800024
:101AF000D0F8003723F44033C0F80037D0F800376F
:101B00001A43C0F8002702B0F0BC7047072AFAD881
:101B1000980000F1804000F5C04003F140029200BF
:101B2000D0F8104592B202F18042002744F001043F
:101B300002F5C042C0F810450197019817600029CE
:101B4000E1D096F9302055F82220002ADBD001227E
:101B5000164902FA03F3C1F8043302B0F0BC70472F
:101B60001F280DD9104BD3F8103500F01F00C340CB
:101B7000DB0713D54FF44032B7E74FF0A043B5E78A
:101B80004FF0A0421346D2F81025C24012F0010FC8
:101B90000CBF4FF400324FF44032A7E74FF400324D
:101BA000A3E700BF6C0B0020000300500060004062
:101BB0001F288ABF054B4FF0A04300F01F00D3F849
:101BC000103523FA00F000F00100704700030050C8
:101BD0002DE9F04F89B00025B24B029503951A68A4
:101BE000012A00F05081B04B1A68012A00F03D81B3
:101BF000AE4B1A68012A00F02A81AD4B1A68012AFF
:101C000000F01781AB4B1A68012A00F00481AA4B3F
:101C10001A68012A00F0F180A84B1A68012A00F026
:101C2000DE80A74B1A68012A00F0CB80A54B1A680A
:101C3000012A00F0B58015F0FF0F1AD0A24F01263F
:101C40000024A30003F180432E4203F5C0434FEA72
:101C500046060BD0D3F8100557F82420D3F81015FA
:101C6000C0F30520C1F3014102B190470134082CB3
:101C7000E7D1002D02DB09B0BDE8F08F934F0022C1
:101C80004FF0FF33A7F1630904920592069307937F
:101C90008F4C4FF0000A4FF0010814F8013FFF2B62
:101CA00030D0DBB223F0C00008AAC608951903F0B3
:101CB000070215F8081C08FA02F2114222D009EBBB
:101CC000000E99099EF930E059F82EC0BCF1000FC2
:101CD00056D0032956D01F288ABF03F01F06064698
:101CE000DFF8F0E115F818BC98BF4FF0A04E06F5EC
:101CF000E0761BEA020F5EF82650C5F301451AD1C3
:101D0000032D48D0BC42C8D1BAF1000FB3D04FF078
:101D1000A0430299D3F810356E4A9942D2F81025A3
:101D200002D103999142A6D0049805990293039297
:101D300006900791ACE7022DE4D1032904D0BCF151
:101D4000000FDFD0E047DDE74FF440321F288BBFA4
:101D5000604D4FF0A04503F01F03034605EB8303DE
:101D60000AF1010AD3F8005725F44035C3F80057AB
:101D7000D3F800572A435FFA8AFAC3F80027DEE750
:101D80000329BFD10DF1100B1BF806E04EEA020E3D
:101D90000BF806E09FE70329D1D14FF40032D5E7D5
:101DA00000221A601B6801934FF0A042019BD2F8F9
:101DB0001025484B0292D3F81035039345F00045A7
:101DC00039E7454AD2F8042312067FF52FAF0022E7
:101DD0001A601B680093009B45F0800526E73E4A89
:101DE000D2F8042351067FF51CAF00221A601B684D
:101DF0000093009B45F0400513E7374AD2F80423CF
:101E000090067FF509AF00221A601B680093009BC3
:101E100045F0200500E7304AD2F80423D4067FF5C8
:101E2000F6AE00221A601B680093009B45F0100577
:101E3000EDE6294AD2F8042316077FF5E3AE002227
:101E40001A601B680093009B45F00805DAE6224AF9
:101E5000D2F8042357077FF5D0AE00221A601B6822
:101E60000093009B45F00405C7E61B4AD2F8042303
:101E700092077FF5BDAE00221A601B680093009B9D
:101E800045F00205B4E61449D1F8041311F001013C
:101E900005D01D601B680093009B1546A3E60D4608
:101EA000A1E600BF006100400461004008610040FD
:101EB0000C61004010610040146100401861004056
:101EC0001C6100407C6100406C0B0020CF0B0020A7
:101ED000CB0B002000030050006000400220FEF702
:101EE000E7BC00BF2DE9F0470D460646FEF718FD9A
:101EF000032804461DD8012D1FD00ED3022D1AD160
:101F00001C4B00EB40041C44657895B11A4B1B68D0
:101F10007BB12846BDE8F04718471848FFF724FB77
:101F20001449174A04EB44030B44155D9B789D420A
:101F3000EBD0BDE8F087BDE8F087DFF838804700D8
:101F40003B1808EB030218F8035053782BB92744C9
:101F500047440B4BBA781A55D7E7DFF82890074863
:101F60004A464FF40041FFF7ABFA0028EFD189F859
:101F70000060ECE7500C0020040C0020080C00204E
:101F8000FC0B00204C0C002010B50078FEF7C8FCBC
:101F900003280BD8064B00EB40001844407828B1CA
:101FA000044B1B6813B1BDE81040184710BD00BFBB
:101FB000500C0020040C0020B34B1B68DB0700D43E
:101FC000704770B5B14EB24D33782C78FBB9172CF1
:101FD0001CD8DFE814F0F10014011401630076004E
:101FE000830096005D0039002C0039002C00A3000E
:101FF000A800A800A800A800A800CE00DE000101EB
:10200000460018001800FEF73DFC2C7070BDA14B77
:102010001B7800203070002B00F00581FEF70AFCD1
:102020000120FEF707FC0320FEF704FCCFE70123A5
:1020300018463370FEF73CFC97484FF4804100226D
:10204000BDE87040FFF73CBA012318463370FEF735
:102050002FFC914840F6CD410022BDE87040FFF7CB
:102060002FBA8C4B1B78002B00F0FE800020FEF76F
:10207000E1FB0120FEF7DEFB0320FEF7DBFB002087
:10208000FEF7C4FB0120FEF7C1FB15232B7070BDCA
:102090000020FEF7BBFB07232B7070BD0020FEF76E
:1020A0009FFB002800F0D3800020FEF7C3FB46F220
:1020B000666103232B7078480022BDE87040FFF76B
:1020C000FFB90020FEF78CFB002800F0C58000203F
:1020D000FEF7B0FB4FF400310423EBE70020FEF7DE
:1020E0007FFB002800F0BD800020FEF7A3FB052346
:1020F0002B70694841F69A110022BDE87040FFF745
:10210000DFB90020FEF7D4FB06232B70624840F6AF
:10211000CD410022BDE87040FFF7D2B9FEF7B2FB17
:102120000C232B7070BD5D48FFF71EFAD4F111042B
:1021300005467BD0002879D1012C13D0C82303FB9E
:1021400004F44FF4FA704FF400430021C3FB040180
:102150004FF47A72002333F089FB2A4601464F4838
:10216000FFF7AEF90220FEF751FB4A4B01221A702D
:1021700070BD484B1B78002B79D00020FEF75AFB2E
:102180000120FEF757FB0320FEF754FB12232B70B0
:1021900070BD404B1B78002B6FD00020FEF74AFB30
:1021A0000120FEF747FB0320FEF744FB0020FEF76B
:1021B0002DFB13232B7070BD364B1B78002B59D091
:1021C0000020FEF737FB0120FEF734FB0320FEF76B
:1021D00031FB00232B7070BD2E4B1B78002B4FD092
:1021E0000020FEF727FB0120FEF724FB0320FEF76B
:1021F00021FB0120FEF70AFB14232B7070BD002089
:10220000FEF7EEFAC8B10020FEF714FB022C4EF2E6
:10221000666118BF4FF400312C701F480022BDE8E2
:102220007040FFF74DB9FEF717FBD0E60220FEF72E
:1022300001FB184B00221A7070BDFEF7E7FA41F659
:102240009A1343F23331022C08BF1946E4E7FEF734
:10225000DDFA41F69A112CE7FEF7D8FA43F2333152
:102260003AE7FEF7D3FA42E7FEF7F6FA07E7FEF79A
:10227000F3FA8BE7FEF7F0FAABE7FEF7EDFA95E736
:10228000FEF7EAFAB5E700BFF80B0020000C0020CB
:10229000280C0020F40B0020D40B00202C0C002074
:1022A00038B5C44B1B6813F0010401D1204638BD7A
:1022B000C14C23780546E3B9172D00F27881DFE899
:1022C00015F00B013101310169007D009100A5007D
:1022D0005B003500280035002800B300BA00BA00C2
:1022E000BA00BA00BA00E300F6001C014200630025
:1022F0006300B24B1B7800202070002B00F0278178
:10230000FEF798FA0120FEF795FA0320FEF792FAFD
:10231000D2E7012318462370FEF7CAFAA8484FF403
:1023200080410022BDE83840FFF7CAB801231846B3
:102330002370FEF7BDFAA24840F6CD410022BDE869
:102340003840FFF7BDB89D4B1B78002B00F0208173
:102350000020FEF76FFA0120FEF76CFA0320FEF76B
:1023600069FA0020FEF752FA0120FEF74FFA954B6A
:1023700015221A70002499E70020FEF747FA914BC6
:1023800007221A70002491E7FEF77CFA8D4B002497
:102390001D708BE70020FEF723FA002800F0E18093
:1023A0000020FEF747FA46F26661864B8448032414
:1023B0001C700022BDE83840FFF782B80020FEF70D
:1023C0000FFA002800F0DC800020FEF733FA4FF40B
:1023D00000317C4B7A4804241C700022BDE8384050
:1023E000FFF76EB80020FEF7FBF9002800F0CD8063
:1023F0000020FEF71FFA734B714805241C7041F64C
:102400009A110022BDE83840FFF75AB80020FEF7C5
:102410004FFA6C4B6A4806241C7040F6CD410022EE
:10242000BDE83840FFF74CB8FEF72CFA654B0C229C
:102430001A7000243AE76448FFF796F8D5F11105C1
:10244000044600F08780002840F08480012D14D0DD
:10245000C82303FB05F54FF4FA704FF40043002145
:10246000C3FB05014FF47A72002333F0FFF92246D3
:1024700001465548FFF724F804460220FEF7C6F946
:102480004E4B01221A7011E74C4B1B78002B00F0C9
:1024900082800020FEF7CEF90120FEF7CBF9032061
:1024A000FEF7C8F9474B12221A700024FEE6434B90
:1024B0001B78002B75D00020FEF7BCF90120FEF739
:1024C000B9F90320FEF7B6F90020FEF79FF93D4B5E
:1024D00013221A700024E9E6384B1B78002B5DD0DC
:1024E0000020FEF7A7F90120FEF7A4F90320FEF76C
:1024F000A1F9344B00241C70D8E6304B1B78002B1C
:1025000052D00020FEF796F90120FEF793F9032040
:10251000FEF790F90120FEF779F92A4B14221A7080
:102520000024C3E60020FEF75BF9F8B10020FEF7B7
:1025300081F9022D4EF2666118BF4FF40031214B34
:102540001F481D700022BDE83840FEF7B9BFFEF7F6
:1025500083F9B1E60220FEF76DF9184B00221A70DC
:10256000A4E6FEF753F941F69A111EE7FEF74EF97D
:1025700041F69A1343F23331022D08BF1946DEE7C4
:10258000FEF744F943F2333123E7FEF73FF932E730
:10259000FEF762F9E5E6FEF75FF983E7FEF75CF91F
:1025A000A7E7FEF759F98FE7FEF756F9B2E70024DF
:1025B0007CE600BFF80B0020000C0020F40B00208C
:1025C000D40B0020280C00202C0C0020F0B5214A50
:1025D000214B1060044610F0020083B0196015D042
:1025E0001E4B1F484FF00E0E0F27102611250421F9
:1025F00040F2666283F800E0DF709E715D72FEF764
:102600008DFAA0B1E3071DD403B0F0BDE20719D4E1
:102610001448154A0021FEF741FF0028F4D1134861
:10262000134A012103B0BDE8F040FEF737BFFEF7C3
:10263000CFFA0028E6D101460E4A0F48FEF72EFFDA
:10264000E10703D50190FEF74DF901980028DFD08E
:1026500003B0F0BDF80B0020040C0020500C00204B
:10266000707503006C750300B91F000090750300BE
:10267000DD1E0000891F000068750300420700D4BA
:10268000704708B5084606F086F888B1831E022B0D
:102690000A4A06D9062313701846BDE80840FFF71A
:1026A000FFBD072313701846BDE80840FFF7F8BDCB
:1026B000024A1070BDE80840FFF7F2BD6A0C002026
:1026C00008B51C4B1B78032B27D8DFE803F0211239
:1026D00007020120BDE80840FEF798B80120FEF788
:1026E000E7F8154840F6CD410022BDE80840FEF766
:1026F000E7BE0120FEF774F880B90120FEF786F8E6
:1027000041F69A110C480022BDE80840FEF7D8BEF9
:102710000120BDE80840FEF78DB808BD0120FEF796
:1027200089F846F2666104480022BDE80840FEF7D9
:10273000C7BE00BF690C00208C0C002008B51B78B8
:10274000802B00D008BD0D4B072201201A70FEF728
:1027500047F868B10020FEF76DF80120FEF76AF82F
:10276000074841F69A110022BDE80840FEF7A8BECE
:10277000FEF74CF80120FEF749F8F1E7680C00205D
:102780006C0C002008B52C4A1378013BDBB21370A7
:1027900083B10120FEF724F8A0B9FEF737F8012035
:1027A000FEF734F8254841F69A110022BDE80840AA
:1027B000FEF786BE224B1B78032B0DD8DFE803F013
:1027C000121B2B090020FEF735F80120FEF732F826
:1027D000E8E70120FEF71AF81A4B1878BDE8084020
:1027E000FFF75EBD0120FEF725F8164B1878BDE80F
:1027F0000840FFF755BD0120FDF7F2FFA8B1012009
:10280000FEF718F846F266610F480022FEF758FE00
:102810000028E1D008BD0120FEF74AF840F6CD417E
:1028200000220948FEF74CFEF2E70120FDF7EEFF1B
:1028300041F69A11E8E700BF680C00206C0C0020FC
:10284000690C00206A0C00208C0C0020F8B51A4E90
:102850001A4B1B4F002421460C22054630461C70A3
:102860003C70FDF76FFD2146164B1748174A336041
:10287000FEF714FE044660B1284615492A4605F0C5
:10288000A5FB98B928460C4905F034FB40B9204611
:10289000F8BD01460F4A1048FEF700FE0446EBE77C
:1028A0000E480F4A0F4BE62133F0B6FA0B480C4A9C
:1028B0000D4BE52133F0B0FA5C0C0020690C0020D0
:1028C0006A0C00203D27000094750300C12600001B
:1028D0007D2600008527000098750300AC75030075
:1028E0009C75030050760300F475030008B51B4B7C
:1028F0001870032806D8DFE800F021120702012033
:10290000FDF784FF002008BD0120FDF7D1FF14482A
:1029100040F6CD410022BDE80840FEF7D1BD0120C0
:10292000FDF75EFF78B90120FDF770FF41F69A11BF
:102930000B480022BDE80840FEF7C2BD0120FDF7AC
:1029400079FF002008BD0120FDF774FF46F26661A3
:1029500003480022BDE80840FEF7B2BD690C002024
:102960008C0C002010B50446084605F014FF2246E2
:10297000034603490320BDE81040FDF721BF00BF17
:10298000A476030010B50849084A094C51F8050B14
:1029900086B0002304930092019202920394054BA7
:1029A00005F098FB06B010BDFC080020647503001C
:1029B000B9290000DC76030008B5B0B11A4B1A6BD8
:1029C000022A08D90122002110461A711963FFF763
:1029D0008DFFF0B908BD01321A6314484FF48041ED
:1029E0000022BDE80840FEF76BBD32F005FFB8B924
:1029F0000320FFF77BFF80B90B4B0121186805F01E
:102A00003AFF0028E6D00A480A4A0B4B5E2133F011
:102A100003FABDE80840FEF7F1B8FEF7EFF8EBE780
:102A2000FEF7ECF8E4E700BFFC080020AC0D002046
:102A3000F0760300B877030000770300112800D078
:102A40007047024B186805F0E2BA00BFFC0800208E
:102A5000012905D0022902D10320FDF7EBBE704702
:102A600008B50320FDF7D2FE094B1A7902B908BD5B
:102A7000002202201A71FFF739FF08B1FEF7BEF8F5
:102A800004484FF480410022BDE80840FEF718BD1D
:102A9000FC080020AC0D0020704700BF30B50020BE
:102AA00083B0FDF75DFE0020014620F070FD05F0CB
:102AB0007BFA002800F0AA80054600F08DFE05F0A4
:102AC000C7FE5A4902460320FDF76AFE284605F074
:102AD00026FE574902460320FDF762FE2846554967
:102AE0002A4605F073FA002840F08A802846012122
:102AF00005F096FA00287DD1284605F096F90028C1
:102B00006BD14D4C012323712560FEF7FDFB00289E
:102B10006DD1002149484A4AFEF7C0FC03204949CB
:102B2000FFF754FD002877D12068FFF78FFE0028BB
:102B300079D100234FF4F0314FF0A045032007E096
:102B400041FA03F2D20744BF03F5E07245F82200D0
:102B50000133202BF4D14FF0A0434FF4F031002289
:102B6000C3F80815C3F80C25237973B30120FFF7C8
:102B7000BDFE08B1FEF742F83348002132F042FDB5
:102B800008B1FEF73BF802AD4FF4807345F8043D01
:102B900020682E4905F0FCFA2A462D482D4900F000
:102BA000E3FC08B1FEF72AF82A48019932F064FDE7
:102BB00008B1FEF723F832F009FE58B9206805F095
:102BC00009FD206820F0F6FCF8E70320FFF78EFEF1
:102BD0000028F3D0FEF712F8F0E7174C2846012141
:102BE00005F049FE2560FEF78FFB002891D0FEF727
:102BF00005F88EE71848194A194BD32133F00CF920
:102C00001548164A174BD22133F006F91248134AD9
:102C1000154BC92133F000F9FDF7F0FF2068FFF7ED
:102C200015FE002885D0FDF7E9FF82E74C77030009
:102C30006877030065290000FC080020C8770300BE
:102C4000852900003D2A0000512A000022090020A9
:102C500001090020AC0C0020F076030098760300F8
:102C600084770300F4750300407703002DE9F84FE3
:102C700043001F18DFF880B1FF000BEB0704884604
:102C8000E16A0129164644D034D302293CD10130EF
:102C900000EB4000656A0BEBC0094FF0000A1DE035
:102CA000126A641BB4422346A2EB050428BF3346D4
:102CB0009C42D9F8040028BF1C46224628444146BD
:102CC00033F0E8F80BEB070325441A6A954208BF76
:102CD0000025361BA244A0445D6217D00BEB07020F
:102CE000936AAB4203F1FF34DAD8126A1344013B12
:102CF0005C1BD7E7A16A626A91429CBF246A0919EA
:102D000001398A1A964238D94FF0000A5046BDE878
:102D1000F88FA16A656AA94229D90139226AC5EBEF
:102D2000010A03440BEBC30B0BF1200BDBF804503F
:102D3000314BB24528BFB246561B0130B24500EBBD
:102D400040003FD303EBC00441466068324628444C
:102D5000C6EB0A0533F09EF8606808EB06012A46C8
:102D600033F098F8CBF804505046BDE8F88F226A4B
:102D70008C18013CC5EB040AD3E703440BEBC30BEF
:102D80000BF12007DBF82040D7F804901A4BC9EB71
:102D900004040130A64200EB40001FD303EBC00542
:102DA0004146686822464844C4EB060933F072F88D
:102DB000686808EB04014A4633F06CF8B246C7F87D
:102DC0000490A3E703EBC0034146586852462844E9
:102DD000554433F05FF8CBF8045097E703EBC0039A
:102DE000414658683246484433F054F806EB09032C
:102DF0007B60B2468AE700BF80CB00202DE9F04F10
:102E0000344C94F800E083B00546884617461E46C9
:102E1000BEF1000F2ED02369DFF8B8A0AB4256D91F
:102E20004FF000094846CDF80490FEF7D3FB6DB98A
:102E300029460D4404EBC5040C9BE3620020019B72
:102E4000FEF7D0FB002003B0BDE8F08F6B1C6900DB
:102E500003EB4303DB004A190AEBC2020AEB030E41
:102E6000C2F828904AF80380CEF804701662C2F8BF
:102E70002490DEE7184BDFF86CB0DFF86C90C4F8F4
:102E800028E04FF0100C4FF4007A0222C4F824E03E
:102E9000A361C4F858E0A3641049C4F82CE0C4F856
:102EA0005CE0C4F854E0C4F850C0E01DC4F81CB0A5
:102EB000C4F820A0C4F84C902261626133F0C6FBD4
:102EC0002046074933F0C2FB2023A371A3E74FF04C
:102ED000FF30B8E780CB0020CC770300D877030021
:102EE000DC770300DC0D0020CC0D0020F8B5134C7E
:102EF00023780BBB124ADFF858C0124FA3624FF47D
:102F0000007E10266362E362A365E36563650225C4
:102F10000D49A261A264C4F81CC0C4F820E0E01D01
:102F2000E76426652561656133F090FB204607491B
:102F300033F08CFB2023A371F8BD00BF80CB0020B1
:102F4000CC770300CC0D0020D8770300DC7703009A
:102F5000DC0D00200649074A074B9B1A03DD043BA2
:102F6000C858D050FBDC00F013F8FDF777F90000EB
:102F70000CF0030098080020B8090020FEE7FEE7E7
:102F8000FEE7FEE7FEE7FEE7FEE7FEE7FEE7FEE719
:102F900070B45E4B1B68082B19D05D4AD2F888309C
:102FA00043F47003C2F88830BFF34F8FBFF36F8FC5
:102FB0004FF01023D3F80022002A75DBD3F8043237
:102FC000002B71DB534B544A1A6070BC7047534B53
:102FD00019680029E1D14FF080404FF08052C0F8CD
:102FE0000C114F4BC0F81011C0F83815D2F804146A
:102FF000C3F82015D2F80814C3F82415D2F80C141D
:10300000C3F82815D2F81014C3F82C15D2F81414EC
:10301000C3F83015D2F81814C3F83415D2F81C14BC
:10302000C3F84015D2F82014C3F84415D2F824147C
:10303000C3F84815D2F82814C3F84C15D2F82C144C
:10304000C3F85015D2F83014C3F85415D2F834141C
:10305000C3F86015D2F83814C3F86415D2F83C14DC
:10306000C3F86815D2F84014C3F86C15D2F844645C
:103070002C4C2D49C3F870652C4D2560FB23C1F8FD
:103080001835D0F8E43ED2F8581204F50F3423F086
:103090000F0204F56D7401F00F0313434FF4007237
:1030A000C0F8E43E226078E7214B0122C3F80425F2
:1030B000D3F80024002AFBD04FF0102312221C4921
:1030C000C3F80022D1F80034002BFBD04FF01023BE
:1030D00012221749C3F80422D1F80024144B002A05
:1030E000FAD00022C3F80425D3F80024002AFBD02C
:1030F000BFF34F8F06490F4BCA6802F4E0621343D7
:10310000CB60BFF34F8F00BFFDE700BF3001001061
:1031100000ED00E0300900200090D00334010010E1
:1031200000C000408C56004000F000404881030081
:1031300000E001400400FA0510B9024B01221A60B8
:10314000704700BF005000402DE9F04F394A3A4B1C
:1031500010604FF080521960D2F85034D2F85414F5
:10316000364A37481060DFB2C3F3072087F088087B
:10317000C3F3074380EA0808DFF8E0E0314E324C41
:10318000324D83EA080A4FF00108CEF80080C1F3FF
:10319000072BC1F307494FF03F0E4FF00008C6F868
:1031A00000E085B0C4F800805FFA81FC06248BEA59
:1031B0000902C5F804434FEA116E43EA07468CEA58
:1031C00002020CBA2249C5F804138EEA02028DF8F5
:1031D00007A046EA002603214FF0440A8DF80500B7
:1031E0008DF806308DF80C208DF80D108DF80470D8
:1031F0008DF809B08DF80A908DF808C08DF80BE0B5
:1032000001A8C5F894650A21C5F89045C5F8A0A5A0
:1032100032F0B4FA0F4B104AC3F800805A60FEF740
:10322000EBF918B185280CBF4046032005B0BDE876
:10323000F08F00BFFC0F0020F80F00208C560040DC
:10324000488103002C5600403C560040005000408E
:1032500080000800F00F0020393100001C560040AB
:1032600030B4084B084901242022E025C1F8044469
:103270008C60C3F8802183F805531A60002030BCAD
:10328000704700BF00E100E00050004009B90C2089
:10329000704770B40C4D0D4A00232B6083B02D682D
:1032A0000195019EC2F81005C90040F6F8740C4063
:1032B000102501211846C2F81C45C2F80453D160FC
:1032C00003B070BC704700BF105100400050004078
:1032D000024B01225A600020704700BF005000409E
:1032E000F0B5914BD3F804218BB0002A60D0D3F80D
:1032F000002391075CD58D4A00211160126801926C
:10330000019AD3F80821002A40F0CD800223032B34
:103310001C4600F0FB80012B00F0DE80022B07D161
:10332000834C237813B98348FEF7CAF9012323702D
:103330007D4BD3F8182122B1D3F80023520600F1B7
:103340009F80794BD3F810211AB1D3F80023D70608
:103350007BD4754BD3F84C211AB1D3F80023160354
:1033600043D4714BD3F828211AB1D3F80023550563
:103370002FD46D4BD3F81C21C2B1D3F8002314060F
:1033800014D56D4AD3F80404002111601268099223
:10339000C007099A06D5694A107818B10120C3F808
:1033A00004041170604B0122C3F804240BB0F0BD7B
:1033B0005D4BD3F80821002ABAD0D3F800335A075E
:1033C000B6D55F4B00221A601B680293029B012353
:1033D0009DE75C4AD3F80C14002111601268089232
:1033E0000D220899C3F80C24C3E7574C5748554A97
:1033F000DFF86CE1564E574D00212160246805949A
:10340000059C01600068069006981160126807929A
:103410004FF48864012210270D20DDF81CC0C3F88A
:1034200010E5C3F81475DA61C3F80443C3F80C045B
:10343000C3F80424346802232B60002C91D0464B3F
:103440000A4618680B46A0478BE74449444D40485C
:1034500000220A600968049101241021049EC3F827
:103460000813C3F81055C3F81415DC610468002C68
:103470003FF46FAF384B032118681346A04768E745
:103480003249D3F82435364A002008600968039190
:1034900003991178302912D01378502B40D0224B49
:1034A0000122DA614DE7D3F800335B077FF52EAFD9
:1034B000234B19601B680293029B032327E72449CF
:1034C0000C68002C3FF43DAF2349C3F3C8030868E0
:1034D000023B0221A04734E71E4D224B124E1C60D6
:1034E000B460FEF727F91248194B00224FF48861A7
:1034F0000270C6F808131E682C60002E3FF418AF47
:10350000154B012118681346B04711E7064B114DC2
:10351000D3F83C342A681A427FF402AF0124DCE776
:10352000064B01221A70BAE70050004004510040D7
:10353000EC0F0020F00F00201C5100400010002074
:1035400008510040285100404C51004018510040A3
:10355000FC0F002034090020F80F0020105100401B
:10356000DC0F00201050004070B504460B480E469A
:10357000154600F07BF87CB1204600F023F80146A8
:10358000064800F077F830B931462A460348BDE8CE
:10359000704000F031B870BD072070BD38090020C0
:1035A00038B50446154649B102792B689A4201D9CB
:1035B000042038BD0846216832F06CFC23792B606A
:1035C000002038BD08B5034628B1064A06481360F6
:1035D0002923137108BD0548054A064B482132F0DE
:1035E0001BFC00BF081000204409002010780300D5
:1035F000E4770300607803002DE9F043804683B050
:1036000040B3914632B3076827B3836863B300269B
:103610000D46043F34460CBB012B0CBFC02180215A
:10362000D9F800309B1B019357F8040F2A4601ABD1
:1036300000F02EF8013470B9019B1E4405B11D4401
:10364000D8F80830A342E6D80020C9F8006003B0DB
:10365000BDE8F0830E2003B0BDE8F083611C994201
:103660000CBF40210021DBE71E46EDE7002383600D
:10367000704700BF83684268934201D304207047BB
:10368000026842F82310836801338360002070478A
:103690002DE9F041044684B018B316464578027A05
:1036A0002A443DB1D51D46B18A061ED0072004B07C
:1036B000BDE8F081951D002EF6D1B0462769019333
:1036C0007FB16069314603AAB8470028EFD1019B5A
:1036D000039A16B111BAC8F800102A441A600020E3
:1036E000E5E70E2004B0BDE8F0811A68AA4203D2D3
:1036F000042004B0BDE8F08131702278B046114357
:1037000008F8021B227A727062787AB9063630465F
:10371000E168227A019332F0BDFB217A6278019B45
:103720000E444AB91A68521B0392C7E741F00801D8
:103730003170B2710736EAE73046616832F0AAFBB1
:103740006278019B1644EDE70EB410B5A3B025AB2B
:10375000044653F8042B0193802102A833F00AF9A0
:1037600002A832F090FF236882B21B6802A92046AB
:10377000984723B0BDE8104003B07047B0F8063654
:10378000B0F80826C3F580618A42CCBFA0F80A16BB
:10379000A0F80A26B0F80A1621B100F20620184453
:1037A0001FF09CBF7047000010B50A4B0360044631
:1037B00000F20C6000F03AFB0023A4F80432A4F8F5
:1037C0000636A4F80836A4F80A361FF075FF20461E
:1037D00010BD00BF8878030010B5044C0146204698
:1037E000FFF7E2FF024B1C6010BD00BF1810002065
:1037F0001010002010B5B0F80432C2180446D27878
:103800000A2A06D1013B9BB2A0F8043203440022ED
:103810001A71B4F80432E218D2780D2A06D1013BAD
:103820009BB2A4F80432234400221A7104F20C6003
:103830002346B4F80422211D03F024F90020A4F843
:10384000040210BD2DE9F8432A4FDFF8AC80DFF801
:10385000AC9004468E180D46B542294648D20B78E6
:103860000A2B05F1010519D014D8082B2CD0B4F877
:103870000432B3F5007FEFDA236801221B6820468B
:103880009847B4F804325A1CA4F8042215F8012C05
:1038900023442BE00D2B01D07F2BE7E72368022286
:1038A0001B68394620469847B4F804322BB12344AC
:1038B00000221A712046FFF79DFF236802221B6831
:1038C000414620469847C7E7B4F80432002BC3D0DE
:1038D000236803221B68494620469847B4F80432FF
:1038E000013B9BB2A4F80432002223441A71B3E7CF
:1038F000BDE8F8837D7803007B78030078780300C7
:10390000024B0A4601461868FFF79CBF10100020C2
:10391000B0F80A360BB9FFF731BF704770B5B0F891
:103920000846C4F58064A4B29442A8BF14460D466C
:103930006B1A9C420FDDB0F80826B0F8063615F871
:10394000016B1344C3F309030344013283F8066295
:10395000A0F80826ECE7FFF7DBFF204670BDB0F8C3
:103960000A16B0F806260A44C2F30902A0F8062691
:10397000B0F80826521AA0F808260022A0F80A2655
:10398000FFF7FCBE014B1868FFF7E9BF10100020DD
:10399000F8B5074E074D07460024786BA259036817
:1039A00029465B680C349847B4F53D7FF5D1F8BDE6
:1039B000C0820300148B0300D0F82C0104F027BB55
:1039C000D0F82C0104F021BB70B5456B2B68044680
:1039D000D0F82C015E6804F0EAFE0549024628464C
:1039E000B047606B03490368BDE870405B681847E7
:1039F000187A03003A7B030070B5446B0B462168CC
:103A000018464D68114622F0A4FB2B460246024997
:103A10002046BDE870401847148B0300406B0249F4
:103A200003685B68184700BF3A7B030030B5044663
:103A30008BB001A9D0F82C0104F083FD606BBDF8B8
:103A4000042003682B495B689847606BBDF806202B
:103A5000036829495B689847606BBDF808200368D4
:103A600026495D68BDF80A30A847606BBDF80C2098
:103A7000036823495D68BDF80E30A847606BBDF848
:103A8000102003681F495D68BDF81230A847606BBD
:103A9000BDF8142003681C495D68BDF81630A847BE
:103AA000606BBDF81820036818495D68BDF81A30CE
:103AB000A847606BBDF81C20036815495D68BDF818
:103AC0001E30A847606BBDF82020036811495D686F
:103AD000BDF82230A847606BBDF8242003680E496A
:103AE0005D68BDF82630A8472046FFF797FF0BB06A
:103AF00030BD00BF54800300608003006B80030072
:103B00007D8003008F8003009C800300A980030058
:103B1000B6800300C3800300D1800300F0B5224EBD
:103B20008FB00446002509AAE9B2D4F82C0104F0AC
:103B300082FF002833D19DF83630DB072DD5606B2E
:103B4000BDF8341007680691BDF83210BDF8263074
:103B5000BDF8242049BA89B20591BDF8301049BAA0
:103B600089B20491BDF82E1049BA89B20391BDF80B
:103B70002C1049BA89B20291BDF82A1049BA89B20B
:103B80000191BDF8281049BA89B200915BBA52BAC6
:103B90007F689BB292B23146B8470135C3E72046F1
:103BA000FFF73CFF0FB0F0BD787F030038B5044647
:103BB00004F04EFE636B05491A68556802461846C4
:103BC000A8472046BDE83840FFF728BF148B030004
:103BD00070B5044659B9406B664903685B689847FD
:103BE000606B65490368BDE870405B6818476349CE
:103BF000106832F021FD002840F0BB80D4F82C0181
:103C000004F093FB0546606B2A6803685C495B68B7
:103C10009847606B6A6803685A495B689847606BAD
:103C2000AA68036858495B689847606BEA6803684C
:103C300056495B689847606B2A69036854495B681A
:103C40009847606B6A69036852495B689847606B84
:103C5000AA69036850495B689847606BEA69036822
:103C60004E495B689847606B2A6A03684C495B68F9
:103C70009847606B6A6A03684A495B689847606B5B
:103C8000AA6A036848495B689847606BEA6A0368F8
:103C900046495B689847606B2A6B036844495B68D8
:103CA0009847606BAA6B036842495B689847606BF2
:103CB000EA6B036840495B689847606B2A6C03684D
:103CC0003E495B689847606B6A6C03683C495B6877
:103CD0009847606BAA6C03683A495B689847606BC9
:103CE000EA6C036838495B689847606B2A6D036823
:103CF00036495B689847606B6A6D036834495B6856
:103D00009847606BAA6D036832495B689847606B9F
:103D1000EA6D036830495B689847606B2A6E0368F8
:103D20002E495B689847606B6A6E03682C495B6834
:103D30009847606BAA6E03682A495B689847606B76
:103D4000EA6E036828495B689847606B2A6F0368CE
:103D500026495B689847606B6A6F036824495B6813
:103D60009847606BAA6F036822495B68BDE87040A2
:103D7000184770BD347C03003A7B03003A7C030093
:103D80003E7C03004C7C0300607C0300767C0300D7
:103D90008F7C0300A17C0300BC7C0300CD7C03006E
:103DA000E27C0300F57C03000F7D0300217D03000E
:103DB000337D0300467D0300547D0300687D0300CE
:103DC0007E7D03008F7D0300A47D0300B77D03008B
:103DD000D17D0300E37D0300017E03001E7E03000E
:103DE000357E03004C7E03006D7E03008B7E030056
:103DF0009E7E0300B17E030010B50446D0F82C016E
:103E000004F075FD636B1A68526838B104491846AE
:103E100090472046BDE81040FFF700BE0149F6E795
:103E2000C27F0300C97F030000BA704770B5044623
:103E300000250E462063294645632C223830FCF7C6
:103E400081FA0823A4F864300123A4F866304FF403
:103E50007A73A36606F501433833E366174B23678D
:103E600004F16C03E36729466467A56784F8EC50A6
:103E7000C4F82C61602204F18000FCF763FA22464A
:103E80000F49304604F0A2F82246D4F82C010D491F
:103E900004F0E2FC0C4BC4F8E03004F1E001C4F89B
:103EA000E440D4F82C0104F025F83E22294604F120
:103EB000ED00FCF747FA204670BD00BFF562000038
:103EC000A96B0000196C0000B16100002DE9F04100
:103ED000074690460C4632F0D6FB3D1800F001062E
:103EE0000130B8EB500F12D33846214600228542EC
:103EF00021D910F8013BA3F14107052F0BD8373B1F
:103F00001343DBB29EB10B7000260131EEE74FF098
:103F1000FF30BDE8F081A3F16107052F01D8573BC1
:103F2000EEE7303BDBB2092BF1D81343EAE71B0184
:103F3000DAB20126DBE7081BBDE8F08170B50C465C
:103F400019B9BDE87040FFF769BD456B2B6808469D
:103F50005E6805F013FE22460346B4462846024931
:103F6000BDE87040604700BF0A8B030070B505468E
:103F70000E46A9B9D0F82C0104F094FC0446686BF5
:103F800003685B6844B111499847304601462846AA
:103F9000BDE87040FFF7D2BF0D4998472046F5E7CE
:103FA00014680C49204632F047FB28B90121D5F8A6
:103FB0002C0104F091FCE9E70749204632F03CFB74
:103FC00001460028F3D00720E0E700BFC27F0300CE
:103FD000C97F0300349803002498030010B50446F9
:103FE00003F098FD01462046BDE81040FFF7A6BF4C
:103FF00010B5436B0446D0F82C0103F073FB014667
:104000002046BDE81040FFF799BF000070B5054697
:1040100071B9D0F82C0104F015F80446686B0368F8
:104020005B681CB10F49984700200CE00E49FAE785
:1040300014680E49204632F0FFFA50B90121D5F834
:104040002C0103F0EDFF01462846BDE87040FFF764
:1040500075BF0749204632F0EFFA01460028E3D148
:10406000EDE700BF977F03009C7F03006BB3030065
:10407000A37F030037B504466946D0F82C0104F04D
:104080008EFB054608BB606B009A036812495B68AB
:104090009847606B9DF80420036810495B68984757
:1040A000606B9DF8052003680D495B689847606B5D
:1040B0009DF8062003680B495B689847606B9DF884
:1040C0000720036808495B68984729462046FFF7A0
:1040D00035FF03B030BD00BFE6800300F980030068
:1040E000108103000981030023810300F0B513460A
:1040F00085B00446D9B9D0F82C01154F04F0A3FCC3
:10410000461E00F10F05606B16F8012F0368394653
:104110005B689847B542F6D1606B0E4903685B68EF
:10412000984700212046FFF709FF05B0F0BD102297
:1041300069461868FFF7CAFE102806D16946D4F808
:104140002C0104F085FC0146ECE70621EAE700BFFC
:10415000DFA30300398B03002DE9F341002304465C
:104160008DF80430002933D1D0F82C0104F074FA12
:104170008DF80400C00704D5606B444903685B6890
:1041800098479DF80430990704D5606B404903684F
:104190005B6898479DF804305A0704D5606B3D4929
:1041A00003685B6898479DF804301B0704D5606B73
:1041B000394903685B689847606B384903685B68F6
:1041C00098470021204602B0BDE8F041FFF7B6BE97
:1041D00016684FF0000EF446F0467746013E194649
:1041E00018461D4616F8012F5AB36E2A26D018D845
:1041F000642A20D02DB19DF804306CF300038DF8B3
:10420000043028B19DF804306EF341038DF804307A
:1042100029B19DF8043067F382038DF8043006213C
:10422000D0E7722A04D0732AE4D101208646D9E768
:104230000125AC46D6E701210F46D3E70123984676
:10424000D0E72DB19DF804206CF300028DF8042016
:1042500028B19DF804206EF341028DF8042029B1A5
:104260009DF8042067F382028DF804202BB19DF89D
:10427000043068F3C3038DF804309DF80410D4F8BB
:104280002C0104F011FA01469CE700BF769303006D
:1042900020AF03004CC8030059930300398B03007F
:1042A00010B50446D0F82C0103F0BAFD01462046B3
:1042B000BDE81040FFF742BE2DE9F04186B001AFE6
:1042C00004463946D0F82C0104F076FA0646002858
:1042D00031D1606B1B490368DFF880805B689847C9
:1042E0003546606B7A5D036841465B6801359847E7
:1042F000082DF6D1606B144903685B689847606BC2
:10430000BDF80C20036811495B689847606B9DF805
:10431000112003680E495B689847606B9DF8122076
:1043200003680C495B689847606B9DF8132003682D
:1043300009495B68984731462046FFF7FFFD06B004
:10434000BDE8F081ED7A0300398B0300F87A0300B1
:10435000037B0300197B0300307B0300DFA3030012
:1043600038B5044671B9D0F82C0103F0CBFF20B169
:10437000D4F82C011FF028FB48BB606B1749036879
:104380005B6828E015681649284632F055F980B96F
:104390001449D4F82C01224603F0AFFF0121D4F8D0
:1043A0002C0103F0B4FF01462046BDE83840FFF77A
:1043B000C5BD28460C4932F03FF9054660B90146B3
:1043C0000246D4F82C0103F098FF2946E7E7606B1A
:1043D000064903685B6898470020E4E7A281030070
:1043E0008981030029640000908103009881030003
:1043F00070B505460E46A1B9D0F82C0104F098FA24
:104400000446686B03685B6844B1114998473446B9
:1044100021462846BDE87040FFF790BD0D499847FA
:10442000F6E716680C49304632F006F9044628B91A
:104430000121D5F82C0104F080FAE9E7074930465C
:1044400032F0FAF8044608B90146F2E70624DFE73D
:1044500098810300A28103008981030090810300F9
:1044600038B5044600292BD1D0F82C0104F093F97B
:10447000636B042820D8DFE800F0030F13171B003C
:104480001A68254952681846904700200146204680
:10449000BDE83840FFF752BD1A6820495268F2E77C
:1044A0001A681F495268EEE71A681E495268EAE71F
:1044B0001A681D495268E6E71A681C495268E2E723
:1044C00015681B49284632F0B7F820B9D4F82C01FA
:1044D00004F056F9DAE71749284632F0ADF820B96A
:1044E000D4F82C0104F051F9D0E71349284632F0F2
:1044F000A3F820B9D4F82C0104F05DFAC6E70F49FF
:10450000284632F099F820B9D4F82C0104F065FA65
:10451000BCE70620BAE700BF4E7A0300597A0300D1
:10452000647A03006C7A0300757A03007E7A0300D4
:104530008E7A0300977A03009D7A0300A47A030021
:10454000002938B5044617DD15680C49284632F0B5
:1045500073F850B90121D4F82C0104F08CF901460C
:104560002046BDE83840FFF7E9BC0549284632F04F
:1045700063F801460028EED00620F0E7BD85030071
:104580002F7C0300F0B50F1E87B00546164628DDC8
:1045900014681749204632F04FF8B8B9012F20D0DF
:1045A000144B0393144B0193022F144B00934FF0C1
:1045B00000040CBF0246B26804950294104B716867
:1045C000D5F82C0103F086FD00210BE00D492046B3
:1045D00032F032F80028F7D1D5F82C0103F082FD33
:1045E000F2E70621284607B0BDE8F040FFF7A6BC79
:1045F000BD850300796A0000D47A0300E47A0300E1
:10460000C97A03002F7C0300F0B5134685B0044639
:10461000D9B9D0F82C01154F04F05DF8461E00F111
:104620000F05606B16F8012F036839465B689847E1
:10463000B542F6D1606B0E4903685B68984700216C
:104640002046FFF77BFC05B0F0BD102269461868D4
:10465000FFF73CFC102806D16946D4F82C0104F081
:104660003FF80146ECE70621EAE700BFDFA30300BD
:10467000398B0300F8B505460C4689B9D0F82C01F2
:1046800004F04DF86E6B0A49336810225F680346E8
:104690003046B84721462846BDE8F840FFF74EBCF3
:1046A0001168D0F82C0104F03EF80146F3E700BF92
:1046B000828103002DE9F041084E07460D469046E1
:1046C0000C46631B984507DD786B14F8012B0368D3
:1046D00031465B689847F4E7BDE8F081DFA303004B
:1046E0002DE9F041B1F1000886B0054617462CDCF3
:1046F000D0F82C0103F0DBFD6B6B1A68526898B19F
:104700003C493D4E18469047002403AAE1B2D5F833
:104710002C0103F0C0FD48B1002421462846FFF7D4
:104720000DFC06B0BDE8F0813449EAE79DF814308D
:104730004BB103A928460822FFF7BCFF686B03684A
:1047400031465B6898470134DFE716682C493046EC
:1047500031F072FFB8B9B8F1010F12D0082201A9E7
:104760007868FFF7B3FB08280BD101A9D5F82C0115
:1047700003F07CFD01A9D5F82C0103F077FD00289A
:10478000CAD00624C9E71F49304631F055FF044618
:1047900020B9D5F82C0103F079FDBEE71A4930465F
:1047A00031F04AFF044628B90146D5F82C0103F040
:1047B0007AFDB2E71549304631F03EFF044608B9AC
:1047C0000121F2E71249304631F036FF0446002855
:1047D000A2D1B8F1010FD4D0082201A97868FFF75F
:1047E00075FB0828CDD101A9D5F82C0103F049FDAE
:1047F00093E700BF98810300398B0300A281030077
:10480000A87F0300AC7F030090810300898103002F
:10481000B27F030037B505460C46A1B96946D0F80A
:104820002C0103F0B3FC082269462846FFF742FF3B
:10483000686B064903685B68984721462846FFF77E
:104840007DFB03B030BD0621F8E700BF398B0300C4
:1048500037B505460C46A1B96946D0F82C0103F0DE
:1048600097FC082269462846FFF724FF686B064933
:1048700003685B68984721462846FFF75FFB03B053
:1048800030BD0621F8E700BF398B03002DE9F04168
:10489000B1F1000886B00546174639DCD0F82C0186
:1048A00003F0E0FC6B6B1A685268A0B14A494B4EAA
:1048B0004B4F18469047002403AAE1B2D5F82C01CB
:1048C00003F0C4FC48B1002421462846FFF736FB1C
:1048D00006B0BDE8F0814349E9E79DF81530DA07F5
:1048E00014D5082203A92846FFF7E4FE9DF81530E9
:1048F0009B0706D5686B9DF91420036839465B68F1
:104900009847686B036831465B6898470134D3E782
:1049100016683549304631F08FFE044630BBB8F199
:10492000010F16D0082201A97868FFF7CFFA0828EE
:104930000FD1B8F1020F0ED022462146B86831F0EF
:1049400057FF01A942B2D5F82C0103F063FC0028FF
:10495000B9D00624B8E701A9D5F82C0103F04FFC23
:1049600001A9D5F82C0103F04AFCF0E71F493046B5
:1049700031F062FE044620B9D5F82C0103F061FC49
:10498000A2E71B49304631F057FE044628B90146DC
:10499000D5F82C0103F062FC96E71649304631F059
:1049A0004BFE044608B90121F2E71349304631F0C5
:1049B00043FE0446002886D1B8F1010FC9D0082271
:1049C00001A97868FFF782FA0828C2D101A9D5F8B1
:1049D0002C0103F031FC77E798810300398B030049
:1049E0004AC80300A2810300A87F0300AC7F030034
:1049F0009081030089810300B27F030037B513461D
:104A000005460C4699B9D0F82C0103F0A4FB082206
:104A100001462846FFF74EFE686B0D4903685B6848
:104A2000984721462846FFF789FA03B030BD08228F
:104A300069461868FFF74AFA002801DA0621F1E70B
:104A40006946D5F82C0103F08AFB0146EAE700BF6E
:104A5000398B030037B5134605460C4699B9D0F893
:104A60002C0103F0C5FD082201462846FFF722FE6F
:104A7000686B0D4903685B68984721462846FFF735
:104A80005DFA03B030BD082269461868FFF71EFAC8
:104A9000002801DA0621F1E76946D5F82C0103F078
:104AA000ABFD0146EAE700BF398B030013B50022D6
:104AB0000C4601A931F09CFE019B20601B78002B65
:104AC00014BF0620002002B010BD0000F7B5054657
:104AD0000C4689B9466BD0F82C0133685F6803F047
:104AE0001AFB0C4902463046B84720460146284684
:104AF000FFF724FA03B0F0BD01A91068FFF7D6FF55
:104B00000028F3D19DF80410D5F82C0103F007FB21
:104B1000ECE700BF0D7A03002DE9F04F002989B0C2
:104B2000044640F3A48015689849284631F084FD76
:104B300000282ED09649284631F07EFD002840F00E
:104B40009880606B934903685B689847606B9249F3
:104B500003685B6898470126D4F82C01DFF894A21B
:104B600003F0D4FE00278146F9B249450FDA0DF172
:104B700004084246D4F82C0103F04DFF054650B11D
:104B800017286FD0606B854903685B6898470025DC
:104B9000F4E00646E0E7039B002B63D0606BBDF8B2
:104BA000162003685B68002E5ED07D49DFF848B2AE
:104BB0009847606BBDF81420036851465B689847BE
:104BC000606B039A036877495B689847606B049A47
:104BD000036874495B689847606B9DF81920036807
:104BE00071495B689847606B9DF8182003686F49AE
:104BF0005B689847606B9DF81C2003686C495B6894
:104C000002F001029847606B9DF81C200368684918
:104C10005B68C2F340029847606B9DF81C200368F4
:104C200063495B68C2F380029847606B9DF81C2063
:104C300003685F495B68C2F3C0029847606B5D49D7
:104C400003685B689847606B18F80520036859464D
:104C50005B6801359847082DF5D1606B56490368AC
:104C60005B68984701377FE754499847FAE706257C
:104C700084E028466946FFF719FF054600287DD1E4
:104C800001AF3A46BDF80010D4F82C0103F0BBFE8A
:104C90000546002872D1606BBDF8162003684849AC
:104CA0005B68DFF854819847606BBDF81420036897
:104CB00044495B689847606B434903685B68984761
:104CC0002E46606BBA5D036841465B6801369847C3
:104CD000082EF6D1606B314903685B689847606BBA
:104CE0003A4903685B6898479DF81C30D80704D59B
:104CF000606B374903685B6898479DF81C309907DB
:104D000004D5606B334903685B6898479DF81C3095
:104D10005A0704D5606B304903685B6898479DF873
:104D20001C301B0704D5606B2C4903685B689847EF
:104D3000606B1A4903685B689847606B9DF81820A0
:104D4000036827495B689847606B039A03682549A5
:104D50005B689847606B049A036823495B689847CF
:104D6000606B9DF81920036820495B689847606B69
:104D70009DF91A2003681E495B689847294620461A
:104D8000FFF7DCF809B0BDE8F08F00BFEE87030045
:104D9000237903002979030080790300398B03000C
:104DA000D7790300E8790300F0790300F77903006D
:104DB000FE7903008D8203008F7B0300798203005C
:104DC000037A0300127A0300ED7A03001F7A0300CE
:104DD0007693030020AF03004CC8030059930300EF
:104DE000267A0300357A0300307B0300037B03003F
:104DF000437A0300DE790300DFA30300F7B505461D
:104E00000C4689B9466BD0F82C0133685F6803F013
:104E10007DFD0C4902463046B847204601462846EB
:104E2000FFF78CF803B0F0BD01A91068FFF73EFE54
:104E30000028F3D19DF80410D5F82C0103F073FD80
:104E4000ECE700BF0D7A0300F7B505460C4681B9C3
:104E5000466BD0F82C0133685F6803F0C0FB0B4948
:104E600002463046B84721462846FFF767F803B0A8
:104E7000F0BD01A91068FFF719FE04460028F2D121
:104E80000199D5F82C0103F0AEFBECE70D7A030095
:104E900073B5044679B9456BD0F82C012B685E6870
:104EA00003F06AFD0A4902462846B0472046FEF74D
:104EB000B5FD02B070BD01A91068FFF7F7FD00282D
:104EC000F4D10199D4F82C0103F05BFDEEE700BFAB
:104ED0000D7A030010B5002986B004461FDD05A930
:104EE0001068FFF7E3FDE0B9059B012199400F4BE6
:104EF00001930023029400934FF6FF72D4F82C0123
:104F000003F0FAFC68B9606B094903685B6898476D
:104F1000606B084903685B68984706B010BD0021C4
:104F2000E5E701462046FFF709F8F6E7AD6900001E
:104F3000C67E03001F7F03002DE9F04790B005AF48
:104F40000E4635230446154600212C22384601938F
:104F5000FBF7F8F9002E51DD2949286831F06CFB88
:104F600000284BD194F8EC90B9F1000F40D1012EFC
:104F700044D0D5F804A0504631F085FB3D283DD8FB
:104F800004F1ED085146404631F060FB2C224946C1
:104F90003846FBF7D7F90123022E8DF838300BD0B5
:104FA000A96809A80DF015FD18BB032E09D001A9A9
:104FB000E868FFF77BFD03E0124909A80DF009FD41
:104FC000B8B9019BADF8363000238DF810300E4A89
:104FD000D4F82C01CDF80880234602A9039702F0EB
:104FE00084FF30B9012384F8EC3010B0BDE8F087BD
:104FF000052001462046FEF7A1FFF6E70720F8E767
:105000009078030098780300415E00004B1E012B4E
:105010002DE9F34105460F46164644D8D2F80080E4
:105020002349404631F008FB0446F8B9012F0BD163
:105030006E6BD5F82C0133685F6803F090FB024675
:105040001C493046B8470AE001A97068FFF72EFDF9
:10505000044620B90199D5F82C0103F084FB2146C0
:105060002846FEF76BFF02B0BDE8F08112494046CA
:1050700031F0E2FA0446C0B9012F07D16E6BD5F8C2
:105080002C0133685F6803F073FBD8E701A97068EF
:10509000FFF70CFD04460028E1D10199D5F82C0159
:1050A00003F06AFBDBE70624D9E70024D7E700BF5B
:1050B000708103000D7A030078810300F7B505467F
:1050C0000C4681B9466BD0F82C0133685F6803F059
:1050D00039FC0C4902463046B84721462846FEF7BF
:1050E0002DFF03B0F0BD01A91068FFF7DFFC0446F7
:1050F0000028F2D19DF80410D5F82C0103F026FC0D
:10510000EBE700BF0D7A03007FB50E1E054614467F
:1051100006DC072421462846FEF710FF04B070BDC8
:1051200008220DEB02012068FEF7D0FE002822DBEA
:10513000012E11D10DF1030202A9D5F82C0103F0C3
:10514000BAF804460028E4D1686B9DF80320036890
:105150000A495B689847DDE7606801A9FFF7A6FC8C
:1051600004460028D6D19DF80420D5F82C0102A9C8
:1051700003F0B2F8CEE70624CCE700BF0D7A0300B7
:10518000F7B505460C4681B9466BD0F82C0133685B
:105190005F6803F0FBFB0C4902463046B8472146E6
:1051A0002846FEF7CBFE03B0F0BD01A91068FFF75B
:1051B0007DFC04460028F2D19DF80410D5F82C019E
:1051C00003F0E8FBEBE700BF0D7A0300F7B50546F7
:1051D0000C4689B9466BD0F82C0133685F6802F041
:1051E000E5FF0C4902463046B847204601462846AE
:1051F000FEF7A4FE03B0F0BD01A91068FFF756FC4E
:105200000028F3D1BDF80410D5F82C0102F0D2FF2C
:10521000ECE700BF187A0300F7B505460C4689B9DC
:10522000466BD0F82C0133685F6803F02CFC0C4906
:1052300002463046B847204601462846FEF77EFE25
:1052400003B0F0BD01A91068FFF730FC0028F3D1CE
:105250009DF90410D5F82C0103F01AFCECE700BF0F
:105260000D7A0300F7B505460C4699B9466BD0F8A0
:105270002C0133685F6802F0B9FF4FF47A720D4970
:10528000B0FBF2F23046B84721462846FEF756FEFC
:1052900003B0F0BD01A91068FFF708FC0446002820
:1052A000F2D1019BD5F82C014FF47A71594302F0E9
:1052B000A1FFE9E70D7A0300002913B5044610DDCC
:1052C00001A91068FFF7F2FB28B99DF80410D4F883
:1052D0002C0103F06BFB01462046FEF72FFE02B0C7
:1052E00010BD0620F7E700002DE9F04F002987B038
:1052F000044640F38B8015688049284631F09CF9BC
:1053000000282ED07E49284631F096F900287FD11A
:10531000606B7C4903685B689847606B7A490368F7
:105320005B6898470126DFF83092DFF830A200274B
:105330000DF104085FFA87FB42465946D4F82C0168
:1053400003F071FB054670B1606B704903685B68E0
:105350009847002529462046FEF7F0FD07B0BDE836
:10536000F08F0646DFE79DF81430D90748D5606B0B
:1053700003685B68002E45D09DF80E20DFF8E0B191
:1053800049469847606BBDF80C20036851465B683E
:105390009847606B9DF80F2003685D495B689847EC
:1053A000606B9DF8102003685A495B689847606BF2
:1053B0009DF81120036858495B689847606B9DF819
:1053C0001220036855495B689847606B9DF813206D
:1053D000036853495B689847606B524903685B6890
:1053E0009847606B18F80520036859465B680135DB
:1053F0009847082DF5D1606B4B4903685B68984767
:10540000013795E75A4649499847F9E70625A1E744
:1054100028466946FFF74AFB054600289AD101AFA6
:105420003A46BDF80010D4F82C0103F0FCFA05460A
:1054300000288FD1606B9DF8142003683C495B689D
:1054400002F0010298479DF81430DA0782D5606BAC
:105450009DF80E20036837495B689847606BBDF87C
:105460000C20036834495B689847606B9DF80F20F7
:10547000036832495B6892029847606B9DF814207C
:1054800003682F495B68C2F3400298479DF81430C7
:105490009B077FF55FAF606B2A490368DFF8C08028
:1054A0005B6898472E46606BBA5D036841465B684F
:1054B00001369847082EF6D1606B144903685B6883
:1054C0009847606B9DF8102003681F495B689847F8
:1054D000606B9DF8112003681C495B689847606BFE
:1054E0009DF8122003681A495B689847606B9DF825
:1054F0001320036817495B6898472BE7EE87030082
:1055000023790300417B0300947B0300398B030064
:10551000E77B0300EE7B0300F0790300F57B0300DB
:10552000D77903008D8203008F7B0300798203000B
:10553000FC7B03002A810300127A0300087C03002D
:10554000197C0300ED7A0300247C0300037B030035
:10555000197B0300307B030091820300DE79030096
:10556000DFA30300F7B505460C4681B9466BD0F8BA
:105570002C0133685F6803F035FA0C490246304667
:10558000B84721462846FEF7D9FC03B0F0BD01A973
:105590001068FFF78BFA04460028F2D19DF804103A
:1055A000D5F82C0103F022FAEBE700BF0D7A0300D7
:1055B000F7B505460C4681B9466BD0F82C01336827
:1055C0005F6803F017FA0E4902463046B847214695
:1055D0002846FEF7B3FC03B0F0BD01A91068FFF741
:1055E00065FA04460028F2D101994B1EFE2B05D81E
:1055F000C9B2D5F82C0103F001FAE8E70724E6E781
:105600000D7A0300F7B505460C4681B9466BD0F814
:105610002C0133685F6803F0C1F90C49024630463B
:10562000B84721462846FEF789FC03B0F0BD01A922
:105630001068FFF73BFA04460028F2D19DF80410E9
:10564000D5F82C0103F0AEF9EBE700BF0D7A0300AB
:1056500030B5002985B0044620DD03A91068FFF7A6
:1056600025FAA8B9039B01259D40606B0C4903688E
:105670005B689847606B0B4903685B6898470094C8
:10568000094BD4F82C010022294602F053FE18B130
:1056900001462046FEF752FC05B030BD0025E4E788
:1056A000C67E03001F7F0300AD690000F7B5054605
:1056B0000C4681B9466BD0F82C0133685F6802F064
:1056C0006CFD0C4902463046B84721462846FEF795
:1056D00035FC03B0F0BD01A91068FFF7E7F90446F7
:1056E0000028F2D19DF90410D5F82C0102F059FDE3
:1056F000EBE700BFFBA10300F7B505460C4689B9EF
:10570000466BD0F82C0133685F6803F02BF90C4925
:1057100002463046B847204601462846FEF70EFCB2
:1057200003B0F0BD01A91068FFF7C0F90028F3D15C
:10573000BDF80410D5F82C0103F019F9ECE700BF0F
:105740000D7A03002DE9F04702298AB00746894601
:10575000904644DD01A9506802F0B1FC054698B9B5
:1057600002240DF1140A4C45E6B213D0142C10D0CB
:10577000694658F82400FFF799F920B9009B04F80E
:105780000A300134EFE7054629463846FEF7D6FBD6
:1057900014E02646D8F80040124912238DF8143040
:1057A0002046B31E8DF8153030F046FF48B9334619
:1057B00005AA01A9D7F82C0103F053F80AB0BDE8F7
:1057C000F0870949204630F037FF0028DCD1334606
:1057D00005AA01A9D7F82C0103F048F8D4E706255B
:1057E000D2E700BFF18103006486030013B50022F5
:1057F0000C4601A931F086F8019B20601B78002B34
:1058000014BF0620002002B010BD0000F7B5054609
:105810000C46A1B9466BD0F82C0133685F6802F0E2
:105820005AFB4FF47A720F49B0FBF2F23046B84798
:10583000204601462846FEF781FB03B0F0BD012952
:105840000ED101A91068FFF7D1FF0028F1D1019B0B
:10585000D5F82C014FF47A71594302F041FBE8E787
:105860000720E6E70D7A0300F7B505460C4681B937
:10587000466BD0F82C0133685F6803F06BF80B4976
:1058800002463046B84721462846FEF757FB03B08C
:10589000F0BD01A91068FFF7A9FF04460028F2D166
:1058A0000199D5F82C0103F059F8ECE7F4800300D6
:1058B0002DE9F04F0F1E99B00646144640F3518172
:1058C000D2F80090A849484630F0B6FE50B9D6F854
:1058D0002C0102F017FA01463046FEF72FFB19B0F3
:1058E000BDE8F08FA149484630F0A6FE20B9D6F8B1
:1058F0002C0102F00CFAEEE79D49484630F09CFE80
:1059000000283FD1022F40F32C81A56899492846F1
:1059100030F092FE08B3082210A92846FEF7D6FA06
:10592000082840F01E8110ADD4F80480924940460A
:1059300030F082FED0B9032F00F013817823042FBA
:1059400009930CD1099BE268D6F82C01294602F094
:10595000E3F90028BFD10020BDE70546E4E709A927
:105960002069FFF743FF0028B5D1EBE783494046A4
:1059700030F062FE0028EED12946D6F82C0102F064
:10598000D0F9E6E77E49484630F056FE014638B980
:10599000012FD6F82C0118BF616802F0C8F99AE708
:1059A0007849484630F048FE38BB042F40F3D98090
:1059B00007A96068FFF77AF800288CD108A9A068C9
:1059C000FFF774F8002886D109A9E068FFF76EF8A0
:1059D000002880D110AD2946206902F070FB002814
:1059E0007FF479AFBDF824309DF820200095079909
:1059F000D6F82C0102F0A0F96DE76349484630F073
:105A00001BFE002837D1052F40F3AB8006A9606844
:105A1000FFF74CF800287FF45EAF07A9A068FFF7F6
:105A200045F800287FF457AF08A9E068FFF73EF873
:105A300000287FF450AF09A92069FFF737F8002844
:105A40007FF449AF10AD2946606902F038FB0028A9
:105A50007FF441AF4D490291BDF824100091BDF88B
:105A600020309DF81C20039601950699D6F82C014C
:105A700002F067F92FE74649484630F0DDFD10BBDC
:105A8000032F6EDD08A96068FFF710F800287FF487
:105A900022AF09A9A068FFF709F800287FF41BAF1F
:105AA00010A9E06802F00BFB00287FF414AF394B1B
:105AB0000093BDF82010019610AB099AD6F82C017E
:105AC00002F049F907E73449484630F0B5FD05468C
:105AD000002840F09580DFF8D0A0DFF8D0B04FF07C
