:020000040000FA
:10000000A0270020150200001D0200001F020000B2
:100010002102000023020000250200000000000071
:1000200000000000000000000000000027020000A7
:1000300029020000000000002B0200002D02000039
:100040002F0200002F020000710700002F020000A5
:100050002F0200002F020000390300002F020000D1
:100060002F0200002F0200002F0200002F020000CC
:100070002F0200002F0200002F0200002F020000BC
:100080002F020000610500002F0200002F02000077
:10009000850500002F0200002F0200002F02000043
:1000A0002F0200002F0200002F0200002F0200008C
:1000B0002F0200002F0200000000000000000000DE
:1000C0002F0200002F0200002F0200002F0200006C
:1000D0002F0200002F0200002F0200002F0200005C
:1000E0002F0200002F0200002F0200002F0200004C
:1000F000000000002F0200000000000000000000CF
:1001000000000000000000000000000000000000EF
:1001100000000000000000000000000000000000DF
:1001200000000000000000000000000000000000CF
:1001300000000000000000000000000000000000BF
:1001400000000000000000000000000000000000AF
:10015000000000000000000000000000000000009F
:10016000000000000000000000000000000000008F
:10017000000000000000000000000000000000007F
:10018000000000000000000000000000000000006F
:10019000000000000000000000000000000000005F
:1001A000000000000000000000000000000000004F
:1001B000000000000000000000000000000000003F
:1001C000000000000000000000000000000000002F
:1001D000000000000000000000000000000000001F
:1001E000000000000000000000000000000000000F
:1001F00000000000000000000000000000000000FF
:10020000DFF80CD000F086F800480047091900001C
:10021000A02700200648804706480047FEE7FEE783
:10022000FEE7FEE7FEE7FEE7FEE7FEE7FEE7FEE7A6
:1002300089050000010200002DE9F05F054600205D
:1002400092469B4688460646814640241BE0284647
:1002500041464746224600F04CF853465A46C01ADB
:10026000914110D311461846224600F016F82D1A77
:1002700067EB01084F4622460120002100F00DF8EF
:1002800017EB00094E41201EA4F10104DFDC4846B3
:1002900031462A464346BDE8F09F202A04DB203A37
:1002A00000FA02F1002070479140C2F1200320FAC9
:1002B00003F319439040704700487047182E000020
:1002C00040EA01039B0703D009E008C9121F08C0D8
:1002D000042AFAD203E011F8013B00F8013B521E58
:1002E000F9D27047421C10F8011B0029FBD1801A7B
:1002F0007047202A04DB203A21FA02F000217047DF
:1003000021FA02F3D040C2F120029140084319467D
:1003100070470000064C074D06E0E06840F001031E
:1003200094E8070098471034AC42F6D3FFF76CFF0F
:10033000282E0000482E00002DE9F04F00268FB037
:10034000DFF8B081B14602964FF48075012437463C
:100350000396284601F088FE38B1D8F804032042FD
:1003600003D0284601F076FE26432D1D64007F1C35
:10037000ADB2082FEDD34FF4BE74204601F074FEE9
:1003800048B1204601F066FE46F0004602AA02216E
:10039000002001F049FE584C16F0FF0F15D0012740
:1003A000002537420DD008EB8501D1F81005D1F8B2
:1003B0001015C0F3052054F82520C1F3014102B106
:1003C00090477F006D1C082DEBD3002E7DDA0020B6
:1003D000CDF82890411E0DF1080B08AACDF82C90FD
:1003E00042F82010401C91460228F9D300252E46E1
:1003F000A01910F8607F90F9000027F0C008401C99
:1004000049D008A9404601F0E1FA88B34FEA971AAB
:10041000404601F06DF854F820701FB1BAF1030F97
:1004200003D00FE0BAF1030F35D10AA84FEAD80282
:1004300008F00703815C4FF0010C0CFA03FC41EA61
:100440000C01815406A8CDF8188001F0A9FD069989
:1004500000EB8100D0F8000702A9C0F3014006902C
:10046000404601F0B3FA0028069802D0022802D0D4
:1004700011E003280FD1BAF1030F08D10698022822
:1004800032D00221404601F064FD6D1CEDB217B17F
:1004900051464046B847761C042EA9D3002D20D0E3
:1004A00004AA0221002001F0BFFD00205A4604A941
:1004B00052F8206051F82030B34217D000200AAE25
:1004C0004FEA090351F8207000E00AE042F820707A
:1004D00056F8207043F82070401C0228F2D3002DFB
:1004E00084D10FB0BDE8F08F0321CBE7401C022878
:1004F000DED3F6E700600040D000002000F01F02CD
:10050000012191404009800000F1E020C0F88012F4
:10051000704700F01F02012191404009800000F166
:10052000E020C0F80011704700F01F020121914047
:100530004009800000F1E020C0F800127047490730
:10054000090E002806DA00F00F0000F1E02080F824
:10055000141D704700F1E02080F80014704700007F
:1005600007480021C0F84011C0F84411C0F84811F4
:10057000C0F84C11C0F80011C0F8041102F02CBAF8
:100580000010014002F07AB930B54FF080500022DF
:10059000D0F830110123082902D1D0F8344114B128
:1005A000082909D00BE04FF08041C1F80C21C1F8B7
:1005B000102161490A6005E0D0F8344114B10829DE
:1005C00057D059E05D4909685D4C21605B49091DC0
:1005D0000968241D2160594908310968241D2160DA
:1005E00056490C310968241D2160544910310968AD
:1005F000241D2160514914310968241D21604F498F
:10060000183109684E4C203421604C491C3109686E
:10061000241D2160494920310968241D2160474972
:1006200024310968241D2160444928310968241DAA
:10063000216042492C310968241D21603F49303135
:1006400009683F4C403421603C4934310968241D1D
:1006500021603A4938310968241D216037493C310D
:100660000968241D2160354940310968241D216035
:1006700005E0D0F8344114B1082904D006E0324C2A
:100680003049216005E0D0F8344114B1082904D084
:1006900006E02E4CFB21216005E0D0F8344114B176
:1006A000082908D00EE090F858422948016864F300
:1006B0000301016002E0D0F8340118B925494FF474
:1006C000007008602448016841F470010160BFF3C4
:1006D0004F8FBFF36F8F4FF01021D1F80002002829
:1006E00003DBD1F80402002822DA1C4C23601C48EA
:1006F0000368002BFCD01223C1F800320568002DDE
:10070000FCD0C1F8043201680029FCD022600168E5
:100710000029FCD0BFF34F8F0F487C380168114A85
:1007200001F4E06111430160BFF34F8F00BFFDE7AB
:100730000E490D48086030BD380500400404001023
:1007400020C50040488103008C56004018F5004049
:10075000E40E00404096024088ED00E004E50140D0
:1007600000E401400400FA050090D003600000207E
:100770000448017F04480029024901D002F035BA3B
:1007800002F0A4B938010020002000400FB41CB5CD
:100790000A46521ECDE9000207A9054B6A46069893
:1007A00000F018F8009A002111701CBC5DF814FBD1
:1007B000370C000002E008C8121F08C1002AFAD155
:1007C00070477047002001E001C1121F002AFBD1D1
:1007D000704700002DE9FF4F8DB00F4605460026FB
:1007E00006E025280BD0DDE90F1290476D1C761C22
:1007F00028780028F5D111B03046BDE8F08F0024EC
:10080000A246A1460122EC4900E0044315F8013F4D
:10081000203B02FA03F00842F7D128782A2810D0AA
:100820006FF02F022878A0F13001092914D80AEBC3
:100830008A0102EB410144F0020400EB010A6D1C45
:10084000F0E701CF5FEA000A03D544F40054CAF18F
:10085000000A44F002046D1C28782E2817D115F8E0
:10086000010F44F004042A280ED06FF02F022878DC
:10087000A0F1300109290AD809EB890102EB4101F5
:1008800000EB01096D1CF2E757F8049B6D1C2878FA
:100890006C280FD006DC4C2817D068280DD06A28A9
:1008A00014D104E0742810D07A280FD10DE044F45C
:1008B00000140AE044F4801401E044F44014697820
:1008C000814202D104F580146D1C6D1C2A786E2AB9
:1008D0001FD00CDC632A31D004DC002A8BD0582ACC
:1008E00011D1A3E0642A68D0692A0CD165E0732A8B
:1008F0002ED004DC6F2A73D0702A04D19BE0752AB5
:100900006FD0782A6ED01046DDE90F129047761C22
:1009100050E1C4F30250022806D0032809D004286D
:1009200001CF09D0066045E101CFF117C0E90061B0
:1009300040E101CF06803DE106703BE117F8040B72
:100940008DF8000000208DF80100EB46012003E047
:1009500057F804BB4FF0FF3061074FF0000102D49D
:100960000DE008F10101884649450FDA8045F8DBC2
:100970001BF808100029F4D108E008F101018846AD
:100980008142FADB1BF808100029F6D1DDE90F23BC
:10099000AAEB08008146214600F036F9304400EB0E
:1009A000080604E0DDE90F121BF8010B9047B8F1CF
:1009B0000108F7D221464846F7E00A21C4F3025362
:1009C0004FF0000B0891022B04D001CFC117032B6D
:1009D00009D00AE0FF1D27F00707F7E8020108E049
:1009E00032E01FE020E000B2C117042B01D140B279
:1009F000C117031E71F1000307DA4FF0000CD0EBB2
:100A00000C006CEB01012D2302E0230504D52B2300
:100A10008DF82430012303E0E30701D02023F7E71A
:100A2000984658E00A2110E010210EE010204FF007
:100A3000000B08900CE010214FF0000B44F0040470
:100A40004FF00809089103E008214FF0000B0891CE
:100A5000C4F30253022B04D001CF0021032B06D094
:100A600006E0FF1D27F00707F7E8020103E080B268
:100A7000042B00D1C0B24FF0000823072BD5702AF9
:100A800007D0DDF820C08CF0100C5CEA0B0C05D010
:100A90000EE040238DF82430012308E050EA0103E2
:100AA00006D030238DF824308DF825200223984677
:100AB000DDF820C08CF0080C5CEA0B0C0BD150EA7E
:100AC000010301D1630706D530238DF824304FF0A0
:100AD0000108A9F10109582A04D038A20B9208AAEA
:100AE0000A920BE03AA2F9E75B46089AFFF7A4FBEB
:100AF0000B9B9B5C0A9A521E0A92137050EA0102E9
:100B0000F2D10A98ADEB000000F1200B600702D58E
:100B100024F4803401E04FF00109D94502DDA9EB4E
:100B20000B0000E0002000EB0B0141440890AAEB11
:100B3000010AE00306D4DDE90F232146504600F008
:100B400063F806444FF0000908E009A911F809000C
:100B5000DDE90F12904709F10109761CC145F4DB6C
:100B6000E0030CD5DDE90F232146504600F04CF898
:100B7000064404E0DDE90F1230209047761C089906
:100B8000481E08900029F5DC08E00A980A990078C8
:100B9000491C0A91DDE90F129047761CBBF1000158
:100BA000ABF1010BF1DC21465046DDE90F2300F0EB
:100BB00019F806446D1C1BE6092801003031323358
:100BC0003435363738396162636465660000000089
:100BD0003031323334353637383941424344454673
:100BE000000000002DE9F041044600251E4617468E
:100BF000880404D405E039462020B0476D1C641EEB
:100C0000F9D52846BDE8F0812DE9F04104460025DC
:100C10001E469046C80301D5302700E020278804EF
:100C200004D505E041463846B0476D1C641EF9D531
:100C30002846BDE8F0814A68002A06D00A68531C9D
:100C40000B6010704868401E48607047022000F03A
:100C500099B9000070B50024064D06E068680121CE
:100C600010F8340000F02AFF641C28788442F5D381
:100C7000002070BD18000020F8B515460C46064649
:100C8000052A01D20720F8BD00F0FAFF18B900F0DC
:100C9000C9FF0028F7D1114900224E600C708D6009
:100CA000C1E90422C1E906220D4D0DE006EBC400A6
:100CB0006968009181788DF801100078094A6946C9
:100CC00000F048FF0028DED1641EE4B2EED2BDE899
:100CD000F840054A0021024800F04AB818000020F8
:100CE000482D0000D1160000E11500000DA10120E3
:100CF00001F0CAFB01F022FB01F024FB0028FBD12C
:100D00000CA1032001F0C0FBBFF34F8F1048016816
:100D1000104A01F4E06111430160BFF34F8F00BF3F
:100D2000FDE700003A4552524F523A466174616CF9
:100D30000D0A00003A494E464F3A486974207765DB
:100D4000616B2068616E646C65720D0A00000000C2
:100D50000CED00E00400FA050EB500210091CDE98C
:100D600001106A4644F20100FFF7C0FF0EBD00000B
:100D7000074B9B7823B12AB120B10068037C1BB1DB
:100D80000820704707207047417442610020704777
:100D90007801002070B501F0C3FC104800240B213D
:100DA000047044700E4D817014206C602C706C7057
:100DB000FFF7A4FB07211420FFF7C1FB1420FFF766
:100DC000A8FB0848046007211120FFF7B8FB05487D
:100DD000001F0068A860002070BD0000780100209E
:100DE00038000020081501402DE9F843DFF8709025
:100DF00099F802305BB350B3052902D20720BDE851
:100E0000F88343691BB3437C012B22D0002704469F
:100E1000002588461646284600F036F8684601F058
:100E20005DFFC0B1012101700E4944600968C0E94D
:100E30000218C0E904769DF8000089F8010000203E
:100E400000F024F81420FFF76FFB2846D7E70820AE
:100E5000D5E70F46DBE70425002000F017F8F4E79C
:100E600078010020041501400649897839B130B174
:100E7000416921B100210174022101F08DBD0820DA
:100E8000704700007801002000F002B800F008B8B8
:100E900072B602480168491C016070474C0000208E
:100EA00003490868401E086000D162B67047000020
:100EB0004C00002070B5054608680C46411C04D063
:100EC00001F095F8206801F03AF86068411C02D002
:100ED000002101F02BF828791F4901EB4010296807
:100EE000007F0028A069C1F8240523D0607D227D01
:100EF00029681043C1F86C05D4E900122868C0F8CD
:100F00000C15C0F8142522E0A068411C02D0002175
:100F100001F00CF8E068411C04D001F068F8E068CA
:100F200001F00DF8D4E902122868C0F80825C0F8CD
:100F3000101570BD607D217D2A680843C2F86C05DC
:100F4000D4E900122868C0F81425C0F80C15207DDB
:100F50000128D9D070BD000038010020084908B52B
:100F6000085C0090684601F00DF8D0F81005009973
:100F7000C84010F0010000D0012080F0010008BD41
:100F8000102D0000094908B5085C0090684600F083
:100F9000F9FFD0F80425009B0121994021EA0203C2
:100FA000C0F808351140C0F80C1508BD0C2D000024
:100FB0000249085C012101F024B800000C2D00005A
:100FC0000249085C002101F01CB800000C2D000053
:100FD000084908B5085C0090684600F0D3FFD0F8D7
:100FE00004050099C84010F0010000D0012080F0F5
:100FF000010008BD0C2D00007CB50024084E2546DC
:101000000122305D009500231146019500F03AFF62
:10101000641C042CF4D3BDE87C4000F003B800004D
:101020000C2D000010B500242046FFF7C1FF641C02
:10103000042CF9D310BD10B500242046FFF7C0FFE3
:10104000641C042CF9D310BD10B50246064B4FF0BA
:10105000FF3000215C5C944201D1084610BD491C60
:101060000429F7D310BD0000102D00002DE9F04732
:101070000D468146FFF7E8FF0446042836D2DFF824
:1010800074801B481C4EA8F10C0725B3012D0ED00F
:10109000022D2BD104EB440030444578002D25D09F
:1010A000B968002922D02846BDE8F047084704EB7C
:1010B0004401755C0E44717849B10E4A4FF4004109
:1010C000093A8068FFF790FE08B987F80390B17875
:1010D00008F80410E2E78068FFF7C6FE04EB44015D
:1010E000314418F804008D78A842D7D0BDE8F087C5
:1010F000142D000010000020A400002070B5002373
:10110000042810D20D4D00EB4004012A02D1012920
:101110000CD00022094E00EB4000304461B101299F
:1011200006D0022906D00723184670BD0E30C2B281
:101130002A55F9E74270F7E78270F5E7A40000202E
:1011400070B500250E3807280BD80024012620464C
:10115000FFF704FF08B106FA04F00543641C042CF1
:10116000F5DB0148056070BD00000020044A01461F
:1011700000201279D20702D0084600F04DB870471F
:101180000400002070B506461E480024C0E9016135
:10119000B00720D50025012211462846FFF7AEFFF3
:1011A0006D1C0446042D02D2002CF4D013E094B937
:1011B00040F2666204211448FFF75EFD04000AD184
:1011C000FFF748FD040006D10F48104A0021001F18
:1011D000FFF7CEFD0446F00701D0FFF70DFF74B90D
:1011E00009480B4A00210C38FFF7C2FD040006D164
:1011F0000548084A01210838FFF7BAFD0446204691
:1012000070BD000004000020202D000059140000D3
:10121000FD1700004D0C00002DE9F05F6A4C0546FB
:1012200000266078B34618B184F801B000F0CEFA19
:10123000664F4FF47A694FF4C87A4FF00108182DC1
:1012400062D2DFE805F0AC0C0C31404D62676B7484
:101250006B74BE7D7D7D7D7DACAFB2B5BEBE002022
:10126000FFF7B6FE00284FF0000008D0FFF7A0FE01
:10127000022D02D14FF4E16008E0484606E0FFF796
:101280009FFE022D01D1C82000E05046410CC00352
:101290004FF4FA72801841F10001257052000023CA
:1012A000FEF7CAFF01462AE00020FFF791FE002862
:1012B0004FF0000004D0FFF77BFE4FF44870E5E7E5
:1012C000FFF77EFEDFE70020FFF782FE00284FF0E9
:1012D000000002D0FFF76CFECFE7FFF771FED4E706
:1012E0000020FFF775FE00284FF0000002D0FFF746
:1012F0005FFE01E0FFF764FE257041F69A110022BF
:101300003868FFF771FD064646E00020FFF73AFE19
:10131000257008E0002051E025703DE084F8018050
:101320000120FFF72FFE002240F6CD41E8E784F8C8
:1013300001800120FFF726FE00224FF48041DFE705
:101340007868FFF791FD0646D5F1110000D02EB167
:101350000220FFF72DFE84F802B01DE0012816D907
:1013600080B2C8214843C117C90341EA5041C003B4
:101370004FF4FA72801841F1000152000023FEF789
:101380005BFF014600227868FFF72EFD064602202B
:10139000FFF716FE84F802803046BDE8F09F00F0AB
:1013A00015FAB9E700F012FAB4E700F00FFA04E01A
:1013B00000F00CFA0020FFF703FE0120FFF700FE0B
:1013C000AAE7FFF738FEA7E704000020142D00006D
:1013D000002901DA002070470268114401600120F1
:1013E0007047000070B5461C0D4601240020FFF731
:1013F0004BFD114A10682860D2E900109568081A60
:101400002B1A701C5B1C98420FD963B10B480C4B14
:10141000294000681B6802EB810163F39F20C860CC
:101420001068401C1060002401E088191060002042
:10143000FFF72CFD204670BD84030020702D0000B6
:101440005C000020034803C8814201D1012070479D
:10145000002070478403002000780221FFF706BEB9
:1014600070B50446000E01F0F7F90506200C01F0F6
:10147000F3F945EA0045200A01F0EEF945EA0025B6
:10148000204601F0E9F9284370BD000005494FF0FE
:10149000FF32082841F8202002D3084480F8582061
:1014A00070470000D0000020F0B54FF0FF3512B1BA
:1014B0000023082601E008230C260C4C05E000BFA1
:1014C00054F823707F1C04D05B1CB342F8D3284629
:1014D000F0BD26185DB286F8305044F82310002A7B
:1014E000F5D1E11881F85800F1E70000D0000020A4
:1014F0000249084490F9300070470000D0000020F5
:101500004FF080400022C0F800210121C0F80010F7
:10151000D0F80031002BFBD0054B1960C0F8042136
:10152000C0F80810D0F804110029FBD07047000063
:10153000180500402DE9F05F26484168F1B3DFF857
:1015400098B00E688146DBF8004087688078E11B20
:1015500021F07F45ED1CB0B9DFF880804FF480307A
:10156000C8F84403C8F804031120FEF7C7FF112090
:10157000FEF7CFFF4FF0010AC8F800A02F2000F0BF
:101580002DFA89F802A0B54200D23546124BE8196F
:101590003C3320F07F401860DBF800105A46091BEE
:1015A00021F07F41001B20F07F40C91C81420FD9F0
:1015B000106818602F2000F011FA00E004E0BDE888
:1015C000F05F1120FEF7B0BFBDE8F05F01F0A8B8F2
:1015D000BDE8F09F380000200415014000100140D4
:1015E0002DE9F05F0025DFF8A48043E0606800216A
:1015F00000EBC506012032789146FEF74EFED4E995
:10160000062300EA020701EA030C57EA0C072FD071
:10161000C7433A408B434846C4E9062300F0FAFA30
:1016200032784FF0000A8146934601205146FEF77A
:1016300034FED4E9042300EA020401EA03075A460F
:1016400048465146FEF729FE44404F403C430FD1E7
:101650007078012815D0002289EA02008AEAE27136
:10166000084310D00020726812B1C1B258469047AA
:101670006D1CEDB298F8000044468542B6D3BDE833
:10168000F09F0122E8E70120EDE7000018000020AC
:101690000E4910B50A784C780023A24212D0521C91
:1016A000D2B20A70022A00D10B70084A0B780C32B1
:1016B00052F8232002608868104420F07F40886040
:1016C000012010BD0360002010BD00003800002084
:1016D0002DE9F0418046024601200021FEF7DDFDA4
:1016E0001A4F05460E463868FFF7BEFB00280CD19E
:1016F000174CD4E9062110462A4001EA06031A4392
:1017000005D0A843B143C4E90601BDE8F0814046D5
:1017100000F080FA30B1D4E9040128433143C4E930
:10172000040105E0D4E90410A943B043C4E904105E
:10173000D4E9060128433143C4E90601A1683868A9
:10174000BDE8F0410022FFF74FBB0000482D00002C
:101750001800002070B50E460446007918494FF471
:10176000A27501EB4010017F2068A1B14FF4887190
:1017700000F00CFF4FF49071206800F007FF4FF469
:101780009271206800F002FF2946206800F0FEFEFA
:101790000C49206809E04FF48E7100F0E6FE2946FE
:1017A000206800F0E2FE08492068C0F804132068B1
:1017B00000F081F93146BDE8704000F060B90000EA
:1017C0003801002010030200800002000A4810B512
:1017D000807860B1002401E0022C06D02046FFF79B
:1017E000E7FB641C042CF7D310BD0324F6E7BDE827
:1017F0001040FFF717BC00000400002003480179E7
:10180000C90702D00078FFF707BD70470400002029
:101810002DE9F047394E002780463D46DFF8E0903D
:10182000D6F804A057E003D00446D0F81C8035E079
:1018300099F8002002EB4201521CD2B289F8002034
:1018400009EBC10199F80230091D9A4201D189F8CA
:10185000005048680A780446012A12D0022A02D0B1
:10186000032A3BD108E001F067F800B10127257495
:1018700034E00574C06900E070680028F9D1706038
:101880002CE0207C50BB88686060C868A060086954
:10189000E0604869A061F07800B165606268B16895
:1018A000184B501A20F07F40984202D2A168084499
:1018B00006E0881AA16820F07F40814202D9081A08
:1018C000206000E0256065600120A560207420464E
:1018D000E56101F013F8B8F10000A4D199F8001007
:1018E00099F801008142A3D117B97168514502D01E
:1018F0000120BDE8F0870020FBE700003800002051
:1019000078010020FFFF7F00FFF7FAFDFFF742FAA2
:1019100008B1FFF721FA002000F010FE08B1FFF730
:101920001BFA14490320FFF72DFC08B1FFF714FA46
:1019300000F086FE1148104C04601220FFF716FCE0
:1019400005460FA1032000F09FFD280001D0FFF7FE
:1019500003FA0025206838B100F026FF0FA103200C
:10196000226800F0B7FD256000F0ECFC0028FBD1F8
:1019700020BFEFE7411100000000002004150040E7
:101980004150503A494E464F3A5072657373204168
:101990006E7920427574746F6E0D0A004150503A92
:1019A000494E464F3A54686520636F6E74656E7495
:1019B00073206F6620746865207061636B61676572
:1019C000207761732025750D0A000000C20800F021
:1019D00007030120895C98400840704700283ED0EA
:1019E0001F49204A096800BF00BF00BF00BF00BFF9
:1019F00000BF00BF00BF91422FD000BF00BF00BF9B
:101A000000BF00BF00BF00BF00BF00BF00BF00BFDE
:101A100000BF00BF00BF00BF00BF00BF00BF00BFCE
:101A200000BF00BF00BF00BF00BF00BF00BF00BFBE
:101A300000BF00BF00BF00BF00BF00BF00BF00BFAE
:101A400000BF00BF00BF00BF00BF00BF00BF00BF9E
:101A500000BF00BF00BF00BF00BF0138C3D1704747
:101A6000600000200024F40000F01F0201219140DA
:101A70004009800000F1E020C0F88011704749075C
:101A8000090E002806DA00F00F0202F1E02282F8C7
:101A9000141D03E000F1E02282F8001400F01F02A0
:101AA000012191404009800000F1E020C0F880123F
:101AB000C0F800117047000B40B270472DE9F041AB
:101AC0000E46804600F068FD204D0028404616D0A6
:101AD000FFF70EFD284490F858008009032802D033
:101AE00001280AD003E0404600F076FA28B103212D
:101AF0004046BDE8F04100F02CBA0221F8E700F0C2
:101B000057FD002820D04046FFF7F2FC0446104F56
:101B10004FF4807007EB840100EB8400D1F81025AE
:101B200080B242F00102C1F8102500F093FA002EB5
:101B30000AD04046FFF7DCFC55F82000002803D00F
:101B40000120A040C7F80403BDE8F081D0000020C8
:101B5000006000402DE9FC41DFF8AC80044608EB52
:101B60000400002790F930001346C0170E46401CB1
:101B700001D0082744E0F27819462046FFF794FC8C
:101B80000546401C3BD0B07868B16846009400F030
:101B900007FA009900EB8100D0F8001721F002014C
:101BA000C0F8001707E000217378204600910A462C
:101BB000019100F080F9F078C0B11448317800EB61
:101BC0008500D0F81025124B1A40C0F810254FF4AC
:101BD0007C524FF4403302EA042203EA01410A43F3
:101BE000D0F810150A43C0F8102509E008EB0500ED
:101BF000327810F8581F41EA8211017000E0042782
:101C00003846BDE8FC810000D000002000600040A4
:101C1000FFC0FCFF10B500F0DFF9002800D0012064
:101C200010BD000070B5144D95F8640008B108208F
:101C300070BD0020411E2A18401CC0B282F830102E
:101C40003028F8D300242046FFF720FC641CE4B2BF
:101C50000C2CF8D307210620FFF711FF4FF4BE70BC
:101C600000F0F8F905494FF00040C1F804030120E5
:101C700085F86400002070BDD000002000600040A6
:101C8000034890F86400002800D00120704700004D
:101C9000D00000200121B1EB507F01D1012070471D
:101CA000002070472DE9F04105460079164F904617
:101CB00007EB40140E46E07E10B10820BDE8F0812D
:101CC000707F20772846FFF7F5F85FEA080060602C
:101CD0003169216003D0317F2846FFF73BFD287929
:101CE00007EB4010007F0028286801D0082100E0A1
:101CF0000421C0F800150020E0752076A0750121B0
:101D0000E176A076DAE70000380100202DE9F047FF
:101D1000054600793F4E904606EB40140F46207F63
:101D200018B10846FFF7B6FF30B1284600F074F846
:101D300020B11120BDE8F0871020FBE784F8168061
:101D4000A7600027A78228794FF0010806EB40140E
:101D50003E46207F0028286825D04FF490794946D8
:101D600000F014FC4FF4AC7A5146286800F00EFCE9
:101D70002868A17DA268C0F84425C0F848152868E5
:101D8000C0F808806068F0B94946286800F0F9FB9F
:101D900080465146286800F0F4FB58EA0001F3D071
:101DA00058BBA7750FE04FF48E7A514600F0DDFB6B
:101DB0002868C0F808802146286800F061FE616844
:101DC0004FF4807089B13046B4E75146286800F07E
:101DD000C7FB10B9A08A4845F7D1A08A484505D06D
:101DE0002146286800F04CFE00E08146A08AA17DD3
:101DF0008842EAD3A08A484501D10F26D1E751464F
:101E0000286800F0ADFB0028F9D02868C0F80C80E5
:101E1000C7E70000380100200079044901EB4010B9
:101E2000807D002800D0012070470000380100208C
:101E300070B5044600791149002601EB4015206871
:101E40002A7FC0F80065686888B1207901EB4010EE
:101E5000007F0028206801D0094901E008498C3939
:101E6000C0F808132068FFF726FEFFF7FDFD2046A7
:101E700000F0AAFBEE766E6070BD00003801002015
:101E8000100302002DE9FF411C46DDE90A781546E2
:101E90000E46684600F076F846EA450141EA8401BC
:101EA00041EA072242EA0841009A00EB8200C0F8AA
:101EB0000017BDE8FF812DE9FF411C46DDE90A78E6
:101EC00015460E46684600F06BF846EA450141EAC1
:101ED000840141EA072242EA0841009A00EB8200AD
:101EE000C0F80017BDE8FF812DE9FF411C46DDE980
:101EF0000A7815460E46684600F060F846EA450145
:101F000041EA840141EA072242EA0841009A00EBD3
:101F10008200C0F80017BDE8FF811CB500210091C8
:101F20000B4601220191FFF7DFFF1CBD1CB500220B
:101F30000B46009211460192FFF7D6FF1CBD1CB55F
:101F4000002100910B46012201911146FFF7CCFFC1
:101F50001CBD13B50C46684600F022F8009900EB52
:101F60008101D1F8002722F44032C1F800270099FE
:101F700000EB8100D0F8001741EA0441C0F80017D7
:101F80001CBD00000168202902D24FF0A04070471C
:101F900001F01F010160014870470000000300507C
:101FA0000168202902D24FF0A040704701F01F01C4
:101FB00001600148704700000003005001682029BB
:101FC00002D24FF0A040704701F01F0101600148AC
:101FD000704700000003005001B56846FFF7E0FFBE
:101FE000D0F810050099C84000F0010008BD01B507
:101FF0006846FFF7E3FF009A01219140C0F80815F9
:1020000008BD38B501240090684631B1FFF7BAFF2A
:1020100000998C40C0F8084538BDFFF7B3FF009920
:102020008C40C0F80C4538BD1CB5094C0144D4E9BE
:102030000034CDE900346C4606E000BF54F820308F
:10204000D3F81035401C08C28142F7D81CBD0000EF
:10205000402D0000034908B50844002101600068D4
:10206000009008BD0060004002494058012800D09F
:10207000002070470060004000487047F1200000D9
:1020800030B5184C054689B0207828B16078854273
:1020900002D1002009B030BD202213496846FEF766
:1020A0000FF900208DF81400062000900820019000
:1020B00005200390072002904FF0EB70069009482E
:1020C000001DFFF7B5FE0DB1002200E0074A0548EC
:1020D0006946001DFFF7E6FD0028DBD101202070D6
:1020E0006570D6E750000020502D0000BD2A00008A
:1020F0002DE9F04FC1B00D004FF0000140914D9817
:102100004B991C46174601EB000B01D00A2000E05A
:102110000020804600F084FB00287CD16E46BCB9CC
:10212000409840AA3118284600F090FC002872D050
:102130003846FEF7D7F8C22800D9C2200546409895
:102140002A4630443946FEF7BBF840982844409070
:102150004FF0200A409901EB080231320DEB0105E6
:102160000DEB0206002002E005F801AB401C4045E3
:10217000FAD300275C4508D305F801AB05F801AB9D
:1021800005F801AB06F801AB2DE04B98844202D272
:102190004A98005D02E0211A4C98405C2B4681462B
:1021A00002460121880022FA00F000F00F00092801
:1021B00001D9373000E03030C1F1010C491E03F87D
:1021C0000C00EFD29D1C05F801ABFEF775F8016815
:1021D00011F8090010F03E0F01D0484600E02E2013
:1021E00006F8010B641C7F1C102FC3D30D20307028
:1021F0000A20707085F800A0409968464144433138
:10220000409100F013FB30B100F00AFB18B9002038
:1022100040905C459ED341B02046BDE8F08F2DE94B
:10222000F043C7B000251C46904689464E9F459511
:1022300000F0F6FA00287AD1459805AE311845AA83
:10224000484600F003FC002835D0072F27D2DFE8EE
:1022500007F004121B35424F5D004046FEF742F87E
:10226000054645982918FF2919D830442A46414681
:10227000FEF726F813E045982368C0F580713044D6
:102280004246FEF783FA09E06068009045982368AB
:10229000C0F5807130444246FEF778FA054629467B
:1022A00045A8FFF795F8459978B3B1F5807F3ED8FA
:1022B00005A800F0BBFA47B0BDE8F083D4E90101FE
:1022C000CDE9000145982368C0F58071304442464D
:1022D000FEF75CFAE2E7201D07C88DE80700459885
:1022E0002368C0F5807130444246FEF74FFAD5E7C7
:1022F000201D0FC88DE80F0045982368C0F5807138
:1023000030444246FEF742FAC8E710E004F1080004
:1023100001AD0FC885E80F006068009045982368FC
:10232000C0F5807130444246FEF730FAB6E700202F
:10233000C1E70000004870471F2200000120FFF79E
:102340009FBE00002DE9F04F87B0FFF77BF818B172
:10235000002007B0BDE8F08F454ED6E9014704EAFA
:10236000070006EB8000A146641CC5680CE000BFB6
:10237000C5F3891000EB9550044404EA070006EB0E
:102380008000A146C568641CA807F1D005F00300D1
:102390004FF0000B022805D0AA0A01A8C5F3831349
:1023A000002153E004EA070006EB800004F1010A73
:1023B0000AEA0704C268381B80004FEA9558001DDE
:1023C000C5F38913804521D929490C3138B106EB71
:1023D000840400F0FF0CA8EB00000C3404E00C4671
:1023E000002108F0FF0C0846C0B2CDE90210CDE98B
:1023F000004CD6F81444C5F3C2005946A0474045E6
:1024000011D108F103080AEB98042AE0002106EB39
:1024100084000C300090CDE901810391C5F3C20026
:10242000D6F81444EAE760F38F1509EA070006EBD3
:102430008000C56016E000BF04EA070C06EB8C0CB8
:10244000491CDCF80CC040F804CB641C9942F3D35F
:10245000C5F3C2000093D6F8105401AB5946A84703
:1024600000B17460FEF7EEFF80F0010071E700003C
:1024700084030020034AFF2393600023136053600A
:1024800000F054B8840300202DE9F8430F4F88462C
:102490000446002569462846BE68FEF7A3FF0028CB
:1024A00012D00B480021406861F38200009964F368
:1024B000C50001EA060265F3891007EB820268F3A2
:1024C0009F20491CD0600091BDE8F8838403002060
:1024D000702D00002DE9F843124D8846044601276F
:1024E000914669463846AE68FEF77CFF002817D053
:1024F0000D480021806861F38200009964F3C500F3
:1025000001EA060267F3891005EB820268F39F2057
:10251000491CD0600091314005EB8101C1F80C905D
:10252000BDE8F88384030020702D0000024A02F504
:10253000826203C2704700008403002070B5064623
:102540000020FFF79DFD040008D1FFF795FD05462B
:10255000FFF7F0FE32462946FFF78CFF204670BD9C
:102560004058002800D00120704708B50022425092
:102570004058009008BDD0F80403084000D0012066
:1025800070474058002800D00120704708B500224D
:1025900042504058009008BD0449084490F930006A
:1025A000082801DB0120704700207047D000002080
:1025B0000449084490F93000082801D201207047EE
:1025C00000207047D000002070B5034600791B49F9
:1025D00001EB40101968027F4FF0FF30002AD1F85C
:1025E0000C25D1F81465D1F80855D1F8104504D060
:1025F000C1F80C05C1F8140503E0C1F81405C1F8D1
:102600000C051968C1F80805C1F81005501C02D066
:102610001046FFF782FC701C02D03046FFF77DFCAD
:10262000601C02D02046FFF778FC681C04D02846C6
:10263000BDE87040FFF771BC70BD0000380100209C
:1026400070B532480024046030490720091F086033
:102650002E48001D0460C32000F0FEF80506C220CD
:1026600000F0FAF845EA0045C12000F0F5F845EA27
:102670000025C02000F0F0F805432448183005601C
:10268000C72000F0E9F80506C62000F0E5F845EAA5
:102690000045C42000F0E0F805431C481C300560EC
:1026A0001B48FEF7DDFE1949103108601948FEF796
:1026B000D7FE1649143108601448203004601349CD
:1026C0000120243108601148083004600F49124885
:1026D0000C3108600D480221283001600168021D9C
:1026E00001F0030309493031022B0AD0006800F0E1
:1026F0000300012804D1FF20086040F20710106099
:1027000070BD4FF6FF7008600448F8E70C150040F4
:1027100067452301EFCDAB890101040121100100C0
:1027200070B5012670044FF0E0210025C1F880014A
:10273000084C4010C4F84803C4F8080366602F2012
:10274000FFF74CF9A660044C2F20A560FFF746F96F
:10275000A57070BD001001403800002070B505461E
:10276000C87D0C4600284FF4847128460AD0FFF734
:10277000FCFED5F81805627EE1688854607E401C36
:10278000607670BDFFF7F1FED5F8180570BD1FB576
:1027900001238DF800308DF808100192D0E9001265
:1027A000684690471FBD00002DE9F041134C0026FC
:1027B000C4F8006101252560D4F800010028FBD091
:1027C000C4F80C61C4F80850D4F80C010028FBD000
:1027D0000820FEF7CBFC074609A10320FFF754FEB3
:1027E000380001D0FEF7B8FAC4F81061C4F81050F0
:1027F000D4F810010028FBD0BDE8F08100100040A3
:102800004150503A494E464F3A54686520706163D2
:102810006B6574207761732073656E740D0A000018
:102820000148FFF7F9BA00005400002070B50D46CA
:102830000A46014601240648FDF742FDEAB2044972
:102840000448FFF763FA00B10024204670BD000081
:102850008402002054000020014610B50020CBB2B5
:102860004FEA000123FA01F202F00102C1F107046C
:10287000A2401043491C0829F4D310BD2DE9F84F9C
:102880001D4C00256846D4E901A6FEF701FF00278C
:1028900038B30023009A61681CE0D1F800C00846F4
:1028A000944503D9ACEB02020A6015E0A2EB0C02DE
:1028B00063440760D0F80CC0C1698146BCF1000FC9
:1028C00008D006EB030828F07F48C0E9018CC9F85E
:1028D0001C5005460029E0D128466160FEF798FFAC
:1028E00003E02846FEF794FF10B15046FEF722FEA3
:1028F000E770BDE8F88F0000380000200D4B10B5E0
:10290000596831B102680C68A24204D8A21A0A6060
:10291000C161586010BD0B4603E00B46C969121B2C
:1029200021B10C689442F8D3A41A0C600260C16112
:10293000D86110BD380000202DE9F041144E7768B1
:102940003D462C4603E0844204D02546E469002C31
:10295000F9D11BE0D4B1A5420BD1F869706040B940
:102960000C49012088600021B160F0702F20FFF732
:1029700035F82168E069E86110B10268114401602E
:102980007068874202D00120BDE8F0810020FBE79B
:102990003800002000100140F8B5064600240D461E
:1029A0002046FEF771FA684600F098F968B10570A4
:1029B000084946609DF8000048700020FEF766FA5E
:1029C0001420FDF7B1FD2046F8BD04240020FEF7D9
:1029D0005DFAF8E7780100202DE9F041194D6C68A7
:1029E000002C2CD0184800270068A968B846401A67
:1029F00020F07F462068B0420CD82146361A0744A2
:102A0000E469087C20B181F81080886949698847A9
:102A1000002CEFD129786878814206D1401CC0B2E1
:102A20006870022801D185F80180064869780C3069
:102A300040F82170BDE8F0411420FDF775BDBDE8F8
:102A4000F0810000380000200415014010B5144644
:102A500002004FF001000CD00846136806A24FF4A4
:102A60008071FDF793FE01462046BDE81040FEF759
:102A7000AFBC0021216010BD5B253038645D0000D3
:102A800070B50C4605464FF48E71FFF76EFDA18AB6
:102A9000A068415CA08A401CA082C5F81C1570BDCE
:102AA0001FB500228DF800208DF808108168019173
:102AB0008275D0E90012684690471FBD0078012852
:102AC00001D1014988707047500000202DE9FF476F
:102AD0000C4605464FF40071FFF74DFD01274FF4FA
:102AE0000178002618B34FF4927949462846FFF73B
:102AF00037FDE0B149462846FFF737FDC5F80883A2
:102B0000A07E00B96F6002208DF80000D5F8800427
:102B1000C5F880040390E07D8DF80800E06801901E
:102B2000E6752676D4E900126846904727E004212E
:102B30002846FFF720FD10B34FF484712846FFF7B5
:102B40000FFDE0B121462846FFF708FEE07D617EDB
:102B5000884214D1207E38B1617EE268E075206938
:102B6000E0602676667607E0A07E00B96F60C5F863
:102B70000883E675617EE2682046FFF708FE4FF4A1
:102B80008E7841462846FFF7EBFC88B1A08AA17DEC
:102B9000884204D221462846FFF772FF08E04146EA
:102BA0002846FFF7E2FCA17D11B12046FFF778FF30
:102BB0004FF4A27841462846FFF7D2FC002812D0F5
:102BC00041462846FFF7D1FCA07E00B12F60E07D92
:102BD000002808D0E675617EE26804B02046BDE8B2
:102BE000F047FFF7D4BDBDE8FF872DE9FF410C4654
:102BF0004FF4927705463946FFF7C3FC0026C0B173
:102C000039462846FFF7C2FC02208DF80000D5F8AF
:102C10008004C5F880040390D5F83C058DF80800C1
:102C2000E0680190E6752676D4E900126846904780
:102C300024E04FF4887739462846FFF7A2FCE8B134
:102C400039462846FFF7A2FCD5F83C05C1B2E07D25
:102C5000884213D1207E60B1E268D5F8000220F0EE
:102C60002000C5F80002207EE0752069E06026762D
:102C700001E0E675E2682046FFF789FD4FF4A27790
:102C800039462846FFF77DFC68B139462846FFF7EC
:102C90007DFCE07D38B1E675D5F83C05E268C1B24F
:102CA0002046FFF774FD4FF4907631462846FFF733
:102CB00068FC00280FD031462846FFF767FCA07D4E
:102CC000002808D0D5F84C0504B0C1B22046BDE8B4
:102CD000F041FFF7E5BEBDE8FF8100000A494A78F0
:102CE0008B78521CD2B2934200D100220B789342CF
:102CF00001D1002070470270487800EB400001EBE2
:102D0000C000001D70470000780100200D0E0F105C
:102D10000B0C18196400002084000020B000002073
:102D20000B0003006D1000000C0003006D1000008C
:102D3000180003006D100000190003006D10000062
:102D40000000005000030050580100200300000064
:102D5000FFFFFFFFFFFFFFFFFFFFFFFFFFFFFFFF83
:102D600000000000000000000000D6010701000084
:102D70002900000001000000010000000100000027
:102D8000010000000100000001000000010000003F
:102D9000020000000040404040404040404041416F
:102DA0004141414040404040404040404040404020
:102DB00040404040400502020202020202020202BA
:102DC00002020202022020202020202020202002B7
:102DD0000202020202029090909090901010101047
:102DE00010101010101010101010101010101010E3
:102DF0000202020202028888888888880808080877
:102E00000808080808080808080808080808080842
:102E10000202020240000000952D00004F7665720C
:102E2000666C6F770D0A0000482E0000000000203D
:102E300064000000B4070000AC2E00006400002015
:102E40003C270000C4070000000000000000000054
:102E50000000000000000000000000000000000072
:102E60000000000000000000000000000000000062
:102E70000000000000000000000000000000000052
:102E80000000000000000000000000000000000042
:102E900000000000000000000000000000200040D2
:0C2EA000000000001C2E00000090D00379
:0400000500000201F4
:00000001FF
