:020000022000DC
:102000000000042001E3020029E302002BE30200A8
:102010002DE302002FE3020031E302000000000084
:1020200000000000000000000000000033E3020098
:1020300035E302000000000037E3020039E302004C
:1020400015AE02006DFC04000DEB04003BE3020042
:102050003BE302003BE30200DDB20200E9B502000F
:102060003BE302003BE302003BE302003BE30200F0
:102070003BE302003BE302003BE302003BE30200E0
:102080003BE30200853D02003BE302003BE302002C
:10209000413E02003BE302007DCE02006D120500CE
:1020A0003BE302003BE302003BE302003BE30200B0
:1020B0003BE302003BE302000000000000000000E0
:1020C0003BE302003BE302003BE302003BE3020090
:1020D00021E804003BE302003BE302003BE3020093
:1020E00085BD02003BE302003BE302003BE302004C
:1020F000000000003BE302000000000000000000C0
:1021000000000000000000000000000000000000CF
:1021100000000000000000000000000000000000BF
:1021200000000000000000000000000000000000AF
:10213000000000000000000000000000000000009F
:10214000000000000000000000000000000000008F
:10215000000000000000000000000000000000007F
:10216000000000000000000000000000000000006F
:10217000000000000000000000000000000000005F
:10218000000000000000000000000000000000004F
:10219000000000000000000000000000000000003F
:1021A000000000000000000000000000000000002F
:1021B000000000000000000000000000000000001F
:1021C000000000000000000000000000000000000F
:1021D00000000000000000000000000000000000FF
:1021E00000000000000000000000000000000000EF
:1021F00000000000000000000000000000000000DF
:1022000010B5054C237833B9044B13B10448AFF330
:1022100000800123237010BD8830002000000000E2
:102220001CCF0600084B10B51BB108480849AFF396
:1022300000800848036803B910BD074B002BFBD092
:10224000BDE81040184700BF000000001CCF06008A
:102250008C3000207030002000000000154B002B57
:1022600008BF134B9D46A3F5803A00218B460F46CD
:102270001348144A121A00F065F80F4B002B00D0D7
:1022800098470E4B002B00D09847002000210400F7
:102290000D000D48002802D00C48AFF3008000F07C
:1022A0002BF8200029000AF06DFB00F011F800BFA8
:1022B00000000800000004200000000000000000F2
:1022C00088300020041901200000000000000000F8
:1022D00008B5074B044613B10021AFF30080054B4E
:1022E0001868836A03B19847204600F033F800BFAE
:1022F000000000005844060070B50E4B0E4CE41A66
:10230000A41000251E46A54204D056F82530984753
:102310000135F8E742F092F8084C094BE41AA41092
:1023200000251E46A54204D056F8253098470135B1
:10233000F8E770BD68300020683000206C30002065
:102340006830002002440346934202D003F8011B88
:10235000FAE77047FEE700BF2DE9F04F1546C7B01A
:102360001C46002900F01C81002B00F0EF800A239E
:1023700001930023194606AE519B539A519F03EBDC
:10238000020B019B013B059320258C4601980CEB29
:10239000000304933133F318029306EB0C03002877
:1023A0005FD05A4202F00302824228BF024606284A
:1023B00000F2EC80019A06F80C50012A03F10101A9
:1023C00000F0E280022A5D7003F1020100F0DC807F
:1023D000032A9D7003F1030100F0D680042ADD700A
:1023E00003F1040100F0D080062A1D7103F10501FC
:1023F00040F0D3805D71991D9646019890422ED091
:10240000C2EB0009A9F1040080080130039005988F
:10241000C2EB000A0398BAF1020F4FEA800812D902
:10242000624401284FF0203C06EB020A46F802C045
:1024300005D00228CAF804C001D0CAF808C0C845AF
:102440004144C6440BD001980D700EF10102904238
:1024500005D90EF1020E70454D7000D98D70019AAC
:102460001344534A0299D2F80080DDF84891DA1CEF
:10247000481C03F1330C0CE002F8035C02F8025C28
:1024800002F8015C0332624500F8015C00F10100D2
:1024900033D0A345F0D9A74295BFE11B509919F855
:1024A0000110095D02F8015C4FEA211E5FFA8EFA05
:1024B000BEF1090F01F00F0ED4BF0AF1300A0AF184
:1024C000370ABEF1090F02F803AC94BF0EF1300ECB
:1024D0000EF1370E08EB010A02F802EC9AF801E05F
:1024E00003321EF0970F08BF2E21624500F8011C31
:1024F00004F1010400F10100CBD1029804990D22EE
:102500004FF00A0801F14309027480F8118083F842
:10251000305023464FF0000A4C46994606EB0A011C
:10252000224600200AF000FD8244241A10B9B8F1B6
:10253000010801D0002CF1D1CB454C464FF0000CE6
:102540003FF624AF204647B0BDE8F08F06AE0B68DB
:10255000184A30464FF4807140F0D6FF0028F1DB76
:102560000A2307460193284641F035F8C22828BFC0
:10257000C220804629460246F01940F033FC08EBA1
:10258000070300241946F7E6964636E7002A7FF44B
:1025900012AF19469646019832E74FF0050E2CE728
:1025A00013B1019106AEE7E60194274606AEDAE7DD
:1025B000643000205C4406002DE9F0419046C6B02E
:1025C0001F46C1B106AE0B68564A30464FF48071C3
:1025D00040F09AFF00280ADB4C9B0546062B00F2D0
:1025E0009F80DFE803F042525D6A798A1400002080
:1025F00046B0BDE8F0814C9B062B00F28F80DFE8EF
:1026000003F033424D5A697A0400002506AE07F103
:102610000C017A683B68D7F808C092C9701900921B
:10262000029103944246CDF804C00497C5F5807129
:1026300040F06AFF0446002CD9DB2C44B4F5807FBF
:10264000D5D80A27002506AE7119224600200AF0C7
:102650006BFC0544241A08B9013F01D0002CF3D1CA
:10266000012046B0BDE8F0810025404640F0B3FFB0
:102670004319FF2B0446DED806AE414670192246A8
:1026800040F0B0FBD7E7002506AE701942463B6824
:10269000C5F5807140F038FF0446CCE7002506AE52
:1026A0007A683B68009270194246C5F5807140F027
:1026B0002BFF0446BFE7002506AE7A68B9683B6881
:1026C0000092019170194246C5F5807140F01CFFDF
:1026D0000446B0E7002506AE7A68BC68F9683B6836
:1026E00000920194029170194246C5F5807140F044
:1026F0000BFF04469FE7002506AE07F108017A6844
:102700003B6892C970190092019102944246039766
:10271000C5F5807140F0F8FE04468CE7002490E790
:1027200000248AE75C44060070B5074C074D237807
:10273000064613B12B78834204D00AF039FD0123F9
:102740002E702370002070BDA5300020A430002022
:1027500000487047B925020000487047592302001D
:1027600038B50120FFF7E0FF044638B9FFF7F0FF66
:102770000546FFF7F1FF024B5D619861204638BDC9
:10278000A830002010B5054C82B00A4600216469CB
:1027900000910B46A04702B010BD00BFA83000203A
:1027A00030B585B004AB054C43F8042D01250A462D
:1027B000646900950021A04705B030BDA830002015
:1027C00030B5064C85B00225029203930A4664692F
:1027D0000095002102ABA04705B030BDA830002015
:1027E000084B1B5C1F2B8ABF074A4FF0A04203F027
:1027F0001F03D2F80405D84000F0010080F001006A
:10280000704700BF6444060000030050074B1B5C88
:102810001F2B86BF03F01F0305494FF0A041012283
:1028200002FA03F3C1F80C35704700BF6444060098
:1028300000030050064B1A5C1F2A86BF02F01F02DD
:1028400004494FF0A04101239340C1F80835704777
:1028500064440600000300504FF0A04310B44FF44E
:1028600080404FF400544FF400414FF48032C3F8DD
:102870000845C3F80805C3F80815C3F808255DF82E
:10288000044B70474FF0A04310B44FF480404FF416
:1028900000544FF400414FF48032C3F80C45C3F8A4
:1028A0000C05C3F80C15C3F80C255DF8044B7047F4
:1028B0000A4B195C1F298ABF09484FF0A04001F05C
:1028C0001F01D0F8043501228A4022EA0301134097
:1028D000C0F80815C0F80C35704700BF6444060006
:1028E0000003005030B44FF0A04303224FF40055D2
:1028F0004FF480444FF400404FF48031C3F8342744
:10290000C3F83827C3F83C27C3F84027C3F8085555
:10291000C3F80845C3F80805C3F8081530BC70476C
:102920000B2809D00C2809D0182809D0192814BF61
:102930004FF0FF30032070470020704701207047A0
:10294000022070472DE9F043384BDFF8E8801B6820
:102950009F0739D10FCB88E80F00354B98F80C1042
:1029600098F80D7098F80E5098F80F00DFF8C8C06E
:10297000DFF8C890042296074FEA92040BD11CF8A6
:10298000076019F804401CF805701CF800501CF88A
:10299000010086EA040113F8104C614008F8221087
:1029A00013F80FEC13F80E6C13F80D4C013287EA94
:1029B0000E07754060402C2A5F709D70D87003F13F
:1029C0000403D8D1BDE8F0831A7888F800205A783B
:1029D00088F801209A7888F80220DA7888F80320AD
:1029E0001A7988F804205A7988F805209A7988F8A5
:1029F0000620DA7988F807201A7A88F808205A7AA7
:102A000088F809209A7A88F80A20DA7A88F80B2060
:102A10001A7B88F80C205A7B88F80D209A7B88F85E
:102A20000E20DB7B88F80F3097E700BF783100205D
:102A3000D4300020C43000206844060068460600F8
:102A40002DE9F04F764BD3F800B0764BA0338FB022
:102A500043EA0B020BF1200150070D9140F0658213
:102A600003F120025A4588BF994200F25E820BF1C1
:102A7000040023C8A03BDBF80040D3F8A020D3F823
:102A8000A430624043408BE80C00664BD3F8A8208A
:102A9000D3F8AC304A406B40CBF80820CBF80C3070
:102AA000604B09930BF101030C930BF11003089396
:102AB0005846847A0294C47B90F80190437B079433
:102AC000594C90F80580E35C14F809400094564C8A
:102AD00090F809C014F80880057B534C90F800E08A
:102AE0000779067A14F80CA0E75DA65D14F805B026
:102AF00014F80EE08278817903922546029C827B4D
:102B00000491C17805920691C27AC179CDF804800A
:102B10002C5D9DF8005045710B969DF8045006728F
:102B2000414E4572059D0A9707713746755D17F846
:102B300002C00295079A039D17F80280755D069AF8
:102B4000049E17F80290BE5D795C9DF808204370E2
:102B500080F800E08470827185728673C17080F89D
:102B600007C080F80DA080F80CB080F80B80099F9A
:102B700080F80F9097F890208EEA020E80F800E01F
:102B800097F891205340437097F892305C408470DE
:102B900097F89330019C5940C1703A4697F89430A9
:102BA0000A9F00995F40077192F895304B4043713E
:102BB00092F8963002994B40837192F897300B99B6
:102BC0008CEA030C80F807C092F898304B400372EF
:102BD00092F899306340437292F89A305D40857262
:102BE00092F89B3088EA030880F80B8092F89C30BA
:102BF0008BEA0303037392F89D300A908AEA030379
:102C0000437392F89E305E40867392F89F300C9A20
:102C1000059289EA030980F80F90034606E000BF99
:102C200074310020C430002068450600059A987869
:102C300012F8011C04460A46D87800900D46D009C7
:102C4000597801944FEA400CCE09844400980295CB
:102C50000F46E2097100C4090E4451000A446100A4
:102C60000C440CEBCC0C019903978CEA450C02EB5D
:102C7000C202009D5FFA8CFC82EA410204EBC404AC
:102C80004FEADC11D2B284EA450406EBC606E4B290
:102C900086EA47064800D70908444FEA470EE1098B
:102CA000BE4400EBC0004F00F6B280EA4C000F4477
:102CB0005FFA80FBF50907EBC7074FEADB104FEA25
:102CC000450887EA4407FFB245444FEA40080497A5
:102CD00040444FEAD718029F05EBC5058BEA07076A
:102CE0000EEBCE0E069785EA4605019F8EEA420E50
:102CF000EDB25FFA8EFE00EBC000E9098BEA0C0A28
:102D000080EA4B008EEA070B029F4FEA41098CEAEA
:102D1000070C4944039FCDF81CC04FEADE1901EBB4
:102D2000C1018AEA0B0A4FEA490C86EA070B81EADD
:102D300045016E407D40009FE1444FEA480CE0446D
:102D4000BC46049F87EA0C0C86EA0C0687EA040C52
:102D5000009F7C40019F8AEA0B0A8EEA020B7A40B0
:102D6000069F87EA0B0B049F564008EBC808079A9A
:102D700085EA0C0588EA4708029FC0B2554009EB76
:102D8000C9098BEA0404C9B2009A8AEA000A4440DD
:102D9000454089EA4E097840039F5FFA89F95FFA56
:102DA00088F84E408AEA010A82EA080C4D40059AEA
:102DB00089EA060689EA040479408AEA090A019F39
:102DC00088EA050588EA06068AEA0C0A88EA040801
:102DD00002F801AC87EA09090432704088EA01016F
:102DE000587085EA090599700592089ADD700433D8
:102DF00093427FF41BAF099BC34A0A98103B93424E
:102E000009937FF456AE834690F80DE09BF80B30A3
:102E10004778467990F809C0857A80789BF8072032
:102E20009BF80F909BF80E409BF806109BF80380D0
:102E30005FFA83FA5FFA8EFEB44B13F80EE08BF85C
:102E400001E0FFB29BF800E0DF5D13F80EE08BF8C5
:102E50000570F6B29BF804709E5D8BF809608BF8E4
:102E600000E09BF808609BF80CE0DF5D9E5D13F8C6
:102E70000EE08BF808605FFA8CFCEDB213F80CC022
:102E80005D5DA34B8BF80470D2B243EA0B065FFA88
:102E900089F99E4B8BF80DC0C0B2E4B2C9B25FFA9B
:102EA00088F88BF80CE08BF802509D5C13F8092031
:102EB0008BF80B2032461C5D185C595C13F80A70C5
:102EC00013F808308BF80F3052078BF806408BF858
:102ED0000A008BF80E108BF803508BF807708C4BA0
:102EE00040F0A0800D9903F120025A4588BF994215
:102EF00000F2988059681A68DBF80060DBF804502B
:102F0000DBF80840DBF80C0072406940CBF8002089
:102F1000CBF804109A68DB6862404340CBF8082085
:102F2000CBF80C300FB0BDE8F08F794B9BF801C0A7
:102F300093F8A0809BF800309BF802E09BF80370A8
:102F40009BF804609BF805509BF806409BF807002F
:102F50009BF808109BF809209BF80A9088EA030365
:102F60008BF800306A4B93F8A18088EA0C0C8BF840
:102F700001C093F8A2C08CEA0E0E8BF802E093F821
:102F8000A3E08EEA07078BF8037093F8A4707E40E5
:102F90008BF8046093F8A56075408BF8055093F8A2
:102FA000A6506C408BF8064093F8A74060408BF821
:102FB000070093F8A80041408BF8081093F8A91077
:102FC0004A408BF8092093F8AA2089EA02038BF87B
:102FD0000A304F4B93F8AB509BF80B409BF80C001A
:102FE0009BF80D109BF80E209BF80F306C408BF86F
:102FF0000B40474C94F8AC4060408BF80C004448C0
:1030000090F8AD0041408BF80D10414991F8AE1099
:103010004A408BF80E203E4A92F8AF2053408BF87E
:103020000F303DE53A4B9BF8008093F800909BF8F9
:1030300001C09BF802E09BF803709BF804609BF8CA
:1030400005509BF806409BF807009BF808109BF87A
:1030500009209BF80AA089EA08088BF8008093F8F9
:10306000018088EA0C0C8BF801C093F802C08CEA4E
:103070000E0E8BF802E093F803E08EEA07078BF858
:1030800003701F797E408BF804605E7975408BF881
:1030900005509D796C408BF80640DC7960408BF8D8
:1030A0000700187A41408BF80810597A4A408BF88B
:1030B00009209A7A8AEA02038BF80A30144BDD7AE7
:1030C0009BF80B409BF80C009BF80D109BF80E2012
:1030D0009BF80F306C408BF80B400D4C247B60400C
:1030E0008BF80C000A48407B41408BF80D100849D2
:1030F000897B4A408BF80E20054AD27B53408BF8DF
:103100000F300FB0BDE8F08F343000206845060066
:10311000C43000202DE9F04FD84BD3F800B0D84B85
:103120008DB043EA0B030BF120025B070A9240F0DB
:103130001982D34B194620335B4588BF8A4200F27F
:1031400011820BF1040091E80C0023C8DBF8004069
:10315000434062408BE80C00C94B9A68DB684A40E8
:103160006B40CBF80820CBF80C30C54B01939BF893
:10317000013004939BF8053005939BF802309BF8CF
:10318000085003939BF806300B939BF80AE09BF8DA
:103190000D009BF80BC09BF803A09BF80780CDF8AF
:1031A0001CE00BF101020992AE460BF110029BF8F4
:1031B00000909BF804709BF80C609BF809409BF80A
:1031C0000E109BF80F300B9D0292CDF818A06246AE
:1031D0008246CDF82080AB4810F80EC010F806E00B
:1031E000049E10F80780875D065D039C10F80AA016
:1031F00010F80990005DA34C0390645D0798A14D01
:1032000004942D5C9F480795455C8BF808C00146E7
:1032100006988BF809A00C5C08988BF80090085C65
:10322000895C984A8BF80480D35C06931346059A10
:103230008BF80CE09B5C8BF80D708BF805609DF8AB
:103240000C208BF80A209DF810208BF80E209DF89A
:103250001C208BF80220DDF824C09DF818208BF884
:1032600006508BF807408BF80B008BF80F108BF88B
:1032700003208BF80130DA46CDF80CB01CF8014C75
:103280009AF801609AF802109AF8030086EA04029C
:10329000D3094FEA430E734480EA010503EBC303ED
:1032A00083EA42036A4084EA000986EA01074FEA9A
:1032B000D51854404FEAD91B4FEAD71E5C404FEA5D
:1032C000480350405140984472404FEA4E034FEA41
:1032D0004B069E44B3440BEBCB0B08EBC8080EEB3C
:1032E000CE0E8BEA490988EA45058EEA470780EA4F
:1032F000090069407A40029B0CF8014C0AF1040A6B
:103300000AF8010C0AF8021C0AF8032C9A450CF181
:10331000040CB3D1DDF80CB0019A9BF8008092F850
:1033200010909BF801C09BF802E09BF803709BF89B
:1033300004609BF805509BF806409BF808109BF82A
:1033400009A09BF807009BF80A3089EA08098BF866
:10335000009092F81180019A88EA0C0C8BF801C059
:10336000CDF810C092F812C0019A8CEA0E0E8BF8BC
:1033700002E0CDF80CE092F813E08EEA07078BF834
:1033800003700697177D77408BF80470567D754063
:103390008BF805500595957D65408BF80650D47DDA
:1033A0009BF80C609BF80DC060408BF8070092F80A
:1033B00018E008908EEA010E8BF808E0547E9BF826
:1033C0000E1084EA0A048BF80940907E43408BF883
:1033D0000A3092F81B80079310469BF80B209BF84D
:1033E0000F3088EA02028BF80B2090F81C8088EAE4
:1033F00006068BF80C6090F81DA08AEA0C0A8BF880
:103400000DA090F81EC08CEA01018BF80E1090F808
:103410001FC010308CEA0303019084461A488BF8D1
:103420000F3084457FF4D7AE9BF803109BF8002043
:103430009BF804909BF808809BF80CC09BF80E004A
:1034400001919BF809E00F499BF80D709BF8026011
:103450009BF806509BF80A408A5C11F8099011F815
:10346000088011F80CC011F80EE0CF5D8E5D4D5D47
:103470000C5D095C8DF80810019807E0743100209C
:10348000C43000206844060054310020AD499BF848
:1034900007A08BF800208BF804909BF80B209BF87A
:1034A00001908BF808808BF80CC09BF805809BF886
:1034B0000FC0095C8BF80710A249A34B11F80A1042
:1034C0008BF80B109F498BF805E011F802A011F85A
:1034D0000C2011F809108BF809701046994A8BF8E6
:1034E000024003F1A00E12F808C09DF808208BF8E6
:1034F0000A604BEA0E0818F0070F8BF806208BF8CD
:103500000E508BF803008BF80FA08BF80D108BF882
:1035100001C040F098800A9903F1C0025A4588BF63
:10352000714500F29080D3F8A020D3F8A410DBF806
:103530000060DBF80450DBF80840DBF80C00724058
:103540006940CBF80020CBF80410D3F8A820D3F8BA
:10355000AC3062404340CBF80820CBF80C300DB0C3
:10356000BDE8F08F784B9BF801C093F800809BF882
:1035700000309BF802E09BF803709BF804609BF816
:1035800005509BF806409BF807009BF808109BF835
:1035900009209BF80A9088EA03038BF800306A4BF5
:1035A00093F8018088EA0C0C8BF801C093F802C0F4
:1035B0008CEA0E0E8BF802E093F803E08EEA070720
:1035C0008BF803701F797E408BF804605E7975403C
:1035D0008BF805509D796C408BF80640DC79604093
:1035E0008BF80700187A41408BF80810597A4A4046
:1035F0008BF809209A7A89EA02038BF80A30524B39
:10360000DD7A9BF80B409BF80C009BF80D109BF8A3
:103610000E209BF80F306C408BF80B404A4C247BFB
:1036200060408BF80C004848407B41408BF80D10FF
:103630004549897B4A408BF80E20434AD27B534050
:103640008BF80F3091E5404B9BF8008093F8A090E9
:103650009BF801C09BF802E09BF803709BF80460A4
:103660009BF805509BF806409BF807009BF8081054
:103670009BF809209BF80AA089EA08088BF80080CB
:1036800093F8A18088EA0C0C8BF801C093F8A2C0D3
:103690008CEA0E0E8BF802E093F8A3E08EEA07079F
:1036A0008BF8037093F8A4707E408BF8046093F855
:1036B000A56075408BF8055093F8A6506C408BF8C8
:1036C000064093F8A74060408BF8070093F8A800E5
:1036D00041408BF8081093F8A9104A408BF8092054
:1036E00093F8AA208AEA02038BF80A30164B93F863
:1036F000AB509BF80B409BF80C009BF80D109BF80F
:103700000E209BF80F306C408BF80B400E4C94F859
:10371000AC4060408BF80C000B4890F8AD00414085
:103720008BF80D10084991F8AE104A408BF80E2026
:10373000054A92F8AF2053408BF80F300DB0BDE82A
:10374000F08F00BF68440600C430002042EA000346
:103750009B0710B517D1131D041DA24238BF984214
:1037600011D3036813604368536083689360C36830
:10377000D3601548154B02601960FFF7E3F8BDE808
:103780001040FFF7C7BC03781370437853708378F9
:103790009370C378D370037913714379537183792C
:1037A0009371C379D371037A1372437A5372837A14
:1037B0009372C37AD372037B1373437B5373837BFC
:1037C0009373C37BD373D4E7743100207831002026
:1037D00042EA00039B0710B517D1131D041DA24236
:1037E00038BF984211D303681360436853608368FD
:1037F0009360C368D3601548154B02601960FFF7EA
:10380000A1F8BDE81040FFF71BB9037813704378A7
:10381000537083789370C378D370037913714379AD
:10382000537183799371C379D371037A1372437A95
:103830005372837A9372C37AD372037B1373437B7D
:103840005373837B9373C37BD373D4E774310020AA
:10385000783100204B4B1978002900F091802DE938
:10386000F04F87B0DFF828C104910024012504E05F
:103870000134049BE4B29C4265D227B2DCF80060BC
:1038800016F83700A0F1200305FA03F93E4BC0F10A
:10389000200ED3E9002325FA0EFE49EA0E0905FAA7
:1038A00000F808EA020A09EA030B06EBC7015AEA24
:1038B0000B0E0591DCD03449CDF810C022EA080285
:1038C00023EA0903C1E9002307F0F8FC16F8376082
:1038D000DDF810C0A6F1200205FA02F2019201996A
:1038E000C6F120035FFA80FA25FA03F3A6F120025D
:1038F00019430AFA02F30393019105FA06F10091C4
:10390000C6F120070399214B2AFA07F7394303919F
:103910000AFA06F1D3E900230291DDE90001104023
:10392000194002460B46DDE902018B4208BF824284
:103930004FF0000B0AD0134B1B7804930134049B07
:10394000E4B29C4299D307B0BDE8F08F059A57685E
:1039500052780023A2F10102B2FA82F25209002F3A
:10396000E9D05B4506BF5245012100213046CDF824
:1039700014C0B847034BDDF814C01B78049377E7F5
:10398000704700BF84310020B0310020A8310020F2
:10399000803100202DE9F8430746204800F0F4FD6F
:1039A000D0B91F4E0123A7F1200103FA01F5C7F199
:1039B0002002D6E9000123FA02F2154303FA07F4C4
:1039C00004EA000205EA0103134307D020EA0404D5
:1039D00021EA0505C6E90045BDE8F883384607F049
:1039E0006DFC104FD7E9002398B144EA020845EA7C
:1039F0000309D6E9002314431D43C7E90089C6E93A
:103A000000450949054809680022BDE8F84300F06F
:103A100061BD22EA040823EA0509EAE788310020AB
:103A2000B0310020A83100207C310020F0B5042AFC
:103A300083B0164602D8072003B0F0BD05460F46F6
:103A400007F0DCFA002836D01D4BDFF88CC0DFF819
:103A50008CE01C481C491D60002200237C1E8CF851
:103A60000070CEF80060C0E90023C1E90023E4B291
:103A7000DFB10327002600E01C4623B205EBC3029A
:103A800015F833009378114A8DF8053001A98DF8A7
:103A900004708DF806608DF8076007F0B9FA631EB0
:103AA0000028C9D1DBB2002CE6D1094A094800211F
:103AB00000F0FEFCC0E707F05BFA0028C4D0BBE7CB
:103AC00080310020A8310020B0310020953902005B
:103AD0005538020068470600843100207C31002000
:103AE00070B5084D2B785BB1074E00243368012177
:103AF00013F8340007F066FB2B780134A342F5D8A5
:103B0000002070BD843100208031002000B585B0D8
:103B100000230390194644F2010001AAADF80430D5
:103B2000029300F003F805B05DF804FB08B501202E
:103B30000949FEF727FE03200849FEF723FEBFF3DD
:103B40004F8F0749074BCA6802F4E0621343CB600A
:103B5000BFF34F8F00BFFDE76C4706007C470600B0
:103B600000ED00E00400FA0510B48468C268034662
:103B70008088121B904203D204205DF8044B7047EA
:103B8000DA681C6802400020A154DA680132DA6069
:103B90005DF8044B704700BF03468068DA689042C6
:103BA0000DD010B49A6898881C6802400020A25C6E
:103BB0000A709A6801329A605DF8044B70470520DC
:103BC000704700BF12F0030301D0072070472DE9B2
:103BD000F0414C1C0546DFF83C800B480B4F0C4E67
:103BE000DFF834C0DFF834E088F80030E400A4B235
:103BF000144403703D803180CCF80040CEF80020A2
:103C00001846BDE8F08100BFC2310020C03100205D
:103C1000C4310020C3310020BC310020B831002065
:103C20002DE9F0472C4D2B888B4282B00C4603D2F5
:103C3000092002B0BDE8F087064602A84FF0000850
:103C400000F8018D174600F027FD244B244A254833
:103C5000197813780088DBB2834238BF0133C9B2C8
:103C600038BF5FFA83F841451FD092F8008013787F
:103C7000DFF87890DBB283423ABF0133DBB2002336
:103C80005FFA88F89DF80700137000F02DFDD9F851
:103C900000300FFA88F24FEAC20A43F832705344F8
:103CA00006B144B900209880C3E79DF8070000F0F2
:103CB0001BFD0420BDE70C4B28881B68314600FB28
:103CC000083022463FF08EF8D9F800309A440020A0
:103CD000AAF80440ADE700BFC0310020C231002087
:103CE000C3310020C4310020BC310020B831002095
:103CF0002DE9F047174F184C3A7823789A4226D08E
:103D0000DFF85C90DFF85C80144EDFF85CA03B7855
:103D1000D9F800203088D8F80050DBB20FFA83FCC5
:103D200002EBCC0100FB0350898852F83C309847E5
:103D30003B78BAF80020DBB29A4203F101038CBF52
:103D4000DBB200233B703A7823789A42DFD1BDE89A
:103D5000F08700BFC2310020C3310020C0310020F5
:103D6000B8310020BC310020C4310020082910B532
:103D7000044602D00020FFF7C9FE23686068BDE852
:103D800010401847F0B5264A264B0025C2F840518E
:103D9000C2F84451C2F84851C2F84C51C2F800511F
:103DA000C2F804511B6883B013B31F49D2F804252D
:103DB0000C68141B1A6824F07F44A2422F4609D8CD
:103DC000197CDE69A41A1544A1B91EB133461A68DC
:103DD000A242F5D9154B16491A780B789A4218D099
:103DE0001449154A41F823504FF48013C2F80031AA
:103DF00003B0F0BD99691F7401915B690F4A00938C
:103E000068460821FFF70CFF0028DED0FFF77EFE92
:103E1000DBE7531CDBB2022B08BF00230B70DFE78C
:103E200000100140CC310020C8310020D0310020EA
:103E3000D1310020E032002000E100E06D3D0200C1
:103E40002DE9F04F7D4A7E49137809787D489942E3
:103E500087B0066800F0E8810133DBB2022B08BFAF
:103E6000002379491370794A0291084652F82310C9
:103E7000036874488A19002522F07F420260AE462A
:103E80002846A3B11A688A4200F2D681DC68C3F8DA
:103E900000E0891A1044DA6934B1871927F07F47A6
:103EA000DD619C605F601D461346002BEAD1029ADB
:103EB00004931360049C01230593654BDFF8948100
:103EC0001B7801935F4BDFF890C1D3F800A0029BF1
:103ED0001F680023BB462F460093C1461E464FF085
:103EE000010E37B37A68B9683D46FF69CAEB020331
:103EF00023F07F4363453CD80B442B606E60AE607B
:103F000085F810E0EE61002C67D021688B4242D921
:103F1000204603E01168994244D21046C2695B1AF8
:103F2000002AF7D12B60EA612346C5611C46002FA9
:103F3000D8D198F8003098F801209A4200F08E808D
:103F40005A1C03EB430308EBC30399F802109D6866
:103F5000D2B2914289F800201A7908BF89F800701E
:103F6000022A48D0032A3CD0012A22D023461C46EC
:103F7000DDE7C2EB0A0222F07F428A4202D28B1AAC
:103F80002B60BBE72E606E60AE6085F810E0EE61DE
:103F90001CB321680023CB1A23602B46EC61AB468F
:103FA0001C46C4E7C91A11602B60EA612346C5614B
:103FB000BCE72A7C0392002AD8D1DA686A601969C2
:103FC000A9605869E86010339B68AB61019B002BC6
:103FD0008CD0039B6B601A4688E72B46AB461C4689
:103FE000A5E70CB9C2E71C46E3692674002BFAD199
:103FF0009B461C469BE754B1A54200F0088123462E
:1040000002E0954207D01346DA69002AF9D1234627
:104010002E741C468BE7AB4200F0FA80E9692868F1
:10402000D9610029F3D023460A6802440A60009A45
:104030002E749C4218BF01220092EAE7D031002082
:10404000D1310020C8310020CC310020E0320020E6
:10405000D2310020D4310020FEFF7F00029B9DF86A
:104060000420C3F800B0764BC3F800A0754B1A705B
:10407000009B1BB9049BA34200F03D81002C00F083
:10408000C080714D6E4BD5F804051B686F4ED4F897
:1040900000C03178C21A22F07F420332002952D187
:1040A0006B4FDFF8B091DFF8B0814FF480314FF4FF
:1040B000003E0124C5F84413C5F80413C7F880E195
:1040C000C7F800E02C602F21D9F8005000BF00BFD6
:1040D00000BF00BF00BF00BF00BF00BF45452FD0DD
:1040E00000BF00BF00BF00BF00BF00BF00BF00BFD8
:1040F00000BF00BF00BF00BF00BF00BF00BF00BFC8
:1041000000BF00BF00BF00BF00BF00BF00BF00BFB7
:1041100000BF00BF00BF00BF00BF00BF00BF00BFA7
:1041200000BF00BF00BF00BF00BF00BF00BF00BF97
:1041300000BF00BF00BF00BF00BF00BF00BF00BF87
:104140000139C3D1347062452CBF9A1803EB0C02BD
:104150003D4922F07F43C1F84035D1F80425121AB9
:104160001B1A22F07F4223F07F4303329A4248D940
:10417000D1F80435374AC1F84035126836492F2343
:1041800000BF00BF00BF00BF00BF00BF00BF00BF37
:104190008A422FD000BF00BF00BF00BF00BF00BFDA
:1041A00000BF00BF00BF00BF00BF00BF00BF00BF17
:1041B00000BF00BF00BF00BF00BF00BF00BF00BF07
:1041C00000BF00BF00BF00BF00BF00BF00BF00BFF7
:1041D00000BF00BF00BF00BF00BF00BF00BF00BFE7
:1041E00000BF00BF00BF00BF00BF00BF00BF00BFD7
:1041F00000BF00BF013BC3D1154B4FF40032C3F8E1
:104200000021104A0023137007B0BDE8F08F22464A
:10421000D4F81CB0BBF1000F22D0D16910685B4606
:1042200000297FF401AF02E70C4B02931B68049353
:10423000002505951C4640E6521A1A6037E600BF75
:10424000C8310020D231002000100140E8320020A7
:1042500000E100E00C3000200024F400CC3100200C
:104260002B492C4BC1F808E02B492F20096800BFCF
:1042700000BF00BF00BF00BF00BF00BF00BF99422A
:104280002FD000BF00BF00BF00BF00BF00BF00BFF6
:1042900000BF00BF00BF00BF00BF00BF00BF00BF26
:1042A00000BF00BF00BF00BF00BF00BF00BF00BF16
:1042B00000BF00BF00BF00BF00BF00BF00BF00BF06
:1042C00000BF00BF00BF00BF00BF00BF00BF00BFF6
:1042D00000BF00BF00BF00BF00BF00BF00BF00BFE6
:1042E00000BF0138C3D1D169106841B10122DA465B
:1042F0005B46019298E6059B002B82D0BEE6012327
:104300001A4601938A468B460B4600922E7480E62D
:10431000001001400024F4000C3000202DE9F04191
:10432000594B5A4A5A4D5B4E4FF480344FF400318A
:104330000120C2F88010C3F848432F21C3F8084376
:1043400058602D680C4600BF00BF00BF00BF00BF13
:1043500000BF00BF00BFB5422FD000BF00BF00BFED
:1043600000BF00BF00BF00BF00BF00BF00BF00BF55
:1043700000BF00BF00BF00BF00BF00BF00BF00BF45
:1043800000BF00BF00BF00BF00BF00BF00BF00BF35
:1043900000BF00BF00BF00BF00BF00BF00BF00BF25
:1043A00000BF00BF00BF00BF00BF00BF00BF00BF15
:1043B00000BF00BF00BF00BF00BF013CC3D1364CEF
:1043C00098600020206000BF00BF00BF00BF00BF9A
:1043D00000BF00BF00BFB5422FD000BF00BF00BF6D
:1043E00000BF00BF00BF00BF00BF00BF00BF00BFD5
:1043F00000BF00BF00BF00BF00BF00BF00BF00BFC5
:1044000000BF00BF00BF00BF00BF00BF00BF00BFB4
:1044100000BF00BF00BF00BF00BF00BF00BF00BFA4
:1044200000BF00BF00BF00BF00BF00BF00BF00BF94
:1044300000BF00BF00BF00BF00BF0139C3D1174D8F
:104440001749DFF86080DFF860C0DFF860E02870AF
:104450004FF48016E0250B27C8F800008CF8000008
:104460008EF80000087048708F70C2F8806182F882
:1044700014531660C3F8080582F81153D3F80435B5
:104480002360BDE8F08100BF0010014000E100E0C2
:104490000C3000200024F400C8310020E832002055
:1044A000D4310020CC310020D0310020D131002087
:1044B000074B9B780BB9082070473AB130B10368BD
:1044C000187C0028F7D159745A617047072070474B
:1044D000D43100202DE9F043284CA37883B01BB9D8
:1044E000082003B0BDE8F0830028F9D0042903D8E0
:1044F000072003B0BDE8F0834369002BF0D00646E7
:1045000002A8737C0025012B00F8015D0CBF8946D1
:10451000A94690460F4600F0BFF86378A07821784E
:104520005A1CD2B2904208BF2A4691421FD003EBD8
:10453000430304EBC30319464FF0010E41F8086F23
:104540000F4883F804E0D0F804654E608F609DF852
:104550000700C3F81490C3F81880627000F0C4F824
:10456000084B4FF480122846C3F80021B9E79DF8A4
:10457000070000F0B9F80420B3E700BFD4310020F1
:104580000010014000E100E070B51B4CA37882B040
:1045900013B9082002B070BD0028FAD04369002B7F
:1045A000F7D0064602A8002500F8015D357400F03A
:1045B00073F86278A0782178531CDBB2984208BF68
:1045C0002B46994212D002EB420204EBC2020221B6
:1045D0009DF8070096601171637000F085F8074B35
:1045E0004FF480122846C3F80021D3E79DF8070056
:1045F00000F07AF80420CDE7D431002000E100E09B
:10460000014BD3F80405704700100140401A20F018
:104610007F40704770B50B4C01460B482678FFF77A
:10462000BBFA05460EB9284670BD00230748084965
:104630002370012207F07CFA0028F4D0FFF766FA15
:10464000284670BD0433002008330020BC2F002012
:10465000F032002010B501460C48FFF785FA0446F9
:1046600008B1204610BD0A4807F056FA0028F8D1D4
:1046700006480849FFF790FA0028F2D10448054996
:104680000122BDE8104007F08DB900BFF4320020D0
:10469000BC2F0020EC320020F0B4EFF3108472B68F
:1046A0000E4B9A68B2B90E4901259D60D1F8807011
:1046B0000C4D2E463D401D60C1F88060D1F88450FD
:1046C0005D604FF0FF33C1F88430027004B962B608
:1046D000F0BC704701230370F8E700BFA8FF00207B
:1046E00000E100E0FC06FFBD094B9A6872B168B9B1
:1046F00010B4EFF3108272B606491C680C605C6857
:104700004C60986002B962B65DF8044B704700BF18
:10471000A8FF002000E100E02DE9F04F83B00CACD1
:1047200094E8100C0F9D804678B108689042894645
:1047300016460AD21F46002B41D0BAF1000F04D012
:104740001DB160B1002C3DD1B6BB3EF005FB284643
:104750004146002C50D1D8470023C9F80030A6426A
:1047600009D911E0A41BD047A64237440CD8D9F888
:104770000030002BE9D1B44228463946F2D1A41BBF
:10478000D847A6423744F2D9B4B1D9F80000351A57
:10479000A54228BF2546394640442A463EF022FB22
:1047A000D9F8000028448642A4EB05042F44C9F838
:1047B0000000CAD9002CEAD103B0BDE8F08F002C6C
:1047C000BBD0C2E7331AA34228BF23461A46394654
:1047D000404401933EF006FB019BD9F800201A44A7
:1047E0009642A4EB03041F44C9F80020AFD0A642B0
:1047F000CAD8002ABFD0A8E7D047ADE72DE9F04FCF
:1048000085B08146019103920E9DDDF83C80002821
:1048100000F09E800E6896421C4680F09980002C25
:1048200000F09280109B002B00F09280119B002BD7
:1048300000F08E80B8F1000F68D0002E6BD0039B83
:10484000C6EB030C4645334628BF4346002B56D0E3
:104850002E1D09EB0C02211D96428CBF002701275B
:104860000CF10400A94288BFA64294BF0121002197
:104870004844854234BF384647F00100062B94BFB8
:10488000002101F00101014250D045EA0401114329
:1048900089074BD1191F89080131261F02938F0008
:1048A000A2F1040BAA464FF0000E334653F8046FF2
:1048B0005BF8040F0EF1010E704071454AF8040BCD
:1048C000F4D8029BBB4224D014F8210012F82160D6
:1048D0004640781C834205F821601AD909EB00068E
:1048E000215C16F80C6002377140BB42295410D984
:1048F000D15DE25D4A40EA551C44019A1668019A6E
:10490000F61AB8EB030816601D4496D105B0BDE851
:10491000F08F1C44F1E7109B119849469847019B82
:104920001A46039B1360B4461E468BE720466E1E54
:104930001C4410F8011B12F8017BA04281EA070118
:1049400006F8011FF5D1D8E7B8F1000F3FF46AAFC0
:104950003EF002FA2DE9F04F87B0129C8DF8173027
:10496000012C9DF840A052D01BD3022C81468846D2
:10497000174619D1139B019301240293149B0393AF
:1049800000940DF11703FFF7C7FE139B01930293E9
:10499000149B03930094484641463A4611ABFFF7F7
:1049A000BBFE07B0BDE8F08F139D01950123029572
:1049B000149D009303950DF11703FFF7ADFE9DF8CD
:1049C0004460564537D0023C69D04FF0000BD8F810
:1049D00000600EE0AB191EB9AF4208BF4FF0010BEB
:1049E0009F4253D0D8F80060641B2E44C8F8006082
:1049F00055D0BD1BA54228BF2546BBF1000FE9D10C
:104A000009EB060051462A46FDF79CFCE2E79DF8BB
:104A100017509DF84460009406AB86EA050403F83D
:104A2000014D139C01940294149C0394FFF774FEAF
:104A300007B0BDE8F08F013CB3D0D8F800A04FF02C
:104A4000000B52464346A246D84614469B460FE00A
:104A50002A191CB9AF4208BF4FF0010897422ED067
:104A6000DBF800402C44CBF80040BAEB050A98D0A4
:104A70003D1B554528BF5546B8F1000FE8D109EB5D
:104A8000040031462A46FDF75DFCE1E71498139BCC
:104A9000494698470026641BC8F80060A9D1139ABC
:104AA000019202920123149A0392009348464146D0
:104AB0003A4611ABFFF730FE07B0BDE8F08F14980F
:104AC000139B494600249847CBF80040CDE700BF30
:104AD0002DE9F04F83B0C0F307234FF00008009397
:104AE000C3B24FEA106AC0F3074B019342464546F2
:104AF0004746C146009B89EA0B0089EA030E019BE9
:104B0000C0B289EA0A045FFA8EFE89EA030300F163
:104B1000FF3CE4B2DBB22CEA00000EF1FF3C661E63
:104B20002CEA0E0E03F1FF3C26EA04042CEA0303F0
:104B300011F8096044F3C01440F3C0104EF3C01ED6
:104B400043F3C013F6B2E4B2C0B25FFA8EFEDBB23A
:104B500009F1010927EA040725EA0005344030403D
:104B600022EA0E0228EA030806EA0E0EB9F5807F53
:104B700006EA030647EA040745EA00054EEA020290
:104B800046EA0808B6D1280440EA076747EA080061
:104B900040EA022003B0BDE8F08F00BF2DE9F047E6
:104BA00006465FEA920856F8047B07F101074FEAD0
:104BB00087073DD001EB880E4D780B78CC788A784A
:104BC0002D0445EA03632343043143EA022371457C
:104BD00040F8043FF0D1B84551D2B8F1060F28D9BA
:104BE00008F18045013D2B4C06EB8505C1460022AE
:104BF0004FF0010A0BE082B1042A46D0013256F888
:104C0000043B09F101095840B945286039D04245B3
:104C100055F8040BEFD10AF1010A1F494FEA306041
:104C2000FFF756FF14F80A30012280EA0360E6E736
:104C30002FB308F18045013DC146164C06EB8505B2
:104C400000224FF0010A09E072B1013256F8043B2C
:104C500009F101095840B945286014D0424555F87A
:104C6000040BF1D10AF1010A0B494FEA3060FFF75A
:104C70002FFF14F80A30012280EA0360E6E7BDE85E
:104C8000F087BDE8F087BDE8F0870349FFF720FF14
:104C90000522B4E798490600984706002DE9F04F31
:104CA00085B002900068039220F004030A2B03D021
:104CB0000C2801D03EF050F84B7891F805B091F8EF
:104CC0000DC091F809E00D780E7991F80C90CF782D
:104CD000CA7A91F8088001921B044FEA0B444FEA0C
:104CE0000E4E4FEA0C4243EA056591F807A044EAEC
:104CF000066B42EA096C45EA07038A78029DCE7B7F
:104D00008C7991F80A904EEA086891F80EE00199C2
:104D100048EA01086968019129464CEA0606CF680D
:104D20000969AD6848EA092846EA0E264BEA0A0BEB
:104D300043EA022388EA070A019A86EA01070299F0
:104D40004BEA0424012884EA050483EA020301F102
:104D5000140540F2B580012201F12408914656461F
:104D600018469749FFF7B4FE954983462046FFF75A
:104D7000AFFE934982463046FFF7AAFE90490646A9
:104D80003846FFF7A5FE0BF07F430AF47F0C0AF0CC
:104D90007F414CEA030C06F47F0406F47F420C4387
:104DA0004CEA020200F47F015FFA80FC06F07F45C6
:104DB00042EA0C0C00F07F430D430BF47F011943D2
:104DC0000CF080320AF47F43F6B20BF47F470B43BA
:104DD000D20943EA06012F434FEA3C235FFA8AF5E2
:104DE00002EB420200F47F403D43204302EBC20746
:104DF0005FFA8BF40CF07F3283EA3C4B58F8103C9E
:104E0000044387EA420258F8087C01978BEA0303BF
:104E100058F80C7C4FEA342B8BEA344B8BEA070BA7
:104E20004FEA352A019F8AEA354A04F0803E8AEA31
:104E3000070705F080364FEA312A82EA0C0C53400E
:104E40004FEADE1E58F8042C01F080308AEA314A1D
:104E5000F6090EEB4E0E8AEA020AC00904F07F3210
:104E600006EB46060EEBCE0E8EEA420E00EB40003D
:104E700005F07F3206EBC60686EA420600EBC0006C
:104E800001F07F3280EA42020298006809F10109CC
:104E900075408EEA04047E408BEA0E0E51408AEA89
:104EA000020A484586EA356683EA3C6345468EEA4F
:104EB00034648AEA316708F110083FF651AFB24610
:104EC00018463F49FFF704FE3D4980462046FFF75C
:104ED000FFFD3B4906465046FFF7FAFD38490446B8
:104EE0003846FFF7F5FD06F07F4304F47F0C08F029
:104EF0007F424CEA030C06F47F0104F07F4300F488
:104F00007F0E04F47F4900F07F4711434EEA030E01
:104F100008F47F03D5F800A01F4341EA090108F413
:104F20007F4300F47F4206F47F4BC0B2D5F8049073
:104F300047EA0B0B4CEA0202AF68ED685FFA88F8AB
:104F40004EEA030EF6B20843E4B2039980EA0A007F
:104F500042EA08024EEA06034BEA040482EA09091F
:104F60007B406C40020E4FEA104A4FEA10284FEA8D
:104F7000196C4FEA194E4FEA19271E0E1D0C4FEA05
:104F8000132B0A70C870220E200C81F807904FEA8C
:104F90001429CB72CC7381F801A081F8028081F8CA
:104FA00004C081F805E08F710E724D7281F80AB06D
:104FB0000A73487381F80E9005B0BDE8F08F00BF0A
:104FC000984706002DE9F04F036887B01D4605930A
:104FD00023F004030A2B039203D00C2D01D03DF0E3
:104FE000BBFE4D784B7B91F800C0059F4E7991F840
:104FF0000CA091F8049091F803804A7A91F808B0D7
:10500000CC792D0400EB071E45EA0C6C1B04CD7B0C
:10501000DEF81070300443EA0A6391F80EA0CE7AED
:105020002B4340EA09698878DEF8085043EA0A2AE7
:105030001204DEF804304CEA080C42EA0B6249EA3A
:10504000040991F806B08C7ADEF80C104CEA0028BE
:105050008AEA070A059F324388EA0308AEF10C0387
:1050600049EA0B2642EA042404937B1E86EA0506DD
:1050700084EA0104029300F03081AEF11C039B46E8
:10508000D646474606F07F410EF47F0207F47F0ABA
:1050900007F07F434AEA010A13430EF47F4104F408
:1050A0007F421A434AEA010104F07F430EF07F4039
:1050B00006F47F085FFA84FA04F47F04044348EAA4
:1050C0000308F0B207F47F4348EA03085FFA8EFE54
:1050D000104341EA0A0ABC4948EA0E08FFF7F8FC07
:1050E000B94981465046FFF7F3FC06F47F46264354
:1050F000FFB23743B44906464046FFF7E9FCB249E0
:1051000005463846FFF7E4FCDBF81C30DBF81020DE
:10511000DBF81410DBF81840584089EA02027140AD
:1051200000F0803802F0803901F080334FEAD8185F
:105130004FEAD9196540DB0908EB480809EB490932
:1051400000F07F3C02F07F3605F0803403EB430330
:1051500008EBC80809EBC90988EA4C0889EA46093E
:10516000E40901F07F3603EBC30308F0803E83EAD5
:10517000460304EB44041E4604EBC40405F07F33ED
:105180004FEADE1E09F0803784EA43030EEB4E0E31
:10519000FF0900930EEBCE0E08F07F3307EB4707B5
:1051A0008EEA430E019609F07F3307EBC70706F03E
:1051B000803687EA4307F609009C019B0EF0803C8D
:1051C00006EB460603F07F3306EBC60604F0803498
:1051D0004FEADC1C86EA43060EF07F3AE4090CEB4A
:1051E0004C0C009B80EA4A0A04EB44040CEBCC0C08
:1051F0008AEA0C0C03F07F3304EBC40484EA430412
:105200008CEA0E0E88EA000307F0803A83EA0E0368
:1052100083EA3C234FEADA1A8CEA080C06F0803065
:1052200083EA3C6C0AEB4A0A07F07F3382EA4303C5
:105230000AEBCA0AC00983EA0A0A00EB400006F03A
:105240007F3381EA430300EBC000584004F080380C
:10525000019B4FEAD818594008EB480804F07F3307
:1052600085EA430308EBC80883EA0808009B464028
:105270005D40019B714088EA040481EA3021584076
:10528000009B8AEA0707654089EA02027A4085EABC
:10529000382588EA0308029B82EA3A228AEA090A48
:1052A00082EA3A6A81EA306185EA3868013BABF10B
:1052B000100B8CEA3E4E8AEA374781EA364688EA86
:1052C000344402937FF4DEAE059B049A1B01C3F1C4
:1052D00010031A44F246B846049206F07F4208F0E2
:1052E0007F4308F47F050AF47F0106F47F0E0AF479
:1052F0007F4C04F47F401543194304F07F424EEA8B
:10530000020204F47F0745EA0C05014308F47F4CD0
:105310000AF07F43F0B23B4342EA0C02084306F432
:105320007F4629495FFA8AFA1E4342EA0A0AFFF7D2
:10533000CFFBE4B22C435FFA88F846EA080822491A
:1053400006462046FFF7C4FB1F4905465046FFF7B7
:10535000BFFB1D4904464046FFF7BAFB049A1346BB
:10536000D7689B68116852686340039C784071401D
:105370006A404FEA106A4FEA10494FEA10284FEA94
:10538000116C4FEA114E0F0A160E150C4FEA122B34
:10539000E073E170180E190CE2711A0AE37284F8D6
:1053A0000CA084F80D9084F80E8084F800C084F876
:1053B00001E0A7702671657184F806B020726172F1
:1053C000A27207B0BDE8F08F9848060070B5144689
:1053D0000E46F42200210546FCF7B4FF182C10D02D
:1053E000202C0CD0102C01D03DF0B6FC0A232B60F1
:1053F000314622462846BDE87040FFF7CFBB0E235A
:10540000F5E70C23F3E700BF2DE9F04702681268C7
:1054100088B0044600F1180E002A5ED00B4641EA1F
:105420000E01890749D1052A47D9151FAD08013555
:105430006946A800E946A3F1040804F1140C00270A
:1054400058F804AF5CF8046F01378AEA0606AF42E9
:1054500049F8046BF4D382421FD01EF8257013F86C
:10546000255008AE6F400644451CAA4206F8207C31
:1054700013D91EF805705E5D0DF1200C65440230F5
:105480007E40824205F8206C07D91EF800201B5C84
:1054900008AD2844534000F8203C04AA04F1280039
:1054A000012305F0B3F82368616D1B6801220B44EA
:1054B0006365A26508B0BDE8F087694698186E4636
:1054C00004F1170513F8017B15F8012F834282EAD6
:1054D000070206F8012BF5D1DFE76946DDE700BFDB
:1054E00010B5044684B06A462830012305F08EF8D2
:1054F0002368626D1B681344636504B010BD00BF70
:105500002DE9F0470268126888B0044600F1080EE1
:10551000002A5DD00B4641EA0E01890749D1052AD0
:1055200047D9151FAD0801356946A800E946A3F122
:10553000040804F1040C002758F804AF5CF8046F69
:1055400001378AEA0606AF4249F8046BF4D3824277
:105550001FD01EF8257013F8255008AE6F40064482
:10556000451CAA4206F8207C13D91EF805705E5D22
:105570000DF1200C654402307E40824205F8206C1B
:1055800007D91EF800201B5C08AD2844534000F8E2
:10559000203C04AA04F12800012305F037F8236811
:1055A000616D1B6801220B446365A26508B0BDE80C
:1055B000F087694698186E46E51D13F8017B15F8CB
:1055C000012F834282EA070206F8012BF5D1E0E7BA
:1055D0006946DEE7F0B50B68102B89B00E4645D161
:1055E0001746002128220446FCF7ACFE32682378D7
:1055F0006D462AB168460021FCF7A4FE9DF80030F4
:1056000073682A46384629469847284604A904F074
:1056100075FF04A8014604F0A1FF04A804F10801E5
:1056200004F048FF04A8014604F098FF04A804F120
:10563000180104F03FFF002504AB31463A4604F15F
:10564000280084E8C000049505950695079504F0A8
:10565000D5FF294604F140001022FCF773FE94F8B0
:10566000403025656565A56509B0F0BD3DF074FB6A
:1056700030B5044685B0002594E806006B46283016
:10568000009501950295039504F0B8FF04F14000E0
:1056900029461022FCF756FE94F8403025656565D2
:1056A000A56505B030BD00BFF0B50446006887B001
:1056B0000568002B32D0206D131803F00F0342B39E
:1056C000A06D48BB002B39D004F1400704F150060F
:1056D000DFF878E0009203940B4638463146CDF867
:1056E00004E0CDF808E02A46FFF716F8236DDFF84E
:1056F00064E00494EB1A00240293384631462A46AB
:1057000000940194CDF80CE08023FFF723F907B053
:10571000F0BD08B9636DA3B13DF01EFB0B4B1846FD
:105720008DE80C0002900B4603942A4604F14000D9
:1057300004F15001FEF7F0FF07B0F0BD0448034B41
:10574000EEE7A36D002BBFD0E6E700BFE1540200F7
:10575000015502000954020008B5826D034642B1AA
:1057600002680846126803F13001BDE808403DF0C8
:1057700039BB3DF0F1FA00BF2DE9F04F8A46B5B0D4
:105780000146804693461DA852469946439D449C37
:10579000FFF720FF1D9B1E68002E00F0A081002156
:1057A000324610A8FCF7CEFD34AB9A1900271DA88D
:1057B00002F8917CFFF75CFF419B3246002B40F0E2
:1057C000B4801DA810A90123FFF76EFF69461DA82C
:1057D000FFF7C2FF1D9B1F68002F00F080813A4633
:1057E000002110A8FCF7AEFD34AB3B4401261DA8F8
:1057F00003F8916CFFF73CFF3F9B3A46002B40F0CB
:10580000A08033461DA810A9FFF74EFF1DA804A9CC
:10581000FFF7A2FF10A8414652466B4604F090FFE6
:105820004B4610A85946429A04F0A2FF1D9B1E68E1
:10583000002E00F05481002132460CA8FCF782FDB6
:1058400034AB334402221DA803F8A12CFFF710FF4C
:105850000CA932461DA8B9F1000F7ED10123FFF734
:1058600023FF1DA808A9FFF777FFD8F80030A3424F
:10587000C0F03581002C55D0042C94BF00230123A7
:10588000AA0774D1002B72D000980899049A231F9C
:105890009B08013341404A40012B2A604FEA8302B2
:1058A00015D0019E0998059970404140022B69600E
:1058B0000DD0029E0A98069970404140032BA960C2
:1058C00005D0039E0B98079970404140E9609442CF
:1058D00028D034A91144501C11F8B0EC11F8D07C38
:1058E00011F8C06C8EEA07017140844205F823105C
:1058F00018D934AB1918023211F8B06C11F8D03C39
:1059000011F8C01C73404B4094422B540AD934AB5D
:10591000991811F8B00C11F8D03C11F8C01C434094
:105920004B40AB5435B0BDE8F08F3B461DA810A9E5
:10593000FFF7BAFE1DA84099419A0123FFF7B4FE74
:1059400044E71DA810A90023FFF7AEFE1DA83E994D
:105950003F9A3346FFF7A8FE58E70023FFF7A4FE5F
:105960001DA842994A460123FFF79EFE79E79DF85C
:1059700020009DF800109DF8102041404A40012C65
:105980002A70CFD99DF821009DF801109DF81120B3
:1059900041404A40022C6A70C4D09DF822009DF814
:1059A00002109DF8122041404A40032CAA70B9D041
:1059B0009DF823009DF803109DF8132041404A40B4
:1059C000EA70002BAED09DF824109DF804209DF8BD
:1059D00014304A405340052C2B71A3D99DF8251053
:1059E0009DF805209DF815304A405340062C6B71F8
:1059F00098D09DF826109DF806209DF816304A4054
:105A00005340072CAB718DD09DF827109DF80720CF
:105A10009DF817304A405340082CEB7182D09DF816
:105A200028109DF808209DF818304A405340092C52
:105A30002B723FF477AF9DF829109DF809209DF84F
:105A400019304A4053400A2C6B723FF46BAF9DF8FB
:105A50002A109DF80A209DF81A304A4053400B2C1A
:105A6000AB723FF45FAF9DF82B109DF80B209DF8B3
:105A70001B304A4053400C2CEB723FF453AF9DF85F
:105A80002C109DF80C209DF81C304A4053400D2CE2
:105A90002B733FF447AF9DF82D109DF80D209DF816
:105AA0001D304A4053400E2C6B733FF43BAF9DF8C2
:105AB0002E109DF80E209DF81E304A4053400F2CAA
:105AC000AB733FF42FAF9DF82F109DF80F209DF87A
:105AD0001F304A405340EB7335B0BDE8F08F3DF0C6
:105AE0003BF900BF73DF704774DF704777DF7047A3
:105AF00030B585B0044602F0E9F90546FFF7F4FF3A
:105B000030F0080334D123782BB3012B33D0244B4E
:105B10001B680BB100209847002110226846FCF753
:105B200011FC204A002403231288ADF80A208DF8C6
:105B3000003001948DF80840ADF80C4002F05CFC98
:105B400068462146FFF7CEFF112802D008B1FDF7C5
:105B5000DDFF05B030BD637805EB831595F90100D5
:105B6000FFF7C4FFA8B96078002100F04BF9CEE739
:105B7000FDF7CCFFC7E795F84C3105EB831595F998
:105B80000100FFF7B3FF38B96078012100F03AF95E
:105B9000BDE7FDF7BBFFE6E7FDF7B8FFF4E700BFA1
:105BA0001C330020C42F002030B5214B95B01B784A
:105BB0008DF8023000214FF4EA433C2205A80C4640
:105BC000ADF80030FCF7BEFB0222012305A88DF8DA
:105BD0001420ADF824308DF81640CDF828D000F010
:105BE000E5F8144B10221D78214601A8FCF7AAFB0A
:105BF000A54214BF22463C226423ADF81020ADF824
:105C00000E308DF8044002948DF80C4002F0F4FB45
:105C100001A82146FFF766FF112802D008B1FDF761
:105C200075FF054B1B680BB10120984715B030BDBF
:105C300018330020203300201C33002008B5084B07
:105C40001B7803B108BDFFF74FFF30F0080301D008
:105C5000FDF75CFF00F078FABDE80840FFF7A4BF4D
:105C600021330020014B188800F01CBAC42F0020FB
:105C7000014B1870704700BF20330020014B18788B
:105C8000704700BF2033002008B50388112B1BD0BC
:105C90001B2B0BD0102B00D008BD174A174B1088B8
:105CA00001221A70BDE8084000F0FCB9037A002B0D
:105CB000F2D1124B1B78002BEED1114B1B788BB11C
:105CC000BDE80840FFF770BF0C4B00221A70FFF7C9
:105CD0000BFF30F008030BD100F036FA084B1B78AD
:105CE000002BEDD1044B1888BDE8084000F0DAB96C
:105CF000FDF70CFFF0E700BFC42F00202133002088
:105D00002033002010B5044602F0E0F890F841314D
:105D100013B190F84D319BB990F84001C0EB40139E
:105D200000EB8300800080B2A04244F6206338BFBD
:105D30002046984295BF074B064A1880138010BD35
:105D400090F8400100EB800000EB8000400180B241
:105D5000EAE700BFC42F0020014B1888704700BF3E
:105D6000C42F0020F8B5DFF83CE0094F094E0A4D7A
:105D70000A4C8EF800000020307039602B702280B1
:105D800002F042FB0648BDE8F84000F0E3B900BF6E
:105D90001C3300202133002020330020C42F00209A
:105DA000F15A02001833002000F05EB970B5144BB0
:105DB00094B000240546186801904FF6AA63214666
:105DC0003C2205A8ADF80830ADF80C40049401AEB3
:105DD000FCF7B8FA29460122062502AB05A88DF882
:105DE00014408DF840400A968DF81750ADF82420E5
:105DF0000F9307F081FC08B1FDF788FE14B070BD69
:105E0000A449060070B594B00E46044602F05EF850
:105E1000054696BB00EB841393F82630202B32D036
:105E2000A0011A492A181346086892F827500190D1
:105E300012334FF6AA6400213C2205A8ADF80C509D
:105E40000493ADF80840FCF77DFA0022012301AE6F
:105E5000062502AC05A811468DF814200A968DF887
:105E60001750ADF824308DF840300F9407F044FC03
:105E700008B1FDF74BFE14B070BD204601F0E0FF05
:105E800095F84C41CCE701F0CDFFC9E7A4490600E5
:105E900070B52B4B2B4D03EB800282B029785678DE
:105EA0008DF80560044613F820008DF80400C9B190
:105EB00093F82830012B15D9013B9C4217D2538807
:105EC0004FF4FA704FF400420021E3FB02014FF45B
:105ED0007A7200233CF072FC621C01461A48FEF7FD
:105EE000F9FA48BB1CB9194A13680133136001F071
:105EF000EDFF90F84D314BB190F84C319DF80520F5
:105F00009A420ED09DF80430012B0AD0104B1B682A
:105F10000BB12A780AB902B070BD01A8984702B047
:105F200070BD0A4A0B4B1268A3FB02139B0803EBDC
:105F300083039A42EAD0EEE7FDF7E8FDD2E700BF1F
:105F4000703300204C3300202433002044330020E1
:105F500048330020CDCCCCCC30B583B001F0B6FFB7
:105F600090F84031EBB9384B1B780BB903B030BD1A
:105F7000364B1B884FF400424FF4FA700021E3FBCC
:105F800002014FF47A7200233CF018FC0022014613
:105F90002F48FEF79FFA0028E8D0FDF7B7FD03B0C1
:105FA00030BD294D2B4B2A78587819788DF805008B
:105FB0008DF80410BAB193F82820012A13D95B8810
:105FC0004FF400424FF4FA700021E3FB02014FF45A
:105FD0007A7200233CF0F2FB012201461E48FEF7D4
:105FE00079FA00282DD11D4C23680133236001F07C
:105FF0006DFF90F84D314BB190F84C319DF8052074
:106000009A4211D09DF80430012B0DD0144B1A6820
:106010002B78002AA9D00C4C002BA7D001A89047C0
:106020002378002BA2D0A3E722680E4BA3FB021318
:106030009B0803EB83039A42E8D02B78002B95D082
:1060400096E7FDF763FDCEE74C33002022330020B6
:1060500050330020703300202433002044330020CC
:1060600048330020CDCCCCCC08B50A480A4A0021E0
:10607000FEF71EFA50B90948094A0021FEF718FA3E
:1060800000B908BDBDE80840FDF740BDFDF73EFD85
:10609000F1E700BFA8490600595F0200AC490600BD
:1060A000915E0200F0B587B0044601F00FFF224A6E
:1060B00090F84031012111700BB907B0F0BD1F4DB0
:1060C0004FF400434FF4FA700021E4FB03014FF456
:1060D0007A7200232C803CF071FB002201461848A4
:1060E000FEF7F8F928BB01F0F1FE2B8890F840711B
:1060F00090F8415190F84D4190F84C11114AADF88B
:10610000003000F5A17600F2471368468DF8027062
:1061100001968DF8085003938DF810408DF81110FA
:10612000059200F027F80028C7D0FDF7EFFC07B074
:10613000F0BDFDF7EBFCD6E74C3300202233002006
:106140005033002070330020014B00221A7070473A
:106150004C330020044B054A186000231370194685
:1061600003482A22FCF7EEB8483300204C330020C5
:106170007033002000287CD02DE9F04F077C2FB928
:10618000817800297AD10720BDE8F08F077A8178DD
:10619000003718BF01270029F5D00388CA1B93FBDD
:1061A000F2F31FFA83FEB3F5967FAEF5967C4FF0BF
:1061B0000005D8BF4FF4FA7C1FFA8CFC2C46A84689
:1061C0004FF4967943685A5D002F34D0437C934254
:1061D0001ED0436921B203EB810A661C8AF80120B4
:1061E00003F82180AAF802E0017AC368F6B2002918
:1061F00041D093F800B093452AD01944013303E00D
:1062000013F801BB5A4523D08B42F9D1817834462B
:106210000135A942D6D8436983F82840436993F8E9
:10622000280030B1013803EB800300205880BDE81E
:10623000F08FBDE8F08F416926B201EB860301348F
:106240005A7001F82670A3F802E0E4B28178DFE723
:106250004169AAF8029036B201EB860302345A7003
:106260004FF0010201F82620A3F802C0E4B28178C1
:10627000CEE70E20704734468178C9E7038893FB48
:10628000F1F31FFA83FE8EE7037893B94368094A56
:10629000B3F9003003EB8303C3EB0313DB0048BF08
:1062A00003F2FF339B1203EB43035B0003F5877399
:1062B000138070479C33002000B5002085B013493F
:1062C00005F074FAF0B9124B186859681A7A01ABE4
:1062D00003C3002001A91A7005F0B8FA78B90D4877
:1062E000012105F0DDFA38B905F03CFB08B1FDF7F6
:1062F0000DFC05B05DF804FBFDF708FCF4E7FDF7C5
:1063000005FCECE7FDF702FCDDE700BF8962020057
:10631000B04906009A330020A0B108B50B4B1B888A
:10632000038005F037FB00B108BD0948012105F0E5
:10633000B7FA40B905F016FB0028F5D0BDE80840D3
:10634000FDF7E4BB7047FDF7E1FBF3E79C3300206A
:106350009A33002076DF704708B503F01DFD024A2E
:1063600013680133136008BD0035002008B50378B9
:10637000052B19D8DFE803F01912121D1D03124B6B
:106380001B785BB1114B18884FF6FF73984205D00C
:106390001321FFF7DFFF08B1FDF7B8FB0C4B1A68BC
:1063A00012B11A68013A1A6008BD094B00221A603E
:1063B00008BD00200146074AFDF732FC0028F3D053
:1063C000BDE80840FDF7A2BBFC340020C62F00202A
:1063D00000350020596302002DE9F0418CB0002403
:1063E00041F2383380460E462A4F069409A904200C
:1063F00004AA019408940294039409940A940B94B7
:10640000049405940097ADF81830CDF81CD003F033
:1064100007FD054686B960B909A802A903F044F949
:1064200038B94046039910223CF0DCFC09A803F07F
:106430005FF90CB0BDE8F081022E1ED0002EEBD02B
:10644000012E20D14146384610223CF0CBFC0423DB
:106450000A2DADF82060ADF80430ADF81A3009A867
:1064600006A914D003F010FB0028E2D10A4A1368F1
:10647000013313600CB0BDE8F0810A2803D009A8ED
:1064800003F0F4FBF0E720460CB0BDE8F08103F028
:1064900053F9E9E7EC340020003500202DE9F04104
:1064A0008CB0002441F2373380460E462A4F0694C2
:1064B00009A9052004AA019408940294039409945C
:1064C0000A940B94049405940097ADF81830CDF815
:1064D0001CD003F0A5FC054686B960B909A802A93D
:1064E00003F0E2F838B94046039904223CF07AFC04
:1064F00009A803F0FDF80CB0BDE8F081022E1ED013
:10650000002EEBD0012E20D14146384604223CF02B
:1065100069FC05230A2DADF80460ADF82060ADF8E4
:106520001A3009A806A914D003F0AEFA0028E2D167
:106530000A4A1368013313600CB0BDE8F0810A28E1
:1065400003D009A803F092FBF0E720460CB0BDE8A9
:10655000F08103F0F1F8E9E7A033002000350020D6
:10656000042801D9072070472DE9F04316462F4A29
:106570002F4B32F8108053F820908DB0002541F257
:1065800037330F46404609A904AA0695CDF8009076
:10659000019508950295039509950A950B95049523
:1065A0000595ADF81830CDF81CD003F039FC044641
:1065B00046B920B909A802A903F076F838B30DB09E
:1065C000BDE8F083022E1CD0002EF3D0012E27D17F
:1065D0003946484640223CF005FC10230A2CADF811
:1065E0001A80ADF82060ADF8043009A806A919D0CA
:1065F00003F04AFA0028E2D10E4A1368013313600F
:10660000DDE70A280CD009A803F030FBF2E7384692
:10661000039940223CF0E6FB09A803F069F8CEE7B5
:106620002846CCE703F088F8E4E700BFBC49060041
:10663000C8490600003500202DE9F0418CB0002447
:1066400041F2373380460E462A4F069409A90120AD
:1066500004AA019408940294039409940A940B9454
:10666000049405940097ADF81830CDF81CD003F0D1
:10667000D7FB054686B960B909A802A903F014F84A
:1066800038B94046039907223CF0ACFB09A803F057
:106690002FF80CB0BDE8F081022E1ED0002EEBD0FA
:1066A000012E20D14146384607223CF09BFB0223B5
:1066B0000A2DADF81A60ADF82060ADF8043009A8D5
:1066C00006A914D003F0E0F90028E2D10A4A1368C1
:1066D000013313600CB0BDE8F0810A2803D009A88B
:1066E00003F0C4FAF0E720460CB0BDE8F08103F0F7
:1066F00023F8E9E7243400200035002008B541F2F2
:10670000373003F0FDFA10B9014B01221A7008BDB1
:10671000FC340020014B1868704700BF0035002092
:106720000388102B0AD0112B07D10D4B0D4A1B7873
:106730004FF6FF7111802BB970477047094B828863
:106740001A807047BFF34F8F0749084BCA6802F49D
:10675000E0621343CB60BFF34F8F00BFFDE700BF84
:10676000FC340020C62F002000ED00E00400FA05F4
:1067700070B50949094D0A4B0A4801264FF6FF74C6
:1067800000222E600C801A7002F0FEFD00B170BD78
:10679000BDE8704002F00CBEC62F0020003500207E
:1067A000FC3400206D630200A8DF704740B139B1AE
:1067B000B0F864004FF6FF73984203D10820704789
:1067C0000E207047FFF7F0BF00B585B0002300939F
:1067D00001930293039320B381B940F20313ADF800
:1067E0000430B0F8640002238DF800304FF6FF73D8
:1067F000984210D1082005B05DF804FB4FF4817376
:10680000ADF80430B0F8640001238DF800304FF685
:10681000FF739842EED06946FFF7C6FF05B05DF8FA
:1068200004FB0E2005B05DF804FB00BFF0B5244C5E
:1068300087B02478BDF83070064664B147F207543B
:10684000A1422DD01F4C00972478019400F03EFA0D
:10685000C8B907B0F0BD9C4647F20753994216D01D
:10686000029403940494059408B3B6F864004FF6B8
:10687000FF73022140F2031298428DF80810ADF820
:106880000C2016D10820FDF741F907B0F0BD96465F
:1068900061463A46734600F0EFFA0028F5D0F2E779
:1068A000002302930393049305930028DDD10E2067
:1068B000E9E702A9FFF778FF0028E6D0E3E700BF89
:1068C000043500200535002070B51F4B1B7886B0BD
:1068D0006BB147F20756B14219D01C4C0093237894
:1068E00000F0AEF860B1FDF711F906B070BD47F2E7
:1068F0000752914206D01A4600F03CF80028F2D127
:1069000006B070BD00F074F80028F9D0EBE7002362
:10691000029303930493059370B1B0F864004FF6AB
:10692000FF7301214FF4817298428DF80810ADF881
:106930000C2003D10820D6E70E20D4E702A9FFF7E8
:1069400033FF0028DCD0CEE70435002005350020D9
:1069500040B10549054A0167002342670B70137077
:10696000184670470E20704705350020043500207A
:10697000A5DF704730B589B08DF80720F8B147F230
:106980000C5399421ED047F20653994204D001217C
:10699000FFF71AFF09B030BD002301220DF10705F2
:1069A00004A90493059306938DF81020ADF81A20DE
:1069B00007958DF81620FFF7F9FE09B030BD0E20BF
:1069C00009B030BD012300220DF10F0504A9049286
:1069D000059206928DF80F30ADF81A308DF8103010
:1069E00007958DF81630FFF7E1FE09B030BD00BF06
:1069F00020B330B589B00546684600F00BFC04466C
:106A000008B109B030BD684600F0DEFBC4F30743AF
:106A10002846102543F0010301220DEB05010494E3
:106A2000059406948DF81630CDF81CD0ADF81A50A8
:106A30008DF81020FFF7BAFE09B030BD0E20704768
:106A4000E8B12DE9F04190B00C4605461F461646C8
:106A500001F03CFAA4F5EA41013980460B2900F225
:106A6000F580DFE811F0BE00BE0024003C005200BB
:106A70007A00BE00BE006B008C00F3000E000E20FA
:106A8000704701230022284607A903AD0792089208
:106A900009928DF80C30ADF826308DF81C300A952F
:106AA0008DF82230FFF782FE10B0BDE8F081FFF7CD
:106AB00053F90124002347BA0226284607A903AD4B
:106AC000079308930993ADF80C700A95ADF826600A
:106AD0008DF81C408DF82240FFF768FEE4E700EBDC
:106AE0008713013300F0B68000220124284607A94D
:106AF0000792089209920A938DF81C40ADF826403F
:106B00008DF82240FFF752FECEE7BB01C21892F883
:106B10002810002940F09C800132002301242846DF
:106B200007A90793089309930A928DF81C40ADF8C2
:106B300026408DF82240FFF739FEB5E700EB8713BA
:106B400093F82A2022B193F82620302A00F084807E
:106B500028460121FFF738FEA6E700230122284638
:106B600007A916AD0793089309930A958DF81C2081
:106B7000ADF826208DF82220FFF718FE94E7BC011F
:106B8000002302190793089309930A9392F8266049
:106B9000302E74D090F841313BB190F84D3123B193
:106BA00090F84C31BB4200F08A8008EB04031C468D
:106BB000123493F82730ADF826300A949DF822302D
:106BC000002243F001030124284607A98DF8223052
:106BD000ADF82020ADF824208DF81C40FFF7E6FD2D
:106BE00062E70023314607AC2226B5F8640007931C
:106BF00001AA089309930A930B930C930D930E9398
:106C0000ADF83C30ADF80630ADF804600294FFF703
:106C1000AFFE034600287FF447AF029CBDF8042076
:106C2000C4B1C0F30746D2B246F00106284603A914
:106C300001250393049305938DF81260ADF8162097
:106C400006948DF80C50FFF7B1FD2DE707202BE7D8
:106C5000293262E70E2027E7002201260233284668
:106C600007A910250792089209920A938DF81C60D3
:106C7000ADF826508DF82260FFF798FD14E73846EE
:106C800000F08AFC0E2302BA3846ADF82630019295
:106C90008DF80C6000F092FC01A98DF80D00042223
:106CA0000DF10E003CF09EF808EB040114310DF1DB
:106CB0001200082203AC3CF095F80A947EE790F8A5
:106CC000470101F0BDF870E7A4DF70472DE9F041FE
:106CD00084B0BDF828609DF82C7098B393B3A1F5EB
:106CE000EA410022023905461C46009201920292B6
:106CF00003920A2910D8DFE801F030393F45060F2A
:106D00000F0F4B712900012E00F08380112E00F02F
:106D10008680002323700126ADF80A6003949DF855
:106D20000630022443F001030022284669468DF80C
:106D300006308DF80040ADF80820FFF737FD04B0AD
:106D4000BDE8F0810E2004B0BDE8F0812078002875
:106D50004CD00120FEF78CFFDEE72378042BDBD933
:106D600040F20D13ADF804300026D5E7208840BA74
:106D700080B2FEF7C7FFCFE7384694F9001000F065
:106D800059FDC9E7384694F9001000F009FEC3E741
:106D9000142E94BF4FF000084FF0010816F0FF01C9
:106DA00027D0012923784CD0102B5ED042D9202B3C
:106DB00055D0302B4ED122291BD0A1F11203B3FAAA
:106DC00083F35B09ABB940F20D13ADF80A6003948D
:106DD000ADF80430B8F1000FA1D018E023780B2BE8
:106DE0009AD1FFF78BFC002896D0A8E7FEF740FF6A
:106DF00092E72246384600F0F3FDFEF7ADFFFEF7BE
:106E000081FFADF80A600394B8F1000F87D000202D
:106E100095E7237813F0FD0F7FF47BAF7BE72378B2
:106E2000002B7FF476AF601C00F0B4F900283FF42B
:106E300072AF84E773B9A1F11103B3FA83F35B096D
:106E4000C0E7002BD5D0102B0FD0F3D9202B06D0C4
:106E5000302BB2D040F20D13ADF80430D1E7A1F1E0
:106E60000103B3FA83F35B09ACE70B1F0F2B8CBF55
:106E700000230123A6E700BF30B5054687B020B345
:106E800019B31446102C4FF00002ADF800400191E8
:106E90000292039204920592ADF8022018D00B469C
:106EA0009DF80E20ADF8124042F001022846002461
:106EB000022502A905938DF80E208DF80850ADF833
:106EC0001040FFF773FC07B030BD0E2007B030BD97
:106ED0001946B0F864006A46FFF7F6FE034628B18B
:106EE00040F20313ADF80C30019BD9E70198ADF8DF
:106EF0000C3000F07DF9019BD2E700BF2EDF704718
:106F00002FDF704730DF70472DE9F0475B4B187873
:106F100001F0C8F9074658B3594C5A4E00254FF0B6
:106F2000020894F840302BBB0135052D04F17404A0
:106F3000F7D1554D554A2B681F4497422F6017D9FA
:106F4000534C94F87030002B6DD194F8E430002B42
:106F500072D194F85831002B77D194F8CC31002BB2
:106F60007CD194F84032002B40F0828000232B60CB
:106F7000BDE8F087A36B3B4499B2A36391B394F847
:106F80003C20013A08FA02F101391940CCD104F150
:106F9000100A50461022FBF7D5F994F83C20A36B59
:106FA000E276D34093404FEA134C4FEA132E04F19C
:106FB000200950464FEA136AE3774A46214684F88F
:106FC0001DC084F81EE084F81CA0FCF7BFFB4946F6
:106FD00004F1300008223BF005FF3368E8B20121DC
:106FE0009847A1E7A4F1200A10225046FBF7AAF91E
:106FF000A36B4FF0FF0E4FEA136CA4F110091B0CAA
:1070000004F8113C50464A46A4F1300104F812CC71
:1070100004F815ECFCF79AFB2046494610223BF099
:10702000E1FEA36BABE7174B00201B6804219847D8
:1070300094F8E430002B8CD0124B01201B68042103
:10704000984794F85831002B87D00E4B02201B68CC
:107050000421984794F8CC31002B82D0094B0320AF
:107060001B680421984794F84032002B3FF47EAF10
:10707000044B04201B680146984777E7063500203B
:107080006C35002080370020083500207F5101003A
:107090003C3500202DE9F04F3C4EDFF8F49074258C
:1070A00005FB00F5741983B08246A26684F86C1063
:1070B000102219464FF00108204605F1100B3BF055
:1070C00091FEB344D9F8003084F870805046022114
:1070D0009847584600211022FBF734F9A26E05F1BB
:1070E00020034FEA126E33444FF0FF0C58464FEA2C
:1070F000124B84F81EE084F81BC021461A4684F81F
:107100001FB0019305F1300BFCF720FB019BB3444A
:107110001946584610223BF065FE05F1400CB44478
:10712000604600211022CDF804C0FBF70BF994F85B
:107130006C20A36EDDF804C084F84B20D34093404C
:1071400005F150074FEA132E3744604659464FEA7F
:10715000134C4FEA136B84F84F303A4684F84DC015
:1071600084F84EE084F84CB0FCF7F0FA05F16000CA
:107170003946304408223BF035FED9F800305046FD
:10718000414603B0BDE8F04F184700BF3C35002032
:107190008037002010B50B4C84B0002321466A468E
:1071A0000093019302930393FCF712FB69461022AC
:1071B00020463BF017FE20460121FFF70DF904B0F1
:1071C00010BD00BF0C35002038B5084C04F1100587
:1071D0000146102228463BF005FE2846214604F1D0
:1071E0002002BDE83840FCF7B1BA00BF0C350020E2
:1071F00010B5064910223BF0E5FD00B110BD044B6F
:1072000001461B68BDE81040184700BF2C35002020
:10721000803700201021FFF775BE00BF2DE9F04F29
:107220003D4EDFF8FCA0742505FB00F5741983B012
:107230004FF0010B4FF47F4705F1100804F168038C
:107240008146B044084684F86C20A766224633493C
:1072500084F870B00193FCF7BBFA4046002110227D
:10726000FBF770F8A26E404605F120074FEA12487E
:107270004FEA126E37444FF0FF0C84F81F8005F17F
:10728000300884F81EE084F81BC0B04421463A461A
:10729000FCF75CFA3946404610223BF0A3FD05F1AD
:1072A000400CB444604600211022CDF800C0FBF72A
:1072B00049F8019BDDF800C01A79A36E84F84B20D1
:1072C000D340934005F150074FEA132E37446046F0
:1072D00041464FEA134C4FEA136884F84F3084F864
:1072E0004DC084F84EE03A4684F84C80FCF72EFA04
:1072F00005F160003946082230443BF073FD5946E1
:107300004846DAF800309847DAF80030484602215B
:1073100003B0BDE8F04F18473C3500200C35002085
:10732000803700202DE9F04F924E742303FB006359
:10733000E3B001244FF47F4583F86C2007462022F8
:107340001AA89D6683F870408DF814403BF04AFD02
:1073500042A8FFF7D3FD52A8FFF7D2FD9DF8081110
:107360009DF848318B42F6D30AA8FFF7CBFD9DF874
:1073700008311F2B40F2BC8012A80AA93AF0F4F899
:107380000AA920227C483BF02DFD12A920227B482F
:107390003BF028FD22A80AA91AAA3AF027F81AA950
:1073A000202242A83BF01EFD2022154612A94AA821
:1073B0003BF018FD42A932A8402222AB00953AF0DA
:1073C00031F9002422A92A462AA82A942B942C9425
:1073D0002D942E942F94309431943BF0F3FC00289C
:1073E00040F09780664A1378012B0DF1180840F29F
:1073F00095804FF0010A742505FB07F505AB32A90E
:1074000052A8CDF800A0202274193AF00BF905F12A
:10741000100B52A9404610223BF0E4FCB344414615
:10742000204610223BF0DEFC584600211022FAF7DD
:1074300089FFA36EDFF84C9105F120084FEA136E27
:10744000B0441B0C4FF0FF0C584605F1300B84F88C
:107450001EE0E37784F81BC0B34442462146FCF7A4
:1074600075F94146584610223BF0BCFC05F1400C32
:10747000B444604600211022CDF80CC0FAF762FF38
:1074800094F86C20A36EDDF80CC084F84B20D34038
:10749000934005F150084FEA132EB0446046594618
:1074A0004FEA134C4FEA136B84F84DC084F84EE05A
:1074B00084F84F30424684F84CB0FCF747F905F1A8
:1074C00060000822414630443BF08CFC5146D9F81C
:1074D000003038469847D9F800303846032198479D
:1074E000D9F8003038460221984763B0BDE8F08FE4
:1074F00052A8FFF705FD9DF808019DF84831C0F13D
:1075000020018B42F4DB0AAB1844C9B2FFF7FAFC46
:1075100032E71B4B0DF118081C706AE70133404637
:107520001370FFF7EBFC52A8FFF7EAFC98F8001085
:107530009DF848318B42F6D30AA8FFF7E3FC98F890
:1075400000301F2B04D912A80AA93AF00DF850E711
:1075500052A8FFF7D5FC98F800009DF84831C0F11B
:1075600020018B42F4DB0AAB1844C9B2FFF7CAFC16
:10757000E9E700BF3C35002088370020A83700200D
:1075800084370020803700200846202201493BF044
:1075900029BC00BFA8370020024A742303FB002047
:1075A000806E70473C350020034B742202FB003094
:1075B0000021FAF7C7BE00BF3C350020034A742300
:1075C00003FB002090F86C00704700BF3C350020A2
:1075D000044A742303FB00230846082203F16001D8
:1075E0003BF000BC3C350020F8B50D4A0D4C74232F
:1075F00003FB002304F110060F4604F12005194691
:10760000304610223BF0EEFB304621462A46FCF77E
:107610009DF8384629461022BDE8F8403BF0E2BB11
:107620003C3500200C350020044A742303FB002362
:107630000846102219463BF0D5BB00BF3C35002060
:107640002DE9F04FD9B0002416468846074602318E
:1076500011A80C221294139411943BF0C3FB364BE7
:107660001994742505FB0735294617A810221A948A
:1076700018948DF8274017943BF0B4FB95F86C20D4
:10768000AB6EADF83440D34093404FEA136E1F0CFD
:107690001A0A0AA802218DF830E08DF833300DF176
:1076A0002C0A8DF831708DF83220ADF82840FFF7A4
:1076B00029FC0AA90DA802223BF094FB17A91BA8DC
:1076C000102202270CADAAF800400DF1500BFDF777
:1076D0007DFE0DF127090623DFF864E00194029591
:1076E0001BA911AA039310240EA8CDF80090CDF881
:1076F00014A0124DCDF810B006970C23CDF83CE045
:1077000010950E94FEF738F898F800303370012386
:1077100073705946F0190C223BF064FB0AA93A46F3
:1077200006F10E003BF05EFB301951463A463BF045
:1077300059FB59B0BDE8F08F3C350020C54F020021
:107740009D4C020040B330B5002185B004461E4870
:10775000FEF742FE0A2821D0002831D11B4B1C48DD
:107760001C6000214022FAF7EDFD1A4B1A484FF435
:107770007F424FF400419A66C3F8DC20C3F85021E1
:10778000C3F8C421C3F8382200F0B2FD08B1FCF7F9
:10779000BDF9002005B030BD072070470F4B1868B9
:1077A00059689A68DB686D460FC56946064810221D
:1077B0003BF018FB04480121FEF70EFE0028CDD057
:1077C000FCF7A4F9CAE700BF0C3500208037002081
:1077D000883700203C35002006350020DC490600B3
:1077E000F8B5134E8501721902F1280792F82A1094
:1077F00059B192F82630302B04460BD0204671192F
:107800000122BDE8F840FEF7ABBE0222BDE8F84019
:10781000FEF7A6BEFFF7C0FE78602046FFF7CEFE5B
:1078200005F13001F87031442046FFF7FDFEE5E731
:10783000C83700202DE9F043042828BF0420564F04
:1078400084013B1989B093F828E059700D46BEF1C8
:10785000000F02D009B0BDE8F083504B59689A6818
:107860001868B3F80CC093F80E906E4607C653F82C
:10787000100FA6F800C09A685968B3F80C8093F806
:107880000EC086F8029004AB07C39DF91020A3F840
:107890000080AA4283F802C04FDA9DF91130AB4252
:1078A00056DA9DF91230AB4255DA9DF91330AB42EE
:1078B00054DA9DF91430AB4253DA9DF91530AB42DE
:1078C00052DA9DF91630AB4251DA9DF91730AB42CE
:1078D00050DA9DF91830AB424FDA9DF91930AB42BE
:1078E0004EDA9DF91A30AB424DDA9DF91B30AB42AE
:1078F0004CDA9DF91C30AB424BDA9DF91D30AB429E
:1079000019DA9DF91E30AB42A8BF4FF00E0E14DA03
:1079100000223C4494F82630102B04D007D9202BA9
:1079200010D0302B96D1E27409B0BDE8F083002B63
:1079300090D1E274F8E74FF00D0E08AB9E441EF8AC
:10794000202CE6E7072009B0BDE8F043FCF7DEB8DD
:107950004FF0010EF1E74FF0020EEEE74FF0030E8D
:10796000EBE74FF0040EE8E74FF0050EE5E74FF0C8
:10797000060EE2E74FF0070EDFE74FF0080EDCE7F8
:107980004FF0090ED9E74FF00A0ED6E74FF00B0E75
:10799000D3E74FF00C0ED0E7C8370020EC490600C3
:1079A00004280E4B28BF042003EB8010012290F81E
:1079B000263080F82910102B80F8282004D008D910
:1079C000202B03D0302B07D1C17470470720FCF760
:1079D0009DB8002BF8D07047704700BFC837002013
:1079E0002DE9F043042828BF042089B00D4607463E
:1079F0001646002A53D0002D35D0012D327830D0D4
:107A0000302A37D0954C4FEA871804EB080393F8D7
:107A10002A30002B3BD1202A1CD0394604EB080722
:107A2000B9468E480023203700F0E6FB09F1120921
:107A30003378BB7104EB08014846263101223BF044
:107A4000D1F9BB79102B2ED0202B65D05BB309B0B8
:107A5000BDE8F08394F84D31002BDED009B0BDE8CD
:107A6000F083002ACED17D48394609B0BDE8F04305
:107A700000F096BA222D57D0122D55D0774C4FEAF0
:107A8000871804EB080393F82A30002BC5D07348FD
:107A9000394600F085FA3278202ABED1DAE70E2086
:107AA000FCF734F8A7E7711C2A4609F102003BF005
:107AB00099F96B4B59689A6818689F8993F80EC0BA
:107AC0006E4607C653F8100F378059689A68B3F8A6
:107AD0000CE09F7B86F802C004AB07C304EB0802EE
