:020000040000FA
:10000000A8220020150200001D0200001F020000AF
:100010002102000023020000250200000000000071
:1000200000000000000000000000000027020000A7
:1000300029020000000000002B0200002D02000039
:10004000250500002F0200008D0700002F02000090
:100050002F0200002F020000FD0200002F0200000E
:100060002F0200002F0200002F0200002F020000CC
:100070002F0200002F0200002F0200002F020000BC
:100080002F0200007D0500002F0200002F0200005B
:10009000A10500002F0200002F0200002F02000027
:1000A0002F0200002F0200002F0200002F0200008C
:1000B0002F0200002F0200000000000000000000DE
:1000C0002F0200002F0200002F0200002F0200006C
:1000D0002F0200002F0200002F0200002F0200005C
:1000E0002F0200002F0200002F0200002F0200004C
:1000F000000000002F0200000000000000000000CF
:1001000000000000000000000000000000000000EF
:1001100000000000000000000000000000000000DF
:1001200000000000000000000000000000000000CF
:1001300000000000000000000000000000000000BF
:1001400000000000000000000000000000000000AF
:10015000000000000000000000000000000000009F
:10016000000000000000000000000000000000008F
:10017000000000000000000000000000000000007F
:10018000000000000000000000000000000000006F
:10019000000000000000000000000000000000005F
:1001A000000000000000000000000000000000004F
:1001B000000000000000000000000000000000003F
:1001C000000000000000000000000000000000002F
:1001D000000000000000000000000000000000001F
:1001E000000000000000000000000000000000000F
:1001F00000000000000000000000000000000000FF
:10020000DFF80CD000F068F800480047AD1200009D
:10021000A82200200648804706480047FEE7FEE780
:10022000FEE7FEE7FEE7FEE7FEE7FEE7FEE7FEE7A6
:10023000A5050000010200002DE9F05F0546002041
:1002400092469B4688460646814640241BE0284647
:1002500041464746224600F02FF853465A46C01AF8
:10026000914110D311461846224600F016F82D1A77
:1002700067EB01084F4622460120002100F00DF8EF
:1002800017EB00094E41201EA4F10104DFDC4846B3
:1002900031462A464346BDE8F09F202A04DB203A37
:1002A00000FA02F1002070479140C2F1200320FAC9
:1002B00003F3194390407047202A04DB203A21FAC7
:1002C00002F00021704721FA02F3D040C2F120026F
:1002D0009140084319467047064C074D06E0E06818
:1002E00040F0010394E8070098471034AC42F6D37D
:1002F000FFF78AFF6C1E00008C1E00002DE9F04FF6
:1003000000268FB0DFF8B081B14602964FF48075B9
:10031000012437460396284601F0A6FA38B1D8F8EA
:100320000403204203D0284601F094FA26432D1DF1
:1003300064007F1CADB2082FEDD34FF4BE7420468D
:1003400001F092FA48B1204601F084FA46F00046E6
:1003500002AA0221002001F067FA584C16F0FF0FA4
:1003600015D00127002537420DD008EB8501D1F8C3
:100370001005D1F81015C0F3052054F82520C1F35D
:10038000014102B190477F006D1C082DEBD3002E78
:100390007DDA0020CDF82890411E0DF1080B08AA47
:1003A000CDF82C9042F82010401C91460228F9D339
:1003B00000252E46A01910F8607F90F9000027F064
:1003C000C008401C49D008A9404600F087FF88B308
:1003D0004FEA971A404600F093FD54F820701FB181
:1003E000BAF1030F03D00FE0BAF1030F35D10AA819
:1003F0004FEAD80208F00703815C4FF0010C0CFAB9
:1004000003FC41EA0C01815406A8CDF8188001F0E4
:10041000DFF9069900EB8100D0F8000702A9C0F3CC
:1004200001400690404600F059FF0028069802D08F
:10043000022802D011E003280FD1BAF1030F08D12E
:100440000698022832D00221404601F09BF96D1C2B
:10045000EDB217B151464046B847761C042EA9D3D9
:10046000002D20D004AA0221002001F0DDF9002097
:100470005A4604A952F8206051F82030B34217D0F0
:1004800000200AAE4FEA090351F8207000E00AE0AC
:1004900042F8207056F8207043F82070401C022863
:1004A000F2D3002D84D10FB0BDE8F08F0321CBE74C
:1004B000401C0228DED3F6E700600040F400002074
:1004C00000F01F02012191404009800000F1E0206E
:1004D000C0F88012704700F01F02012191404009CE
:1004E000800000F1E020C0F80011704700F01F020A
:1004F000012191404009800000F1E020C0F8001285
:1005000070474907090E002806DA00F00F0000F1D5
:10051000E02080F8141D704700F1E02080F80014FE
:10052000704700002DE9F0414FF48077384600F025
:10053000DDFE0124104EA50748B1384600F0DDFE6F
:100540000120C5F808037470002000F0E1FC4FF4AE
:100550008277384600F0CAFE00280BD0384600F0FB
:10056000CCFE0220C5F80803B470BDE8F0410120BC
:1005700000F0CEBCBDE8F081E0000020074800217B
:10058000C0F84011C0F84411C0F84811C0F84C112F
:10059000C0F80011C0F8041101F094BA0010014035
:1005A00001F0E2B930B54FF080500022D0F83011A0
:1005B0000123082902D1D0F8344114B1082909D007
:1005C0000BE04FF08041C1F80C21C1F810216149C6
:1005D0000A6005E0D0F8344114B1082957D059E039
:1005E0005D4909685D4C21605B49091D0968241D4E
:1005F0002160594908310968241D216056490C3190
:100600000968241D2160544910310968241D2160A6
:10061000514914310968241D21604F491831096876
:100620004E4C203421604C491C310968241D216046
:10063000494920310968241D21604749243109684E
:10064000241D2160444928310968241D2160424944
:100650002C310968241D21603F49303109683F4C25
:10066000403421603C4934310968241D21603A49F5
:1006700038310968241D216037493C310968241D3F
:100680002160354940310968241D216005E0D0F81A
:10069000344114B1082904D006E0324C30492160BD
:1006A00005E0D0F8344114B1082904D006E02E4CFE
:1006B000FB21216005E0D0F8344114B1082908D0AD
:1006C0000EE090F858422948016864F30301016084
:1006D00002E0D0F8340118B925494FF400700860E1
:1006E0002448016841F470010160BFF34F8FBFF3EC
:1006F0006F8F4FF01021D1F80002002803DBD1F8F2
:100700000402002822DA1C4C23601C480368002BDA
:10071000FCD01223C1F800320568002DFCD0C1F8CE
:10072000043201680029FCD0226001680029FCD055
:10073000BFF34F8F0F487C380168114A01F4E06124
:1007400011430160BFF34F8F00BFFDE70E490D4815
:10075000086030BD380500400404001020C500408A
:10076000488103008C56004018F50040E40E00401C
:100770004096024088ED00E004E5014000E40140BD
:100780000400FA050090D003500000200448017FC7
:1007900004480029024901D001F07BBA01F0EAB90E
:1007A0005C0100200020004002E008C8121F08C1C0
:1007B000002AFAD170477047002001E001C1121FE2
:1007C000002AFBD17047022000F026B970B5002442
:1007D000084D05E0686810F8340000F091FE641CD4
:1007E00028788442F6D304480068BDE8704000F0E1
:1007F000EDB8000018000020641E000070B5002451
:10080000064D06E06868012110F8340000F09CFEF7
:10081000641C28788442F5D3002070BD18000020A5
:10082000F8B515460C460646052A01D20720F8BD44
:1008300000F06CFF18B900F03BFF0028F7D1114918
:1008400000224E600C708D60C1E90422C1E90622CD
:100850000D4D0DE006EBC4006968009181788DF8BC
:1008600001100078094A694600F0BAFE0028DED17E
:10087000641EE4B2EED2BDE8F840054A0021024809
:1008800000F028B818000020641E0000D5100000F9
:10089000E50F0000BFF34F8F05480168054A01F4DA
:1008A000E06111430160BFF34F8F00BFFDE700001F
:1008B0000CED00E00400FA050EB500210091CDE931
:1008C00001106A4644F20100FFF7E4FF0EBD01206B
:1008D00000F0A2B8074B9B7823B12AB120B1006881
:1008E000037C1BB1082070470720704741744261A8
:1008F000002070479C01002070B500F0F1FF104807
:1009000000240B21047044700E4D817014206C6023
:100910002C706C70FFF7D4FD07211420FFF7F1FD58
:100920001420FFF7D8FD0848046007211120FFF7C5
:10093000E8FD0548001F0068A860002070BD0000A9
:100940009C01002038000020081501402DE9F843E3
:10095000DFF8709099F802305BB350B3052902D2EA
:100960000720BDE8F88343691BB3437C012B22D0E9
:1009700000270446002588461646284600F036F82B
:10098000684601F0FFF9C0B1012101700E494460D1
:100990000968C0E90218C0E904769DF8000089F8EA
:1009A0000100002000F024F81420FFF79FFD2846E6
:1009B000D7E70820D5E70F46DBE70425002000F045
:1009C00017F8F4E79C0100200415014006498978D6
:1009D00039B130B1416921B100210174022101F026
:1009E00051B80820704700009C01002000F002B8B8
:1009F00000F008B872B602480168491C01607047EF
:100A00004C00002003490868401E086000D162B60F
:100A1000704700004C000020094908B5085C0090B0
:100A2000684600F0C7FED0F80425009B01219940DC
:100A300021EA0203C0F808351140C0F80C1508BDC2
:100A4000281E00000249085C012100F0DABE000007
:100A5000281E00000249085C002100F0D2BE000000
:100A6000281E0000084908B5085C0090684600F0A0
:100A7000A1FED0F804050099C84010F0010000D094
:100A8000012080F0010008BD281E00007CB5002474
:100A9000084E25460122305D009500231146019540
:100AA00000F03EFE641C042CF4D3BDE87C4000F052
:100AB00003B80000281E000010B500242046FFF7F0
:100AC000C1FF641C042CF9D310BD10B500242046CE
:100AD000FFF7C0FF641C042CF9D310BD10B502460B
:100AE000064B4FF0FF3000215C5C944201D1084678
:100AF00010BD491C0429F7D310BD00002C1E0000B6
:100B00002DE9F0470D468146FFF7E8FF044604282B
:100B100036D2DFF874801B481C4EA8F10C0725B3B1
:100B2000012D0ED0022D2BD104EB4400304445782A
:100B3000002D25D0B968002922D02846BDE8F0470D
:100B4000084704EB4401755C0E44717849B10E4AC4
:100B50004FF40041093A8068FFF7F8FE08B987F8BA
:100B60000390B17808F80410E2E78068FFF72EFFE1
:100B700004EB4401314418F804008D78A842D7D022
:100B8000BDE8F087301E000010000020B4000020F7
:100B9000FFF71CBE10B50A2816D100F067F908B19E
:100BA000FFF78AFEFFF7F4FF08B1FFF785FE07485D
:100BB0000068FFF70BFF08B1FFF77EFE0020FFF78C
:100BC00041FF03490120087010BD0000241E0000F1
:100BD0000000002070B50023042810D20D4D00EB5A
:100BE0004004012A02D101290CD00022094E00EB59
:100BF0004000304461B1012906D0022906D0072304
:100C0000184670BD0E30C2B22A55F9E74270F7E7B8
:100C10008270F5E7B400002070B506461E48002437
:100C2000C0E90161B00720D5002501221146284600
:100C3000FFF7D0FF6D1C0446042D02D2002CF4D027
:100C400013E094B940F2666204211448FFF7E8FD0E
:100C500004000AD1FFF7D2FD040006D10F48104A64
:100C60000021001FFFF736FE0446F00701D0FFF712
:100C70000DFF74B909480B4A00210C38FFF72AFE12
:100C8000040006D10548084A01210838FFF722FE72
:100C90000446204670BD0000040000203C1E0000F9
:100CA000950E0000A1110000C70700002DE9F05FBC
:100CB0006A4C054600266078B34618B184F801B046
:100CC00000F056FA664F4FF47A694FF4C87A4FF045
:100CD0000108182D62D2DFE805F0AC0C0C31404D54
:100CE00062676B746B74BE7D7D7D7D7DACAFB2B58C
:100CF000BEBE0020FFF7B6FE00284FF0000008D06F
:100D0000FFF7A0FE022D02D14FF4E16008E0484653
:100D100006E0FFF79FFE022D01D1C82000E05046FB
:100D2000410CC0034FF4FA72801841F100012570A4
:100D300052000023FFF780FA01462AE00020FFF767
:100D400091FE00284FF0000004D0FFF77BFE4FF427
:100D50004870E5E7FFF77EFEDFE70020FFF782FE41
:100D600000284FF0000002D0FFF76CFECFE7FFF73E
:100D700071FED4E70020FFF775FE00284FF0000059
:100D800002D0FFF75FFE01E0FFF764FE257041F639
:100D90009A1100223868FFF7D9FD064646E0002088
:100DA000FFF73AFE257008E0002051E025703DE095
:100DB00084F801800120FFF72FFE002240F6CD418C
:100DC000E8E784F801800120FFF726FE00224FF4B7
:100DD0008041DFE77868FFF7F9FD0646D5F111009D
:100DE00000D02EB10220FFF72DFE84F802B01DE0E6
:100DF000012816D980B2C8214843C117C90341EA66
:100E00005041C0034FF4FA72801841F100015200C2
:100E10000023FFF711FA014600227868FFF796FDDC
:100E200006460220FFF716FE84F802803046BDE831
:100E3000F09F00F09DF9B9E700F09AF9B4E700F0EF
:100E400097F904E000F094F90020FFF703FE012079
:100E5000FFF700FEAAE7FFF738FEA7E7040000202F
:100E6000301E00000A220021FFF7B4BE10B500209A
:100E7000FFF7BCFD05480068400702D10449012086
:100E800088600020FFF7B4FD002010BD1054004022
:100E90000050004000780221FFF732BE05494FF0B4
:100EA000FF32082841F8202002D3084480F8582057
:100EB00070470000F4000020F0B54FF0FF3512B18C
:100EC0000023082601E008230C260C4C05E000BF97
:100ED00054F823707F1C04D05B1CB342F8D328461F
:100EE000F0BD26185DB286F8305044F82310002A71
:100EF000F5D1E11881F85800F1E70000F400002076
:100F00000249084490F9300070470000F4000020C6
:100F100070B5084C050009D010342168002907D0AD
:100F200008682060496828468847F6E70834F4E7EF
:100F300070BD0000E00000202DE9F05F2648416808
:100F4000F1B3DFF898B00E688146DBF8004087689F
:100F50008078E11B21F07F45ED1CB0B9DFF880807F
:100F60004FF48030C8F84403C8F804031120FFF799
:100F7000A7FA1120FFF7AFFA4FF0010AC8F800A056
:100F80002F2000F009FA89F802A0B54200D23546B8
:100F9000124BE8193C3320F07F401860DBF800105A
:100FA0005A46091B21F07F41001B20F07F40C91CDD
:100FB00081420FD9106818602F2000F0EDF900E091
:100FC00004E0BDE8F05F1120FFF790BABDE8F05FE4
:100FD00000F086BCBDE8F09F3800002004150140F9
:100FE000001001402DE9F05F0025DFF8A48043E008
:100FF0006068002100EBC506012032789146FFF7BA
:101000004CF9D4E9062300EA020701EA030C57EA87
:101010000C072FD0C7433A408B434846C4E9062308
:1010200000F03EFB32784FF0000A814693460120E3
:101030005146FFF732F9D4E9042300EA020401EA39
:1010400003075A4648465146FFF727F944404F40A8
:101050003C430FD17078012815D0002289EA0200A4
:101060008AEAE271084310D00020726812B1C1B25E
:10107000584690476D1CEDB298F8000044468542F2
:10108000B6D3BDE8F09F0122E8E70120EDE70000BC
:10109000180000200E4910B50A784C780023A242AF
:1010A00012D0521CD2B20A70022A00D10B70084A28
:1010B0000B780C3252F8232002608868104420F02C
:1010C0007F408860012010BD0360002010BD00003B
:1010D000380000202DE9F041804602460120002121
:1010E000FFF7DBF81A4F05460E463868FFF76EFC2F
:1010F00000280CD1174CD4E9062110462A4001EAF9
:1011000006031A4305D0A843B143C4E90601BDE86C
:10111000F081404600F0C4FA30B1D4E9040128431C
:101120003143C4E9040105E0D4E90410A943B04304
:10113000C4E90410D4E9060128433143C4E9060197
:10114000A1683868BDE8F0410022FFF7FFBB00004E
:10115000641E0000180000200268134602E08A4264
:1011600004D01268002AFAD10B60016070470000B9
:101170000A4810B5807860B1002401E0022C06D046
:101180002046FFF75FFC641C042CF7D310BD03243A
:10119000F6E7BDE81040FFF78FBC00000400002018
:1011A00003480179C90702D00078FFF77FBD704777
:1011B000040000202DE9F047394E002780463D46C7
:1011C000DFF8E090D6F804A057E003D00446D0F84A
:1011D0001C8035E099F8002002EB4201521CD2B28B
:1011E00089F8002009EBC10199F80230091D9A42E3
:1011F00001D189F8005048680A780446012A12D0C3
:10120000022A02D0032A3BD108E000F00BFC00B117
:101210000127257434E00574C06900E07068002877
:10122000F9D170602CE0207C50BB88686060C86891
:10123000A0600869E0604869A061F07800B165606D
:101240006268B168184B501A20F07F40984202D271
:10125000A168084406E0881AA16820F07F40814216
:1012600002D9081A206000E0256065600120A560B1
:1012700020742046E56100F0B7FBB8F10000A4D16E
:1012800099F8001099F801008142A3D117B971684B
:10129000514502D00120BDE8F0870020FBE70000A7
:1012A000380000209C010020FFFF7F0000F082FD3D
:1012B0000020FFF7CFFB064C064F074E0125207894
:1012C0000028FCD0384600F021F83560F7E7000030
:1012D00000000020A086010000050040C20800F0C8
:1012E00007030120895C98400840704700F1804066
:1012F0000068002800D00120704708B500F1804048
:10130000002101600068009008BD000000283ED068
:101310001F49204A096800BF00BF00BF00BF00BFCF
:1013200000BF00BF00BF91422FD000BF00BF00BF71
:1013300000BF00BF00BF00BF00BF00BF00BF00BFB5
:1013400000BF00BF00BF00BF00BF00BF00BF00BFA5
:1013500000BF00BF00BF00BF00BF00BF00BF00BF95
:1013600000BF00BF00BF00BF00BF00BF00BF00BF85
:1013700000BF00BF00BF00BF00BF00BF00BF00BF75
:1013800000BF00BF00BF00BF00BF0138C3D170471E
:10139000500000200024F40000283ED01F49204ABD
:1013A000096800BF00BF00BF00BF00BF00BF00BF93
:1013B00000BF91422FD000BF00BF00BF00BF00BFE1
:1013C00000BF00BF00BF00BF00BF00BF00BF00BF25
:1013D00000BF00BF00BF00BF00BF00BF00BF00BF15
:1013E00000BF00BF00BF00BF00BF00BF00BF00BF05
:1013F00000BF00BF00BF00BF00BF00BF00BF00BFF5
:1014000000BF00BF00BF00BF00BF00BF00BF00BFE4
:1014100000BF00BF00BF0138C3D17047500000209B
:101420000024F40070B50E4C0025207808B1852505
:1014300013E00021A16061602161E1604FF0E020D4
:10144000D0F80001012610F0010F03D10721002080
:1014500000F03AF8034806602670284670BD000088
:10146000E00000201805004070B5154D0446A8782E
:1014700038B114B16168012088470020FFF7B6FA3F
:1014800015E00020FFF7B2FA24B10D4821461030D4
:10149000FFF762FEE86850B94FF48270FFF72DFF46
:1014A00002204107C1F80403064901200860E868EA
:1014B000401CE860BDE870400020FFF799BA0000CA
:1014C000E0000020080000404907090E002806DA65
:1014D00000F00F0202F1E02282F8141D03E000F197
:1014E000E02282F8001400F01F020121914040091F
:1014F000800000F1E020C0F88012C0F800117047B1
:1015000010B5044600F0D4F928B12046BDE81040DB
:10151000002100F037B9204600F0D6F900280FD09E
:101520002046FFF7EDFC074A02EB8001D1F81035A9
:1015300023F00103C1F8103501218140C2F80813DE
:1015400010BD0000006000402DE9F0410E468046CD
:1015500000F0AEF9204D0028404616D0FFF7D0FC31
:10156000284490F858008009032802D001280AD0A6
:1015700003E0404600F03AF928B103214046BDE8B7
:10158000F04100F0FFB80221F8E700F09DF90028D3
:1015900020D04046FFF7B4FC0446104F4FF4807053
:1015A00007EB840100EB8400D1F8102580B242F0F3
:1015B0000102C1F8102500F04DF9002E0AD0404676
:1015C000FFF79EFC55F82000002803D00120A04022
:1015D000C7F80403BDE8F081F4000020006000407B
:1015E0002DE9FC41DFF8AC80044608EB040000273D
:1015F00090F930001346C0170E46401C01D0082752
:1016000044E0F27819462046FFF756FC0546401C98
:101610003BD0B07868B16846009400F0D9F80099E2
:1016200000EB8100D0F8001721F00201C0F800178C
:1016300007E000217378204600910A46019100F0EE
:1016400088F8F078C0B11448317800EB8500D0F804
:101650001025124B1A40C0F810254FF47C524FF45D
:10166000403302EA042203EA01410A43D0F810158C
:101670000A43C0F8102509E008EB0500327810F89D
:10168000581F41EA8211017000E004273846BDE886
:10169000FC810000F400002000600040FFC0FCFF5F
:1016A00010B500F0A3F8002800D0012010BD000004
:1016B00070B5144D95F8640008B1082070BD002085
:1016C000411E2A18401CC0B282F830103028F8D3CE
:1016D00000242046FFF7E2FB641CE4B20C2CF8D394
:1016E00007210620FFF7F0FE4FF4BE7000F0B2F8BD
:1016F00005494FF00040C1F80403012085F864005B
:10170000002070BDF400002000600040034890F805
:101710006400002800D0012070470000F400002081
:101720002DE9FF411C46DDE90A7815460E4668465C
:1017300000F040F846EA450141EA840141EA072207
:1017400042EA0841009A00EB8200C0F80017BDE8A9
:10175000FF812DE9FF411C46DDE90A7815460E465A
:10176000684600F035F846EA450141EA840141EA5D
:10177000072242EA0841009A00EB8200C0F80017F5
:10178000BDE8FF8113B50C46684600F021F80099CA
:1017900000EB8101D1F8002722F44032C1F8002784
:1017A000009900EB8100D0F8001741EA0441C0F82D
:1017B00000171CBD0168202902D24FF0A0407047DD
:1017C00001F01F0101600148704700000003005054
:1017D0000168202902D24FF0A040704701F01F019C
:1017E00001600148704700000003005001B56846E1
:1017F000FFF7EEFFD0F810050099C84000F0010097
:1018000008BD38B501240090684631B1FFF7D2FF1A
:1018100000998C40C0F8084538BDFFF7CBFF009910
:101820008C40C0F80C4538BD1CB5094C0144D4E9C6
:101830000034CDE900346C4606E000BF54F8203097
:10184000D3F81035401C08C28142F7D81CBD0000F7
:101850005C1E0000034908B50844002101600068CF
:10186000009008BD0060004002494058012800D0A7
:1018700000207047006000404058002800D0012040
:10188000704708B5002242504058009008BDD0F87B
:101890000403084000D0012070474058002800D0C1
:1018A0000120704708B5002242504058009008BD02
:1018B0000449084490F93000082801DB01207047F2
:1018C00000207047F40000200449084490F93000DB
:1018D000082801D20120704700207047F400002042
:1018E00070B5012670044FF0E0210025C1F8800199
:1018F000084C4010C4F84803C4F8080366602F2061
:10190000FFF74AFDA660044C2F20A560FFF744FDB9
:10191000A57070BD001001403800002070B505466C
:10192000C87D0C4600284FF4847128460AD0FFF782
:10193000A8FFD5F81805627EE1688854607E401CD7
:10194000607670BDFFF79DFFD5F8180570BD1FB517
:1019500001238DF800308DF808100192D0E90012B3
:10196000684690471FBD00002DE9F84F1D4C00252B
:101970006846D4E901A6FFF78DFB002738B30023A2
:10198000009A61681CE0D1F800C00846944503D96C
:10199000ACEB02020A6015E0A2EB0C0263440760A4
:1019A000D0F80CC0C1698146BCF1000F08D006EB2D
:1019B000030828F07F48C0E9018CC9F81C5005468F
:1019C0000029E0D128466160FFF7F4FB03E02846D8
:1019D000FFF7F0FB10B15046FFF7AEFAE770BDE835
:1019E000F88F0000380000200D4B10B5596831B158
:1019F00002680C68A24204D8A21A0A60C161586049
:101A000010BD0B4603E00B46C969121B21B10C68DF
:101A10009442F8D3A41A0C600260C161D86110BD71
:101A2000380000202DE9F041144E77683D462C46E1
:101A300003E0844204D02546E469002CF9D11BE080
:101A4000D4B1A5420BD1F869706040B90C490120AE
:101A500088600021B160F0702F20FFF79DFC2168A5
:101A6000E069E86110B10268114401607068874262
:101A700002D00120BDE8F0810020FBE73800002003
:101A800000100140F8B5064600240D462046FEF73A
:101A9000ADFF684600F076F968B105700849466008
:101AA0009DF8000048700020FEF7A2FF1420FEF70A
:101AB0001DFD2046F8BD04240020FEF799FFF8E73D
:101AC0009C0100202DE9F041194D6C68002C2CD0B0
:101AD000184800270068A968B846401A20F07F46D9
:101AE0002068B0420CD82146361A0744E469087CC5
:101AF00020B181F81080886949698847002CEFD1AE
:101B000029786878814206D1401CC0B268700228EA
:101B100001D185F80180064869780C3040F82170C1
:101B2000BDE8F0411420FEF7E1BCBDE8F081000003
:101B3000380000200415014070B50C4605464FF4EE
:101B40008E71FFF79EFEA18AA068415CA08A401CAE
:101B5000A082C5F81C1570BD1FB500228DF80020AD
:101B60008DF80810816801918275D0E900126846ED
:101B700090471FBD2DE9FF470C4605464FF4007105
:101B8000FFF785FE01274FF40178002618B34FF4C4
:101B9000927949462846FFF76FFEE0B1494628464C
:101BA000FFF76FFEC5F80883A07E00B96F600220C2
:101BB0008DF80000D5F88004C5F880040390E07D1E
:101BC0008DF80800E0680190E6752676D4E90012E9
:101BD0006846904727E004212846FFF758FE10B3D7
:101BE0004FF484712846FFF747FEE0B121462846AE
:101BF000FFF794FEE07D617E884214D1207E38B1EB
:101C0000617EE268E0752069E0602676667607E02E
:101C1000A07E00B96F60C5F80883E675617EE26852
:101C20002046FFF794FE4FF48E7841462846FFF792
:101C300023FE88B1A08AA17D884204D2214628468D
:101C4000FFF77AFF08E041462846FFF71AFEA17D1C
:101C500011B12046FFF780FF4FF4A2784146284695
:101C6000FFF70AFE002812D041462846FFF709FE7A
:101C7000A07E00B12F60E07D002808D0E675617E6F
:101C8000E26804B02046BDE8F047FFF760BEBDE85B
:101C9000FF872DE9FF410C464FF492770546394600
:101CA000FFF7FBFD0026C0B139462846FFF7FAFDD5
:101CB00002208DF80000D5F88004C5F88004039058
:101CC000D5F83C058DF80800E0680190E6752676A9
:101CD000D4E900126846904724E04FF488773946EB
:101CE0002846FFF7DAFDE8B139462846FFF7DAFD66
:101CF000D5F83C05C1B2E07D884213D1207E60B1A9
:101D0000E268D5F8000220F02000C5F80002207E2D
:101D1000E0752069E060267601E0E675E26820461D
:101D2000FFF715FE4FF4A27739462846FFF7B5FDB9
:101D300068B139462846FFF7B5FDE07D38B1E67554
:101D4000D5F83C05E268C1B22046FFF700FE4FF42B
:101D5000907631462846FFF7A0FD00280FD0314687
:101D60002846FFF79FFDA07D002808D0D5F84C0538
:101D700004B0C1B22046BDE8F041FFF7EDBEBDE8BA
:101D8000FF8100000A494A788B78521CD2B29342F4
:101D900000D100220B78934201D1002070470270DD
:101DA000487800EB400001EBC000001D70470000C8
:101DB0009C01002010B5FFF735FB08B1FEF77CFD54
:101DC0000020FFF751FBFEF797FD08B1FEF774FD09
:101DD00011490320FEF720FF08B1FEF76DFD00203A
:101DE000FFF740F808B1FEF767FD0C4A01210C48E7
:101DF000FEF770FD08B1FEF75FFD094800224FF4C1
:101E000080410068FEF7A2FD002803D0BDE8104025
:101E1000FEF752BD10BD0000950B0000CF0800007A
:101E2000241E0000540000200D0E0F100B0C18197A
:101E30007400002094000020C00000200B0003006C
:101E4000010B00000C000300010B00001800030050
:101E5000010B000019000300010B000000000050FE
:101E6000000300507C010020030000008C1E0000D5
:101E70000000002054000000A8070000E01E000041
:101E80005400002054220000B807000000000000A9
:101E90000000000000000000000000000000000042
:101EA0000000000000000000000000000000000032
:101EB0000000000000000000000000000000000022
:101EC0000000000000000000000000000000000012
:101ED0000000000000000000000000000090D0039F
:0400000500000201F4
:00000001FF
