:100000000000042095470000BD470000BF470000E6
:10001000C1470000C3470000C547000000000000C2
:100020000000000000000000000000004D0A000079
:10003000C9470000000000006D0A0000CD47000025
:10004000D52B0000C55B020069490200CF470000C4
:10005000CF470000CF47000015300000CF47000019
:10006000CF470000CF470000CF470000CF47000038
:10007000CF470000B94E0200CF470000CF47000035
:10008000CF470000750B0000CF470000CF470000AE
:10009000CF470000CF470000CF470000CF47000008
:1000A000CF470000CF470000CF470000CF470000F8
:1000B000CF470000CF470000000000000000000014
:1000C000CF470000CF470000CF470000CF470000D8
:1000D00081460200CF470000CF470000CF47000015
:1000E000CF470000CF470000CF470000CF470000B8
:1000F00000000000CF4700000000000000000000EA
:1001000000000000000000000000000000000000EF
:1001100000000000000000000000000000000000DF
:1001200000000000000000000000000000000000CF
:1001300000000000000000000000000000000000BF
:1001400000000000000000000000000000000000AF
:10015000000000000000000000000000000000009F
:10016000000000000000000000000000000000008F
:10017000000000000000000000000000000000007F
:10018000000000000000000000000000000000006F
:10019000000000000000000000000000000000005F
:1001A000000000000000000000000000000000004F
:1001B000000000000000000000000000000000003F
:1001C000000000000000000000000000000000002F
:1001D000000000000000000000000000000000001F
:1001E000000000000000000000000000000000000F
:1001F00000000000000000000000000000000000FF
:1002000010B5054C237833B9044B13B10448AFF350
:1002100000800123237010BDA00900200000000011
:10022000ECFD0300084B10B51BB108480849AFF3BB
:1002300000800848036803B910BD074B002BFBD0B2
:10024000BDE81040184700BF00000000ECFD0300AF
:10025000A40900209C09002000000000154B002B81
:1002600008BF134B9D46A3F5803A00218B460F46ED
:100270001348144A121A00F065F80F4B002B00D0F7
:1002800098470E4B002B00D0984700200021040017
:100290000D000D48002802D00C48AFF3008000F09C
:1002A0002BF82000290004F08FF800F011F800BFAF
:1002B0000000080000000420000000000000000012
:1002C000A0090020441B01200000000000000000E5
:1002D00008B5074B044613B10021AFF30080054B6E
:1002E0001868836A03B19847204600F033F800BFCE
:1002F000000000003C82030070B50E4B0E4CE41A67
:10030000A41000251E46A54204D056F82530984773
:100310000135F8E737F084FF084C094BE41AA410C4
:1003200000251E46A54204D056F8253098470135D1
:10033000F8E770BD94090020940900209809002076
:100340009409002002440346934202D003F8011BA3
:10035000FAE77047FEE700BF2DE9F04F1546C7B03A
:100360001C46002900F01C81002B00F0EF800A23BE
:1003700001930023194606AE519B539A519F03EBFC
:10038000020B019B013B059320258C4601980CEB49
:10039000000304933133F318029306EB0C03002897
:1003A0005FD05A4202F00302824228BF024606286A
:1003B00000F2EC80019A06F80C50012A03F10101C9
:1003C00000F0E280022A5D7003F1020100F0DC809F
:1003D000032A9D7003F1030100F0D680042ADD702A
:1003E00003F1040100F0D080062A1D7103F105011C
:1003F00040F0D3805D71991D9646019890422ED0B1
:10040000C2EB0009A9F104008008013003900598AF
:10041000C2EB000A0398BAF1020F4FEA800812D922
:10042000624401284FF0203C06EB020A46F802C065
:1004300005D00228CAF804C001D0CAF808C0C845CF
:100440004144C6440BD001980D700EF10102904258
:1004500005D90EF1020E70454D7000D98D70019ACC
:100460001344534A0299D2F80080DDF84891DA1C0F
:10047000481C03F1330C0CE002F8035C02F8025C48
:1004800002F8015C0332624500F8015C00F10100F2
:1004900033D0A345F0D9A74295BFE11B509919F875
:1004A0000110095D02F8015C4FEA211E5FFA8EFA25
:1004B000BEF1090F01F00F0ED4BF0AF1300A0AF1A4
:1004C000370ABEF1090F02F803AC94BF0EF1300EEB
:1004D0000EF1370E08EB010A02F802EC9AF801E07F
:1004E00003321EF0970F08BF2E21624500F8011C51
:1004F00004F1010400F10100CBD1029804990D220E
:100500004FF00A0801F14309027480F8118083F862
:10051000305023464FF0000A4C46994606EB0A013C
:100520002246002003F0C2FF8244241A10B9B8F119
:10053000010801D0002CF1D1CB454C464FF0000C06
:100540003FF624AF204647B0BDE8F08F06AE0B68FB
:10055000184A30464FF4807136F0B8FE0028F1DBBF
:100560000A2307460193284636F017FFC22828BF02
:10057000C220804629460246F01936F015FB08EBEA
:10058000070300241946F7E6964636E7002A7FF46B
:1005900012AF19469646019832E74FF0050E2CE748
:1005A00013B1019106AEE7E60194274606AEDAE7FD
:1005B00090090020408203002DE9F0419046C6B02A
:1005C0001F46C1B106AE0B68564A30464FF48071E3
:1005D00036F07CFE00280ADB4C9B0546062B00F219
:1005E0009F80DFE803F042525D6A798A14000020A0
:1005F00046B0BDE8F0814C9B062B00F28F80DFE80F
:1006000003F033424D5A697A0400002506AE07F123
:100610000C017A683B68D7F808C092C9701900923B
:10062000029103944246CDF804C00497C5F5807149
:1006300036F04CFE0446002CD9DB2C44B4F5807F08
:10064000D5D80A27002506AE71192246002003F0EE
:100650002DFF0544241A08B9013F01D0002CF3D125
:10066000012046B0BDE8F0810025404636F095FEF9
:100670004319FF2B0446DED806AE414670192246C8
:1006800036F092FAD7E7002506AE701942463B686D
:10069000C5F5807136F01AFE0446CCE7002506AE9B
:1006A0007A683B68009270194246C5F5807136F051
:1006B0000DFE0446BFE7002506AE7A68B9683B68C0
:1006C0000092019170194246C5F5807136F0FEFD29
:1006D0000446B0E7002506AE7A68BC68F9683B6856
:1006E00000920194029170194246C5F5807136F06E
:1006F000EDFD04469FE7002506AE07F108017A6884
:100700003B6892C970190092019102944246039786
:10071000C5F5807136F0DAFD04468CE7002490E7D9
:1007200000248AE74082030070B5074C074D237808
:10073000064613B12B78834204D003F0F7FF012360
:100740002E702370002070BDBD090020BC09002060
:1007500000487047B9050000004870475903000081
:1007600038B50120FFF7E0FF044638B9FFF7F0FF86
:100770000546FFF7F1FF024B5D619861204638BDE9
:10078000C009002010B5054C82B00A4600216469FA
:1007900000910B46A04702B010BD00BFC009002069
:1007A00030B585B004AB054C43F8042D01250A464D
:1007B000646900950021A04705B030BDC009002044
:1007C00030B5064C85B00225029203930A4664694F
:1007D0000095002102ABA04705B030BDC009002044
:1007E000084B1B5C1F2B8ABF074A4FF0A04203F047
:1007F0001F03D2F80405D84000F0010080F001008A
:10080000704700BF4882030000030050074B1B5C89
:100810001F2B86BF03F01F0305494FF0A0410122A3
:1008200002FA03F3C1F80C35704700BF4882030099
:1008300000030050064B1A5C1F2A86BF02F01F02FD
:1008400004494FF0A04101239340C1F80835704797
:1008500048820300000300504FF0A04310B44FF44F
:1008600080404FF400544FF400414FF48032C3F8FD
:100870000845C3F80805C3F80815C3F808255DF84E
:10088000044B70474FF0A04310B44FF480404FF436
:1008900000544FF400414FF48032C3F80C45C3F8C4
:1008A0000C05C3F80C15C3F80C255DF8044B704714
:1008B0000A4B195C1F298ABF09484FF0A04001F07C
:1008C0001F01D0F8043501228A4022EA03011340B7
:1008D000C0F80815C0F80C35704700BF4882030007
:1008E0000003005030B44FF0A04303224FF40055F2
:1008F0004FF480444FF400404FF48031C3F8342764
:10090000C3F83827C3F83C27C3F84027C3F8085575
:10091000C3F80845C3F80805C3F8081530BC70478C
:100920000B2809D00C2809D0182809D0192814BF81
:100930004FF0FF30032070470020704701207047C0
:100940000220704738B5430704461CBF20F0070457
:10095000083401F04FF80E4B1D689DB10D4A136825
:1009600043F2F7711C448C4207D8A34205D21D44C0
:10097000146001F0E1F8284638BD002501F0DCF8EC
:10098000284638BD044D25F007051D60E6E700BF89
:10099000E0090020DC090020EC090020704700BFBE
:1009A00000F108034FF0FF310022816080E80C0065
:1009B000C3600361704700BF00230361704700BF3D
:1009C00043684B609A688A609A68516099600861D0
:1009D000036801330360704730B40D686B1C11D09D
:1009E00000F1080200E01A4653681C68A542FAD2DA
:1009F0004B6099608A60516008610368013303604D
:100A000030BC704702695368F2E700BF42688168F2
:100A1000036991608268416851605A68824204BFEC
:100A200082685A60002202611868013818607047B5
:100A30000548006880F3088862B661B6BFF34F8F3F
:100A4000BFF36F8F00DF00BF00000000064B196886
:100A50000868B0E8F04F80F30988BFF36F8F4FF05C
:100A6000000080F31188704764420020EFF3098092
:100A7000BFF36F8F144B1A681EF0100F08BF20EDE4
:100A8000108A20E9F04F10604DF8043D4FF040000F
:100A900080F31188BFF34F8FBFF36F8F01F066F9BA
:100AA0004FF0000080F3118808BC19680868B0E8AE
:100AB000F04F1EF0100F08BFB0EC108A80F30988C9
:100AC000BFF36F8F704700BF64420020402383F361
:100AD0001188FEE730B46FF002034FF08075074CC9
:100AE00040F8081C40F8202C40F8045C40F80C4CFE
:100AF00040F8243C30BC4438704700BFCD0A0000A9
:100B00000F4C08B5E02384F8223000F073F80D4B49
:100B10000D4A00211960D4F8883043F47003C4F8FA
:100B20008830536843F040435360236943F0100317
:100B30002361FFF77DFF402383F31188FEE700BFA9
:100B400000ED00E0E441002030EF00E0402383F3BB
:100B50001188024A1368013313607047E441002092
:100B6000034A1368013B13600BB983F31188704784
:100B7000E441002070B582B0EFF31186402383F387
:100B800011881749174B184AD3F80435002008601C
:100B90000968009100991168C9B9144A146803EBF7
:100BA000046400F02FFF201A0DD00446002500F049
:100BB00035FF013C45EA0005F9D125B10C4B4FF05A
:100BC00080525A6040BF86F3118802B070BD106039
:100BD0001168064A01910199116801311160DDE740
:100BE000001101400010014004110140E8410020C3
:100BF00000ED00E0F8B5002001F060FF0A4E0B4B5D
:100C00000B4901221F270225E0244FF40030C3F8CE
:100C10000875C3F8042332601A60C3F8445381F89E
:100C200011430860F8BD00BF0810014000100140EA
:100C300000E100E070B506460D4651B300FB01F03F
:100C40004D30FFF77FFE044600F14C0340B32360B4
:100C5000E6632564FFF77AFF226CE36B2168A160ED
:100C600003FB02F39A1A0A440B4400204FF0FF31B1
:100C7000A063E2606164636004F11000A164FFF7A7
:100C80008FFE04F12400FFF78BFEFFF769FF20467B
:100C900070BD4C20FFF756FE044603460028D6D10F
:100CA0000024F4E72DE9F047044684B01D46019284
:100CB0008846FFF74BFFA26BE36BA64F4FF000098E
:100CC0009A424E4670D3022D00F0EF800198002822
:100CD00000F04281B9F1000F7AD0FFF741FF00F038
:100CE00089FEFFF733FF636C013308BF6664A36CB2
:100CF000013308BFA664FFF733FF02A801A901F082
:100D000031F9002840F0E280FFF720FFA36BE26B8F
:100D10009A4261D0FFF724FFFFF718FFA36C002B66
:100D200014DD636A93B104F1240907E0A36C013B6D
:100D3000A364A36C002B09DD636A3BB1484601F054
:100D4000CBF80028F2D001F03DF9EFE74FF0FF3388
:100D5000A364FFF705FFFFF7F9FE636C002B14DDBA
:100D6000236993B104F1100907E0636C013B6364EC
:100D7000636C002B09DD23693BB1484601F0ACF8F8
:100D80000028F2D001F01EF9EFE74FF0FF33636463
:100D9000FFF7E6FE00F0D0FEFFF7D8FEA26BE36B94
:100DA0009A424FF001098ED2226C002A63D1256845
:100DB000002D00F0F780A36B626A0133A363002A61
:100DC00040F0DF80FFF7CCFE012004B0BDE8F087E3
:100DD00002A801F0BBF880E704F11009FFF7C0FE9C
:100DE0004846019900F0EEFFFFF7B0FEA36C002B20
:100DF00014DD636A93B104F1240A07E0A36C013B9C
:100E0000A364A36C002B09DD636A3BB1504601F07B
:100E100063F80028F2D001F0D5F8EFE74FF0FF3388
:100E2000A364FFF79DFEFFF791FE636C002B06DCC9
:100E30000FE0636C013B6364636C002B09DD236985
:100E40003BB1484601F048F80028F2D001F0BAF86A
:100E5000EFE74FF0FF336364FFF782FE00F06CFEB4
:100E6000002899D14FF080537B6040BFBFF34F8F74
:100E7000BFF36F8F90E74146002D74D0E06835F0E6
:100E800093FE236CE26821685B421A448A42E26066
:100E900002D262681344E360022D8CD1A36B002B55
:100EA00089D0A36B013BA36385E7226C002A3FF442
:100EB0007EAF4146E06835F077FE236CE26821683A
:100EC0005B421A448A42E260E3D3E7E7FFF73EFE63
:100ED000A36C002B14DD636A93B104F1240507E0D1
:100EE000A36C013BA364A36C002B09DD636A3BB1D7
:100EF000284600F0F1FF0028F2D001F063F8EFE798
:100F00004FF0FF33A364FFF72BFEFFF71FFE636C68
:100F1000002B14DD236993B104F1100507E0636C25
:100F2000013B6364636C002B09DD23693BB12846F8
:100F300000F0D2FF0028F2D001F044F8EFE74FF0C4
:100F4000FF336364FFF70CFE00F0F6FD002004B0F1
:100F5000BDE8F08700ED00E00090FFF701FE00988B
:100F600004B0BDE8F087A06835F01EFEA168236CD0
:100F700062680B449342A360FFF41DAF2368A36033
:100F800019E704F1240000F0A7FF01287FF41AAF4D
:100F90000B4B4FF080525A6040BFBFF34F8FBFF3EF
:100FA0006F8F0FE7606801F071F8A36B626A65608C
:100FB0000133A363002AE4D10028E9D102E700BF8E
:100FC00000ED00E0F8B5044617461D46EFF3118624
:100FD000402383F31188826BC36B9A4205D3022DA1
:100FE0002DD0002086F31188F8BD026C7AB92568EF
:100FF000002D4ED0A36B0133A363A36C01333AD011
:10100000A36C0133A364012086F31188F8BD2DB3CE
:10101000C06835F0C9FD236CE26821685B421A4460
:101020008A42E26002D262681344E360022DE1D199
:10103000A36B002BDED0A36B013BA363DAE7026C4A
:10104000002AD4D0C06835F0AFFD236CE268216877
:101050005B421A448A42E260E5D3E9E7806835F0F2
:10106000A3FDA168236C62680B449342A360C1D3C3
:101070002368A360BEE7636A002BC4D004F1240098
:1010800000F02AFF0028BED0002FBCD0012038601D
:10109000A8E7606800F0FAFF6560ABE72DE9F0476C
:1010A000044684B09A4688460192FFF74FFDA36B31
:1010B000A34E00273D46002B7AD10198002800F06E
:1010C000F380002F00F0DC80FFF74AFD00F092FC77
:1010D000FFF73CFD636C013308BF6564A36C01330B
:1010E00008BFA564FFF73CFD02A801A900F03AFF84
:1010F000002840F0E080FFF729FDA36B002B40F0B3
:101100008480FFF72DFD2368002B00F0C58004F1DB
:1011100024094846019900F055FEFFF717FDA36C1E
:10112000002B06DC0FE0A36C013BA364A36C002B37
:1011300009DD636A3BB1484600F0CEFE0028F2D0DC
:1011400000F040FFEFE74FF0FF33A364FFF708FD27
:10115000FFF7FCFC636C002B14DD236993B104F1F1
:10116000100907E0636C013B6364636C002B09DDCD
:1011700023693BB1484600F0AFFE0028F2D000F0F2
:1011800021FFEFE74FF0FF336364FFF7E9FC00F066
:10119000D3FC38B94FF08053736040BFBFF34F8F1B
:1011A000BFF36F8FFFF7D2FCA36B0127002B84D016
:1011B000226CE5684AB16368A9189942E16024BFCE
:1011C0002168E160404635F0EFFCBAF1000F40F0D5
:1011D000B980A36B2268013BA363002A00F0C3809F
:1011E0002369002B00F0B18004F1100000F074FEC0
:1011F000012840F0AA80524B4FF080525A6040BF05
:10120000BFF34F8FBFF36F8F9FE0FFF7A9FCFFF78E
:101210009DFCA36C002B14DD636A93B104F12409D7
:1012200007E0A36C013BA364A36C002B09DD636A98
:101230003BB1484600F050FE0028F2D000F0C2FE5C
:10124000EFE74FF0FF33A364FFF78AFCFFF77EFC64
:10125000636C002B18DD2369B3B104F1100907E0BA
:10126000636C013B6364636C002B0DDD23695BB130
:10127000484600F031FE0028F2D000F0A3FEEFE770
:1012800002A800F063FE1FE74FF0FF336364FFF72F
:1012900067FC00F051FC85E7FFF758FC606800F040
:1012A000A7FEFFF75DFC32E70090FFF759FC0098BE
:1012B00004B0BDE8F087FFF749FCA36C002B14DDF8
:1012C000636A93B104F1240507E0A36C013BA364B6
:1012D000A36C002B09DD636A3BB1284600F0FCFDDE
:1012E0000028F2D000F06EFEEFE74FF0FF33A3646A
:1012F000FFF736FCFFF72AFC636C002B14DD236933
:1013000093B104F1100507E0636C013B6364636C07
:10131000002B09DD23693BB1284600F0DDFD0028E4
:10132000F2D000F04FFEEFE74FF0FF336364FFF7BA
:1013300017FC00F001FC002004B0BDE8F08700BFFE
:1013400000ED00E0636AE5602BB9FFF709FC0120BE
:1013500004B0BDE8F08704F1240000F0BDFD0028D2
:101360007FF449AFF1E700F0D3FE606038E700BFDB
:1013700010B4074B1A682AB19A6812B15DF8044B91
:101380007047012203EBC20443F832106060F5E7B6
:10139000E401012038B504460D46FFF7D7FB636C26
:1013A000013304BF00236364A36C013304BF002333
:1013B000A364FFF7D5FBA36B23B9294604F12400EE
:1013C00000F04AFDFFF7C2FBA36C002B14DD636A3B
:1013D00093B104F1240507E0A36C013BA364A36C63
:1013E000002B09DD636A3BB1284600F075FD00283B
:1013F000F2D000F0E7FDEFE74FF0FF33A364FFF713
:10140000AFFBFFF7A3FB636C002B14DD236993B1E3
:1014100004F1100507E0636C013B6364636C002B0F
:1014200009DD23693BB1284600F056FD0028F2D0C3
:1014300000F0C8FDEFE74FF0FF336364BDE83840CC
:10144000FFF78EBB2DE9F84F0C9C0B9E81468A4618
:10145000154698462746002C00F097804820FFF755
:1014600071FA0446002800F09B80AD002A4607630D
:10147000A5213846FEF766FF9AF80030226B84F803
:101480003430043D9AF80030154425F0070553B177
:101490009AF8013084F835309AF801301BB19AF887
:1014A000023084F836300A9B022B28BF0223002723
:1014B00004F1040AE362A363504684F83770E763DB
:1014C0009B46FFF779FA04F11800FFF775FACBF1A4
:1014D00003032764A361246184F84470646228468E
:1014E00049464246FFF7F6FA206006B13460FFF73E
:1014F0002DFB3F4A3F4D1368013313602B68002BCF
:101500003CD0DFF82081D8F800306BB3DFF818E169
:10151000394EE36ADEF800003768384A012404FADD
:1015200003FC03EB83034CEA000C514602EB8300FF
:101530003A19CEF800C03260FFF742FAFFF710FB0D
:10154000D8F80030BBB12B680A9ADB6A9A4212D9EC
:101550002B4B4FF080525A6040BFBFF34F8FBFF309
:101560006F8F2046BDE8F88F2B680A9ADB6A9A4293
:1015700028BF2C60CAE72046BDE8F88F2C601368AE
:10158000012B11D0DFF89C80C0E79000FFF7DAF95B
:10159000074600287FF462AF4FF0FF30BDE8F88FB8
:1015A0003846FFF7FBF9F7E71448DFF88090154E4F
:1015B000DFF87080FFF7F4F91348FFF7F1F91348EB
:1015C000FFF7EEF94846FFF7EBF93046FFF7E8F989
:1015D0000F48FFF7E5F90F48FFF7E2F90E48FFF76C
:1015E000DFF90E4A0E4BC2F800901E608EE700BF76
:1015F000B84200206442002088420020244200209B
:1016000000ED00E0A0420020384200204C420020C3
:1016100068420020FC41002010420020F0410020E0
:1016200084420020F4410020BC4200208C42002073
:1016300038B5124B1B68984218D00546FFF786FA5A
:101640006C69FFF78DFA0E4B1B689C420CD00D4B5A
:101650001B689C4208D00C4B9C4209D00B4884422A
:101660000CBF0420012038BD022038BD002038BD49
:10167000AB6A002B0CBF0320022038BD644200205F
:10168000F04100208442002010420020FC41002054
:10169000F8B504463D4EFFF759FA002C4ED0251DF3
:1016A0002846FFF7B3F930B9E36A394A03EB8301FF
:1016B00052F82120A2B1A36A1BB104F11800FFF770
:1016C000A5F9344F29463846FFF77AF9FFF748FA6B
:1016D00033682E4A9C42304B1B6822D04BB9F8BD70
:1016E0002E480121026801FA03F322EA0303036092
:1016F000E1E7FFF72BFA2A4B1A6812684AB11A6819
:10170000284BD268D26852681A60BDE8F840FFF7EB
:1017100027BA244B4FF0FF321A60BDE8F840FFF7BC
:101720001FBA6BB920493868096888422BD01F4B13
:101730001B687BB11E4B01221A60F8BD3468AEE70E
:101740001C4B4FF080525A6040BFBFF34F8FBFF326
:101750006F8FF8BD1649114A0B601368B3FA83F313
:10176000C3F11F030A4803EB83039B00C11808332E
:101770004A6852684A6003449A4204BF52684A6009
:10178000D3683360F8BD1360F8BD00BF6442002029
:101790002442002010420020F4410020BC420020DE
:1017A000F0410020FC080020B842002060420020E8
:1017B000C042002000ED00E000283BD02DE9F041C0
:1017C0001D4D2B6898420AD00446FFF7BFF91B4B0A
:1017D00062699A4205D0BDE8F041FFF7C1B9BDE8A2
:1017E000F081A36A164A9342F5D0002BF3D104F19D
:1017F0000408144F4046FFF709F9E36A3E681248AF
:1018000001229A4003EB8303324300EB83004146FD
:101810003A60FFF7D5F82B68E26ADB6A9A42DAD3BE
:101820000A4B4FF080525A6040BFBFF34F8FBFF357
:101830006F8FD0E7704700BF644200201042002045
:1018400068420020BC4200202442002000ED00E05D
:101850002DE9F843F020FFF775F80546002875D00C
:101860004820FFF76FF80446002877D00563A521CC
:101870002846F022FEF766FD206B4C4F00254921DB
:1018800044224C2304F1040884F8341084F83520F1
:1018900084F8363000F1EC0684F837504046E562B3
:1018A000A563E563FFF788F804F11800FFF784F8F3
:1018B00026F0070603232A462564A3613C4984F8E1
:1018C0004450304624616462FFF704F9394B2060CC
:1018D0001C60FFF73BF9384A1368013313603B681B
:1018E000002B35D0354E33681BB93B68DB6A03B932
:1018F0003C60DFF8F4C0DFF8F4E0E36ADCF80050A5
:10190000DEF800202E4801249C4003EB830300EB0B
:101910008300013241462C43CCF80040CEF8002031
:10192000FFF74EF8FFF71CF9336803B13B6800F08E
:10193000FBFB01280AD1402383F31188214B30603F
:1019400000221A60BDE8F843FFF7DAB8BDE8F88373
:101950003C601368012B06D0184ECAE72846BDE844
:10196000F843FFF71BB81648DFF88490164D134E66
:10197000FFF716F81548FFF713F81548FFF710F8AA
:101980004846FFF70DF82846FFF70AF81148FFF719
:1019900007F81148FFF704F81048FFF701F8104A5C
:1019A000104BC2F800901D60A3E700BF6442002006
:1019B000CD1C00007C420020B8420020F4410020F1
:1019C0002442002080420020A04200203842002013
:1019D0004C42002068420020FC41002010420020C0
:1019E000F041002084420020BC42002088420020B8
:1019F0008C420020024A136801331360704700BF15
:101A000060420020014B1868704700BF80420020F0
:101A1000014B1868704700BF804200202DE9F04F4D
:101A20003A4B1B6883B0002B43D1394B1A68013203
:101A30001A601F68002F4AD0364B01931B689F42E3
:101A40003BD3DFF8E480344EDFF8E890C24600254F
:101A500025E0DAF80030DB68DC68636804F1040B29
:101A60009F42584622D3FEF7D1FFA36A04F1180023
:101A70000BB1FEF7CBFFE06A33680122824000EB36
:101A800080001343594609EB80003360FEF798FF4E
:101A9000224BE26A1B68DB6A9A4228BF0125D8F80C
:101AA00000301B68002BD4D14FF0FF33019A136034
:101AB00004E01B4A1368013313600025194B1B68AF
:101AC000002B18BF0125284603B0BDE8F08F164B48
:101AD000164A1868164914681C6010600A680132BA
:101AE0000A601A6812683AB90A4B01931A464FF015
:101AF000FF3313601346A1E71B68064ADB680192B7
:101B0000DB685B681360134698E700BF6042002003
:101B100080420020FC080020BC42002064420020DB
:101B2000B4420020C0420020F04100208442002046
:101B3000EC410020244200202DE9F84FFFF706F881
:101B4000314B1A68013A1A601B68002B47D12F4BA2
:101B50001B68002B43D0DFF8C8B02D4FDFF8C490CE
:101B6000DFF8C480DA4620E0DAF80C30DC68251DA6
:101B700004F11800FEF74AFF2846FEF747FFE06A27
:101B80003B6806FA00FE00EB80004EEA030329469C
:101B900009EB80003B60FEF713FFD8F80030E16AE4
:101BA000DB6A994224BF1B4B1E60DBF80030012624
:101BB000002BD9D1184C23686BB123685BB1012588
:101BC000FFF72CFF08B1134B1D602368013B236016
:101BD0002368002BF4D10F4B1C68012C05D0002486
:101BE000FEF7BEFF2046BDE8F88F0C4B4FF0805249
:101BF0005A6040BFBFF34F8FBFF36F8FFEF7B0FF48
:101C00002046BDE8F88F00BF60420020B8420020A7
:101C1000BC420020C0420020B442002000ED00E0A1
:101C200068420020244200206442002070B548B978
:101C30001E4B4FF080525A6040BFBFF34F8FBFF32F
:101C40006F8F70BD1A491B4D0A681B4E01320A6026
:101C500003462C68306804301C44FEF7D7FE40B9B8
:101C600033681649D86A0A680123834022EA0303CD
:101C70000B6032682B6854609C420F4A0FD3104BA4
:101C8000186811680431FEF7A7FE0E4B1A689442DB
:101C900038BF1C60FFF750FF0028C9D070BD0A4B49
:101CA000186811680431FEF797FEF3E700ED00E0D5
:101CB000604200208042002064420020BC4200209C
:101CC000F0410020FC08002084420020214E224DDB
:101CD000224CDFF89080DFF890902DE98848B246DA
:101CE00006E02368376801332360FFF725FF97B9C3
:101CF0002B68002BF5D1D9F80030194A012B07D9F0
:101D00004FF08053536040BFBFF34F8FBFF36F8FCF
:101D100002F04CFBECE7FEF719FFDAF80C30D3F8D1
:101D20000CB00BF10400FEF771FED8F800300A4A3F
:101D3000013BC8F80030084B1B68013B1360FEF7FD
:101D40000FFFDBF83000FEF729FE5846FEF726FEAF
:101D5000CEE700BFFC410020F84100206042002097
:101D600000ED00E0B842002024420020104B1B6828
:101D7000CBB91049104A0B601368B3FA83F3C3F16F
:101D80001F030E4803EB83039B00C11808334A6806
:101D900052684A6003449A4204BF52684A60084B42
:101DA000D2681A607047034B01221A60704700BF67
:101DB00060420020C0420020BC420020244200209B
:101DC0006442002038B51D4D2B680C4603F1180104
:101DD000FEF702FE28680430FEF718FE40B92B68B3
:101DE0001749D86A0A680123834022EA03030B607B
:101DF000631C1CD0134A11491368286812681C44DC
:101E0000944244600BD3104B186809680431FEF704
:101E1000E3FD0E4B1A68944238BF1C6038BD0C4B72
:101E200018680968BDE838400431FEF7D5BD296857
:101E300008480431BDE83840FEF7C2BD64420020C6
:101E4000BC42002080420020F0410020FC0800201D
:101E5000844200201042002038B5194D2B680C46F2
:101E600003F11801FEF7ACFD28680430FEF7CEFD43
:101E700040B92B681349D86A0A680123834022EAD3
:101E800003030B60104A0E491368286812681C444B
:101E9000944244600BD30D4B186809680431FEF777
:101EA0009BFD0B4B1A68944238BF1C6038BD094B30
:101EB00018680968BDE838400431FEF78DBD00BFE1
:101EC00064420020BC42002080420020F0410020FB
:101ED000FC08002084420020F8B5C368DC6804F1E7
:101EE00018052846FEF792FD124B1B68EBB9271D1B
:101EF000114E3846FEF78AFDE36A35680F48012225
:101F00009A4003EB83032A43394600EB8300326097
:101F1000FEF756FD0A4BE26A1B68DB6A9A4283BFF2
:101F2000084B012018600020F8BD29460648FEF73E
:101F300047FDEFE760420020BC4200202442002021
:101F400064420020C042002068420020034A044B43
:101F500012681B6880E80C00704700BFEC4100204D
:101F600080420020F8B50D460446FEF7EFFD2B68D1
:101F700012495A1C08681BD0114E276832689742D4
:101F8000626801D090420ED2871ABB420BD91B1A4D
:101F9000134430680A682B6084E805000025FEF7CA
:101FA000DFFD2846F8BD0125FEF7DAFD2846F8BD1D
:101FB0000025FEF7D5FD2846F8BD00BF8042002071
:101FC000EC410020014B01221A607047C042002002
:101FD000054B1B6833B1054B1B68002B0CBF02205F
:101FE0000020704701207047F4410020604200202B
:101FF000002842D02DE9F041214CC36A2268D26A00
:10200000934212D28269002A04DB2268D26AC2F1AA
:10201000030282611B4D426903EB830305EB8303DB
:102020009A4204D02368DB6AC362BDE8F08100F104
:10203000040807464046FEF7E9FCF8B9FB6A124E71
:1020400003EB830255F8222032B93268012101FAEC
:1020500003F322EA0303336023683268D86AF86224
:1020600001238340134300EB80003360414605EBBE
:102070008000BDE8F041FEF7A3BC7047024EEBE7DD
:102080006442002024420020BC420020002838D0B6
:10209000F8B5C36BC16A826B013B9142C36300D048
:1020A0000BB10020F8BD071D04463846FEF7AEFC14
:1020B00078B9E36A1448154E03EB830250F82220E6
:1020C0004AB93268012101FA03F322EA03033360BB
:1020D00001E00D480D4EA36B3268E362012505FA5D
:1020E00003FCC3F1030E03EB83034CEA020200EB93
:1020F00083003946C4F818E03260FEF761FC2846D8
:10210000F8BD0020704700BF24420020BC420020E0
:10211000044B1A681AB11968CA6B0132CA6318688D
:10212000704700BF64420020F0B5184C85B0FEF740
:102130000DFD25688DB1FEF713FD206858B102230F
:10214000134A00930023019202930393114812490A
:102150005022FFF777F905B0F0BD104F104E38460A
:10216000FEF71EFC3046FEF71BFC0E4A0E4B1760B6
:1021700020202A4610211E60FEF75CFD206000280A
:10218000D9D00A49FFF7F4F8D5E700BFF4420020A0
:10219000FC420020B122000054820300CC42002007
:1021A000E0420020C4420020F84200204C8203009C
:1021B0002DE9F04F83B0F9B1064628200D46984628
:1021C0001746FEF7BFFB0446B0B1DFF88090FEF77C
:1021D000BDFCD9F80020A2B1FEF7C2FC0C9B266022
:1021E000201DA561E761C4F820806362FEF7E4FB6F
:1021F000204603B0BDE8F08F0024204603B0BDE8C0
:10220000F08FDFF84CB0DFF84CA001925846FEF793
:10221000C7FB5046FEF7C4FB09490A4BC1F800B0A2
:10222000019AC3F800A020201021FEF703FDC9F891
:1022300000000028D0D00449FFF79AF8CCE700BF8F
:10224000C4420020F84200204C820300F4420020E7
:10225000CC420020E042002030B5144D2C6885B0FF
:1022600004B305298DE8060002900BDCFFF7B0FEF1
:1022700002280FD00022286813466946FEF712FD97
:1022800005B030BD1A46204669460023FEF79AFE87
:1022900005B030BD2868089A69460023FEF702FDA4
:1022A00005B030BD204605B030BD00BFF44200206F
:1022B0002DE9F04FAB4DAC4CDFF8B0828BB02B6802
:1022C0001E68002E6ED0DB681E68FFF793FBFFF7D9
:1022D00099FBD8F80030A54A834207466ED886425B
:1022E000106040F2A480F11B2068FFF753F8FFF75D
:1022F00023FC40B99E4B4FF080525A6040BFBFF361
:102300004F8FBFF36F8F00221346206802A9FEF79C
:10231000C5FE0028D3D0029B002B3BDB049E7369D3
:1023200013B1301DFEF772FBFFF76CFBD8F80030DD
:102330009842814623D3029AC8F80090092AE2D82D
:102340000123934013F4047F40F0D68013F0C70FAD
:1023500040F0B6809B06D6D53046FEF71FFBD2E78D
:10236000DB68DF68D3F800B007F1040A5046FEF7D7
:102370004DFB7B6A38469847FB69012B4BD02B6895
:102380001A68002AECD17B4A764912680A60794AB9
:102390001360D0E7039B049805999847029B002B94
:1023A000B1DBBBE7FFF726FBFFF72CFBD8F80030CB
:1023B0006E4A8342074601D8176094E74FF0000940
:1023C0000EE0DB68DE68D3F800B006F1040A504680
:1023D000FEF71CFB736A30469847F369012B0ED059
:1023E0002B681A68002AECD1624A5E4912680A60BA
:1023F000604AC8F800701360FFF79EFB83E7B3697B
:102400005B445B45514627D97360564B366118686B
:10241000FEF7E2FAE4E7BB695B445B4551462DD920
:102420007B60504B3F611868FEF7D6FAA7E7FFF7CD
:1024300083FB4C4B1B68DB68D3F80C9009F1040A52
:102440005046FEF7E3FAD9F81C30012B29D0D9F811
:1024500024304846984756E72368002BC0D0CDF873
:102460001890CDF81CB00896FFF7B2FD3E49002247
:102470001346086806A9FEF715FCB1E72368002B90
:102480003FF47DAF00230693CDF81CB00897FFF70B
:102490009FFD354900221346086806A9FEF702FC95
:1024A0006DE7D9F81830C9F810909A19BA42C9F8EE
:1024B000042032D92B4B51461868FEF78DFAC6E737
:1024C000039BB1693661CA184A4572603AD8C3EBBA
:1024D000090399421BD8736A30469847F369012B68
:1024E0007FF411AFB269039B00211A44009130467A
:1024F0000B46FFF7B1FE06E7039B366109EB0302CB
:102500004A45B361726021D8002B3FF4FCAE194BF1
:10251000311D1868FEF760FAF5E6BF1BBB421AD8FA
:102520002368002B93D000270796CDF820900697BC
:10253000FFF74EFD0C493A463B46086806A9FEF7F0
:10254000B1FB84E74B4501D99342C4D9311D2868BA
:10255000FEF742FAD7E6074B51461868FEF73CFAF9
:1025600075E700BFC4420020F4420020C8420020AA
:1025700000ED00E0F842002010B50446FEF7E6FA50
:102580006469003418BF0124FEF7EAFA204610BD42
:1025900010B50446FEF7DAFA246AFEF7E1FA20469F
:1025A00010BD00BF4B4B1978002900F091802DE938
:1025B000F04F87B0DFF828C104910024012504E022
:1025C0000134049BE4B29C4265D227B2DCF800607F
:1025D00016F83700A0F1200305FA03F93E4BC0F1CD
:1025E000200ED3E9002325FA0EFE49EA0E0905FA6A
:1025F00000F808EA020A09EA030B06EBC7015AEAE7
:102600000B0E0591DCD03449CDF810C022EA080247
:1026100023EA0903C1E9002300F0ECFC16F8376057
:10262000DDF810C0A6F1200205FA02F2019201992C
:10263000C6F120035FFA80FA25FA03F3A6F120021F
:1026400019430AFA02F30393019105FA06F1009186
:10265000C6F120070399214B2AFA07F73943039162
:102660000AFA06F1D3E900230291DDE900011040E6
:10267000194002460B46DDE902018B4208BF824247
:102680004FF0000B0AD0134B1B7804930134049BCA
:10269000E4B29C4299D307B0BDE8F08F059A576821
:1026A00052780023A2F10102B2FA82F25209002FFD
:1026B000E9D05B4506BF5245012100213046CDF8E7
:1026C00014C0B847034BDDF814C01B78049377E7B8
:1026D000704700BF084300203843002030430020EB
:1026E000044300202DE9F8430746204800F084F910
:1026F000D0B91F4E0123A7F1200103FA01F5C7F15C
:102700002002D6E9000123FA02F2154303FA07F486
:1027100004EA000205EA0103134307D020EA040497
:1027200021EA0505C6E90045BDE8F883384600F012
:1027300061FC104FD7E9002398B144EA020845EA4A
:102740000309D6E9002314431D43C7E90089C6E9FC
:1027500000450949054809680022BDE8F84300F032
:10276000E5B822EA040823EA0509EAE70C43002059
:10277000384300203043002000430020F0B5042AF5
:1027800083B0164602D8072003B0F0BD05460F46B9
:1027900000F0D0FA002836D01D4BDFF88CC0DFF8EF
:1027A0008CE01C481C491D60002200237C1E8CF814
:1027B0000070CEF80060C0E90023C1E90023E4B254
:1027C000DFB10327002600E01C4623B205EBC3025D
:1027D00015F833009378114A8DF8053001A98DF86A
:1027E00004708DF806608DF8076000F0ADFA631E86
:1027F0000028C9D1DBB2002CE6D1094A09480021E2
:1028000000F068F8C0E700F04FFA0028C4D0BBE73A
:10281000044300203043002038430020E526000018
:10282000A52500005C82030008430020004300202F
:1028300070B5084D2B785BB1074E00243368012139
:1028400013F8340000F05AFB2B780134A342F5D87A
:10285000002070BD084300200443002000B585B06F
:1028600000230390194644F2010001AAADF8043098
:10287000029300F003F805B05DF804FB08B50120F1
:102880000949FDF77FFF03200849FDF77BFFBFF3F0
:102890004F8F0749074BCA6802F4E0621343CB60CD
:1028A000BFF34F8F00BFFDE760820300708203001B
:1028B00000ED00E00400FA0510B5FFF769FE037BA8
:1028C00003B910BD83680068BDE81040184700BF19
:1028D0000020704770B582B0056822B12B7B2BB108
:1028E000082002B070BD072002B070BD6B68002BDD
:1028F000F6D114460E46102219462846FDF722FD51
:10290000321C084BAC6018BF0122009306484FF4FC
:102910007A712B46FFF74CFC0028686014BF00203A
:102920000E20DEE7B92800008C8203002DE9F0417B
:10293000476884B0002F44D0037B15460C460646FA
:10294000002B42D13560EFF3058585B94FF00208C1
:102950002246CDF80080384604212B46FFF77CFC48
:102960000128044638D0042004B0BDE8F08104AD4D
:102970004FF0000845F8048D2246CDF800802B4624
:1029800038460921FFF768FC0128ECD1FFF740F831
:10299000CDF8008002462B4638460621FFF75CFC46
:1029A0000128E0D1039B43B1124B4FF080525A6093
:1029B00040BFBFF34F8FBFF36F8F012333730020EE
:1029C000D2E7082004B0BDE8F0813846FFF7D4FD17
:1029D0000028B7D00020C7E7FFF714F8CDF8008033
:1029E0000246214638462B46FFF736FC0128BAD16D
:1029F000E3E700BF00ED00E0416859B310B50446BD
:102A000084B0EFF305825AB90223084600930321EC
:102A10001346FFF721FC012818D0042004B010BD94
:102A200004AB002243F8042D084600920821FFF76A
:102A300013FC0128F1D1039B43B1074B4FF08052A7
:102A40005A6040BFBFF34F8FBFF36F8F00202073DA
:102A500004B010BD0820704700ED00E072B6024AD5
:102A6000136801331360704740430020034A136822
:102A7000013B136003B962B6704700BF40430020BA
:102A800010B50C4C23780BB1852010BD0A4A636049
:102A9000E3601068A36010F00100236102D10721F8
:102AA00000F0DAF84FF080420123C2F818352370A5
:102AB000002010BD4443002000E100E030B51B4D74
:102AC000AB78044683B003F0FF0073B114B16368C0
:102AD000012098470020FFF7C1FFEB680020013379
:102AE000EB60FFF7C3FF03B030BDFFF7B7FF64B182
:102AF0002A6942B1944208D0134601E09C4204D0B6
:102B00001B68002BFAD122602C61EB68002BE4D10A
:102B1000074A08491360136801934FF0804202206E
:102B20000123019CC2F804030B60D6E74443002054
:102B300004010040080000404FF08043D3F818041F
:102B4000C0F30040704700BF30B51A4D6B780446A3
:102B500083B003F0FF0073B114B16368002098479D
:102B60000020FFF77BFF6B68002001336B60FFF7ED
:102B70007DFF03B030BDFFF771FF64B1AA6842B1B9
:102B8000944208D0134601E09C4204D01B68002BFD
:102B9000FAD12260AC606B68002BE4D1064A136066
:102BA000136801934FF0804301220199C3F8042375
:102BB0001A60D8E744430020000100404FF08043F2
:102BC000D3F80C0400F00110A0F10110B0FA80F06D
:102BD0004009704710B51D4B1A6882B0F2B91C4B02
:102BE0001A680AB902B010BD00221A601B6801936E
:102BF0004FF080430222174C0199C3F80823236940
:102C00000122A270002BEDD01A6822615B680120BE
:102C100098472369002BF7D102B010BD00221A603B
:102C20001B6800934FF0804301220A4C0099C3F8BF
:102C30000823A3686270002BD1D01A68A2605B6879
:102C400000209847A368002BF7D1C8E70001004097
:102C50000401004044430020002810B418DB00F1B8
:102C6000604303F561434901C9B283F80013C3B25D
:102C70004009800000F1604000F5614003F01F0250
:102C800001239340C0F8803103605DF8044B704726
:102C9000C3B2044A03F00F0449012244C9B21176B9
:102CA000E6E700BFFCEC00E030B51F4C94F8645040
:102CB00083B015B1082003B030BD4FF0FF33FF22C1
:102CC0000620072123636363A363E36323646364D0
:102CD000A364E36423656365A365E36523606360C0
:102CE000A360E36023616361A361E361236284F80D
:102CF00060306362A36284F86230E36284F8633018
:102D000084F86120FFF7A8FF084B094A1D601B6883
:102D1000019301984FF000430121284684F8641084
:102D2000C2F8043303B030BD584300207C6100403A
:102D300000600040034B93F86400003018BF01208E
:102D4000704700BF58430020F0B56A4C251895F92C
:102D50003030002B01DB0820F0BD91F803E09446F1
:102D6000BEF1000F56D02368013300F0BB80082667
:102D700000256B1C5F4F54F82320013251D0AB1C4F
:102D80009E4245D957F8232001324AD0EB1C9E427F
:102D90003ED957F82320013243D02B1D9E4237D90C
:102DA00057F8232001323CD06B1D9E4230D957F892
:102DB0002370013735D0AB1D9E4229D954F823200A
:102DC0004C4F01322DD0EB1D9E4221D957F82320C4
:102DD000013226D005F108039E4219D957F8232065
:102DE00001321ED005F109039E4211D957F8232064
:102DF000013216D005F10A039E4209D957F8237013
:102E000001370ED00B35AE4202D9E36A013307D049
:102E10000420F0BD236A01335CD00C260825A8E706
:102E20000B232618DDB244F823C0324686F8305012
:102E3000BEF1000F02D1234483F858008B78DBB930
:102E40001F284A7887BF2C4E00F01F0303464FF01F
:102E5000A04603F5E073920046F82320CB78E3B94F
:102E60006AB2083A1444097894F8602042EA811260
:102E700084F860201846F0BD1F2887BF1E4B00F065
:102E80001F0202464FF0A04303EB8203D3F8002752
:102E900022F00202C3F80027E0E76BB29B0003F1C7
:102EA000804303F5C0430A78D3F8101521F44F315D
:102EB00021F44071C3F810151204000202F44031ED
:102EC000D3F8104500F47C520A432243C3F810257E
:102ED0000020F0BD082685F830603346C4F820C0D5
:102EE0003546A8E7002385F83030C4F800C01D46F9
:102EF000A4E700BF5843002000030050F0B43A4D4F
:102F00002E1882B096F8302053B2072B20DD2B44C8
:102F100093F858309B09032B44D0012B0CBF4FF47E
:102F200000324FF440321F2849D900F01F002F4BC8
:102F300003EB8000D0F8003723F44033C0F80037AB
:102F4000D0F800371A43C0F8002702B0F0BC704731
:102F5000072AFAD8980000F1804000F5C04003F13C
:102F600040029200D0F8104592B202F18042002750
:102F700044F0010402F5C042C0F8104501970198E1
:102F800017600029E1D096F9302055F82220002A58
:102F9000DBD00122164902FA03F3C1F8043302B070
:102FA000F0BC70471F280DD9104BD3F8103500F036
:102FB0001F00C340DB0713D54FF44032B7E74FF093
:102FC000A043B5E74FF0A0421346D2F81025C24007
:102FD00012F0010F0CBF4FF400324FF44032A7E75C
:102FE0004FF40032A3E700BF584300200003005015
:102FF000006000401F288ABF054B4FF0A04300F03F
:103000001F00D3F8103523FA00F000F001007047DC
:10301000000300502DE9F04F89B00025B24B029516
:1030200003951A68012A00F05081B04B1A68012AF2
:1030300000F03D81AE4B1A68012A00F02A81AD4BA9
:103040001A68012A00F01781AB4B1A68012A00F0B8
:103050000481AA4B1A68012A00F0F180A84B1A6873
:10306000012A00F0DE80A74B1A68012A00F0CB800D
:10307000A54B1A68012A00F0B58015F0FF0F1AD091
:10308000A24F01260024A30003F180432E4203F542
:10309000C0434FEA46060BD0D3F8100557F824205A
:1030A000D3F81015C0F30520C1F3014102B19047D8
:1030B0000134082CE7D1002D02DB09B0BDE8F08F08
:1030C000934F00224FF0FF33A7F16309049205925A
:1030D000069307938F4C4FF0000A4FF0010814F845
:1030E000013FFF2B30D0DBB223F0C00008AAC60896
:1030F000951903F0070215F8081C08FA02F21142AC
:1031000022D009EB000E99099EF930E059F82EC043
:10311000BCF1000F56D0032956D01F288ABF03F0F8
:103120001F060646DFF8F0E115F818BC98BF4FF00F
:10313000A04E06F5E0761BEA020F5EF82650C5F3B6
:1031400001451AD1032D48D0BC42C8D1BAF1000FB5
:10315000B3D04FF0A0430299D3F810356E4A99428C
:10316000D2F8102502D103999142A6D0049805996E
:103170000293039206900791ACE7022DE4D1032954
:1031800004D0BCF1000FDFD0E047DDE74FF4403260
:103190001F288BBF604D4FF0A04503F01F0303466F
:1031A00005EB83030AF1010AD3F8005725F44035F3
:1031B000C3F80057D3F800572A435FFA8AFAC3F8D6
:1031C0000027DEE70329BFD10DF1100B1BF806E045
:1031D0004EEA020E0BF806E09FE70329D1D14FF427
:1031E0000032D5E700221A601B6801934FF0A0421D
:1031F000019BD2F81025484B0292D3F81035039367
:1032000045F0004539E7454AD2F8042312067FF518
:103210002FAF00221A601B680093009B45F08005C9
:1032200026E73E4AD2F8042351067FF51CAF002260
:103230001A601B680093009B45F0400513E7374A6E
:10324000D2F8042390067FF509AF00221A601B68AC
:103250000093009B45F0200500E7304AD2F8042394
:10326000D4067FF5F6AE00221A601B680093009B1F
:1032700045F01005EDE6294AD2F8042316077FF53C
:10328000E3AE00221A601B680093009B45F008051E
:10329000DAE6224AD2F8042357077FF5D0AE00229F
:1032A0001A601B680093009B45F00405C7E61B4AA3
:1032B000D2F8042392077FF5BDAE00221A601B6886
:1032C0000093009B45F00205B4E61449D1F80413BD
:1032D00011F0010105D01D601B680093009B15468D
:1032E000A3E60D46A1E600BF006100400461004076
:1032F000086100400C610040106100401461004012
:10330000186100401C6100407C610040584300206F
:10331000BB430020B7430020000300500060004082
:103320000220FDF7C5BA00BF2DE9F0470D4606465D
:10333000FDF7F6FA032804461DD8012D1FD00ED341
:10334000022D1AD11C4B00EB40041C44657895B14A
:103350001A4B1B687BB12846BDE8F0471847184850
:10336000FFF74AFB1449174A04EB44030B44155D6D
:103370009B789D42EBD0BDE8F087BDE8F087DFF891
:10338000388047003B1808EB030218F803505378C5
:103390002BB9274447440B4BBA781A55D7E7DFF8C7
:1033A000289007484A464FF48061FFF7BFFA00288B
:1033B000EFD189F80060ECE734440020EC430020B2
:1033C000F0430020E8430020E543002010B50078DA
:1033D000FDF7A6FA03280BD8064B00EB4000184473
:1033E000407828B1044B1B6813B1BDE81040184762
:1033F00010BD00BF34440020EC430020AD4B1B68DF
:10340000DB0700D4704770B5AB4EAC4D33782C78E9
:10341000FBB9172C1CD8DFE814F0E9000C010C01F3
:1034200062007500820094005C0039002C003900B5
:103430002C00A000A500A500A500A500A500C600C1
:10344000D600F900450018001800FDF71BFA2C7093
:1034500070BD9B4B1B7800203070002B00F0FD806E
:10346000FDF7E8F90120FDF7E5F90320FDF7E2F9A2
:10347000CFE7012318463370FDF71AFA91484FF44D
:1034800000710022BDE87040FFF750BA01231846D2
:103490003370FDF70DFA8B4866210022BDE87040BD
:1034A000FFF744BA864B1B78002B00F0F480002015
:1034B000FDF7C0F90120FDF7BDF90320FDF7BAF9CA
:1034C0000020FDF7A3F90120FDF7A0F915232B70CB
:1034D00070BD0020FDF79AF907232B7070BD002006
:1034E000FDF77EF9002800F0CA800020FDF7A2F960
:1034F00040F2333103232B7072480022BDE8704044
:10350000FFF714BA0020FDF76BF9002800F0BB802C
:103510000020FDF78FF94FF480510423EBE70020E2
:10352000FDF75EF9002800F0B3800020FDF782F976
:1035300005232B706348CD210022BDE87040FFF7C2
:10354000F5B90020FDF7B4F906232B705D4866211C
:103550000022BDE87040FFF7E9B9FDF793F90C23AD
:103560002B7070BD5848FFF747FAD4F1110402469A
:1035700076D0002874D1012C0ED04FF4483303FBD1
:1035800004F45249504804F5FA7381FB0341DB17F8
:10359000C3EBA111FFF7CAF90220FDF737F9484B39
:1035A00001221A7070BD464B1B78002B76D000208C
:1035B000FDF740F90120FDF73DF90320FDF73AF949
:1035C00012232B7070BD3E4B1B78002B6CD000205B
:1035D000FDF730F90120FDF72DF90320FDF72AF959
:1035E0000020FDF713F913232B7070BD344B1B78AB
:1035F000002B56D00020FDF71DF90120FDF71AF928
:103600000320FDF717F900232B7070BD2C4B1B789E
:10361000002B4CD00020FDF70DF90120FDF70AF931
:103620000320FDF707F90120FDF7F0F814232B70B4
:1036300070BD0020FDF7D4F8C8B10020FDF7FAF8FE
:10364000022C40F2337118BF4FF480512C701D488A
:103650000022BDE87040FFF769B9FDF7FDF8D8E634
:103660000220FDF7E7F8164B00221A7070BDFDF737
:10367000CDF8022C0CBFCD214FF4CD71E6E7FDF75C
:10368000C5F8CD2136E7FDF7C1F84FF4CD7144E719
:10369000FDF7BCF84CE7FDF7DFF811E7FDF7DCF8C4
:1036A0008EE7FDF7D9F8AEE7FDF7D6F898E7FDF716
:1036B000D3F8B8E7E0430020E643002010440020A0
:1036C000E4430020C043002014440020D34D621086
:1036D00038B5BF4B1A6812F0010202D114462046D9
:1036E00038BDBC4C23780546E3B9172D00F26D8137
:1036F000DFE815F002012901290168007C00900033
:10370000A3005A003500280035002800B000B7009B
:10371000B700B700B700B700DB00ED0014014100AF
:1037200062006200AC4B1B7800202070002B00F080
:103730001F81FDF77FF80120FDF77CF80320FDF7DE
:1037400079F8D2E7012318462370FDF7B1F8A348B2
:103750004FF400710022BDE83840FFF7E7B80123BD
:1037600018462370FDF7A4F89C4866210022BDE8A6
:103770003840FFF7DBB8984B1B78002B00F0168120
:103780000020FDF757F80120FDF754F80320FDF75E
:1037900051F80020FDF73AF80120FDF737F8904B7B
:1037A00015221A7000249AE70020FDF72FF88C4BA1
:1037B00007221A70002492E7FDF764F8884B002472
:1037C0001D708CE70020FDF70BF8002800F0DA8070
:1037D0000020FDF72FF840F23331814B7F4803245E
:1037E0001C700022BDE83840FFF7A0B80020FCF7AD
:1037F000F7FF002800F0D2800020FDF71BF84FF4FF
:103800008051774B754804241C700022BDE8384075
:10381000FFF78CB80020FCF7E3FF002800F0C3801E
:103820000020FDF707F86E4B6C4805241C70CD2175
:103830000022BDE83840FFF779B80020FDF738F8DE
:10384000674B664806241C7066210022BDE838409C
:10385000FFF76CB8FDF716F8614B0C221A700024C4
:103860003DE76048FFF7C8F8D5F11105044600F0C0
:10387000828000287FD1012D10D04FF4483303FB04
:1038800005F35949574803F5FA7381FB0321DB1708
:103890002246C3EBA111FFF749F804460220FCF7CA
:1038A000B5FF4D4B0121197019E74B4B1B78002BCD
:1038B0007FD00020FCF7BEFF0120FCF7BBFF0320F8
:1038C000FCF7B8FF464B12221A70002407E7424B60
:1038D0001B78002B73D00020FCF7ACFF0120FCF715
:1038E000A9FF0320FCF7A6FF0020FCF78FFF3C4B4D
:1038F00013221A700024F2E6374B1B78002B5BD0A2
:103900000020FCF797FF0120FCF794FF0320FCF751
:1039100091FF334B00221A701446E0E62E4B1B78C1
:10392000002B4FD00020FCF785FF0120FCF782FF21
:103930000320FCF77FFF0120FCF768FF284B1422CF
:103940001A700024CBE60020FCF74AFFF0B10020FB
:10395000FCF770FF022D40F2337118BF4FF4805115
:103960001F4B1E481D700022BDE83840FEF7DEBF29
:10397000FCF772FFB9E60220FCF75CFF164B002152
:103980001970ACE6FCF742FFCD2126E7FCF73EFFBD
:10399000022D0CBFCD214FF4CD71E1E7FCF736FFCE
:1039A0004FF4CD712DE7FCF731FF3CE7FCF754FFF6
:1039B000EFE6FCF751FF85E7FCF74EFFA9E7FCF7C0
:1039C0004BFF91E7FCF748FFB5E7002487E600BF0F
:1039D000E0430020E6430020E4430020C0430020F1
:1039E0001044002014440020D34D6210F0B5214A49
:1039F000214B1060044610F0020083B0196014D00F
:103A00001E4B1F484FF00E0E0F27102611250421C4
:103A1000332283F800E0DF709E715D72FEF7AEFE28
:103A2000A0B1E3071DD403B0F0BDE20719D41548D7
:103A3000154A0021FEF74EFF0028F4D11348144A1E
:103A4000012103B0BDE8F040FEF744BFFEF7F0FEF1
:103A50000028E6D101460F4A0F48FEF73BFFE10779
:103A600003D50190FCF73EFF01980028DFD003B09A
:103A7000F0BD00BFE0430020EC43002034440020B0
:103A80009882030094820300FD330000B882030093
:103A900021330000CD33000090820300420700D4A0
:103AA000704708B5084605F09BFF88B1831E022BBE
:103AB0000A4A06D9062313701846BDE80840FFF7E6
:103AC00007BE072313701846BDE80840FFF700BE85
:103AD000024A1070BDE80840FFF7FABD4E440020CE
:103AE00008B51B4B1B78032B25D8DFE803F01F110B
:103AF00007020120BDE80840FCF788BE0120FCF762
:103B0000D7FE144866210022BDE80840FEF70EBF2C
:103B10000120FCF765FE78B90120FCF777FECD2186
:103B20000C480022BDE80840FEF700BF0120BDE8B8
:103B30000840FCF77FBE08BD0120FCF77BFE40F289
:103B4000333104480022BDE80840FEF7EFBE00BF55
:103B50004D4400207044002008B51B78802B00D015
:103B600008BD0D4B072201201A70FCF739FE60B129
:103B70000020FCF75FFE0120FCF75CFE0748CD212A
:103B80000022BDE80840FEF7D1BEFCF73FFE012051
:103B9000FCF73CFEF2E700BF4C44002050440020FC
:103BA00008B52A4A1378013BDBB213707BB10120C0
:103BB000FCF716FE98B9FCF729FE0120FCF726FE5B
:103BC0002348CD210022BDE80840FEF7AFBE214BBF
:103BD0001B78032B0DD8DFE803F0121B2B09002004
:103BE000FCF728FE0120FCF725FEE9E70120FCF7A1
:103BF0000DFE194B1878BDE80840FFF769BD01209C
:103C0000FCF718FE144B1878BDE80840FFF760BDBC
:103C10000120FCF7E5FDA0B10120FCF70BFE40F20E
:103C200033310E480022FEF781FE0028E1D008BDA6
:103C30000120FCF73DFE662100220848FEF776FED3
:103C4000F3E70120FCF7E2FDCD21EAE74C44002038
:103C5000504400204D4400204E4400207044002079
:103C6000F8B51A4E1A4B1B4F002421460C2205466C
:103C700030461C703C70FCF765FB2146164B17481C
:103C8000174A3360FEF726FE044660B12846154900
:103C90002A4605F0B3FA98B928460C4905F042FACD
:103CA00040B92046F8BD01460F4A1048FEF712FE03
:103CB0000446EBE70E480F4A0F4BE62132F036FF81
:103CC0000B480C4A0D4BE52132F030FF40440020F8
:103CD0004D4400204E440020593B0000BC820300AC
:103CE000E13A00009D3A0000A13B0000C0820300C1
:103CF000C4820300B0830300688303000C830300C5
:103D000008B50020FDF7C4FCFBE700BF10B54FF07D
:103D1000A044D4F80435DA4302F4803203F480334B
:103D2000C4F808254FF4EC70C4F80C35FDF77EFF9D
:103D3000EFE700BF10B54FF0A044D4F80435DA43E4
:103D400002F4004203F40043C4F8082540F2AB102B
:103D5000C4F80C35FDF76AFFEFE700BF002008B597
:103D6000014620F038FD05F037FA002800F0C78042
:103D7000054600F049FE05F08FFE6B490246032020
:103D8000FCF70EFD284605F0EFFD684902460320CA
:103D9000FCF706FD284666492A4605F02FFA00285A
:103DA00040F0A680284605F058F970B928460B2146
:103DB00005F0CDFA002840F0B08028464AF6CD3113
:103DC00005F010FB002840F0A1802846012105F0F5
:103DD0003FFA002840F085802846012105F06FFE5B
:103DE000002877D1534C284641F233612560656342
:103DF000656205F080F8002865D1214651F82C0B4A
:103E000005F083F8002857D1214651F81C0B05F026
:103E10007CF8002849D1FEF75BFD08B1FEF71EFDD6
:103E2000454A46480021FEF755FD01214448454AD0
:103E3000FEF750FD03204449FFF7D8FD08B1FEF717
:103E40000DFD2068FFF70CFF08B1FEF707FD00230A
:103E50004FF4F0304FF0A041032207E040FA03F5A1
:103E6000ED0744BF03F5E07541F825200133202B11
:103E7000F4D14FF0A04300214FF4F032C3F80825ED
:103E80003248C3F80C150A466621FEF74FFD20683C
:103E900005F0B8FC206820F0B1FC206805F0B7FC04
:103EA0000028F4D1FDF7F4FBF1E72948294A2A4B11
:103EB0004FF4E27132F03AFE2548264A274B40F291
:103EC000C31132F033FE2248224A254B4FF4E171F0
:103ED00032F02CFE1E48234A234B4FF4DC7132F0A3
:103EE00025FE1B481F4A214B40F2B71132F01EFE3F
:103EF00017481C4A1E4B40F2AF1132F017FE14480F
:103F0000184A1C4B4FF4D47132F010FE1048154A79
:103F1000194B4FF4DA7132F009FE0D48114A174B74
:103F200040F2B31132F002FEF0830300108403006C
:103F3000C141000000090020B53F0000D08303000C
:103F4000C0830300813F000035410000B0440020E1
:103F5000D4830300C4830300B0850300608503009D
:103F600018850300A0860300E0840300AC840300EE
:103F70000C830300E4830300708403003084030097
:103F80000B4B1B7D4FF0A04233B94FF40041C2F8F8
:103F90000815C2F80C357047D2F80435D94301F43E
:103FA000004103F40043C2F80815C2F80C3570470D
:103FB0000009002070B5144C144800232375A36138
:103FC000FEF71AFD1248FEF717FD94F83C50E06822
:103FD0009DB94FF0A046FDF75BFB4FF4004320690D
:103FE000C6F80835C6F80C55FDF752FB4FF4803380
:103FF000C6F80835C6F80C5570BDFDF7DDFB206925
:10400000BDE87040FDF7D8BB0009002090440020B7
:10401000B04400202DE9F043434C227DB1B012B9E9
:1040200031B0BDE8F083064608461D460F4604F051
:1040300044FF10288046F3D1384604F042FF01289F
:104040008146EDD10FCD0DF1040EAEE80F000FCD7E
:10405000AEE80F0095E807008EE807000021424611
:1040600001A8FCF76FF9414645220CA88DF8039092
:1040700004F004FF384604F02EFF0546384604F0ED
:1040800026FF294602460CA804F0FAFE0CA804F00C
:104090000FFF30460CA904F020FF05460028BFD0D2
:1040A0004A460DF1030105F05BFB18B1284605F007
:1040B0004FFBB5E7304605F052FC42460146284624
:1040C00005F04EFB0028F1D1304601AA294604F044
:1040D00026FF03460028E9D114482375A361FEF7A3
:1040E0008BFC1348FEF788FC94F83C50A5B94FF0C0
:1040F000A046E068FDF7CCFA4FF400432069C6F80B
:104100000835C6F80C55FDF7C3FA4FF48033C6F8EE
:104110000835C6F80C5583E7E068FDF74DFB2069CC
:10412000FDF74AFB7CE700BF000900209044002017
:10413000B0440020112835D1F8B51E4C0123237559
:10414000276820F04DFA00F59C530833E068A3611E
:10415000FDF76EFAC31E18BF01234FF0A045E068BB
:1041600084F83C300026FDF793FA4FF400432069B1
:10417000C5F80835C5F80C65FDF78AFA4FF48033A9
:10418000C5F808353A460C48C5F80C654FF4A051FF
:10419000FEF7CCFB38B9094866210022FEF7C6FBC2
:1041A00020B9F8BD7047FEF759FBF4E7BDE8F840C9
:1041B000FEF754BB0009002090440020B0440020CA
:1041C00043072DE9F04104460D460AD4284605F080
:1041D00007FC224603461A490320BDE8F041FCF7DC
:1041E000EFBA084605F0FCFB02380228EED9154E5E
:1041F000154800233375B361FEF7FEFB1348FEF745
:10420000FBFB96F83C70F0689FB94FF0A048FDF7B3
:104210003FFA4FF400433069C8F80835C8F80C7508
:10422000FDF736FA4FF48033C8F80835C8F80C7536
:10423000CCE7FDF7C1FA3069FDF7BEFAC6E700BF6B
:10424000088603000009002090440020B0440020AC
:104250002DE9F0430746A7B008460C461646984697
:1042600004F02BFE38B1204604F027FE102802D0BF
:1042700027B0BDE8F083204604F023FE032805465E
:10428000F6D1304605F06AFA0DF107020146012326
:10429000304605F067FA012803D028464149FCF76B
:1042A00071FA9DF80730012B67D04CD3022B1BD13C
:1042B0003D4EF068FDF7BCF9032866D04FF0A045ED
:1042C000F068FDF7E5F94FF000094FF4004330695D
:1042D000C5F80835C5F80C95FDF7DAF94FF48033C9
:1042E000C5F80835C5F80C95204604F0E6FD002811
:1042F000BED14422202102A804F0C0FD204604F0D3
:10430000E2FD014602A804F0D5FD204604F0E3FDDD
:104310000546204604F0DBFD2946024602A804F0CB
:10432000AFFD384602A904F0D8FD044600289FD00E
:1043300038464246214604F0F2FD002898D0204637
:1043400005F006FA94E7DFF860904FF0A045D9F841
:104350000C00FDF79DF900264FF40043D9F810003A
:10436000C5F80835C5F80C65FDF792F94FF48033B0
:10437000C5F80835C5F80C65B6E70B4DE868FDF7DC
:104380001BFA2869FDF718FAAEE73069FDF750F916
:10439000032893D1F068FDF70FFA3069FDF70CFAA6
:1043A000A2E700BF448603000009002010B5054CB9
:1043B000606808B1FDF700FAA068BDE81040FDF79D
:1043C000FBB900BF0009002000B585B0FEF758FB1F
:1043D000002850D10020FCF7C3F9002848D102235F
:1043E000264A00930023019202930393244825490F
:1043F0004FF40062FDF726F8012802D00420FEF7F2
:104400002DFA0123204A0093002301920293039383
:104410001E481F494FF48072FDF714F8012802D09E
:104420000420FEF71BFA01231A4A0093002301928D
:1044300002930393184819493C22FDF703F8012819
:1044400002D00420FEF70AFA0123154A0093002344
:10445000019202930393134813493C22FCF7F2FFA5
:10446000012802D00420FEF7F9F9FDF7F1F9FEE783
:10447000FEF7F4F9B3E7FEF7F1F9ABE70409002022
:104480005D3D00007086030008090020013D00002A
:10449000748603000C090020353D00007886030077
:1044A000100900200D3D0000808603002DE9F84F23
:1044B00043001F18DFF880B1FF000BEB07048846AC
:1044C000E16A0129164644D034D302293CD1013097
:1044D00000EB4000656A0BEBC0094FF0000A1DE0DD
:1044E000126A641BB4422346A2EB050428BF33467C
:1044F0009C42D9F8040028BF1C4622462844414665
:1045000032F052FB0BEB070325441A6A954208BFB1
:104510000025361BA244A0445D6217D00BEB0702B6
:10452000936AAB4203F1FF34DAD8126A1344013BB9
:104530005C1BD7E7A16A626A91429CBF246A091991
:1045400001398A1A964238D94FF0000A5046BDE820
:10455000F88FA16A656AA94229D90139226AC5EB97
:10456000010A03440BEBC30B0BF1200BDBF80450E7
:10457000314BB24528BFB246561B0130B24500EB65
:1045800040003FD303EBC0044146606832462844F4
:10459000C6EB0A0532F008FB606808EB06012A4604
:1045A00032F002FBCBF804505046BDE8F88F226A87
:1045B0008C18013CC5EB040AD3E703440BEBC30B97
:1045C0000BF12007DBF82040D7F804901A4BC9EB19
:1045D00004040130A64200EB40001FD303EBC005EA
:1045E0004146686822464844C4EB060932F0DCFACA
:1045F000686808EB04014A4632F0D6FAB246C7F8BA
:104600000490A3E703EBC003414658685246284490
:10461000554432F0C9FACBF8045097E703EBC003D6
:10462000414658683246484432F0BEFA06EB090368
:104630007B60B2468AE700BFF40101202DE9F04F0C
:10464000344C94F800E083B00546884617461E4671
:10465000BEF1000F2ED02369DFF8B8A0AB4256D9C7
:104660004FF000094846CDF80490FEF7F7F96DB910
:1046700029460D4404EBC5040C9BE3620020019B1A
:10468000FEF7F4F9002003B0BDE8F08F6B1C690061
:1046900003EB4303DB004A190AEBC2020AEB030EE9
:1046A000C2F828904AF80380CEF804701662C2F867
:1046B0002490DEE7184BDFF86CB0DFF86C90C4F89C
:1046C00028E04FF0100C4FF4007A0222C4F824E0E6
:1046D000A361C4F858E0A3641049C4F82CE0C4F8FE
:1046E0005CE0C4F854E0C4F850C0E01DC4F81CB04D
:1046F000C4F820A0C4F84C902261626132F030FE10
:104700002046074932F02CFE2023A371A3E74FF087
:10471000FF30B8E7F4010120AC860300B88603003F
:10472000BC860300E0440020D0440020F8B5134CC0
:1047300023780BBB124ADFF858C0124FA3624FF424
:10474000007E10266362E362A365E365636502256C
:104750000D49A261A264C4F81CC0C4F820E0E01DA9
:10476000E76426652561656132F0FAFD2046074958
:1047700032F0F6FD2023A371F8BD00BFF401012043
:10478000AC860300D0440020B8860300BC8603003A
:10479000E04400200649074A074B9B1A03DD043B0F
:1047A000C858D050FBDC00F013F8FBF757FD0000B1
:1047B00020FE030098080020A0090020FEE7FEE785
:1047C000FEE7FEE7FEE7FEE7FEE7FEE7FEE7FEE7C1
:1047D00070B45E4B1B68082B19D05D4AD2F8883044
:1047E00043F47003C2F88830BFF34F8FBFF36F8F6D
:1047F0004FF01023D3F80022002A75DBD3F80432DF
:10480000002B71DB534B544A1A6070BC7047534BFA
:1048100019680029E1D14FF080404FF08052C0F874
:104820000C114F4BC0F81011C0F83815D2F8041411
:10483000C3F82015D2F80814C3F82415D2F80C14C4
:10484000C3F82815D2F81014C3F82C15D2F8141494
:10485000C3F83015D2F81814C3F83415D2F81C1464
:10486000C3F84015D2F82014C3F84415D2F8241424
:10487000C3F84815D2F82814C3F84C15D2F82C14F4
:10488000C3F85015D2F83014C3F85415D2F83414C4
:10489000C3F86015D2F83814C3F86415D2F83C1484
:1048A000C3F86815D2F84014C3F86C15D2F8446404
:1048B0002C4C2D49C3F870652C4D2560FB23C1F8A5
:1048C0001835D0F8E43ED2F8581204F50F3423F02E
:1048D0000F0204F56D7401F00F0313434FF40072DF
:1048E000C0F8E43E226078E7214B0122C3F804259A
:1048F000D3F80024002AFBD04FF0102312221C49C9
:10490000C3F80022D1F80034002BFBD04FF0102365
:1049100012221749C3F80422D1F80024144B002AAC
:10492000FAD00022C3F80425D3F80024002AFBD0D3
:10493000BFF34F8F06490F4BCA6802F4E06213437E
:10494000CB60BFF34F8F00BFFDE700BF3001001009
:1049500000ED00E0400900200090D0033401001079
:1049600000C000408C56004000F000404881030029
:1049700000E001400400FA050EB410B5A3B025AB69
:10498000044653F8042B0193802102A832F07CFEE8
:1049900002A832F002FD236882B21B6802A92046F9
:1049A000984723B0BDE8104003B07047B0F8063612
:1049B000B0F80826C3F580618A42CCBFA0F80A1679
:1049C000A0F80A26B0F80A1621B100F20620184411
:1049D0001FF0A8BF7047000010B50A4B03600446E3
:1049E00000F20C6000F03AFB0023A4F80432A4F8B3
:1049F0000636A4F80836A4F80A361FF081FF2046D0
:104A000010BD00BFD486030010B5044C01462046FB
:104A1000FFF7E2FF024B1C6010BD00BFE84600201C
:104A2000E046002010B5B0F80432C2180446D2782F
:104A30000A2A06D1013B9BB2A0F8043203440022AB
:104A40001A71B4F80432E218D2780D2A06D1013B6B
:104A50009BB2A4F80432234400221A7104F20C60C1
:104A60002346B4F80422211D03F024F90020A4F801
:104A7000040210BD2DE9F8432A4FDFF8AC80DFF8BF
:104A8000AC9004468E180D46B542294648D20B78A4
:104A90000A2B05F1010519D014D8082B2CD0B4F835
:104AA0000432B3F5007FEFDA236801221B68204649
:104AB0009847B4F804325A1CA4F8042215F8012CC3
:104AC00023442BE00D2B01D07F2BE7E72368022244
:104AD0001B68394620469847B4F804322BB123446A
:104AE00000221A712046FFF79DFF236802221B68EF
:104AF000414620469847C7E7B4F80432002BC3D09C
:104B0000236803221B68494620469847B4F80432BC
:104B1000013B9BB2A4F80432002223441A71B3E78C
:104B2000BDE8F883C9860300C7860300C486030076
:104B3000024B0A4601461868FFF79CBFE04600207A
:104B4000B0F80A360BB9FFF731BF704770B5B0F84F
:104B50000846C4F58064A4B29442A8BF14460D462A
:104B60006B1A9C420FDDB0F80826B0F8063615F82F
:104B7000016B1344C3F309030344013283F8066253
:104B8000A0F80826ECE7FFF7DBFF204670BDB0F881
:104B90000A16B0F806260A44C2F30902A0F806264F
:104BA000B0F80826521AA0F808260022A0F80A2613
:104BB000FFF7FCBE014B1868FFF7E9BFE046002095
:104BC000F8B5074E074D07460024786BA2590368D5
:104BD00029465B680C349847B4F53D7FF5D1F8BDA4
:104BE0000C91030060990300D0F82C0104F027BB5E
:104BF000D0F82C0104F021BB70B5456B2B6804463E
:104C0000D0F82C015E6804F0F7FE054902462846FC
:104C1000B047606B03490368BDE870405B681847A4
:104C2000648803008689030070B5446B0B462168D5
:104C300018464D68114622F0B0FB2B460246024949
:104C40002046BDE87040184760990300406B024958
:104C500003685B68184700BF8689030030B50446C7
:104C60008BB001A9D0F82C0104F083FD606BBDF876
:104C7000042003682B495B689847606BBDF80620E9
:104C8000036829495B689847606BBDF80820036892
:104C900026495D68BDF80A30A847606BBDF80C2056
:104CA000036823495D68BDF80E30A847606BBDF806
:104CB000102003681F495D68BDF81230A847606B7B
:104CC000BDF8142003681C495D68BDF81630A8477C
:104CD000606BBDF81820036818495D68BDF81A308C
:104CE000A847606BBDF81C20036815495D68BDF8D6
:104CF0001E30A847606BBDF82020036811495D682D
:104D0000BDF82230A847606BBDF8242003680E4927
:104D10005D68BDF82630A8472046FFF797FF0BB027
:104D200030BD00BFA08E0300AC8E0300B78E030021
:104D3000C98E0300DB8E0300E88E0300F58E0300AE
:104D4000028F03000F8F03001D8F0300F0B5224E6A
:104D50008FB00446002509AAE9B2D4F82C0104F06A
:104D60008EFF002833D19DF83630DB072DD5606BE0
:104D7000BDF8341007680691BDF83210BDF8263032
:104D8000BDF8242049BA89B20591BDF8301049BA5E
:104D900089B20491BDF82E1049BA89B20391BDF8C9
:104DA0002C1049BA89B20291BDF82A1049BA89B2C9
:104DB0000191BDF8281049BA89B200915BBA52BA84
:104DC0007F689BB292B23146B8470135C3E72046AF
:104DD000FFF73CFF0FB0F0BDC48D030038B50446AB
:104DE00004F05AFE636B05491A6855680246184676
:104DF000A8472046BDE83840FFF728BF6099030068
:104E000070B5044659B9406B664903685B689847BA
:104E1000606B65490368BDE870405B68184763498B
:104E2000106832F093FA002840F0BB80D4F82C01CF
:104E300004F093FB0546606B2A6803685C495B6875
:104E40009847606B6A6803685A495B689847606B6B
:104E5000AA68036858495B689847606BEA6803680A
:104E600056495B689847606B2A69036854495B68D8
:104E70009847606B6A69036852495B689847606B42
:104E8000AA69036850495B689847606BEA690368E0
:104E90004E495B689847606B2A6A03684C495B68B7
:104EA0009847606B6A6A03684A495B689847606B19
:104EB000AA6A036848495B689847606BEA6A0368B6
:104EC00046495B689847606B2A6B036844495B6896
:104ED0009847606BAA6B036842495B689847606BB0
:104EE000EA6B036840495B689847606B2A6C03680B
:104EF0003E495B689847606B6A6C03683C495B6835
:104F00009847606BAA6C03683A495B689847606B86
:104F1000EA6C036838495B689847606B2A6D0368E0
:104F200036495B689847606B6A6D036834495B6813
:104F30009847606BAA6D036832495B689847606B5D
:104F4000EA6D036830495B689847606B2A6E0368B6
:104F50002E495B689847606B6A6E03682C495B68F2
:104F60009847606BAA6E03682A495B689847606B34
:104F7000EA6E036828495B689847606B2A6F03688C
:104F800026495B689847606B6A6F036824495B68D1
:104F90009847606BAA6F036822495B68BDE8704060
:104FA000184770BD808A030086890300868A030043
:104FB0008A8A0300988A0300AC8A0300C28A03002D
:104FC000DB8A0300ED8A0300088B0300198B0300C2
:104FD0002E8B0300418B03005B8B03006D8B030062
:104FE0007F8B0300928B0300A08B0300B48B030024
:104FF000CA8B0300DB8B0300F08B0300038C0300E0
:105000001D8C03002F8C03004D8C03006A8C030061
:10501000818C0300988C0300B98C0300D78C0300AB
:10502000EA8C0300FD8C030010B50446D0F82C0177
:1050300004F081FD636B1A68526838B10449184660
:1050400090472046BDE81040FFF700BE0149F6E753
:105050000E8E0300158E030000BA704770B504462B
:1050600000250E462063294645632C223830FBF785
:1050700069F90823A4F864300123A4F866304FF4DA
:105080007A73A36606F501433833E366174B23674B
:1050900004F16C03E36729466467A56784F8EC5064
:1050A000C4F82C61602204F18000FBF74BF9224622
:1050B0000F49304604F0A2F82246D4F82C010D49DD
:1050C00004F0EEFC0C4BC4F8E03004F1E001C4F84D
:1050D000E440D4F82C0104F025F83E22294604F1DE
:1050E000ED00FBF72FF9204670BD00BF25750000CD
:1050F000D97D0000497E0000E17300002DE9F041F8
:10510000074690460C4632F048F93D1800F001067B
:105110000130B8EB500F12D33846214600228542A9
:1051200021D910F8013BA3F14107052F0BD8373BDC
:105130001343DBB29EB10B7000260131EEE74FF056
:10514000FF30BDE8F081A3F16107052F01D8573B7F
:10515000EEE7303BDBB2092BF1D81343EAE71B0142
:10516000DAB20126DBE7081BBDE8F08170B50C461A
:1051700019B9BDE87040FFF769BD456B2B6808465B
:105180005E6805F01FFE22460346B44628460249E3
:10519000BDE87040604700BF5699030070B50546F2
:1051A0000E46A9B9D0F82C0104F0A0FC0446686BA7
:1051B00003685B6844B11149984730460146284668
:1051C000BDE87040FFF7D2BF0D4998472046F5E78C
:1051D00014680C49204632F0B9F828B90121D5F8F5
:1051E0002C0104F09DFCE9E70749204632F0AEF8B7
:1051F00001460028F3D00720E0E700BF0E8E030031
:10520000158E030080A6030070A6030010B50446A7
:1052100003F098FD01462046BDE81040FFF7A6BF09
:1052200010B5436B0446D0F82C0103F073FB014624
:105230002046BDE81040FFF799BF000070B5054655
:1052400071B9D0F82C0104F015F80446686B0368B6
:105250005B681CB10F49984700200CE00E49FAE743
:1052600014680E49204632F071F850B90121D5F882
:105270002C0103F0EDFF01462846BDE87040FFF722
:1052800075BF0749204632F061F801460028E3D196
:10529000EDE700BFE38D0300E88D0300B7C1030015
:1052A000EF8D030037B504466946D0F82C0104F0B1
:1052B0009BFB054608BB606B009A036812495B685C
:1052C0009847606B9DF80420036810495B68984715
:1052D000606B9DF8052003680D495B689847606B1B
:1052E0009DF8062003680B495B689847606B9DF842
:1052F0000720036808495B68984729462046FFF75E
:1053000035FF03B030BD00BF328F0300458F03006F
:105310005C8F0300558F03006F8F0300F0B51346B9
:1053200085B00446D9B9D0F82C01154F04F0AFFC74
:10533000461E00F10F05606B16F8012F0368394611
:105340005B689847B542F6D1606B0E4903685B68AD
:10535000984700212046FFF709FF05B0F0BD102255
:1053600069461868FFF7CAFE102806D16946D4F8C6
:105370002C0104F091FC0146ECE70621EAE700BFAE
:105380002BB20300859903002DE9F3410023044665
:105390008DF80430002933D1D0F82C0104F07CFAC8
:1053A0008DF80400C00704D5606B444903685B684E
:1053B00098479DF80430990704D5606B404903680D
:1053C0005B6898479DF804305A0704D5606B3D49E7
:1053D00003685B6898479DF804301B0704D5606B31
:1053E000394903685B689847606B384903685B68B4
:1053F00098470021204602B0BDE8F041FFF7B6BE55
:1054000016684FF0000EF446F0467746013E194606
:1054100018461D4616F8012F5AB36E2A26D018D802
:10542000642A20D02DB19DF804306CF300038DF870
:10543000043028B19DF804306EF341038DF8043038
:1054400029B19DF8043067F382038DF804300621FA
:10545000D0E7722A04D0732AE4D101208646D9E726
:105460000125AC46D6E701210F46D3E70123984634
:10547000D0E72DB19DF804206CF300028DF80420D4
:1054800028B19DF804206EF341028DF8042029B163
:105490009DF8042067F382028DF804202BB19DF85B
:1054A000043068F3C3038DF804309DF80410D4F879
:1054B0002C0104F019FA01469CE700BFC2A10300C9
:1054C0006CBD030098D60300A5A1030085990300D5
:1054D00010B50446D0F82C0103F0BAFD0146204671
:1054E000BDE81040FFF742BE2DE9F04186B001AFA4
:1054F00004463946D0F82C0104F083FA0646002809
:1055000031D1606B1B490368DFF880805B68984786
:105510003546606B7A5D036841465B6801359847A4
:10552000082DF6D1606B144903685B689847606B7F
:10553000BDF80C20036811495B689847606B9DF8C3
:10554000112003680E495B689847606B9DF8122034
:1055500003680C495B689847606B9DF813200368EB
:1055600009495B68984731462046FFF7FFFD06B0C2
:10557000BDE8F0813989030085990300448903005F
:105580004F890300658903007C8903002BB2030067
:1055900038B5044671B9D0F82C0103F0CBFF20B127
:1055A000D4F82C011FF034FB48BB606B174903682B
:1055B0005B6828E015681649284631F0C7FE80B9B7
:1055C0001449D4F82C01224603F0AFFF0121D4F88E
:1055D0002C0103F0B4FF01462046BDE83840FFF738
:1055E000C5BD28460C4931F0B1FE054660B90146FB
:1055F0000246D4F82C0103F098FF2946E7E7606BD8
:10560000064903685B6898470020E4E7EE8F0300D3
:10561000D58F030059760000DC8F0300E48F030070
:1056200070B505460E46A1B9D0F82C0104F0A4FAD5
:105630000446686B03685B6844B111499847344677
:1056400021462846BDE87040FFF790BD0D499847B8
:10565000F6E716680C49304631F078FE044628B962
:105660000121D5F82C0104F08CFAE9E7074930460E
:1056700031F06CFE044608B90146F2E70624DFE784
:10568000E48F0300EE8F0300D58F0300DC8F03004F
:1056900038B5044600292BD1D0F82C0104F0A0F92C
:1056A000636B042820D8DFE800F0030F13171B00FA
:1056B0001A6825495268184690470020014620463E
:1056C000BDE83840FFF752BD1A6820495268F2E73A
:1056D0001A681F495268EEE71A681E495268EAE7DD
:1056E0001A681D495268E6E71A681C495268E2E7E1
:1056F00015681B49284631F029FE20B9D4F82C0141
:1057000004F063F9DAE71749284631F01FFE20B9A3
:10571000D4F82C0104F05EF9D0E71349284631F0A3
:1057200015FE20B9D4F82C0104F069FAC6E70F4938
:10573000284631F00BFE20B9D4F82C0104F071FAA0
:10574000BCE70620BAE700BF9A880300A5880300DB
:10575000B0880300B8880300C1880300CA8803002A
:10576000DA880300E3880300E9880300F088030077
:10577000002938B5044617DD15680C49284631F074
:10578000E5FD50B90121D4F82C0104F098F9014647
:105790002046BDE83840FFF7E9BC0549284631F00E
:1057A000D5FD01460028EED00620F0E7099403005D
:1057B0007B8A0300F0B50F1E87B00546164628DD2C
:1057C00014681749204631F0C1FDB8B9012F20D027
:1057D000144B0393144B0193022F144B00934FF07F
:1057E00000040CBF0246B26804950294104B716825
:1057F000D5F82C0103F086FD00210BE00D49204671
:1058000031F0A4FD0028F7D1D5F82C0103F082FD7A
:10581000F2E70621284607B0BDE8F040FFF7A6BC36
:1058200009940300A97C000020890300308903004B
:10583000158903007B8A0300F0B5134685B0044642
:10584000D9B9D0F82C01154F04F065F8461E00F1C7
:105850000F05606B16F8012F036839465B6898479F
:10586000B542F6D1606B0E4903685B68984700212A
:105870002046FFF77BFC05B0F0BD10226946186892
:10588000FFF73CFC102806D16946D4F82C0104F03F
:1058900047F80146ECE70621EAE700BF2BB2030018
:1058A00085990300F8B505460C4689B9D0F82C0156
:1058B00004F05AF86E6B0A49336810225F68034699
:1058C0003046B84721462846BDE8F840FFF74EBCB1
:1058D0001168D0F82C0104F04BF80146F3E700BF43
:1058E000CE8F03002DE9F041084E07460D46904645
:1058F0000C46631B984507DD786B14F8012B036891
:1059000031465B689847F4E7BDE8F0812BB20300AD
:105910002DE9F041B1F1000886B0054617462CDCB0
:10592000D0F82C0103F0DBFD6B6B1A68526898B15C
:105930003C493D4E18469047002403AAE1B2D5F8F1
:105940002C0103F0C0FD48B1002421462846FFF792
:105950000DFC06B0BDE8F0813449EAE79DF814304B
:105960004BB103A928460822FFF7BCFF686B036808
:1059700031465B6898470134DFE716682C493046AA
:1059800031F0E4FCB8B9B8F1010F12D0082201A936
:105990007868FFF7B3FB08280BD101A9D5F82C01D3
:1059A00003F07CFD01A9D5F82C0103F077FD002858
:1059B000CAD00624C9E71F49304631F0C7FC044667
:1059C00020B9D5F82C0103F079FDBEE71A4930461D
:1059D00031F0BCFC044628B90146D5F82C0103F08F
:1059E0007AFDB2E71549304631F0B0FC044608B9FB
:1059F0000121F2E71249304631F0A8FC04460028A4
:105A0000A2D1B8F1010FD4D0082201A97868FFF71C
:105A100075FB0828CDD101A9D5F82C0103F049FD6B
:105A200093E700BFE48F030085990300EE8F030026
:105A3000F48D0300F88D0300DC8F0300D58F030085
:105A4000FE8D030037B505460C46A1B96946D0F86E
:105A50002C0103F0B3FC082269462846FFF742FFF9
:105A6000686B064903685B68984721462846FFF73C
:105A70007DFB03B030BD0621F8E700BF8599030028
:105A800037B505460C46A1B96946D0F82C0103F09C
:105A900097FC082269462846FFF724FF686B0649F1
:105AA00003685B68984721462846FFF75FFB03B011
:105AB00030BD0621F8E700BF859903002DE9F041CC
:105AC000B1F1000886B00546174639DCD0F82C0144
:105AD00003F0E0FC6B6B1A685268A0B14A494B4E68
