:100000000000042061300000893000008B300000C7
:100010008D3000008F3000009130000000000000A3
:10002000000000000000000000000000933000000D
:10003000953000000000000097300000993000006B
:100040004D17000085440200293202009B30000059
:100050009B3000009B3000008D1B00009B30000097
:100060009B3000009B3000009B3000009B30000064
:100070009B300000793702009B3000009B3000006D
:100080009B300000590C00009B3000009B300000AA
:10009000F90C00009B3000009B3000009B300000FA
:1000A0009B3000009B3000009B3000009B30000024
:1000B0009B3000009B3000000000000000000000AA
:1000C0009B3000009B3000009B3000009B30000004
:1000D000412F02009B3000009B3000009B3000004D
:1000E0009B3000009B3000009B3000009B300000E4
:1000F000000000009B300000000000000000000035
:1001000000000000000000000000000000000000EF
:1001100000000000000000000000000000000000DF
:1001200000000000000000000000000000000000CF
:1001300000000000000000000000000000000000BF
:1001400000000000000000000000000000000000AF
:10015000000000000000000000000000000000009F
:10016000000000000000000000000000000000008F
:10017000000000000000000000000000000000007F
:10018000000000000000000000000000000000006F
:10019000000000000000000000000000000000005F
:1001A000000000000000000000000000000000004F
:1001B000000000000000000000000000000000003F
:1001C000000000000000000000000000000000002F
:1001D000000000000000000000000000000000001F
:1001E000000000000000000000000000000000000F
:1001F00000000000000000000000000000000000FF
:1002000010B5054C237833B9044B13B10448AFF350
:1002100000800123237010BD880900200000000029
:100220006CE60300084B10B51BB108480849AFF352
:1002300000800848036803B910BD074B002BFBD0B2
:10024000BDE81040184700BF000000006CE6030046
:100250008C0900208409002000000000154B002BB1
:1002600008BF134B9D46A3F5803A00218B460F46ED
:100270001348144A121A00F065F80F4B002B00D0F7
:1002800098470E4B002B00D0984700200021040017
:100290000D000D48002802D00C48AFF3008000F09C
:1002A0002BF82000290002F053FC00F011F800BFE9
:1002B0000000080000000420000000000000000012
:1002C000880900201CE3002000000000000000005E
:1002D00008B5074B044613B10021AFF30080054B6E
:1002E0001868836A03B19847204600F033F800BFCE
:1002F00000000000FC6A030070B50E4B0E4CE41ABF
:10030000A41000251E46A54204D056F82530984773
:100310000135F8E736F0E4FB084C094BE41AA41069
:1003200000251E46A54204D056F8253098470135D1
:10033000F8E770BD7C0900207C09002080090020BE
:100340007C09002002440346934202D003F8011BBB
:10035000FAE77047FEE700BF2DE9F04F1546C7B03A
:100360001C46002900F01C81002B00F0EF800A23BE
:1003700001930023194606AE519B539A519F03EBFC
:10038000020B019B013B059320258C4601980CEB49
:10039000000304933133F318029306EB0C03002897
:1003A0005FD05A4202F00302824228BF024606286A
:1003B00000F2EC80019A06F80C50012A03F10101C9
:1003C00000F0E280022A5D7003F1020100F0DC809F
:1003D000032A9D7003F1030100F0D680042ADD702A
:1003E00003F1040100F0D080062A1D7103F105011C
:1003F00040F0D3805D71991D9646019890422ED0B1
:10040000C2EB0009A9F104008008013003900598AF
:10041000C2EB000A0398BAF1020F4FEA800812D922
:10042000624401284FF0203C06EB020A46F802C065
:1004300005D00228CAF804C001D0CAF808C0C845CF
:100440004144C6440BD001980D700EF10102904258
:1004500005D90EF1020E70454D7000D98D70019ACC
:100460001344534A0299D2F80080DDF84891DA1C0F
:10047000481C03F1330C0CE002F8035C02F8025C48
:1004800002F8015C0332624500F8015C00F10100F2
:1004900033D0A345F0D9A74295BFE11B509919F875
:1004A0000110095D02F8015C4FEA211E5FFA8EFA25
:1004B000BEF1090F01F00F0ED4BF0AF1300A0AF1A4
:1004C000370ABEF1090F02F803AC94BF0EF1300EEB
:1004D0000EF1370E08EB010A02F802EC9AF801E07F
:1004E00003321EF0970F08BF2E21624500F8011C51
:1004F00004F1010400F10100CBD1029804990D220E
:100500004FF00A0801F14309027480F8118083F862
:10051000305023464FF0000A4C46994606EB0A013C
:100520002246002002F028FC8244241A10B9B8F1B7
:10053000010801D0002CF1D1CB454C464FF0000C06
:100540003FF624AF204647B0BDE8F08F06AE0B68FB
:10055000184A30464FF4807135F018FB0028F1DB63
:100560000A2307460193284635F077FBC22828BFA7
:10057000C220804629460246F01934F075FF08EB88
:10058000070300241946F7E6964636E7002A7FF46B
:1005900012AF19469646019832E74FF0050E2CE748
:1005A00013B1019106AEE7E60194274606AEDAE7FD
:1005B00078090020006B03002DE9F0419046C6B099
:1005C0001F46C1B106AE0B68564A30464FF48071E3
:1005D00035F0DCFA00280ADB4C9B0546062B00F2BE
:1005E0009F80DFE803F042525D6A798A14000020A0
:1005F00046B0BDE8F0814C9B062B00F28F80DFE80F
:1006000003F033424D5A697A0400002506AE07F123
:100610000C017A683B68D7F808C092C9701900923B
:10062000029103944246CDF804C00497C5F5807149
:1006300035F0ACFA0446002CD9DB2C44B4F5807FAD
:10064000D5D80A27002506AE71192246002002F0EF
:1006500093FB0544241A08B9013F01D0002CF3D1C3
:10066000012046B0BDE8F0810025404635F0F5FA9E
:100670004319FF2B0446DED806AE414670192246C8
:1006800034F0F2FED7E7002506AE701942463B680B
:10069000C5F5807135F07AFA0446CCE7002506AE40
:1006A0007A683B68009270194246C5F5807135F052
:1006B0006DFA0446BFE7002506AE7A68B9683B6864
:1006C0000092019170194246C5F5807135F05EFACD
:1006D0000446B0E7002506AE7A68BC68F9683B6856
:1006E00000920194029170194246C5F5807135F06F
:1006F0004DFA04469FE7002506AE07F108017A6827
:100700003B6892C970190092019102944246039786
:10071000C5F5807135F03AFA04468CE7002490E77D
:1007200000248AE7006B030070B5074C074D23785F
:10073000064613B12B78834204D002F05DFC0123FE
:100740002E702370002070BDA5090020A409002090
:1007500000487047B9050000004870475903000081
:1007600038B50120FFF7E0FF044638B9FFF7F0FF86
:100770000546FFF7F1FF024B5D619861204638BDE9
:10078000A809002010B5054C82B00A460021646912
:1007900000910B46A04702B010BD00BFA809002081
:1007A00030B585B004AB054C43F8042D01250A464D
:1007B000646900950021A04705B030BDA80900205C
:1007C00030B5064C85B00225029203930A4664694F
:1007D0000095002102ABA04705B030BDA80900205C
:1007E000084B1B5C1F2B8ABF074A4FF0A04203F047
:1007F0001F03D2F80405D84000F0010080F001008A
:10080000704700BF086B030000030050074B1B5CE0
:100810001F2B86BF03F01F0305494FF0A0410122A3
:1008200002FA03F3C1F80C35704700BF086B0300F0
:1008300000030050064B1A5C1F2A86BF02F01F02FD
:1008400004494FF0A04101239340C1F80835704797
:10085000086B0300000300504FF0A04310B44FF4A6
:1008600080404FF400544FF400414FF48032C3F8FD
:100870000845C3F80805C3F80815C3F808255DF84E
:10088000044B70474FF0A04310B44FF480404FF436
:1008900000544FF400414FF48032C3F80C45C3F8C4
:1008A0000C05C3F80C15C3F80C255DF8044B704714
:1008B0000A4B195C1F298ABF09484FF0A04001F07C
:1008C0001F01D0F8043501228A4022EA03011340B7
:1008D000C0F80815C0F80C35704700BF086B03005E
:1008E0000003005030B44FF0A04303224FF40055F2
:1008F0004FF480444FF400404FF48031C3F8342764
:10090000C3F83827C3F83C27C3F84027C3F8085575
:10091000C3F80845C3F80805C3F8081530BC70478C
:100920000B2809D00C2809D0182809D0192814BF81
:100930004FF0FF30032070470020704701207047C0
:10094000022070474B4B1978002900F091802DE967
:10095000F04F87B0DFF828C104910024012504E09E
:100960000134049BE4B29C4265D227B2DCF80060FB
:1009700016F83700A0F1200305FA03F93E4BC0F149
:10098000200ED3E9002325FA0EFE49EA0E0905FAE6
:1009900000F808EA020A09EA030B06EBC7015AEA63
:1009A0000B0E0591DCD03449CDF810C022EA0802C4
:1009B00023EA0903C1E9002301F0D8F816F83760EB
:1009C000DDF810C0A6F1200205FA02F201920199A9
:1009D000C6F120035FFA80FA25FA03F3A6F120029C
:1009E00019430AFA02F30393019105FA06F1009103
:1009F000C6F120070399214B2AFA07F739430391DF
:100A00000AFA06F1D3E900230291DDE90001104062
:100A1000194002460B46DDE902018B4208BF8242C3
:100A20004FF0000B0AD0134B1B7804930134049B46
:100A3000E4B29C4299D307B0BDE8F08F059A57689D
:100A400052780023A2F10102B2FA82F25209002F79
:100A5000E9D05B4506BF5245012100213046CDF863
:100A600014C0B847034BDDF814C01B78049377E734
:100A7000704700BFCC090020F8090020F0090020D1
:100A8000C80900202DE9F8430746204800F06CFD16
:100A9000D0B91F4E0123A7F1200103FA01F5C7F1D8
:100AA0002002D6E9000123FA02F2154303FA07F403
:100AB00004EA000205EA0103134307D020EA040414
:100AC00021EA0505C6E90045BDE8F883384601F08E
:100AD0004DF8104FD7E9002398B144EA020845EADF
:100AE0000309D6E9002314431D43C7E90089C6E979
:100AF00000450949054809680022BDE8F84300F0AF
:100B0000DFBC22EA040823EA0509EAE7D00900204D
:100B1000F8090020F0090020C4090020F0B5042ADB
:100B200083B0164602D8072003B0F0BD05460F4635
:100B300000F0BCFE002836D01D4BDFF88CC0DFF87B
:100B40008CE01C481C491D60002200237C1E8CF890
:100B50000070CEF80060C0E90023C1E90023E4B2D0
:100B6000DFB10327002600E01C4623B205EBC302D9
:100B700015F833009378114A8DF8053001A98DF8E6
:100B800004708DF806608DF8076000F099FE631E12
:100B90000028C9D1DBB2002CE6D1094A094800215E
:100BA00000F07CFCC0E700F03BFE0028C4D0BBE7AF
:100BB000C8090020F0090020F8090020850A00007B
:100BC000450900000C6B0300CC090020C40900207B
:100BD00070B5084D2B785BB1074E002433680121B6
:100BE00013F8340000F046FF2B780134A342F5D807
:100BF000002070BDCC090020C809002000B585B0D8
:100C000000230390194644F2010001AAADF8043014
:100C1000029300F003F805B05DF804FB08B501206D
:100C20000949FFF7AFFD03200849FFF7ABFDBFF30C
:100C30004F8F0749074BCA6802F4E0621343CB6049
:100C4000BFF34F8F00BFFDE7106B0300206B030065
:100C500000ED00E00400FA05F8B5204A204B00251D
:100C6000C2F84051C2F84451C2F84851C2F84C5140
:100C7000C2F80051C2F804511B6813B31949D2F8E5
:100C800004250C68141B1A6824F07F44A2422F46E6
:100C900009D8197CDE69A41A154499B91EB13346E6
:100CA0001A68A242F5D9104B10491A780B789A426B
:100CB0000DD00F490F4A41F823504FF48013C2F86A
:100CC0000031F8BD1F745A6998699047E6E7531CD4
:100CD000DBB2022B08BF00230B70EAE700100140D3
:100CE000040A0020000A0020080A0020090A002047
:100CF000180B002000E100E02DE9F04F7D4A7E490D
:100D0000137809787D48994287B0066800F0E88139
:100D10000133DBB2022B08BF002379491370794AF3
:100D20000291084652F82310036874488A19002576
:100D300022F07F420260AE462846A3B11A688A427A
:100D400000F2D681DC68C3F800E0891A1044DA6941
:100D500034B1871927F07F47DD619C605F601D46D5
:100D60001346002BEAD1029A04931360049C0123DA
:100D70000593654BDFF894811B7801935F4BDFF897
:100D800090C1D3F800A0029B1F680023BB462F46EA
:100D90000093C1461E464FF0010E37B37A68B9681A
:100DA0003D46FF69CAEB020323F07F4363453CD80D
:100DB0000B442B606E60AE6085F810E0EE61002C95
:100DC00067D021688B4242D9204603E011689942DE
:100DD00044D21046C2695B1A002AF7D12B60EA613F
:100DE0002346C5611C46002FD8D198F8003098F8EA
:100DF00001209A4200F08E805A1C03EB430308EB5B
:100E0000C30399F802109D68D2B2914289F800207C
:100E10001A7908BF89F80070022A48D0032A3CD00A
:100E2000012A22D023461C46DDE7C2EB0A0222F04B
:100E30007F428A4202D28B1A2B60BBE72E606E6023
:100E4000AE6085F810E0EE611CB321680023CB1A78
:100E500023602B46EC61AB461C46C4E7C91A1160FF
:100E60002B60EA612346C561BCE72A7C0392002A15
:100E7000D8D1DA686A601969A9605869E8601033E6
:100E80009B68AB61019B002B8CD0039B6B601A4667
:100E900088E72B46AB461C46A5E70CB9C2E71C46C3
:100EA000E3692674002BFAD19B461C469BE754B19C
:100EB000A54200F00881234602E0954207D0134680
:100EC000DA69002AF9D123462E741C468BE7AB421F
:100ED00000F0FA80E9692868D9610029F3D0234637
:100EE0000A6802440A60009A2E749C4218BF0122CC
:100EF0000092EAE7080A0020090A0020000A002000
:100F0000040A0020180B00200A0A00200C0A002006
:100F1000FEFF7F00029B9DF80420C3F800B0764BD3
:100F2000C3F800A0754B1A70009B1BB9049BA34229
:100F300000F0D081002C00F03C81714D6E4BD5F853
:100F400004051B686F4ED4F800C03178C21A22F035
:100F50007F420332002952D16B4FDFF8B091DFF8A6
:100F6000B0814FF480314FF4003E0124C5F84413A2
:100F7000C5F80413C7F880E1C7F800E02C602F2102
:100F8000D9F8005000BF00BF00BF00BF00BF00BFC6
:100F900000BF00BF45452FD000BF00BF00BF00BF4E
:100FA00000BF00BF00BF00BF00BF00BF00BF00BF49
:100FB00000BF00BF00BF00BF00BF00BF00BF00BF39
:100FC00000BF00BF00BF00BF00BF00BF00BF00BF29
:100FD00000BF00BF00BF00BF00BF00BF00BF00BF19
:100FE00000BF00BF00BF00BF00BF00BF00BF00BF09
:100FF00000BF00BF00BF00BF0139C3D134706245DC
:101000002CBF9A1803EB0C023D4922F07F43C1F834
:101010004035D1F80425121A1B1A22F07F4223F022
:101020007F4303329A4248D9D1F80435374AC1F890
:101030004035126836492F2300BF00BF00BF00BFF4
:1010400000BF00BF00BF00BF8A422FD000BF00BF5B
:1010500000BF00BF00BF00BF00BF00BF00BF00BF98
:1010600000BF00BF00BF00BF00BF00BF00BF00BF88
:1010700000BF00BF00BF00BF00BF00BF00BF00BF78
:1010800000BF00BF00BF00BF00BF00BF00BF00BF68
:1010900000BF00BF00BF00BF00BF00BF00BF00BF58
:1010A00000BF00BF00BF00BF00BF00BF013BC3D1F6
:1010B000154B4FF40032C3F80021104A002313707F
:1010C00007B0BDE8F08F2246D4F81CB0BBF1000F8A
:1010D00022D0D16910685B4600297FF401AF02E796
:1010E0000C4B02931B680493002505951C4640E6B3
:1010F000521A1A6037E600BF000A00200A0A0020D0
:1011000000100140200B002000E100E02809002031
:101110000024F400040A00207549764BC1F808E069
:1011200075492F20096800BF00BF00BF00BF00BF86
:1011300000BF00BF00BF99422FD000BF00BF00BF5B
:1011400000BF00BF00BF00BF00BF00BF00BF00BFA7
:1011500000BF00BF00BF00BF00BF00BF00BF00BF97
:1011600000BF00BF00BF00BF00BF00BF00BF00BF87
:1011700000BF00BF00BF00BF00BF00BF00BF00BF77
:1011800000BF00BF00BF00BF00BF00BF00BF00BF67
:1011900000BF00BF00BF00BF00BF0138C3D1D1698D
:1011A0001068002900F09B800122DA465B4601921C
:1011B00096E64F4A514B504E4E484FF480314FF413
:1011C00000370125C3F88070C2F848132F23C2F8F6
:1011D0000813556031681E4600BF00BF00BF00BF46
:1011E00000BF00BF00BF00BF81422FD000BF00BFC3
:1011F00000BF00BF00BF00BF00BF00BF00BF00BFF7
:1012000000BF00BF00BF00BF00BF00BF00BF00BFE6
:1012100000BF00BF00BF00BF00BF00BF00BF00BFD6
:1012200000BF00BF00BF00BF00BF00BF00BF00BFC6
:1012300000BF00BF00BF00BF00BF00BF00BF00BFB6
:1012400000BF00BF00BF00BF00BF00BF013EC3D151
:1012500095602B4A146000BF00BF00BF00BF00BFF5
:1012600000BF00BF00BF81422FD000BF00BF00BF42
:1012700000BF00BF00BF00BF00BF00BF00BF00BF76
:1012800000BF00BF00BF00BF00BF00BF00BF00BF66
:1012900000BF00BF00BF00BF00BF00BF00BF00BF56
:1012A00000BF00BF00BF00BF00BF00BF00BF00BF46
:1012B00000BF00BF00BF00BF00BF00BF00BF00BF36
:1012C00000BF00BF00BF00BF00BF013BC3D10D4B3B
:1012D0001C70F2E6059B002B3FF4EFAE2AE60123DB
:1012E0001A4601938A468B460B4600922E74ECE513
:1012F000001001400024F4002809002000E100E073
:10130000000A0020200B00202DE9F041594B5A4AD9
:101310005A4D5B4E4FF480344FF400310120C2F837
:101320008010C3F848432F21C3F8084358602D6844
:101330000C4600BF00BF00BF00BF00BF00BF00BF22
:1013400000BFB5422FD000BF00BF00BF00BF00BF2D
:1013500000BF00BF00BF00BF00BF00BF00BF00BF95
:1013600000BF00BF00BF00BF00BF00BF00BF00BF85
:1013700000BF00BF00BF00BF00BF00BF00BF00BF75
:1013800000BF00BF00BF00BF00BF00BF00BF00BF65
:1013900000BF00BF00BF00BF00BF00BF00BF00BF55
:1013A00000BF00BF00BF013CC3D1364C9860002095
:1013B000206000BF00BF00BF00BF00BF00BF00BF74
:1013C00000BFB5422FD000BF00BF00BF00BF00BFAD
:1013D00000BF00BF00BF00BF00BF00BF00BF00BF15
:1013E00000BF00BF00BF00BF00BF00BF00BF00BF05
:1013F00000BF00BF00BF00BF00BF00BF00BF00BFF5
:1014000000BF00BF00BF00BF00BF00BF00BF00BFE4
:1014100000BF00BF00BF00BF00BF00BF00BF00BFD4
:1014200000BF00BF00BF0139C3D1174D1749DFF816
:101430006080DFF860C0DFF860E028704FF480164D
:10144000E0250B27C8F800008CF800008EF800009B
:10145000087048708F70C2F8806182F8145316606B
:10146000C3F8080582F81153D3F804352360BDE8AA
:10147000F08100BF0010014000E100E028090020D9
:101480000024F400000A0020200B00200C0A002099
:10149000040A0020080A0020090A0020074B9B7854
:1014A0000BB9082070473AB130B10368187C0028A6
:1014B000F7D159745A617047072070470C0A002011
:1014C0002DE9F041254CA37813B90820BDE8F0813F
:1014D0000028FAD0042902D80720BDE8F08143692A
:1014E000002BF2D0437C0546012B4FF000000CBFCF
:1014F0008846804617460E4600F06CF86378A07860
:1015000021785A1CD2B2904208BF002291421ED0CC
:1015100003EB430304EBC30319464FF0010E41F8FC
:10152000085F0F4883F804E0D0F8040548608E6037
:101530000020C3F814809F61627000F053F8094BDB
:101540004FF48012C3F800210020BDE8F081002094
:1015500000F048F80420BDE8F08100BF0C0A00202C
:101560000010014000E100E070B5184CA3780BB901
:10157000082070BD0028FBD04369002BF8D000255F
:1015800005740646284600F025F86278A078217890
:10159000531CDBB2984208BF2B46994211D002EB94
:1015A000420204EBC2020221284696601171637068
:1015B00000F018F8064B4FF48012C3F800212846BB
:1015C00070BD284600F00EF8042070BD0C0A002003
:1015D00000E100E072B6024A1368013313607047FD
:1015E000240B0020034A1368013B136003B962B661
:1015F000704700BF240B002010B50C4C23780BB1B2
:10160000852010BD0A4A6360E3601068A36010F093
:101610000100236102D1072100F0DAF84FF0804287
:101620000123C2F818352370002010BD280B0020BC
:1016300000E100E030B51B4DAB78044683B003F009
:10164000FF0073B114B16368012098470020FFF7D1
:10165000C1FFEB6800200133EB60FFF7C3FF03B06D
:1016600030BDFFF7B7FF64B12A6942B1944208D098
:10167000134601E09C4204D01B68002BFAD1226083
:101680002C61EB68002BE4D1074A0849136013680A
:1016900001934FF0804202200123019CC2F8040311
:1016A0000B60D6E7280B0020040100400800004032
:1016B0004FF08043D3F81804C0F30040704700BFD8
:1016C00030B51A4D6B78044683B003F0FF0073B158
:1016D00014B16368002098470020FFF77BFF6B6818
:1016E000002001336B60FFF77DFF03B030BDFFF7D3
:1016F00071FF64B1AA6842B1944208D0134601E078
:101700009C4204D01B68002BFAD12260AC606B684D
:10171000002BE4D1064A1360136801934FF0804315
:1017200001220199C3F804231A60D8E7280B00208E
:10173000000100404FF08043D3F80C0400F001108A
:10174000A0F10110B0FA80F04009704710B51D4BB0
:101750001A6882B0F2B91C4B1A680AB902B010BDFF
:1017600000221A601B6801934FF080430222174C3D
:101770000199C3F8082323690122A270002BEDD040
:101780001A6822615B68012098472369002BF7D112
:1017900002B010BD00221A601B6800934FF0804316
:1017A00001220A4C0099C3F80823A3686270002B39
:1017B000D1D01A68A2605B6800209847A368002B0C
:1017C000F7D1C8E70001004004010040280B0020C9
:1017D000002810B418DB00F1604303F561434901B0
:1017E000C9B283F80013C3B24009800000F1604021
:1017F00000F5614003F01F0201239340C0F88031DF
:1018000003605DF8044B7047C3B2044A03F00F0451
:1018100049012244C9B21176E6E700BFFCEC00E0C2
:1018200030B51F4C94F8645083B015B1082003B054
:1018300030BD4FF0FF33FF2206200721236363638F
:10184000A363E36323646364A364E3642365636560
:10185000A365E36523606360A360E3602361636164
:10186000A361E361236284F860306362A36284F859
:101870006230E36284F8633084F86120FFF7A8FFE8
:10188000084B094A1D601B68019301984FF0004303
:101890000121284684F86410C2F8043303B030BD37
:1018A0003C0B00207C61004000600040034B93F83B
:1018B0006400003018BF0120704700BF3C0B0020BF
:1018C000F0B56A4C251895F93030002B01DB082063
:1018D000F0BD91F803E09446BEF1000F56D02368A6
:1018E000013300F0BB80082600256B1C5F4F54F8C5
:1018F0002320013251D0AB1C9E4245D957F82320FA
:1019000001324AD0EB1C9E423ED957F823200132C7
:1019100043D02B1D9E4237D957F8232001323CD0AB
:101920006B1D9E4230D957F82370013735D0AB1D5F
:101930009E4229D954F823204C4F01322DD0EB1D63
:101940009E4221D957F82320013226D005F1080301
:101950009E4219D957F8232001321ED005F1090300
:101960009E4211D957F82320013216D005F10A03FF
:101970009E4209D957F8237001370ED00B35AE427D
:1019800002D9E36A013307D00420F0BD236A013392
:101990005CD00C260825A8E70B232618DDB244F8F6
:1019A00023C0324686F83050BEF1000F02D12344E6
:1019B00083F858008B78DBB91F284A7887BF2C4EF4
:1019C00000F01F0303464FF0A04603F5E0739200BA
:1019D00046F82320CB78E3B96AB2083A1444097870
:1019E00094F8602042EA811284F860201846F0BD25
:1019F0001F2887BF1E4B00F01F0202464FF0A04376
:101A000003EB8203D3F8002722F00202C3F8002779
:101A1000E0E76BB29B0003F1804303F5C0430A7813
:101A2000D3F8101521F44F3121F44071C3F810158B
:101A30001204000202F44031D3F8104500F47C5245
:101A40000A432243C3F810250020F0BD082685F87C
:101A500030603346C4F820C03546A8E7002385F837
:101A60003030C4F800C01D46A4E700BF3C0B002086
:101A700000030050F0B43A4D2E1882B096F8302092
:101A800053B2072B20DD2B4493F858309B09032BCE
:101A900044D0012B0CBF4FF400324FF440321F28CA
:101AA00049D900F01F002F4B03EB8000D0F800371E
:101AB00023F44033C0F80037D0F800371A43C0F899
:101AC000002702B0F0BC7047072AFAD8980000F14E
:101AD000804000F5C04003F140029200D0F810456C
:101AE00092B202F18042002744F0010402F5C042A4
:101AF000C0F810450197019817600029E1D096F9C8
:101B0000302055F82220002ADBD00122164902FAA3
:101B100003F3C1F8043302B0F0BC70471F280DD99D
:101B2000104BD3F8103500F01F00C340DB0713D56E
:101B30004FF44032B7E74FF0A043B5E74FF0A04273
:101B40001346D2F81025C24012F0010F0CBF4FF41B
:101B500000324FF44032A7E74FF40032A3E700BF52
:101B60003C0B002000030050006000401F288ABF8B
:101B7000054B4FF0A04300F01F00D3F8103523FAB7
:101B800000F000F001007047000300502DE9F04F15
:101B900089B00025B24B029503951A68012A00F01E
:101BA0005081B04B1A68012A00F03D81AE4B1A6893
:101BB000012A00F02A81AD4B1A68012A00F0178132
:101BC000AB4B1A68012A00F00481AA4B1A68012A5B
:101BD00000F0F180A84B1A68012A00F0DE80A74BC4
:101BE0001A68012A00F0CB80A54B1A68012A00F080
:101BF000B58015F0FF0F1AD0A24F01260024A300D4
:101C000003F180432E4203F5C0434FEA46060BD052
:101C1000D3F8100557F82420D3F81015C0F3052089
:101C2000C1F3014102B190470134082CE7D1002DE6
:101C300002DB09B0BDE8F08F934F00224FF0FF3375
:101C4000A7F1630904920592069307938F4C4FF016
:101C5000000A4FF0010814F8013FFF2B30D0DBB22F
:101C600023F0C00008AAC608951903F0070215F86A
:101C7000081C08FA02F2114222D009EB000E990961
:101C80009EF930E059F82EC0BCF1000F56D0032960
:101C900056D01F288ABF03F01F060646DFF8F0E182
:101CA00015F818BC98BF4FF0A04E06F5E0761BEA79
:101CB000020F5EF82650C5F301451AD1032D48D016
:101CC000BC42C8D1BAF1000FB3D04FF0A043029983
:101CD000D3F810356E4A9942D2F8102502D10399F3
:101CE0009142A6D004980599029303920690079119
:101CF000ACE7022DE4D1032904D0BCF1000FDFD002
:101D0000E047DDE74FF440321F288BBF604D4FF0B6
:101D1000A04503F01F03034605EB83030AF1010A04
:101D2000D3F8005725F44035C3F80057D3F80057CF
:101D30002A435FFA8AFAC3F80027DEE70329BFD1F6
:101D40000DF1100B1BF806E04EEA020E0BF806E050
:101D50009FE70329D1D14FF40032D5E700221A6062
:101D60001B6801934FF0A042019BD2F81025484B0D
:101D70000292D3F81035039345F0004539E7454A00
:101D8000D2F8042312067FF52FAF00221A601B68D9
:101D90000093009B45F0800526E73E4AD2F80423D5
:101DA00051067FF51CAF00221A601B680093009B50
:101DB00045F0400513E7374AD2F8042390067FF533
:101DC00009AF00221A601B680093009B45F02005B4
:101DD00000E7304AD2F80423D4067FF5F6AE00229D
:101DE0001A601B680093009B45F01005EDE6294A38
:101DF000D2F8042316077FF5E3AE00221A601B68B1
:101E00000093009B45F00805DAE6224AD2F8042345
:101E100057077FF5D0AE00221A601B680093009B25
:101E200045F00405C7E61B4AD2F8042392077FF564
:101E3000BDAE00221A601B680093009B45F00205AE
:101E4000B4E61449D1F8041311F0010105D01D6066
:101E50001B680093009B1546A3E60D46A1E600BF54
:101E60000061004004610040086100400C610040D6
:101E70001061004014610040186100401C61004086
:101E80007C6100403C0B00209F0B00209B0B00203E
:101E900000030050006000400220FEF709BD00BFB3
:101EA0002DE9F0470D460646FEF73AFD03280446A5
:101EB0001DD8012D1FD00ED3022D1AD11C4B00EBC3
:101EC00040041C44657895B11A4B1B687BB12846C9
:101ED000BDE8F04718471848FFF746FB1449174A72
:101EE00004EB44030B44155D9B789D42EBD0BDE8A9
:101EF000F087BDE8F087DFF8388047003B1808EB33
:101F0000030218F8035053782BB9274447440B4B6E
:101F1000BA781A55D7E7DFF8289007484A464FF4B1
:101F20000041FFF7CDFA0028EFD189F80060ECE717
:101F3000200C0020D40B0020D80B0020CC0B00205C
:101F40001C0C002010B50078FEF7EAFC03280BD823
:101F5000064B00EB40001844407828B1044B1B6846
:101F600013B1BDE81040184710BD00BF200C002081
:101F7000D40B0020B34B1B68DB0700D4704770B54F
:101F8000B14EB24D33782C78FBB9172C1CD8DFE852
:101F900014F0F10014011401630076008300960030
:101FA0005D0039002C0039002C00A300A800A80017
:101FB000A800A800A800CE00DE000101460018001D
:101FC0001800FEF75FFC2C7070BDA14B1B78002041
:101FD0003070002B00F00581FEF72CFC0120FEF78D
:101FE00029FC0320FEF726FCCFE7012318463370B7
:101FF000FEF75EFC97484FF480410022BDE8704038
:10200000FFF75EBA012318463370FEF751FC914882
:1020100040F6CD410022BDE87040FFF751BA8C4B2D
:102020001B78002B00F0FE800020FEF703FC01204F
:10203000FEF700FC0320FEF7FDFB0020FEF7E6FBA9
:102040000120FEF7E3FB15232B7070BD0020FEF787
:10205000DDFB07232B7070BD0020FEF7C1FB0028BD
:1020600000F0D3800020FEF7E5FB46F26661032313
:102070002B7078480022BDE87040FFF721BA00209D
:10208000FEF7AEFB002800F0C5800020FEF7D2FB73
:102090004FF400310423EBE70020FEF7A1FB0028FA
:1020A00000F0BD800020FEF7C5FB05232B706948BA
:1020B00041F69A110022BDE87040FFF701BA0020F6
:1020C000FEF7F6FB06232B70624840F6CD41002256
:1020D000BDE87040FFF7F4B9FEF7D4FB0C232B707A
:1020E00070BD5D48FFF740FAD4F1110405467BD07E
:1020F000002879D1012C13D0C82303FB04F44FF43A
:10210000FA704FF400430021C3FB04014FF47A72CC
:10211000002332F095FE2A4601464F48FFF7D0F9DA
:102120000220FEF773FB4A4B01221A7070BD484B28
:102130001B78002B79D00020FEF77CFB0120FEF7F6
:1021400079FB0320FEF776FB12232B7070BD404B0A
:102150001B78002B6FD00020FEF76CFB0120FEF7F0
:1021600069FB0320FEF766FB0020FEF74FFB1323FD
:102170002B7070BD364B1B78002B59D00020FEF71A
:1021800059FB0120FEF756FB0320FEF753FB00230B
:102190002B7070BD2E4B1B78002B4FD00020FEF70C
:1021A00049FB0120FEF746FB0320FEF743FB01201D
:1021B000FEF72CFB14232B7070BD0020FEF710FBE4
:1021C000C8B10020FEF736FB022C4EF2666118BF44
:1021D0004FF400312C701F480022BDE87040FFF71B
:1021E0006FB9FEF739FBD0E60220FEF723FB184B50
:1021F00000221A7070BDFEF709FB41F69A1343F2F4
:102200003331022C08BF1946E4E7FEF7FFFA41F626
:102210009A112CE7FEF7FAFA43F233313AE7FEF768
:10222000F5FA42E7FEF718FB07E7FEF715FB8BE729
:10223000FEF712FBABE7FEF70FFB95E7FEF70CFB93
:10224000B5E700BFC80B0020D00B0020F80B002022
:10225000C40B0020A40B0020FC0B002038B5C44B9D
:102260001B6813F0010401D1204638BDC14C23780E
:102270000546E3B9172D00F27881DFE815F00B0170
:102280003101310169007D009100A5005B0035003E
:10229000280035002800B300BA00BA00BA00BA001E
:1022A000BA00E300F6001C01420063006300B24B79
:1022B0001B7800202070002B00F02781FEF7BAFA6F
:1022C0000120FEF7B7FA0320FEF7B4FAD2E70123A4
:1022D00018462370FEF7ECFAA8484FF4804100221C
:1022E000BDE83840FFF7ECB8012318462370FEF72D
:1022F000DFFAA24840F6CD410022BDE83840FFF7A2
:10230000DFB89D4B1B78002B00F020810020FEF7EA
:1023100091FA0120FEF78EFA0320FEF78BFA0020D7
:10232000FEF774FA0120FEF771FA954B15221A7028
:10233000002499E70020FEF769FA914B07221A70F2
:10234000002491E7FEF79EFA8D4B00241D708BE769
:102350000020FEF745FA002800F0E1800020FEF79B
:1023600069FA46F26661864B844803241C70002299
:10237000BDE83840FFF7A4B80020FEF731FA002886
:1023800000F0DC800020FEF755FA4FF400317C4B62
:102390007A4804241C700022BDE83840FFF790B84A
:1023A0000020FEF71DFA002800F0CD800020FEF787
:1023B00041FA734B714805241C7041F69A110022B2
:1023C000BDE83840FFF77CB80020FEF771FA6C4B8F
:1023D0006A4806241C7040F6CD410022BDE8384012
:1023E000FFF76EB8FEF74EFA654B0C221A70002408
:1023F0003AE76448FFF7B8F8D5F11105044600F054
:102400008780002840F08480012D14D0C82303FB6E
:1024100005F54FF4FA704FF400430021C3FB0501AA
:102420004FF47A72002332F00BFD224601465548E4
:10243000FFF746F804460220FEF7E8F94E4B01226A
:102440001A7011E74C4B1B78002B00F082800020A3
:10245000FEF7F0F90120FEF7EDF90320FEF7EAF9A7
:10246000474B12221A700024FEE6434B1B78002BC8
:1024700075D00020FEF7DEF90120FEF7DBF903201E
:10248000FEF7D8F90020FEF7C1F93D4B13221A7070
:102490000024E9E6384B1B78002B5DD00020FEF7C6
:1024A000C9F90120FEF7C6F90320FEF7C3F9344B42
:1024B00000241C70D8E6304B1B78002B52D0002033
:1024C000FEF7B8F90120FEF7B5F90320FEF7B2F9DF
:1024D0000120FEF79BF92A4B14221A700024C3E650
:1024E0000020FEF77DF9F8B10020FEF7A3F9022DD8
:1024F0004EF2666118BF4FF40031214B1F481D702A
:102500000022BDE83840FEF7DBBFFEF7A5F9B1E6D3
:102510000220FEF78FF9184B00221A70A4E6FEF78E
:1025200075F941F69A111EE7FEF770F941F69A1314
:1025300043F23331022D08BF1946DEE7FEF766F994
:1025400043F2333123E7FEF761F932E7FEF784F90E
:10255000E5E6FEF781F983E7FEF77EF9A7E7FEF7E8
:102560007BF98FE7FEF778F9B2E700247CE600BF3D
:10257000C80B0020D00B0020C40B0020A40B0020AF
:10258000F80B0020FC0B0020F0B5214A214B106015
:10259000044610F0020083B0196015D01E4B1F488E
:1025A0004FF00E0E0F2710261125042140F266620F
:1025B00083F800E0DF709E715D72FEF7AFFAA0B1A4
:1025C000E3071DD403B0F0BDE20719D41448154A3F
:1025D0000021FEF763FF0028F4D11348134A0121BC
:1025E00003B0BDE8F040FEF759BFFEF7F1FA00284E
:1025F000E6D101460E4A0F48FEF750FFE10703D52A
:102600000190FEF76FF901980028DFD003B0F0BD0C
:10261000C80B0020D40B0020200C0020446B0300CA
:10262000406B0300751F0000646B0300991E0000DF
:10263000451F00003C6B0300420700D4704708B5FB
:10264000084605F02CFE88B1831E022B0A4A06D9E3
:10265000062313701846BDE80840FFF7FFBD0723A7
:1026600013701846BDE80840FFF7F8BD024A107025
:10267000BDE80840FFF7F2BD3A0C002008B51C4B3E
:102680001B78032B27D8DFE803F021120702012073
:10269000BDE80840FEF7BAB80120FEF709F9154871
:1026A00040F6CD410022BDE80840FEF709BF0120F9
:1026B000FEF796F880B90120FEF7A8F841F69A11C6
:1026C0000C480022BDE80840FEF7FABE0120BDE834
:1026D0000840FEF7AFB808BD0120FEF7ABF846F2A0
:1026E000666104480022BDE80840FEF7E9BE00BF6D
:1026F000390C00205C0C002008B51B78802B00D022
:1027000008BD0D4B072201201A70FEF769F868B169
:102710000020FEF78FF80120FEF78CF8074841F6FD
:102720009A110022BDE80840FEF7CABEFEF76EF817
:102730000120FEF76BF8F1E7380C00203C0C00207C
:1027400008B52C4A1378013BDBB2137083B101202A
:10275000FEF746F8A0B9FEF759F80120FEF756F843
:10276000254841F69A110022BDE80840FEF7A8BEB0
:10277000224B1B78032B0DD8DFE803F0121B2B092B
:102780000020FEF757F80120FEF754F8E8E7012093
:10279000FEF73CF81A4B1878BDE80840FFF75EBD1D
:1027A0000120FEF747F8164B1878BDE80840FFF700
:1027B00055BD0120FEF714F8A8B10120FEF73AF844
:1027C00046F266610F480022FEF77AFE0028E1D04B
:1027D00008BD0120FEF76CF840F6CD410022094803
:1027E000FEF76EFEF2E70120FEF710F841F69A11AF
:1027F000E8E700BF380C00203C0C0020390C00201A
:102800003A0C00205C0C0020F8B51A4E1A4B1B4FF6
:10281000002421460C22054630461C703C70FDF712
:1028200091FD2146164B1748174A3360FEF736FED6
:10283000044660B1284615492A4605F045F998B97D
:1028400028460C4905F0D4F840B92046F8BD0146A9
:102850000F4A1048FEF722FE0446EBE70E480F4AE7
:102860000F4BE62132F0C2FD0B480C4A0D4BE5211F
:1028700032F0BCFD2C0C0020390C00203A0C00205A
:10288000F9260000686B03007D2600003926000051
:10289000412700006C6B0300806B0300706B03002A
:1028A000246C0300C86B0300034B044800221A7118
:1028B0009A60FEF759BE00BFFC0800207C0C002087
:1028C0000B4B1B794FF0A04233B94FF40041C2F8D3
:1028D0000815C2F80C357047D2F80435D94301F415
:1028E000004103F40043C2F80815C2F80C357047E4
:1028F000FC0800202DE9F0410746A6B008460C462A
:102900001646984604F03FFF38B1204604F03BFFDE
:10291000102802D026B0BDE8F081204604F037FF31
:1029200003280546F6D1304605F07EFB0DF107027F
:1029300001460123304605F07BFB012803D02846E1
:102940002D49FDF71FFF9DF80730012B49D03ED3DD
:10295000022B2ED0204604F016FF0028DAD14422A4
:10296000202102A804F0F0FE204604F012FF0146E8
:1029700002A804F005FF204604F013FF0546204698
:1029800004F00BFF2946024602A804F0DFFE384699
:1029900002A904F008FF04460028BBD0384642468E
:1029A000214604F022FF0028B4D0204605F036FB73
:1029B000B0E74FF0A042D2F80435D94301F480319A
:1029C00003F48033C2F80815C2F80C35C2E74FF0A3
:1029D000A0434FF480310022C3F80815C3F80C253A
:1029E000B8E74FF0A0434FF480310022C3F80C1534
:1029F000C3F80825AEE700BF8C6C0300430770B531
:102A000004460D460AD4284605F049FC22460346F2
:102A100009490320BDE87040FDF7D2BE084605F025
:102A20003EFC02380228EED9044B054800221A71F8
:102A30009A60FEF799FDE6E7B46C0300FC080020FD
:102A40007C0C0020112812D138B5094C01232371C8
:102A5000256820F025FA00F59C5308332A46A36028
:102A600004484FF42031BDE83840FEF729BD7047D7
:102A7000FC0800207C0C00202DE9F043324C227928
:102A8000B1B012B931B0BDE8F083064608461D4624
:102A90000F4604F078FE10288046F3D1384604F043
:102AA00076FE01288146EDD10FCD0DF1040EAEE882
:102AB0000F000FCDAEE80F0095E807008EE8070085
:102AC0000021424601A8FDF73DFC414645220CA8E5
:102AD0008DF8039004F038FE384604F062FE054697
:102AE000384604F05AFE294602460CA804F02EFE91
:102AF0000CA804F043FE30460CA904F054FE054631
:102B00000028BFD04A460DF1030105F08FFA18B135
:102B1000284605F083FAB5E7304605F07FFB4246CC
:102B20000146284605F082FA0028F1D1304601AA74
:102B3000294604F05AFE03460028E9D103482371D0
:102B4000A360FEF711FD9DE7FC0800207C0C00202F
:102B500008B50020FDF704FE0020014620F09BFA96
:102B600004F0A0FF002800F0C580054600F0B2FB8D
:102B700005F0F2FB6A4902460320FDF711FE2846E4
:102B800005F051FB674902460320FDF709FE284680
:102B900065492A4604F098FF002840F0A4802846A2
:102BA00004F0C1FE70B928460B2105F036F8002864
:102BB00040F0AE8028464AF6CD3105F079F800287D
:102BC00040F09F802846012104F0A8FF002840F033
:102BD00083802846012105F0D2FB002875D1534C93
:102BE000284641F2336125606562656104F0E9FDC4
:102BF000002863D1214651F81C0B04F0ECFD00289D
:102C000055D1214651F80C0B04F0E5FD002847D1C1
:102C1000FEF77AFB002840D1454A46480021FEF7DE
:102C20003DFC01214448454AFEF738FC0320444955
:102C3000FFF7AAFC70BB2068FFF7E6FD38BB002356
:102C40004FF4F0314FF0A045032007E041FA03F2C2
:102C5000D20744BF03F5E07245F822000133202B70
:102C6000F4D14FF0A04300214FF4F032C3F808250F
:102C70003448C3F80C150A4640F6CD41FEF720FC57
:102C8000206805F025FA206820F018FAF8E7FDF72B
:102C9000B5FFD4E7FDF7B2FFCDE7FDF7AFFFBBE728
:102CA00029482A4A2A4B4FF4C77132F09FFB264825
:102CB000264A284B40F28D1132F098FB2248234AD5
:102CC000254B4FF4C67132F091FB1F48234A244B29
:102CD0004FF4C17132F08AFB1B48204A214B40F26D
:102CE000811132F083FB18481C4A1F4B40F27911C6
:102CF00032F07CFB1448194A1C4B4FF4B97132F086
:102D000075FB1148154A1A4B4FF4BF7132F06EFB38
:102D10000D48124A174B40F27D1132F067FB00BF9D
:102D2000086D0300246D0300FD290000FC0800204D
:102D3000A9280000886C0300786C0300C1280000FB
:102D4000452A00009C0C0020EC6C03006C6C030016
:102D5000C06E0300706E0300286E03007C6C0300DD
:102D6000F06D0300BC6D0300C86B0300FC6C030036
:102D7000806D0300406D03002DE9F84F43001F18DC
:102D8000DFF880B1FF000BEB07048846E16A0129F8
:102D9000164644D034D302293CD1013000EB400028
:102DA000656A0BEBC0094FF0000A1DE0126A641B54
:102DB000B4422346A2EB050428BF33469C42D9F80F
:102DC000040028BF1C4622462844414632F04CFBF2
:102DD0000BEB070325441A6A954208BF0025361BF2
:102DE000A244A0445D6217D00BEB0702936AAB428A
:102DF00003F1FF34DAD8126A1344013B5C1BD7E7B6
:102E0000A16A626A91429CBF246A091901398A1A2F
:102E1000964238D94FF0000A5046BDE8F88FA16AB3
:102E2000656AA94229D90139226AC5EB010A03441E
:102E30000BEBC30B0BF1200BDBF80450314BB2450D
:102E400028BFB246561B0130B24500EB40003FD3CD
:102E500003EBC0044146606832462844C6EB0A05CD
:102E600032F002FB606808EB06012A4632F0FCFAF9
:102E7000CBF804505046BDE8F88F226A8C18013C0C
:102E8000C5EB040AD3E703440BEBC30B0BF120079C
:102E9000DBF82040D7F804901A4BC9EB040401304A
:102EA000A64200EB40001FD303EBC0054146686813
:102EB00022464844C4EB060932F0D6FA686808EBAB
:102EC00004014A4632F0D0FAB246C7F80490A3E7AC
:102ED00003EBC0034146586852462844554432F03B
:102EE000C3FACBF8045097E703EBC0034146586898
:102EF0003246484432F0B8FA06EB09037B60B2462A
:102F00008AE700BFCCC900202DE9F04F344C94F87B
:102F100000E083B00546884617461E46BEF1000F06
:102F20002ED02369DFF8B8A0AB4256D94FF0000984
:102F30004846CDF80490FEF74DFB6DB929460D4487
:102F400004EBC5040C9BE3620020019BFEF74AFBE7
:102F5000002003B0BDE8F08F6B1C690003EB430356
:102F6000DB004A190AEBC2020AEB030EC2F82890F2
:102F70004AF80380CEF804701662C2F82490DEE7A7
:102F8000184BDFF86CB0DFF86C90C4F828E04FF015
:102F9000100C4FF4007A0222C4F824E0A361C4F8B4
:102FA00058E0A3641049C4F82CE0C4F85CE0C4F80D
:102FB00054E0C4F850C0E01DC4F81CB0C4F820A010
:102FC000C4F84C902261626132F02AFE2046074923
:102FD00032F026FE2023A371A3E74FF0FF30B8E7BD
:102FE000CCC90020306F03003C6F0300406F03002A
:102FF000CC0C0020BC0C0020F8B5134C23780BBB84
:10300000124ADFF858C0124FA3624FF4007E102618
:103010006362E362A365E365636502250D49A2610E
:10302000A264C4F81CC0C4F820E0E01DE764266573
:103030002561656132F0F4FD2046074932F0F0FD6C
:103040002023A371F8BD00BFCCC90020306F03005E
:10305000BC0C00203C6F0300406F0300CC0C002030
:103060000649074A074B9B1A03DD043BC858D0505A
:10307000FBDC00F013F8FDF7F1F80000A0E6030018
:103080009808002088090020FEE7FEE7FEE7FEE73B
:10309000FEE7FEE7FEE7FEE7FEE7FEE770B45E4B05
:1030A0001B68082B19D05D4AD2F8883043F47003AE
:1030B000C2F88830BFF34F8FBFF36F8F4FF01023EC
:1030C000D3F80022002A75DBD3F80432002B71DB21
:1030D000534B544A1A6070BC7047534B196800290F
:1030E000E1D14FF080404FF08052C0F80C114F4BAF
:1030F000C0F81011C0F83815D2F80414C3F8201520
:10310000D2F80814C3F82415D2F80C14C3F8281503
:10311000D2F81014C3F82C15D2F81414C3F83015D3
:10312000D2F81814C3F83415D2F81C14C3F840159B
:10313000D2F82014C3F84415D2F82414C3F8481563
:10314000D2F82814C3F84C15D2F82C14C3F8501533
:10315000D2F83014C3F85415D2F83414C3F86015FB
:10316000D2F83814C3F86415D2F83C14C3F86815C3
:10317000D2F84014C3F86C15D2F844642C4C2D4995
:10318000C3F870652C4D2560FB23C1F81835D0F8C5
:10319000E43ED2F8581204F50F3423F00F0204F580
:1031A0006D7401F00F0313434FF40072C0F8E43E56
:1031B000226078E7214B0122C3F80425D3F80024CC
:1031C000002AFBD04FF0102312221C49C3F8002222
:1031D000D1F80034002BFBD04FF0102312221749F6
:1031E000C3F80422D1F80024144B002AFAD000229C
:1031F000C3F80425D3F80024002AFBD0BFF34F8F77
:1032000006490F4BCA6802F4E0621343CB60BFF378
:103210004F8F00BFFDE700BF3001001000ED00E060
:10322000280900200090D0033401001000C00040A5
:103230008C56004000F000404881030000E001404F
:103240000400FA050EB410B5A3B025AB044653F83C
:10325000042B0193802102A832F076FE02A832F0FE
:10326000FCFC236882B21B6802A92046984723B061
:10327000BDE8104003B07047B0F80636B0F8082635
:10328000C3F580618A42CCBFA0F80A16A0F80A26CE
:10329000B0F80A1621B100F2062018441FF0A2BFB0
:1032A0007047000010B50A4B0360044600F20C6042
:1032B00000F03AFB0023A4F80432A4F80636A4F880
:1032C0000836A4F80A361FF07BFF204610BD00BF69
:1032D000586F030010B5044C01462046FFF7E2FF8B
:1032E000024B1C6010BD00BFD00E0020CC0E002091
:1032F00010B5B0F80432C2180446D2780A2A06D1B2
:10330000013B9BB2A0F80432034400221A71B4F8C6
:103310000432E218D2780D2A06D1013B9BB2A4F800
:103320000432234400221A7104F20C602346B4F8DC
:103330000422211D03F024F90020A4F8040210BD8A
:103340002DE9F8432A4FDFF8AC80DFF8AC90044653
:103350008E180D46B542294648D20B780A2B05F146
:10336000010519D014D8082B2CD0B4F80432B3F5C9
:10337000007FEFDA236801221B6820469847B4F8E3
:1033800004325A1CA4F8042215F8012C23442BE023
:103390000D2B01D07F2BE7E7236802221B683946FB
:1033A00020469847B4F804322BB1234400221A7106
:1033B0002046FFF79DFF236802221B6841462046F6
:1033C0009847C7E7B4F80432002BC3D02368032220
:1033D0001B68494620469847B4F80432013B9BB22B
:1033E000A4F80432002223441A71B3E7BDE8F8833D
:1033F0004D6F03004B6F0300486F0300024B0A46FA
:1034000001461868FFF79CBFCC0E0020B0F80A36C2
:103410000BB9FFF731BF704770B5B0F80846C4F577
:103420008064A4B29442A8BF14460D466B1A9C4215
:103430000FDDB0F80826B0F8063615F8016B134416
:10344000C3F309030344013283F80662A0F8082697
:10345000ECE7FFF7DBFF204670BDB0F80A16B0F8C6
:1034600006260A44C2F30902A0F80626B0F8082688
:10347000521AA0F808260022A0F80A26FFF7FCBE80
:10348000014B1868FFF7E9BFCC0E0020F8B5074ED6
:10349000074D07460024786BA259036829465B68EC
:1034A0000C349847B4F53D7FF5D1F8BD9079030011
:1034B000E4810300D0F82C0104F027BBD0F82C01E4
:1034C00004F021BB70B5456B2B680446D0F82C0185
:1034D0005E6804F0F0FE054902462846B047606B7E
:1034E00003490368BDE870405B681847E870030053
:1034F0000A72030070B5446B0B46216818464D688C
:10350000114622F0AAFB2B46024602492046BDE89E
:1035100070401847E4810300406B024903685B6810
:10352000184700BF0A72030030B504468BB001A9EA
:10353000D0F82C0104F083FD606BBDF80420036813
:103540002B495B689847606BBDF8062003682949E2
:103550005B689847606BBDF80820036826495D6882
:10356000BDF80A30A847606BBDF80C2003682349FA
:103570005D68BDF80E30A847606BBDF81020036889
:103580001F495D68BDF81230A847606BBDF8142074
:1035900003681C495D68BDF81630A847606BBDF82C
:1035A0001820036818495D68BDF81A30A847606B99
:1035B000BDF81C20036815495D68BDF81E30A8479A
:1035C000606BBDF82020036811495D68BDF82230AA
:1035D000A847606BBDF8242003680E495D68BDF8FC
:1035E0002630A8472046FFF797FF0BB030BD00BF3D
:1035F00024770300307703003B7703004D77030007
:103600005F7703006C770300797703008677030008
:1036100093770300A1770300F0B5224E8FB00446E4
:10362000002509AAE9B2D4F82C0104F088FF00288B
:1036300033D19DF83630DB072DD5606BBDF83410E3
:1036400007680691BDF83210BDF82630BDF8242079
:1036500049BA89B20591BDF8301049BA89B20491CE
:10366000BDF82E1049BA89B20391BDF82C1049BAA1
:1036700089B20291BDF82A1049BA89B20191BDF808
:10368000281049BA89B200915BBA52BA7F689BB2DE
:1036900092B23146B8470135C3E72046FFF73CFFF9
:1036A0000FB0F0BD4876030038B5044604F054FE70
:1036B000636B05491A68556802461846A8472046B4
:1036C000BDE83840FFF728BFE481030070B5044629
:1036D00059B9406B664903685B689847606B6549F8
:1036E0000368BDE870405B6818476349106832F0B2
:1036F0008DFA002840F0BB80D4F82C0104F093FB35
:103700000546606B2A6803685C495B689847606B94
:103710006A6803685A495B689847606BAA680368DF
:1037200058495B689847606BEA68036856495B686C
:103730009847606B2A69036854495B689847606BD7
:103740006A69036852495B689847606BAA690368B5
:1037500050495B689847606BEA6903684E495B684B
:103760009847606B2A6A03684C495B689847606BAE
:103770006A6A03684A495B689847606BAA6A03688B
:1037800048495B689847606BEA6A036846495B682A
:103790009847606B2A6B036844495B689847606B85
:1037A000AA6B036842495B689847606BEA6B0368E1
:1037B00040495B689847606B2A6C03683E495B68C8
:1037C0009847606B6A6C03683C495B689847606B1C
:1037D000AA6C03683A495B689847606BEA6C0368B7
:1037E00038495B689847606B2A6D036836495B68A7
:1037F0009847606B6A6D036834495B689847606BF3
:10380000AA6D036832495B689847606BEA6D03688C
:1038100030495B689847606B2A6E03682E495B6885
:103820009847606B6A6E03682C495B689847606BC9
:10383000AA6E03682A495B689847606BEA6E036862
:1038400028495B689847606B2A6F036826495B6864
:103850009847606B6A6F036824495B689847606BA0
:10386000AA6F036822495B68BDE87040184770BDC5
:10387000047303000A7203000A7303000E7303004B
:103880001C73030030730300467303005F7303006F
:10389000717303008C7303009D730300B273030004
:1038A000C5730300DF730300F173030003740300A7
:1038B0001674030024740300387403004E7403006C
:1038C0005F7403007474030087740300A174030021
:1038D000B3740300D1740300EE7403000575030094
:1038E0001C7503003D7503005B7503006E750300D6
:1038F0008175030010B50446D0F82C0104F07BFD5F
:10390000636B1A68526838B10449184690472046DC
:10391000BDE81040FFF700BE0149F6E792760300CC
:103920009976030000BA704770B5044600250E462C
:103930002063294645632C223830FCF703FD082319
:10394000A4F864300123A4F866304FF47A73A366B8
:1039500006F501433833E366174B236704F16C0324
:10396000E36729466467A56784F8EC50C4F82C61C6
:10397000602204F18000FCF7E5FC22460F49304646
:1039800004F0A2F82246D4F82C010D4904F0E8FC1A
:103990000C4BC4F8E03004F1E001C4F8E440D4F882
:1039A0002C0104F025F83E22294604F1ED00FCF735
:1039B000C9FC204670BD00BFF15D0000A566000097
:1039C00015670000AD5C00002DE9F0410746904608
:1039D0000C4632F042F93D1800F001060130B8EB18
:1039E000500F12D3384621460022854221D910F8C3
:1039F000013BA3F14107052F0BD8373B1343DBB243
:103A00009EB10B7000260131EEE74FF0FF30BDE8AC
:103A1000F081A3F16107052F01D8573BEEE7303B5A
:103A2000DBB2092BF1D81343EAE71B01DAB2012616
:103A3000DBE7081BBDE8F08170B50C4619B9BDE89D
:103A40007040FFF769BD456B2B6808465E6805F05E
:103A500019FE22460346B44628460249BDE8704096
:103A6000604700BFDA81030070B505460E46A9B96C
:103A7000D0F82C0104F09AFC0446686B03685B687C
:103A800044B111499847304601462846BDE8704088
:103A9000FFF7D2BF0D4998472046F5E714680C4957
:103AA000204632F0B3F828B90121D5F82C0104F0F2
:103AB00097FCE9E70749204632F0A8F801460028BC
:103AC000F3D00720E0E700BF927603009976030069
:103AD000048F0300F48E030010B5044603F098FD34
:103AE00001462046BDE81040FFF7A6BF10B5436B66
:103AF0000446D0F82C0103F073FB01462046BDE8D4
:103B00001040FFF799BF000070B5054671B9D0F8B5
:103B10002C0104F015F80446686B03685B681CB15F
:103B20000F49984700200CE00E49FAE714680E4947
:103B3000204632F06BF850B90121D5F82C0103F082
:103B4000EDFF01462846BDE87040FFF775BF074905
:103B5000204632F05BF801460028E3D1EDE700BFD4
:103B6000677603006C7603003BAA030073760300BC
:103B700037B504466946D0F82C0104F094FB05469D
:103B800008BB606B009A036812495B689847606BDA
:103B90009DF80420036810495B689847606B9DF8A6
:103BA000052003680D495B689847606B9DF8062007
:103BB00003680B495B689847606B9DF807200368B2
:103BC00008495B68984729462046FFF735FF03B050
:103BD00030BD00BFB6770300C9770300E07703006C
:103BE000D9770300F3770300F0B5134685B0044698
:103BF000D9B9D0F82C01154F04F0A9FC461E00F1EC
:103C00000F05606B16F8012F036839465B6898470B
:103C1000B542F6D1606B0E4903685B689847002196
:103C20002046FFF709FF05B0F0BD1022694618686D
:103C3000FFF7CAFE102806D16946D4F82C0104F01B
:103C40008BFC0146ECE70621EAE700BFAF9A0300D0
:103C5000098203002DE9F341002304468DF8043066
:103C6000002933D1D0F82C0104F075FA8DF8040046
:103C7000C00704D5606B444903685B6898479DF8AA
:103C80000430990704D5606B404903685B68984726
:103C90009DF804305A0704D5606B3D4903685B68A2
:103CA00098479DF804301B0704D5606B39490368B9
:103CB0005B689847606B384903685B6898470021E8
:103CC000204602B0BDE8F041FFF7B6BE16684FF0DF
:103CD000000EF446F0467746013E194618461D464A
:103CE00016F8012F5AB36E2A26D018D8642A20D08D
:103CF0002DB19DF804306CF300038DF8043028B129
:103D00009DF804306EF341038DF8043029B19DF81D
:103D1000043067F382038DF804300621D0E7722A5D
:103D200004D0732AE4D101208646D9E70125AC46A8
:103D3000D6E701210F46D3E701239846D0E72DB1FE
:103D40009DF804206CF300028DF8042028B19DF842
:103D500004206EF341028DF8042029B19DF804205F
:103D600067F382028DF804202BB19DF8043068F3CC
:103D7000C3038DF804309DF80410D4F82C0104F02E
:103D800012FA01469CE700BF468A0300F0A5030033
:103D90001CBF0300298A03000982030010B50446F2
:103DA000D0F82C0103F0BAFD01462046BDE81040D2
:103DB000FFF742BE2DE9F04186B001AF0446394617
:103DC000D0F82C0104F07CFA0646002831D1606B53
:103DD0001B490368DFF880805B6898473546606B55
:103DE0007A5D036841465B6801359847082DF6D136
:103DF000606B144903685B689847606BBDF80C20E2
:103E0000036811495B689847606B9DF8112003684F
:103E10000E495B689847606B9DF8122003680C4957
:103E20005B689847606B9DF81320036809495B68DD
:103E3000984731462046FFF7FFFD06B0BDE8F08108
:103E4000BD71030009820300C8710300D371030030
:103E5000E971030000720300AF9A030038B504460D
:103E600071B9D0F82C0103F0CBFF20B1D4F82C01AC
:103E70001FF02EFB48BB606B174903685B6828E0A6
:103E800015681649284631F0C1FE80B91449D4F8A6
:103E90002C01224603F0AFFF0121D4F82C0103F0DE
:103EA000B4FF01462046BDE83840FFF7C5BD2846AF
:103EB0000C4931F0ABFE054660B901460246D4F824
:103EC0002C0103F098FF2946E7E7606B0649036879
:103ED0005B6898470020E4E7727803005978030094
:103EE000255F0000607803006878030070B5054620
:103EF0000E46A1B9D0F82C0104F09EFA0446686B76
:103F000003685B6844B11149984734462146284606
:103F1000BDE87040FFF790BD0D499847F6E7166879
:103F20000C49304631F072FE044628B90121D5F81B
:103F30002C0104F086FAE9E70749304631F066FEC5
:103F4000044608B90146F2E70624DFE76878030073
:103F500072780300597803006078030038B504468E
:103F600000292BD1D0F82C0104F099F9636B0428B7
:103F700020D8DFE800F0030F13171B001A6825494B
:103F8000526818469047002001462046BDE8384058
:103F9000FFF752BD1A6820495268F2E71A681F49B4
:103FA0005268EEE71A681E495268EAE71A681D4926
:103FB0005268E6E71A681C495268E2E715681B492F
:103FC000284631F023FE20B9D4F82C0104F05CF926
:103FD000DAE71749284631F019FE20B9D4F82C0148
:103FE00004F057F9D0E71349284631F00FFE20B905
:103FF000D4F82C0104F063FAC6E70F49284631F0E3
:1040000005FE20B9D4F82C0104F06BFABCE70620B9
:10401000BAE700BF1E710300297103003471030069
:104020003C710300457103004E7103005E71030093
:10403000677103006D71030074710300002938B5C6
:10404000044617DD15680C49284631F0DFFD50B9EC
:104050000121D4F82C0104F092F901462046BDE874
:104060003840FFF7E9BC0549284631F0CFFD01464D
:104070000028EED00620F0E78D7C0300FF720300DD
:10408000F0B50F1E87B00546164628DD146817499F
:10409000204631F0BBFDB8B9012F20D0144B03935B
:1040A000144B0193022F144B00934FF000040CBFEC
:1040B0000246B26804950294104B7168D5F82C0141
:1040C00003F086FD00210BE00D49204631F09EFDF6
:1040D0000028F7D1D5F82C0103F082FDF2E7062184
:1040E000284607B0BDE8F040FFF7A6BC8D7C030072
:1040F00075650000A4710300B47103009971030099
:10410000FF720300F0B5134685B00446D9B9D0F864
:104110002C01154F04F05EF8461E00F10F05606B90
:1041200016F8012F036839465B689847B542F6D107
:10413000606B0E4903685B68984700212046FFF7D3
:104140007BFC05B0F0BD102269461868FFF73CFC07
:10415000102806D16946D4F82C0104F040F8014635
:10416000ECE70621EAE700BFAF9A030009820300EB
:10417000F8B505460C4689B9D0F82C0104F053F87F
:104180006E6B0A49336810225F6803463046B847B1
:1041900021462846BDE8F840FFF74EBC1168D0F82C
:1041A0002C0104F044F80146F3E700BF5278030005
:1041B0002DE9F041084E07460D4690460C46631B1C
:1041C000984507DD786B14F8012B036831465B686E
:1041D0009847F4E7BDE8F081AF9A03002DE9F0417C
:1041E000B1F1000886B0054617462CDCD0F82C014A
:1041F00003F0DBFD6B6B1A68526898B13C493D4E89
:1042000018469047002403AAE1B2D5F82C0103F028
:10421000C0FD48B1002421462846FFF70DFC06B03A
:10422000BDE8F0813449EAE79DF814304BB103A9A9
:1042300028460822FFF7BCFF686B036831465B68BD
:1042400098470134DFE716682C49304631F0DEFC30
:10425000B8B9B8F1010F12D0082201A97868FFF7A8
:10426000B3FB08280BD101A9D5F82C0103F07CFD84
:1042700001A9D5F82C0103F077FD0028CAD0062447
:10428000C9E71F49304631F0C1FC044620B9D5F8D2
:104290002C0103F079FDBEE71A49304631F0B6FC37
:1042A000044628B90146D5F82C0103F07AFDB2E79F
:1042B0001549304631F0AAFC044608B90121F2E75D
:1042C0001249304631F0A2FC04460028A2D1B8F1D0
:1042D000010FD4D0082201A97868FFF775FB0828E0
:1042E000CDD101A9D5F82C0103F049FD93E700BF1A
:1042F000687803000982030072780300787603006F
:104300007C7603006078030059780300827603000E
:1043100037B505460C46A1B96946D0F82C0103F023
:10432000B3FC082269462846FFF742FF686B06493E
:1043300003685B68984721462846FFF77DFB03B07A
:1043400030BD0621F8E700BF0982030037B50546F6
:104350000C46A1B96946D0F82C0103F097FC08225D
:1043600069462846FFF724FF686B064903685B68C7
:10437000984721462846FFF75FFB03B030BD062172
:10438000F8E700BF098203002DE9F041B1F1000810
:1043900086B00546174639DCD0F82C0103F0E0FC66
:1043A0006B6B1A685268A0B14A494B4E4B4F184686
:1043B0009047002403AAE1B2D5F82C0103F0C4FC15
:1043C00048B1002421462846FFF736FB06B0BDE879
:1043D000F0814349E9E79DF81530DA0714D5082242
:1043E00003A92846FFF7E4FE9DF815309B0706D584
:1043F000686B9DF91420036839465B689847686BC1
:10440000036831465B6898470134D3E7166835493D
:10441000304631F0FBFB044630BBB8F1010F16D03B
:10442000082201A97868FFF7CFFA08280FD1B8F160
:10443000020F0ED022462146B86831F0C3FC01A914
:1044400042B2D5F82C0103F063FC0028B9D0062451
:10445000B8E701A9D5F82C0103F04FFC01A9D5F864
:104460002C0103F04AFCF0E71F49304631F0CEFB47
:10447000044620B9D5F82C0103F061FCA2E71B49E2
:10448000304631F0C3FB044628B90146D5F82C016B
:1044900003F062FC96E71649304631F0B7FB04465C
:1044A00008B90121F2E71349304631F0AFFB044669
:1044B000002886D1B8F1010FC9D0082201A9786877
:1044C000FFF782FA0828C2D101A9D5F82C0103F020
:1044D00031FC77E768780300098203001ABF030004
:1044E00072780300787603007C760300607803001E
:1044F000597803008276030037B5134605460C460B
:1045000099B9D0F82C0103F0A4FB082201462846F3
:10451000FFF74EFE686B0D4903685B6898472146BC
:104520002846FFF789FA03B030BD082269461868AB
:10453000FFF74AFA002801DA0621F1E76946D5F8C3
:104540002C0103F08AFB0146EAE700BF0982030061
:1045500037B5134605460C4699B9D0F82C0103F03F
:10456000C6FD082201462846FFF722FE686B0D496A
:1045700003685B68984721462846FFF75DFA03B059
:1045800030BD082269461868FFF71EFA002801DAD4
:104590000621F1E76946D5F82C0103F0ACFD014690
:1045A000EAE700BF0982030013B500220C4601A907
:1045B00031F008FC019B20601B78002B14BF062003
:1045C000002002B010BD0000F7B505460C4689B9C1
:1045D000466BD0F82C0133685F6803F01AFB0C4976
:1045E00002463046B847204601462846FFF724FADF
:1045F00003B0F0BD01A91068FFF7D6FF0028F3D182
:104600009DF80410D5F82C0103F007FBECE700BF80
:10461000DD7003002DE9F04F002989B0044640F316
:10462000A48015689849284631F0F0FA00282ED069
:104630009649284631F0EAFA002840F09880606BED
:10464000934903685B689847606B924903685B68AD
:1046500098470126D4F82C01DFF894A203F0DAFE83
:1046600000278146F9B249450FDA0DF104084246A8
:10467000D4F82C0103F053FF054650B117286FD032
:10468000606B854903685B6898470025F4E006463F
:10469000E0E7039B002B63D0606BBDF81620036836
:1046A0005B68002E5ED07D49DFF848B29847606BAA
:1046B000BDF81420036851465B689847606B039A05
:1046C000036877495B689847606B049A036874498C
:1046D0005B689847606B9DF81920036871495B68B7
:1046E0009847606B9DF8182003686F495B6898478E
:1046F000606B9DF81C2003686C495B6802F0010246
:104700009847606B9DF81C20036868495B68C2F39A
:1047100040029847606B9DF81C20036863495B6802
:10472000C2F380029847606B9DF81C2003685F49C4
:104730005B68C2F3C0029847606B5D4903685B68C1
:104740009847606B18F80520036859465B68013587
:104750009847082DF5D1606B564903685B68984708
:1047600001377FE754499847FAE7062584E0284651
:104770006946FFF719FF054600287DD101AF3A468B
:10478000BDF80010D4F82C0103F0C1FE0546002846
:1047900072D1606BBDF81620036848495B68DFF88A
:1047A00054819847606BBDF81420036844495B68E6
:1047B0009847606B434903685B6898472E46606B77
:1047C000BA5D036841465B6801369847082EF6D10A
:1047D000606B314903685B689847606B3A490368CE
:1047E0005B6898479DF81C30D80704D5606B374943
:1047F00003685B6898479DF81C30990704D5606B87
:10480000334903685B6898479DF81C305A0704D504
:10481000606B304903685B6898479DF81C301B0744
:1048200004D5606B2C4903685B689847606B1A4934
:1048300003685B689847606B9DF8182003682749F8
:104840005B689847606B039A036825495B689847E3
:10485000606B049A036823495B689847606B9DF816
:104860001920036820495B689847606B9DF91A20FE
:1048700003681E495B68984729462046FFF7DCF825
:1048800009B0BDE8F08F00BFBE7E0300F36F0300E8
:10489000F96F03005070030009820300A770030042
:1048A000B8700300C0700300C7700300CE7003002F
:1048B0005D7903005F72030049790300D370030040
:1048C000E2700300BD710300EF700300468A03002D
:1048D000F0A503001CBF0300298A0300F670030043
:1048E0000571030000720300D3710300137103000C
:1048F000AE700300AF9A0300F7B505460C4689B9C0
:10490000466BD0F82C0133685F6803F083FD0C49D7
:1049100002463046B847204601462846FFF78CF845
:1049200003B0F0BD01A91068FFF73EFE0028F3D1E7
:104930009DF80410D5F82C0103F079FDECE700BFD9
:10494000DD700300F7B505460C4681B9466BD0F81B
:104950002C0133685F6803F0C1FB0B490246304607
:10496000B84721462846FFF767F803B0F0BD01A914
:104970001068FFF719FE04460028F2D10199D5F816
:104980002C0103F0AFFBECE7DD70030073B50446C8
:1049900079B9456BD0F82C012B685E6803F070FD87
:1049A0000A4902462846B0472046FEF7B5FD02B048
:1049B00070BD01A91068FFF7F7FD0028F4D1019937
:1049C000D4F82C0103F061FDEEE700BFDD700300B9
:1049D00010B5002986B004461FDD05A91068FFF751
:1049E000E3FDE0B9059B012199400F4B01930023A2
:1049F000029400934FF6FF72D4F82C0103F000FDEF
:104A000068B9606B094903685B689847606B08493F
:104A100003685B68984706B010BD0021E5E70146D2
:104A20002046FFF709F8F6E7A96400009675030031
:104A3000EF7503002DE9F04790B005AF0E46352322
:104A40000446154600212C2238460193FBF77AFCD8
:104A5000002E51DD2949286831F0D8F800284BD1C3
:104A600094F8EC90B9F1000F40D1012E44D0D5F864
:104A700004A0504631F0F1F83D283DD804F1ED088E
:104A80005146404631F0CCF82C2249463846FBF7D7
:104A900059FC0123022E8DF838300BD0A96809A8E3
:104AA0000DF01BFD18BB032E09D001A9E868FFF724
:104AB0007BFD03E0124909A80DF00FFDB8B9019B79
:104AC000ADF8363000238DF810300E4AD4F82C01A2
:104AD000CDF80880234602A9039702F084FF30B97D
:104AE000012384F8EC3010B0BDE8F08705200146C2
:104AF0002046FEF7A1FFF6E70720F8E7606F030006
:104B0000686F03003D5900004B1E012B2DE9F34156
:104B100005460F46164644D8D2F800802349404641
:104B200031F074F80446F8B9012F0BD16E6BD5F84B
:104B30002C0133685F6803F096FB02461C4930463F
:104B4000B8470AE001A97068FFF72EFD044620B9B6
:104B50000199D5F82C0103F08AFB21462846FEF77F
:104B60006BFF02B0BDE8F0811249404631F04EF8CB
:104B70000446C0B9012F07D16E6BD5F82C013368FC
:104B80005F6803F079FBD8E701A97068FFF70CFDB7
:104B900004460028E1D10199D5F82C0103F070FBFF
:104BA000DBE70624D9E70024D7E700BF40780300FD
:104BB000DD70030048780300F7B505460C4681B95F
:104BC000466BD0F82C0133685F6803F03FFC0C495A
:104BD00002463046B84721462846FEF72DFF03B06F
:104BE000F0BD01A91068FFF7DFFC04460028F2D1F0
:104BF0009DF80410D5F82C0103F02CFCEBE700BF66
:104C0000DD7003007FB50E1E0546144606DC072442
:104C100021462846FEF710FF04B070BD08220DEBB8
:104C200002012068FEF7D0FE002822DB012E11D100
:104C30000DF1030202A9D5F82C0103F0BAF80446DD
:104C40000028E4D1686B9DF8032003680A495B687B
:104C50009847DDE7606801A9FFF7A6FC0446002835
:104C6000D6D19DF80420D5F82C0102A903F0B2F8A2
:104C7000CEE70624CCE700BFDD700300F7B505469C
:104C80000C4681B9466BD0F82C0133685F6803F09D
:104C900001FC0C4902463046B84721462846FEF73B
:104CA000CBFE03B0F0BD01A91068FFF77DFC044600
:104CB0000028F2D19DF80410D5F82C0103F0EEFB8A
:104CC000EBE700BFDD700300F7B505460C4689B978
:104CD000466BD0F82C0133685F6802F0E5FF0C49A1
:104CE00002463046B847204601462846FEF7A4FE55
:104CF00003B0F0BD01A91068FFF756FC0028F3D1FE
:104D0000BDF80410D5F82C0102F0D2FFECE700BF8B
:104D1000E8700300F7B505460C4689B9466BD0F834
:104D20002C0133685F6803F032FC0C4902463046C0
:104D3000B847204601462846FEF77EFE03B0F0BD88
:104D400001A91068FFF730FC0028F3D19DF9041089
:104D5000D5F82C0103F020FCECE700BFDD70030068
:104D6000F7B505460C4699B9466BD0F82C01336867
:104D70005F6802F0B9FF4FF47A720D49B0FBF2F2AE
:104D80003046B84721462846FEF756FE03B0F0BD30
:104D900001A91068FFF708FC04460028F2D1019B26
:104DA000D5F82C014FF47A71594302F0A1FFE9E7DD
:104DB000DD700300002913B5044610DD01A9106859
:104DC000FFF7F2FB28B99DF80410D4F82C0103F08A
:104DD00071FB01462046FEF72FFE02B010BD0620F3
:104DE000F7E700002DE9F04F002987B0044640F3B3
:104DF0008B8015688049284630F008FF00282ED0A7
:104E00007E49284630F002FF00287FD1606B7C4944
:104E100003685B689847606B7A4903685B689847EA
:104E20000126DFF83092DFF830A200270DF10408E8
:104E30005FFA87FB42465946D4F82C0103F077FB12
:104E4000054670B1606B704903685B689847002540
:104E500029462046FEF7F0FD07B0BDE8F08F064674
:104E6000DFE79DF81430D90748D5606B03685B68AD
:104E7000002E45D09DF80E20DFF8E0B14946984756
:104E8000606BBDF80C20036851465B689847606B07
:104E90009DF80F2003685D495B689847606B9DF83B
:104EA000102003685A495B689847606B9DF8112091
:104EB000036858495B689847606B9DF81220036847
:104EC00055495B689847606B9DF813200368534908
:104ED0005B689847606B524903685B689847606BF2
:104EE00018F80520036859465B6801359847082D76
:104EF000F5D1606B4B4903685B689847013795E7CC
:104F00005A4649499847F9E70625A1E728466946E0
:104F1000FFF74AFB054600289AD101AF3A46BDF893
:104F20000010D4F82C0103F002FB054600288FD1B5
:104F3000606B9DF8142003683C495B6802F0010235
:104F400098479DF81430DA0782D5606B9DF80E20E3
:104F5000036837495B689847606BBDF80C200368AD
:104F600034495B689847606B9DF80F2003683249AD
:104F70005B6892029847606B9DF8142003682F4984
:104F80005B68C2F3400298479DF814309B077FF599
:104F90005FAF606B2A490368DFF8C0805B689847A1
:104FA0002E46606BBA5D036841465B6801369847E0
:104FB000082EF6D1606B144903685B689847606BF4
:104FC0009DF8102003681F495B689847606B9DF847
:104FD000112003681C495B689847606B9DF812209C
:104FE00003681A495B689847606B9DF81320036853
:104FF00017495B6898472BE7BE7E0300F36F0300F9
:10500000117203006472030009820300B772030087
:10501000BE720300C0700300C5720300A7700300D6
:105020005D7903005F72030049790300CC720300CD
:10503000FA770300E2700300D8720300E9720300FC
:10504000BD710300F4720300D3710300E971030022
:105050000072030061790300AE700300AF9A030091
:10506000F7B505460C4681B9466BD0F82C0133687C
:105070005F6803F03BFA0C4902463046B8472146C8
:105080002846FEF7D9FC03B0F0BD01A91068FFF770
:105090008BFA04460028F2D19DF80410D5F82C01B3
:1050A00003F028FAEBE700BFDD700300F7B5054613
:1050B0000C4681B9466BD0F82C0133685F6803F069
:1050C0001DFA0E4902463046B84721462846FEF7EB
:1050D000B3FC03B0F0BD01A91068FFF765FA044600
:1050E0000028F2D101994B1EFE2B05D8C9B2D5F884
:1050F0002C0103F007FAE8E70724E6E7DD70030078
:10510000F7B505460C4681B9466BD0F82C013368DB
:105110005F6803F0C7F90C4902463046B84721469C
:105120002846FEF789FC03B0F0BD01A91068FFF71F
:105130003BFA04460028F2D19DF80410D5F82C0162
:1051400003F0B4F9EBE700BFDD70030030B50029D0
:1051500085B0044620DD03A91068FFF725FAA8B939
:10516000039B01259D40606B0C4903685B68984771
:10517000606B0B4903685B6898470094094BD4F84F
:105180002C010022294602F053FE18B101462046A8
:10519000FEF752FC05B030BD0025E4E7967503002C
:1051A000EF750300A9640000F7B505460C4681B908
:1051B000466BD0F82C0133685F6802F06CFD0C4937
:1051C00002463046B84721462846FEF735FC03B074
:1051D000F0BD01A91068FFF7E7F904460028F2D1F5
:1051E0009DF90410D5F82C0102F059FDEBE700BF42
:1051F000CB980300F7B505460C4689B9466BD0F845
:105200002C0133685F6803F031F90C4902463046DF
:10521000B847204601462846FEF70EFC03B0F0BD15
:1052200001A91068FFF7C0F90028F3D1BDF80410F8
:10523000D5F82C0103F01FF9ECE700BFDD70030087
:105240002DE9F04702298AB007468946904644DD99
:1052500001A9506802F0B1FC054698B902240DF18D
:10526000140A4C45E6B213D0142C10D0694658F8F5
:105270002400FFF799F920B9009B04F80A300134A3
:10528000EFE7054629463846FEF7D6FB14E02646EA
:10529000D8F80040124912238DF814302046B31E6E
:1052A0008DF8153030F0B2FC48B9334605AA01A993
:1052B000D7F82C0103F059F80AB0BDE8F087094986
:1052C000204630F0A3FC0028DCD1334605AA01A912
:1052D000D7F82C0103F04EF8D4E70625D2E700BF3B
:1052E000C1780300347D030013B500220C4601A9E8
:1052F00030F0F2FD019B20601B78002B14BF0620CC
:10530000002002B010BD0000F7B505460C46A1B95B
:10531000466BD0F82C0133685F6802F05AFB4FF4FB
:105320007A720F49B0FBF2F23046B8472046014688
:105330002846FEF781FB03B0F0BD01290ED101A97B
:105340001068FFF7D1FF0028F1D1019BD5F82C019F
:105350004FF47A71594302F041FBE8E70720E6E792
:10536000DD700300F7B505460C4681B9466BD0F8F1
:105370002C0133685F6803F071F80B490246304630
:10538000B84721462846FEF757FB03B0F0BD01A9F8
:105390001068FFF7A9FF04460028F2D10199D5F85B
:1053A0002C0103F05FF8ECE7C47703002DE9F04F20
:1053B0000F1E99B00646144640F35181D2F8009072
:1053C000A849484630F022FC50B9D6F82C0102F02A
:1053D00017FA01463046FEF72FFB19B0BDE8F08FF3
:1053E000A149484630F012FC20B9D6F82C0102F051
:1053F0000CFAEEE79D49484630F008FC00283FD102
:10540000022F40F32C81A5689949284630F0FEFB15
:1054100008B3082210A92846FEF7D6FA082840F05B
:105420001E8110ADD4F804809249404630F0EEFB66
:10543000D0B9032F00F013817823042F09930CD1E6
:10544000099BE268D6F82C01294602F0E3F900280E
:10545000BFD10020BDE70546E4E709A92069FFF7B1
:1054600043FF0028B5D1EBE78349404630F0CEFB3F
:105470000028EED12946D6F82C0102F0D0F9E6E753
:105480007E49484630F0C2FB014638B9012FD6F8B4
:105490002C0118BF616802F0C8F99AE778494846BC
:1054A00030F0B4FB38BB042F40F3D98007A9606803
:1054B000FFF77AF800288CD108A9A068FFF774F8E4
:1054C000002886D109A9E068FFF76EF8002880D18E
:1054D00010AD2946206902F070FB00287FF479AFF7
:1054E000BDF824309DF8202000950799D6F82C01AE
:1054F00002F0A0F96DE76349484630F087FB0028C9
:1055000037D1052F40F3AB8006A96068FFF74CF850
:1055100000287FF45EAF07A9A068FFF745F80028D0
:105520007FF457AF08A9E068FFF73EF800287FF442
:1055300050AF09A92069FFF737F800287FF449AF79
:1055400010AD2946606902F038FB00287FF441AFB6
:105550004D490291BDF824100091BDF820309DF80E
:105560001C20039601950699D6F82C0102F067F9E4
:105570002FE74649484630F049FB10BB032F6EDD4C
:1055800008A96068FFF710F800287FF422AF09A986
:10559000A068FFF709F800287FF41BAF10A9E068A6
:1055A00002F00BFB00287FF414AF394B0093BDF8D9
:1055B0002010019610AB099AD6F82C0102F049F997
:1055C00007E73449484630F021FB0546002840F003
:1055D0009580DFF8D0A0DFF8D0B04FF00108474544
:1055E00040F385801F2D00F2428154F828902A490B
:1055F000484630F00BFB60B918AB05F101091D44BA
:10560000092305F8203C08F101085FFA88F84D46A7
:10561000E5E75146484630F0F9FA28B918AB05F1EC
:1056200001091D440B23ECE75946484630F0EEFAD9
:1056300028B918AB05F101091D440823E1E7174912
:10564000484630F0E3FA28B918AB05F101091D44CA
:105650001223D6E71249484630F0D8FA30B3062074
:10566000B7E600BF8D7C0300FF720300947803004F
:105670009B78030078760300827603009D78030010
:10568000AD780300B678030005650000277D0300B0
:1056900035650000BD780300C5780300E478030099
:1056A000F2780300CD780300D778030008F10108F1
:1056B0005FFA88F84745D2DD54F82830059318463C
:1056C00030F0CBFA0222013090FBF2F9C5F1200252
:1056D0004A45C0F0CC8010AB5919059B1FFA89F2DE
:1056E0001846FEF771F90028B9DBA9448BE7EAB246
:1056F00010A9D6F82C0102F0B4F86AE666494846CB
:1057000030F084FA8046002840F0B3801A2200214D
:1057100009A8FAF717FEDFF898B102256B1EDBB275
:105720009F4240F39B80B8F11F0F00F3A08054F814
:1057300023905A49484630F069FAA8B9AF428EDD45
:105740009DF83C3054F8250043F0010308A98DF87A
:105750003C30FEF729FF00287FF43BAE089BADF8F4
:1057600024300235EDB2D9E74D49484630F04EFAC3
:10577000A0B9AF427FF773AF9DF83C3054F82500D5
:1057800043F0020308A98DF83C30FEF70DFF002816
:105790007FF41FAE089BADF82630E2E75946484635
:1057A00030F034FA824608BBAF427FF758AF9DF81D
:1057B0003C3054F8259043F0040348468DF83C30C3
:1057C00030F04BFA01304FEA5008B8F1100F4ED8C4
:1057D0001FFA88F20DF129014846FEF7F5F8002876
:1057E000FFF63DAF8DF82880D046BAE72D494846F0
:1057F00030F00CFAA0B9AF427FF731AF9DF83C30E2
:1058000054F8250043F0080308A98DF83C30FEF752
:10581000CBFE00287FF4DDAD089BADF83A30A0E761
:105820002149484630F0F2F900287FF418AFAF4222
:105830007FF715AF54F82590484630F00EFA013046
:105840004FEA5008B8F1200F11D81FFA88F210A9BA
:105850004846FEF7B9F8002883DA00E75FFA88F3D4
:1058600010AA09A9D6F82C0102F000F8B1E503202E
:10587000AFE50B49484630F0C9F900287FF4E9AD9F
:10588000756BD6F82C012B685F6801F0F4FF0749AF
:1058900002462846B847DCE5F9780300C5780300DE
:1058A000CD780300E4780300F2780300DD70030094
:1058B000D77803002DE9F0410546406B88B0984643
:1058C00003689DF838605B6814460A461949984792
:1058D00056BB686B668822880768CDF81880E38914
:1058E0005BBA9BB20593A3895BBA9BB204936389AD
:1058F0005BBA9BB20393218949BA89B20291E188CC
:1059000049BA89B20191A18849BA89B2009176BA9F
:1059100052BA7C680849B3B292B2A047002385F816
:10592000EC3008B0BDE8F08131462846FEF784F837
:10593000F4E700BFA1760300B876030010B49DF829
:10594000044001945DF8044BFFF7B4BF10B5002983
:1059500086B0044614DD6946106802F02EF968B975
:1059600040238DF810309DF81130D4F82C0143F00D
:10597000030369468DF8113002F0EAF806B010BD55
:105980000620FBE700291FB504460BDD69461068B9
:1059900002F013F920B96946D4F82C0102F0DDF8C1
:1059A00004B010BD0620FBE7F0B5054687B01646EB
:1059B0000C46002933D1D0F82C01254E02F0C4F852
:1059C00004463CB900200146284607B0BDE8F04037
:1059D000FEF732B8E189686B63882288076849BAA4
:1059E00089B20591A18949BA89B20491618949BAFC
:1059F00089B20391218949BA89B20291E18849BAF1
:105A000089B20191A18849BA89B200915BBA52BAB0
:105A10007F689BB292B23146B8476469D1E7176894
:105A20000C49384630F0F2F828B9321D611E28467C
:105A3000FFF78CFFC7E70849384630F0E7F8002841
:105A4000C0D1321D611E2846FFF79CFFBBE700BF97
:105A50007B710300787603009571030000291FB560
:105A600004460BDD6946106802F0A7F820B96946C4
:105A7000D4F82C0102F07AF804B010BD0620FBE740
:105A800000291FB504460BDD6946106802F095F841
:105A900020B96946D4F82C0102F06DF804B010BDAD
:105AA0000620FBE770B505460E4681B9D0F82C01FB
:105AB00002F066F80446686B03685B6824B10F491E
:105AC00098473446204670BD0D499847FAE7166856
:105AD0000C49304630F09AF8044628B90121D5F82F
