:020000022000DC
:1020000000000420D5F90200FDF90200F56A020083
:1020100001FA020003FA020005FA020000000000C3
:10202000000000000000000000000000A52A0200DF
:1020300009FA020000000000C52A02000DFA0200A1
:10204000656F0200CD1905006D0805000FFA02004A
:102050000FFA02000FFA02002D7402000FFA0200BC
:102060000FFA02000FFA02000FFA02000FFA020044
:102070000FFA02000FFA02000FFA02000FFA020034
:102080000FFA0200CD2B02000FFA02000FFA020035
:102090000FFA02000FFA0200CD070300CD2F050052
:1020A0000FFA02000FFA02000FFA02000FFA020004
:1020B0000FFA02000FFA020000000000000000000A
:1020C0000FFA02000FFA02000FFA02000FFA0200E4
:1020D000810505000FFA02000FFA02000FFA020054
:1020E000197B02000FFA02000FFA02000FFA020039
:1020F000000000000FFA02000000000000000000D5
:1021000000000000000000000000000000000000CF
:1021100000000000000000000000000000000000BF
:1021200000000000000000000000000000000000AF
:10213000000000000000000000000000000000009F
:10214000000000000000000000000000000000008F
:10215000000000000000000000000000000000007F
:10216000000000000000000000000000000000006F
:10217000000000000000000000000000000000005F
:10218000000000000000000000000000000000004F
:10219000000000000000000000000000000000003F
:1021A000000000000000000000000000000000002F
:1021B000000000000000000000000000000000001F
:1021C000000000000000000000000000000000000F
:1021D00000000000000000000000000000000000FF
:1021E00000000000000000000000000000000000EF
:1021F00000000000000000000000000000000000DF
:1022000010B5054C237833B9044B13B10448AFF330
:1022100000800123237010BD9830002000000000D2
:1022200044D30600084B10B51BB108480849AFF36A
:1022300000800848036803B910BD074B002BFBD092
:10224000BDE81040184700BF0000000044D306005E
:102250009C3000208030002000000000154B002B37
:1022600008BF134B9D46A3F5803A00218B460F46CD
:102270001348144A121A00F065F80F4B002B00D0D7
:1022800098470E4B002B00D09847002000210400F7
:102290000D000D48002802D00C48AFF3008000F07C
:1022A0002BF82000290007F00BFA00F011F800BF0E
:1022B00000000800000004200000000000000000F2
:1022C000983000201C4E012000000000000000009B
:1022D00008B5074B044613B10021AFF30080054B4E
:1022E0001868836A03B19847204600F033F800BFAE
:1022F00000000000184E060070B50E4B0E4CE41A9C
:10230000A41000251E46A54204D056F82530984753
:102310000135F8E742F072FD084C094BE41AA410AD
:1023200000251E46A54204D056F8253098470135B1
:10233000F8E770BD78300020783000207C30002035
:102340007830002002440346934202D003F8011B78
:10235000FAE77047FEE700BF2DE9F04F1546C7B01A
:102360001C46002900F01C81002B00F0EF800A239E
:1023700001930023194606AE519B539A519F03EBDC
:10238000020B019B013B059320258C4601980CEB29
:10239000000304933133F318029306EB0C03002877
:1023A0005FD05A4202F00302824228BF024606284A
:1023B00000F2EC80019A06F80C50012A03F10101A9
:1023C00000F0E280022A5D7003F1020100F0DC807F
:1023D000032A9D7003F1030100F0D680042ADD700A
:1023E00003F1040100F0D080062A1D7103F10501FC
:1023F00040F0D3805D71991D9646019890422ED091
:10240000C2EB0009A9F1040080080130039005988F
:10241000C2EB000A0398BAF1020F4FEA800812D902
:10242000624401284FF0203C06EB020A46F802C045
:1024300005D00228CAF804C001D0CAF808C0C845AF
:102440004144C6440BD001980D700EF10102904238
:1024500005D90EF1020E70454D7000D98D70019AAC
:102460001344534A0299D2F80080DDF84891DA1CEF
:10247000481C03F1330C0CE002F8035C02F8025C28
:1024800002F8015C0332624500F8015C00F10100D2
:1024900033D0A345F0D9A74295BFE11B509919F855
:1024A0000110095D02F8015C4FEA211E5FFA8EFA05
:1024B000BEF1090F01F00F0ED4BF0AF1300A0AF184
:1024C000370ABEF1090F02F803AC94BF0EF1300ECB
:1024D0000EF1370E08EB010A02F802EC9AF801E05F
:1024E00003321EF0970F08BF2E21624500F8011C31
:1024F00004F1010400F10100CBD1029804990D22EE
:102500004FF00A0801F14309027480F8118083F842
:10251000305023464FF0000A4C46994606EB0A011C
:102520002246002007F050F98244241A10B9B8F16D
:10253000010801D0002CF1D1CB454C464FF0000CE6
:102540003FF624AF204647B0BDE8F08F06AE0B68DB
:10255000184A30464FF4807141F0B6FC0028F1DB98
:102560000A2307460193284641F015FDC22828BFDB
:10257000C220804629460246F01941F013F908EBC3
:10258000070300241946F7E6964636E7002A7FF44B
:1025900012AF19469646019832E74FF0050E2CE728
:1025A00013B1019106AEE7E60194274606AEDAE7DD
:1025B000743000201C4E06002DE9F0419046C6B054
:1025C0001F46C1B106AE0B68564A30464FF48071C3
:1025D00041F07AFC00280ADB4C9B0546062B00F2F2
:1025E0009F80DFE803F042525D6A798A1400002080
:1025F00046B0BDE8F0814C9B062B00F28F80DFE8EF
:1026000003F033424D5A697A0400002506AE07F103
:102610000C017A683B68D7F808C092C9701900921B
:10262000029103944246CDF804C00497C5F5807129
:1026300041F04AFC0446002CD9DB2C44B4F5807FE1
:10264000D5D80A27002506AE71192246002007F0CA
:10265000BBF80544241A08B9013F01D0002CF3D17E
:10266000012046B0BDE8F0810025404641F093FCD2
:102670004319FF2B0446DED806AE414670192246A8
:1026800041F090F8D7E7002506AE701942463B6846
:10269000C5F5807141F018FC0446CCE7002506AE74
:1026A0007A683B68009270194246C5F5807141F026
:1026B0000BFC0446BFE7002506AE7A68B9683B68A4
:1026C0000092019170194246C5F5807141F0FCFB02
:1026D0000446B0E7002506AE7A68BC68F9683B6836
:1026E00000920194029170194246C5F5807141F043
:1026F000EBFB04469FE7002506AE07F108017A6868
:102700003B6892C970190092019102944246039766
:10271000C5F5807141F0D8FB04468CE7002490E7B2
:1027200000248AE71C4E060070B5074C074D23783D
:10273000064613B12B78834204D007F089F90123B0
:102740002E702370002070BDB5300020B430002002
:1027500000487047B925020000487047592302001D
:1027600038B50120FFF7E0FF044638B9FFF7F0FF66
:102770000546FFF7F1FF024B5D619861204638BDC9
:10278000B830002010B5054C82B00A4600216469BB
:1027900000910B46A04702B010BD00BFB83000202A
:1027A00030B585B004AB054C43F8042D01250A462D
:1027B000646900950021A04705B030BDB830002005
:1027C00030B5064C85B00225029203930A4664692F
:1027D0000095002102ABA04705B030BDB830002005
:1027E00070B586B0064C0A9E039203250A460493F0
:1027F000646905960095002103ABA04706B070BD43
:10280000B8300020084B1B5C1F2B8ABF074A4FF0D3
:10281000A04203F01F03D2F80405D84000F00100E5
:1028200080F00100704700BF284E060000030050F2
:10283000074B1B5C1F2B86BF03F01F0305494FF09E
:10284000A041012202FA03F3C1F80C35704700BF22
:10285000284E060000030050064B1A5C1F2A86BF54
:1028600002F01F0204494FF0A04101239340C1F838
:1028700008357047284E0600000300504FF0A04373
:1028800010B44FF480404FF400544FF400414FF423
:102890008032C3F80845C3F80805C3F80815C3F823
:1028A00008255DF8044B70474FF0A04310B44FF477
:1028B00080404FF400544FF400414FF48032C3F88D
:1028C0000C45C3F80C05C3F80C15C3F80C255DF8CE
:1028D000044B70470A4B195C1F298ABF09484FF007
:1028E000A04001F01F01D0F8043501228A4022EAFD
:1028F00003011340C0F80815C0F80C35704700BF3D
:10290000284E06000003005030B44FF0A0430322CD
:102910004FF400554FF480444FF400404FF48031A1
:10292000C3F83427C3F83827C3F83C27C3F8402737
:10293000C3F80855C3F80845C3F80805C3F80815D7
:1029400030BC7047084B1B5C1F2B8ABF074A4FF0F7
:10295000A04203F01F03D2F81005D84000F0010098
:1029600080F00100704700BF244E060000030050B5
:102970000B2809D00C2809D0182809D0192814BF11
:102980004FF0FF3003207047002070470120704750
:102990000220704738B5430704461CBF20F00704E7
:1029A000083401F085F80E4B1D689DB10D4A13687F
:1029B00043F2F7711C448C4207D8A34205D21D4450
:1029C000146001F017F9284638BD002501F012F90E
:1029D000284638BD044D25F007051D60E6E700BF19
:1029E000D8300020D4300020E4300020704700BFF1
:1029F00000F108034FF0FF310022816080E80C00F5
:102A0000C3600361704700BF00230361704700BFCC
:102A100043684B609A688A609A685160996008615F
:102A2000036801330360704730B40D686B1C11D02C
:102A300000F1080200E01A4653681C68A542FAD269
:102A40004B6099608A6051600861036801330360DC
:102A500030BC704702695368F2E700BF4268816882
:102A6000036991608268416851605A68824204BF7C
:102A700082685A6000220261186801381860704745
:102A80000748006880F3088862B661B6BFF34F8FCD
:102A9000BFF36F8F4FF4F07080F3118800DF00BF39
:102AA00000200200064B19680868B0E8F04F80F378
:102AB0000988BFF36F8F4FF0000080F311887047D3
:102AC00070690020EFF30980BFF36F8F144B1A6811
:102AD0001EF0100F08BF20ED108A20E9F04F1060A3
:102AE0004DF8043D4FF0200080F31188BFF34F8F65
:102AF000BFF36F8F01F098F94FF0000080F3118859
:102B000008BC19680868B0E8F04F1EF0100F08BF45
:102B1000B0EC108A80F30988BFF36F8F704700BF55
:102B200070690020202383F31188FEE730B46FF032
:102B300002034FF08075074C40F8081C40F8202C29
:102B400040F8045C40F80C4C40F8243C30BC44385D
:102B5000704700BF252B02000F4C08B5E02384F816
:102B6000223000F073F80D4B0D4A00211960D4F8A3
:102B7000883043F47003C4F88830536843F040430E
:102B80005360236943F010032361FFF779FF20238B
:102B900083F31188FEE700BF00ED00E0DC68002051
:102BA00030EF00E0202383F31188024A13680133D9
:102BB00013607047DC680020034A1368013B136010
:102BC0000BB983F311887047DC68002070B582B0C0
:102BD000EFF31186202383F311881749174B184A06
:102BE000D3F8043500200860096800910099116845
:102BF000C9B9144A146803EB046400F061FF201A99
:102C00000DD00446002500F067FF013C45EA0005B1
:102C1000F9D125B10C4B4FF080525A6040BF86F37A
:102C2000118802B070BD10601168064A01910199C7
:102C3000116801311160DDE7001101400010014011
:102C400004110140E068002000ED00E0F8B500202C
:102C500004F090F80A4E0B4B0B4901221F27022566
:102C6000E0244FF40030C3F80875C3F80423326041
:102C70001A60C3F8445381F811430860F8BD00BFDF
:102C8000081001400010014000E100E070B5064668
:102C90000D4651B300FB01F04D30FFF77BFE0446BB
:102CA00000F14C0340B32360E6632564FFF77AFF2D
:102CB000226CE36B2168A16003FB02F39A1A0A44B9
:102CC0000B4400204FF0FF31A063E2606164636059
:102CD00004F11000A164FFF78BFE04F12400FFF75C
:102CE00087FEFFF769FF204670BD4C20FFF752FEBC
:102CF000044603460028D6D10024F4E72DE9F04726
:102D0000044684B01D4601928846FFF74BFFA26B34
:102D1000E36BA64F4FF000099A424E4670D3022D46
:102D200000F0EF800198002800F04281B9F1000F17
:102D30007AD0FFF741FF00F0BBFEFFF733FF636C73
:102D4000013308BF6664A36C013308BFA664FFF7B4
:102D500033FF02A801A901F063F9002840F0E280E6
:102D6000FFF720FFA36BE26B9A4261D0FFF724FFCD
:102D7000FFF718FFA36C002B14DD636A93B104F115
:102D8000240907E0A36C013BA364A36C002B09DDBD
:102D9000636A3BB1484601F0FDF80028F2D001F02B
:102DA0006FF9EFE74FF0FF33A364FFF705FFFFF77D
:102DB000F9FE636C002B14DD236993B104F1100953
:102DC00007E0636C013B6364636C002B09DD2369DE
:102DD0003BB1484601F0DEF80028F2D001F050F98E
:102DE000EFE74FF0FF336364FFF7E6FE00F002FF0A
:102DF000FFF7D8FEA26BE36B9A424FF001098ED227
:102E0000226C002A63D12568002D00F0F780A36BA7
:102E1000626A0133A363002A40F0DF80FFF7CCFE33
:102E2000012004B0BDE8F08702A801F0EDF880E7CA
:102E300004F11009FFF7C0FE4846019901F020F89F
:102E4000FFF7B0FEA36C002B14DD636A93B104F1AD
:102E5000240A07E0A36C013BA364A36C002B09DDEB
:102E6000636A3BB1504601F095F80028F2D001F0BA
:102E700007F9EFE74FF0FF33A364FFF79DFEFFF77D
:102E800091FE636C002B06DC0FE0636C013B636416
:102E9000636C002B09DD23693BB1484601F07AF8E9
:102EA0000028F2D001F0ECF8EFE74FF0FF33636455
:102EB000FFF782FE00F09EFE002899D14FF080536C
:102EC0007B6040BFBFF34F8FBFF36F8F90E74146EA
:102ED000002D74D0E06840F065FC236CE268216846
:102EE0005B421A448A42E26002D262681344E360A1
:102EF000022D8CD1A36B002B89D0A36B013BA36364
:102F000085E7226C002A3FF47EAF4146E06840F03E
:102F100049FC236CE26821685B421A448A42E26001
:102F2000E3D3E7E7FFF73EFEA36C002B14DD636AF3
:102F300093B104F1240507E0A36C013BA364A36CE7
:102F4000002B09DD636A3BB1284601F023F8002815
:102F5000F2D001F095F8EFE74FF0FF33A364FFF7ED
:102F60002BFEFFF71FFE636C002B14DD236993B16A
:102F700004F1100507E0636C013B6364636C002B94
:102F800009DD23693BB1284601F004F80028F2D09E
:102F900001F076F8EFE74FF0FF336364FFF70CFEC4
:102FA00000F028FE002004B0BDE8F08700ED00E04E
:102FB0000090FFF701FE009804B0BDE8F087A0681C
:102FC00040F0F0FBA168236C62680B449342A3605D
:102FD000FFF41DAF2368A36019E704F1240000F09B
:102FE000D9FF01287FF41AAF0B4B4FF080525A6083
:102FF00040BFBFF34F8FBFF36F8F0FE7606801F0E3
:10300000A3F8A36B626A65600133A363002AE4D16D
:103010000028E9D102E700BF00ED00E0F8B5044662
:1030200017461D46EFF31186202383F31188826B28
:10303000C36B9A4205D3022D2DD0002086F3118850
:10304000F8BD026C7AB92568002D4ED0A36B013310
:10305000A363A36C01333AD0A36C0133A3640120B2
:1030600086F31188F8BD2DB3C06840F09BFB236C3C
:10307000E26821685B421A448A42E26002D26268D6
:103080001344E360022DE1D1A36B002BDED0A36BD0
:10309000013BA363DAE7026C002AD4D0C06840F099
:1030A00081FB236CE26821685B421A448A42E26039
:1030B000E5D3E9E7806840F075FBA168236C62689E
:1030C0000B449342A360C1D32368A360BEE7636A45
:1030D000002BC4D004F1240000F05CFF0028BED017
:1030E000002FBCD001203860A8E7606801F02CF800
:1030F0006560ABE738B5EFF31184202383F31188C3
:10310000826BC36B9A420CD2836B01338363836CF3
:1031100001330AD0836C01338364012084F3118866
:1031200038BD002084F3118838BD436A002BF4D0E9
:1031300024300D4600F02EFF0028EED0002DECD0FC
:1031400001202860EAE700BF2DE9F047044684B07B
:103150009A4688460192FFF725FDA36BA34E0027F0
:103160003D46002B7AD10198002800F0F380002F13
:1031700000F0DC80FFF720FD00F09AFCFFF712FD65
:10318000636C013308BF6564A36C013308BFA56499
:10319000FFF712FD02A801A900F042FF002840F04D
:1031A000E080FFF7FFFCA36B002B40F08480FFF76B
:1031B00003FD2368002B00F0C58004F12409484674
:1031C000019900F05DFEFFF7EDFCA36C002B06DC1F
:1031D0000FE0A36C013BA364A36C002B09DD636AC1
:1031E0003BB1484600F0D6FE0028F2D000F048FF80
:1031F000EFE74FF0FF33A364FFF7DEFCFFF7D2FCED
:10320000636C002B14DD236993B104F1100907E00E
:10321000636C013B6364636C002B09DD23693BB184
:10322000484600F0B7FE0028F2D000F029FFEFE793
:103230004FF0FF336364FFF7BFFC00F0DBFC38B9ED
:103240004FF08053736040BFBFF34F8FBFF36F8F5A
:10325000FFF7A8FCA36B0127002B84D0226CE56844
:103260004AB16368A9189942E16024BF2168E1600E
:10327000404640F097FABAF1000F40F0B980A36BD6
:103280002268013BA363002A00F0C3802369002B5E
:1032900000F0B18004F1100000F07CFE012840F045
:1032A000AA80524B4FF080525A6040BFBFF34F8FFD
:1032B000BFF36F8F9FE0FFF77FFCFFF773FCA36CFA
:1032C000002B14DD636A93B104F1240907E0A36CB9
:1032D000013BA364A36C002B09DD636A3BB1484644
:1032E00000F058FE0028F2D000F0CAFEEFE74FF0E1
:1032F000FF33A364FFF760FCFFF754FC636C002B03
:1033000018DD2369B3B104F1100907E0636C013BD8
:103310006364636C002B0DDD23695BB1484600F0EC
:1033200039FE0028F2D000F0ABFEEFE702A800F073
:103330006BFE1FE74FF0FF336364FFF73DFC00F0C7
:1033400059FC85E7FFF72EFC606800F0AFFEFFF741
:1033500033FC32E70090FFF72FFC009804B0BDE883
:10336000F087FFF71FFCA36C002B14DD636A93B199
:1033700004F1240507E0A36C013BA364A36C002BBC
:1033800009DD636A3BB1284600F004FE0028F2D054
:1033900000F076FEEFE74FF0FF33A364FFF70CFC7D
:1033A000FFF700FC636C002B14DD236993B104F17B
:1033B000100507E0636C013B6364636C002B09DD5F
:1033C00023693BB1284600F0E5FD0028F2D000F06B
:1033D00057FEEFE74FF0FF336364FFF7EDFB00F0BC
:1033E00009FC002004B0BDE8F08700BF00ED00E05C
:1033F000636AE5602BB9FFF7DFFB012004B0BDE88D
:10340000F08704F1240000F0C5FD00287FF449AFE7
:10341000F1E700F0DBFE606038E700BF10B4074B57
:103420001A682AB19A6812B15DF8044B70470122FC
:1034300003EBC20443F832106060F5E7B0340120BA
:1034400038B504460D46FFF7ADFB636C013304BF8E
:1034500000236364A36C013304BF0023A364FFF75C
:10346000ABFBA36B23B9294604F1240000F052FD05
:10347000FFF798FBA36C002B14DD636A93B104F192
:10348000240507E0A36C013BA364A36C002B09DDBA
:10349000636A3BB1284600F07DFD0028F2D000F0C1
:1034A000EFFDEFE74FF0FF33A364FFF785FBFFF776
:1034B00079FB636C002B14DD236993B104F11005D3
:1034C00007E0636C013B6364636C002B09DD2369D7
:1034D0003BB1284600F05EFD0028F2D000F0D0FDA0
:1034E000EFE74FF0FF336364BDE83840FFF764BB9C
:1034F0002DE9F84F0C9C0B9E81468A46154698464E
:103500002746002C00F097804820FFF743FA044636
:10351000002800F09B80AD002A460763A5213846AD
:10352000FEF710FF9AF80030226B84F83430043D27
:103530009AF80030154425F0070553B19AF8013088
:1035400084F835309AF801301BB19AF8023084F8CB
:1035500036300A9B032B28BF0323002704F1040AFB
:10356000E362A363504684F83770E7639B46FFF736
:103570004BFA04F11800FFF747FACBF10403276474
:10358000A361246184F84470646228464946424637
:10359000FFF7CCFA206006B13460FFF703FB404A26
:1035A000404D1368013313602B68002B3CD0DFF8CB
:1035B0002881D8F800306BB3DFF820E13A4EE36A97
:1035C000DEF800003768394A012404FA03FC03EBF3
:1035D00083034CEA000C514602EB83003A19CEF803
:1035E00000C03260FFF714FAFFF7E6FAD8F80030AF
:1035F000BBB12B680A9ADB6A9A4212D92C4B4FF066
:1036000080525A6040BFBFF34F8FBFF36F8F204689
:10361000BDE8F88F2B680A9ADB6A9A4228BF2C60B3
:10362000CAE72046BDE8F88F2C601368012B11D043
:10363000DFF8A480C0E79000FFF7ACF90746002848
:103640007FF462AF4FF0FF30BDE8F88F3846FFF7E8
:10365000CDF9F7E71548DFF88890164EDFF8788047
:10366000FFF7C6F91448FFF7C3F91448FFF7C0F98C
:103670001348FFF7BDF94846FFF7BAF93046FFF7A0
:10368000B7F91048FFF7B4F90F48FFF7B1F90F4841
:10369000FFF7AEF90E4A0F4BC2F800901E608BE7A1
:1036A000C469002070690020946900201C69002012
:1036B00000ED00E0AC690020306900204469002082
:1036C0005869002074690020F4680020086900200F
:1036D000E868002090690020EC680020C86900209C
:1036E0009869002038B5124B1B68984218D00546DF
:1036F000FFF758FA6C69FFF75FFA0E4B1B689C42A4
:103700000CD00D4B1B689C4208D00C4B9C4209D03E
:103710000B4884420CBF0420012038BD022038BD74
:10372000002038BDAB6A002B0CBF0320022038BD3F
:1037300070690020E8680020906900200869002076
:10374000F4680020F8B504463D4EFFF72BFA002C34
:103750004ED0251D2846FFF781F930B9E36A394A72
:1037600003EB830152F82120A2B1A36A1BB104F13B
:103770001800FFF773F9344F29463846FFF748F928
:10378000FFF71AFA33682E4A9C42304B1B6822D04E
:103790004BB9F8BD2E480121026801FA03F322EA71
:1037A00003030360E1E7FFF7FDF92A4B1A6812688B
:1037B0004AB11A68284BD268D26852681A60BDE8CC
:1037C000F840FFF7F9B9244B4FF0FF321A60BDE81B
:1037D000F840FFF7F1B96BB92049386809688842A9
:1037E0002BD01F4B1B687BB11E4B01221A60F8BD0A
:1037F0003468AEE71C4B4FF080525A6040BFBFF3B5
:103800004F8FBFF36F8FF8BD1649114A0B601368D5
:10381000B3FA83F3C3F11F030A4803EB83039B004E
:10382000C11808334A6852684A6003449A4204BF88
:1038300052684A60D3683360F8BD1360F8BD00BFBA
:10384000706900201C69002008690020EC680020D5
:10385000C8690020E8680020BC2F0020C46900204F
:103860006C690020CC69002000ED00E000283BD00E
:103870002DE9F0411D4D2B6898420AD00446FFF710
:1038800091F91B4B62699A4205D0BDE8F041FFF700
:1038900093B9BDE8F081A36A164A9342F5D0002B94
:1038A000F3D104F10408144F4046FFF7D7F8E36A58
:1038B0003E68124801229A4003EB8303324300EB37
:1038C000830041463A60FFF7A3F82B68E26ADB6A9F
:1038D0009A42DAD30A4B4FF080525A6040BFBFF38E
:1038E0004F8FBFF36F8FD0E7704700BF7069002024
:1038F0000869002074690020C86900201C69002044
:1039000000ED00E02DE9F843F020FFF743F805460D
:10391000002875D04820FFF73DF80446002877D0EE
:103920000563A5212846F022FEF70CFD206B4D4FC4
:103930000025492144224C2304F1040884F8341062
:1039400084F8352084F8363000F1EC0684F83750DE
:103950004046E562A563E563FFF756F804F11800F9
:10396000FFF752F826F0070604232A462564A361D0
:103970003D4984F84450304624616462FFF7D6F82C
:103980003A4B20601C60FFF70DF9394A1368013388
:1039900013603B68002B35D0364E33681BB93B684B
:1039A000DB6A03B93C60DFF8FCC0DFF8FCE0E36AE7
:1039B000DCF80050DEF800202F4801249C4003EB87
:1039C000830300EB8300013241462C43CCF80040D6
:1039D000CEF80020FFF71CF8FFF7EEF8336803B1CC
:1039E0003B6800F0FFFB01280AD1202383F31188F4
:1039F000224B306000221A60BDE8F843FFF7ACB8F4
:103A0000BDE8F8833C601368012B06D0194ECAE765
:103A10002846BDE8F843FEF7E9BF1748DFF88C9069
:103A2000174D144EFEF7E4FF1648FEF7E1FF164867
:103A3000FEF7DEFF1548FEF7DBFF4846FEF7D8FF2E
:103A40002846FEF7D5FF1248FEF7D2FF1148FEF7D1
:103A5000CFFF1148FEF7CCFF104A114BC2F800907F
:103A60001D60A0E770690020893D02008869002080
:103A7000C4690020EC6800201C6900208C690020CB
:103A8000AC6900203069002044690020586900209A
:103A900074690020F468002008690020E8680020AC
:103AA00090690020C869002094690020986900206E
:103AB000024A136801331360704700BF6C6900202D
:103AC000014B1868704700BF8C690020014B1868D3
:103AD000704700BF8C6900202DE9F04F3A4B1B68FE
:103AE00083B0002B43D1394B1A6801321A601F682A
:103AF000002F4AD0364B01931B689F423BD3DFF81F
:103B0000E480344EDFF8E890C246002525E0DAF87C
:103B10000030DB68DC68636804F1040B9F425846A0
:103B200022D3FEF79BFFA36A04F118000BB1FEF746
:103B300095FFE06A33680122824000EB8000134366
:103B4000594609EB80003360FEF762FF224BE26AC0
:103B50001B68DB6A9A4228BF0125D8F800301B6831
:103B6000002BD4D14FF0FF33019A136004E01B4ABD
:103B70001368013313600025194B1B68002B18BF15
:103B80000125284603B0BDE8F08F164B164A186889
:103B9000164914681C6010600A6801320A601A68CD
:103BA00012683AB90A4B01931A464FF0FF3313607B
:103BB0001346A1E71B68064ADB680192DB685B6875
:103BC0001360134698E700BF6C6900208C690020E1
:103BD000BC2F0020C869002070690020C069002047
:103BE000CC690020E868002090690020E46800208B
:103BF0001C6900202DE9F84FFEF7D4FF314B1A68FD
:103C0000013A1A601B68002B47D12F4B1B68002B11
:103C100043D0DFF8C8B02D4FDFF8C490DFF8C48080
:103C2000DA4620E0DAF80C30DC68251D04F11800D3
:103C3000FEF714FF2846FEF711FFE06A3B6806FA1C
:103C400000FE00EB80004EEA0303294609EB8000EA
:103C50003B60FEF7DDFED8F80030E16ADB6A99428E
:103C600024BF1B4B1E60DBF800300126002BD9D18E
:103C7000184C23686BB123685BB10125FFF72CFF5B
:103C800008B1134B1D602368013B23602368002BA0
:103C9000F4D10F4B1C68012C05D00024FEF78CFFDB
:103CA0002046BDE8F88F0C4B4FF080525A6040BF61
:103CB000BFF34F8FBFF36F8FFEF77EFF2046BDE847
:103CC000F88F00BF6C690020C4690020C86900201B
:103CD000CC690020C069002000ED00E0746900207C
:103CE0001C6900207069002070B548B91E4B4FF068
:103CF00080525A6040BFBFF34F8FBFF36F8F70BDCC
:103D00001A491B4D0A681B4E01320A6003462C6893
:103D1000306804301C44FEF7A1FE40B933681649F0
:103D2000D86A0A680123834022EA03030B603268E1
:103D30002B6854609C420F4A0FD3104B18681168CF
:103D40000431FEF771FE0E4B1A68944238BF1C60B6
:103D5000FFF750FF0028C9D070BD0A4B18681168E2
:103D60000431FEF761FEF3E700ED00E06C6900202E
:103D70008C69002070690020C8690020E868002074
:103D8000BC2F002090690020214E224D224CDFF8EC
:103D90009080DFF890902DE98848B24606E02368CD
:103DA000376801332360FFF725FF97B92B68002B95
:103DB000F5D1D9F80030194A012B07D94FF08053BB
:103DC000536040BFBFF34F8FBFF36F8F05F068FCA8
:103DD000ECE7FEF7E7FEDAF80C30D3F80CB00BF1A5
:103DE0000400FEF73BFED8F800300A4A013BC8F851
:103DF0000030084B1B68013B1360FEF7DDFEDBF86B
:103E00003000FEF7F3FD5846FEF7F0FDCEE700BFA9
:103E1000F4680020F06800206C69002000ED00E0EC
:103E2000C46900201C690020104B1B68CBB91049E5
:103E3000104A0B601368B3FA83F3C3F11F030E48F3
:103E400003EB83039B00C11808334A6852684A6039
:103E500003449A4204BF52684A60084BD2681A6011
:103E60007047034B01221A60704700BF6C69002045
:103E7000CC690020C86900201C69002070690020FE
:103E800038B51D4D2B680C4603F11801FEF7CCFD2B
:103E900028680430FEF7E2FD40B92B681749D86A5C
:103EA0000A680123834022EA03030B60631C1CD0D1
:103EB000134A11491368286812681C4494424460EC
:103EC0000BD3104B186809680431FEF7ADFD0E4B9B
:103ED0001A68944238BF1C6038BD0C4B18680968DA
:103EE000BDE838400431FEF79FBD29680848043119
:103EF000BDE83840FEF78CBD70690020C86900201D
:103F00008C690020E8680020BC2F00209069002008
:103F10000869002038B5194D2B680C4603F11801CB
:103F2000FEF776FD28680430FEF798FD40B92B684F
:103F30001349D86A0A680123834022EA03030B600D
:103F4000104A0E491368286812681C449442446061
:103F50000BD30D4B186809680431FEF765FD0B4B58
:103F60001A68944238BF1C6038BD094B186809684C
:103F7000BDE838400431FEF757BD00BF706900202E
:103F8000C86900208C690020E8680020BC2F002050
:103F900090690020F8B5C368DC6804F1180528466C
:103FA000FEF75CFD124B1B68EBB9271D114E38461E
:103FB000FEF754FDE36A35680F4801229A4003EB8F
:103FC00083032A43394600EB83003260FEF720FD6D
:103FD0000A4BE26A1B68DB6A9A4283BF084B0120E6
:103FE00018600020F8BD29460648FEF711FDEFE7EE
:103FF0006C690020C86900201C69002070690020DD
:10400000CC69002074690020034A044B12681B68C5
:1040100080E80C00704700BFE46800208C69002035
:10402000F8B50D460446FEF7BDFD2B6812495A1C33
:1040300008681BD0114E276832689742626801D029
:1040400090420ED2871ABB420BD91B1A1344306818
:104050000A682B6084E805000025FEF7ADFD2846C0
:10406000F8BD0125FEF7A8FD2846F8BD0025FEF79E
:10407000A3FD2846F8BD00BF8C690020E46800203D
:10408000014B01221A607047CC690020054B1B6868
:1040900033B1054B1B68002B0CBF0220002070477A
:1040A00001207047EC6800206C690020002842D095
:1040B0002DE9F041214CC36A2268D26A934212D2A0
:1040C0008269002A04DB2268D26AC2F1040282619A
:1040D0001B4D426903EB830305EB83039A4204D033
:1040E0002368DB6AC362BDE8F08100F1040807467B
:1040F0004046FEF7B3FCF8B9FB6A124E03EB8302AD
:1041000055F8222032B93268012101FA03F322EA7C
:104110000303336023683268D86AF862012383405E
:10412000134300EB80003360414605EB8000BDE89F
:10413000F041FEF76DBC7047024EEBE7706900205E
:104140001C690020C8690020002838D0F8B5C36B6E
:10415000C16A826B013B9142C36300D00BB1002066
:10416000F8BD071D04463846FEF778FC78B9E36AC7
:104170001448154E03EB830250F822204AB93268E6
:10418000012101FA03F322EA0303336001E00D4841
:104190000D4EA36B3268E362012505FA03FCC3F1FF
:1041A000040E03EB83034CEA020200EB8300394662
:1041B000C4F818E03260FEF72BFC2846F8BD00205A
:1041C000704700BF1C690020C8690020044B1A68B2
:1041D0001AB11968CA6B0132CA631868704700BF08
:1041E00070690020F0B5184C85B0FEF7DBFC25683F
:1041F0008DB1FEF7E1FC206858B10323134A009308
:104200000023019202930393114812495022FFF7B1
:104210006FF905B0F0BD104F104E3846FEF7E8FBC1
:104220003046FEF7E5FB0E4A0E4B176020202A466B
:1042300010211E60FEF72AFD20600028D9D00A490F
:10424000FFF7ECF8D5E700BF006A0020086A0020FD
:104250006D430200344E0600D4690020E869002056
:10426000D0690020046A00202C4E06002DE9F04F92
:1042700083B0F9B1064628200D4698461746FEF74A
:1042800089FB0446B0B1DFF88090FEF78BFCD9F8CB
:104290000020A2B1FEF790FC0C9B2660201DA561BA
:1042A000E761C4F820806362FEF7AEFB204603B0EE
:1042B000BDE8F08F0024204603B0BDE8F08FDFF8A2
:1042C0004CB0DFF84CA001925846FEF791FB5046E7
:1042D000FEF78EFB09490A4BC1F800B0019AC3F8FA
:1042E00000A020201021FEF7D1FCC9F80000002812
:1042F000D0D00449FFF792F8CCE700BFD069002086
:10430000046A00202C4E0600006A0020D4690020B8
:10431000E869002030B5144D2C6885B004B3052938
:104320008DE8060002900BDCFFF7B0FE02280FD0EC
:104330000022286813466946FEF7E0FC05B030BD50
:104340001A46204669460023FEF768FE05B030BDD8
:104350002868089A69460023FEF7D0FC05B030BDF6
:10436000204605B030BD00BF006A00202DE9F04FA7
:10437000AB4DAC4CDFF8B0828BB02B681E68002EC2
:104380006ED0DB681E68FFF793FBFFF799FBD8F848
:104390000030A54A834207466ED88642106040F23C
:1043A000A480F11B2068FFF74BF8FFF723FC40B90E
:1043B0009E4B4FF080525A6040BFBFF34F8FBFF308
:1043C0006F8F00221346206802A9FEF7BDFE002869
:1043D000D3D0029B002B3BDB049E736913B1301DCD
:1043E000FEF73CFBFFF76CFBD8F8003098428146A3
:1043F00023D3029AC8F80090092AE2D801239340F7
:1044000013F4047F40F0D68013F0C70F40F0B6805D
:104410009B06D6D53046FEF7E9FAD2E7DB68DF68BF
:10442000D3F800B007F1040A5046FEF717FB7B6A89
:1044300038469847FB69012B4BD02B681A68002A35
:10444000ECD17B4A764912680A60794A1360D0E75A
:10445000039B049805999847029B002BB1DBBBE7AF
:10446000FFF726FBFFF72CFBD8F800306E4A83429B
:10447000074601D8176094E74FF000090EE0DB68AB
:10448000DE68D3F800B006F1040A5046FEF7E6FAFB
:10449000736A30469847F369012B0ED02B681A686F
:1044A000002AECD1624A5E4912680A60604AC8F884
:1044B00000701360FFF79EFB83E7B3695B445B45C5
:1044C000514627D97360564B36611868FEF7ACFA2F
:1044D000E4E7BB695B445B4551462DD97B60504B9B
:1044E0003F611868FEF7A0FAA7E7FFF783FB4C4B84
:1044F0001B68DB68D3F80C9009F1040A5046FEF7FC
:10450000ADFAD9F81C30012B29D0D9F8243048460F
:10451000984756E72368002BC0D0CDF81890CDF807
:104520001CB00896FFF7B2FD3E490022134608680A
:1045300006A9FEF7E3FBB1E72368002B3FF47DAF4C
:1045400000230693CDF81CB00897FFF79FFD35496F
:1045500000221346086806A9FEF7D0FB6DE7D9F8DC
:104560001830C9F810909A19BA42C9F8042032D903
:104570002B4B51461868FEF757FAC6E7039BB16903
:104580003661CA184A4572603AD8C3EB09039942AA
:104590001BD8736A30469847F369012B7FF411AF3B
:1045A000B269039B00211A44009130460B46FFF785
:1045B000B1FE06E7039B366109EB03024A45B3618E
:1045C000726021D8002B3FF4FCAE194B311D1868E6
:1045D000FEF72AFAF5E6BF1BBB421AD82368002B68
:1045E00093D000270796CDF820900697FFF74EFD51
:1045F0000C493A463B46086806A9FEF77FFB84E76C
:104600004B4501D99342C4D9311D2868FEF70CFAF5
:10461000D7E6074B51461868FEF706FA75E700BF64
:10462000D0690020006A0020FC69002000ED00E055
:10463000046A002010B50446FEF7B4FA6469003439
:1046400018BF0124FEF7B8FA204610BD10B5044685
:10465000FEF7A8FA246AFEF7AFFA204610BD00BFA5
:104660004B4B1978002900F091802DE9F04F87B06D
:10467000DFF828C104910024012504E00134049BE3
:10468000E4B29C4265D227B2DCF8006016F837002D
:10469000A0F1200305FA03F93E4BC0F1200ED3E947
:1046A000002325FA0EFE49EA0E0905FA00F808EA89
:1046B000020A09EA030B06EBC7015AEA0B0E059141
:1046C000DCD03449CDF810C022EA080223EA0903FD
:1046D000C1E9002302F09AFE16F83760DDF810C039
:1046E000A6F1200205FA02F201920199C6F1200317
:1046F0005FFA80FA25FA03F3A6F1200219430AFAB9
:1047000002F30393019105FA06F10091C6F1200727
:104710000399214B2AFA07F7394303910AFA06F164
:10472000D3E900230291DDE900011040194002465F
:104730000B46DDE902018B4208BF82424FF0000BBD
:104740000AD0134B1B7804930134049BE4B29C42BF
:1047500099D307B0BDE8F08F059A576852780023C7
:10476000A2F10102B2FA82F25209002FE9D05B45B0
:1047700006BF5245012100213046CDF814C0B8478C
:10478000034BDDF814C01B78049377E7704700BF34
:10479000146A0020406A0020386A0020106A002055
:1047A0002DE9F8430746204800F0B2F9D0B91F4E72
:1047B0000123A7F1200103FA01F5C7F12002D6E990
:1047C000000123FA02F2154303FA07F404EA000297
:1047D00005EA0103134307D020EA040421EA050592
:1047E000C6E90045BDE8F883384602F00FFE104FD9
:1047F000D7E9002398B144EA020845EA0309D6E95B
:10480000002314431D43C7E90089C6E9004509494F
:10481000054809680022BDE8F84300F013B922EA10
:10482000040823EA0509EAE7186A0020406A002024
:10483000386A00200C6A0020F0B5042A83B01646BE
:1048400002D8072003B0F0BD05460F4602F07EFCFB
:10485000002836D01D4BDFF88CC0DFF88CE01C48F8
:104860001C491D60002200237C1E8CF80070CEF8CD
:104870000060C0E90023C1E90023E4B2DFB10327EF
:10488000002600E01C4623B205EBC30215F83300F6
:104890009378114A8DF8053001A98DF804708DF8D0
:1048A00006608DF8076002F05BFC631E0028C9D12A
:1048B000DBB2002CE6D1094A0948002100F096F845
:1048C000C0E702F0FDFB0028C4D0BBE7106A00205F
:1048D000386A0020406A0020A147020061460200B9
:1048E0003C4E0600146A00200C6A002070B5084D8A
:1048F0002B785BB1074E00243368012113F8340094
:1049000002F008FD2B780134A342F5D8002070BDD9
:10491000146A0020106A002000B585B000230390BF
:10492000194644F2010001AAADF80430029300F0E8
:1049300003F805B05DF804FB08B501200949FDF74F
:1049400021FF03200849FDF71DFFBFF34F8F0749E3
:10495000074BCA6802F4E0621343CB60BFF34F8F8A
:1049600000BFFDE7404E0600504E060000ED00E09F
:104970000400FA0510B48468C26803468088121BDC
:10498000904203D204205DF8044B7047DA681C683B
:1049900002400020A154DA680132DA605DF8044B6D
:1049A000704700BF03468068DA6890420DD010B4AB
:1049B0009A6898881C6802400020A25C0A709A6875
:1049C00001329A605DF8044B70470520704700BFC4
:1049D00010B5FFF73BFE037B03B910BD8368006889
:1049E000BDE81040184700BF0020704770B582B086
:1049F000056822B12B7B2BB1082002B070BD0720C7
:104A000002B070BD6B68002BF6D114460E46102222
:104A100019462846FDF796FC321C084BAC6018BFBF
:104A20000122009306484FF47A712B46FFF71EFCD3
:104A30000028686014BF00200E20DEE7D149020084
:104A40006C4E06002DE9F041476884B0002F44D039
:104A5000037B15460C460646002B42D13560EFF32A
:104A6000058585B94FF002082246CDF8008038460A
:104A700004212B46FFF74EFC0128044638D00420C1
:104A800004B0BDE8F08104AD4FF0000845F8048D96
:104A90002246CDF800802B4638460921FFF73AFC24
:104AA0000128ECD1FFF712F8CDF8008002462B4622
:104AB00038460621FFF72EFC0128E0D1039B43B1C5
:104AC000124B4FF080525A6040BFBFF34F8FBFF37D
:104AD0006F8F012333730020D2E7082004B0BDE8B4
:104AE000F0813846FFF7A6FD0028B7D00020C7E7C1
:104AF000FEF7E6FFCDF800800246214638462B46F9
:104B0000FFF708FC0128BAD1E3E700BF00ED00E0A1
:104B1000416859B310B5044684B0EFF305825AB921
:104B200002230846009303211346FFF7F3FB0128F5
:104B300018D0042004B010BD04AB002243F8042DAB
:104B4000084600920821FFF7E5FB0128F1D1039BFD
:104B500043B1074B4FF080525A6040BFBFF34F8FB5
:104B6000BFF36F8F0020207304B010BD0820704782
:104B700000ED00E070B50B4C01460B482678FFF7BE
:104B800011FF05460EB9284670BD002307480849A5
:104B90002370012202F096FE0028F4D0FFF7BCFE3D
:104BA000284670BD606A0020646A0020C02F002083
:104BB0004C6A002010B501460C48FFF7DBFE0446A6
:104BC00008B1204610BD0A4802F070FE0028F8D156
:104BD00006480849FFF7E6FE0028F2D104480549D7
:104BE0000122BDE8104002F0A7BD00BF506A0020BE
:104BF000C02F0020486A0020F0B4EFF3108472B692
:104C00000E4B9A68B2B90E4901259D60D1F88070AB
:104C10000C4D2E463D401D60C1F88060D1F8845097
:104C20005D604FF0FF33C1F88430027004B962B6A2
:104C3000F0BC704701230370F8E700BFC0340120C7
:104C400000E100E0FC06FFBD094B9A6872B168B94B
:104C500010B4EFF3108272B606491C680C605C68F1
:104C60004C60986002B962B65DF8044B704700BFB3
:104C7000C034012000E100E0033080B240F2FD3397
:104C8000984201D90920704730B4124B1C783CB9C6
:104C90005D891A892A44024492B2B2F5806F10D31A
:104CA0001A7C0C4C12B1072030BC7047658B228BEC
:104CB0002A44024492B2B2F5806FF4D20124224613
:104CC00000E0224603EB02130C805A8910445881FD
:104CD0000020E9E7C46A0020F0B543684BB1304AD0
:104CE0001468A34205D35268934202D813F003021A
:104CF00034D00023DFF8B0E00B804FF0010C4FF60A
:104D0000FF75DEF80470002307F58054C3B15A889C
:104D1000033203EB8203A34216D21A68013213D086
:104D20009A881E88AA42F2D0002EF0D09E680268AF
:104D30009642EBD11B4A4360138903810120F0BDE9
:104D400007F10803A342E8D3BCF1020FA1F800C0A9
:104D50000EF1100E21D04FF0020CD2E7114C058954
:104D60002489A542C5D105689C68A542C1D10E4CD5
:104D70006068834205D900F58050834201D2134612
:104D800008E06269934208D902F58052934238BF25
:104D9000012302D20B800120F0BD0020F0BD00BF36
:104DA00084300020E46A0020C46A00202DE9F04F1E
:104DB000B04C256FEF007E1BB6008FB0A35D5A1E6E
:104DC000824604EB060BA046052A00F2FE80DFE8CF
:104DD00002F05230301D1D0300285AD1DFF8B09286
:104DE00099F80C30002B00F0678399F8003089F8AF
:104DF0000C00013B062B00F2E780DFE813F01C03F8
:104E0000AF0292016E01E5009D02F102002841D13E
:104E1000C5EB070904EB890999F80420012A00F081
:104E2000B783C0F09F83022A40F0CF8000220A920D
:104E300038E07A1B04EB820202F108018E48B1F8D7
:104E40000A90039000EB0919BAF1000F40F0AC8012
:104E5000B9F80800D9F80420097A02EB8002062983
:104E600000F2A383DFE811F07401CD01AD011D0252
:104E70000302ED01AA01002840F08E809BF8043067
:104E8000032B00F25884DFE813F01B010701E40054
:104E9000B2000623012018F806200A90023A012ADF
:104EA00040F29B80013B052B07D8DFE803F02D661D
:104EB0004F3E310305238DF82430704D05F1200657
:104EC00055F8043F0BB109A89847B542F8D1206FB7
:104ED000684DC0EBC00004EB800000211C22FDF7F0
:104EE00031FA636F43B12A6F0132013B02F00302D2
:104EF0006B672A67002B6AD1614A137823F0040399
:104F000013700FB0BDE8F08F00238DF82430D4E784
:104F10007B1B04EB83030422DB88ADF830300023D5
:104F20008DF82420ADF83230C7E77B1B04EB8303F8
:104F30001A46DB8832F8081FADF8303053680B93FF
:104F40000323ADF832108DF82430B6E77B1B04EB59
:104F500083031A7C1889DD6899880B95A2F10603F2
:104F60000222B3FA83F35B098DF83430ADF83000D8
:104F7000ADF832108DF824209FE77B1B04EB8303F0
:104F8000012218899988DB68ADF83000ADF832103D
:104F90000B938DF8242090E739490A78012322F0F9
:104FA00001020A70184676E7D088B9F80A20B9F8E5
:104FB000081000F1030E121A7144033AA9F8081000
:104FC000A9F80A20012066E706230F2063E70020E6
:104FD000FFF7ECFE0FB0BDE8F08F2A4A9BF8166091
:104FE000106C516C3044891B106451645AE7DFF82F
:104FF000A490254AD9F8001024484FF0000A022353
:10500000CDF800A001F07AFB214BDFF86CC05B8883
:10501000D9F80010B9F804E08BF804A01B010CEBE0
:1050200003020CF803A05368C9F800300223516052
:10503000A2F808E0A9F8043000283FF462AF7B1B17
:1050400014F823300E490A7822F001020A700E206B
:1050500021E7DFF840900D48D9F800100122002325
:1050600001F096FB02220023A9F804208BF80430FB
:10507000E2E700BFF46A0020C46A00208C6B0020C5
:105080008C6B0020746A00207C4E06008430002067
:10509000E46A0020786B0020C54B039319461B7807
:1050A000022B00F045830B7C022B00F02D83C14ABC
:1050B000137843F0020323F0010313700123B5E6D4
:1050C000BD4BBE481968BE4A00230093022301F07D
:1050D00015FB01238BF80430AEE7B9F80220B44B7E
:1050E000DFF8F49203EB02129389002B00F0BF82E9
:1050F000DFF8C4E2B148DEF800104FF0020A4FF0CA
:10510000050C01220023AEF804A089F800C001F0CC
:105110003FFB00283FF4F5AE1C2303FB05F3E35CE3
:10512000B9E6D9F80420A4495388B1F804C0096845
:10513000A2484FF0000ECDF800E003334FF0030E0D
:105140009BB201EB8C0189F800E001F0D7FAE0E7AF
:10515000C5EB070A4FEA8A0A04EB0A0C0023114642
:1051600000930CF1040201239448CDF80CC001F027
:10517000C5FADDF80CC002238CF8103000283FF48B
:10518000C0AE904B13F80A300E20791B04EB81015E
:10519000B9F80A20B1F806E0B9F808100EF1030CCE
:1051A000CEEB020241F61D5E6144033A7045A9F858
:1051B0000810A9F80A203FF439AE6CE641F61D50FC
:1051C000E3E7C5EB070A4FEA8A0A04EB0A0000236B
:1051D00002F10801009300F10C020123774801F06D
:1051E0008DFA04EB0A0377499A7D002A14BF032243
:1051F00001221A7400283FF484AE11F80A300E2000
:10520000C3E77B1B4FEA830C04EB0C0A0AF1080A84
:105210000023111D0093524601236848CDF80CC0AD
:1052200001F06CFADDF80CC014F80C30032B0CBF45
:10523000052206228AF8082000283FF462AE0E20DC
:10524000A3E7614B614AB3F800A051685B48604A2C
:1052500000230093012301F051FA002800F01D8281
:105260007B1B9B00E2180621E35C1174E7E77B1BC4
:105270004FEA830A04EB0A01544B886918604FF027
:10528000000E514903921846C3F804E0FFF724FDCD
:10529000039A00287FF45CAF4A4B0A2013F80A30C7
:1052A000F9E5DFF838E1DEF844300393002B00F035
:1052B0007A81DEF8401041485EF8311006917B1B80
:1052C000DEF8401004EB830303F1100A013104916E
:1052D0000399BAF804C005930139DEF84030CEF8DE
:1052E000441002EB8C01049A0EEBC30302F0070C8E
:1052F000CEF840C04FF0000E0793069A9B88CDF879
:1053000000E001F0FBF9079A9AF806309188BAF8A4
:105310000420013B0A44DBB2AAF804208AF80630D4
:1053200013B9059A0123137400283FF4EAAD7B1BDF
:105330000E2014F8233028E7B9F802301C4A0392F3
:105340001B011A44002351680093062389F800309A
:10535000204A1A48022301F0D1F9DAE6D9F80430DC
:10536000B9F802E0002B00F0BF81114A0392114608
:105370004FEA0E1E5A8871440332496803EB8202D9
:1053800001F58050824280F089801368013318BF94
:105390004FF6FF7C00F082809388B2F800A063454E
:1053A00072D0BAF1000F6FD0C9F80420BBE600BF7D
:1053B000C46A00208C6B0020786B002084300020B1
:1053C000744E0600F46A0020746B0020806B00208D
:1053D000704E06007C4E0600E46A0020746A0020CD
:1053E000B94BBA4A1968BA484FF0000E4FF0070C93
:1053F000CDF800E00223C9F804E089F800C001F00C
:105400007DF986E6B34BB9F808101A781B7CB2FA1E
:1054100082F2B3FA83F352095B0901314FF0000EB7
:10542000012089F80A2089F80B30A9F8081089F8BA
:105430000CE089F8000099F80A30A74A53B1A54B4F
:1054400003939B890021917223B9A24A927B002A7F
:1054500040F0AF8199F80B309F4A53B19D4B0393B5
:105460009B8B0021D17223B99A4B9B7F002B40F07C
:1054700064817B1B002214F8233089F80020A9F8EE
:105480000220C9F80420D1E45388033302EB8302DD
:10549000824203D2136801337FF47EAF039B7344CF
:1054A0009B89002B7FF424AE8948012201F070F91A
:1054B000042389F800302CE699F80030072B3BD8FC
:1054C00001A252F823F000BF055402003955020032
:1054D000395502001D550200F1540200E15302004B
:1054E000E1530200E9540200012389F80030A2E7E9
:1054F000784AB9F80230039211461B01724A1944E6
:105500001068B2F804E0D1F804C048600220C2F884
:1055100000C09080A1F808E0039A12E76A48D9F821
:10552000043081885A88B9F802E01144033102221C
:10553000818089F8002018E7013B062B3FF644AD37
:1055400001A252F823F000BF375402005D5302005D
:1055500023510200DB500200C94F02003953020000
:10556000E15302000EA8D9F80C3040F8143D0DF1BB
:105570002201CDF828A0CDF82CA0FFF7ADFB002824
:1055800077D10A207B1B04EB830302221A71C0E54A
:10559000524B1B789B070AD4014608225048FCF75F
:1055A000D1FE0220B8E51B68FFDE0F20EDE5DFF835
:1055B00030E1BEF804300493012B19D8454B069016
:1055C000059503934FF6FF704D46049B03994FEAF0
:1055D000031A01EB0A0211F80A3093B1049B01335C
:1055E0009BB20122022BAEF804300492EDD1059D4E
:1055F0003B4800210822FCF7A5FE7B1B14F8233052
:1056000014E45368DEF80090079303F58052B9F173
:10561000000F4ED0B9F80210033109EB810191421D
:1056200021D20B6801331ED08B88B1F800C08342B1
:1056300014D0BCF1000F11D0B5F806C0CEF80010A0
:105640009C458946E3D1002300932148254A059DC6
:10565000012301F053F880B30E205DE54B8803333E
:1056600001EB8301DBE7069BCEF80030B6E751681B
:105670001AE70A9916488B88A9F80630B1F800E0B5
:10568000184ACDF800A00123A9F808E0BDF822903F
:1056900001F034F888B30E2074E7039B7D1B03EB05
:1056A0000A1A04EB85040622012322748AF80E30BC
:1056B00027E4079B03F10801B1E7039B53449A4693
:1056C00001238AF80E301CE4786B0020744E06002B
:1056D00084300020C46A0020E46A00208C6B002023
:1056E0006C6B0020704E0600334B03934FEA0E1E86
:1056F0007344596801F1080242E62F4B03EB09138A
:10570000012250469A733DE74FF00109039B2B4855
:105710002B4A4FEA09194B444FF0000A5968CDF85B
:1057200000A0022300F0EAFF039B03F809A083E432
:105730004FF00009EAE7012384E401231946D9F870
:105740000420A9F802306AB3039B03EB01115388CC
:105750004968033302EB830201F58050824218D27C
:105760001368013318BF4FF6FF7E03D111E01368B1
:1057700001330ED09388B2F800C0734503D0BCF15A
:10578000000F7FF411AE5388033302EB8302904283
:10579000EDD800230948012200F0FAFF042389F81C
:1057A0000030B6E4039B03EB0111496801F10802E4
:1057B000D2E71946C3E700BFC46A00208430002046
:1057C0007C4E06000846FFF7F1BA00BF074A13787F
:1057D000082B09D010B4591C054C117044F8230053
:1057E00000205DF8044B70470C207047C06A002011
:1057F000906B00202DE9F04FB04F8DB03A78002328
:105800000793089309930A930B9393070DD5AC4C18
:1058100004F1200554F8043F07A803B19847AC42AF
:10582000F8D100200DB0BDE8F08F12F00104F8D1DE
:1058300042F001023A7000F005FFA24BA24A1B6839
:105840001668039403F53F513C3103F1080C03F54E
:1058500080500194A6460291043B4FF6FF745A68AB
:105860009A498A4203F1040557D003F5805102E0BA
:10587000994200F0008153F8042F0132F8D04FEA2A
:105880000E13934D03220EF1010EEA541FFA8EFE01
:10589000029A91420CF5805C00F580500B46DED1F7
:1058A000894A9DF8043016600B2B0FD8DFE813F0FF
:1058B000C500DE00C500DE000E00DB00CA00DB0014
:1058C0000E000C00C7000C0003230493814A516FA3
:1058D000032912D8804B5B6C082B0ED8136F0B4436
:1058E00003F00303C3EBC3039B00D0180124D4547B
:1058F00001319DF81030037151673B786F4903F017
:10590000040202F0FF04002A8BD143F00403204676
:105910000B70FFF74BFA204684E79A686F498A427A
:105920004DD001318A42A0D1039A002A00F0A18013
:10593000674A4FEA0E1102EB0108694A12680592A4
:10594000634A4FF0020902F801900EF1010E059A28
:105950006349C8F804201FFA8EFEA8F808904FF09B
:1059600002080D60A1F80480DA680132654604D1AE
:10597000BAE02A68B2F1FF3F16D0AA88B5F80090C5
:10598000A24206D0B9F1000F03D0AA68964238BFF0
:1059900016466A880332904405EB82051FFA88F8A0
:1059A000A842A1F80480E4D8B8F1020F0CBF042289
:1059B000082201991143019103F5805168E7444A97
:1059C0004FEA0E1802EB08094FF0000A02F808A08F
:1059D0000221C9F80450A9F80810DD6801356246B3
:1059E00011D11BE09568AE4238BF2E46558803356D
:1059F000294402EB850289B29042A9F808100DD91A
:105A0000156801350AD09588B2F800B0A54202D0D9
:105A1000BBF1000FE6D14FF0010AE7E72C4A9044B2
:105A2000019A88F80EA00EF1010E42F002021FFA50
:105A30008EFE019203F580512AE70B20F2E6022345
:105A4000049343E73B781E4C43F0020323F0010329
:105A50003B7004F1200554F8043F07A803B19847B0
:105A6000AC42F8D1DDE6012304932FE70023049331
:105A70002CE71B4973E71A4B1B68C3B1144ADFF8C4
:105A800064904FEA0E1302EB03080222C8F8045098
:105A90000F4DA8F80820EA540EF10108A9F802E019
:105AA0001FFA88FE019B43F001030193F0E60C4AC4
:105AB00002239380012315600393F3E78C6B00208E
:105AC0008C6B002084300020BC6A0020DEC0ADDE7C
:105AD000C46A0020F46A0020746A0020FE011EF1EE
:105AE000786B0020E46A0020042262E760B159B1BB
:105AF00030B583B00C460DF106010546FFF7ECF812
:105B000020B90A2003B030BD05207047BDF806203B
:105B1000074B686803EB021301219A890A449A81B2
:105B200020606B6800200C336360A97203B030BD45
:105B3000C46A0020D0B110B582B00DF10601044650
:105B4000FFF7CAF810B90A2002B010BDBDF8062050
:105B5000094B03EB021308339A884AB1A17A39B191
:105B60000021013A9A800846A172EDE705207047AE
:105B7000062002B010BD00BFC46A00201D4B1B7878
:105B80009B0702D402231846704740B1CB1C9BB23E
:105B900040F2FD32934205D9092318467047052388
:105BA0001846704770B4144A167886B95589148916
:105BB0002C441C44A4B2B4F5806F08D2344602EBE6
:105BC00004122B4453810023068041800EE0157C93
:105BD000094C55B9658B248B2C441C44A4B2B4F5F4
:105BE000806F02D201263446E9E70723184670BCCD
:105BF000704700BF8C6B0020C46A0020144B1B78D8
:105C00009B0702D4022318467047E8B10388022B91
:105C100002D904231846704710B40E4A448802EB98
:105C200003136FF002015A89091BCA4203F10803EA
:105C30000CD4033A0021121B5A800B46018041808C
:105C400018465DF8044B70470523DCE70423F7E7AB
:105C50008C6B0020C46A00207C4A137813F0020F7A
:105C600001D10220704771B12DE9F04F0D88044633
:105C70004FF6FF70854287B001D0488828B90420CC
:105C800007B0BDE8F08F0520704708894E68F8B16D
:105C9000356815F0030504D018E056F83570BF07D5
:105CA00014D10135A842F8D1354606EBC0060020D4
:105CB000AF8808353844B54280B2F9D1C51CADB2C1
:105CC00040F2FD36B54204D90920D9E70320D7E7D1
:105CD0000325DFF888E19EF800C0BCF1000F0AD16F
:105CE000BEF80A70BEF808603E442E44B6B2B6F55F
:105CF000806FC0F0A6809EF81060DFF860C14EB9DA
:105D0000BCF81A70BCF818603E442E44B6B2B6F522
:105D1000806F01D30720B3E701260296B0464FEA11
:105D200008183D440EEB080CADB2ACF80A500E88D2
:105D30000F89DFF82C910496D1F804C04E884449AD
:105D4000D9F874A009680596414E01315FFA87FBC6
:105D5000BAF1030FCDF80CB00191316060D83D4E1F
:105D6000D6F844B0C7F108018B4559D8D9F870105E
:105D7000BDF81480514401F00301C1EBC101890059
:105D800009EB010E022509F80150AEF80600019852
:105D9000CEF80C00BDF80800AEF804800025AEF87F
:105DA00012000AF1010A0321BDF810809DF80C00D1
:105DB000AEF808808EF81600AEF81410AEF80A504F
:105DC0008EF81050C9F874A0D7B1316C0BEB010EEE
:105DD0000EF0070E06EBCE0E06F138090CEBC501EE
:105DE00003C901350EF108088EE80300CE4514BF43
:105DF000C646B646AF421749F0D1486C38444864AD
:105E00003CB100211448019D256061600089A172A8
:105E1000208103F0040101F0FF0451B100202FE7BD
:105E2000C0F57F40FD30C6442844AEF80A00082083
:105E300026E743F0040320461370FEF7B7FF204621
:105E40001EE7CDF808C0E04669E700BF8C6B002074
:105E5000BC6A0020746A0020E46A0020C46A002042
:105E6000F46A002052B12DE9F04F5B4D2C78A60763
:105E700085B005D4022005B0BDE8F08F052070473D
:105E8000002900F09280064608884FF6FF7398427A
:105E900004D0B1F802C0BCF1000F03D1042005B05A
:105EA000BDE8F08F0F89D1F804E067B1DEF800306B
:105EB00013F0030304D07AE05EF83310890776D13B
:105EC00001339F42F8D1DFF824914449D9F80030DA
:105ED000D1F87480B2F800A0B2F802B00133B8F182
:105EE000030FC9F8003064D8DFF8F490D9F84420E3
:105EF0000292C7F108018A425BD8384A3749126FCB
:105F0000424402F00302C2EBC20292005118019116
:105F100008F101081146314ACDF80C804FF0020813
:105F200002F80180019A039910814FF000084FF0A8
:105F30000300A2F804C0A2F806B0D360A2F812A031
:105F400097759082A2F80A8082F81080234A5167E0
:105F5000E7B1D9F840200299114401F0070209EB9A
:105F6000C20209F1380A0EEBC80103C908F10108A1
:105F700002F1080C82E80300524514BF62464A460B
:105F800047451749EFD14A6C3A444A6436B100227A
:105F90001449336072600B89B272338104F00403D8
:105FA00003F0FF0683B1002065E7052063E70320C7
:105FB00061E70D4B03EB0A1308205A89033ACBEB38
:105FC000020BA3F80AB056E7304644F004042C70E4
:105FD000FEF7ECFE30464EE78C6B0020F46A0020A2
:105FE000746A0020E46A0020C46A0020BC6A0020B1
:105FF00050B12DE9F04F694E3578AF0789B005D41F
:10600000022009B0BDE8F08F05207047002900F09C
:10601000B8800A884FF6FF739A4201D04B881BB9AB
:10602000042009B0BDE8F08F0F894A68B7B1136842
:1060300013F0030305D0A6E052F83340A40740F064
:10604000A28001339F42F7D1134602EBC70200271B
:106050009C88083327449342BFB2F9D1044689464D
:1060600038460DF11E01FEF707FE0028C9D14C4944
:10607000DFF83CC10B680193B9F80230B9F8082089
:10608000DCF874800493019B0292B9F8002003921B
:10609000D9F804E02268BDF81EA0059203F10109B9
:1060A000B8F1030FC1F800906FD83E4A029B516CC3
:1060B0000191C3F10803994267D8DCF8701041449C
:1060C00001F00301C1EBC10189000CEB010B08F1E8
:1060D00001034FF003080CF80180ABF80670BDF81F
:1060E0000C70BDF81010ABF80870029FABF80410EC
:1060F000ABF814800599ABF80A004FF00408CBF810
:106100000C90ABF812A08BF81670CBF818108BF827
:106110001080CCF874303B46E7B1116C019F0F44FE
:1061200007F00707844602EBC70702F1380A0EEBB7
:10613000CC0103C90CF1010C07F1080887E8030042
:10614000574514BF4746174663451649EFD14A6C79
:1061500013444B640020144BC4F8009060601A890B
:10616000A07205F00403228103F0FF04002B7FF4EA
:1061700048AF204645F004053570FEF717FE20466F
:106180003FE705203DE703203BE7084B03EB0A13FD
:1061900008205A89033AD71B5F8132E78C6B0020B5
:1061A000BC6A0020746A0020E46A0020C46A0020EF
:1061B000F46A0020F8B51C4A1378990701D402202C
:1061C000F8BD4FF6FF71884201D10420F8BD174D8C
:1061D0006C6F032C1ED81649496C08291AD8296FF0
:1061E000214401F00301C1EBC10189006F18661C55
:1061F0004FF0050C03F0040405F801C04FF0010E48
:106200002146F88087F804E004F0FF046E6719B1B6
:106210000020F8BD0820F8BD43F0040320461370A9
:10622000FEF7C4FD2046F8BD8C6B0020F46A002008
:10623000746A0020F8B5174A1378990701D4022030
:10624000F8BD154C616F03291AD81448406C082812
:1062500016D8206F124D084400F00300C0EBC000B8
:106260002E780131062704F8207061670EB10121F4
:10627000297303F0040101F0FF0419B10020F8BDF7
:106280000820F8BD43F0040320461370FEF78EFD8E
:106290002046F8BD8C6B0020F46A0020746A002050
:1062A000E46A00202DE9F047304C2478A40702D49A
:1062B0000220BDE8F0879446002A3DD0002B3BD059
:1062C000B3F80480B8F1010F48D8DFF8A8908A46E7
:1062D0004FF6FF7700224FEA081409EB040E19F875
:1062E0000440002C32D11C68002C3AD06588DEF8BE
:1062F0000460033504EB850406F58056B44224D2CD
:106300002568013521D0A5882188BD4217D0B1B1BB
:106310001C60A5888542E7D125885545E4D1A2684F
:10632000CCF800201A68124BCCF804201B89ACF87A
:1063300008300020BDE8F0870520BDE8F0876588BB
:10634000033504EB8504B442DAD31A6008F1010482
:10635000A4B2022C9C804FF00108BCD10A20BDE8F9
:10636000F087DEF8046006F10804C5E78C6B0020B6
:10637000E46A0020C46A0020304B1B789B0701D4DC
:106380000220704700293ED0002A3CD02DE9F0477A
:10639000B2F804E0BEF1010F48D8DFF8A8C04FF60C
:1063A000FF764FF000084FEA0E130CEB03071CF8C2
:1063B0000330002B31D1D2F80090BA46B9F1000F6A
:1063C00037D0B9F80230DAF80450033309EB83030D
:1063D00005F580559D421ED91C6801341BD09C8850
:1063E0001F88B44211D087B113601C88844299463B
:1063F000E4D19B680B601268114B4A601B890B81CA
:106400000020BDE8F087052070475C88033403EB6B
:1064100084039D42E0D8C2F800800EF1010E1FFAFD
:106420008EF3022B93804FF0010EBCD10A20BDE801
:10643000F087DAF8045005F10803C9E78C6B0020F7
:10644000E46A0020C46A0020304B1B789B0701D40B
:106450000220704700293ED0002A3CD02DE9F047A9
:10646000B2F804E0BEF1010F48D8DFF8A8C04FF63B
:10647000FF764FF000084FEA0E130CEB03071CF8F1
:106480000330002B31D1D2F80090BA46B9F1000F99
:1064900037D0B9F80230DAF80450033309EB83033C
:1064A00005F580559D421ED91C6801341BD09C887F
:1064B0001F88B44211D087B113609C8884429946EA
:1064C000E4D19B680B601268114B4A601B890B81F9
:1064D0000020BDE8F087052070475C88033403EB9B
:1064E00084039D42E0D8C2F800800EF1010E1FFA2D
:1064F0008EF3022B93804FF0010EBCD10A20BDE831
:10650000F087DAF8045005F10803C9E78C6B002026
:10651000E46A0020C46A002020B119B103680B604E
:10652000002070470520704729DF704728DF70473B
:1065300070B50C4D696E042911D02B6E0B44032BE2
:1065400088BF043B182202FB035406464B1C20461E
:1065500000216B66FBF7F6FE3460012070BD002061
:1065600070BD00BFB46B0020F0B5344B1D7815F042
:10657000060F85B060D1324A1C46516E176E45F049
:10658000020316462370002956D0182303FB072365
:106590001A7A012A05D0022A21D19889FFF7C6FF6D
:1065A00014E0D98A9A8A182303FB07630833986892
:1065B0005B68521AB2F5806F4FEA81010844B4BF9C
:1065C00092B24FF480621944FFF7AEFF112805D153
:1065D00025F0020545F0040525702DE060B300218B
:1065E00010226846FBF7AEFE182303FB076303F196
:1065F00008011A7A012A0CD0022A12D18B88CA8883
:10660000ADF80A309B1A0122ADF808308DF8002051
:1066100007E09A8A896802910023ADF80C208DF872
:106620000030182303FB07F7F219F359526801925F
:1066300068469B680921984705B0F0BDB06B002003
:10664000B46B00202DE9F0434FF010235D696B1C03
:1066500049D0DFF8A48098F800C01CF0010F3FD1AA
:10666000DFF890E02248CEEB0000000934D00EEBBA
:106670000011734607461A6812B15A6802B1013F09
:1066800010338B42F7D13FB300260022194B9146BD
:10669000F4B206E0596839B10132824203F11003C5
:1066A0000ED019680029F5D1597B494588BFD4B26D
:1066B00002F1010288BF8946824203F11003F0D142
:1066C00024010EEB040301361A7B5D60BE42A5EB8C
:1066D00002354EF80450D8D14CF0010C88F800C0B7
:1066E0000020BDE8F0834FF080535D692D03B0E7D3
:1066F0009430002084300020B06B002030B5214C55
:106700002578EC0787B012D5044610B11E488442A4
:1067100002D2022007B030BD1C488442F9D24AB1EF
:1067200041B142EA0100800706D00620F2E70120CD
:1067300007B030BD0320EDE72068814201D205207B
:10674000E8E7656801EB83008542F8D30BB90420C4
:10675000E0E705A8039302920191FFF7E9FE01A982
:106760000EC908B90720D5E7059D2C6005980A9C3D
:106770006C600124C260016183820472FFF7F4FE41
:106780000020C7E7B06B0020843000209430002048
:1067900030B5204C2578EC0787B010D5044610B1F1
:1067A0001D48844202D2022007B030BD1B488442FB
:1067B000F9D261B1C1F30B0020B10620F4E701204A
:1067C00007B030BD2068814203D20520ECE70320EA
:1067D000EAE7656801EB02308542F6D30AB9042086
:1067E000E2E705A8039302920191FFF7A1FE01A938
:1067F0000EC908B90720D7E7059D2C6005986B6086
:10680000090B0223818102820372FFF7ADFE002093
:10681000CAE700BFB06B0020843000209430002015
:1068200020B1034B5B6E036000207047032070476C
:10683000B46B00202DE9F04FAB4FAC4C3B78256E8C
:10684000990785B05BD5022865D0032840F0848085
:10685000DFF89CE29EF800300133DBB2032B8EF8A8
:10686000003079D94FF000084146102268466E008A
:106870008EF80080FBF766FD731904EBC303E9464D
:106880001A7A012A03F1080100F0D780022A09D1FF
:106890008B88CA88ADF80A309B1A0122ADF80830FF
:1068A0008DF800203544ED00621963595268019259
:1068B0009B68484608219847636E013B63661BB995
:1068C0003A7822F002023A70256E884A0135042D8A
:1068D00008BF002515667BB16E00731904EBC30376
:1068E0001A7A012A3CD0022A5AD19889FFF71EFE53
:1068F00011284CD0002853D105B0BDE8F08F5A07BD
:106900002AD5626E03F0FB033B70002AF4D043F0FB
:1069100002033B70E0E76E0006EB050804EBC808D5
:10692000734A98F808304FF0000B012B08F1080A61
:1069300082F800B064D0022B0ED1BAF80630BAF853
:106940000420BAF8081001339BB201329942AAF828
:106950000630AAF8042078D0636E002BBCD1CBE7B8
:10696000D98A9A8A731904EBC303083398685B6861
:10697000521AB2F5806F4FEA8101B4BF92B24FF460
:10698000806208441944FFF7CFFD1128B2D13B784B
:1069900023F0020343F004033B7005B0BDE8F08F21
:1069A000002110226846FBF7CDFC731904EBC303EA
:1069B000E9461A7A012A03F1080118D0022A09D1FE
:1069C0008B88CA88ADF80A309B1A0122ADF80830CE
:1069D0008DF800203544ED00621963595268019228
:1069E00048469B680921984705B0BDE8F08F9A8A10
:1069F000896802910023ADF80C208DF80030E9E79A
:106A0000B8F81410B8F81630CA1AB2F5806FB4BFCF
:106A100092B24FF4806206EB050804EBC8081344F9
:106A20009BB208F1100A9942AAF806302F4A2ED0DC
:106A3000536E002B7FF450AF5EE78A689B8A029208
:106A4000ADF80C308DF800802CE7684659461022CE
:106A5000FBF778FC98F80830012BE94630D0022B80
:106A60000BD1BAF80430BAF80620ADF80A309B1AF8
:106A70000122ADF808308DF800203544EB00E21813
:106A8000E3585268019248469B68002113E71022A0
:106A900068460021FBF756FC98F80820012AE946D1
:106AA00008F1080316D0022AE7D19A88DB88ADF8EE
:106AB0000A20D21A0123ADF808208DF80030DCE757
:106AC000DAF80820B8F814300292ADF80C308DF8DE
:106AD00000B0D2E79B68BAF8042002930023ADF817
:106AE0000C208DF80030C8E7B06B0020B46B00209C
:106AF0001C6C0020094B1EF0040F1CBFEFF3098033
:106B00001847EFF308800649064A884201D89042A8
:106B100002D88D464FF00000184700BF4D6B0200B1
:106B20000000042000E00320BFF34F8F0549064B0F
:106B3000CA6802F4E0621343CB60BFF34F8F00BF1B
:106B4000FDE700BF00ED00E00400FA0510B50549BF
:106B5000826904460120FBF723FE2046FFF7E4FF8D
:106B600010BD00BF844E060070B5161E07DD0C4632
:106B70008D1914F8010BFEF71DF8AC42F9D130461F
:106B800070BD00BF10B50C462046FDF7F3FF052889
:106B9000FAD0012010BD00BF10B40023012401E091
:106BA000202B0AD004FA03F2024299B203F1010346
:106BB000F6D008465DF8044B70474FF6FF705DF85D
:106BC000044B704790B189B130B40238002402E020
:106BD0000134202C09D030F8025F9542F8D133B14E
:106BE0000A680123A34013430B6030BC70470B6855
:106BF0000122A24023EA02030B6030BCF6E700BF8B
:106C000070B49DF80C60B8B1B1B1AAB102380024DB
:106C100002E00134202C0FD030F8025F9D42F8D101
:106C20000120A04001EB820246B9C0430B6803403B
:106C300041F8043B9142F9D170BC70470B680343A3
:106C400041F8043B9142F7D00B68034341F8043B01
:106C50009142F3D1F0E700BF98B110B4023800239D
:106C600002E00133202B0DD030F8024F9442F8D1CE
:106C7000012202FA03F30B4214BF104600205DF814
:106C8000044B70470020FAE7F0B491B100252B4681
:106C9000012606FA03F4144205D000EB450431F84E
:106CA0001370A78001350133202BF2D10560F0BCB1
:106CB00070470D460560F0BC704700BF0A7B4B680B
:106CC00010B40C68002A0ABF234600220122027178
:106CD00003605DF8044B704710B40279034652B16B
:106CE00048681A688968841A8C4210D98818186014
:106CF0005DF8044B7047046808688A68211A91425D
:106D00000BD8012218601A715DF8044B70470022FD
:106D100018601A715DF8044B7047A01A18605DF88E
:106D2000044B70473FDF704740DF704741DF7047DB
:106D300010B50E4C23780BB1852010BD0C4A636052
:106D4000E3601068A36010F00100236102D1072105
:106D500000F08EF909F0D4FC20B94FF080430122F5
:106D6000C3F8182501232370002010BD206C0020DB
:106D700000E100E030B5224DAB7883B0044603F06B
:106D8000FF0293B110B143680120984702A8002385
:106D900000F8043DFDF730FFEB689DF80400013377
:106DA000EB60FDF751FF03B030BD02A800F8052DE0
:106DB000FDF722FF64B12A6942B1944208D013461C
:106DC00001E09C4204D01B68002BFAD122602C61A8
:106DD000EB6863B90B4A0C491360136801934FF0D9
:106DE000804202200123019CC2F804030B60EB687F
:106DF0009DF803000133EB60FDF726FF03B030BDC3
:106E0000206C0020040100400800004008B509F093
:106E100077FC28B94FF08043D3F81804C0F3004042
:106E200008BD00BF30B5254D6B7883B0044603F034
:106E3000FF0293B110B143680020984702A80023D5
:106E400000F8043DFDF7D8FE6B689DF8040001339F
:106E50006B60FDF7F9FE03B030BD02A800F8052D08
:106E6000FDF7CAFE64B1AA6842B1944208D0134645
:106E700001E09C4204D01B68002BFAD12260AC6078
:106E80006B6843B16B689DF8030001336B60FDF7DD
:106E9000DBFE03B030BD09F033FC58B9084B186075
:106EA0001B6801934FF0804301220199C3F804232A
:106EB0001A60E7E7FFF736FFE4E700BF206C002029
:106EC0000001004010B582B002A80023144C00F865
:106ED000013DFDF791FE6368013B636063682BB180
:106EE0009DF80700FDF7B0FE02B010BD09F008FCE8
:106EF00098B90C4B01221A604FF08042D2F80C3442
:106F000003F00113B3F1011FF8D000239DF807002F
:106F10006370FDF799FE02B010BDFFF705FFDFE7D4
:106F2000206C00200400004000B583B009F0E8FBAD
:106F300068B94FF08043D3F80C0400F00110A0F1C1
:106F40000110B0FA80F0400903B05DF804FB01A81D
:106F5000FFF7ECFE0198003018BF012003B05DF888
:106F600004FB00BF10B51D4B1A6882B0F2B91C4B70
:106F70001A680AB902B010BD00221A601B6801939A
:106F80004FF080430222174C0199C3F8082323696C
:106F90000122A270002BEDD01A6822615B680120EB
:106FA00098472369002BF7D102B010BD00221A6068
:106FB0001B6800934FF0804301220A4C0099C3F8EC
:106FC0000823A3686270002BD1D01A68A2605B68A6
:106FD00000209847A368002BF7D1C8E700010040C4
:106FE00004010040206C002000B1704710B5064C31
:106FF000A3683BB11A68A2605B6800209847A36849
:10700000002BF7D110BD00BF206C002010B582B05E
:1070100002A80023144C00F8013DFDF7EDFD237894
:1070200093B9124A6360E3601068A36010F0010036
:10703000236114D009F064FB20B94FF08043012292
:10704000C3F8182501232370E3689DF80700013376
:107050000122E360A270FDF7F7FD02B010BD072129
:1070600000F006F8E6E700BF206C002000E100E039
:10707000002810B418DB00F1604303F561434901B7
:10708000C9B283F80013C3B24009800000F1604028
:1070900000F5614003F01F0201239340C0F88031E6
:1070A00003605DF8044B7047C3B2044A03F00F0459
:1070B00049012244C9B21176E6E700BFFCEC00E0CA
:1070C00030B51F4C94F8645083B015B1082003B05C
:1070D00030BD4FF0FF33FF22062007212363636397
:1070E000A363E36323646364A364E3642365636568
:1070F000A365E36523606360A360E360236163616C
:10710000A361E361236284F860306362A36284F860
:107110006230E36284F8633084F86120FFF7A8FFEF
:10712000084B094A1D601B68019301984FF000430A
:107130000121284684F86410C2F8043303B030BD3E
:10714000346C00207C61004000600040034B93F8E9
:107150006400003018BF0120704700BF346C00206D
:10716000F0B56A4C251895F93030002B01DB08206A
:10717000F0BD91F803E09446BEF1000F56D02368AD
:10718000013300F0BB80082600256B1C5F4F54F8CC
:107190002320013251D0AB1C9E4245D957F8232001
:1071A00001324AD0EB1C9E423ED957F823200132CF
:1071B00043D02B1D9E4237D957F8232001323CD0B3
:1071C0006B1D9E4230D957F82370013735D0AB1D67
:1071D0009E4229D954F823204C4F01322DD0EB1D6B
:1071E0009E4221D957F82320013226D005F1080309
:1071F0009E4219D957F8232001321ED005F1090308
:107200009E4211D957F82320013216D005F10A0306
:107210009E4209D957F8237001370ED00B35AE4284
:1072200002D9E36A013307D00420F0BD236A013399
:107230005CD00C260825A8E70B232618DDB244F8FD
:1072400023C0324686F83050BEF1000F02D12344ED
:1072500083F858008B78DBB91F284A7887BF2C4EFB
:1072600000F01F0303464FF0A04603F5E0739200C1
:1072700046F82320CB78E3B96AB2083A1444097877
:1072800094F8602042EA811284F860201846F0BD2C
:107290001F2887BF1E4B00F01F0202464FF0A0437D
:1072A00003EB8203D3F8002722F00202C3F8002781
:1072B000E0E76BB29B0003F1804303F5C0430A781B
:1072C000D3F8101521F44F3121F44071C3F8101593
:1072D0001204000202F44031D3F8104500F47C524D
:1072E0000A432243C3F810250020F0BD082685F884
:1072F00030603346C4F820C03546A8E7002385F83F
:107300003030C4F800C01D46A4E700BF346C002034
:1073100000030050F0B43A4D2E1882B096F8302099
:1073200053B2072B20DD2B4493F858309B09032BD5
:1073300044D0012B0CBF4FF400324FF440321F28D1
:1073400049D900F01F002F4B03EB8000D0F8003725
:1073500023F44033C0F80037D0F800371A43C0F8A0
:10736000002702B0F0BC7047072AFAD8980000F155
:10737000804000F5C04003F140029200D0F8104573
:1073800092B202F18042002744F0010402F5C042AB
:10739000C0F810450197019817600029E1D096F9CF
:1073A000302055F82220002ADBD00122164902FAAB
:1073B00003F3C1F8043302B0F0BC70471F280DD9A5
:1073C000104BD3F8103500F01F00C340DB0713D576
:1073D0004FF44032B7E74FF0A043B5E74FF0A0427B
:1073E0001346D2F81025C24012F0010F0CBF4FF423
:1073F00000324FF44032A7E74FF40032A3E700BF5A
:10740000346C002000030050006000401F288ABF39
:10741000054B4FF0A04300F01F00D3F8103523FABE
:1074200000F000F001007047000300502DE9F04F1C
:1074300089B00025B24B029503951A68012A00F025
:107440005081B04B1A68012A00F03D81AE4B1A689A
:10745000012A00F02A81AD4B1A68012A00F0178139
:10746000AB4B1A68012A00F00481AA4B1A68012A62
:1074700000F0F180A84B1A68012A00F0DE80A74BCB
:107480001A68012A00F0CB80A54B1A68012A00F087
:10749000B58015F0FF0F1AD0A24F01260024A300DB
:1074A00003F180432E4203F5C0434FEA46060BD05A
:1074B000D3F8100557F82420D3F81015C0F3052091
:1074C000C1F3014102B190470134082CE7D1002DEE
:1074D00002DB09B0BDE8F08F934F00224FF0FF337D
:1074E000A7F1630904920592069307938F4C4FF01E
:1074F000000A4FF0010814F8013FFF2B30D0DBB237
:1075000023F0C00008AAC608951903F0070215F871
:10751000081C08FA02F2114222D009EB000E990968
:107520009EF930E059F82EC0BCF1000F56D0032967
:1075300056D01F288ABF03F01F060646DFF8F0E189
:1075400015F818BC98BF4FF0A04E06F5E0761BEA80
:10755000020F5EF82650C5F301451AD1032D48D01D
:10756000BC42C8D1BAF1000FB3D04FF0A04302998A
:10757000D3F810356E4A9942D2F8102502D10399FA
:107580009142A6D004980599029303920690079120
:10759000ACE7022DE4D1032904D0BCF1000FDFD009
:1075A000E047DDE74FF440321F288BBF604D4FF0BE
:1075B000A04503F01F03034605EB83030AF1010A0C
:1075C000D3F8005725F44035C3F80057D3F80057D7
:1075D0002A435FFA8AFAC3F80027DEE70329BFD1FE
:1075E0000DF1100B1BF806E04EEA020E0BF806E058
:1075F0009FE70329D1D14FF40032D5E700221A606A
:107600001B6801934FF0A042019BD2F81025484B14
:107610000292D3F81035039345F0004539E7454A07
:10762000D2F8042312067FF52FAF00221A601B68E0
:107630000093009B45F0800526E73E4AD2F80423DC
:1076400051067FF51CAF00221A601B680093009B57
:1076500045F0400513E7374AD2F8042390067FF53A
:1076600009AF00221A601B680093009B45F02005BB
:1076700000E7304AD2F80423D4067FF5F6AE0022A4
:107680001A601B680093009B45F01005EDE6294A3F
:10769000D2F8042316077FF5E3AE00221A601B68B8
:1076A0000093009B45F00805DAE6224AD2F804234D
:1076B00057077FF5D0AE00221A601B680093009B2D
:1076C00045F00405C7E61B4AD2F8042392077FF56C
:1076D000BDAE00221A601B680093009B45F00205B6
:1076E000B4E61449D1F8041311F0010105D01D606E
:1076F0001B680093009B1546A3E60D46A1E600BF5C
:107700000061004004610040086100400C610040DD
:107710001061004014610040186100401C6100408D
:107720007C610040346C0020976C0020936C00203A
:1077300000030050006000402DE9F04103795A4DEC
:107740005B01EC1886B0247F44B101F06044B4F1D1
:10775000005F03D0102006B0BDE8F0812B44DFF8B5
:1077600048E19F7D1FB1112006B0BDE8F08199600E
:107770009A759F82067976010EEB06010B7F2BBB73
:107780000268C2F81C31D2F81C4102680594012439
:10779000059F94600468D1F808C0C4F81C31D4F87F
:1077A0001C310493049B8F8A8B8AD1F804E0BFB20A
:1077B00001331CF807709BB28B82C4F81C75BEF1B4
:1077C000000F33D0002006B0BDE8F08103688A685E
:1077D000C3F82071D3F8204103680294029CC3F8D7
:1077E0005871D3F85841036801948C7D019FC3F808
:1077F0004425C3F84845036801229A604B68002B72
:10780000E0D1026801E0002B4CD1D2F82011D2F86F
:107810005831003318BF01230029F4D0002B0CBFCE
:1078200000200F20AB1900229A7594E78F7D8B8A78
:1078300001F110029BB2BB4226D2046804E0938897
:107840009BB2B3F5807F05D0D4F81C3101F1100252
:10785000002BF4D001F1100293889BB2B3F5807F26
:10786000E5D0C4F81CE1D4F81C310393039BB2F8B3
:10787000048093881FFA88F801331CF808809BB2B3
:107880009380C4F81C85D2E793889BB2B3F5807FC0
:1078900008D00268D2F81C31002BFBD00123D36042
:1078A0000020BFE70F20BDE79C6C00200279044B4D
:1078B00003EB4213987D003018BF0120704700BFD2
:1078C0009C6C0020F0B50379924C5B01E51889B0FF
:1078D0002E7F3EB101F06046B6F1005F52D010201D
:1078E00009B0F0BD6F6827B105684FF40176C5F89F
:1078F0000863234403F11006F579DFF818E255BB5D
:10790000F271D9601D765D7606797601A319183378
:107910001F79002F47D19B788BB985B90368C3F8CD
:107920002451D3F8242103680492049AC3F808511F
:10793000D3F8082103680392012203991A60A5195C
:107940006B68002B64D003684FF401720020C3F809
:10795000042309B0F0BD1D7E85B1002F00F0AC807E
:1079600003790EEB431E9EF81C30002B49D00368B0
:107970004FF40472C3F804231120B1E719611A7699
:107980000125C1E76F68002FB3D00568DFF884E1F7
:107990004FF404762344C5F8086303F11006F57923
:1079A000002DADD0D7E703680026C3F81061D3F8E7
:1079B000107103680297029FC3F84461D3F84461D1
:1079C00003680196019EC3F83415C3F8382585B9BC
:1079D000036801221A6005796D0163195B68002B49
:1079E0006CD003684FF404720020C3F8042309B07C
:1079F000F0BD0268D2F8003243F02003C2F8003232
:107A0000E9E703684FF40172C3F80423112067E724
:107A10000268C2F84431D2F844310593059B0168ED
:107A2000D1F82421D1F80871D1F84431003218BFBF
:107A30000122003318BF012347B9002B35D1002A9A
:107A4000EED0A3190022DA75032049E7002AF8D105
:107A50006BBBEA7D02B3C1F80831D1F80831069357
:107A6000069A6F7EEA68D1F81815D1556A7E013200
:107A7000D2B26A7605F1180305F110025978D77968
:107A80008F42CCD89B780021D171002B3CD0036869
:107A9000012208461A6023E7C1F80821D1F808310D
:107AA0000793079BD1F81835E4E7002AC9D1A31939
:107AB0000022DA750F2013E7112011E7016801E0B9
:107AC000D3B9EAB9D1F81061D1F84431D1F8242101
:107AD000003318BF0123003218BF0122002EEFD05F
