:020000040000FA
:10000000F0270020150200001D0200001F02000062
:100010002102000023020000250200000000000071
:1000200000000000000000000000000027020000A7
:1000300029020000000000002B0200002D02000039
:100040002F0200002F020000050800002F02000010
:100050002F0200002F020000390300002F020000D1
:100060002F0200002F0200002F0200002F020000CC
:100070002F0200002F0200002F0200002F020000BC
:100080002F020000110500002F0200002F020000C7
:10009000350500002F0200002F0200002F02000093
:1000A0002F0200002F0200002F0200002F0200008C
:1000B0002F0200002F0200000000000000000000DE
:1000C0002F0200002F0200002F0200002F0200006C
:1000D0002F0200002F0200002F020000000000008D
:1000E0000000000000000000000000000000000010
:1000F0000000000000000000000000000000000000
:1001000000000000000000000000000000000000EF
:1001100000000000000000000000000000000000DF
:1001200000000000000000000000000000000000CF
:1001300000000000000000000000000000000000BF
:1001400000000000000000000000000000000000AF
:10015000000000000000000000000000000000009F
:10016000000000000000000000000000000000008F
:10017000000000000000000000000000000000007F
:10018000000000000000000000000000000000006F
:10019000000000000000000000000000000000005F
:1001A000000000000000000000000000000000004F
:1001B000000000000000000000000000000000003F
:1001C000000000000000000000000000000000002F
:1001D000000000000000000000000000000000001F
:1001E000000000000000000000000000000000000F
:1001F00000000000000000000000000000000000FF
:10020000DFF80CD000F086F800480047891900009C
:10021000F02700200648804706480047FEE7FEE733
:10022000FEE7FEE7FEE7FEE7FEE7FEE7FEE7FEE7A6
:1002300039050000010200002DE9F05F05460020AD
:1002400092469B4688460646814640241BE0284647
:1002500041464746224600F04CF853465A46C01ADB
:10026000914110D311461846224600F016F82D1A77
:1002700067EB01084F4622460120002100F00DF8EF
:1002800017EB00094E41201EA4F10104DFDC4846B3
:1002900031462A464346BDE8F09F202A04DB203A37
:1002A00000FA02F1002070479140C2F1200320FAC9
:1002B00003F319439040704700487047E82B000053
:1002C00040EA01039B0703D009E008C9121F08C0D8
:1002D000042AFAD203E011F8013B00F8013B521E58
:1002E000F9D27047421C10F8011B0029FBD1801A7B
:1002F0007047202A04DB203A21FA02F000217047DF
:1003000021FA02F3D040C2F120029140084319467D
:1003100070470000064C074D06E0E06840F001031E
:1003200094E8070098471034AC42F6D3FFF76CFF0F
:10033000702E0000902E00002DE9F04700268CB0B2
:10034000DFF86091B0464FF4807501243746069679
:10035000284601F031FE38B1D9F80403204203D019
:10036000284601F01FFE26432D1D64007F1CADB200
:10037000082FEDD34FF4BE74204601F01DFE48B1A6
:10038000204601F00FFE46F0004606AA012100209B
:1003900001F0F4FD444D16F0FF0F15D001270024A5
:1003A00037420DD009EB8401D1F81005D1F81015B2
:1003B000C0F3042055F82420C1F3014102B1904755
:1003C0007F00641C082CEBD3002E67DA4FF0FF305F
:1003D000CDE9088000263446281910F8507F90F99E
:1003E000000027F0C008401C44D009A9404601F095
:1003F000F7FA58B34FEA9719404601F0C3F855F899
:1004000020701FB1B9F1030F03D00FE0B9F1030F52
:1004100030D108A84FEAD80208F00703815C4FF0FA
:10042000010C0CFA03FC41EA0C0181544FF0A0418D
:1004300001EB8800D0F8000706A9C0F3014A404646
:1004400001F0CEFA18B1BAF1020F03D012E0BAF1FE
:10045000030F0FD1B9F1030F08D1BAF1020F1BD06E
:100460000221404601F06EFD761CF6B217B14946F6
:100470004046B847641C042CAED3002E0ED06A460A
:100480000121002001F07AFD06990098884205D0EC
:100490000690089809909DE70321E2E70CB0BDE8BB
:1004A000F0870000006000403001002000F01F02D3
:1004B000012191404009800000F1E020C0F8801245
:1004C000704700F01F02012191404009800000F1B7
:1004D000E020C0F80011704700F01F020121914098
:1004E0004009800000F1E020C0F800127047490781
:1004F000090E002806DA00F00F0000F1E02080F875
:10050000141D704700F1E02080F8001470470000CF
:1005100007480021C0F84011C0F84411C0F8481144
:10052000C0F84C11C0F80011C0F8041102F03EB937
:100530000010014002F08CB8F0B5A3480023021D62
:1005400001780125101D4FF0805406290BD1167833
:10055000360708D10678C6F30316032E06D0042EFC
:1005600004D0052E02D0062907D00EE0B4F824638B
:10057000964FC6F304263E6002E01678360704D193
:100580000678C6F30316032E02D0062904D00FE026
:10059000904F8F4E7E670EE01678360708D10678AA
:1005A000C6F30316032E06D0042E04D0052E02D067
:1005B000062907D00EE0D4F84462874FC6F34236CE
:1005C0003E6002E01678360704D10678C6F30316BB
:1005D000032E02D0062906D011E0804E376827F09E
:1005E000807737600EE01678360708D10678C6F3B4
:1005F0000316032E06D0042E04D0052E02D00629A1
:100600000AD011E04FF08046C6F80C31C6F8103120
:10061000714E361F336002E01678360704D1067833
:10062000C6F30316032E02D0062905D00CE06A4F4C
:10063000032664373E600AE01678360704D1067850
:10064000C6F30316032E02D006290DD014E0644F22
:1006500005263E60624E78363560614E083633605E
:100660003F263F1D3E6002E01678360704D106782B
:10067000C6F30316052E02D0062957D068E0594963
:100680000968594A11605749091D0968121D11600E
:10069000544908310968121D116052490C3109682A
:1006A000121D11604F4910310968121D11604D492A
:1006B00014310968121D11604A49183109684A4A03
:1006C0002032116047491C310968121D11604549EB
:1006D00020310968121D1160424924310968121D38
:1006E0001160404928310968121D11603D492C31C3
:1006F0000968121D11603B49303109683A4A40329D
:100700001160384934310968121D1160354938319A
:100710000968121D116033493C310968121D1160CE
:10072000304940310968121D116002E01178090753
:100730000ED10078C0F30310032803D0042801D0A1
:10074000052805D1D4F85802284900F04F00086068
:1007500022487438016841F470010160BFF34F8F83
:10076000BFF36F8F4FF01021D1F80002002803DB98
:10077000D1F80402002822DA1D4A15601D480468D9
:10078000002CFCD01524C1F800420568002DFCD0D7
:10079000C1F8044201680029FCD0136001680029F7
:1007A000FCD0BFF34F8F0D48F0380168124A01F4B6
:1007B000E06111430160BFF34F8F00BFFDE71049B7
:1007C0000E480860F0BD0000E00F00F04035014029
:1007D0000DF0ADBA00C007403C050040FCED00E064
:1007E000105600400404001020C50040E40E0040F4
:1007F00004E5014000E401400400FA050090D00344
:10080000C00000200448017F04480029024901D0AB
:1008100002F0D5B802F044B8880100200020004062
:100820000FB41CB50A46521ECDE9000207A9054BBC
:100830006A46069800F018F8009A002111701CBC56
:100840005DF814FBCB0C000002E008C8121F08C1C1
:10085000002AFAD170477047002001E001C1121F41
:10086000002AFBD1704700002DE9FF4F8DB00F46E5
:100870000546002606E025280BD0DDE90F1290473B
:100880006D1C761C28780028F5D111B03046BDE8E3
:10089000F08F0024A246A1460122EC4900E0044367
:1008A00015F8013F203B02FA03F00842F7D12878FF
:1008B0002A2810D06FF02F022878A0F130010929E2
:1008C00014D80AEB8A0102EB410144F0020400EB68
:1008D000010A6D1CF0E701CF5FEA000A03D544F47A
:1008E0000054CAF1000A44F002046D1C28782E2836
:1008F00017D115F8010F44F004042A280ED06FF028
:100900002F022878A0F1300109290AD809EB8901C2
:1009100002EB410100EB01096D1CF2E757F8049B63
:100920006D1C28786C280FD006DC4C2817D068285E
:100930000DD06A2814D104E0742810D07A280FD181
:100940000DE044F400140AE044F4801401E044F49F
:1009500040146978814202D104F580146D1C6D1C2D
:100960002A786E2A1FD00CDC632A31D004DC002ADE
:100970008BD0582A11D1A3E0642A68D0692A0CD1FF
:1009800065E0732A2ED004DC6F2A73D0702A04D15C
:100990009BE0752A6FD0782A6ED01046DDE90F12E1
:1009A0009047761C50E1C4F30250022806D0032879
:1009B00009D0042801CF09D0066045E101CFF11725
:1009C000C0E9006140E101CF06803DE106703BE1F6
:1009D00017F8040B8DF8000000208DF80100EB469D
:1009E000012003E057F804BB4FF0FF3061074FF0E0
:1009F000000102D40DE008F10101884649450FDAF3
:100A00008045F8DB1BF808100029F4D108E008F154
:100A1000010188468142FADB1BF808100029F6D153
:100A2000DDE90F23AAEB08008146214600F036F9E4
:100A3000304400EB080604E0DDE90F121BF8010B5F
:100A40009047B8F10108F7D221464846F7E00A215D
:100A5000C4F302534FF0000B0891022B04D001CFD6
:100A6000C117032B09D00AE0FF1D27F00707F7E89D
:100A7000020108E032E01FE020E000B2C117042BC1
:100A800001D140B2C117031E71F1000307DA4FF024
:100A9000000CD0EB0C006CEB01012D2302E02305D0
:100AA00004D52B238DF82430012303E0E30701D084
:100AB0002023F7E7984658E00A2110E010210EE0C5
:100AC00010204FF0000B08900CE010214FF0000BAD
:100AD00044F004044FF00809089103E008214FF0A6
:100AE000000B0891C4F30253022B04D001CF002164
:100AF000032B06D006E0FF1D27F00707F7E80201E9
:100B000003E080B2042B00D1C0B24FF000082307ED
:100B10002BD5702A07D0DDF820C08CF0100C5CEAD1
:100B20000B0C05D00EE040238DF82430012308E0A3
:100B300050EA010306D030238DF824308DF82520AB
:100B400002239846DDF820C08CF0080C5CEA0B0C00
:100B50000BD150EA010301D1630706D530238DF88C
:100B600024304FF00108A9F10109582A04D038A215
:100B70000B9208AA0A920BE03AA2F9E75B46089AA0
:100B8000FFF75AFB0B9B9B5C0A9A521E0A9213704A
:100B900050EA0102F2D10A98ADEB000000F1200BFF
:100BA000600702D524F4803401E04FF00109D945F3
:100BB00002DDA9EB0B0000E0002000EB0B0141443B
:100BC0000890AAEB010AE00306D4DDE90F232146D1
:100BD000504600F063F806444FF0000908E009A908
:100BE00011F80900DDE90F12904709F10109761C9F
:100BF000C145F4DBE0030CD5DDE90F232146504667
:100C000000F04CF8064404E0DDE90F123020904774
:100C1000761C0899481E08900029F5DC08E00A981F
:100C20000A990078491C0A91DDE90F129047761C59
:100C3000BBF10001ABF1010BF1DC21465046DDE9CF
:100C40000F2300F019F806446D1C1BE6092801006B
:100C50003031323334353637383961626364656632
:100C600000000000303132333435363738394142F4
:100C700043444546000000002DE9F04104460025AC
:100C80001E461746880404D405E039462020B047A4
:100C90006D1C641EF9D52846BDE8F0812DE9F041B0
:100CA000044600251E469046C80301D5302700E0C3
:100CB0002027880404D505E041463846B0476D1C1E
:100CC000641EF9D52846BDE8F0814A68002A06D09E
:100CD0000A68531C0B6010704868401E48607047DB
:100CE000022000F08DB9000070B50024064D06E02A
:100CF0006868012110F8340000F0EAFE641C2878CE
:100D00008442F5D3002070BD78000020F8B5154668
:100D10000C460646052A01D20720F8BD00F0BEFFAA
:100D200018B900F08DFF0028F7D1114900224E605C
:100D30000C708D60C1E90422C1E906220D4D0DE061
:100D400006EBC4006968009181788DF80110007885
:100D5000094A694600F00EFF0028DED1641EE4B2A5
:100D6000EED2BDE8F840054A0021024800F04AB83A
:100D700078000020182B00005117000061160000B9
:100D80000DA1012001F028FB01F080FA01F082FAA8
:100D90000028FBD10CA1032001F01EFBBFF34F8FF5
:100DA00010480168104A01F4E06111430160BFF38B
:100DB0004F8F00BFFDE700003A4552524F523A466E
:100DC0006174616C0D0A00003A494E464F3A486919
:100DD00074207765616B2068616E646C65720D0AC2
:100DE000000000000CED00E00400FA050EB5002143
:100DF0000091CDE901106A4644F20100FFF7C0FFFF
:100E00000EBD0000074B9B7823B12AB120B10068CA
:100E1000037C1BB108207047072070474174426172
:100E200000207047C801002070B501F0B1FB1048E8
:100E300000240B21047044700E4D817014206C60EE
:100E40002C706C70FFF732FB07211420FFF74FFB6B
:100E50001420FFF736FB0848046007211120FFF734
:100E600046FB0548001F0068A860002070BD000018
:100E7000C801002098000020081501402DE9F84322
:100E8000DFF8709099F802305BB350B3052902D2B5
:100E90000720BDE8F88343691BB3437C012B22D0B4
:100EA00000270446002588461646284600F036F8F6
:100EB000684601F0FDFDC0B1012101700E4944609A
:100EC0000968C0E90218C0E904769DF8000089F8B5
:100ED0000100002000F024F81420FFF7FDFA284656
:100EE000D7E70820D5E70F46DBE70425002000F010
:100EF00017F8F4E7C8010020041501400649897875
:100F000039B130B1416921B100210174022101F0F0
:100F10002DBC082070470000C801002000F002B876
:100F200000F008B872B602480168491C01607047B9
:100F3000AC00002003490868401E086000D162B67A
:100F400070470000AC0000202DE9F041064608681B
:100F50000C46411C4FF0A0474FF0010506D005FAA2
:100F600000F1C7F80815206800F0E2FF6068411C36
:100F700002D0002100F0D3FF3079204901EB40106E
:100F8000A169007F00283068C0F8241525D0607D55
:100F9000227D31681043C1F86C05D4E90012306835
:100FA000C0F80C15C0F8142524E0A068411C02D03C
:100FB000002100F0B4FFE068411C05D08540C7F86F
:100FC0000855E06800F0B4FFD4E902123068C0F8B8
:100FD0000825C0F81015BDE8F081607D217D3268DC
:100FE0000843C2F86C05D4E900123068C0F8142533
:100FF000C0F80C15207D0128D7D0ECE7880100202F
:1010000007490B5C4FF0A041D1F80425012098401E
:1010100020EA0203C1F808351040C1F80C057047FA
:10102000E02A00000249085C012100F09CBF00009A
:10103000E02A00000249085C002100F094BF000093
:10104000E02A00000649095C4FF0A040D0F80405F2
:10105000C84010F0010000D0012080F0010070476E
:10106000E02A00007CB50024084E25460122305DB0
:10107000009500231146019500F012FF641C042C1A
:10108000F4D3BDE87C4000F003B80000E02A000083
:1010900010B500242046FFF7C5FF641C042CF9D3CB
:1010A00010BD10B500242046FFF7C4FF641C042CBB
:1010B000F9D310BD10B50246064B4FF0FF300021AA
:1010C0005C5C944201D1084610BD491C0429F7D349
:1010D00010BD0000E42A00002DE9F0470D468146CE
:1010E000FFF7E8FF0446042836D2DFF874801B4877
:1010F0001C4EA8F10C0725B3012D0ED0022D2BD1CB
:1011000004EB440030444578002D25D0B96800290F
:1011100022D02846BDE8F047084704EB4401755C3F
:101120000E44717849B10E4A4FF40041093A806883
:10113000FFF7A4FE08B987F80390B17808F8041007
:10114000E2E78068FFF7DAFE04EB4401314418F867
:1011500004008D78A842D7D0BDE8F087E82A0000C7
:10116000700000200401002010B50549032000F0A4
:1011700069F8002803D0BDE81040FFF737BE10BD66
:10118000C911000070B50023042810D20D4D00EBEA
:101190004004012A02D101290CD00022094E00EBA3
:1011A0004000304461B1012906D0022906D007234E
:1011B000184670BD0E30C2B22A55F9E74270F7E703
:1011C0008270F5E70401002070B5134C0E282178D9
:1011D00006D00F281ED1172907D0491C217006E020
:1011E00009B1491EFAE7172000E00020207020789E
:1011F00000F01CF8054608482178001D50F8212011
:1012000006A1032001F00EF9280003D0BDE87040CC
:10121000FFF7ECBD70BD0000000000204150503AC7
:10122000494E464F3A25730D0A000000044A014614
:1012300000201279D20702D0084600F04DB870475E
:101240006400002070B506461E480024C0E9016114
:10125000B00720D50025012211462846FFF792FF4E
:101260006D1C0446042D02D2002CF4D013E094B976
:1012700040F2666204211448FFF748FD04000AD1D9
:10128000FFF732FD040006D10F48104A0021001F6D
:10129000FFF7B8FD0446F00701D0FFF7E3FE74B98D
:1012A00009480B4A00210C38FFF7ACFD040006D1B9
:1012B0000548084A01210838FFF7A4FD04462046E6
:1012C00070BD000064000020F42A00001915000021
:1012D0007D180000E10C00002DE9F05F6A4C054626
:1012E00000266078B34618B184F801B000F0AEFA79
:1012F000664F4FF47A694FF4C87A4FF00108182D01
:1013000062D2DFE805F0AC0C0C31404D62676B74C3
:101310006B74BE7D7D7D7D7DACAFB2B5BEBE002061
:10132000FFF790FE00284FF0000008D0FFF77AFE8C
:10133000022D02D14FF4E16008E0484606E0FFF7D5
:1013400079FE022D01D1C82000E05046410CC003B7
:101350004FF4FA72801841F1000125705200002309
:10136000FEF76AFF01462AE00020FFF76BFE002827
:101370004FF0000004D0FFF755FE4FF44870E5E74A
:10138000FFF758FEDFE70020FFF75CFE00284FF074
:10139000000002D0FFF746FECFE7FFF74BFED4E791
:1013A0000020FFF74FFE00284FF0000002D0FFF7AB
:1013B00039FE01E0FFF73EFE257041F69A1100224A
:1013C0003868FFF75BFD064646E00020FFF718FE91
:1013D000257008E0002051E025703DE084F8018090
:1013E0000120FFF70DFE002240F6CD41E8E784F82A
:1013F00001800120FFF704FE00224FF48041DFE767
:101400007868FFF77BFD0646D5F1110000D02EB1BC
:101410000220FFF707FE84F802B01DE0012816D96C
:1014200080B2C8214843C117C90341EA5041C003F3
:101430004FF4FA72801841F1000152000023FEF7C8
:10144000FBFE014600227868FFF718FD06460220E1
:10145000FFF7F0FD84F802803046BDE8F09F00F011
:10146000F5F9B9E700F0F2F9B4E700F0EFF904E0BC
:1014700000F0ECF90020FFF7DDFD0120FFF7DAFDB9
:10148000AAE7FFF70EFEA7E764000020E82A0000A5
:10149000002901DA00207047026811440160012030
:1014A0007047000070B5461C0D4601240020FFF770
:1014B00035FD114A10682860D2E900109568081AB5
:1014C0002B1A701C5B1C98420FD963B10B480C4B54
:1014D000294000681B6802EB810163F39F20C8600C
:1014E0001068401C1060002401E088191060002082
:1014F000FFF716FD204670BDD4030020402B0000EE
:10150000BC000020034803C8814201D1012070477C
:1015100000207047D403002000780221FFF7DCBDD3
:1015200005494FF0FF32082841F8202002D3084433
:1015300080F848207047000030010020F0B54FF0DF
:10154000FF3512B10023082601E008230C260C4CBD
:1015500005E000BF54F823707F1C04D05B1CB3422D
:10156000F8D32846F0BD26185DB286F8305044F80E
:101570002310002AF5D1E11881F84800F1E70000B6
:10158000300100200249084490F930007047000003
:101590003001002006480121016000228807C0F8C0
:1015A00004218160D0F804110029FBD070470000AD
:1015B000180500402DE9F05F26484168F1B3DFF8D7
:1015C00098B00E688146DBF8004087688078E11BA0
:1015D00021F07F45ED1CB0B9DFF880804FF48030FA
:1015E000C8F84403C8F804031120FEF75FFF112078
:1015F000FEF767FF4FF0010AC8F800A02F2000F0A7
:10160000F7F989F802A0B54200D23546124BE81925
:101610003C3320F07F401860DBF800105A46091B6D
:1016200021F07F41001B20F07F40C91C81420FD96F
:10163000106818602F2000F0DBF900E004E0BDE83E
:10164000F05F1120FEF748BFBDE8F05F00F0A0BFDB
:10165000BDE8F09F980000200415014000100140F3
:101660002DE9F05F0025DFF8A48043E060680021E9
:1016700000EBC506012032789146FEF70EFED4E954
:10168000062300EA020701EA030C57EA0C072FD0F1
:10169000C7433A408B434846C4E9062300F0C6FAE4
:1016A00032784FF0000A8146934601205146FEF7FA
:1016B000F4FDD4E9042300EA020401EA03075A46D0
:1016C00048465146FEF7E9FD44404F403C430FD1A8
:1016D0007078012815D0002289EA02008AEAE271B6
:1016E000084310D00020726812B1C1B2584690472A
:1016F0006D1CEDB298F8000044468542B6D3BDE8B3
:10170000F09F0122E8E70120EDE7000078000020CB
:101710000E4910B50A784C780023A24212D0521C10
:10172000D2B20A70022A00D10B70084A0B780C3230
:1017300052F8232002608868104420F07F408860BF
:10174000012010BD0360002010BD000098000020A3
:101750002DE9F0418046024601200021FEF79DFD63
:101760001A4F05460E463868FFF7C8FB00280CD113
:10177000174CD4E9062110462A4001EA06031A4311
:1017800005D0A843B143C4E90601BDE8F081404655
:1017900000F04CFA30B1D4E9040128433143C4E9E4
:1017A000040105E0D4E90410A943B043C4E90410DE
:1017B000D4E9060128433143C4E90601A168386829
:1017C000BDE8F0410022FFF759BB0000182B0000D4
:1017D0007800002070B50E460446007918494FF491
:1017E000A27501EB4010017F2068A1B14FF4887110
:1017F00000F074FE4FF49071206800F06FFE4FF41B
:101800009271206800F06AFE2946206800F066FEAA
:101810000C49206809E04FF48E7100F04EFE294615
:10182000206800F04AFE08492068C0F804132068C8
:1018300000F04BF93146BDE8704000F02AB90000D5
:101840008801002010030200800002000A4810B541
:10185000807860B1002401E0022C06D02046FFF71A
:10186000E1FB641C042CF7D310BD0324F6E7BDE8AC
:101870001040FFF70DBC0000640000200348017910
:10188000C90702D00078FFF727BD70476400002029
:101890002DE9F047394E002780463D46DFF8E090BD
:1018A000D6F804A057E003D00446D0F81C8035E0F9
:1018B00099F8002002EB4201521CD2B289F80020B4
:1018C00009EBC10199F80230091D9A4201D189F84A
:1018D000005048680A780446012A12D0022A02D031
:1018E000032A3BD108E000F011FF00B10127257465
:1018F00034E00574C06900E070680028F9D17060B8
:101900002CE0207C50BB88686060C868A0600869D3
:10191000E0604869A061F07800B165606268B16814
:10192000184B501A20F07F40984202D2A168084418
:1019300006E0881AA16820F07F40814202D9081A87
:10194000206000E0256065600120A56020742046CD
:10195000E56100F0BDFEB8F10000A4D199F80010D7
:1019600099F801008142A3D117B97168514502D09D
:101970000120BDE8F0870020FBE700009800002070
:10198000C8010020FFFF7F00FFF704FEFFF74CFABD
:1019900008B1FFF72BFA002000F078FD08B1FFF73F
:1019A00025FA07A1032000F017FDFFF7DDFB00BFBC
:1019B00000F070FC0028FBD140BF20BF20BFF7E73C
:1019C0004150503A494E464F3A4253502065786153
:1019D0006D706C6520737461727465642E0D0A00FD
:1019E000C20800F007030120895C98400840704756
:1019F00000283ED01F49204A096800BF00BF00BF31
:101A000000BF00BF00BF00BF00BF91422FD000BF8A
:101A100000BF00BF00BF00BF00BF00BF00BF00BFCE
:101A200000BF00BF00BF00BF00BF00BF00BF00BFBE
:101A300000BF00BF00BF00BF00BF00BF00BF00BFAE
:101A400000BF00BF00BF00BF00BF00BF00BF00BF9E
:101A500000BF00BF00BF00BF00BF00BF00BF00BF8E
:101A600000BF00BF00BF00BF00BF00BF00BF013804
:101A7000C3D17047C00000200024F40000F01F0212
:101A8000012191404009800000F1E020C0F8801160
:101A900070474907090E002806DA00F00F0202F12C
:101AA000E02282F8141D03E000F1E02282F8001425
:101AB00000F01F02012191404009800000F1E02068
:101AC000C0F88012C0F800117047000B40B2704798
:101AD0002DE9F0418846054600F006FD234E00281A
:101AE00028461AD0FFF74EFD304490F84800800990
:101AF000032802D001280ED007E04FF0A040D0F814
:101B00001005E84010F0010F05D003212846BDE87C
:101B1000F04100F017BA0221F8E700F0F1FC0028CC
:101B200022D02846FFF72EFD04464FF4807000EBCC
:101B300084000F4F81B207EB8400D0F8102542F0EB
:101B40000102C0F81025084600F02CFAB8F1000F89
:101B50000AD02846FFF716FD56F82000002803D0CB
:101B60000120A040C7F80403BDE8F0813001002047
:101B7000006000402DE9FC41DFF8A480044608EB3A
:101B80000400002790F930001346C0170E46401C91
:101B900001D0082741E0F27819462046FFF7CEFC35
:101BA0000546401C38D0B07850B14FF0A04000EB53
:101BB0008400D0F8001721F00201C0F8001707E0F8
:101BC00000217378204600910A46019100F07AF9CD
:101BD000F078C0B11348317800EB8500D0F81025BB
:101BE000114B1A40C0F810254FF4F8524FF440330F
:101BF00002EA042203EA01410A43D0F810150A431D
:101C0000C0F8102509E008EB0500327810F8481FED
:101C100041EA8211017000E004273846BDE8FC81EA
:101C20003001002000600040FFE0FCFF4FF0A041C9
:101C3000D1F81015C14011F0010000D0012070470B
:101C400070B5144D95F8540008B1082070BD0020FF
:101C5000411E2A18401CC0B282F830102028F8D348
:101C600000242046FFF75CFC641CE4B20C2CF8D383
:101C700007210620FFF70DFF4FF4BE7000F092F928
:101C800005494FF00040C1F80403012085F85400D5
:101C9000002070BD3001002000600040034890F833
:101CA0005400002800D001207047000030010020BF
:101CB0000121B1EB507F01D1012070470020704716
:101CC0002DE9F04105460079164F904607EB401488
:101CD0000E46E07E10B10820BDE8F081707F2077CD
:101CE0002846FFF731F95FEA08006060316921603A
:101CF00003D0317F2846FFF76DFD287907EB4010B0
:101D0000007F0028286801D0082100E00421C0F8E5
:101D100000150020E0752076A0750121E176A076FF
:101D2000DAE70000880100202DE9F0470546007938
:101D30003F4E904606EB40140F46207F18B10846F0
:101D4000FFF7B6FF30B1284600F074F820B111203B
:101D5000BDE8F0871020FBE784F81680A760002715
:101D6000A78228794FF0010806EB40143E46207FF9
:101D70000028286825D04FF49079494600F0AEFB42
:101D80004FF4AC7A5146286800F0A8FB2868A17D82
:101D9000A268C0F84425C0F848152868C0F8088033
:101DA0006068F0B94946286800F093FB80465146C8
:101DB000286800F08EFB58EA0001F3D058BBA775E5
:101DC0000FE04FF48E7A514600F077FB2868C0F898
:101DD00008802146286800F03DFD61684FF480705E
:101DE00089B13046B4E75146286800F061FB10B96C
:101DF000A08A4845F7D1A08A484505D021462868E1
:101E000000F028FD00E08146A08AA17D8842EAD347
:101E1000A08A484501D10F26D1E75146286800F035
:101E200047FB0028F9D02868C0F80C80C7E70000FD
:101E3000880100200079044901EB4010807D0028D2
:101E400000D00120704700008801002070B50446D2
:101E500000791149002601EB401520682A7FC0F85F
:101E60000065686888B1207901EB4010007F002888
:101E7000206801D0094901E008498C39C0F80813ED
:101E80002068FFF722FEFFF7F9FD204600F044FB33
:101E9000EE766E6070BD0000880100201003020025
:101EA00070B541EA4201DDE904564FF0A04441EA31
:101EB000830141EA052104EB800041EA0641C0F8B4
:101EC000001770BD70B541EA4201DDE904564FF0DC
:101ED000A04441EA830141EA052104EB800041EA84
:101EE0000641C0F8001770BD70B541EA4201DDE956
:101EF00004564FF0A04441EA830141EA052104EB76
:101F0000800041EA0641C0F8001770BD1CB50021F1
:101F100000910B4601220191FFF7E6FF1CBD1CB5A5
:101F200000220B46009211460192FFF7DDFF1CBD17
:101F30001CB5002100910B46012201911146FFF7CB
:101F4000D3FF1CBD4FF0A04202EB8000D0F8002769
:101F500022F44032C0F80027D0F8002742EA0141BD
:101F6000C0F80017704701224FF0A043824011B122
:101F7000C3F808257047C3F80C25704718B5084BFF
:101F80006C4601441B68009306E000BF54F8203003
:101F9000D3F81035401C08C28142F7D818BD0000A4
:101FA000142B0000034908B50844002101600068B3
:101FB000009008BD0060004002494058012800D050
:101FC000002070470060004000487047412000003A
:101FD00030B5184C054689B0207828B16078854224
:101FE00002D1002009B030BD202213496846FEF717
:101FF00067F900208DF81400062000900820019059
:1020000005200390072002904FF0EB7006900948DE
:10201000001DFFF71BFF0DB1002200E0074A054835
:102020006946001DFFF74CFE0028DBD1012020701F
:102030006570D6E7B0000020202B0000912800003A
:102040002DE9F04FC1B00D004FF0000140914D98C7
:102050004B991C46174601EB000B01D00A2000E00B
:102060000020804600F0D8FA00287CD16E46BCB92A
:10207000409840AA3118284600F0D2FB002872D0C0
:102080003846FEF72FF9C22800D9C22005464098ED
:102090002A4630443946FEF713F9409828444090C8
:1020A0004FF0200A409901EB080231320DEB010597
:1020B0000DEB0206002002E005F801AB401C404594
:1020C000FAD300275C4508D305F801AB05F801AB4E
:1020D00005F801AB06F801AB2DE04B98844202D223
:1020E0004A98005D02E0211A4C98405C2B468146DC
:1020F00002460121880022FA00F000F00F000928B2
:1021000001D9373000E03030C1F1010C491E03F82D
:102110000C00EFD29D1C05F801ABFEF7CDF801686D
:1021200011F8090010F03E0F01D0484600E02E20C3
:1021300006F8010B641C7F1C102FC3D30D203070D8
:102140000A20707085F800A04099684641444331E8
:10215000409100F067FA30B100F05EFA18B9002043
:1021600040905C459ED341B02046BDE8F08F2DE9FC
:10217000F043C7B000251C46904689464E9F4595C2
:1021800000F04AFA00287AD1459805AE311845AAE0
:10219000484600F045FB002835D0072F27D2DFE85E
:1021A00007F004121B35424F5D004046FEF79AF8D7
:1021B000054645982918FF2919D830442A46414632
:1021C000FEF77EF813E045982368C0F5807130442F
:1021D0004246FEF725FB09E06068009045982368B9
:1021E000C0F5807130444246FEF71AFB0546294689
:1021F00045A8FFF74DF9459978B3B1F5807F3ED8F2
:1022000005A800F00FFA47B0BDE8F083D4E901015A
:10221000CDE9000145982368C0F5807130444246FD
:10222000FEF7FEFAE2E7201D07C88DE80700459893
:102230002368C0F5807130444246FEF7F1FAD5E7D5
:10224000201D0FC88DE80F0045982368C0F58071E8
:1022500030444246FEF7E4FAC8E710E004F1080013
:1022600001AD0FC885E80F006068009045982368AD
:10227000C0F5807130444246FEF7D2FAB6E700203E
:10228000C1E70000004870476F2100000120FFF700
:102290009FBE00002DE9F04F87B0FFF733F918B16A
:1022A000002007B0BDE8F08F454ED6E9014704EAAB
:1022B000070006EB8000A146641CC5680CE000BF67
:1022C000C5F3891000EB9550044404EA070006EBBF
:1022D0008000A146C568641CA807F1D005F0030082
:1022E0004FF0000B022805D0AA0A01A8C5F38313FA
:1022F000002153E004EA070006EB800004F1010A24
:102300000AEA0704C268381B80004FEA9558001D8E
:10231000C5F38913804521D929490C3138B106EB21
:10232000840400F0FF0CA8EB00000C3404E00C4621
:10233000002108F0FF0C0846C0B2CDE90210CDE93B
:10234000004CD6F81444C5F3C2005946A047404596
:1023500011D108F103080AEB98042AE0002106EBEA
:1023600084000C300090CDE901810391C5F3C200D7
:10237000D6F81444EAE760F38F1509EA070006EB84
:102380008000C56016E000BF04EA070C06EB8C0C69
:10239000491CDCF80CC040F804CB641C9942F3D310
:1023A000C5F3C2000093D6F8105401AB5946A847B4
:1023B00000B17460FFF7A6F880F0010071E700003B
:1023C000D4030020034AFF2393600023136053606B
:1023D00000F054B8D40300202DE9F8430F4F88468D
:1023E0000446002569462846BE68FFF75BF80028CA
:1023F00012D00B480021406861F38200009964F319
:10240000C50001EA060265F3891007EB820268F352
:102410009F20491CD0600091BDE8F883D4030020C0
:10242000402B00002DE9F843124D88460446012751
:10243000914669463846AE68FFF734F8002817D051
:102440000D480021806861F38200009964F3C500A3
:1024500001EA060267F3891005EB820268F39F2008
:10246000491CD0600091314005EB8101C1F80C900E
:10247000BDE8F883D4030020402B0000024A02F597
:10248000826203C270470000D403002070B5064684
:102490000020FFF79DFD040008D1FFF795FD0546DC
:1024A000FFF7F0FE32462946FFF78CFF204670BD4D
:1024B0004058002800D00120704708B50022425043
:1024C0004058009008BDD0F80403084000D0012017
:1024D00070474058002800D00120704708B50022FE
:1024E00042504058009008BD0449084490F930001B
:1024F000082801DB012070470020704730010020D0
:102500000449084490F93000082801D2012070479E
:10251000002070473001002070B5034600791B4948
:1025200001EB40101968027F4FF0FF30002AD1F80C
:102530000C25D1F81465D1F80855D1F8104504D010
:10254000C1F80C05C1F8140503E0C1F81405C1F881
:102550000C051968C1F80805C1F81005501C02D017
:102560001046FFF7D3FC701C02D03046FFF7CEFCBC
:10257000601C02D02046FFF7C9FC681C04D0284626
:10258000BDE87040FFF7C2BC70BD000088010020AC
:1025900070B5012670044FF0E0210025C1F88001DC
:1025A000084C4010C4F84803C4F8080366602F20A4
:1025B000FFF71EFAA660044C2F20A560FFF718FA5B
:1025C000A57070BD001001409800002070B5054650
:1025D000C87D0C4600284FF4847128460AD0FFF7C6
:1025E0006CFFD5F81805627EE1688854607E401C57
:1025F000607670BDFFF761FFD5F8180570BD1FB597
:1026000001238DF800308DF808100192D0E90012F6
:10261000684690471FBD00000148FFF70BBC000053
:10262000B400002070B50D460A4601460124064854
:10263000FDF746FEEAB204490448FFF775FB00B116
:102640000024204670BD0000D4020020B400002009
:102650002DE9F84F1D4C00256846D4E901A6FFF787
:1026600057F8002738B30023009A61681CE0D1F8BE
:1026700000C00846944503D9ACEB02020A6015E09D
:10268000A2EB0C0263440760D0F80CC0C16981461C
:10269000BCF1000F08D006EB030828F07F48C0E922
:1026A000018CC9F81C5005460029E0D1284661601C
:1026B000FFF7EEF803E02846FFF7EAF810B15046BE
:1026C000FEF778FFE770BDE8F88F00009800002063
:1026D0000D4B10B5596831B102680C68A24204D89C
:1026E000A21A0A60C161586010BD0B4603E00B4698
:1026F000C969121B21B10C689442F8D3A41A0C606A
:102700000260C161D86110BD980000202DE9F04140
:10271000144E77683D462C4603E0844204D025469B
:10272000E469002CF9D11BE0D4B1A5420BD1F869C2
:10273000706040B90C49012088600021B160F070E0
:102740002F20FFF755F92168E069E86110B10268B0
:10275000114401607068874202D00120BDE8F08119
:102760000020FBE79800002000100140F8B5064665
:1027700000240D462046FEF7D1FB684600F098F98C
:1027800068B10570084946609DF800004870002057
:10279000FEF7C6FB1420FDF79FFE2046F8BD04247B
:1027A0000020FEF7BDFBF8E7C80100202DE9F0414D
:1027B000194D6C68002C2CD0184800270068A968B7
:1027C000B846401A20F07F462068B0420CD8214617
:1027D000361A0744E469087C20B181F810808869C2
:1027E00049698847002CEFD129786878814206D161
:1027F000401CC0B26870022801D185F801800648EB
:1028000069780C3040F82170BDE8F0411420FDF7E4
:1028100063BEBDE8F081000098000020041501406F
:1028200010B5144602004FF001000CD008461368A2
:1028300006A24FF48071FDF7F3FF01462046BDE884
:102840001040FEF725BE0021216010BD5B25303809
:10285000645D000070B50C4605464FF48E71FFF7BD
:102860002CFEA18AA068415CA08A401CA082C5F809
:102870001C1570BD1FB500228DF800208DF80810C2
:10288000816801918275D0E90012684690471FBDAA
:102890000078012801D1014988707047B0000020FC
:1028A0002DE9FF470C4605464FF40071FFF70BFE7C
:1028B00001274FF40178002618B34FF49279494666
:1028C0002846FFF7F5FDE0B149462846FFF7F5FD3C
:1028D000C5F80883A07E00B96F6002208DF8000063
:1028E000D5F88004C5F880040390E07D8DF80800D9
:1028F000E0680190E6752676D4E9001268469047B4
:1029000027E004212846FFF7DEFD10B34FF4847161
:102910002846FFF7CDFDE0B121462846FFF756FED9
:10292000E07D617E884214D1207E38B1617EE2680C
:10293000E0752069E0602676667607E0A07E00B943
:102940006F60C5F80883E675617EE2682046FFF790
:1029500056FE4FF48E7841462846FFF7A9FD88B110
:10296000A08AA17D884204D221462846FFF772FF43
:1029700008E041462846FFF7A0FDA17D11B12046A1
:10298000FFF778FF4FF4A27841462846FFF790FD05
:10299000002812D041462846FFF78FFDA07E00B1E7
:1029A0002F60E07D002808D0E675617EE26804B003
:1029B0002046BDE8F047FFF722BEBDE8FF872DE9BE
:1029C000FF410C464FF4927705463946FFF781FDEB
:1029D0000026C0B139462846FFF780FD02208DF859
:1029E0000000D5F88004C5F880040390D5F83C05B4
:1029F0008DF80800E0680190E6752676D4E90012AB
:102A00006846904724E04FF4887739462846FFF718
:102A100060FDE8B139462846FFF760FDD5F83C0572
:102A2000C1B2E07D884213D1207E60B1E268D5F862
:102A3000000220F02000C5F80002207EE075206929
:102A4000E060267601E0E675E2682046FFF7D7FDF4
:102A50004FF4A27739462846FFF73BFD68B1394667
:102A60002846FFF73BFDE07D38B1E675D5F83C051B
:102A7000E268C1B22046FFF7C2FD4FF490763146BE
:102A80002846FFF726FD00280FD031462846FFF7DD
:102A900025FDA07D002808D0D5F84C0504B0C1B2B2
:102AA0002046BDE8F041FFF7E5BEBDE8FF8100002C
:102AB0000A494A788B78521CD2B2934200D1002244
:102AC0000B78934201D1002070470270487800EBE8
:102AD000400001EBC000001D70470000C80100204D
:102AE000111213140D0E0F10C4000020E40000207A
:102AF000100100200D000300D91000000E0003009B
:102B0000D91000000F000300D910000010000300CE
:102B1000D910000000000050A801002003000000B0
:102B2000FFFFFFFFFFFFFFFFFFFFFFFFFFFFFFFFB5
:102B300000000000000000000000D60107010000B6
:102B40002900000001000000010000000100000059
:102B50000100000001000000010000000100000071
:102B600002000000004040404040404040404141A1
:102B70004141414040404040404040404040404052
:102B800040404040400502020202020202020202EC
:102B900002020202022020202020202020202002E9
:102BA0000202020202029090909090901010101079
:102BB0001010101010101010101010101010101015
:102BC00002020202020288888888888808080808A9
:102BD0000808080808080808080808080808080875
:102BE0000202020240000000652B00004253505FC9
:102BF000494E4449434154455F555345525F5354F0
:102C00004154455F300000004253505F494E4449F3
:102C1000434154455F414C4552545F300000000031
:102C20004253505F494E4449434154455F555345D3
:102C3000525F53544154455F310000004253505F8E
:102C4000494E4449434154455F414C4552545F31DC
:102C5000000000004253505F494E444943415445EF
:102C60005F555345525F53544154455F3200000055
:102C70004253505F494E4449434154455F414C459E
:102C800052545F32000000004253505F494E4449A5
:102C9000434154455F555345525F53544154455F3A
:102CA000330000004253505F494E4449434154456C
:102CB0005F414C4552545F33000000004253505F67
:102CC000494E4449434154455F434F4E4E4543545A
:102CD000454400004253505F494E444943415445E6
:102CE0005F4144564552544953494E475F44495207
:102CF00045435445440000004253505F494E444907
:102D0000434154455F49444C450000004253505FE5
:102D1000494E4449434154455F555345525F5354CE
:102D20004154455F4F4646004253505F494E444927
:102D3000434154455F414C4552545F4F4646000065
:102D40004253505F494E4449434154455F424F4EC0
:102D500044494E47000000004253505F494E4449E9
:102D6000434154455F5343414E4E494E4700000096
:102D70004253505F494E4449434154455F41445694
:102D80004552544953494E47000000004253505F9A
:102D9000494E4449434154455F53454E545F4F4B60
:102DA000000000004253505F494E4449434154459E
:102DB0005F5243565F4F4B004253505F494E444968
:102DC000434154455F555345525F53544154455F09
:102DD0004F4E00004253505F494E444943415445D1
:102DE0005F53454E445F4552524F52004253505F2D
:102DF000494E4449434154455F464154414C5F4527
:102E000052524F52000000004253505F494E444915
:102E1000434154455F5243565F4552524F52000062
:102E20004253505F494E4449434154455F414456E3
:102E30004552544953494E475F57484954454C49B8
:102E4000535400004253505F494E44494341544556
:102E50005F4144564552544953494E475F534C4F86
:102E6000570000004F766572666C6F770D0A0000A0
:102E7000902E000000000020C40000004808000060
:102E8000542F0000C40000202C2700005808000028
:102E900000000000F82C0000582D0000702D0000EC
:102EA000202E0000442E0000D42C0000402D0000F5
:102EB000BC2C00008C2D0000D42D0000A42D00009F
:102EC000082E0000EC2D0000082C00003C2C000017
:102ED000702C0000A42C0000282D00000C2D0000F8
:102EE000EC2B0000202C0000542C0000882C00004B
:102EF000B82D0000000000000000000000000000ED
:102F000000000000000000000000000000000000C1
:102F100000000000000000000000000000000000B1
:102F200000000000000000000000000000000000A1
:102F30000000000000000000000000000000000091
:102F4000000000000020004000000000642E00008F
:042F50000090D0031A
:0400000500000201F4
:00000001FF
