:020000040000FA
:10000000683800204902000051020000150200007B
:1000100055020000570200005902000000000000D5
:100020000000000000000000000000005B02000073
:100030005D020000000000005F020000610200009D
:100040006302000063020000CD080000ED0500001F
:100050006302000063020000A903000063020000C5
:1000600063020000630200006302000063020000FC
:1000700063020000630200006302000063020000EC
:1000800063020000C9050000630200006302000073
:10009000FD0500006302000063020000630200002F
:1000A00063020000630200006302000063020000BC
:1000B0006302000063020000000000000000000076
:1000C000630200006302000063020000630200009C
:1000D00063020000630200006302000000000000F1
:1000E0000000000000000000000000000000000010
:1000F0000000000000000000000000000000000000
:1001000000000000000000000000000000000000EF
:1001100000000000000000000000000000000000DF
:1001200000000000000000000000000000000000CF
:1001300000000000000000000000000000000000BF
:1001400000000000000000000000000000000000AF
:10015000000000000000000000000000000000009F
:10016000000000000000000000000000000000008F
:10017000000000000000000000000000000000007F
:10018000000000000000000000000000000000006F
:10019000000000000000000000000000000000005F
:1001A000000000000000000000000000000000004F
:1001B000000000000000000000000000000000003F
:1001C000000000000000000000000000000000002F
:1001D000000000000000000000000000000000001F
:1001E000000000000000000000000000000000000F
:1001F00000000000000000000000000000000000FF
:10020000DFF80CD000F0BEF8004800477918000075
:1002100068380020094B1EF0040F1CBFEFF3098063
:100220001847EFF308800649064A884201D89042F1
:1002300002D88D464FF00000184700001D05000051
:1002400068380020681800200648804706480047A4
:10025000FEE7FEE7FEE7FEE7FEE7FEE7FEE7FEE776
:10026000FEE7FEE701060000010200002DE9F05F55
:100270000546002092469B46884606468146402415
:100280001BE0284641464746224600F06BF853469D
:100290005A46C01A914110D311461846224600F022
:1002A00016F82D1A67EB01084F462246012000215F
:1002B00000F00DF817EB00094E41201EA4F10104D7
:1002C000DFDC484631462A464346BDE8F09F202AF7
:1002D00004DB203A00FA02F1002070479140C2F19D
:1002E000200320FA03F319439040704700487047F9
:1002F000304C000040EA01039B0703D009E008C925
:10030000121F08C0042AFAD203E011F8013B00F8DA
:10031000013B521EF9D27047D2B201E000F8012B26
:10032000491EFBD270470022F6E710B513460A4675
:1003300004461946FFF7F0FF204610BD421C10F896
:10034000011B0029FBD1801A704730B504460020FC
:10035000034600E05B1C934203D2E05CCD5C401B93
:10036000F8D030BD202A04DB203A21FA02F0002127
:10037000704721FA02F3D040C2F1200291400843B5
:1003800019467047064C074D06E0E06840F001034F
:1003900094E8070098471034AC42F6D3FFF734FFD7
:1003A0002C5200004C5200002DE9F04700268CB082
:1003B000DFF86091B0464FF4807501243746069609
:1003C000284602F0C9FD38B1D9F80403204203D011
:1003D000284602F0B7FD26432D1D64007F1CADB2F8
:1003E000082FEDD34FF4BE74204602F0B5FD48B19E
:1003F000204602F0A7FD46F0004606AA0121002093
:1004000002F08CFD444D16F0FF0F15D0012700249B
:1004100037420DD009EB8401D1F81005D1F8101541
:10042000C0F3042055F82420C1F3014102B19047E4
:100430007F00641C082CEBD3002E67DA4FF0FF30EE
:10044000CDE9088000263446281910F8507F90F92D
:10045000000027F0C008401C44D009A9404602F023
:10046000D1F958B34FEA9719404601F02DF855F8E5
:1004700020701FB1B9F1030F03D00FE0B9F1030FE2
:1004800030D108A84FEAD80208F00703815C4FF08A
:10049000010C0CFA03FC41EA0C0181544FF0A0411D
:1004A00001EB8800D0F8000706A9C0F3014A4046D6
:1004B00002F0A8F918B1BAF1020F03D012E0BAF1B4
:1004C000030F0FD1B9F1030F08D1BAF1020F1BD0FE
:1004D0000221404602F0FEFC761CF6B217B14946F6
:1004E0004046B847641C042CAED3002E0ED06A469A
:1004F0000121002002F012FD06990098884205D0E3
:100500000690089809909DE70321E2E70CB0BDE84A
:10051000F0870000006000408011002004468269DE
:1005200006A1012002F096FF02F080FE02F082FE9A
:100530000028FBD1204600F013F800004841524447
:100540004641554C543A4552524F523A48617264B2
:100550006661756C742050433A25780D0A000000DE
:10056000BFF34F8F05480168054A01F4E06111436C
:100570000160BFF34F8F00BFFDE700000CED00E00E
:100580000400FA0500F01F0201219140400980009B
:1005900000F1E020C0F88012704700F01F02012136
:1005A00091404009800000F1E020C0F80011704740
:1005B00000F01F02012191404009800000F1E0207D
:1005C000C0F800127047000007480021C0F8401131
:1005D000C0F84411C0F84811C0F84C11C0F800111F
:1005E000C0F8041103F0A0BA00100140014902480C
:1005F00001F06AB8D81100200030004003F006BABC
:10060000F0B5A3480023021D01780125101D4FF00D
:10061000805406290BD11678360708D10678C6F320
:100620000316032E06D0042E04D0052E02D0062970
:1006300007D00EE0B4F82463964FC6F304263E605C
:1006400002E01678360704D10678C6F30316032EA7
:1006500002D0062904D00FE0904F8F4E7E670EE047
:100660001678360708D10678C6F30316032E06D08F
:10067000042E04D0052E02D0062907D00EE0D4F8AF
:100680004462874FC6F342363E6002E01678360772
:1006900004D10678C6F30316032E02D0062906D02D
:1006A00011E0804E376827F0807737600EE01678CB
:1006B000360708D10678C6F30316032E06D0042E9B
:1006C00004D0052E02D006290AD011E04FF0804652
:1006D000C6F80C31C6F81031714E361F336002E097
:1006E0001678360704D10678C6F30316032E02D017
:1006F000062905D00CE06A4F032664373E600AE005
:100700001678360704D10678C6F30316032E02D0F6
:1007100006290DD014E0644F05263E60624E7836FF
:100720003560614E083633603F263F1D3E6002E073
:100730001678360704D10678C6F30316052E02D0C4
:10074000062957D068E059490968594A1160574944
:10075000091D0968121D1160544908310968121DEC
:10076000116052490C310968121D11604F49103156
:100770000968121D11604D4914310968121D11607C
:100780004A49183109684A4A2032116047491C31E8
:100790000968121D1160454920310968121D116058
:1007A000424924310968121D116040492831096805
:1007B000121D11603D492C310968121D11603B4921
:1007C000303109683A4A4032116038493431096899
:1007D000121D1160354938310968121D1160334905
:1007E0003C310968121D1160304940310968121D01
:1007F000116002E0117809070ED10078C0F30310F0
:10080000032803D0042801D0052805D1D4F85802C4
:10081000284900F04F00086022487438016841F40C
:1008200070010160BFF34F8FBFF36F8F4FF0102146
:10083000D1F80002002803DBD1F80402002822DAF4
:100840001D4A15601D480468002CFCD01524C1F811
:1008500000420568002DFCD0C1F80442016800295F
:10086000FCD0136001680029FCD0BFF34F8F0D4806
:10087000F0380168124A01F4E06111430160BFF3EE
:100880004F8F00BFFDE710490E480860F0BD000023
:10089000E00F00F0403501400DF0ADBA00C0074058
:1008A0003C050040FCED00E0105600400404001040
:1008B00020C50040E40E004004E5014000E4014092
:1008C0000400FA050090D0036C0000200448017F6A
:1008D00004480029024901D004F083B803F0F2BFB4
:1008E00000120020002000400FB41CB50A46521E22
:1008F000CDE9000207A9054B6A46069800F018F8F2
:10090000009A002111701CBC5DF814FB930D0000CF
:1009100002E008C8121F08C1002AFAD170477047C8
:10092000002001E001C1121F002AFBD17047000026
:100930002DE9FF4F8DB00F460546002606E025281D
:100940000BD0DDE90F1290476D1C761C287800282B
:10095000F5D111B03046BDE8F08F0024A246A14683
:100960000122EC4900E0044315F8013F203B02FA64
:1009700003F00842F7D128782A2810D06FF02F0210
:100980002878A0F13001092914D80AEB8A0102EB7A
:10099000410144F0020400EB010A6D1CF0E701CFB5
:1009A0005FEA000A03D544F40054CAF1000A44F097
:1009B00002046D1C28782E2817D115F8010F44F079
:1009C00004042A280ED06FF02F022878A0F13001FD
:1009D00009290AD809EB890102EB410100EB010961
:1009E0006D1CF2E757F8049B6D1C28786C280FD01B
:1009F00006DC4C2817D068280DD06A2814D104E0F2
:100A0000742810D07A280FD10DE044F400140AE0C5
:100A100044F4801401E044F440146978814202D126
:100A200004F580146D1C6D1C2A786E2A1FD00CDC16
:100A3000632A31D004DC002A8BD0582A11D1A3E0DC
:100A4000642A68D0692A0CD165E0732A2ED004DCB0
:100A50006F2A73D0702A04D19BE0752A6FD0782A50
:100A60006ED01046DDE90F129047761C50E1C4F3BA
:100A70000250022806D0032809D0042801CF09D04B
:100A8000066045E101CFF117C0E9006140E101CF07
:100A900006803DE106703BE117F8040B8DF800007D
:100AA00000208DF80100EB46012003E057F804BB5D
:100AB0004FF0FF3061074FF0000102D40DE008F164
:100AC0000101884649450FDA8045F8DB1BF808101C
:100AD0000029F4D108E008F1010188468142FADBDF
:100AE0001BF808100029F6D1DDE90F23AAEB080056
:100AF0008146214600F036F9304400EB080604E058
:100B0000DDE90F121BF8010B9047B8F10108F7D28D
:100B100021464846F7E00A21C4F302534FF0000B88
:100B20000891022B04D001CFC117032B09D00AE092
:100B3000FF1D27F00707F7E8020108E032E01FE099
:100B400020E000B2C117042B01D140B2C117031E2F
:100B500071F1000307DA4FF0000CD0EB0C006CEBE6
:100B600001012D2302E0230504D52B238DF8243029
:100B7000012303E0E30701D02023F7E7984658E07C
:100B80000A2110E010210EE010204FF0000B089019
:100B90000CE010214FF0000B44F004044FF0080962
:100BA000089103E008214FF0000B0891C4F30253B1
:100BB000022B04D001CF0021032B06D006E0FF1D3D
:100BC00027F00707F7E8020103E080B2042B00D109
:100BD000C0B24FF0000823072BD5702A07D0DDF8EC
:100BE00020C08CF0100C5CEA0B0C05D00EE040230A
:100BF0008DF82430012308E050EA010306D03023A9
:100C00008DF824308DF8252002239846DDF820C089
:100C10008CF0080C5CEA0B0C0BD150EA010301D1FB
:100C2000630706D530238DF824304FF00108A9F171
:100C30000109582A04D038A20B9208AA0A920BE0A4
:100C40003AA2F9E75B46089AFFF710FB0B9B9B5C07
:100C50000A9A521E0A92137050EA0102F2D10A98BF
:100C6000ADEB000000F1200B600702D524F48034C6
:100C700001E04FF00109D94502DDA9EB0B0000E0CE
:100C8000002000EB0B0141440890AAEB010AE003AD
:100C900006D4DDE90F232146504600F063F80644F0
:100CA0004FF0000908E009A911F80900DDE90F1269
:100CB000904709F10109761CC145F4DBE0030CD52E
:100CC000DDE90F232146504600F04CF8064404E0CD
:100CD000DDE90F1230209047761C0899481E0890D5
:100CE0000029F5DC08E00A980A990078491C0A9165
:100CF000DDE90F129047761CBBF10001ABF1010B4F
:100D0000F1DC21465046DDE90F2300F019F80644D6
:100D10006D1C1BE60928010030313233343536377B
:100D20003839616263646566000000003031323337
:100D300034353637383941424344454600000000D7
:100D40002DE9F041044600251E461746880404D4C8
:100D500005E039462020B0476D1C641EF9D52846B1
:100D6000BDE8F0812DE9F041044600251E4690467D
:100D7000C80301D5302700E02027880404D505E00A
:100D800041463846B0476D1C641EF9D52846BDE87B
:100D9000F0814A68002A06D00A68531C0B60107064
:100DA0004868401E486070471CB50621684600F040
:100DB00069F8002811D100224FF47A7300F088F905
:100DC00018B1521C92B29A42F8D3062203496846DF
:100DD000FFF7BBFA002800D003201CBD0C4B00001D
:100DE00010B5144600F00CF8002808D1204600F099
:100DF00010FA18B1BDE81040FFF7D6BF032010BDB0
:100E00002DE9F84380461C480C46C07910B10320F8
:100E1000BDE8F88304F10806B6F5807F01D9072004
:100E2000F6E7164F0025FF213D707D70B970611CFB
:100E3000F970C943491C3971D42179712246414660
:100E4000B81DFFF757FAD421002005E018F800205C
:100E5000401C1144C9B2C0B2A042F7D3C8433919EB
:100E6000401C8871CD71F3B2044A242104480095D6
:100E700001F0CEFECCE700003500002080100020FD
:100E8000184B000070B505460C46642000F0C1F90F
:100E900010B10F48C07908B1032070BD601CB0F5D7
:100EA000807F01D9072070BDFF2C0FD0C3B2094A43
:100EB0002421094801F09AFE0028F4D10549224670
:100EC000491C2846FFF716FA002070BD062070BDA9
:100ED0003500002080100020184B0000002000F09A
:100EE00001B8000010B5012802D008B1072010BDDC
:100EF0000A4932220A7001224A7088704FF47A72CD
:100F000003210648FFF76CFF0028F0D1642000F0B1
:100F100080F908B1002010BD032010BD800F002013
:100F200070B5124C0546022020704FF47A720121F0
:100F30002046FFF755FF00280CD10D212046FFF772
:100F4000A1FF002806D106220949601CFFF7FDF920
:100F500008B1052070BDD4F80700A17A00BA20F0CE
:100F6000FF0008432860002070BD0000800F0020B3
:100F7000124B00001FB50C4900231A46D1E90701A6
:100F8000CDE902011B2000901A2001900648694615
:100F90000C3001F0E5FD002804D103480C3001F0CD
:100FA000CFFD002004B010BD0C4B00002DE9F04136
:100FB00016461D468F1C4FF480720346974241D857
:100FC00028780A3090423DD8274C4022A01C22703D
:100FD000264A927962700A461946FFF78BF9F9B2F0
:100FE0004FF47A773A462046FFF7FAFE00282AD1D6
:100FF000384600F00EF928B328780A30C1B22046EE
:10100000FFF740FF00281ED121780B2000291AD1BC
:101010006178002917D1A178FF2914D1E1782379CB
:10102000CA43521CD2B293420DD16279D52A01D063
:10103000D42A08D1D52A05D1A079412802D1E07956
:10104000800602D00320BDE8F081C91E2878CAB20C
:10105000904200D202460449144608313046FFF758
:1010600049F92C700020EEE7800F002035000020A9
:1010700038B5164D2978814301D0002038BD134C76
:10108000641CE07908B1032038BDFFF773FF002826
:10109000FAD12079002101F000FF6079002101F0F0
:1010A000FCFE642001F0B6FB6846FFF739FF00281C
:1010B000EAD1012000F072F80028E5D1FF2000F00D
:1010C0005BF80028E0D101202870D6E7340000202A
:1010D000064801794FF0A040D0F81005C84010F044
:1010E000010F01D00020704701207047350000201B
:1010F00070B50E4605001FD01D4C4A20642220709A
:10110000012060700020A07003212046FFF768FED8
:10111000002810D1642E00D26426304600F079F801
:1011200060B119211248FFF7ADFE002803D1E07924
:10113000012805D00B2070BD072070BD032070BDB5
:10114000207B0A2801D9092070BDA07A2870607A16
:101150006870E07AA8700649227BEA700D31281D7C
:10116000FFF7C8F80349207A8871002070BD00009D
:10117000800F002035000020074932220A70052226
:101180004A70FF228A700122CA7008714FF47A7285
:1011900005210148FFF724BE800F002010B501286B
:1011A00007D0022805D0032803D0042801D0072047
:1011B00010BD0E4C14214FF47A7221706070A17032
:1011C0000120E07004212046FFF70AFE0028EFD13D
:1011D00009212046FFF756FE0028E9D1A0791528FD
:1011E00001D0052010BD002010BD0000800F0020A0
:1011F0001CB510228DF8042030228DF800208DF8C7
:1012000001000A4601AB02216846FFF7CFFE1CBD74
:10121000704770B50546002404E0641CA4B20120A8
:1012200001F0F8FAFFF754FF002801D1AC42F4D3E3
:1012300070BD000010B5FFF751FE20B1044A40F226
:101240005F1100F027F8BDE81040024801F0E8BA4D
:10125000F44A000080841E0070B50D460646144610
:1012600008A1012002F0D0F801F0E0FF01F0E2FF58
:101270000028FBD1224629463046BDE8704000F0E8
:1012800015B800003A4552524F523A466174616CAB
:101290000D0A00000EB5ADF80010CDE901206A4638
:1012A000002144F20100FFF7D7FF0EBD08B501236E
:1012B0008DF800309DF80030144B186059609A602A
:1012C0006FF48041401807D001280FD1DA60D86848
:1012D00000889861D86807E01A61186980685861C9
:1012E00018690088986118694068D861186858685A
:1012F0009868D868186958699869D86972B600BF43
:101300009DF800000028FBD162B608BD2012002025
:1013100000F002B800F008B872B602480168491C33
:10132000016070475400002003490868401E0860AF
:1013300000D162B670470000540000202DE9F04152
:10134000064608680C46411C4FF0A0474FF00105C7
:1013500006D005FA00F1C7F80815206801F0B0FDC5
:101360006068411C02D0002101F0A1FD30792049C4
:1013700001EB4010A169007F00283068C0F82415F7
:1013800025D0607D227D31681043C1F86C05D4E919
:1013900000123068C0F80C15C0F8142524E0A068CD
:1013A000411C02D0002101F082FDE068411C05D003
:1013B0008540C7F80855E06801F082FDD4E90212C3
:1013C0003068C0F80825C0F81015BDE8F081607DD0
:1013D000217D32680843C2F86C05D4E900123068F8
:1013E000C0F81425C0F80C15207D0128D7D0ECE7F3
:1013F000001200200249085C012101F083BD0000B9
:10140000044B00007CB50024084E25460122305DC7
:10141000009500231146019501F012FD641C042C77
:10142000F4D3BDE87C4000F003B80000044B00009A
:1014300010B500242046FFF7DDFF641C042CF9D30F
:1014400010BD002901DA00207047026811440160D4
:101450000120704770B5461C0D4601240020FFF79F
:1014600057FF114A10682860D2E900109568081AE1
:101470002B1A701C5B1C98420FD963B10B480C4BA4
:10148000294000681B6802EB810163F39F20C8605C
:101490001068401C1060002401E0881910600020D2
:1014A000FFF738FF204670BD4C140020604B000051
:1014B00064000020034803C8814201D10120704725
:1014C000002070474C1400200249084490F9300075
:1014D00070470000801100202DE9F05F2648416828
:1014E000F1B3DFF898B00E688146DBF800408768FA
:1014F0008078E11B21F07F45ED1CB0B9DFF88080DA
:101500004FF48030C8F84403C8F804031120FFF7F3
:1015100039F81120FFF741F84FF0010AC8F800A090
:101520002F2001F04FFA89F802A0B54200D23546CB
:10153000124BE8193C3320F07F401860DBF80010B4
:101540005A46091B21F07F41001B20F07F40C91C37
:1015500081420FD9106818602F2001F033FA00E0A3
:1015600004E0BDE8F05F1120FFF722B8BDE8F05FAE
:1015700002F04EB8BDE8F09F400000200415014085
:10158000001001400E4910B50A784C780023A242A1
:1015900012D0521CD2B20A70022A00D10B70084A33
:1015A0000B780C3252F8232002608868104420F037
:1015B0007F408860012010BD0360002010BD000046
:1015C000400000202DE9FE430546002014680290EB
:1015D000D5E901871646894636E002A800904B46B9
:1015E00001AA39460294404600F048FA002820D16A
:1015F0002868816800299DF8041003D031B1402982
:1016000024D103E0802901D0C0291FD1394600F040
:1016100078FB00280DD102999DF80400641A402837
:1016200009D0C02807D0286882684068824207D164
:101630000420BDE8FE833068001B30600020F8E71E
:10164000894408F108081837002CC6D10B20F0E7B0
:1016500070B50E460446007918494FF4A27501EBA7
:101660004010017F2068A1B14FF4887101F08DFF17
:101670004FF49071206801F088FF4FF49271206858
:1016800001F083FF2946206801F07FFF0C492068A4
:1016900009E04FF48E7101F067FF2946206801F0E0
:1016A00063FF08492068C0F80413206801F03DFA80
:1016B0003146BDE8704001F01CBA00000012002065
:1016C00010030200800002007FB50C46054691F829
:1016D000211094F82000CDE9000104F12602D11E6A
:1016E0002846E36902F04FFB002823D194F8230039
:1016F00008BB207B022801D003281CD12269E169A4
:10170000914218D16269E261E37B84F82030217E46
:101710000328C1F3401184F8211006D004B02946F3
:101720002046BDE8704002F0B7BA00912946204635
:1017300002F0AEFB7FBD04F10C0001AB07C883E8EB
:10174000070094F82300002168B1D5F8C404C5F857
:10175000C404820701D5012002E0400705D502201C
:101760008DF8000001E08DF8001084F82410207E30
:101770004007DFD4D4E90021684690477FBD0000D0
:101780002DE9F047394E002780463D46DFF8E090CE
:10179000D6F804A057E003D00446D0F81C8035E00A
:1017A00099F8002002EB4201521CD2B289F80020C5
:1017B00009EBC10199F80230091D9A4201D189F85B
:1017C000005048680A780446012A12D0022A02D042
:1017D000032A3BD108E002F077F900B10127257414
:1017E00034E00574C06900E070680028F9D17060C9
:1017F0002CE0207C50BB88686060C868A0600869E5
:10180000E0604869A061F07800B165606268B16825
:10181000184B501A20F07F40984202D2A168084429
:1018200006E0881AA16820F07F40814202D9081A98
:10183000206000E0256065600120A56020742046DE
:10184000E56102F023F9B8F10000A4D199F8001085
:1018500099F801008142A3D117B97168514502D0AE
:101860000120BDE8F0870020FBE7000040000020D9
:1018700040120020FFFF7F0003F02CF90020FFF74B
:10188000F7FB20B113A240F26B11FFF703FD02F04A
:1018900061F880B1042811D0052811D0062814D091
:1018A00010A1032001F0B0FDFFF718FB01F0C2FC0E
:1018B0000028FBD1EBE7FFF7BDFCF7E7124905E095
:1018C00012A1032001F0A0FDF0E717A1032001F011
:1018D0009BFDF0E72E2E5C2E2E5C2E2E5C6D61693A
:1018E0006E2E63004150503A494E464F3A4572724F
:1018F0006F7220647572696E67207461672072650B
:1019000061642E0D0A000000D04C00004150503A96
:10191000494E464F3A4E6F2054616720666F756E90
:10192000642E0D0A000000004150503A494E464FC7
:101930003A546167206E6F7420737570706F7274A3
:1019400065642E0D0A00000003B5DFB04FF4BA71D4
:1019500002465D9160AB5DA9684600F023F818B1BE
:1019600004A1032001F050FD684600F029F861B0A1
:1019700000BD00004150503A494E464F3A45727200
:101980006F7220647572696E672070617273696E20
:10199000672061204E444546206D6573736167651D
:1019A0002E0D0A003EB515461C466A4600F042F868
:1019B000002804D1224629466846FFF703FE3EBDB3
:1019C00070B505460A4801F043F80AA10320AA6849
:1019D00001F040FD002406E0286850F8241020465D
:1019E00000F0A8F8641CA868A042F5D870BD0000FB
:1019F000A08601004E46435F4E4445465F4D534727
:101A00005F5041525345523A494E464F3A4E444533
:101A100046206D65737361676520636F6E746169DD
:101A20006E73202564207265636F72642873290DBC
:101A30000A0D0A0030B50B68302B01D2042030BDEE
:101A40002424303BB3FBF4F400F10C03641C03EBDF
:101A50008405C2E9000505EBC405956003601368C1
:101A60005C6015680023AB60926804EB440302EBF2
:101A7000C302101A0860002030BD0000F0B5032436
:101A8000059D2E68032E3BD31E7806F007060E70C8
:101A9000072E01D105260E701E7806F0C0061670BE
:101AA00013F8016B13F8017B0F72F20602D513F8DD
:101AB000012B0CE02A680624062A21D353F8032BB5
:101AC00012BA13F801CB22F0FF0242EA0C023607E9
:101AD0004FF0000C07D52E68641CA64210D313F8F3
:101AE000016B4E7003E081F801C0C1F804C04E786C
:101AF000144407EB060E7444D5F800E0A64501D265
:101B00000920F0BD17B1CB603B4401E0C1F80CC027
:101B10000EB14B6033443AB10360426048610448FF
:101B2000086100202C60F0BDC0F800C0F5E700009F
:101B3000DD1C000010B50C46024621A1032001F077
:101B400089FC20782A4951F820202AA1032001F09D
:101B500081FC606848B12FA1032001F055FC637837
:101B600033A10320626801F0FDFBE06848B136A1B3
:101B7000032001F049FC237A2DA10320E26801F043
:101B8000F1FB39492069884213D16469206860B14A
:101B900036A10320626801F05DFCA08824A183B215
:101BA0000320226801F0DEFB03E03CA1032001F0EA
:101BB0002BFCBDE8104042A1032001F025BC000031
:101BC0004E46435F4E4445465F5041525345523A5C
:101BD000494E464F3A4E444546207265636F7264E3
:101BE00020256420636F6E74656E743A0D0A0000E0
:101BF000844B00004E46435F4E4445465F50415281
:101C00005345523A494E464F3A544E463A20257370
:101C1000000000004E46435F4E4445465F5041522F
:101C20005345523A494E464F3A49443A0D0A00004C
:101C30004E46435F4E4445465F5041525345523AEB
:101C4000494E464F3A0D0A004E46435F4E444546C4
:101C50005F5041525345523A494E464F3A7479705B
:101C6000653A0D0A00000000DD1C00004E46435F8F
:101C70004E4445465F5041525345523A494E464FB5
:101C80003A5061796C6F6164206461746120282529
:101C900064206279746573293A0D0A004E46435FE9
:101CA0004E4445465F5041525345523A494E464F85
:101CB0003A4E6F207061796C6F61640D0A0000000C
:101CC0004E46435F4E4445465F5041525345523A5B
:101CD000494E464F3A0D0A0D0A00000070B51546F0
:101CE0000B00044609D028686268904201D20420A3
:101CF00070BD18462168FEF7FDFA60682860002074
:101D000070BDD0E901329A4201D3042070470368C4
:101D100043F822108168491C816000207047838944
:101D20009B1CFF2B01D906207047DBB2AFF300806C
:101D30003FB581B00C469DF810101546FA2902D91E
:101D4000042005B030BDFA21ADF800106A462946DE
:101D500000F098F90028F4D1BDF800002A46C1B27D
:101D600004AB1046FFF722F90028EAD19DF81020B5
:101D70002946204600F0C2FC0500E2D1204600F0D2
:101D8000D9FC2088A0F5D441823904D0B0F5104F99
:101D900003D00320D5E70520D3E72846D1E72DE976
:101DA000F04104008AB04FF00E000BD02368002BE6
:101DB00008D0002906D0A2F10F004FF6F073984228
:101DC00003D309200AB0BDE8F081E0880426D0B131
:101DD0004FF00008A4F8048008888D1C40BA2081C8
:101DE00088780009A07315F8010BD21F00F00F00CE
:101DF000E07335F8020B97B240BA608135F8020BF8
:101E000040BAA0811FE03046DCE7ADF8047001AABB
:101E1000294603A800F0DBF90028D3D1BDF804005F
:101E2000E2880544381A87B2A08803A99042EAD014
:101E3000226800EB800002EB80001422FEF75AFAC1
:101E4000A088401CA080002FDFD12068A17B807C6F
:101E5000032902D0022903D004E0062804D001E0BF
:101E6000042801D00B20ADE74046ABE770B504462F
:101E70001949032001F0C8FA228918A1032001F0B2
:101E8000E9FAE37BA27B20A1032001F00FFB62892A
:101E90002BA1032001F0DEFAA28933A1032001F077
:101EA000D9FAA2883B49032001F0D4FA002509E0C1
:101EB000206805EB850100EB8101284600F0C4F99C
:101EC0006D1CEDB2A088A842F2D8BDE8704025A1F3
:101ED000132001F099BA0000A84E00004E46435F5F
:101EE0005434545F43435F46494C455F504152531D
:101EF00045523A494E464F3A43434C454E3A2025C7
:101F000064200D0A000000004E46435F5434545FC5
:101F100043435F46494C455F5041525345523A490D
:101F20004E464F3A4D617070696E67205665727308
:101F3000696F6E3A2025642E2564200D0A0000008A
:101F40004E46435F5434545F43435F46494C455FBC
:101F50005041525345523A494E464F3A4D4C653ADC
:101F6000202564200D0A00004E46435F5434545F20
:101F700043435F46494C455F5041525345523A49AD
:101F80004E464F3A4D4C633A202564200D0A0D0A07
:101F900000000000EC4E000010B5D8B00446002050
:101FA000ADF84C012B49032001F02EFA4FA800F0A8
:101FB00063F8B0208DF83D01BDF84C01ADF83E014D
:101FC0000F20ADF8480110AA55A94FA8FFF7A7FEAA
:101FD00000283DD153AB4022694655A800F0B5F822
:101FE000002835D1BDF8000040BAADF8500119E025
:101FF000BDF84C11ADF83E11F22801D20F2800D9DE
:102000000F20ADF8480110AA55A94FA8FFF787FE89
:1020100000281DD153AB4022694655A800F095F821
:10202000002815D154A955A800F06EFA00280FD148
:10203000BDF850010028DBD1BDF84C21694620468F
:10204000FFF7ADFE044604A1132001F0DDF92046A0
:1020500058B010BD4C4F00000D0A000010B50549E6
:10206000032001F0D1F9BDE810404EF2031000F05A
:1020700055BA0000345000000021016041608160C9
:10208000C16070472DE9F04105004FF00E0023D0EC
:10209000002921D0002A1FD00720AB68002613B1E9
:1020A000AC88002C18D004202BB1A888FF2801D9B7
:1020B000072000E00520AB884FF480771844AB89F7
:1020C00080B22BB1BB4201D9801C00E0401C80B221
:1020D0001388834202D20420BDE8F0811080287862
:1020E00001F8010B687801F8010B6888000A01F813
:1020F000020BA87801F8010CA8680C46A8B1A888C2
:10210000FF2809D92670A8884C1C000A04F8010B86
:10211000287904F8010B01E020704C1CAA882046A5
:10212000A968FEF7E7F8A8880444A88958B1B8421E
:1021300004D9000A2070287B607004E0B84201D105
:10214000267000E020700020C6E72DE9F0411C4613
:102150000B468168054639B12688A888371897420A
:1021600004D90420BDE8F0810E20FBE73344024689
:102170001846FEF7BFF82088A98808442080002070
:10218000F0E7000010B50368002280880EE000BF71
:1021900002EB820403EB8404A4898C4204D102EB99
:1021A000820003EB800010BD521CD2B29042EFD8E7
:1021B000002010BD30B50C4615461946FFF7E2FF6A
:1021C00018B1C0E90045002030BD052030BD70B514
:1021D0000446108816460D46022812D314212046C4
:1021E000FEF7A1F82878A0746878691CFF280AD047
:1021F0002082491C228A481B1044328880B28242C5
:102200000DD2092070BD30880428FAD3B1F801003E
:10221000C91C40BA2082FF28ECD20B2070BD308050
:10222000A27C0B20042A0BD0052A09D0062AF5D15E
:10223000228A082AF2D12046BDE8704000F018B981
:10224000228A062AF7D070BD10B50C46024623A19B
:10225000032001F0FFF8A27C042A05D0052A05D04E
:10226000062A2ED02AA102E0374900E03749032090
:1022700001F0F0F8228A36A1032001F0EBF8A289E0
:1022800041A1032001F0E6F84EA10320A26801F06D
:10229000E1F8A27B59A1032001F0DCF8E27B674959
:1022A000032001F0D7F8206868B1A28864490320B0
:1022B00001F0D0F8A38863A10320226801F052F84E
:1022C00005E06949D3E76949032001F09DF8BDE8BD
:1022D00010401CA1132001F097B800004E46435F48
:1022E0005434545F544C565F424C4F434B5F504103
:1022F000525345523A494E464F3A25642066696C1E
:102300006520436F6E74726F6C20544C560D0A003A
:102310004E46435F5434545F544C565F424C4F43D7
:102320004B5F5041525345523A494E464F3A5479C9
:1023300070653A20556E6B6E6F776E202830782569
:10234000303278290D0A000054510000E451000099
:102350004E46435F5434545F544C565F424C4F4397
:102360004B5F5041525345523A494E464F3A4C65A5
:102370006E6774682028696E206279746573293AE3
:102380002025640D0A0000004E46435F5434545F1C
:10239000544C565F424C4F434B5F50415253455251
:1023A0003A494E464F3A46696C65204964656E74F9
:1023B00069666965723A20307825303458200D0AF4
:1023C000000000004E46435F5434545F544C565F47
:1023D000424C4F434B5F5041525345523A494E464F
:1023E0004F3A4D6178696D756D2066696C65207333
:1023F000697A653A202564200D0A00004E46435F45
:102400005434545F544C565F424C4F434B5F5041E1
:10241000525345523A494E464F3A526561642061E3
:10242000636365737320636F6E646974696F6E3A7A
:1024300020307825303258200D0A000084500000EA
:10244000C85000004E46435F5434545F544C565FAE
:10245000424C4F434B5F5041525345523A494E46CE
:102460004F3A0D0A00000000985100001051000082
:1024700010B531F8022B4EF2021452BA131B8281AE
:10248000A24239D008DCBAB3B2F57C5F34D0521C1A
:10249000B2F5804F07D12FE0012B2DD003F20313AB
:1024A000B3F5005F28D0827C042A04D0052A0AD024
:1024B000062A23D111E031F8022B4FF6FA7352BAF3
:1024C0008260521F06E031F8022B4FF6FC7352BABD
:1024D0008260D21E9A420FD210E051F8032B12BA3A
:1024E00011F8013B22F0FF021A438260A2F57F42FD
:1024F000FF3A12F5803F01D30B2010BD0A7882739A
:102500004978C173002010BD0A888088824201D2B8
:102510000B207047101A08800020704710B5044641
:10252000A0F56140C6B0033804D02246114903200B
:1025300000F090FF1048210A017044703FA8FFF797
:102540009BFDA4208DF8FD000C20ADF8FE000A488C
:1025500041900220ADF800016A4643A93FA8FFF769
:10256000DEFB044605A1132000F04EFF46B02046D6
:1025700010BD0000984F0000680000200D0A000008
:1025800070B5C8B0064600200C46ADF80C011546E3
:1025900032A1032000F038FF3FA8FFF76DFDB02007
:1025A0008DF8FD00BDF80C01ADF8FE000220ADF87D
:1025B00008016A4645A93FA8FFF7B1FB00284BD1A7
:1025C00043AB2A46214645A8FFF7BFFD002843D16B
:1025D000208840BA801CADF8100121E0BDF80C1134
:1025E000ADF8FE107389F22B01D2194600E0F221FA
:1025F000814204D8F22B01D2184600E0F220ADF857
:1026000008016A4645A93FA8FFF789FB002823D1A6
:1026100043AB2A46214645A8FFF797FD00281BD16A
:1026200044A945A8FFF770FF002815D1BDF8100197
:102630000028D3D1BDF80C012A4660F30F021648DA
:102640002146008843BA3046FFF7B4FD044613A183
:10265000132000F0D9FE204648B070BD4E46435FBF
:102660005434545F484C5F444554454354494F4E9D
:102670005F50524F434544555245533A494E464F99
:102680003A4E44454620526561642050726F63653E
:1026900064757265200D0A00680000200D0A0000B4
:1026A00010B5C6B01249032000F0AEFE3FA8FFF7F8
:1026B000E3FCA4208DF8FD004FF48060ADF8FE002F
:1026C0000C4841900720ADF800014FF48070ADF840
:1026D000080102236A4643A93FA8FFF729FB0446E5
:1026E00005A1132000F090FE46B0204610BD00006A
:1026F000E44F0000A64B00000D0A000010B50E23A9
:1027000020B119B1022A03D24FF00903184610BDB7
:102710004FF0000303604360836003D0A2F1020224
:102720008280816082881144098849BA01804FF013
:10273000000010BD10B5044602880CA1032000F073
:1027400089FEA06858B113A1032000F05DFEA388A4
:10275000A268BDE8104018A1032000F003BEBDE848
:1027600010401BA1032000F04FBE00004E46435F07
:102770005434545F415044553A494E464F3A522DD5
:1027800041504455207374617475733A2025345850
:10279000200D0A004E46435F5434545F4150445567
:1027A0003A494E464F3A522D415044552064617487
:1027B000613A200D0A0000004E46435F5434545FD6
:1027C000415044553A494E464F3A0D0A0000000028
:1027D0004E46435F5434545F415044553A494E4647
:1027E0004F3A522D41504455206E6F206461746100
:1027F000206669656C642070726573656E742E0D59
:102800000A000000C20800F007030120895C98401C
:10281000084070474FF47A71484300F047B8000011
:1028200000283ED01F49204A096800BF00BF00BFF2
:1028300000BF00BF00BF00BF00BF91422FD000BF4C
:1028400000BF00BF00BF00BF00BF00BF00BF00BF90
:1028500000BF00BF00BF00BF00BF00BF00BF00BF80
:1028600000BF00BF00BF00BF00BF00BF00BF00BF70
:1028700000BF00BF00BF00BF00BF00BF00BF00BF60
:1028800000BF00BF00BF00BF00BF00BF00BF00BF50
:1028900000BF00BF00BF00BF00BF00BF00BF0138C6
:1028A000C3D170476C0000200024F40000283ED003
:1028B0001F49204A096800BF00BF00BF00BF00BF1A
:1028C00000BF00BF00BF91422FD000BF00BF00BFBC
:1028D00000BF00BF00BF00BF00BF00BF00BF00BF00
:1028E00000BF00BF00BF00BF00BF00BF00BF00BFF0
:1028F00000BF00BF00BF00BF00BF00BF00BF00BFE0
:1029000000BF00BF00BF00BF00BF00BF00BF00BFCF
:1029100000BF00BF00BF00BF00BF00BF00BF00BFBF
:1029200000BF00BF00BF00BF00BF0138C3D1704768
:102930006C0000200024F40000283ED01F49204AEB
:10294000096800BF00BF00BF00BF00BF00BF00BFDD
:1029500000BF91422FD000BF00BF00BF00BF00BF2B
:1029600000BF00BF00BF00BF00BF00BF00BF00BF6F
:1029700000BF00BF00BF00BF00BF00BF00BF00BF5F
:1029800000BF00BF00BF00BF00BF00BF00BF00BF4F
:1029900000BF00BF00BF00BF00BF00BF00BF00BF3F
:1029A00000BF00BF00BF00BF00BF00BF00BF00BF2F
:1029B00000BF00BF00BF0138C3D170476C000020CA
:1029C0000024F40000283ED01F49204A096800BFB7
:1029D00000BF00BF00BF00BF00BF00BF00BF9142EB
:1029E0002FD000BF00BF00BF00BF00BF00BF00BFAF
:1029F00000BF00BF00BF00BF00BF00BF00BF00BFDF
:102A000000BF00BF00BF00BF00BF00BF00BF00BFCE
:102A100000BF00BF00BF00BF00BF00BF00BF00BFBE
:102A200000BF00BF00BF00BF00BF00BF00BF00BFAE
:102A300000BF00BF00BF00BF00BF00BF00BF00BF9E
:102A400000BF0138C3D170476C0000200024F4009F
:102A500000283ED01F49204A096800BF00BF00BFC0
:102A600000BF00BF00BF00BF00BF91422FD000BF1A
:102A700000BF00BF00BF00BF00BF00BF00BF00BF5E
:102A800000BF00BF00BF00BF00BF00BF00BF00BF4E
:102A900000BF00BF00BF00BF00BF00BF00BF00BF3E
:102AA00000BF00BF00BF00BF00BF00BF00BF00BF2E
:102AB00000BF00BF00BF00BF00BF00BF00BF00BF1E
:102AC00000BF00BF00BF00BF00BF00BF00BF013894
:102AD000C3D170476C0000200024F40000F01F02F6
:102AE000012191404009800000F1E020C0F88011F0
:102AF00070474907090E002806DA00F00F0202F1BC
:102B0000E02282F8141D03E000F1E02282F80014B4
:102B100000F01F02012191404009800000F1E020F7
:102B2000C0F88012C0F800117047000B40B2704727
:102B30000121B1EB507F01D1012070470020704787
:102B40000179064A01EB8101006802EBC10105220F
:102B5000C0F80025022081F822007047D81100201B
:102B600070B506460D4600791F4900EB800001EB69
:102B7000C00494F8220008B1082070BD0020C4E908
:102B80000023A06084F8250084F82400A87B84F842
:102B90002700687B10B1284601F01AF8296840F236
:102BA0000C60890001F1A041C1F800076968890043
:102BB00001F1A041C1F80007D5E900123068C0F862
:102BC0000815C0F80C25A968C0F82415206828B19C
:102BD0003068297B000B40B2FFF78BFF012084F89F
:102BE0002200002070BD0000D81100203EB5074D26
:102BF0002C68AD6800948DF80110019202958DF853
:102C000002300022694600F015F83EBD344B00004A
:102C10003EB500250095069C8DF8011002958DF8B3
:102C2000023001920CB1202200E00022694600F03F
:102C300001F83EBD30B40379084C03EB830304EB89
:102C4000C304930702D030BC0620704700681346C7
:102C50000A460146204630BC01F082B9D811002056
:102C60002DE9F04105460079164F904607EB4014D8
:102C70000E46E07E10B10820BDE8F081707F20771D
:102C80002846FEF75BFB5FEA08006060316921605F
:102C900003D0317F2846FEF7DBFC287907EB401094
:102CA000007F0028286801D0082100E00421C0F836
:102CB00000150020E0752076A0750121E176A07650
:102CC000DAE70000001200202DE9F0470546007900
:102CD0003F4E904606EB40140F46207F18B1084641
:102CE000FFF726FF30B1284600F074F820B111201C
:102CF000BDE8F0871020FBE784F81680A760002766
:102D0000A78228794FF0010806EB40143E46207F49
:102D10000028286825D04FF49079494600F035FC0A
:102D20004FF4AC7A5146286800F02FFC2868A17D4A
:102D3000A268C0F84425C0F848152868C0F8088083
:102D40006068F0B94946286800F01AFC8046514690
:102D5000286800F015FC58EA0001F3D058BBA775AD
:102D60000FE04FF48E7A514600F0FEFB2868C0F861
:102D700008802146286801F039F961684FF48070B5
:102D800089B13046B4E75146286800F0E8FB10B935
:102D9000A08A4845F7D1A08A484505D02146286831
:102DA00001F024F900E08146A08AA17D8842EAD39F
:102DB000A08A484501D10F26D1E75146286800F086
:102DC000CEFB0028F9D02868C0F80C80C7E70000C7
:102DD000001200200079044901EB4010807D00289A
:102DE00000D00120704700000012002070B504469A
:102DF00000791149002601EB401520682A7FC0F8B0
:102E00000065686888B1207901EB4010007F0028D8
:102E1000206801D0094901E008498C39C0F808133D
:102E20002068FFF782FEFFF759FE204600F0B4FB52
:102E3000EE766E6070BD00000012002010030200EC
:102E400070B541EA4201DDE904564FF0A04441EA81
:102E5000830141EA052104EB800041EA0641C0F804
:102E6000001770BD70B541EA4201DDE904564FF02C
:102E7000A04441EA830141EA052104EB800041EAD4
:102E80000641C0F8001770BD1CB5002100910B462B
:102E900001220191FFF7E6FF1CBD4FF0A042002385
:102EA00002EB800043EA8101C0F8001770471CB5AF
:102EB00000220B46009211460192FFF7D3FF1CBD82
:102EC0001CB5002100910B46012201911146FFF72C
:102ED000C9FF1CBD4FF0A04202EB8000D0F80027D4
:102EE00022F44032C0F80027D0F8002742EA01411E
:102EF000C0F8001770474FF0A04201218140C2F88E
:102F00000815704701224FF0A043824011B1C3F869
:102F100008257047C3F80C257047000018B5084B0A
:102F20006C4601441B68009306E000BF54F8203053
:102F3000D3F81035401C08C28142F7D818BD0000F4
:102F4000304B0000034908B50844002101600068C7
:102F5000009008BD0060004002494058012800D0A0
:102F6000002070470060004000487047E12F0000DB
:102F700030B5184C054689B0207828B16078854274
:102F800002D1002009B030BD202213496846FDF768
:102F9000B1F900208DF8140006200090082001905F
:102FA00005200390072002904FF0EB70069009482F
:102FB000001DFFF71BFF0DB1002200E0074A054886
:102FC0006946001DFFF74CFE0028DBD10120207070
:102FD0006570D6E758000020404B0000B54800005F
:102FE0002DE9F04FC1B00D004FF0000140914D9818
:102FF0004B991C46174601EB000B01D00A2000E05C
:103000000020804600F048FB00287CD16E46BCB909
:10301000409840AA3118284600F0C0FD002872D020
:103020003846FDF78BF9C22800D9C22005464098E2
:103030002A4630443946FDF75DF9409828444090CF
:103040004FF0200A409901EB080231320DEB0105E7
:103050000DEB0206002002E005F801AB401C4045E4
:10306000FAD300275C4508D305F801AB05F801AB9E
:1030700005F801AB06F801AB2DE04B98844202D273
:103080004A98005D02E0211A4C98405C2B4681462C
:1030900002460121880022FA00F000F00F00092802
:1030A00001D9373000E03030C1F1010C491E03F87E
:1030B0000C00EFD29D1C05F801ABFDF717F9016874
:1030C00011F8090010F03E0F01D0484600E02E2014
:1030D00006F8010B641C7F1C102FC3D30D20307029
:1030E0000A20707085F800A0409968464144433139
:1030F000409100F0D7FA30B100F0CEFA18B90020B4
:1031000040905C459ED341B02046BDE8F08F2DE94C
:10311000F043C7B000251C46904689464E9F459512
:1031200000F0BAFA00287AD1459805AE311845AAC0
:10313000484600F033FD002835D0072F27D2DFE8BE
:1031400007F004121B35424F5D004046FDF7F6F8CC
:10315000054645982918FF2919D830442A46414682
:10316000FDF7C8F813E045982368C0F58071304436
:103170004246FDF7B9FB09E0606800904598236876
:10318000C0F5807130444246FDF7AEFB0546294646
:1031900045A8FEF756F9459978B3B1F5807F3ED83A
:1031A00005A800F07FFA47B0BDE8F083D4E901013B
:1031B000CDE9000145982368C0F58071304442464E
:1031C000FDF792FBE2E7201D07C88DE80700459850
:1031D0002368C0F5807130444246FDF785FBD5E792
:1031E000201D0FC88DE80F0045982368C0F5807139
:1031F00030444246FDF778FBC8E710E004F10800D0
:1032000001AD0FC885E80F006068009045982368FD
:10321000C0F5807130444246FDF766FBB6E70020FA
:10322000C1E70000004870470F3100000120FFF7A0
:103230009FBE00002DE9F04F87B0FEF73BF918B1B3
:10324000002007B0BDE8F08F454ED6E9014704EAFB
:10325000070006EB8000A146641CC5680CE000BFB7
:10326000C5F3891000EB9550044404EA070006EB0F
:103270008000A146C568641CA807F1D005F00300D2
:103280004FF0000B022805D0AA0A01A8C5F383134A
:10329000002153E004EA070006EB800004F1010A74
:1032A0000AEA0704C268381B80004FEA9558001DDF
:1032B000C5F38913804521D929490C3138B106EB72
:1032C000840400F0FF0CA8EB00000C3404E00C4672
:1032D000002108F0FF0C0846C0B2CDE90210CDE98C
:1032E000004CD6F81444C5F3C2005946A0474045E7
:1032F00011D108F103080AEB98042AE0002106EB3B
:1033000084000C300090CDE901810391C5F3C20027
:10331000D6F81444EAE760F38F1509EA070006EBD4
:103320008000C56016E000BF04EA070C06EB8C0CB9
:10333000491CDCF80CC040F804CB641C9942F3D360
:10334000C5F3C2000093D6F8105401AB5946A84704
:1033500000B17460FEF7AEF880F0010071E7000084
:103360004C1400202DE9F843894607461F4CD81C11
:10337000012101EB90001D4690466946A668FEF7C4
:1033800069F8002830D01A48016A002060F38201F1
:10339000009867F3C50100EA060204EB820265F3B8
:1033A0009F51401CD16000EA060204EB8202401CDF
:1033B000C2F80C900090A1683040091A8E00361DAA
:1033C000B54204EB800002D82A46414609E0324665
:1033D00041460C30FCF78EFFA81B82B2034808EB75
:1033E00006010C30FCF786FFBDE8F8834C14002082
:1033F000604B0000034AFF23936000231360536077
:1034000000F088B84C1400202DE9F8430F4F88468F
:103410000446002569462846BE68FEF71BF80028CA
:1034200012D00B480021406861F38200009964F3D8
:10343000C50001EA060265F3891007EB820268F312
:103440009F20491CD0600091BDE8F8834C140020F7
:10345000604B00002DE9F843124D884604460127D1
:10346000914669463846AE68FDF7F4FF002817D04C
:103470000D480021806861F38200009964F3C50063
:1034800001EA060267F3891005EB820268F39F20C8
:10349000491CD0600091314005EB8101C1F80C90CE
:1034A000BDE8F8834C140020604B00002DE9F84F74
:1034B000164C8846064602279A4691466946384683
:1034C000A568FDF7C7FF00281ED01148C16800207D
:1034D00060F38201009866F3C50100EA050267F314
:1034E000891104EB820268F39F21401CD16000EA3D
:1034F000050204EB8202401CC2F80C9000902840A8
:1035000004EB8000C0F80CA0BDE8F88F4C1400203C
:10351000604B0000024A02F5826203C2704700005D
:103520004C14002070B506460020FFF721FD040072
:1035300008D1FFF719FD0546FFF774FE324629460C
:10354000FFF758FF204670BD4058002800D00120EA
:10355000704708B5002242504058009008BD4058BE
:10356000002800D00120704708B500224250405882
:10357000009008BDD0F80403084000D00120704737
:103580004058002800D00120704708B50022425062
:103590004058009008BD000070B5034600791B49F3
:1035A00001EB40101968027F4FF0FF30002AD1F87C
:1035B0000C25D1F81465D1F80855D1F8104504D080
:1035C000C1F80C05C1F8140503E0C1F81405C1F8F1
:1035D0000C051968C1F80805C1F81005501C02D087
:1035E0001046FFF751FC701C02D03046FFF74CFC30
:1035F000601C02D02046FFF747FC681C04D0284618
:10360000BDE87040FFF740BC70BD00000012002014
:1036100070B5012670044FF0E0210025C1F880014B
:10362000084C4010C4F84803C4F8080366602F2013
:10363000FFF7C8F9A660044C2F20A560FFF7C2F978
:10364000A57070BD001001404000002070B5054617
:10365000C87D0C4600284FF4847128460AD0FFF735
:1036600083FFD5F81805627EE1688854607E401CAF
:10367000607670BDFFF778FFD5F8180570BD1FB5EF
:1036800001238DF800308DF808100192D0E9001266
:10369000684690471FBD00000148FFF79BBB000034
:1036A0005C00002070B50D460A460146012406481C
:1036B000FCF720FEEAB204490448FFF705FB00B11D
:1036C0000024204670BD00004C1300205C00002048
:1036D00070B5104D0146284600F0F1FC04280AD0D0
:1036E00018B10D490320FFF78FFE284600F024FD96
:1036F0000026EC690AE00949F4E72078032804D1A0
:1037000061886068FEF720F90834761C288CB04286
:10371000F3D870BD00000020344C0000804C000045
:1037200070B5002614460D46102A11D3C07807281C
:1037300001D0062070BD3046FDF75AFD10B10323BD
:10374000324613E0A87BC00000F11001A14201D96C
:10375000042070BDC0F3870604240FE005EB84014C
:103760002046FDF745FD38B1E31C224605A10320A4
:10377000FFF79CFE032070BD241DE4B2B442EDD3DC
:10378000002070BD4150503A494E464F3A4661695B
:103790006C656420746F207265616420626C6F6375
:1037A0006B733A2025642D25640D0A0010B54FF483
:1037B00080620549FFF7B4FF002803D10248FFF7F4
:1037C00087FF002010BD0000C00000202DE9F0415F
:1037D000FEF766FF020001D0264927E0FEF73EFC17
:1037E000020001D024A121E0304D2846FEF7D4FB91
:1037F000020001D02EA119E000263A4F2C681DE0EE
:10380000A07C042801D0A07BB0B9A089FEF786FE79
:10381000020001D034A109E0C6EB0620C119FF2245
:103820002846FEF7ADFE020006D03DA10320FFF7BB
:1038300011FE0320BDE8F0811434761CA888B04244
:10384000DED82846FEF712FB00262C680CE0A07C90
:10385000042801D0206828B1A1882068891E801C16
:10386000FEF772F81434761CA888B042EFD8002016
:10387000E0E70000144D00004150503A494E464FD9
:103880003A4572726F722028307825582920647565
:1038900072696E672043432053656C6563742050E2
:1038A000726F6365647572652E0D0A002400002036
:1038B0004150503A494E464F3A4572726F72202835
:1038C000307825582920647572696E67204343203B
:1038D000526561642050726F6365647572652E0D68
:1038E0000A000000C00400204150503A494E464FA3
:1038F0003A4572726F7220283078255829206475F5
:1039000072696E67204E4445462053656C6563744A
:103910002050726F6365647572652E0D0A00000099
:103920004150503A494E464F3A4572726F722028C4
:10393000307825582920647572696E67204E444599
:103940004620526561642050726F636564757265CC
:103950002E0D0A001FB541F288316846FDF7C8FBFD
:1039600010B1052004B010BD6846FDF751FC9DF86C
:10397000020000F041F818B1012809D00620F1E753
:1039800007A10320FFF740FD6846FFF70FFFE9E7B7
:103990000EA10320FFF738FD6846FFF717FFE1E7A8
:1039A0004150503A494E464F3A5479706520322082
:1039B00054616720506C6174666F726D2064657429
:1039C00065637465642E200D0A0000004150503A72
:1039D000494E464F3A54797065203420546167202F
:1039E000506C6174666F726D206465746563746594
:1039F000642E200D0A000000C108C90703D1C0F3DE
:103A00004110022800D30220704700002DE9F84F32
:103A10001D4C00256846D4E901A6FDF7B3FD00273B
:103A200038B30023009A61681CE0D1F800C0084652
:103A3000944503D9ACEB02020A6015E0A2EB0C023C
:103A400063440760D0F80CC0C1698146BCF1000F27
:103A500008D006EB030828F07F48C0E9018CC9F8BC
:103A60001C5005460029E0D128466160FDF788FE1C
:103A700003E02846FDF784FE10B15046FDF72CFD0B
:103A8000E770BDE8F88F0000400000200D4B10B536
:103A9000596831B102680C68A24204D8A21A0A60BF
:103AA000C161586010BD0B4603E00B46C969121B8B
:103AB00021B10C689442F8D3A41A0C600260C16171
:103AC000D86110BD400000202DE9F041144E776808
:103AD0003D462C4603E0844204D02546E469002C90
:103AE000F9D11BE0D4B1A5420BD1F869706040B99F
:103AF0000C49012088600021B160F0702F20FEF792
:103B000061FF2168E069E86110B102681144016059
:103B10007068874202D00120BDE8F0810020FBE7F9
:103B200040000020001001402DE9F041194D6C6863
:103B3000002C2CD0184800270068A968B846401A05
:103B400020F07F462068B0420CD82146361A074440
:103B5000E469087C20B181F8108088694969884748
:103B6000002CEFD129786878814206D1401CC0B280
:103B70006870022801D185F80180064869780C3008
:103B800040F82170BDE8F0411420FCF711BDBDE8FC
:103B9000F0810000400000200415014010B51446DB
:103BA00002004FF001000CD00846136806A24FF443
:103BB0008071FCF799FE01462046BDE81040FDF7F4
:103BC00040BC0021216010BD5B253038645D0000E1
:103BD0002DE9F041044640F20C602168890001F1B2
:103BE000A041C1F800076168890001F1A041C1F856
:103BF00000072068FFF77FF96068FFF77CF921680C
:103C000040F20D60890001F1A041C1F80007616830
:103C1000890001F1A041C1F800070420FEF78CFEE5
:103C200000274FF0A04601252179D6F81005C8409D
:103C300010F0010F02D0002F1DD010E0217805FAFE
:103C400001F0C6F80C050420FEF776FE2068FFF7A9
:103C500052F90420FEF770FE7F1C092FE4DB207967
:103C60008540C6F80C550420FEF766FE6068BDE886
:103C7000F041FFF740B9BDE8F08101460320CA07D3
:103C800001D04FF402408A0701D548F201204907CC
:103C900001D548F2022070472DE9FE4F05460C463B
:103CA00042F2107002901F46934600264FF4827134
:103CB0002046FFF74EFC4FF492712046FFF749FC77
:103CC0004FF48E712046FFF744FC4FF48471204678
:103CD000FFF73FFC002085F8260085F82300012F20
:103CE0000ED00121C4F8001201212162216029684F
:103CF00061B140F28620A860A868C4F804032BE0F4
:103D00000221EFE70298401E029005E080460298EB
:103D100005F1260A05F12309002809DDCDE900781F
:103D20005B4652464946204600F02DF80028E9D16E
:103D300095F8230038B1D4F8C404C4F8C40410B111
:103D4000FFF79BFF06460298002805DCC4F80085B3
:103D50000520C4F8000503263046BDE8FE8F30B5C7
:103D60001C78039D944206D2095DC0F81C15187892
:103D7000401C187005E0012115B1C161002030BD63
:103D80004161012030BD2DE9FF4F81B00446087824
:103D90000E9E90460F4618B998F80010B14201D116
:103DA000012100E0002189464FF48E7B4FF492718F
:103DB00060B12046FFF7CDFB59462046FFF7C9FB0F
:103DC0004FF484712046FFF7C4FB4DE08A4620463D
:103DD000FFF7BAFB012540BB59462046FFF7B4FB6D
:103DE00098B159462046FFF7B4FB51462046FFF7ED
:103DF000ABFBD0B90F980090434632462046049959
:103E0000FFF7ADFF00283ED02EE04FF4847B5946EB
:103E10002046FFF799FB38B359462046FFF799FB38
:103E200051462046FFF790FB30B151462046FFF740
:103E300090FB65613D7017E098F8002004994046BA
:103E4000B24211D2D4F818358B540178701E491C37
:103E5000C9B288F80010814203D10220C4F80002E0
:103E600001E0B14200D02562B9F1000F0ED04FF44D
:103E7000827529462046FFF767FB38B12946204660
:103E8000FFF767FB002005B0BDE8F08F0120FAE7DF
:103E90002DE9F04F87B005460C4642F210700490B1
:103EA0009A4693460026109F4FF482712046FFF7F2
:103EB00050FB4FF492712046FFF74BFB4FF48E718D
:103EC0002046FFF746FB4FF484712046FFF741FB85
:103ED0000020C4F8000285F82600804685F82300FB
:103EE00001202062A06005F1260352465946204673
:103EF00000970293FFF733FF286850B140F2862005
:103F0000A860A868C4F8040326E00498401E049042
:103F100002E0049805F12309002809DDCDE900A796
:103F20005B4649462046029AFFF72DFF0028ECD158
:103F300095F8230038B1D4F8C404C4F8C40410B10F
:103F4000FFF79BFE06460498002805DCC4F80085B0
:103F50000520C4F80005032607B03046BDE8F08F01
:103F6000F8B504464FF0FF30C1F8080394F8240078
:103F700020B1A068C1F804031120F8BD43F380000C
:103F8000401C84F82400180701D50620F8BDA36161
:103F900092E8610004F10C0787E86100907884F8EA
:103FA00020005068E0615078C1F88805107800253D
:103FB00001280ED008B9980601D5012000E00020A4
:103FC00084F821000090937852682046FFF760FF44
:103FD00006E084F82150937852682046FFF75CFE93
:103FE00021680029D2D184F82450F8BD70B50C4660
:103FF00005464FF48E71FFF7B7FAA18AA068415CBD
:10400000A08A401CA082C5F81C1570BD1FB50022F7
:104010008DF800208DF80810816801918275D0E933
:104020000012684690471FBD00210184C0F812109D
:10403000C182016041608160C16070472DE9F0413B
:104040000C780470B1F8012053BA4380CD78057123
:104050004A68CE7912BA22F0FF02324382600E7AA9
:1040600006734F7A4773498949BA0182D8B284EA04
:10407000132180F088004140C2F3074080EA1260BB
:10408000C2F307235840D2B250408D4201D186423C
:1040900003D003490220FFF7B7F90020BDE8F08103
:1040A0005C4E00004AB1808A0A441030521E82429F
:1040B00003DA102901D3012070470020704738B57A
:1040C0000D460446FFF7B0FF29462046FFF7B6FF2E
:1040D000002805D1287B05F10C02E12801D00B2036
:1040E00038BD50780109A174507800F00F01E174D7
:1040F0009078C100A182D0780109A175D07800F034
:104100000F01E175A07C012801D0062038BD1020E8
:10411000ADF80000A18A80B2103181420AD06A460F
:104120002946204600F086FB0028EFD1BDF80000AC
:104130000028EFD1002038BD2DE9F041044638A118
:104140000320FFF761F9228C41A10320FFF782F9D8
:104150004CA10320FFF758F9227854A10320FFF760
:1041600079F962885FA10320FFF774F922796BA1C6
:104170000320FFF76FF977A10320A268FFF76AF920
:10418000227B82A10320FFF765F9627B8DA10320CA
:10419000FFF760F9228A99A10320FFF75BF9A6A136
:1041A0000320FFF731F9A27CB0A10320FFF752F9F9
:1041B000E27CBBA10320FFF74DF9A28AC5A1032031
:1041C000FFF748F9A27DD0A10320FFF743F9E27D74
:1041D000DBA10320FFF73EF9002502272AE2E06970
:1041E000E6A110F835200320FFF734F9E06910F854
:1041F0003500032810D006DC00280ED0012808D096
:10420000022804D107E0FD2808D0FE2807D0E6A147
:10421000EFE1EDA1EDE1EBE112E215E212E215E2D0
:104220004E46435F5432545F5041525345523A49CF
:104230004E464F3A547970652032205461672063AE
:104240006F6E74656E74733A0D0A0D0A00000000FB
:104250004E46435F5432545F5041525345523A499F
:104260004E464F3A4E756D626572206F6620544C13
:104270005620626C6F636B733A2025640D0A0D0A39
:10428000000000004E46435F5432545F5041525389
:1042900045523A494E464F3A496E7465726E616CAA
:1042A00020646174613A0D0A000000004E46435FCD
:1042B0005432545F5041525345523A494E464F3A58
:1042C000202020204D616E75666163747572657281
:1042D0002049443A20202020202030782530327890
:1042E0000D0A00004E46435F5432545F5041525312
:1042F00045523A494E464F3A202020205365726974
:10430000616C206E756D626572207061727420310F
:104310003A203078253034780D0A00004E46435F4D
:104320005432545F5041525345523A494E464F3AE7
:1043300020202020436865636B20627974652030FB
:104340003A2020202020202020203078253032786C
:104350000D0A00004E46435F5432545F50415253A1
:1043600045523A494E464F3A202020205365726903
:10437000616C206E756D626572207061727420329E
:104380003A2030782530386C780D0A004E46435F6D
:104390005432545F5041525345523A494E464F3A77
:1043A00020202020436865636B206279746520318A
:1043B0003A202020202020202020307825303278FC
:1043C0000D0A00004E46435F5432545F5041525331
:1043D00045523A494E464F3A20202020496E746596
:1043E000726E616C20627974653A20202020202052
:1043F00020203078253032780D0A00004E46435F89
:104400005432545F5041525345523A494E464F3A06
:10441000202020204C6F636B2062797465733A20F2
:1044200020202020202020202020307825303478A3
:104430000D0A0D0A000000004E46435F5432545FDF
:104440005041525345523A494E464F3A436170618A
:1044500062696C69747920436F6E7461696E65720C
:1044600020646174613A0D0A000000004E46435F0B
:104470005432545F5041525345523A494E464F3A96
:10448000202020204D616A6F722076657273696FFB
:104490006E206E756D6265723A2025640D0A00000B
:1044A0004E46435F5432545F5041525345523A494D
:1044B0004E464F3A202020204D696E6F722076655F
:1044C0007273696F6E206E756D6265723A20256435
:1044D0000D0A00004E46435F5432545F5041525320
:1044E00045523A494E464F3A20202020446174619B
:1044F00020617265612073697A653A20202020204E
:10450000202025640D0A00004E46435F5432545F5C
:104510005041525345523A494E464F3A20202020AE
:1045200052656164206163636573733A20202020C3
:104530002020202020203078253032580D0A00001D
:104540004E46435F5432545F5041525345523A49AC
:104550004E464F3A202020205772697465206163CF
:10456000636573733A20202020202020202030789B
:10457000253032580D0A0D0A000000004E46435FF8
:104580005432545F5041525345523A494E464F3A85
:10459000544C5620626C6F636B2030782530325853
:1045A0003A200D0A000000004E46435F5432545F2B
:1045B0005041525345523A494E464F3A556E6B6EF2
:1045C0006F776E0D0A0D0A004E46435F5432545FFA
:1045D0005041525345523A494E464F3A4C6F636BE5
:1045E00020436F6E74726F6C0D0A0D0A000000009C
:1045F00017A10320FEF708FFE06907EBC5061EA11F
:10460000825B0320FEF726FFE069805B68B124A18E
:104610000320FEF7F9FEE069042101EBC501835B8D
:10462000425827A10320FEF79DFE2BA10320FEF791
:10463000EBFE6D1C208CA8423FF6D1ADBDE8F081A9
:104640002CA1D6E735A1D4E73DA1D2E744A1D0E71C
:104650004E46435F5432545F5041525345523A499B
:104660004E464F3A4D656D6F727920436F6E74728E
:104670006F6C0D0A0D0A00004E46435F5432545FC2
:104680005041525345523A494E464F3A202020203D
:104690004C656E6774683A2025640D0A00000000BE
:1046A0004E46435F5432545F5041525345523A494B
:1046B0004E464F3A20202020446174613A0D0A0092
:1046C0004E46435F5432545F5041525345523A492B
:1046D0004E464F3A0D0A00004E46435F5432545F37
:1046E0005041525345523A494E464F3A0D0A0D0A2F
:1046F000000000004E46435F5432545F5041525315
:1047000045523A494E464F3A4E444546204D657310
:10471000736167650D0A0D0A000000004E46435F95
:104720005432545F5041525345523A494E464F3AE3
:1047300050726F70726965746172790D0A0D0A00AA
:104740004E46435F5432545F5041525345523A49AA
:104750004E464F3A4E756C6C0D0A0D0A0000000073
:104760004E46435F5432545F5041525345523A498A
:104770004E464F3A5465726D696E61746F720D0AE0
:104780000D0A00002DE9F0474FF00009C3F8009032
:104790000D46C3F80490144611881E468046012237
:1047A000FFF780FC0B2770B32188685C307020888D
:1047B000401C81B221803278032A06D001DC22B964
:1047C0001EE0FD2A01D0FE2A1ED040460122FFF73E
:1047D00069FCC0B12188685CFF281AD070802088ED
:1047E000401C208072885AB140462188FFF75AFC4D
:1047F00048B120882844706020887188084420804F
:104800000020BDE8F08702E0A4F80090F8E7384601
:10481000F7E703224046FFF745FC0028F7D0218840
:10482000681C0844008840BAFF28F0D370802088B4
:10483000C01CD6E71CB504466B46FFF7A3FF002853
:1048400015D19DF8000002280CD003DC30B10128FE
:104850000ED107E0FD280BD0FE2809D1BDF80210CB
:1048600021B905E0BDF80210032901D00B201CBDC1
:10487000032806D001DC20B918E0FD2801D0FE286D
:1048800014D0208C218B884206D1042408490220B0
:10489000FEF7BAFD20461CBDE16901EBC000DDE971
:1048A0000012C0E90012208C401C208400201CBD96
:1048B000084E00000078012801D101498870704736
:1048C000580000202DE9FF470C4605464FF40071C3
:1048D000FEF750FE01274FF40178002618B34FF47D
:1048E000927949462846FEF73AFEE0B14946284605
:1048F000FEF73AFEC5F80883A07E00B96F6002207B
:104900008DF80000D5F88004C5F880040390E07DA0
:104910008DF80800E0680190E6752676D4E900126B
:104920006846904727E004212846FEF723FE10B38F
:104930004FF484712846FEF712FEE0B12146284666
:10494000FEF784FEE07D617E884214D1207E38B17E
:10495000617EE268E0752069E0602676667607E0B1
:10496000A07E00B96F60C5F80883E675617EE268D5
:104970002046FEF784FE4FF48E7841462846FEF727
:10498000EEFD88B1A08AA17D884204D22146284646
:10499000FFF72CFB08E041462846FEF7E5FDA17D28
:1049A00011B12046FFF732FB4FF4A278414628466A
:1049B000FEF7D5FD002812D041462846FEF7D4FD6B
:1049C000A07E00B12F60E07D002808D0E675617EF2
:1049D000E26804B02046BDE8F047FEF750BEBDE8EF
:1049E000FF872DE9FF410C464FF492770546394683
:1049F000FEF7C6FD0026C0B139462846FEF7C5FDC4
:104A000002208DF80000D5F88004C5F880040390DA
:104A1000D5F83C058DF80800E0680190E67526762B
:104A2000D4E900126846904724E04FF4887739466D
:104A30002846FEF7A5FDE8B139462846FEF7A5FD54
:104A4000D5F83C05C1B2E07D884213D1207E60B12B
:104A5000E268D5F8000220F02000C5F80002207EB0
:104A6000E0752069E060267601E0E675E2682046A0
:104A7000FEF705FE4FF4A27739462846FEF780FD83
:104A800068B139462846FEF780FDE07D38B1E6750D
:104A9000D5F83C05E268C1B22046FEF7F0FD4FF4C0
:104AA000907631462846FEF76BFD00280FD0314640
:104AB0002846FEF76AFDA07D002808D0D5F84C05F1
:104AC00004B0C1B22046BDE8F041FFF79FBABDE88F
:104AD000FF81000010B5FCF795FC0020FEF722FDD9
:104AE000002805D0BDE8104002A24D21FCF7D2BB42
:104AF00010BD00002E2E5C2E2E5C2E2E5C6D61698A
:104B00006E2E6300111213140D0E0F100000FF0023
:104B1000FF0000FF06FAD50300300040000000004F
:104B20001F0000001F0000000000400607000000FA
:104B30000000005001000000000000000000000024
:104B4000FFFFFFFFFFFFFFFFFFFFFFFFFFFFFFFF75
:104B500000000000000000000000D6010701000076
:104B60002900000001000000010000000100000019
:104B70000100000001000000010000000100000031
:104B800002000000004E0000D84D0000684D0000FB
:104B9000804D00009C4D0000F44D0000C04D000011
:104BA000CC4D00000000D27600008501010040409D
:104BB00040404040404040414141414140404040F0
:104BC000404040404040404040404040404005025E
:104BD0000202020202020202020202020202202079
:104BE0002020202020202020020202020202029027
:104BF0009090909090101010101010101010101035
:104C00001010101010101010100202020202028880
:104C10008888888888080808080808080808080894
:104C200008080808080808080802020202400000F4
:104C3000AE4B00004150503A494E464F3A457272D1
:104C40006F7220647572696E672070617273696E2D
:104C5000672061207461672E205072696E74696EDE
:104C600067207768617420636F756C6427766520B0
:104C70006265656E20726561642E0D0A0D0A000082
:104C80004150503A494E464F3A4E6F7420656E6F10
:104C9000756768206D656D6F727920746F2072651D
:104CA00061642077686F6C65207461672E20507294
:104CB000696E74696E672077686174277665206213
:104CC00065656E20726561642E0D0A0D0A00000094
:104CD0004150503A494E464F3A4465636C617265A3
:104CE000642062756666657220666F722054325465
:104CF00020697320746F20736D616C6C20746F2059
:104D000073746F72652074616720646174612E0D25
:104D10000A0000004150503A494E464F3A457272DF
:104D20006F722028307825582920647572696E6763
:104D3000204E44454620546167204170706C696381
:104D40006174696F6E2053656C6563742050726F77
:104D50006365647572652E0D0A0000004F766572FA
:104D6000666C6F770D0A00004D656469612D74797A
:104D7000706520285246432032303436290D0A000F
:104D80004162736F6C7574652055524920285246F4
:104D9000432033393836290D0A0000004E4643209F
:104DA000466F72756D2065787465726E616C2074E3
:104DB00079706520284E464320525444290D0A003C
:104DC000556E6368616E6765640D0A0052657365B0
:104DD000727665640D0A00004E464320466F727578
:104DE0006D2077656C6C2D6B6E6F776E20747970AB
:104DF000650D0A00556E6B6E6F776E0D0A00000030
:104E0000456D7074790D0A004E46435F5432545F0D
:104E10005041525345523A5741524E494E473A57E4
:104E200061726E696E6721204E6F7420656E6F75BA
:104E30006768206D656D6F72792020746F20696ED0
:104E40007365727420616C6C206F662074686520D5
:104E5000626C6F636B73210D0A0000004E46435F66
:104E60005432545F5041525345523A5741524E4981
:104E70004E473A5761726E696E6721204243432064
:104E80006F66207468652073657269616C206E7549
:104E90006D626572206973206E6F7420636F727229
:104EA000656374210D0A00004E46435F5434545F1D
:104EB00043435F46494C455F5041525345523A493E
:104EC0004E464F3A4361706162696C697479204360
:104ED0006F6E7461696E65722046696C6520636FE0
:104EE0006E74656E743A200D0A0000004E46435FF2
:104EF0005434545F43435F46494C455F50415253DD
:104F000045523A494E464F3A4361706162696C6955
:104F1000747920436F6E7461696E65722046696CA6
:104F20006520636F6E7461696E7320256420466925
:104F30006C6520436F6E74726F6C20544C56206207
:104F40006C6F636B2873292E0D0A00004E46435F79
:104F50005434545F484C5F444554454354494F4E84
:104F60005F50524F434544555245533A494E464F80
:104F70003A4361706162696C69747920436F6E7441
:104F800061696E657220526561642050726F63655D
:104F900064757265200D0A004E46435F5434545FB9
:104FA000484C5F444554454354494F4E5F50524F1F
:104FB000434544555245533A494E464F3A46696C2B
:104FC0006520284944203D20253458292053656C0C
:104FD0006563742050726F636564757265200D0A95
:104FE000000000004E46435F5434545F484C5F4419
:104FF0004554454354494F4E5F50524F43454455E5
:105000005245533A494E464F3A4E44454620546124
:1050100067204170706C69636174696F6E205365BD
:105020006C6563742050726F636564757265200DE2
:105030000A0000004E46435F5434545F484C5F44BE
:105040004554454354494F4E5F50524F4345445594
:105050005245533A494E464F3A4361706162696C1A
:1050600069747920436F6E7461696E65722053654F
:105070006C6563742050726F636564757265200D92
:105080000A0000004E46435F5434545F544C565F50
:10509000424C4F434B5F5041525345523A494E4662
:1050A0004F3A577269746520616363657373206357
:1050B0006F6E646974696F6E3A203078253032788B
:1050C000200D0A0D0A0000004E46435F5434545F21
:1050D000544C565F424C4F434B5F504152534552E4
:1050E0003A494E464F3A4E4445462066696C652023
:1050F000636F6E74656E742070726573656E742E66
:10510000204C656E6774683A202564200D0A000003
:105110004E46435F5434545F544C565F424C4F43A9
:105120004B5F5041525345523A494E464F3A4E44D6
:1051300045462066696C6520636F6E74656E7420E9
:105140006973206E6F742070726573656E74200DC4
:105150000A0000004E46435F5434545F544C565F7F
:10516000424C4F434B5F5041525345523A494E4691
:105170004F3A547970653A204E4445462046696C52
:105180006520436F6E74726F6C2028307825303242
:1051900078290D0A000000004E46435F5434545FE6
:1051A000544C565F424C4F434B5F50415253455213
:1051B0003A494E464F3A547970653A2045787465BD
:1051C0006E646564204E4445462046696C65204304
:1051D0006F6E74726F6C2028307825303278290D0C
:1051E0000A0000004E46435F5434545F544C565FEF
:1051F000424C4F434B5F5041525345523A494E4601
:105200004F3A547970653A2050726F7072696574C4
:105210006172792046696C6520436F6E74726F6CA1
:105220002028307825303278290D0A004C520000B1
:10523000000000207000000010090000BC520000B7
:1052400070000020F8370000200900000000000076
:10525000000000000000000000000000000000004E
:10526000000000000A0000007000002000000000A4
:10527000B80E002000000A0000000000000000003E
:1052800000000000000D0E00000000000000000003
:10529000000000000000000000000000000000000E
:1052A000000000000000000000200040000000009E
:0C52B0005C4D0000000000000090D003E6
:0400000500000201F4
:00000001FF
