:020000040000FA
:10000000E0270020B1020000B9020000BB0200009E
:10001000BD020000BF020000C1020000000000009D
:10002000000000000000000000000000C30200000B
:10003000C502000000000000C7020000C902000065
:10004000AD050000CB020000F9080000CB02000063
:10005000CB020000CB020000D5030000CB02000061
:10006000CB020000CB020000CB020000CB0200005C
:10007000CB020000CB020000CB020000CB0200004C
:10008000CB02000005060000CB020000CB020000FE
:1000900029060000CB020000CB020000CB020000CA
:1000A000CB020000CB020000CB020000CB0200001C
:1000B000CB020000CB0200000000000000000000A6
:1000C000CB020000CB020000CB020000CB020000FC
:1000D000CB020000CB020000CB02000000000000B9
:1000E0000000000000000000000000000000000010
:1000F0000000000000000000000000000000000000
:1001000000000000000000000000000000000000EF
:1001100000000000000000000000000000000000DF
:1001200000000000000000000000000000000000CF
:1001300000000000000000000000000000000000BF
:1001400000000000000000000000000000000000AF
:10015000000000000000000000000000000000009F
:10016000000000000000000000000000000000008F
:10017000000000000000000000000000000000007F
:10018000000000000000000000000000000000006F
:10019000000000000000000000000000000000005F
:1001A000000000000000000000000000000000004F
:1001B000000000000000000000000000000000003F
:1001C000000000000000000000000000000000002F
:1001D000000000000000000000000000000000001F
:1001E000000000000000000000000000000000000F
:1001F00000000000000000000000000000000000FF
:10020000DFF80CD000F0D4F800480047211D0000B2
:10021000E027002030B4044654E8000F0D4644E8BF
:100220000053002BF8D1156030BC704730B4044641
:1002300054E8000F40EA010544E80053002BF7D1D1
:10024000156030BC704730B4044654E8000F00EA33
:10025000010544E80053002BF7D1156030BC70470E
:1002600030B4044654E8000F80EA010544E8005326
:10027000002BF7D1156030BC704730B4044654E809
:10028000000F00EB010544E80053002BF7D1156087
:1002900030BC704730B4044654E8000FA0EB0105B1
:1002A00044E80053002BF7D1156030BC70470000C4
:1002B0000648804706480047FEE7FEE7FEE7FEE700
:1002C000FEE7FEE7FEE7FEE7FEE7FEE72D0600009D
:1002D000010200002DE9F05F0546002092469B4692
:1002E00088460646814640241BE02846414647464C
:1002F000224600F04CF853465A46C01A914110D39A
:1003000011461846224600F016F82D1A67EB010830
:100310004F4622460120002100F00DF817EB00099E
:100320004E41201EA4F10104DFDC484631462A4636
:100330004346BDE8F09F202A04DB203A00FA02F190
:10034000002070479140C2F1200320FA03F31943C3
:100350009040704700487047C834000040EA0103ED
:100360009B0703D009E008C9121F08C0042AFAD26B
:1003700003E011F8013B00F8013B521EF9D270472F
:10038000421C10F8011B0029FBD1801A7047202A5B
:1003900004DB203A21FA02F00021704721FA02F32F
:1003A000D040C2F120029140084319467047000036
:1003B000064C074D06E0E06840F0010394E80700B2
:1003C00098471034AC42F6D3FFF71EFFD834000034
:1003D000F83400002DE9F04700268CB0DFF860917A
:1003E000B0464FF48075012437460696284602F041
:1003F00053F838B1D9F80403204203D0284602F05C
:1004000041F826432D1D64007F1CADB2082FEDD3AB
:100410004FF4BE74204602F03FF848B1204602F087
:1004200031F846F0004606AA0121002002F016F835
:10043000444D16F0FF0F15D00127002437420DD090
:1004400009EB8401D1F81005D1F81015C0F3042090
:1004500055F82420C1F3014102B190477F00641C8C
:10046000082CEBD3002E67DA4FF0FF30CDE908807F
:1004700000263446281910F8507F90F9000027F024
:10048000C008401C44D009A9404601F081FC58B383
:100490004FEA9719404601F031FA55F820701FB124
:1004A000B9F1030F03D00FE0B9F1030F30D108A861
:1004B0004FEAD80208F00703815C4FF0010C0CFAF8
:1004C00003FC41EA0C0181544FF0A04101EB88008C
:1004D000D0F8000706A9C0F3014A404601F058FCD5
:1004E00018B1BAF1020F03D012E0BAF1030F0FD125
:1004F000B9F1030F08D1BAF1020F1BD00221404617
:1005000001F08FFF761CF6B217B149464046B84756
:10051000641C042CAED3002E0ED06A4601210020AC
:1005200001F09CFF06990098884205D00690089833
:1005300009909DE70321E2E70CB0BDE8F0870000D9
:1005400000600040F800002000F01F0201219140EF
:100550004009800000F1E020C0F88012704700F0F0
:100560001F02012191404009800000F1E020C0F805
:100570000011704700F01F020121914040098000E6
:1005800000F1E020C0F8001270474907090E00286A
:1005900006DA00F00F0000F1E02080F8141D70472B
:1005A00000F1E02080F80014704700002DE9F041D0
:1005B0004FF48077384601F0F3FB0124104EA50775
:1005C00048B1384601F0F3FB0120C5F80803747008
:1005D000002001F09BF94FF48277384601F0E0FBF0
:1005E00000280BD0384601F0E2FB0220C5F80803D2
:1005F000B470BDE8F041012001F088B9BDE8F08198
:10060000E400002007480021C0F84011C0F8441160
:10061000C0F84811C0F84C11C0F80011C0F804111E
:1006200002F020BD0010014002F06EBCF0B5A348FE
:100630000023021D01780125101D4FF0805406296A
:100640000BD11678360708D10678C6F30316032EA9
:1006500006D0042E04D0052E02D0062907D00EE0C5
:10066000B4F82463964FC6F304263E6002E0167881
:10067000360704D10678C6F30316032E02D00629E6
:1006800004D00FE0904F8F4E7E670EE0167836074D
:1006900008D10678C6F30316032E06D0042E04D024
:1006A000052E02D0062907D00EE0D4F84462874F09
:1006B000C6F342363E6002E01678360704D106786B
:1006C000C6F30316032E02D0062906D011E0804E91
:1006D000376827F0807737600EE01678360708D144
:1006E0000678C6F30316032E06D0042E04D0052E7A
:1006F00002D006290AD011E04FF08046C6F80C312E
:10070000C6F81031714E361F336002E01678360796
:1007100004D10678C6F30316032E02D0062905D0AD
:100720000CE06A4F032664373E600AE0167836070D
:1007300004D10678C6F30316032E02D006290DD085
:1007400014E0644F05263E60624E78363560614E97
:10075000083633603F263F1D3E6002E016783607BC
:1007600004D10678C6F30316052E02D0062957D009
:1007700068E059490968594A11605749091D0968D3
:10078000121D1160544908310968121D1160524947
:100790000C310968121D11604F4910310968121D92
:1007A00011604D4914310968121D11604A49183110
:1007B00009684A4A2032116047491C310968121DF4
:1007C0001160454920310968121D116042492431E8
:1007D0000968121D1160404928310968121D116015
:1007E0003D492C310968121D11603B4930310968BF
:1007F0003A4A40321160384934310968121D11609B
:10080000354938310968121D116033493C31096896
:10081000121D1160304940310968121D116002E05B
:10082000117809070ED10078C0F30310032803D014
:10083000042801D0052805D1D4F85802284900F031
:100840004F00086022487438016841F4700101606B
:10085000BFF34F8FBFF36F8F4FF01021D1F800021D
:10086000002803DBD1F80402002822DA1D4A1560B3
:100870001D480468002CFCD01524C1F8004205680E
:10088000002DFCD0C1F8044201680029FCD013609F
:1008900001680029FCD0BFF34F8F0D48F038016884
:1008A000124A01F4E06111430160BFF34F8F00BFB2
:1008B000FDE710490E480860F0BD0000E00F00F0B1
:1008C000403501400DF0ADBA00C007403C05004086
:1008D000FCED00E0105600400404001020C500406C
:1008E000E40E004004E5014000E401400400FA0584
:1008F0000090D003740000200448017F04480029C0
:10090000024901D002F0B7BC02F026BC5001002021
:10091000002000400FB41CB50A46521ECDE900026B
:1009200007A9054B6A46069800F018F8009A0021BE
:1009300011701CBC5DF814FBBF0D000002E008C87C
:10094000121F08C1002AFAD170477047002001E049
:1009500001C1121F002AFBD1704700002DE9FF4F93
:100960008DB00F460546002606E025280BD0DDE9B0
:100970000F1290476D1C761C28780028F5D111B015
:100980003046BDE8F08F0024A246A1460122EC4982
:1009900000E0044315F8013F203B02FA03F008424F
:1009A000F7D128782A2810D06FF02F022878A0F1EC
:1009B0003001092914D80AEB8A0102EB410144F005
:1009C000020400EB010A6D1CF0E701CF5FEA000AA8
:1009D00003D544F40054CAF1000A44F002046D1C2B
:1009E00028782E2817D115F8010F44F004042A287E
:1009F0000ED06FF02F022878A0F1300109290AD813
:100A000009EB890102EB410100EB01096D1CF2E7E2
:100A100057F8049B6D1C28786C280FD006DC4C28F6
:100A200017D068280DD06A2814D104E0742810D09B
:100A30007A280FD10DE044F400140AE044F4801445
:100A400001E044F440146978814202D104F5801435
:100A50006D1C6D1C2A786E2A1FD00CDC632A31D0E5
:100A600004DC002A8BD0582A11D1A3E0642A68D074
:100A7000692A0CD165E0732A2ED004DC6F2A73D06A
:100A8000702A04D19BE0752A6FD0782A6ED0104668
:100A9000DDE90F129047761C50E1C4F302500228A2
:100AA00006D0032809D0042801CF09D0066045E10B
:100AB00001CFF117C0E9006140E101CF06803DE1BF
:100AC00006703BE117F8040B8DF8000000208DF84C
:100AD0000100EB46012003E057F804BB4FF0FF3064
:100AE00061074FF0000102D40DE008F101018846D2
:100AF00049450FDA8045F8DB1BF808100029F4D1CE
:100B000008E008F1010188468142FADB1BF8081071
:100B10000029F6D1DDE90F23AAEB08008146214622
:100B200000F036F9304400EB080604E0DDE90F126E
:100B30001BF8010B9047B8F10108F7D2214648464F
:100B4000F7E00A21C4F302534FF0000B0891022B87
:100B500004D001CFC117032B09D00AE0FF1D27F0F5
:100B60000707F7E8020108E032E01FE020E000B2EA
:100B7000C117042B01D140B2C117031E71F100034C
:100B800007DA4FF0000CD0EB0C006CEB01012D23C9
:100B900002E0230504D52B238DF82430012303E044
:100BA000E30701D02023F7E7984658E00A2110E038
:100BB00010210EE010204FF0000B08900CE01021E7
:100BC0004FF0000B44F004044FF00809089103E0D3
:100BD00008214FF0000B0891C4F30253022B04D0FC
:100BE00001CF0021032B06D006E0FF1D27F00707E9
:100BF000F7E8020103E080B2042B00D1C0B24FF04D
:100C0000000823072BD5702A07D0DDF820C08CF010
:100C1000100C5CEA0B0C05D00EE040238DF824305C
:100C2000012308E050EA010306D030238DF8243078
:100C30008DF8252002239846DDF820C08CF0080CA2
:100C40005CEA0B0C0BD150EA010301D1630706D516
:100C500030238DF824304FF00108A9F10109582AFA
:100C600004D038A20B9208AA0A920BE03AA2F9E744
:100C70005B46089AFFF72EFB0B9B9B5C0A9A521E61
:100C80000A92137050EA0102F2D10A98ADEB00000B
:100C900000F1200B600702D524F4803401E04FF00E
:100CA0000109D94502DDA9EB0B0000E0002000EBB3
:100CB0000B0141440890AAEB010AE00306D4DDE9E8
:100CC0000F232146504600F063F806444FF0000918
:100CD00008E009A911F80900DDE90F12904709F1B0
:100CE0000109761CC145F4DBE0030CD5DDE90F23D7
:100CF0002146504600F04CF8064404E0DDE90F12AE
:100D000030209047761C0899481E08900029F5DC91
:100D100008E00A980A990078491C0A91DDE90F1247
:100D20009047761CBBF10001ABF1010BF1DC2146D1
:100D30005046DDE90F2300F019F806446D1C1BE650
:100D400009280100303132333435363738396162A1
:100D50006364656600000000303132333435363765
:100D60003839414243444546000000002DE9F04136
:100D7000044600251E461746880404D405E039467B
:100D80002020B0476D1C641EF9D52846BDE8F081CF
:100D90002DE9F041044600251E469046C80301D5C2
:100DA000302700E02027880404D505E04146384676
:100DB000B0476D1C641EF9D52846BDE8F0814A682D
:100DC000002A06D00A68531C0B6010704868401E49
:100DD00048607047022000F05BBA000070B5002444
:100DE000084D05E0686810F8340001F0ABF8641CA9
:100DF00028788442F6D304480068BDE8704000F0CB
:100E0000B3B9000018000020D033000070B50024F2
:100E1000064D06E06868012110F8340001F0B6F8CC
:100E2000641C28788442F5D3002070BD180000208F
:100E3000F8B515460C460646052A01D20720F8BD2E
:100E400001F08AF918B901F059F90028F7D11149D0
:100E500000224E600C708D60C1E90422C1E90622B7
:100E60000D4D0DE006EBC4006968009181788DF8A6
:100E700001100078094A694601F0DAF80028DED14D
:100E8000641EE4B2EED2BDE8F840054A00210248F3
:100E900000F0EEB818000020D0330000D11A000096
:100EA000E11900000DA1012001F006FD01F05EFC3A
:100EB00001F060FC0028FBD10CA1032001F0FCFC38
:100EC000BFF34F8F10480168104A01F4E0611143ED
:100ED0000160BFF34F8F00BFFDE700003A4552525B
:100EE0004F523A466174616C0D0A00003A494E4611
:100EF0004F3A486974207765616B2068616E646C55
:100F000065720D0A000000000CED00E00400FA0517
:100F10000EB500210091CDE901106A4644F20100AE
:100F2000FFF7C0FF0EBD00001B4910B54A783AB16B
:100F3000A8B1012808D002281DD0032825D120E01F
:100F400001208870002010BD14A1032001F0B4FC22
:100F500000F052FA002818D0FFF7DAFF15E01AA1C6
:100F6000032001F0A9FC00F047FA012000F044FC46
:100F700000F02EFC09E01FA1012001F09DFC902053
:100F8000EAE72BA1032001F097FC00F0FDF808B17F
:100F9000FFF7BEFF012010BD000000204150503A75
:100FA000494E464F3A4E52465F5057525F4D474D5D
:100FB000545F4556545F505245504152455F535916
:100FC000534F46460D0A00004150503A494E464F95
:100FD0003A4E52465F5057525F4D474D545F45560B
:100FE000545F505245504152455F57414B45555013
:100FF0000D0A00004150503A4552524F523A456E48
:10100000746572696E6720444655206973206E6F5F
:101010007420737570706F727465642062792074C7
:10102000686973206578616D706C652E0D0A00002B
:101030004150503A494E464F3A4E52465F505752F1
:101040005F4D474D545F4556545F50524550415295
:10105000455F52455345540D0A000000401A20F0E8
:101060007F40704701480068704700000415014048
:10107000074B9B7823B12AB120B10068037C1BB1D8
:101080000820704707207047417442610020704774
:101090009001002070B501F015FE104800240B21CE
:1010A000047044700E4D817014206C602C706C7054
:1010B000FFF74AFA07211420FFF767FA1420FFF719
:1010C0004EFA0848046007211120FFF75EFA054830
:1010D000001F0068A860002070BD00009001002083
:1010E00038000020081501402DE9F843DFF8709022
:1010F00099F802305BB350B3052902D20720BDE84E
:10110000F88343691BB3437C012B22D0002704469C
:10111000002588461646284600F042F8684602F048
:1011200023F9C0B1012101700E4944600968C0E98A
:101130000218C0E904769DF8000089F8010000203B
:1011400000F030F81420FFF715FA2846D7E70820FA
:10115000D5E70F46DBE70425002000F023F8F4E78D
:1011600090010020041501400649897839B130B159
:10117000416921B100210174022101F053BF08200F
:1011800070470000900100200448807818B10321C6
:10119000002001F047BF08207047000090010020A8
:1011A00000F002B800F008B872B602480168491CA5
:1011B000016070474C00002003490868401E086029
:1011C00000D162B6704700004C0000202DE9F041CC
:1011D000064608680C46411C4FF0A0474FF0010539
:1011E00006D005FA00F1C7F80815206801F0FEF8EE
:1011F0006068411C02D0002101F0EFF830792049ED
:1012000001EB4010A169007F00283068C0F8241568
:1012100025D0607D227D31681043C1F86C05D4E98A
:1012200000123068C0F80C15C0F8142524E0A0683E
:10123000411C02D0002101F0D0F8E068411C05D02B
:101240008540C7F80855E06801F0D0F8D4E90212EB
:101250003068C0F80825C0F81015BDE8F081607D41
:10126000217D32680843C2F86C05D4E90012306869
:10127000C0F81425C0F80C15207D0128D7D0ECE764
:10128000500100200149085C704700009C330000B9
:1012900007490B5C4FF0A041D1F80425012098408C
:1012A00020EA0203C1F808351040C1F80C05704768
:1012B000983300000249085C012101F0C3B8000026
:1012C000983300000249085C002101F0BBB800001F
:1012D000983300000649095C4FF0A040D0F804059F
:1012E000C84010F0010000D0012080F001007047DC
:1012F000983300007CB50024084E25460122305D5D
:10130000009500231146019501F028F8641C042C77
:10131000F4D3BDE87C4000F003B80000983300002F
:1013200010B500242046FFF7C5FF641C042CF9D338
:1013300010BD10B500242046FFF7C4FF641C042C28
:10134000F9D310BD10B50246064B4FF0FF30002117
:101350005C5C944201D1084610BD491C0429F7D3B6
:1013600010BD00009C3300002DE9F0470D4681467A
:10137000FFF7E8FF0446042836D2DFF874801B48E4
:101380001C4EA8F10C0725B3012D0ED0022D2BD138
:1013900004EB440030444578002D25D0B96800297D
:1013A00022D02846BDE8F047084704EB4401755CAD
:1013B0000E44717849B10E4A4FF40041093A8068F1
:1013C000FFF792FE08B987F80390B17808F8041087
:1013D000E2E78068FFF7C8FE04EB4401314418F8E7
:1013E00004008D78A842D7D0BDE8F087A033000074
:1013F00010000020B8000020FFF7F0BC10B519491C
:10140000022000F0BFF808B1FFF782FD0C22022194
:10141000012000F029F808B1FFF77AFD0A22002127
:10142000012000F021F808B1FFF772FD0022012130
:10143000104600F019F808B1FFF76AFD00210E22EE
:10144000084600F011F808B1FFF762FD09220021FB
:10145000022000F009F8002803D0BDE81040FFF793
:1014600057BD10BDAD14000070B50023042810D284
:101470000D4D00EB4004012A02D101290CD00022BD
:10148000094E00EB4000304461B1012906D0022929
:1014900006D00723184670BD0E30C2B22A55F9E7B0
:1014A0004270F7E78270F5E7B800002070B5054696
:1014B00001F06EFA15A1032001F0FEF9092D23D0E9
:1014C0001A4C0A2D19D001200C2D14D00E2D13D139
:1014D000617819B10020607015A101E060701FA152
:1014E000032001F0E9F9A078002805D060780028F1
:1014F00002D0042004E0207070BD207800B10120EB
:10150000BDE8704001F0D2BA0320F9E74150503AEB
:10151000494E464F3A506F776572206D616E616734
:10152000656D656E74206665640D0A00000000201C
:101530004150503A494E464F3A53797374656D2085
:101540006973206E6F7420726561647920666F72B2
:101550002073687574646F776E0D0A004150503ABD
:10156000494E464F3A53797374656D206973207202
:101570006561647920666F722073687574646F7733
:101580006E0D0A0070B506461E480024C0E90161D0
:10159000B00720D50025012211462846FFF764FF39
:1015A0006D1C0446042D02D2002CF4D013E094B933
:1015B00040F2666204211448FFF73AFC04000AD1A5
:1015C000FFF724FC040006D10F48104A0021001F39
:1015D000FFF74EFD0446F00701D0FFF78BFE74B90C
:1015E00009480B4A00210C38FFF742FD040006D1E0
:1015F0000548084A01210838FFF73AFD044620460D
:1016000070BD000004000020AC3300009118000001
:10161000151C0000D50D00002DE9F05F6A4C054651
:1016200000266078B34618B184F801B000F0DAFA09
:10163000664F4FF47A694FF4C87A4FF00108182DBD
:1016400062D2DFE805F0AC0C0C31404D62676B7480
:101650006B74BE7D7D7D7D7DACAFB2B5BEBE00201E
:10166000FFF738FE00284FF0000008D0FFF722FEF9
:10167000022D02D14FF4E16008E0484606E0FFF792
:1016800021FE022D01D1C82000E05046410CC003CC
:101690004FF4FA72801841F10001257052000023C6
:1016A000FEF718FE01462AE00020FFF713FE00288F
:1016B0004FF0000004D0FFF7FDFD4FF44870E5E760
:1016C000FFF700FEDFE70020FFF704FE00284FF0E1
:1016D000000002D0FFF7EEFDCFE7FFF7F3FDD4E700
:1016E0000020FFF7F7FD00284FF0000002D0FFF7C1
:1016F000E1FD01E0FFF7E6FD257041F69A110022B9
:101700003868FFF7F1FC064646E00020FFF7C0FD11
:10171000257008E0002051E025703DE084F801804C
:101720000120FFF7B5FD002240F6CD41E8E784F83F
:1017300001800120FFF7ACFD00224FF48041DFE77C
:101740007868FFF711FD0646D5F1110000D02EB1E3
:101750000220FFF7AFFD84F802B01DE0012816D982
:1017600080B2C8214843C117C90341EA5041C003B0
:101770004FF4FA72801841F1000152000023FEF785
:10178000A9FD014600227868FFF7AEFC064602205C
:10179000FFF798FD84F802803046BDE8F09F00F026
:1017A00021FAB9E700F01EFAB4E700F01BFA04E0F2
:1017B00000F018FA0020FFF785FD0120FFF782FDF9
:1017C000AAE7FFF7B6FDA7E704000020A03300005A
:1017D00010B50020FFF7E4FC05480078400702D16F
:1017E0000449012088600020FFF7DCFC002010BDC8
:1017F000105400400050004010B5FFF743FD032196
:1018000000F0FEFD002010BD002901DA0020704725
:1018100002681144016001207047000070B5461C49
:101820000D4601240020FFF7BBFC114A1068286018
:10183000D2E900109568081A2B1A701C5B1C98429C
:101840000FD963B10B480C4B294000681B6802EBB1
:10185000810163F39F20C8601068401C1060002461
:1018600001E0881910600020FFF79CFC204670BD45
:10187000C80300202034000070000020034803C883
:10188000814201D10120704700207047C803002029
:1018900000780221FFF768BD05494FF0FF320828A4
:1018A00041F8202002D3084480F848207047000007
:1018B000F8000020F0B54FF0FF3512B100230826E4
:1018C00001E008230C260C4C05E000BF54F82370FF
:1018D0007F1C04D05B1CB342F8D32846F0BD261809
:1018E0005DB286F8305044F82310002AF5D1E11893
:1018F00081F84800F1E70000F800002002490844A0
:1019000090F9300070470000F800002070B5084CD6
:10191000050009D010342168002907D0086820602C
:10192000496828468847F6E70834F4E770BD0000A8
:10193000E40000202DE9F05F26484168F1B3DFF8AC
:1019400098B00E688146DBF8004087688078E11B1C
:1019500021F07F45ED1CB0B9DFF880804FF4803076
:10196000C8F84403C8F804031120FEF7EDFD112068
:10197000FEF7F5FD4FF0010AC8F800A02F2000F097
:101980001FFA89F802A0B54200D23546124BE81979
:101990003C3320F07F401860DBF800105A46091BEA
:1019A00021F07F41001B20F07F40C91C81420FD9EC
:1019B000106818602F2000F003FA00E004E0BDE892
:1019C000F05F1120FEF7D6BDBDE8F05F01F07AB9F7
:1019D000BDE8F09F380000200415014000100140D0
:1019E0002DE9F05F0025DFF8A48043E06068002166
:1019F00000EBC506012032789146FEF79CFCD4E945
:101A0000062300EA020701EA030C57EA0C072FD06D
:101A1000C7433A408B434846C4E9062300F064FBC1
:101A200032784FF0000A8146934601205146FEF776
:101A300082FCD4E9042300EA020401EA03075A46BF
:101A400048465146FEF777FC44404F403C430FD197
:101A50007078012815D0002289EA02008AEAE27132
:101A6000084310D00020726812B1C1B258469047A6
:101A70006D1CEDB298F8000044468542B6D3BDE82F
:101A8000F09F0122E8E70120EDE7000018000020A8
:101A90000E4910B50A784C780023A24212D0521C8D
:101AA000D2B20A70022A00D10B70084A0B780C32AD
:101AB00052F8232002608868104420F07F4088603C
:101AC000012010BD0360002010BD00003800002080
:101AD0002DE9F0418046024601200021FEF72BFC53
:101AE0001A4F05460E463868FFF73EFB00280CD11A
:101AF000174CD4E9062110462A4001EA06031A438E
:101B000005D0A843B143C4E90601BDE8F0814046D1
:101B100000F0EAFA30B1D4E9040128433143C4E9C2
:101B2000040105E0D4E90410A943B043C4E904105A
:101B3000D4E9060128433143C4E90601A1683868A5
:101B4000BDE8F0410022FFF7CFBA0000D03300001B
:101B50001800002070B50E460446007918494FF46D
:101B6000A27501EB4010017F2068A1B14FF488718C
:101B700001F04DF84FF49071206801F048F84FF4EF
:101B80009271206801F043F82946206801F03FF87F
:101B90000C49206809E04FF48E7101F027F82946BE
:101BA000206801F023F808492068C0F80413206871
:101BB00000F0C5F93146BDE8704000F0A4B900005E
:101BC000500100201003020080000200026813464A
:101BD00002E08A4204D01268002AFAD10B60016048
:101BE000704700000A4810B5807860B1002401E019
:101BF000022C06D02046FFF75DFB641C042CF7D3B3
:101C000010BD0324F6E7BDE81040FFF789BB0000D4
:101C10000400002003480179C90702D00078FFF7CB
:101C2000FBBC7047040000202DE9F047394E002727
:101C300080463D46DFF8E090D6F804A057E003D098
:101C40000446D0F81C8035E099F8002002EB4201F0
:101C5000521CD2B289F8002009EBC10199F8023078
:101C6000091D9A4201D189F8005048680A78044653
:101C7000012A12D0022A02D0032A3BD108E001F047
:101C8000A1F900B10127257434E00574C06900E0B2
:101C900070680028F9D170602CE0207C50BB886807
:101CA0006060C868A0600869E0604869A061F07879
:101CB00000B165606268B168184B501A20F07F402F
:101CC000984202D2A168084406E0881AA16820F070
:101CD0007F40814202D9081A206000E025606560DB
:101CE0000120A56020742046E56101F04DF9B8F1AE
:101CF0000000A4D199F8001099F801008142A3D105
:101D000017B97168514502D00120BDE8F087002065
:101D1000FBE700003800002090010020FFFF7F005B
:101D2000002000F023FE08B1FFF7F2F80FA1032016
:101D300000F0C2FD00F08AF808B1FFF7E9F80020D2
:101D400000F0A6F8FFF7A6F908B1FFF7E1F8FFF7F2
:101D500055FB00F037FE08B1FFF7DAF800F00AFD96
:101D60000028FBD100F074FEF8E700004150503A23
:101D7000494E464F3A506F776572204D616E6167EC
:101D8000656D656E74206578616D706C650D0A0017
:101D9000C20800F007030120895C984008407047A2
:101DA00000F180400068002800D00120704708B58D
:101DB00000F18040002101600068009008BD000033
:101DC00000283ED01F49204A096800BF00BF00BF5D
:101DD00000BF00BF00BF00BF00BF91422FD000BFB7
:101DE00000BF00BF00BF00BF00BF00BF00BF00BFFB
:101DF00000BF00BF00BF00BF00BF00BF00BF00BFEB
:101E000000BF00BF00BF00BF00BF00BF00BF00BFDA
:101E100000BF00BF00BF00BF00BF00BF00BF00BFCA
:101E200000BF00BF00BF00BF00BF00BF00BF00BFBA
:101E300000BF00BF00BF00BF00BF00BF00BF013830
:101E4000C3D17047740000200024F40070B50E4C1C
:101E50000025207808B1852513E00021A16061608C
:101E60002161E1604FF0E020D0F80001012610F080
:101E7000010F03D10721002000F045F80348066058
:101E80002670284670BD0000E400002018050040C0
:101E900070B5154D0446A87838B114B161680120B9
:101EA00088470020FFF77CF915E00020FFF778F95C
:101EB00024B10D4821461030FFF788FEE86850B97C
:101EC0004FF48270FFF773FF02204107C1F804034B
:101ED000064901200860E868401CE860BDE87040E1
:101EE0000020FFF75FB90000E40000200800004078
:101EF00000F01F02012191404009800000F1E02024
:101F0000C0F8801170474907090E002806DA00F072
:101F10000F0202F1E02282F8141D03E000F1E0223A
:101F200082F8001400F01F02012191404009800056
:101F300000F1E020C0F88012C0F800117047000BDB
:101F400040B2704710B5044600F068FE28B1204644
:101F5000BDE81040002100F064BA204600F06AFE9F
:101F600000280FD02046FFF7C9FC074A02EB80018A
:101F7000D1F8103523F00103C1F81035012181405B
:101F8000C2F8081310BD0000006000402DE9F041C8
:101F90008846054600F042FE234E002828461AD007
:101FA000FFF7ACFC304490F848008009032802D0C9
:101FB00001280ED007E04FF0A040D0F81005E8400F
:101FC00010F0010F05D003212846BDE8F04100F0D4
:101FD00028BA0221F8E700F02DFE002822D028467A
:101FE000FFF78CFC04464FF4807000EB84000F4F29
:101FF00081B207EB8400D0F8102542F00102C0F84E
:102000001025084600F03EFAB8F1000F0AD0284625
:10201000FFF774FC56F82000002803D00120A040F0
:10202000C7F80403BDE8F081F8000020006000401C
:102030002DE9FC41DFF8A480044608EB04000027EA
:1020400090F930001346C0170E46401C01D00827F7
:1020500041E0F27819462046FFF72CFC0546401C6B
:1020600038D0B07850B14FF0A04000EB8400D0F8E9
:10207000001721F00201C0F8001707E00021737873
:10208000204600910A46019100F07AF9F078C0B13B
:102090001348317800EB8500D0F81025114B1A4019
:1020A000C0F810254FF4F8524FF4403302EA0422EE
:1020B00003EA01410A43D0F810150A43C0F810257D
:1020C00009E008EB0500327810F8481F41EA821158
:1020D000017000E004273846BDE8FC81F8000020CC
:1020E00000600040FFE0FCFF4FF0A041D1F8101568
:1020F000C14011F0010000D00120704770B5144DAF
:1021000095F8540008B1082070BD0020411E2A181F
:10211000401CC0B282F830102028F8D3002420469A
:10212000FFF7BAFB641CE4B20C2CF8D3072106209D
:10213000FFF7E9FE4FF4BE7000F0A4F905494FF037
:102140000040C1F80403012085F85400002070BD50
:10215000F800002000600040034890F85400002878
:1021600000D0012070470000F80000200121B1EBF1
:10217000507F01D101207047002070472DE9F041C8
:1021800005460079164F904607EB40140E46E07E58
:1021900010B10820BDE8F081707F20772846FFF756
:1021A00015F85FEA080060603169216003D0317F73
:1021B0002846FFF7CFFC287907EB4010007F002866
:1021C000286801D0082100E00421C0F80015002093
:1021D000E0752076A0750121E176A076DAE70000AF
:1021E000500100202DE9F047054600793F4E90460A
:1021F00006EB40140F46207F18B10846FFF7B6FFE4
:1022000030B1284600F074F820B11120BDE8F08705
:102210001020FBE784F81680A7600027A7822879A2
:102220004FF0010806EB40143E46207F0028286846
:1022300025D04FF49079494600F0E9FC4FF4AC7A90
:102240005146286800F0E3FC2868A17DA268C0F828
:102250004425C0F848152868C0F808806068F0B9BF
:102260004946286800F0CEFC80465146286800F0B8
:10227000C9FC58EA0001F3D058BBA7750FE04FF432
:102280008E7A514600F0B2FC2868C0F808802146DA
:10229000286800F03BFF61684FF4807089B13046D8
:1022A000B4E75146286800F09CFC10B9A08A484564
:1022B000F7D1A08A484505D02146286800F026FFBE
:1022C00000E08146A08AA17D8842EAD3A08A4845E1
:1022D00001D10F26D1E75146286800F082FC002882
:1022E000F9D02868C0F80C80C7E700005001002032
:1022F0000079044901EB4010807D002800D00120C6
:10230000704700005001002070B504460079114963
:10231000002601EB401520682A7FC0F80065686838
:1023200088B1207901EB4010007F0028206801D09F
:10233000094901E008498C39C0F808132068FFF703
:10234000FEFDFFF7D5FD204600F080FCEE766E60C6
:1023500070BD0000500100201003020070B541EA7A
:102360004201DDE904564FF0A04441EA830141EA0D
:10237000052104EB800041EA0641C0F8001770BD5A
:1023800070B541EA4201DDE904564FF0A04441EA4C
:10239000830141EA052104EB800041EA0641C0F8CF
:1023A000001770BD70B541EA4201DDE904564FF0F7
:1023B000A04441EA830141EA052104EB800041EA9F
:1023C0000641C0F8001770BD1CB5002100910B46F6
:1023D00001220191FFF7E6FF1CBD1CB500220B4650
:1023E000009211460192FFF7DDFF1CBD1CB50021D4
:1023F00000910B46012201911146FFF7D3FF1CBD4E
:102400004FF0A04202EB8000D0F8002722F44032C7
:10241000C0F80027D0F8002742EA0141C0F80017B1
:1024200070474FF0A04202EB8000D0F8002722F462
:102430004032C0F80027D0F8002742EA0141C0F836
:102440000017704701224FF0A043824011B1C3F83A
:1024500008257047C3F80C257047000018B5084BD5
:102460006C4601441B68009306E000BF54F820301E
:10247000D3F81035401C08C28142F7D818BD0000BF
:10248000CC330000034908B508440021016000680E
:10249000009008BD0060004002494058012800D06B
:1024A0000020704700600040004870472125000070
:1024B00030B5184C054689B0207828B1607885423F
:1024C00002D1002009B030BD202213496846FDF733
:1024D00045FF00208DF81400062000900820019090
:1024E00005200390072002904FF0EB7006900948FA
:1024F000001DFFF709FF0DB1002200E0074A054863
:102500006946001DFFF73AFE0028DBD1012020704C
:102510006570D6E7640000200034000049310000F7
:102520002DE9F04FC1B00D004FF0000140914D98E2
:102530004B991C46174601EB000B01D00A2000E026
:102540000020804600F002FC00287CD16E46BCB919
:10255000409840AA3118284600F0BEFD002872D0ED
:102560003846FDF70DFFC22800D9C2200546409825
:102570002A4630443946FDF7F1FE40982844409001
:102580004FF0200A409901EB080231320DEB0105B2
:102590000DEB0206002002E005F801AB401C4045AF
:1025A000FAD300275C4508D305F801AB05F801AB69
:1025B00005F801AB06F801AB2DE04B98844202D23E
:1025C0004A98005D02E0211A4C98405C2B468146F7
:1025D00002460121880022FA00F000F00F000928CD
:1025E00001D9373000E03030C1F1010C491E03F849
:1025F0000C00EFD29D1C05F801ABFDF7ABFE0168A6
:1026000011F8090010F03E0F01D0484600E02E20DE
:1026100006F8010B641C7F1C102FC3D30D203070F3
:102620000A20707085F800A0409968464144433103
:10263000409100F091FB30B100F088FB18B9002008
:1026400040905C459ED341B02046BDE8F08F2DE917
:10265000F043C7B000251C46904689464E9F4595DD
:1026600000F074FB00287AD1459805AE311845AAD0
:10267000484600F031FD002835D0072F27D2DFE88B
:1026800007F004121B35424F5D004046FDF778FE0F
:10269000054645982918FF2919D830442A4641464D
:1026A000FDF75CFE13E045982368C0F58071304467
:1026B0004246FEF72FF909E06068009045982368CC
:1026C000C0F5807130444246FEF724F9054629469C
:1026D00045A8FFF799F8459978B3B1F5807F3ED8C2
:1026E00005A800F039FB47B0BDE8F083D4E901014B
:1026F000CDE9000145982368C0F580713044424619
:10270000FEF708F9E2E7201D07C88DE807004598A5
:102710002368C0F5807130444246FEF7FBF8D5E7E8
:10272000201D0FC88DE80F0045982368C0F5807103
:1027300030444246FEF7EEF8C8E710E004F1080026
:1027400001AD0FC885E80F006068009045982368C8
:10275000C0F5807130444246FEF7DCF8B6E7002051
:10276000C1E70000004870474F2600000120FFF736
:102770009FBE00002DE9F04F87B0FFF77FF818B13A
:10278000002007B0BDE8F08F454ED6E9014704EAC6
:10279000070006EB8000A146641CC5680CE000BF82
:1027A000C5F3891000EB9550044404EA070006EBDA
:1027B0008000A146C568641CA807F1D005F003009D
:1027C0004FF0000B022805D0AA0A01A8C5F3831315
:1027D000002153E004EA070006EB800004F1010A3F
:1027E0000AEA0704C268381B80004FEA9558001DAA
:1027F000C5F38913804521D929490C3138B106EB3D
:10280000840400F0FF0CA8EB00000C3404E00C463C
:10281000002108F0FF0C0846C0B2CDE90210CDE956
:10282000004CD6F81444C5F3C2005946A0474045B1
:1028300011D108F103080AEB98042AE0002106EB05
:1028400084000C300090CDE901810391C5F3C200F2
:10285000D6F81444EAE760F38F1509EA070006EB9F
:102860008000C56016E000BF04EA070C06EB8C0C84
:10287000491CDCF80CC040F804CB641C9942F3D32B
:10288000C5F3C2000093D6F8105401AB5946A847CF
:1028900000B17460FEF7F2FF80F0010071E7000004
:1028A000C8030020034AFF23936000231360536092
:1028B00000F054B8C80300202DE9F8430F4F8846B4
:1028C0000446002569462846BE68FEF7A7FF002893
:1028D00012D00B480021406861F38200009964F334
:1028E000C50001EA060265F3891007EB820268F36E
:1028F0009F20491CD0600091BDE8F883C8030020E8
:10290000203400002DE9F843124D88460446012783
:10291000914669463846AE68FEF780FF002817D01A
:102920000D480021806861F38200009964F3C500BE
:1029300001EA060267F3891005EB820268F39F2023
:10294000491CD0600091314005EB8101C1F80C9029
:10295000BDE8F883C803002020340000024A02F5D5
:10296000826203C270470000C803002070B50646AB
:102970000020FFF79DFD040008D1FFF795FD0546F7
:10298000FFF7F0FE32462946FFF78CFF204670BD68
:1029900010B504A10420FFF78FFF094900208880AB
:1029A00010BD00004E52465F5057525F4D474D5488
:1029B0003A44454255473A466565640D0A000000B1
:1029C0005000002070B516A10320FFF775FF1B4DC6
:1029D000002405F108006C700460BFF35F8F184994
:1029E000184800F0D7F81848016841F0100101605C
:1029F000AC80EC6012482C61AC70144A0121001FBD
:102A0000FEF736FB002809D10D480022001F4FF4C5
:102A100000410068BDE87040FEF766BB70BD000075
:102A20004E52465F5057525F4D474D543A494E46BD
:102A30004F3A496E69740D0A0000000050000020F2
:102A4000F4330000BC02002010ED00E0192B000060
:102A500010B50020FEF7A4FBF1EE100A20F09F0055
:102A6000E1EE100ABFF35F8F0E494020C1F88002EB
:102A70000020FEF797FB0020FEF792FBFEF7F2FA2C
:102A8000044620BF40BF20BFFEF7ECFA2146FEF708
:102A9000E5FA0549CA681044C860BDE81040002046
:102AA000FEF780BB04E000E050000020F8B50446CB
:102AB0000E4801216A46FDF7ADFB002500280AD12A
:102AC00001210A4E042C09D0A6F1080042781AB15F
:102AD0003560BFF35F8FF8BD04704170224604A1DA
:102AE0000320FFF70FFF00F04DF9F1E75800002039
:102AF0004E52465F5057525F4D474D543A494E46ED
:102B00004F3A53687574646F776E2072657175659E
:102B100073742025640D0A0070B5FEF7A3FA124CF9
:102B200006462169FEF79AFAE1686422411A514388
:102B3000B1FBF0F0C5B22A460CA10420FFF7E2FE7B
:102B4000A078A84200D2A5700020C4E90306A0889E
:102B5000032802D2401CA08070BD60780028FBD101
:102B6000BDE87040FFF7A2BF500000204E52465F04
:102B70005057525F4D474D543A44454255473A43AA
:102B800050552055736167653A20256425250D0A47
:102B900000000000016009684160AFF3008010B5DB
:102BA000D0E900215368994201D1002104E0D1E924
:102BB0000034A34202D01946816010BD0831416043
:102BC000F0E7816800290BD0026892680A448260AD
:102BD00041684B689A4203D108314160FFF7DFBF7B
:102BE00070474058002800D00120704708B50022E7
:102BF00042504058009008BDD0F80403084000D06F
:102C0000012070474058002800D00120704708B5C7
:102C1000002242504058009008BD0000044908447A
:102C200090F93000082801DB012070470020704730
:102C3000F80000200449084490F93000082801D227
:102C40000120704700207047F800002070B503464F
:102C500000791B4901EB40101968027F4FF0FF30EB
:102C6000002AD1F80C25D1F81465D1F80855D1F80F
:102C7000104504D0C1F80C05C1F8140503E0C1F8F3
:102C80001405C1F80C051968C1F80805C1F810054C
:102C9000501C02D01046FFF797FB701C02D0304644
:102CA000FFF792FB601C02D02046FFF78DFB681CEB
:102CB00004D02846BDE87040FFF786BB70BD000019
:102CC0005001002070B5012670044FF0E02100256E
:102CD000C1F88001084C4010C4F84803C4F8080348
:102CE00066602F20FFF76CF8A660044C2F20A560CB
:102CF000FFF766F8A57070BD001001403800002095
:102D000070B50546C87D0C4600284FF484712846EE
:102D10000AD0FFF76BFFD5F81805627EE16888548A
:102D2000607E401C607670BDFFF760FFD5F8180527
:102D300070BD1FB501238DF800308DF80810019289
:102D4000D0E90012684690471FBD00000148FFF718
:102D5000CFBA00006800002070B50D460A46014653
:102D600001240648FDF7FAFAEAB204490448FFF7DD
:102D700039FA00B10024204670BD0000C8020020CE
:102D80006800002070B5214D21A103202A78FFF7AB
:102D9000B9FD2B4E0CE0216828788847226800286E
:102DA00021D028A10320FFF7ADFD2548FFF709FF3B
:102DB000B468002CEFD1AA782FA10320FFF7A2FD61
:102DC00038A10220FFF778FDFFF7D0FCFFF7D2FC17
:102DD0000028FBD1287803280BD0022809D03949D4
:102DE00001200860FEE7BDE8704037A10320FFF72F
:102DF00089BDBFF34F8F42480168424A01F4E06148
:102E000011430160BFF34F8F00BFFDE7500000206A
:102E10004E52465F5057525F4D474D543A494E46C9
:102E20004F3A53687574646F776E2073746172746F
:102E300065642E20547970652025640D0A00000019
:102E4000BC0200204E52465F5057525F4D474D54D2
:102E50003A494E464F3A5379734F66662068616E21
:102E6000646C657220307825303858203D3E2072E1
:102E7000656164790D0A00004E52465F5057525FFB
:102E80004D474D543A494E464F3A4D6178696D75FC
:102E90006D204350552075736167653A202575256F
:102EA000250D0A004E52465F5057525F4D474D5414
:102EB0003A5741524E494E473A53687574646F779A
:102EC0006E0D0A00000500404E52465F5057525F9B
:102ED0004D474D543A494E464F3A5379734F6666C3
:102EE0002068616E646C6572203078253038582017
:102EF0003D3E20626C6F636B696E670D0A000000D7
:102F00000CED00E00400FA052DE9F84F1D4C0025FA
:102F10006846D4E901A6FEF7BBFD002738B30023BD
:102F2000009A61681CE0D1F800C00846944503D9B6
:102F3000ACEB02020A6015E0A2EB0C0263440760EE
:102F4000D0F80CC0C1698146BCF1000F08D006EB77
:102F5000030828F07F48C0E9018CC9F81C500546D9
:102F60000029E0D128466160FEF75EFE03E02846B6
:102F7000FEF75AFE10B15046FEF7DCFCE770BDE8E4
:102F8000F88F0000380000200D4B10B5596831B1A2
:102F900002680C68A24204D8A21A0A60C161586093
:102FA00010BD0B4603E00B46C969121B21B10C682A
:102FB0009442F8D3A41A0C600260C161D86110BDBC
:102FC000380000202DE9F041144E77683D462C462C
:102FD00003E0844204D02546E469002CF9D11BE0CB
:102FE000D4B1A5420BD1F869706040B90C490120F9
:102FF00088600021B160F0702F20FEF7E1FE2168AB
:10300000E069E86110B102681144016070688742AC
:1030100002D00120BDE8F0810020FBE7380000204D
:1030200000100140F8B5064600240D462046FEF784
:10303000B7F8684600F098F968B10570084946602D
:103040009DF8000048700020FEF7ACF81420FDF752
:1030500091FA2046F8BD04240020FEF7A3F8F8E713
:10306000900100202DE9F041194D6C68002C2CD006
:10307000184800270068A968B846401A20F07F4623
:103080002068B0420CD82146361A0744E469087C0F
:1030900020B181F81080886949698847002CEFD1F8
:1030A00029786878814206D1401CC0B26870022835
:1030B00001D185F80180064869780C3040F821700C
:1030C000BDE8F0411420FDF755BABDE8F0810000DD
:1030D000380000200415014010B5144602004FF0DE
:1030E00001000CD00846136806A24FF48071FDF76A
:1030F00011FC01462046BDE81040FEF785BB0021CB
:10310000216010BD5B253038645D000070B50C4651
:1031100005464FF48E71FFF769FDA18AA068415CF6
:10312000A08A401CA082C5F81C1570BD1FB50022E6
:103130008DF800208DF80810816801918275D0E922
:103140000012684690471FBD0078012801D101494F
:1031500088707047640000202DE9FF470C46054643
:103160004FF40071FFF748FD01274FF40178002666
:1031700018B34FF4927949462846FFF732FDE0B183
:1031800049462846FFF732FDC5F80883A07E00B9FE
:103190006F6002208DF80000D5F88004C5F8800427
:1031A0000390E07D8DF80800E0680190E6752676D2
:1031B000D4E900126846904727E004212846FFF72B
:1031C0001BFD10B34FF484712846FFF70AFDE0B1F0
:1031D00021462846FFF794FDE07D617E884214D1A8
:1031E000207E38B1617EE268E0752069E060267675
:1031F000667607E0A07E00B96F60C5F80883E675C3
:10320000617EE2682046FFF794FD4FF48E784146D8
:103210002846FFF7E6FC88B1A08AA17D884204D247
:1032200021462846FFF772FF08E041462846FFF78F
:10323000DDFCA17D11B12046FFF778FF4FF4A278A5
:1032400041462846FFF7CDFC002812D041462846CB
:10325000FFF7CCFCA07E00B12F60E07D002808D0F5
:10326000E675617EE26804B02046BDE8F047FFF7EE
:1032700060BDBDE8FF872DE9FF410C464FF4927712
:1032800005463946FFF7BEFC0026C0B13946284640
:10329000FFF7BDFC02208DF80000D5F88004C5F8CA
:1032A00080040390D5F83C058DF80800E068019093
:1032B000E6752676D4E900126846904724E04FF47C
:1032C000887739462846FFF79DFCE8B139462846FD
:1032D000FFF79DFCD5F83C05C1B2E07D884213D1D3
:1032E000207E60B1E268D5F8000220F02000C5F829
:1032F0000002207EE0752069E060267601E0E67538
:10330000E2682046FFF715FD4FF4A27739462846BC
:10331000FFF778FC68B139462846FFF778FCE07D76
:1033200038B1E675D5F83C05E268C1B22046FFF732
:1033300000FD4FF4907631462846FFF763FC0028E5
:103340000FD031462846FFF762FCA07D002808D048
:10335000D5F84C0504B0C1B22046BDE8F041FFF7F6
:10336000E5BEBDE8FF8100000A494A788B78521C0F
:10337000D2B2934200D100220B78934201D10020B7
:1033800070470270487800EB400001EBC000001D60
:103390007047000090010020111213140D0E0F1041
:1033A0007800002098000020C40000200D000300D9
:1033B000691300000E000300691300000F000300F2
:1033C00069130000100003006913000000000050A2
:1033D0007001002003000000F8340000FC340000FD
:1033E00000000000000000000000000000000000DD
:1033F0009C020020D8330000F033000004000000DD
:10340000FFFFFFFFFFFFFFFFFFFFFFFFFFFFFFFFCC
:1034100000000000000000000000D60107010000CD
:103420002900000001000000010000000100000070
:103430000100000001000000010000000100000088
:1034400002000000004040404040404040404141B8
:103450004141414040404040404040404040404069
:103460004040404040050202020202020202020203
:103470000202020202202020202020202020200200
:103480000202020202029090909090901010101090
:10349000101010101010101010101010101010102C
:1034A00002020202020288888888888808080808C0
:1034B000080808080808080808080808080808088C
:1034C0000202020240000000453400004F7665729F
:1034D000666C6F770D0A0000FC34000000000020CD
:1034E000780000003C0900007435000078000020DE
:1034F000682700004C090000290F000000000000B0
:1035000000000000000000000000000000000000BB
:1035100000000000000000000000000000000000AB
:10352000000000000000000000000000000000009B
:10353000000000000000000000000000000000008B
:10354000000000000000000000000000000000007B
:10355000000000000000000000000000000000006B
:10356000000000000020004000000000CC340000FB
:043570000090D003F4
:0400000500000201F4
:00000001FF
