:020000040000FA
:10000000382A0020E5020000ED020000B1020000E5
:10001000F1020000F3020000F50200000000000001
:10002000000000000000000000000000F7020000D7
:10003000F902000000000000FB020000FD020000C9
:10004000AB060000FF020000C9080000FF0200002C
:10005000FF020000FF02000009040000FF02000090
:10006000FF020000FF020000FF020000FF0200008C
:10007000FF020000FF020000FF020000FF0200007C
:10008000FF020000B9060000FF020000FF020000AE
:10009000DD060000FF020000FF020000FF0200007A
:1000A000FF020000FF020000FF020000FF0200004C
:1000B000FF020000FF02000000000000000000003E
:1000C000FF020000FF020000FF020000FF0200002C
:1000D000FF020000FF020000FF020000E508000030
:1000E000FF020000FF020000FF020000FF0200000C
:1000F00000000000FF0200000000000000000000FF
:1001000000000000000000000000000000000000EF
:1001100000000000000000000000000000000000DF
:1001200000000000000000000000000000000000CF
:1001300000000000000000000000000000000000BF
:1001400000000000000000000000000000000000AF
:10015000000000000000000000000000000000009F
:10016000000000000000000000000000000000008F
:10017000000000000000000000000000000000007F
:10018000000000000000000000000000000000006F
:10019000000000000000000000000000000000005F
:1001A000000000000000000000000000000000004F
:1001B000000000000000000000000000000000003F
:1001C000000000000000000000000000000000002F
:1001D000000000000000000000000000000000001F
:1001E000000000000000000000000000000000000F
:1001F00000000000000000000000000000000000FF
:10020000DFF80CD000F0EEF800480047E5230000CE
:10021000382A002030B4044654E8000F0D4644E864
:100220000053002BF8D1156030BC704730B4044641
:1002300054E8000F40EA010544E80053002BF7D1D1
:10024000156030BC704730B4044654E8000F00EA33
:10025000010544E80053002BF7D1156030BC70470E
:1002600030B4044654E8000F80EA010544E8005326
:10027000002BF7D1156030BC704730B4044654E809
:10028000000F00EB010544E80053002BF7D1156087
:1002900030BC704730B4044654E8000FA0EB0105B1
:1002A00044E80053002BF7D1156030BC70470000C4
:1002B000094B1EF0040F1CBFEFF309801847EFF342
:1002C00008800649064A884201D8904202D88D46E5
:1002D0004FF0000018470000CD050000382A00202C
:1002E000380A00200648804706480047FEE7FEE738
:1002F000FEE7FEE7FEE7FEE7FEE7FEE7FEE7FEE7D6
:10030000E1060000010200002DE9F05F0546002033
:1003100092469B4688460646814640241BE0284676
:1003200041464746224600F04CF853465A46C01A0A
:10033000914110D311461846224600F016F82D1AA6
:1003400067EB01084F4622460120002100F00DF81E
:1003500017EB00094E41201EA4F10104DFDC4846E2
:1003600031462A464346BDE8F09F202A04DB203A66
:1003700000FA02F1002070479140C2F1200320FAF8
:1003800003F319439040704700487047B05A00008B
:1003900040EA01039B0703D009E008C9121F08C007
:1003A000042AFAD203E011F8013B00F8013B521E87
:1003B000F9D27047421C10F8011B0029FBD1801AAA
:1003C0007047202A04DB203A21FA02F0002170470E
:1003D00021FA02F3D040C2F12002914008431946AD
:1003E00070470000064C074D06E0E06840F001034E
:1003F00094E8070098471034AC42F6D3FFF704FFA7
:10040000D85B0000F85B00002DE9F04F00268FB0AC
:10041000DFF8B081B14602964FF48075012437466B
:100420000396284603F06AFD38B1D8F80403204249
:1004300003D0284603F058FD26432D1D64007F1C81
:10044000ADB2082FEDD34FF4BE74204603F056FD35
:1004500048B1204603F048FD46F0004602AA0221BA
:10046000002003F007FD584C16F0FF0F15D00127B0
:10047000002537420DD008EB8501D1F81005D1F8E1
:100480001015C0F3052054F82520C1F3014102B135
:1004900090477F006D1C082DEBD3002E7DDA0020E5
:1004A000CDF82890411E0DF1080B08AACDF82C902C
:1004B00042F82010401C91460228F9D300252E4610
:1004C000A01910F8607F90F9000027F0C008401CC8
:1004D00049D008A9404602F069F888B34FEA971A54
:1004E000404601F015FC54F820701FB1BAF1030F1B
:1004F00003D00FE0BAF1030F35D10AA84FEAD802B2
:1005000008F00703815C4FF0010C0CFA03FC41EA90
:100510000C01815406A8CDF8188003F01BFC069945
:1005200000EB8100D0F8000702A9C0F3014006905B
:10053000404602F03BF80028069802D0022802D07C
:1005400011E003280FD1BAF1030F08D10698022851
:1005500032D00221404603F0B0FB6D1CEDB217B162
:1005600051464046B847761C042EA9D3002D20D012
:1005700004AA0221002003F07DFC00205A4604A9B1
:1005800052F8206051F82030B34217D000200AAE54
:100590004FEA090351F8207000E00AE042F82070A9
:1005A00056F8207043F82070401C0228F2D3002D2A
:1005B00084D10FB0BDE8F08F0321CBE7401C0228A7
:1005C000DED3F6E700600040100100200446826997
:1005D00009A1012003F0C8FE03F0FAFD03F0FCFDC1
:1005E0000028FBD10D4804600D480068C00700D00A
:1005F00000BE204600F016F8484152444641554C92
:10060000543A4552524F523A486172646661756C71
:10061000742050433A25780D0A000000780000202D
:10062000F0ED00E0BFF34F8F05480168054A01F483
:10063000E06111430160BFF34F8F00BFFDE7000091
:100640000CED00E00400FA0500F01F0201219140CA
:100650004009800000F1E020C0F88012704700F0EF
:100660001F02012191404009800000F1E020C0F804
:100670000011704700F01F020121914040098000E5
:1006800000F1E020C0F8001270474907090E002869
:1006900006DA00F00F0000F1E02080F8141D70472A
:1006A00000F1E02080F80014704710B502F028F93E
:1006B000BDE8104002F0CEBA07480021C0F8401152
:1006C000C0F84411C0F84811C0F84C11C0F800112E
:1006D000C0F8041104F0EEBA0010014004F03CBA76
:1006E00030B54FF080500022D0F830110123082996
:1006F00002D1D0F8344114B1082909D00BE04FF0F1
:100700008041C1F80C21C1F8102161490A6005E05F
:10071000D0F8344114B1082957D059E05D4909682F
:100720005D4C21605B49091D0968241D2160594900
:1007300008310968241D216056490C310968241DBF
:100740002160544910310968241D21605149143138
:100750000968241D21604F49183109684E4C203426
:1007600021604C491C310968241D21604949203110
:100770000968241D2160474924310968241D21602E
:10078000444928310968241D216042492C310968F7
:10079000241D21603F49303109683F4C40342160BD
:1007A0003C4934310968241D21603A4938310968CF
:1007B000241D216037493C310968241D21603549D9
:1007C00040310968241D216005E0D0F8344114B19E
:1007D000082904D006E0324C3049216005E0D0F809
:1007E000344114B1082904D006E02E4CFB212160CD
:1007F00005E0D0F8344114B1082908D00EE090F893
:1008000058422948016864F30301016002E0D0F80E
:10081000340118B925494FF4007008602448016874
:1008200041F470010160BFF34F8FBFF36F8F4FF042
:100830001021D1F80002002803DBD1F804020028BF
:1008400022DA1C4C23601C480368002BFCD01223C6
:10085000C1F800320568002DFCD0C1F804320168EF
:100860000029FCD0226001680029FCD0BFF34F8F23
:100870000F487C380168114A01F4E06111430160BE
:10088000BFF34F8F00BFFDE70E490D48086030BD34
:10089000380500400404001020C5004048810300D2
:1008A0008C56004018F50040E40E0040409602408F
:1008B00088ED00E004E5014000E401400400FA0591
:1008C0000090D0038C0000200448017F04480029D8
:1008D000024901D004F0F7BA04F066BA78010020AA
:1008E000002000402DE9F05F5248D0F80453002466
:1008F0002E464FF0010913E096FAA6F0B0FA80F701
:10090000B80000F58070804603F086FF28B14046AD
:1009100003F08AFF09FA07F0044309FA07F0864357
:10092000002EE9D1444A9078F0BBA00264D5434937
:1009300040F2A978C1F80080081D036813F0FF0C8D
:1009400002D0036803EA0C0C40F2AA7AC1F800A0B6
:10095000036813F0FF0301D00668334040F2AB7B1D
:10096000C1F800B0066816F0FF0601D007683E40E7
:1009700040F2AC770F60076817EA0C0709D0D2F88D
:1009800010C04CEA070CC2F810C0C1F80080076024
:10099000076840F2AD770F6007681F4009D0136900
:1009A00043EA0743136100E026E0C1F800A00760B6
:1009B000036840F2AE730B60036833400BD0DE0770
:1009C00001D044F40004DE0601D544F00104C1F86E
:1009D00000B003600068106930F0011102D005F02A
:1009E00080710C4310F0011F06D0690504D520F07A
:1009F000011044F480641061C4F3C05624F4000470
:100A00004F46DFF83C8009E094FAA4F0B0FA80F594
:100A100058F82500804707FA05F08443002CF3D1ED
:100A200004F0CAFA002E03D0BDE8F05F00F05CB815
:100A3000BDE8F09F007002402C00002000780240CA
:100A4000405900007047000070B5144908680860FC
:100A5000BFF36F8FBFF34F8FBFF36F8FBFF34F8F16
:100A60000F490A6922F00114044302F00110012623
:100A700008610CE094FAA4F0B0FA80F5284600F082
:100A8000EEFD06FA05F18C43294604F02BFC002C00
:100A9000F0D1BDE8704004F08FBA00006C740240E1
:100AA0002C000020F8B50D480468204603F0C8FE6D
:100AB000BFF36F8FBFF34F8F094D0A4EE00504D58A
:100AC000686A0090716868468847A00504D5A86ADE
:100AD0000090716868468847F8BD000000740240C5
:100AE000105900002C000020F8B51E48D0F8001264
:100AF00021F00401C0F800121B4800681B4DC6B26B
:100B0000687801F0EFF9012404FA00F12889EA6815
:100B1000C04380B21043014202D0687804F060FB09
:100B200006F080006870002001F0DCF904FA00F69D
:100B3000802001F0D7F904FA00F006430B48F14396
:100B40000C3001F02DFD802001F0CCF98440A86824
:100B500004430748AC60006A0090696868468847AB
:100B6000F8BD000000700240807402402C0000209C
:100B70001059000010B5054C607801F0B3F901463A
:100B80006078BDE8104004F0ADBB00002C000020F0
:100B900038B5002000900B480068ADF802008820AE
:100BA00001F0A0F9012505FA00F4082001F09AF9F6
:100BB000054985402C43886804438C604968684631
:100BC000884738BD207502402C00002070B50B48C6
:100BD00004680460BFF36F8FBFF34F8F012609E0F5
:100BE00094FAA4F0B0FA80F5284600F038FD06FA31
:100BF00005F08443002CF3D170BD000068740240FE
:100C000038B5064C0020607004F04CFB0448406886
:100C1000009061686846884738BD00002C000020BD
:100C2000105900000C4910B500208870802001F098
:100C30008DF9817B03290ED0006800280BD180201C
:100C400001F050F9012181400348C943BDE810403B
:100C50000C3001F0A5BC10BD2C000020812003F059
:100C60009FBC822003F09CBC832003F099BC8420AD
:100C700003F096BC852003F093BC862003F090BC63
:100C8000872003F08DBC882003F0DEBC38B50F4C04
:100C90000020A07001F05AF9817B032901D000687F
:100CA00018B1BDE8384002F09EBE002001F01AF9EC
:100CB000012181400548C9430C3001F071FC044812
:100CC000C068009061686846884738BD2C000020E5
:100CD00010590000012003F0EFBC022003F0ECBC2F
:100CE000032003F0E9BC042003F0E6BC052003F078
:100CF000E3BC062003F0E0BC072003F0DDBC0000ED
:100D000038B5104D00200824A870204601F01EF9C7
:100D1000817B032914D00068002811D1204601F0FE
:100D2000E1F801218140C94305F10C0001F038FCD4
:100D30000548406900908DF8024069686846884718
:100D400038BD00002C000020105900000FB41CB565
:100D50000A46521ECDE9000207A9054B6A460698CD
:100D600000F018F8009A002111701CBC5DF814FB0B
:100D7000F711000002E008C8121F08C1002AFAD1CA
:100D800070477047002001E001C1121F002AFBD10B
:100D9000704700002DE9FF4F8DB00F460546002635
:100DA00006E025280BD0DDE90F1290476D1C761C5C
:100DB00028780028F5D111B03046BDE8F08F002426
:100DC000A246A1460122EC4900E0044315F8013F88
:100DD000203B02FA03F00842F7D128782A2810D0E5
:100DE0006FF02F022878A0F13001092914D80AEBFE
:100DF0008A0102EB410144F0020400EB010A6D1C80
:100E0000F0E701CF5FEA000A03D544F40054CAF1C9
:100E1000000A44F002046D1C28782E2817D115F81A
:100E2000010F44F004042A280ED06FF02F02287816
:100E3000A0F1300109290AD809EB890102EB41012F
:100E400000EB01096D1CF2E757F8049B6D1C287834
:100E50006C280FD006DC4C2817D068280DD06A28E3
:100E600014D104E0742810D07A280FD10DE044F496
:100E700000140AE044F4801401E044F4401469785A
:100E8000814202D104F580146D1C6D1C2A786E2AF3
:100E90001FD00CDC632A31D004DC002A8BD0582A06
:100EA00011D1A3E0642A68D0692A0CD165E0732AC5
:100EB0002ED004DC6F2A73D0702A04D19BE0752AEF
:100EC0006FD0782A6ED01046DDE90F129047761C5D
:100ED00050E1C4F30250022806D0032809D00428A8
:100EE00001CF09D0066045E101CFF117C0E90061EB
:100EF00040E101CF06803DE106703BE117F8040BAD
:100F00008DF8000000208DF80100EB46012003E081
:100F100057F804BB4FF0FF3061074FF0000102D4D7
:100F20000DE008F10101884649450FDA8045F8DBFC
:100F30001BF808100029F4D108E008F101018846E7
:100F40008142FADB1BF808100029F6D1DDE90F23F6
:100F5000AAEB08008146214600F036F9304400EB48
:100F6000080604E0DDE90F121BF8010B9047B8F109
:100F70000108F7D221464846F7E00A21C4F302539C
:100F80004FF0000B0891022B04D001CFC117032BA7
:100F900009D00AE0FF1D27F00707F7E8020108E083
:100FA00032E01FE020E000B2C117042B01D140B2B3
:100FB000C117031E71F1000307DA4FF0000CD0EBEC
:100FC0000C006CEB01012D2302E0230504D52B233B
:100FD0008DF82430012303E0E30701D02023F7E755
:100FE000984658E00A2110E010210EE010204FF042
:100FF000000B08900CE010214FF0000B44F00404AB
:101000004FF00809089103E008214FF0000B089108
:10101000C4F30253022B04D001CF0021032B06D0CE
:1010200006E0FF1D27F00707F7E8020103E080B2A2
:10103000042B00D1C0B24FF0000823072BD5702A33
:1010400007D0DDF820C08CF0100C5CEA0B0C05D04A
:101050000EE040238DF82430012308E050EA01031C
:1010600006D030238DF824308DF8252002239846B1
:10107000DDF820C08CF0080C5CEA0B0C0BD150EAB8
:10108000010301D1630706D530238DF824304FF0DA
:101090000108A9F10109582A04D038A20B9208AA24
:1010A0000A920BE03AA2F9E75B46089AFFF72CF99F
:1010B0000B9B9B5C0A9A521E0A92137050EA010223
:1010C000F2D10A98ADEB000000F1200B600702D5C9
:1010D00024F4803401E04FF00109D94502DDA9EB89
:1010E0000B0000E0002000EB0B0141440890AAEB4C
:1010F000010AE00306D4DDE90F232146504600F043
:1011000063F806444FF0000908E009A911F8090046
:10111000DDE90F12904709F10109761CC145F4DBA6
:10112000E0030CD5DDE90F232146504600F04CF8D2
:10113000064404E0DDE90F1230209047761C089940
:10114000481E08900029F5DC08E00A980A99007802
:10115000491C0A91DDE90F129047761CBBF1000192
:10116000ABF1010BF1DC21465046DDE90F2300F025
:1011700019F806446D1C1BE6092801003031323392
:1011800034353637383961626364656600000000C3
:1011900030313233343536373839414243444546AD
:1011A000000000002DE9F041044600251E461746C8
:1011B000880404D405E039462020B0476D1C641E25
:1011C000F9D52846BDE8F0812DE9F0410446002517
:1011D0001E469046C80301D5302700E0202788042A
:1011E00004D505E041463846B0476D1C641EF9D56C
:1011F0002846BDE8F0814A68002A06D00A68531CD8
:101200000B6010704868401E48607047022000F074
:1012100075BA000070B50A4D686818B909A1902028
:1012200000F012FA002406E06868012110F834008A
:1012300001F0CAFB641C28788442F5D3002070BDFD
:10124000400000202E2E5C2E2E5C2E2E5C2E2E5C5E
:101250002E2E5C2E2E5C636F6D706F6E656E7473D8
:101260005C6C69627261726965735C627574746FDB
:101270006E5C6170705F627574746F6E2E630000D7
:10128000F8B515460C460646052A01D20720F8BDDA
:1012900001F09EFC18B901F06DFC0028F7D111494E
:1012A00000224E600C708D60C1E90422C1E9062263
:1012B0000D4D0DE006EBC4006968009181788DF852
:1012C00001100078094A694601F0DEFB0028DED1F2
:1012D000641EE4B2EED2BDE8F840054A002102489F
:1012E00000F064B840000020E0590000E51F000055
:1012F000F51D000070B50D460646144608A10120F4
:1013000003F00CF802F064FF02F066FF0028FBD146
:10131000224629463046BDE8704000F015B800006E
:101320003A4552524F523A466174616C0D0A0000C0
:101330000EB5ADF80010CDE901206A46002144F257
:101340000100FFF7D7FF0EBD08B501238DF800306F
:101350009DF80030144B186059609A606FF480411A
:10136000401807D001280FD1DA60D868008898614A
:10137000D86807E01A6118698068586118690088A0
:10138000986118694068D861186858689868D86882
:10139000186958699869D86972B600BF9DF800004D
:1013A0000028FBD162B608BDF0030020074B9B78F4
:1013B00023B12AB120B10068037C1BB1082070471B
:1013C00007207047417442610020704710040020DC
:1013D00070B503F061FB104800240B2104704470C9
:1013E0000E4D817014206C602C706C70FFF72CF91E
:1013F00007211420FFF749F91420FFF730F90848B6
:10140000046007211120FFF740F90548001F00681C
:10141000A860002070BD00001004002060000020C3
:10142000081501402DE9F843DFF8709099F8023073
:101430005BB350B3052902D20720BDE8F8834369A6
:101440001BB3437C012B22D000270446002588468D
:101450001646284600F036F8684604F0A7F9C0B1F1
:10146000012101700E4944600968C0E90218C0E911
:1014700004769DF8000089F80100002000F050F883
:101480001420FFF7F7F82846D7E70820D5E70F46DE
:10149000DBE70425002000F043F8F4E71004002007
:1014A000041501400649897839B130B1416921B14B
:1014B00000210174022103F0DDBB08207047000009
:1014C0001004002010B503F0A3FA012803D004A1F2
:1014D0001D2000F0B9F8BDE8104000F04FB8000042
:1014E0002E2E5C2E2E5C2E2E5C2E2E5C2E2E5C2E36
:1014F0002E5C636F6D706F6E656E74735C6C696289
:101500007261726965735C7574696C5C6170705F3F
:101510007574696C5F706C6174666F726D2E6300B8
:1015200010B503F075FA012803D004A12B2000F0B8
:101530008BF8BDE8104000F029B800002E2E5C2E7C
:101540002E5C2E2E5C2E2E5C2E2E5C2E2E5C636F5F
:101550006D706F6E656E74735C6C696272617269D6
:1015600065735C7574696C5C6170705F7574696CCF
:101570005F706C6174666F726D2E630072B60248A4
:101580000168491C01607047740000200349086825
:10159000401E086000D162B6704700007400002051
:1015A00070B5054608680C46411C04D002F045FCA5
:1015B000206802F078FB6068411C02D0002102F034
:1015C00069FB28791F4901EB40102968007F00283A
:1015D000A069C1F8240523D0607D227D29681043CD
:1015E000C1F86C05D4E900122868C0F80C15C0F8E1
:1015F000142522E0A068411C02D0002102F04AFB21
:10160000E068411C04D002F018FCE06802F04BFBDB
:10161000D4E902122868C0F80825C0F8101570BD7A
:10162000607D217D2A680843C2F86C05D4E9001268
:101630002868C0F81425C0F80C15207D0128D9D0E1
:1016400070BD0000780100201CB56A46ADF80000AE
:101650000191002144F20200FFF74CFE1CBD10284E
:1016600002D31038C0B2704740F0800070470000CD
:1016700038B50446042803D30AA15D20FFF7E4FF30
:101680001448005D0090684602F030FBD0F8100569
:101690000099C84010F0010000D0012080F0010046
:1016A00038BD00002E2E5C2E2E5C2E2E5C2E2E5C65
:1016B0002E2E5C2E2E5C636F6D706F6E656E747374
:1016C0005C626F617264735C626F617264732E63DB
:1016D00000000000D45800007CB50024064E2546CA
:1016E0000022305D032300951146019502F07EFA39
:1016F000641C042CF4D37CBDD458000038B50446D7
:10170000042803D30BA13620FFF79EFF1548005D88
:101710000090684602F0EAFAD0F80425009B012107
:10172000994021EA0203C0F808351140C0F80C15B1
:1017300038BD00002E2E5C2E2E5C2E2E5C2E2E5CD4
:101740002E2E5C2E2E5C636F6D706F6E656E7473E3
:101750005C626F617264735C626F617264732E634A
:1017600000000000D058000010B50446042803D340
:1017700005A11E20FFF768FF0F480121005DBDE8AD
:10178000104002F064BB00002E2E5C2E2E5C2E2E2C
:101790005C2E2E5C2E2E5C2E2E5C636F6D706F6E39
:1017A000656E74735C626F617264735C626F6172A8
:1017B00064732E6300000000D058000010B504468A
:1017C000042803D305A11820FFF73EFF0F4800218E
:1017D000005DBDE8104002F03ABB00002E2E5C2EEA
:1017E0002E5C2E2E5C2E2E5C2E2E5C2E2E5C636FBD
:1017F0006D706F6E656E74735C626F617264735C42
:10180000626F617264732E6300000000D0580000A4
:1018100038B50446042803D30AA11120FFF714FFAA
:101820001448005D0090684602F060FAD0F80405A4
:101830000099C84010F0010000D0012080F00100A4
:1018400038BD00002E2E5C2E2E5C2E2E5C2E2E5CC3
:101850002E2E5C2E2E5C636F6D706F6E656E7473D2
:101860005C626F617264735C626F617264732E6339
:1018700000000000D05800007CB50024084E25462A
:101880000122305D009500231146019502F0AEF96A
:10189000641C042CF4D3BDE87C4000F003B80000C5
:1018A000D058000010B500242046FFF75DFF641CEF
:1018B000042CF9D310BD10B500242046FFF77EFF9D
:1018C000641C042CF9D310BD10B50246064B4FF032
:1018D000FF3000215C5C944201D1084610BD491CD8
:1018E0000429F7D310BD0000D45800002DE9F047BB
:1018F0000D468146FFF7E8FF0446042836D2DFF89C
:1019000074801B481C4EA8F10C0725B3012D0ED086
:10191000022D2BD104EB440030444578002D25D016
:10192000B968002922D02846BDE8F047084704EBF3
:101930004401755C0E44717849B10E4A4FF4004180
:10194000093A8068FFF76EFD08B987F80390B1780F
:1019500008F80410E2E78068FFF7A4FD04EB4401F7
:10196000314418F804008D78A842D7D0BDE8F0873C
:10197000D858000018000020D000002070B50023C7
:10198000042810D20D4D00EB4004012A02D1012998
:101990000CD00022094E00EB4000304461B1012917
:1019A00006D0022906D00723184670BD0E30C2B2F9
:1019B0002A55F9E74270F7E78270F5E7D00000207A
:1019C0000C2802D101490120C87070470000002096
:1019D00070B506461E480024C0E90161B00720D555
:1019E0000025012211462846FFF7C8FF6D1C04465A
:1019F000042D02D2002CF4D013E094B940F26662B8
:101A000004211448FFF73CFC04000AD1FFF702FC54
:101A1000040006D10F48104A0021001FFFF7C6FC42
:101A20000446F00701D0FFF727FF74B909480B4AB5
:101A300000210C38FFF7BAFC040006D10548084A1B
:101A400001210838FFF7B2FC0446204670BD0000B3
:101A50000C000020E4580000A51C000085210000B7
:101A60000D1200002DE9F05F6A4C054600266078F3
:101A7000B34618B184F801B000F06CFB664F4FF428
:101A80007A694FF4C87A4FF00108182D62D2DFE866
:101A900005F0AC0C0C31404D62676B746B74BE7D0D
:101AA0007D7D7D7DACAFB2B5BEBE0020FFF7B0FE40
:101AB00000284FF0000008D0FFF756FE022D02D19B
:101AC0004FF4E16008E0484606E0FFF777FE022D9C
:101AD00001D1C82000E05046410CC0034FF4FA7217
:101AE000801841F10001257052000023FEF70CFC24
:101AF00001462AE00020FFF78BFE00284FF000008F
:101B000004D0FFF731FE4FF44870E5E7FFF756FECB
:101B1000DFE70020FFF77CFE00284FF0000002D036
:101B2000FFF722FECFE7FFF749FED4E70020FFF7DB
:101B30006FFE00284FF0000002D0FFF715FE01E015
:101B4000FFF73CFE257041F69A1100223868FFF736
:101B500069FC064646E00020FFF7D0FD257008E04E
:101B6000002051E025703DE084F801800120FFF75E
:101B7000C5FD002240F6CD41E8E784F80180012050
:101B8000FFF7BCFD00224FF48041DFE77868FFF7E4
:101B900089FC0646D5F1110000D02EB10220FFF7D6
:101BA000E3FD84F802B01DE0012816D980B2C821F7
:101BB0004843C117C90341EA5041C0034FF4FA72C8
:101BC000801841F1000152000023FEF79DFB014601
:101BD00000227868FFF726FC06460220FFF7EEFD9C
:101BE00084F802803046BDE8F09F00F0B3FAB9E710
:101BF00000F0B0FAB4E700F0ADFA04E000F0AAFAA1
:101C00000020FFF7DBFD0120FFF7D8FDAAE7FFF773
:101C100052FEA7E70C000020D8580000002901DA86
:101C200000207047026811440160012070470000E5
:101C300070B5461C0D4601240020FFF743FC114AF5
:101C400010682860D2E900109568081A2B1A701CD9
:101C50005B1C98420FD963B10B480C4B29400068BC
:101C60001B6802EB810163F39F20C8601068401C71
:101C70001060002401E0881910600020FFF750FC7C
:101C8000204670BD1C060020085A00008800002075
:101C9000034803C8814201D10120704700207047EA
:101CA0001C06002000780221FFF720BE05494FF0F6
:101CB000FF32082841F8202002D3084480F8582039
:101CC0007047000010010020F0B54FF0FF3512B151
:101CD0000023082601E008230C260C4C05E000BF79
:101CE00054F823707F1C04D05B1CB342F8D3284601
:101CF000F0BD26185DB286F8305044F82310002A53
:101D0000F5D1E11881F85800F1E70000100100203A
:101D10000249084490F9300070470000100100208B
:101D200070B5084C050009D010342168002907D08F
:101D300008682060496828468847F6E70834F4E7D1
:101D400070BD0000FC0000202DE9F05F26484168CE
:101D5000F1B3DFF898B00E688146DBF80040876881
:101D60008078E11B21F07F45ED1CB0B9DFF8808061
:101D70004FF48030C8F84403C8F804031120FEF77C
:101D800063FC1120FEF76BFC4FF0010AC8F800A0BD
:101D90002F2000F031FC89F802A0B54200D2354670
:101DA000124BE8193C3320F07F401860DBF800103C
:101DB0005A46091B21F07F41001B20F07F40C91CBF
:101DC00081420FD9106818602F2000F015FC00E048
:101DD00004E0BDE8F05F1120FEF74CBCBDE8F05F09
:101DE00002F05ABEBDE8F09F6000002004150140DB
:101DF000001001402DE9F05F0025DFF8A48043E0EA
:101E00006068002100EBC506012032789146FEF79C
:101E1000ACFAD4E9062300EA020701EA030C57EA08
:101E20000C072FD0C7433A408B434846C4E90623EA
:101E300000F08EFE32784FF0000A81469346012072
:101E40005146FEF792FAD4E9042300EA020401EABB
:101E500003075A4648465146FEF787FA44404F402A
:101E60003C430FD17078012815D0002289EA020086
:101E70008AEAE271084310D00020726812B1C1B240
:101E8000584690476D1CEDB298F8000044468542D4
:101E9000B6D3BDE8F09F0122E8E70120EDE700009E
:101EA000400000200E4910B50A784C780023A24269
:101EB00012D0521CD2B20A70022A00D10B70084A0A
:101EC0000B780C3252F8232002608868104420F00E
:101ED0007F408860012010BD0360002010BD00001D
:101EE0006000002010B50446010600F00F0009282C
:101EF00004D306A14FF42470FFF7A6FB6FEA046039
:101F0000C10F204661F31F1010BD00002E2E5C2E65
:101F10002E5C2E2E5C2E2E5C2E2E5C2E2E5C636F85
:101F20006D706F6E656E74735C64726976657273E2
:101F30005F6E72665C757362645C6E72665F64721B
:101F4000765F757362642E630000000070B505460D
:101F5000000605F00F0402D5092C09D301E0092C75
:101F600008D307A140F27D20FFF76EFB280601D5BC
:101F7000134801E01248903800EB041070BD0000D7
:101F80002E2E5C2E2E5C2E2E5C2E2E5C2E2E5C2E8B
:101F90002E5C636F6D706F6E656E74735C647269D6
:101FA000766572735F6E72665C757362645C6E7286
:101FB000665F6472765F757362642E630000000072
:101FC0002802002010B50446010600F00F00092881
:101FD00004D303494FF41870FFF736FB204610BDB9
:101FE0009C5100002DE9F04180460246012000216D
:101FF000FEF7BBF91A4F05460E463868FFF752FA4E
:1020000000280CD1174CD4E9062110462A4001EAD9
:1020100006031A4305D0A843B143C4E90601BDE84D
:10202000F081404600F094FD30B1D4E9040128432A
:102030003143C4E9040105E0D4E90410A943B043E5
:10204000C4E90410D4E9060128433143C4E9060178
:10205000A1683868BDE8F0410022FFF7E3B900004D
:10206000E05900004000002010B500F097FB20B1BF
:10207000134A40F27531FFF75BF9002000F0C2FD12
:1020800020B10F4A40F27731FFF752F9002000F0FB
:1020900029FB002000F0D6FB00F0F4FA0028FBD06A
:1020A00000F09EFB0028F7D0FFF792F9002806D039
:1020B000BDE81040024A40F28131FFF739B910BD46
:1020C000DC24000070B50E460446007918494FF430
:1020D000A27501EB4010017F2068A1B14FF4887117
:1020E00002F01AFA4FF49071206802F015FA4FF4DA
:1020F0009271206802F010FA2946206802F00CFA6A
:102100000C49206809E04FF48E7102F0F4F9294679
:10211000206802F0F0F908492068C0F8041320682C
:1021200000F04EFC3146BDE8704000F021BC0000DC
:1021300078010020100302008000020002681346AC
:1021400002E08A4204D01268002AFAD10B600160D2
:10215000704700000A4810B5807860B1002401E0A3
:10216000022C06D02046FFF7FFFA641C042CF7D39C
:1021700010BD0324F6E7BDE81040FFF793BB000055
:102180000C00002003480179C90702D00078FFF74E
:1021900069BC70470C0000202DE9F047394E00273C
:1021A00080463D46DFF8E090D6F804A057E003D023
:1021B0000446D0F81C8035E099F8002002EB42017B
:1021C000521CD2B289F8002009EBC10199F8023003
:1021D000091D9A4201D189F8005048680A780446DE
:1021E000012A12D0022A02D0032A3BD108E002F0D1
:1021F00011FD00B10127257434E00574C06900E0C9
:1022000070680028F9D170602CE0207C50BB886891
:102210006060C868A0600869E0604869A061F07803
:1022200000B165606268B168184B501A20F07F40B9
:10223000984202D2A168084406E0881AA16820F0FA
:102240007F40814202D9081A206000E02560656065
:102250000120A56020742046E56102F0BDFCB8F1C4
:102260000000A4D199F8001099F801008142A3D18F
:1022700017B97168514502D00120BDE8F0870020F0
:10228000FBE700006000002010040020FFFF7F003B
:10229000224810B5046822A1032002F03FF81CB9BF
:1022A00025A1032002F03AF8E00703D026A103207D
:1022B00002F034F8A00703D528A1032002F02EF87D
:1022C000600703D529A1032002F028F8200703D5D1
:1022D0002AA1032002F022F8E00303D52CA1032059
:1022E00002F01CF8A00303D52DA1032002F016F87C
:1022F000600303D52FA1032002F010F8200303D5BB
:1023000030A1032002F00AF8E00205D5BDE8104034
:1023100030A1032002F002B810BD0000000400400C
:102320003A494E464F3A526573657420726561733F
:102330006F6E733A0D0A00003A494E464F3A2D200F
:102340004E4F4E450D0A00003A494E464F3A2D2059
:10235000524553455450494E0D0A00003A494E46E5
:102360004F3A2D20444F470D0A0000003A494E468F
:102370004F3A2D20535245510D0A00003A494E461E
:102380004F3A2D204C4F434B55500D0A0000000092
:102390003A494E464F3A2D204F46460D0A0000005E
:1023A0003A494E464F3A2D204C50434F4D500D0A5E
:1023B000000000003A494E464F3A2D204449460D50
:1023C0000A0000003A494E464F3A2D204E46430D32
:1023D0000A0000003A494E464F3A2D2056425553C6
:1023E0000D0A0000FFF740FE3B490220FFF7F0FA1C
:1023F00020B13AA240F28B31FEF79AFF0C22002165
:102400000120FFF7BBFA20B134A240F29131FEF770
:102410008FFF002002F04EF834A1032001F07EFF70
:10242000FFF736FF364908680860364801F072FA4F
:1024300020B12AA240F2D331FEF77AFF40210020DA
:1024400000F0D0FF4021802000F0CCFFFFF714FA0D
:10245000FFF742F90220FFF7B1F90320FFF7AEF9C9
:10246000294800F089FC20B11CA240F2E731FEF7B8
:102470005FFF264CE07888B125A1032001F04EFFD4
:1024800001F0AAFE0028FBD10220FFF76DF903201E
:10249000FFF76AF9254901200860FEE7207850B16E
:1024A0000020FFF7E5F898B121A1032001F036FFE5
:1024B00000F04AF80CE001F08FFE0028FBD102206A
:1024C000FFF752F920BF40BF20BF0220FFF776F987
:1024D00001F082FECEE70000C11900002E2E5C2E16
:1024E0002E5C2E2E5C6D61696E2E63003A494E465D
:1024F0004F3A48656C6C6F20555342210D0A00001D
:102500000004004025530000EC57000000000020AC
:102510003A494E464F3A476F696E6720746F207391
:10252000797374656D204F46460D0A000005004022
:102530003A494E464F3A202020545820706F696E19
:102540007465720D0A00000013480178002922D03A
:10255000817800291FD1417811F0030106D00129AB
:1025600007D0022908D003290CD108E04FF42061DC
:1025700007E04FF4202104E04FF4764101E04FF4EE
:10258000760181604178491C4170012181700349C5
:10259000812000F0E9BF704700000020C45800000F
:1025A00008B56A46FDF74FFE009808BDC20800F066
:1025B00007030120895C98400840704700F1804083
:1025C0000068002800D00120704708B500F1804065
:1025D000002101600068009008BD000005490968FD
:1025E00040F4803001F00111814201D10120704797
:1025F000002070470C04004000283ED01F49204AAC
:10260000096800BF00BF00BF00BF00BF00BF00BF20
:1026100000BF91422FD000BF00BF00BF00BF00BF6E
:1026200000BF00BF00BF00BF00BF00BF00BF00BFB2
:1026300000BF00BF00BF00BF00BF00BF00BF00BFA2
:1026400000BF00BF00BF00BF00BF00BF00BF00BF92
:1026500000BF00BF00BF00BF00BF00BF00BF00BF82
:1026600000BF00BF00BF00BF00BF00BF00BF00BF72
:1026700000BF00BF00BF0138C3D170478C000020ED
:102680000024F400064810B5007820B905A140F2F6
:102690004310FEF7D9FFBDE810400120FFF79EBFB1
:1026A000FC0000202E2E5C2E2E5C2E2E5C2E2E5C2E
:1026B0002E2E5C2E2E5C636F6D706F6E656E747364
:1026C0005C647269766572735F6E72665C636C6F70
:1026D000636B5C6E72665F6472765F636C6F636B74
:1026E0002E63000070B51C4C0546207820B91BA154
:1026F0004FF48A70FEF7A8FF607838B115B16968A9
:10270000002088470020FEF7DDFE13E00020FEF7E2
:10271000D9FE25B1104829460830FFF70FFD606843
:1027200040B94FF48070FFF750FF01208107C1F8D6
:10273000040308606068401C60600020FEF7F0FE43
:102740006068002806D1BDE8704004A14FF498707D
:10275000FEF77ABF70BD0000FC0000202E2E5C2E1C
:102760002E5C2E2E5C2E2E5C2E2E5C2E2E5C636F2D
:102770006D706F6E656E74735C647269766572738A
:102780005F6E72665C636C6F636B5C6E72665F64D7
:1027900072765F636C6F636B2E63000070B50E4CD6
:1027A0000025207808B1852513E00021A160616033
:1027B0002161E1604FF0E020D0F80001012610F027
:1027C000010F03D10721002000F0D2F80348066072
:1027D0002670284670BD0000FC000020180500404F
:1027E000064810B5007820B905A14FF48370FEF7B4
:1027F0002BFF13480068C0F3004010BDFC00002010
:102800002E2E5C2E2E5C2E2E5C2E2E5C2E2E5C2E02
:102810002E5C636F6D706F6E656E74735C6472694D
:10282000766572735F6E72665C636C6F636B5C6E11
:1028300072665F6472765F636C6F636B2E63000019
:102840001804004070B51C4C0546207818B91BA12F
:10285000D720FEF7F9FEA07838B115B169680120DC
:1028600088470020FEF72EFE15E00020FEF72AFE26
:1028700025B1114829461030FFF760FCE06850B9D7
:102880004FF48270FFF7A1FE02204107C1F8040354
:102890001A4901200860E068401CE0600020FEF753
:1028A0003FFEE068002805D1BDE8704003A1F32099
:1028B000FEF7CABE70BD0000FC0000202E2E5C2E6C
:1028C0002E5C2E2E5C2E2E5C2E2E5C2E2E5C636FCC
:1028D0006D706F6E656E74735C6472697665727329
:1028E0005F6E72665C636C6F636B5C6E72665F6476
:1028F00072765F636C6F636B2E63000008000040AC
:102900002DE9F0414FF480773846FFF757FE012458
:10291000104EA50748B13846FFF757FE0120C5F80D
:10292000080374700020FFF7FBF94FF482773846F4
:10293000FFF744FE00280BD03846FFF746FE022082
:10294000C5F80803B470BDE8F0410120FFF7E8B90D
:10295000BDE8F081FC00002000F01F020121914041
:102960004009800000F1E020C0F8801170470000AD
:1029700070B50D460446082903D31049FD20FEF723
:1029800063FE6807000E002C06DA04F00F0101F167
:10299000E02181F8140D03E004F1E02181F8000446
:1029A00004F01F01012088406109890001F1E02144
:1029B000C1F88002C1F8000170BD0000005B00009A
:1029C000000B40B2704700002DE9F0410E468046F2
:1029D000302804D3294940F2FF10FEF735FE404667
:1029E00001F044FF20B925494FF40070FEF72CFE9A
:1029F000404601F045FF224D0028404616D0FFF723
:102A000087F9284490F858008009032802D001284B
:102A10000AD003E0404601F005FA28B10321404600
:102A2000BDE8F04101F049B90221F8E701F034FFB7
:102A3000002820D04046FFF76BF90446114F4FF4B1
:102A4000807007EB840100EB8400D1F8102580B280
:102A500042F00102C1F8102501F046FA002E0AD01A
:102A60004046FFF755F955F82000002803D0012013
:102A7000A040C7F80403BDE8F0810000445B0000FB
:102A800010010020006000402DE9FC4114460E4674
:102A90000546302804D32A4940F2D110FEF7D4FD70
:102AA0000027284601F0E2FE08B1082744E0F2784A
:102AB00021462846FFF708F90446401C3BD0B07871
:102AC00068B16846009501F045F9009900EB810076
:102AD000D0F8001721F00201C0F8001707E000212C
:102AE0007378284600910A46019101F098F8F07831
:102AF000C0B11448317800EB8400D0F81025124B97
:102B00001A40C0F810254FF47C524FF4403302EACB
:102B1000052203EA01410A43D0F810150A43C0F820
:102B2000102509E009483278204410F8581F41EA7E
:102B30008211017000E004273846BDE8FC810000E6
:102B4000445B000000600040FFC0FCFF100100205B
:102B500010B50446302804D305494FF41370FEF72E
:102B600073FD204601F05EF9002800D0012010BD61
:102B7000445B000070B5144D95F8640008B108205E
:102B800070BD0020411E2A18401CC0B282F83010CF
:102B90003028F8D300242046FFF788F8641CE4B2FC
:102BA0000C2CF8D307210620FFF7E2FE4FF4BE708D
:102BB00001F09AF905494FF00040C1F804030120E3
:102BC00085F86400002070BD100100200060004006
:102BD000034890F86400002800D0012070470000EE
:102BE000100100200121B1EB507F01D1012070477D
:102BF000002070470121B1EB507F01D101207047C7
:102C00000020704770B5104C217809B1852070BD47
:102C100000B90E480E4A0178C1F3400111600C4919
:102C20000078083900F0010008604FF0E020D0F88B
:102C30000001012510F0010F03D107210020FFF74B
:102C400097FE2570002070BD1C0000200C5900006C
:102C50008005004070B54FF08040D0F80453354CEB
:102C600068070DD54FF4847001F036FC40B1606800
:102C700020B931A14FF4A070FEF7E6FC60688047F0
:102C8000A8060ED54FF48A7001F026FC48B1A06862
:102C900020B929A14FF4A470FEF7D6FCA16800204A
:102CA000884768060ED54FF48C7001F015FC48B1CA
:102CB000A06820B920A140F24F10FEF7C5FCA16822
:102CC0000120884728060ED54FF48E7001F004FCD1
:102CD00048B1E06820B918A14FF4AC70FEF7B4FC1D
:102CE000E16800208847E8050ED54FF4907001F0A8
:102CF000F3FB48B1E06820B90FA140F25F10FEF786
:102D0000A3FCE16801208847A80511D54FF4927013
:102D100001F0E2FB00280BD0E06820B906A14FF4D7
:102D2000B370FEF791FCE168BDE8704002200847EF
:102D300070BD00001C0000202E2E5C2E2E5C2E2E5E
:102D40005C2E2E5C2E2E5C2E2E5C636F6D706F6E73
:102D5000656E74735C647269766572735F6E7266B9
:102D60005C706F7765725C6E72665F6472765F70BE
:102D70006F7765722E63000000B5024600F00EF812
:102D8000106838B10449C8604FF080414FF460705A
:102D9000C1F80403002000BD1C0000204FF080415A
:102DA0004FF46070C1F8080301490020C860704703
:102DB0001C00002010B50446B0F5000F03D30749EE
:102DC0006C20FEF741FC4FF0E020816982698A1A8D
:102DD00022F07F42A242F9D310BD0000885B0000C0
:102DE00070B50B4D04460B4E28680B49B0FBF6F04E
:102DF000B1FBF0F0A04203D208497720FEF724FC93
:102E00002868B0FBF6F06043BDE87040FFF7D2BF22
:102E10008C00002040420F00FFFF7F00885B000015
:102E20004FF0E0206FF07F41416105210161704763
:102E30002DE9F04190460D00064603D118A1E4208B
:102E4000FEF702FC3079264F07EB4014E07E10B10C
:102E50000820BDE8F081687F207729463046FEF7DC
:102E60009FFB5FEA080060602969216003D0297F29
:102E70003046FFF727F9307907EB4010007F002834
:102E8000306801D0082100E00421C0F800150020BE
:102E9000E0752076A0750121E176A076D9E70000E3
:102EA0002E2E5C2E2E5C2E2E5C2E2E5C2E2E5C2E5C
:102EB0002E5C636F6D706F6E656E74735C647269A7
:102EC000766572735F6E72665C756172745C6E7249
:102ED000665F6472765F756172742E630000000035
:102EE000780100202DE9F0470E460179DFF82881AE
:102EF000044608EB41151746E87E012804D047A197
:102F000040F27110FEF7A0FB27B944A14FF4B9704D
:102F1000FEF79AFB26B941A140F27310FEF794FB2D
:102F2000217908EB4110007F18B13046FFF75AFEB7
:102F300030B1204600F092F820B11120BDE8F087B2
:102F40001020FBE7AF750027AE60AF8221793E46C7
:102F500008EB41154FF00108287F0028206825D094
:102F60004FF49079494601F0D7FA4FF4AC7A5146C4
:102F7000206801F0D1FA2068A97DAA68C0F844252C
:102F8000C0F848152068C0F808806868F0B949465C
:102F9000206801F0BCFA80465146206801F0B7FA7B
:102FA00058EA0001F3D058BBAF750FE04FF48E7AAA
:102FB000514601F0A0FA2068C0F808802946206830
:102FC00001F0CCFE69684FF4807089B13046B5E7F6
:102FD0005146206801F08AFA10B9A88A4845F7D10D
:102FE000A88A484505D02946206801F0B7FE00E0D0
:102FF0008146A88AA97D8842EAD3A88A484501D19A
:103000000F26D1E75146206801F070FA0028F9D068
:103010002068C0F80C80C7E7780100202E2E5C2EB7
:103020002E5C2E2E5C2E2E5C2E2E5C2E2E5C636F64
:103030006D706F6E656E74735C64726976657273C1
:103040005F6E72665C756172745C6E72665F6472EC
:10305000765F756172742E63000000000079044988
:1030600001EB4010807D002800D001207047000057
:103070007801002070B5044600791149002601EB63
:10308000401520682A7FC0F80065686888B12079FB
:1030900001EB4010007F0028206801D0094901E0C1
:1030A00008498C39C0F808132068FFF789FCFFF73E
:1030B00053FC204601F0FCFBEE766E6070BD000014
:1030C00078010020100302002DE9F0411D4617464B
:1030D00006460C46AA4204D213A14FF4D470FEF760
:1030E000B3FA206838B1FFF785FD20B90EA140F290
:1030F000A910FEF7A9FA6068A84204D20021716005
:103100002168316007E075602168401B31606060B4
:10311000216829442160AF4203D110B10120BDE8EC
:10312000F0810020FBE700002E2E5C2E2E5C2E2E60
:103130005C2E2E5C2E2E5C2E2E5C636F6D706F6E7F
:10314000656E74735C647269766572735F6E7266C5
:103150005C757362645C6E72665F6472765F7573D1
:1031600062642E630000000010B50D4C207820B979
:103170000CA140F24D60FEF767FA00F0AFFC194970
:10318000D1F80403C1F80803174900200860BFF311
:103190006F8FBFF34F8FA0700120207010BD000013
:1031A0002C0000202E2E5C2E2E5C2E2E5C2E2E5CF3
:1031B0002E2E5C2E2E5C636F6D706F6E656E747359
:1031C0005C647269766572735F6E72665C75736259
:1031D000645C6E72665F6472765F757362642E63A0
:1031E00000000000007002400075024070B5154CF0
:1031F0002078012804D014A140F23460FEF724FAAC
:103200004FF40065284601F01BFB1F4901200860B0
:10321000BFF36F8FBFF34F8F1C4801680905FCD5C2
:10322000284601F00DFB184980201C31086040F24F
:10323000FF10A0600020E060A0706070022020708D
:1032400070BD00002C0000202E2E5C2E2E5C2E2E39
:103250005C2E2E5C2E2E5C2E2E5C636F6D706F6E5E
:10326000656E74735C647269766572735F6E7266A4
:103270005C757362645C6E72665F6472765F7573B0
:1032800062642E630000000000750240007402407A
:1032900070B50546FEF796FE044600F00F000928BB
:1032A00004D30F4940F29240FEF7CEF904F00F012B
:1032B00022064FF0010001D50A4A01E0094A121D19
:1032C0001368884083431360BFF36F8FBFF34F8F42
:1032D000284600F00DF90449C1F8080370BD00004C
:1032E0009447000010750240007002403EB505464C
:1032F000FEF768FE044600F00F00092804D32549B4
:1033000040F28140FEF7A0F904F00F0021064FF0D3
:10331000010401D5204901E01F49091D0A6804FA8A
:1033200000F002430A60BFF36F8FBFF34F8F284650
:1033300000F0DEF81949C1F80403280729D028064F
:1033400027D40020FEF7BEF82846FEF7CBFD8440C8
:10335000134881680C4384602846FEF7F7FD044655
:1033600005F00F0008280DD2002000900190029077
:103370006946284600F0F8F820B10AA140F2BD6085
:10338000FEF762F90320A073BDE83E400020FEF77F
:10339000C7B83EBD9447000010750240007002405F
:1033A0002C0000202E2E5C2E2E5C2E2E5C2E2E5CF1
:1033B0002E2E5C2E2E5C636F6D706F6E656E747357
:1033C0005C647269766572735F6E72665C75736257
:1033D000645C6E72665F6472765F757362642E639E
:1033E0000000000070B50C00054602D0601E0442CB
:1033F00004D011A140F29760FEF726F905F00F0006
:1034000008280CD31C480068C1B2802904D04FF4AE
:103410008060A0420AD204E04FF40070F9E7402C2B
:1034200004D905A140F29960FEF70EF92846FEF78F
:103430008DFD848170BD00002E2E5C2E2E5C2E2E04
:103440005C2E2E5C2E2E5C2E2E5C636F6D706F6E6C
:10345000656E74735C647269766572735F6E7266B2
:103460005C757362645C6E72665F6472765F7573BE
:1034700062642E63000000001C75024010B5FEF768
:10348000A1FD044600F00F00082804D3064940F2CD
:10349000AB40FEF7D9F8054944F480700860BFF3EB
:1034A0006F8FBFF34F8F10BD944700001875024017
:1034B00010B5FEF787FDBDE8104001F05BB80000D5
:1034C00010B5FEF77FFD044600F00F00082804D376
:1034D000054940F2B340FEF7B7F804480460BFF373
:1034E0006F8FBFF34F8F10BD9447000018750240D7
:1034F00070B50546000605F00F0402D5092C09D366
:1035000001E0092C08D307A140F27110FEF79CF8E6
:10351000280601D5134801E012480930015D012059
:10352000884070BD2E2E5C2E2E5C2E2E5C2E2E5CC6
:103530002E2E5C2E2E5C636F6D706F6E656E7473D5
:103540005C647269766572735F6E72665C757362D5
:10355000645C6E72665F6472765F757362642E631C
:1035600000000000CC5900002DE9F0410D46064650
:10357000FEF7B8FC044625B933A140F2D260FEF74D
:1035800063F80020FDF79EFF3F48310704D14178E2
:103590008E4201D010243EE001898046C943C068B4
:1035A00089B201270143A740394201D0112432E0FA
:1035B000304600F0DFFF08B10F242CE03046FEF764
:1035C000C5FC044606F00F00310600EB40002AD58A
:1035D0002E4901EB80062868FFF70CFB0028287AAB
:1035E0004FEAC07004D008B1294803E0294801E03F
:1035F000B8B12948206095E8070086E80700002058
:10360000C4E90160A073D8F80C1004460F43C8F851
:103610000C7001F0C1FF0020FDF782FF2046BDE8DD
:10362000F0811E48E6E719496C3101EB80062868F5
:1036300038B1FFF7DFFA20B903A140F23370FEF78B
:1036400003F81748D6E700002E2E5C2E2E5C2E2E97
:103650005C2E2E5C2E2E5C2E2E5C636F6D706F6E5A
:10366000656E74735C647269766572735F6E7266A0
:103670005C757362645C6E72665F6472765F7573AC
:1036800062642E63000000002C000020B8020020BD
:1036900081380000FD37000055370000B5360000C6
:1036A000C930000010B5FEF78DFCBDE8104001F0F8
:1036B00091B800002DE9F041804616460C46086896
:1036C000FFF798FA20B112A14FF40470FDF7BCFF88
:1036D00065681F4FB54200D93546402D04D90CA16D
:1036E00040F21A20FDF7B0FF2A4638462168FCF761
:1036F0004FFEC8E900756068401B60602068284480
:1037000020606068002800D00120BDE8F081000042
:103710002E2E5C2E2E5C2E2E5C2E2E5C2E2E5C2EE3
:103720002E5C636F6D706F6E656E74735C6472692E
:10373000766572735F6E72665C757362645C6E72DE
:10374000665F6472765F757362642E6300000000CA
:10375000900300202DE9F041064690460D4608688A
:10376000FFF748FA20B114A140F23620FDF76CFFB4
:103770006C68214F4046444500D90446402C04D98A
:103780000DA14FF41070FDF75FFF34B122463846AB
:103790002968FCF7FDFD376001E0002030607460AF
:1037A0006868001B686028682044286014B1012004
:1037B000BDE8F0810020FBE72E2E5C2E2E5C2E2E25
:1037C0005C2E2E5C2E2E5C2E2E5C636F6D706F6EE9
:1037D000656E74735C647269766572735F6E72662F
:1037E0005C757362645C6E72665F6472765F75733B
:1037F00062642E6300000000900300202DE9F04178
:10380000074616460C460868FFF7F4F920B90CA1E4
:103810004FF4E770FDF718FF6568B54200D93546EB
:103820002068C7E900056068401B60602068284484
:1038300020606068002800D00120BDE8F081000011
:103840002E2E5C2E2E5C2E2E5C2E2E5C2E2E5C2EB2
:103850002E5C636F6D706F6E656E74735C647269FD
:10386000766572735F6E72665C757362645C6E72AD
:10387000665F6472765F757362642E630000000099
:103880002DE9F041074616460C460868FFF7B2F9E5
:1038900020B910A140F2EF10FDF7D6FE6568B542E1
:1038A00000D93546002D0FD0D4F80000C7E9000537
:1038B0006068A0EB0500606020682844206006D0A6
:1038C0004FF00100BDE8F0814FF00000EEE74FF04F
:1038D0000000F7E72E2E5C2E2E5C2E2E5C2E2E5C2A
:1038E0002E2E5C2E2E5C636F6D706F6E656E747322
:1038F0005C647269766572735F6E72665C75736222
:10390000645C6E72665F6472765F757362642E6368
:10391000000000002DE9F0410446FFF781FA2CB1C8
:10392000214D287820B10820BDE8F0810720FBE771
:103930000020FEF7D7FE00BFFEF7A4FE0028FBD054
:103940006C600120002428704602254644F0800760
:1039500007F00F00082801D3314600E04021384627
:10396000FFF740FD3846FEF7F1FA8573641C0560E9
:10397000E4B28560092CE9D35FF0000404F00F0085
:10398000082801D3314600E040212046FFF72AFDF8
:103990002046FEF7DBFA8573641C0560E4B285609F
:1039A000092CEBD30020BFE72C000020034800784F
:1039B000022801D301207047002070472C0000200E
:1039C00000B5FFF7F3FF38B10448D0F8000110F05C
:1039D000800F01D0012000BD002000BD04E000E008
:1039E000502000F037BF10B5EFF3108472B64C20B2
:1039F00000F030FF4C2000F02DFF84F3108810BD44
:103A00000021016041601149096801700F49091DD9
:103A1000096841700D49083109680C4A0C32126876
:103A200041EA02214180094910310968074A1432EC
:103A3000126841EA02218180044918310968034A69
:103A40001C32126841EA0221C18070478074024032
:103A5000542000F0FFBE00000C4810B5007802288A
:103A600004D00BA140F25B60FDF7EEFD1949184848
:103A7000C1F8040307212720FEF77AFF1649012029
:103A80000860BFF36F8FBFF34F8F10BD2C00002075
:103A90002E2E5C2E2E5C2E2E5C2E2E5C2E2E5C2E60
:103AA0002E5C636F6D706F6E656E74735C647269AB
:103AB000766572735F6E72665C757362645C6E725B
:103AC000665F6472765F757362642E630000000047
:103AD0000714E00300700240047502400B4810B563
:103AE0000078022804D00AA140F27960FDF7ACFD0D
:103AF00001F0D8FB164900200860BFF36F8FBFF3B9
:103B00004F8F14498020C1F8800110BD2C00002087
:103B10002E2E5C2E2E5C2E2E5C2E2E5C2E2E5C2EDF
:103B20002E5C636F6D706F6E656E74735C6472692A
:103B3000766572735F6E72665C757362645C6E72DA
:103B4000665F6472765F757362642E6300000000C6
:103B50000475024004E000E03EB50446000604D5CA
:103B600011A140F2D370FDF76FFD2046FEF7BAF9C0
:103B70000146012088401C498968084212D004F09F
:103B80000F0008280ED20020009001900290694694
:103B90002046FFF7E9FC002804D003A140F2DC70C6
:103BA000FDF752FD3EBD00002E2E5C2E2E5C2E2E0B
:103BB0005C2E2E5C2E2E5C2E2E5C636F6D706F6EF5
:103BC000656E74735C647269766572735F6E72663B
:103BD0005C757362645C6E72665F6472765F757347
:103BE00062642E63000000002C0000202DE9FF41DC
:103BF0001C46DDE90A7815460E46684600F076F860
:103C000046EA450141EA840141EA072242EA0841C5
:103C1000009A00EB8200C0F80017BDE8FF812DE993
:103C2000FF411C46DDE90A7815460E46684600F05D
:103C300091F846EA450141EA840141EA072242EA55
:103C40000841009A00EB8200C0F80017BDE8FF8130
:103C50002DE9FF411C46DDE90A7815460E46684607
:103C600000F0ACF846EA450141EA840141EA072246
:103C700042EA0841009A00EB8200C0F80017BDE854
:103C8000FF811CB5002100910B4601220191FFF735
:103C9000DFFF1CBD1CB500220B46009211460192AD
:103CA000FFF7D6FF1CBD1CB5002100910B46012279
:103CB00001911146FFF7CCFF1CBD13B50C466846B9
:103CC00000F048F8009900EB8101D1F8002722F4B8
:103CD0004032C1F80027009900EB8100D0F80017AE
:103CE00041EA0441C0F800171CBD000010B50446AD
:103CF0000068302804D308A14FF4D570FDF7A4FC68
:103D00002068202802D24FF0A04010BD00F01F0014
:103D100020600F4810BD00002E2E5C2E2E5C2E2E33
:103D20005C2E2E5C2E2E5C2E2E5C636F6D706F6E83
:103D3000656E74735C647269766572735F6E7266C9
:103D40005C68616C5C6E72665F6770696F2E68009C
:103D50000003005010B504460068302804D308A1C1
:103D60004FF4D570FDF770FC2068202802D24FF088
:103D7000A04010BD00F01F0020600F4810BD0000E3
:103D80002E2E5C2E2E5C2E2E5C2E2E5C2E2E5C2E6D
:103D90002E5C636F6D706F6E656E74735C647269B8
:103DA000766572735F6E72665C68616C5C6E72667B
:103DB0005F6770696F2E68000003005010B50446FD
:103DC0000068302804D308A14FF4D570FDF73CFCFF
:103DD0002068202802D24FF0A04010BD00F01F0044
:103DE00020600F4810BD00002E2E5C2E2E5C2E2E63
:103DF0005C2E2E5C2E2E5C2E2E5C636F6D706F6EB3
:103E0000656E74735C647269766572735F6E7266F8
:103E10005C68616C5C6E72665F6770696F2E6800CB
:103E20000003005001B56846FFF794FFD0F8100575
:103E30000099C84000F0010008BD01B56846FFF7D1
:103E4000BDFF009A01219140C0F8081508BD38B5A2
:103E500001240090684631B1FFF748FF00998C407B
:103E6000C0F8084538BDFFF741FF00998C40C0F805
:103E70000C4538BD7CB5154604460C4A6618022E22
:103E8000D2E90002CDE9000204D909A140F2C22022
:103E9000FDF7DAFB694605E051F82400D0F810057B
:103EA000641C01C5A642F7D87CBD0000045900007F
:103EB0002E2E5C2E2E5C2E2E5C2E2E5C2E2E5C2E3C
:103EC0002E5C636F6D706F6E656E74735C64726987
:103ED000766572735F6E72665C68616C5C6E72664A
:103EE0005F6770696F2E6800034908B508440021B8
:103EF00001600068009008BD006000400249405821
:103F0000012800D000207047006000400048704742
:103F1000853F000030B5184C054689B0207828B19F
:103F20006078854202D1002009B030BD20221349BB
:103F30006846FCF72DFA00208DF81400062000904A
:103F40000820019005200390072002904FF0EB70AD
:103F500006900948001DFFF78DF80DB1002200E022
:103F6000074A05486946001DFEF762FF0028DBD1BD
:103F7000012020706570D6E77C000020E859000021
:103F8000994D00002DE9F04FC1B00D004FF0000138
:103F900040914D984B991C46174601EB000B01D000
:103FA0000A2000E00020804600F0BAFD00287CD105
:103FB0006E46BCB9409840AA3118284600F0B4FEBD
:103FC000002872D03846FCF7F5F9C22800D9C22083
:103FD000054640982A4630443946FCF7D9F94098BE
:103FE000284440904FF0200A409901EB08023132FA
:103FF0000DEB01050DEB0206002002E005F801AB18
:10400000401C4045FAD300275C4508D305F801ABB6
:1040100005F801AB05F801AB06F801AB2DE04B98B4
:10402000844202D24A98005D02E0211A4C98405C1A
:104030002B46814602460121880022FA00F000F05A
:104040000F00092801D9373000E03030C1F1010CF0
:10405000491E03F80C00EFD29D1C05F801ABFCF7DC
:1040600093F9016811F8090010F03E0F01D048469D
:1040700000E02E2006F8010B641C7F1C102FC3D318
:104080000D2030700A20707085F800A040996846B5
:1040900041444331409100F049FD30B100F040FD12
:1040A00018B9002040905C459ED341B02046BDE841
:1040B000F08F2DE9F043C7B000251C469046894695
:1040C0004E9F459500F02CFD00287AD1459805AE0D
:1040D000311845AA484600F027FE002835D0072FA2
:1040E00027D2DFE807F004121B35424F5D0040463F
:1040F000FCF760F9054645982918FF2919D830447E
:104100002A464146FCF744F913E045982368C0F578
:10411000807130444246FCF719FE09E06068009067
:1041200045982368C0F5807130444246FCF70EFE86
:104130000546294645A8FDF771FD459978B3B1F5C7
:10414000807F3ED805A800F0F1FC47B0BDE8F083C1
:10415000D4E90101CDE9000145982368C0F58071DB
:1041600030444246FCF7F2FDE2E7201D07C88DE827
:10417000070045982368C0F5807130444246FCF73B
:10418000E5FDD5E7201D0FC88DE80F004598236891
:10419000C0F5807130444246FCF7D8FDC8E710E016
:1041A00004F1080001AD0FC885E80F0060680090B9
:1041B00045982368C0F5807130444246FCF7C6FD3F
:1041C000B6E70020C1E7000000487047B340000098
:1041D0000120FFF79FBE00002DE9F04F87B0FDF7EB
:1041E00057FD18B1002007B0BDE8F08F454ED6E965
:1041F000014704EA070006EB8000A146641CC5687D
:104200000CE000BFC5F3891000EB9550044404EAAC
:10421000070006EB8000A146C568641CA807F1D022
:1042200005F003004FF0000B022805D0AA0A01A8F0
:10423000C5F38313002153E004EA070006EB800076
:1042400004F1010A0AEA0704C268381B80004FEA39
:104250009558001DC5F38913804521D929490C3192
:1042600038B106EB840400F0FF0CA8EB00000C341E
:1042700004E00C46002108F0FF0C0846C0B2CDE96E
:104280000210CDE9004CD6F81444C5F3C2005946DB
:10429000A047404511D108F103080AEB98042AE031
:1042A000002106EB84000C300090CDE901810391E0
:1042B000C5F3C200D6F81444EAE760F38F1509EAA3
:1042C000070006EB8000C56016E000BF04EA070C9B
:1042D00006EB8C0C491CDCF80CC040F804CB641CC9
:1042E0009942F3D3C5F3C2000093D6F8105401AB42
:1042F0005946A84700B17460FDF7CAFC80F0010080
:1043000071E700001C060020034AFF23936000238E
:104310001360536000F0C6B81C0600202DE9F84376
:104320000F4F88460446002569462846BE68FDF7BB
:104330007FFC002812D00B480021406861F3820006
:10434000009964F3C50001EA060265F3891007EBE2
:10435000820268F39F20491CD0600091BDE8F88379
:104360001C060020085A00002DE9F843124D88462B
:1043700004460127914669463846AE68FDF758FC69
:10438000002817D00D480021806861F38200009951
:1043900064F3C50001EA060267F3891005EB8202A7
:1043A00068F39F20491CD0600091314005EB8101EA
:1043B000C1F80C90BDE8F8831C060020085A0000E4
:1043C0002DE9F84F164C8846064602279A46914634
:1043D00069463846A568FDF72BFC00281ED0114819
:1043E000C168002060F38201009866F3C50100EA0D
:1043F000050267F3891104EB820268F39F21401CD8
:10440000D16000EA050204EB8202401CC2F80C9065
:104410000090284004EB8000C0F80CA0BDE8F88FA5
:104420001C060020085A00002DE9F84F1B4C884656
:10443000064603279A469146DDF828B06946384675
:10444000A568FDF7F5FB002825D015480021006977
:1044500061F38200009966F3C50001EA050267F383
:10446000891004EB820268F39F20491CD06001EAA6
:10447000050204EB8202491CC2F80C9001EA050215
:1044800004EB8202491CC2F80CA00091294004EB05
:104490008101C1F80CB0BDE8F88F00001C060020B7
:1044A000085A0000024A02F5826203C27047000007
:1044B0001C06002070B506460020FFF72BFD040007
:1044C00008D1FFF723FD0546FFF77EFE3246294659
:1044D000FFF71AFF204670BD00F1804108680022F6
:1044E00010B101200A6070471046704740580028FC
:1044F00000D00120704708B500224250405800907B
:1045000008BDD0F80403084000D00120704740588F
:10451000002800D00120704708B5002242504058C2
:10452000009008BD30B5050600F00F030E4C03EBFC
:10453000830004EB80000AD5082B03D30B480160ED
:10454000001D09E0C0F80016C0F8042630BD082B95
:1045500004D307480160001D026030BDC0F8001799
:10456000C0F8042730BD000000700240A076024071
:10457000A077024000F00F0108290DD2020607497A
:104580004FEA007001EB906002D5D0F8200401E002
:10459000D0F84404012800D0002070470070024089
:1045A00010B50446000604D416A140F25930FDF7B8
:1045B0004BF804F00F00082804D312A140F25A303F
:1045C000FDF742F8200704D10EA140F25B30FDF761
:1045D0003BF81C49002088702046FDF7B7FC817B22
:1045E00003290ED0006800280BD12046FDF77AFC85
:1045F000012181401348C943BDE810400C30FDF74C
:10460000CFBF10BD2E2E5C2E2E5C2E2E5C2E2E5C6F
:104610002E2E5C2E2E5C636F6D706F6E656E7473E4
:104620005C647269766572735F6E72665C757362E4
:10463000645C6E72665F6472765F757362642E632B
:10464000000000002C00002038B50446000604D409
:1046500016494FF45D70FCF7F7FF04F00F000828CF
:1046600004D2124940F27530FCF7EEFF104D0020E5
:10467000A8702046FDF76AFC817B032914D00068EE
:10468000002811D12046FDF72DFC01218140C943AE
:1046900005F10C00FDF784FF0648806800908DF856
:1046A000024069686846884738BD00009C51000098
:1046B0002C00002010590000F8B50446000604D56F
:1046C00023A140F2AE30FCF7BFFF04F00F05082D28
:1046D00004D31FA140F2AF30FCF7B6FF200704D18E
:1046E0001BA14FF46C70FCF7AFFF294E002720068A
:1046F000B77001D4082D04D326A140F24240FCF744
:10470000A3FF324901EB8500C0F8A074BFF36F8F9F
:10471000BFF34F8F2046FDF719FC817B032913D08F
:10472000006888B92046FDF7DDFB0121814018486B
:10473000C9430C30FDF734FF2548006900908DF81F
:104740000240716868468847BDE8F84000F034BC14
:104750002E2E5C2E2E5C2E2E5C2E2E5C2E2E5C2E93
:104760002E5C636F6D706F6E656E74735C647269DE
:10477000766572735F6E72665C757362645C6E728E
:10478000665F6472765F757362642E63000000007A
:104790002C0000202E2E5C2E2E5C2E2E5C2E2E5CED
:1047A0002E2E5C2E2E5C636F6D706F6E656E747353
:1047B0005C647269766572735F6E72665C68616C68
:1047C0005C6E72665F757362642E680000700240F2
:1047D0001059000010B50446000604D50B4940F2FC
:1047E0003440FCF731FF04F00F00082808D304D050
:1047F00006494FF48760FCF727FF0548006810BDA5
:10480000044901EB8000D0F8A00410BD94470000DB
:10481000C07402400070024002494058002800D095
:1048200001207047007002400449084400210160E3
:10483000BFF36F8FBFF34F8F7047000000700240CF
:1048400003490860BFF36F8FBFF34F8F70470000BD
:10485000007402400449084401210160BFF36F8FD6
:10486000BFF34F8F704700000070024003490844B7
:1048700090F93000C017401C704700001001002064
:104880000449084490F93000082801DB01207047F2
:1048900000207047100100200449084490F93000BE
:1048A000082801D201207047002070471001002025
:1048B00070B5034600791B4901EB40101968027F6F
:1048C0004FF0FF30002AD1F80C25D1F81465D1F84B
:1048D0000855D1F8104504D0C1F80C05C1F81405ED
:1048E00003E0C1F81405C1F80C051968C1F8080502
:1048F000C1F81005501C02D01046FFF7C2F9701C19
:1049000002D03046FFF7BDF9601C02D02046FFF709
:10491000B8F9681C04D02846BDE87040FFF7B1B96B
:1049200070BD00007801002010B550B1012814D0EE
:1049300002282CD0BDE810401DA14FF45870FCF7A0
:1049400083BE1FA10320FFF7E9FCFFF72FF8002823
:104950002DD1BDE81040FEF749BC20A10320FFF790
:10496000DDFC2549002008708870FFF729F808B1A0
:10497000FFF7B4F8FFF71AF808B1FEF7F5FB0020CF
:10498000FCF7F2FEBDE810400120FCF7EDBE1BA1D4
:104990000320FFF7C3FC0120FCF710FFFFF710F81E
:1049A000002804D1BDE810400120FFF755B810BD24
:1049B0002E2E5C2E2E5C2E2E5C6D61696E2E630099
:1049C0003A494E464F3A55534220706F77657220F0
:1049D00064657465637465640D0A00003A494E4667
:1049E0004F3A55534220706F7765722072656D6F34
:1049F0007665640D0A000000000000203A494E462A
:104A00004F3A5553422072656164790D0A000000E7
:104A1000EFF30580C005C00D01D001207047EFF312
:104A2000148040F30000401C704700000EB50023C6
:104A3000009301930293C088904200D20246CDE9D0
:104A4000001269468020FEF78FFD020008D005A104
:104A50000120FFF789FC0CA140F26910FCF7F4FD7E
:104A60000EBD00003A4552524F523A5472616E7375
:104A7000666572207374617274696E67206661691D
:104A80006C65643A202564002E2E5C2E2E5C2E2E42
:104A90005C6D61696E2E630070B5012670044FF085
:104AA000E0210025C1F88001084C4010C4F84803FB
:104AB000C4F8080366602F20FDF79EFDA660044C35
:104AC0002F20A560FDF798FDA57070BD0010014076
:104AD0006000002070B50546C87D0C4600284FF4E4
:104AE000847128460AD0FFF706FDD5F81805627EC6
:104AF000E1688854607E401C607670BDFFF7FBFC67
:104B0000D5F8180570BD1FB501238DF800308DF85C
:104B100008100192D0E90012684690471FBD0000BE
:104B20000148FEF79BBA00008000002070B50D46DA
:104B30000A46014601240648FBF72AFCEAB204496A
:104B40000448FEF7CFF900B10024204670BD0000F4
:104B50001C050020800000202DE9F84F1D4C002589
:104B60006846D4E901A6FDF79DF9002738B3002374
:104B7000009A61681CE0D1F800C00846944503D94A
:104B8000ACEB02020A6015E0A2EB0C026344076082
:104B9000D0F80CC0C1698146BCF1000F08D006EB0B
:104BA000030828F07F48C0E9018CC9F81C5005466D
:104BB0000029E0D128466160FDF7EEFA03E02846BF
:104BC000FDF7EAFA10B15046FDF7BEF8E770BDE810
:104BD000F88F0000600000200D4B10B5596831B10E
:104BE00002680C68A24204D8A21A0A60C161586027
:104BF00010BD0B4603E00B46C969121B21B10C68BE
:104C00009442F8D3A41A0C600260C161D86110BD4F
:104C1000600000202DE9F041144E77683D462C4697
:104C200003E0844204D02546E469002CF9D11BE05E
:104C3000D4B1A5420BD1F869706040B90C4901208C
:104C400088600021B160F0702F20FDF7D5FC21684D
:104C5000E069E86110B10268114401607068874240
:104C600002D00120BDE8F0810020FBE760000020B9
:104C700000100140F8B5064600240D462046FCF71A
:104C800021FC684600F092FD68B105700849466055
:104C90009DF8000048700020FCF742FC1420FBF750
:104CA000E9FC2046F8BD04240020FCF739FCF8E7B5
:104CB000100400202DE9F041194D6C68002C2CD017
:104CC000184800270068A968B846401A20F07F46B7
:104CD0002068B0420CD82146361A0744E469087CA3
:104CE00020B181F81080886949698847002CEFD18C
:104CF00029786878814206D1401CC0B268700228C9
:104D000001D185F80180064869780C3040F821709F
:104D1000BDE8F0411420FBF7ADBCBDE8F081000018
:104D2000600000200415014010B5144602004FF049
:104D300001000CD00846136806A24FF48071FCF7FE
:104D400005F801462046BDE81040FCF767BF00218A
:104D5000216010BD5B253038645D000070B50C46E5
:104D600005464FF48E71FFF7C6FBA18AA068415C2F
:104D7000A08A401CA082C5F81C1570BD1FB500227A
:104D80008DF800208DF80810816801918275D0E9B6
:104D90000012684690471FBD0078012801D10149E3
:104DA000887070477C0000202DE9FF470C460546BF
:104DB0004FF40071FFF7A5FB01274FF4017800269F
:104DC00018B34FF4927949462846FFF78FFBE0B1BC
:104DD00049462846FFF78FFBC5F80883A07E00B937
:104DE0006F6002208DF80000D5F88004C5F88004BB
:104DF0000390E07D8DF80800E0680190E675267666
:104E0000D4E900126846904727E004212846FFF7BE
:104E100078FB10B34FF484712846FFF767FBE0B1CD
:104E200021462846FFF756FEE07D617E884214D178
:104E3000207E38B1617EE268E0752069E060267608
:104E4000667607E0A07E00B96F60C5F80883E67556
:104E5000617EE2682046FFF756FE4FF48E784146A9
:104E60002846FFF743FB88B1A08AA17D884204D27F
:104E700021462846FFF772FF08E041462846FFF723
:104E80003AFBA17D11B12046FFF778FF4FF4A278DD
:104E900041462846FFF72AFB002812D04146284603
:104EA000FFF729FBA07E00B12F60E07D002808D02D
:104EB000E675617EE26804B02046BDE8F047FFF782
:104EC00022BEBDE8FF872DE9FF410C464FF49277E3
:104ED00005463946FFF71BFB0026C0B13946284678
:104EE000FFF71AFB02208DF80000D5F88004C5F802
:104EF00080040390D5F83C058DF80800E068019027
:104F0000E6752676D4E900126846904724E04FF40F
:104F1000887739462846FFF7FAFAE8B13946284635
:104F2000FFF7FAFAD5F83C05C1B2E07D884213D10B
:104F3000207E60B1E268D5F8000220F02000C5F8BC
:104F40000002207EE0752069E060267601E0E675CB
:104F5000E2682046FFF7D7FD4FF4A277394628468E
:104F6000FFF7D5FA68B139462846FFF7D5FAE07D54
:104F700038B1E675D5F83C05E268C1B22046FFF7C6
:104F8000C2FD4FF4907631462846FFF7C0FA00285C
:104F90000FD031462846FFF7BFFAA07D002808D081
:104FA000D5F84C0504B0C1B22046BDE8F041FFF78A
:104FB000E5BEBDE8FF8100002DE9F04F644E89B0E9
:104FC000B078002850D181464FF0010A48E000BF78
:104FD00090FAA0F0B0FA80F08046FCF740FB04465F
:104FE000FCF7B4FF0546006820B95AA14FF49A6057
:104FF000FCF72AFB200612D5D5E90031AA8904A8BE
:105000009847002845D1C5F80090802C41D16148CF
:10501000D0F8001241F00401C0F8001239E0204637
:10502000FEF740FBD5E9007183460346AA8904A830
:10503000B84707460498D0B1059959451ED20220B9
:10504000A8730AFA08F0C14341480C30FDF7A8FAEA
:105050005148C06A00908DF80240716868468847E0
:10506000D6E902100840B3D109B0BDE8F08F059829
:1050700020B138A140F2F340FCF7E6FA0FB9C5F8C9
:1050800000900599594504D032A140F20650FCF732
:10509000DBFA86F802A0B1680AFA08F08143B16031
:1050A000A86805990844A860DDE904122046FFF7C6
:1050B00039FA4FF4827604F00F0500BF40F26D27F5
:1050C0003046FFF7B1FB200602D5092D08D301E0D9
:1050D000092D07D331A13846FCF7B6FA200601D5D1
:1050E000042000E0282000EB8500FFF7B3FB02203E
:1050F000FDF776FE3046FFF78FFB0028E0D0142046
:10510000FDF76EFE354F02E00220FDF769FE3868BC
:105110008006F9D50120FDF763FE200602D5092D92
:1051200009D301E0092D09D31CA140F24710FCF777
:105130008BFA200602D51848983001E01648AA30AC
:1051400030F81500FFF768FB0028B7D08CE70000A7
:105150002C0000202E2E5C2E2E5C2E2E5C2E2E5C23
:105160002E2E5C2E2E5C636F6D706F6E656E747389
:105170005C647269766572735F6E72665C75736289
:10518000645C6E72665F6472765F757362642E63D0
:105190000000000000700240105900002E2E5C2E0E
:1051A0002E5C2E2E5C2E2E5C2E2E5C2E2E5C636FC3
:1051B0006D706F6E656E74735C6472697665727320
:1051C0005F6E72665C757362645C6E72665F647259
:1051D000765F757362642E63000000007474024091
:1051E0002DE9F84307460020FCF76CF93846FCF738
:1051F000ADFE06463806294D4FF000084FF0030972
:105200004FF0010438461ED4FCF76CFEE96804FA3E
:1052100000F0884303D03846FEF79EFC10E0384685
:10522000C6F80080FCF75EFEE96804FA00F08143EE
:105230003846E960FCF756FE8440A868A043A860A1
:1052400086F80E9024E0FCF74DFED5E9022104FA21
:1052500000F061EA020108421AD03846FCF742FE2B
:10526000E96804FA00F081433846E960FCF73AFE49
:105270008440A8680443AC600948C6F8008086F8FA
:105280000E90006800908DF8027069686846884743
:10529000BDE8F8430020FCF743B900002C000020D3
:1052A000105900002DE9F0410D4EB068040CF06873
:1052B0002404044301270BE094FAA4F0B0FA80F52B
:1052C0002846FCF7CCF9FFF78BFF07FA05F084437B
:1052D000002CF1D140F2FF10B060BDE8F081000079
:1052E0002C000020012238B58A400C490C468B68FE
:1052F00013438B606168E468094B050602EA040207
:1053000003D5002A09D19A6902E0002A05D1DA6999
:1053100000928DF802006846884738BD2C000020B6
:10532000105900001CB50178504CA9B104292FD0A8
:10533000052926D18178812921D0802921D1C278DF
:10534000002A1ED0032A1DD049A10120FFF70CF826
:10535000BDE81C40FEF77CBB6068401C60602178A3
:1053600011B14FF4FA7100E06421B0FBF1F201FBDE
:105370001200002805D1BDE81C40FCF7BFB9002091
:10538000A0701CBDBDE81C4041A10320FEF7C6BFB4
:105390006846FEF735FB9DF801200C2A63D2DFE852
:1053A00002F0070B621F620636623A464A55E8E78A
:1053B000684600F065F91CBD9DF80000022809D17F
:1053C000BDF8020030B9BDF80400010A02D1C0B234
:1053D000812801D036A112E08120FEF771F83FE06C
:1053E0009DF80000022809D1BDF8020030B9BDF8CF
:1053F0000400010A02D1C0B2812804D034A10120E6
:10540000FEF78CFF1FE08120FEF738F828E06846A1
:1054100000F0CAF81CBD217868464FF0010209B1BE
:10542000334901E03249491CFFF700FB1CBD6846C7
:1054300000F07AF91CBD9DF80020212A10D02DA182
:105440000120FEF791FFFEF703FB1CBD9DF8002035
:10545000012A03D0212A03D030A1F1E73BA1CEE7F6
:10546000FEF7BEFA1CBD44A1EAE7000000000020E0
:105470003A4552524F523A5472616E7366657220C9
:105480006661696C65643A2025640D0A00000000BD
:105490003A494E464F3A5472616E736665722061A6
:1054A000626F72746564206576656E740D0A000023
:1054B0003A4552524F523A556E6B6E6F776E206678
:1054C00065617475726520746F20636C656172002C
:1054D0003A4552524F523A556E6B6E6F776E206658
:1054E00065617475726520746F20736574000000C7
:1054F000DC5700003A4552524F523A5365742049E6
:10550000646C652077726F6E6720747970653A20DD
:1055100030782532782E0D0A000000003A455252AC
:105520004F523A436F6D6D616E64203078422E2089
:10553000556E6B6E6F776E20726571756573743A18
:105540002030782532780D0A000000003A4552528A
:105550004F523A4E6F20616C7465726E61746520B3
:10556000696E746572666163657320737570706FC0
:10557000727465642E0D0A003A4552524F523A55E4
:105580006E6B6E6F776E20726571756573743A20FD
:1055900030782532780D0A0002498020C1F80002D7
:1055A0007047000004E000E038B5418803780A0A3B
:1055B000042A2FD006DC012A0BD0022A0ED0032A9F
:1055C00048D111E0052A2ED0212A35D0222A41D1F6
:1055D0003BE0802B3ED11222274948E0802B39D175
:1055E00025492222123142E0802B33D111F0FF04F1
:1055F00004D0012C06D0022C2CD107E01E49042235
:105600000A3934E01C492A22343130E01A49482250
:105610005E312CE0802B1DD111F0FF0F1AD11649FD
:1056200009221B3123E0802B14D1CCB2012C11D1E3
:10563000114907222D311AE0812B0BD111F0FF0FF8
:1056400008D10D490922243111E0812B02D111F03A
:10565000FF0F09D0C8B2009008490120FEF7E4FE10
:10566000BDE83840FEF7F4B903492E22A631BDE863
:105670003840FFF7DBB90000F0570000B45A0000D3
:1056800010B5044602781E48802A04D0812A0AD028
:10569000822A1BD111E00078207910F0FF0F15D17C
:1056A0000222184926E0007880B1207910F0FF0F1F
:1056B0000CD114490222891C1CE0A18811F0FF0FB3
:1056C0000CD0007810B1C8B281280BD00EA10120F7
:1056D000FEF74AFEBDE81040FEF7BAB909490222BA
:1056E000891D07E08120FDF7E3FE0028F6D005497B
:1056F0000222091D2046BDE81040FFF797B90000BF
:1057000000000020DE5700003A4552524F523A55F1
:105710006E6B6E6F776E207374617475733A2030A0
:10572000782532780000000010B50178828843881F
:1057300031B92AB9C08818B90C4C012B08D063B113
:105740000BA10120FEF73CFEBDE81040FEF780B93A
:105750008120FDF7CBFD012003E08120FDF798FDBE
:1057600000202070BDE81040FEF73AB9000000208C
:105770003A4552524F523A57726F6E6720636F6EBE
:1057800066696775726174696F6E3A20496E646507
:10579000783A2030782532782C2056616C75653A3D
:1057A0002030782532782E0D0A0000000A494A7808
:1057B0008B78521CD2B2934200D100220B789342D4
:1057C00001D1002070470270487800EB400001EBE7
:1057D000C000001D704700001004002001000100FF
:1057E0000000010000000403090400002949000032
:1057F000120100020000004015190A5201010102C5
:10580000000109022200010100C031090400000169
:1058100003010200092111010001222E0007058168
:10582000030800082A034E006F007200640069003C
:1058300063002000530065006D00690063006F0085
:105840006E0064007500630074006F00720048030E
:105850006E00520046003500320020005500530013
:105860004200200048004900440020006D006F0005
:1058700075007300650020006F006E0020006E0050
:10588000720066005F006400720076002000440031
:1058900065006D006F0005010902A1010901A10069
:1058A00005091901290815002501950875018102CE
:1058B00005011581257F75080930093109389503DF
:1058C0008106C0C0080000200400000000000000A5
:1058D0000D0E0F100B0C181990000020B0000020C6
:1058E000DC0000200B000300ED1800000C0003009A
:1058F000ED18000018000300ED1800001900030067
:10590000ED180000000000500003005000000000EF
:105910000500000301000000050000000500000074
:105920000500000005000000050000000500000162
:105930000400000002000000030000000500000257
:10594000010C0000CD0B0000250C00005D0C0000D8
:10595000630C0000690C00006F0C0000750C000067
:105960007B0C0000810C0000750B0000870C000010
:105970008D0C0000D50C0000DB0C0000E10C0000D9
:10598000E70C0000ED0C0000F30C0000F90C000027
:10599000010D0000910B0000A50A0000E90A0000BB
:1059A000490A0000450A000008010C011001140119
:1059B00018011C01200124012C013001340138019F
:1059C0003C014001440148014C015001020304051F
:1059D000060708090B0C0D0E0F101112131400000E
:1059E000D003002003000000FFFFFFFFFFFFFFFFC9
:1059F000FFFFFFFFFFFFFFFF0000000000000000AF
:105A00000000D6010701000029000000010000008D
:105A10000100000001000000010000000100000082
:105A200001000000010000000200000000404040B2
:105A30004040404040404141414141404040404061
:105A4000404040404040404040404040400502020D
:105A500002020202020202020202020202202020CC
:105A60002020202020202002020202020202909028
:105A70009090909010101010101010101010101026
:105A8000101010101010101002020202020288887A
:105A90008888888808080808080808080808080886
:105AA000080808080808080802020202400000006E
:105AB0002D5A00003A4552524F523A556E6B6E6F56
:105AC000776E2064657363726970746F722072659B
:105AD000717565737465643A2030782532782C20AE
