:100000000000042089300000B1300000B33000004F
:10001000B5300000B7300000B9300000000000002B
:10002000000000000000000000000000BB300000E5
:10003000BD30000000000000BF300000C1300000F3
:10004000C116000091340100C5250100C330000035
:10005000C3300000C3300000011B0000C3300000AB
:10006000C3300000C3300000C3300000C3300000C4
:10007000C3300000D52A0100C3300000C3300000A7
:10008000C3300000590C0000C3300000C330000032
:10009000F90C0000C3300000C3300000C330000082
:1000A000C3300000C3300000C3300000C330000084
:1000B000C3300000C330000000000000000000005A
:1000C000C3300000C3300000C3300000C330000064
:1000D00069230100C3300000C3300000C3300000BA
:1000E000C3300000C3300000C3300000C330000044
:1000F00000000000C330000000000000000000000D
:1001000000000000000000000000000000000000EF
:1001100000000000000000000000000000000000DF
:1001200000000000000000000000000000000000CF
:1001300000000000000000000000000000000000BF
:1001400000000000000000000000000000000000AF
:10015000000000000000000000000000000000009F
:10016000000000000000000000000000000000008F
:10017000000000000000000000000000000000007F
:10018000000000000000000000000000000000006F
:10019000000000000000000000000000000000005F
:1001A000000000000000000000000000000000004F
:1001B000000000000000000000000000000000003F
:1001C000000000000000000000000000000000002F
:1001D000000000000000000000000000000000001F
:1001E000000000000000000000000000000000000F
:1001F00000000000000000000000000000000000FF
:1002000010B5054C237833B9044B13B10448AFF350
:1002100000800123237010BD580900200000000059
:10022000FCB30200084B10B51BB108480849AFF3F6
:1002300000800848036803B910BD074B002BFBD0B2
:10024000BDE81040184700BF00000000FCB30200EA
:100250005C0900205409002000000000154B002B11
:1002600008BF134B9D46A3F5803A00218B460F46ED
:100270001348144A121A00F065F80F4B002B00D0F7
:1002800098470E4B002B00D0984700200021040017
:100290000D000D48002802D00C48AFF3008000F09C
:1002A0002BF82000290002F073FC00F011F800BFC9
:1002B0000000080000000420000000000000000012
:1002C00058090020C4C50020000000000000000004
:1002D00008B5074B044613B10021AFF30080054B6E
:1002E0001868836A03B19847204600F033F800BFCE
:1002F00000000000E453020070B50E4B0E4CE41AEF
:10030000A41000251E46A54204D056F82530984773
:100310000135F8E725F058F8084C094BE41AA41009
:1003200000251E46A54204D056F8253098470135D1
:10033000F8E770BD4C0900204C090020500900204E
:100340004C09002002440346934202D003F8011BEB
:10035000FAE77047FEE700BF2DE9F04F1546C7B03A
:100360001C46002900F01C81002B00F0EF800A23BE
:1003700001930023194606AE519B539A519F03EBFC
:10038000020B019B013B059320258C4601980CEB49
:10039000000304933133F318029306EB0C03002897
:1003A0005FD05A4202F00302824228BF024606286A
:1003B00000F2EC80019A06F80C50012A03F10101C9
:1003C00000F0E280022A5D7003F1020100F0DC809F
:1003D000032A9D7003F1030100F0D680042ADD702A
:1003E00003F1040100F0D080062A1D7103F105011C
:1003F00040F0D3805D71991D9646019890422ED0B1
:10040000C2EB0009A9F104008008013003900598AF
:10041000C2EB000A0398BAF1020F4FEA800812D922
:10042000624401284FF0203C06EB020A46F802C065
:1004300005D00228CAF804C001D0CAF808C0C845CF
:100440004144C6440BD001980D700EF10102904258
:1004500005D90EF1020E70454D7000D98D70019ACC
:100460001344534A0299D2F80080DDF84891DA1C0F
:10047000481C03F1330C0CE002F8035C02F8025C48
:1004800002F8015C0332624500F8015C00F10100F2
:1004900033D0A345F0D9A74295BFE11B509919F875
:1004A0000110095D02F8015C4FEA211E5FFA8EFA25
:1004B000BEF1090F01F00F0ED4BF0AF1300A0AF1A4
:1004C000370ABEF1090F02F803AC94BF0EF1300EEB
:1004D0000EF1370E08EB010A02F802EC9AF801E07F
:1004E00003321EF0970F08BF2E21624500F8011C51
:1004F00004F1010400F10100CBD1029804990D220E
:100500004FF00A0801F14309027480F8118083F862
:10051000305023464FF0000A4C46994606EB0A013C
:100520002246002002F03CFC8244241A10B9B8F1A3
:10053000010801D0002CF1D1CB454C464FF0000C06
:100540003FF624AF204647B0BDE8F08F06AE0B68FB
:10055000184A30464FF4807124F0ACF80028F1DBE3
:100560000A2307460193284624F00BF9C22828BF26
:10057000C220804629460246F01923F009FD08EB07
:10058000070300241946F7E6964636E7002A7FF46B
:1005900012AF19469646019832E74FF0050E2CE748
:1005A00013B1019106AEE7E60194274606AEDAE7FD
:1005B00048090020E85302002DE9F0419046C6B0FA
:1005C0001F46C1B106AE0B68564A30464FF48071E3
:1005D00024F070F800280ADB4C9B0546062B00F23D
:1005E0009F80DFE803F042525D6A798A14000020A0
:1005F00046B0BDE8F0814C9B062B00F28F80DFE80F
:1006000003F033424D5A697A0400002506AE07F123
:100610000C017A683B68D7F808C092C9701900923B
:10062000029103944246CDF804C00497C5F5807149
:1006300024F040F80446002CD9DB2C44B4F5807F2C
:10064000D5D80A27002506AE71192246002002F0EF
:10065000A7FB0544241A08B9013F01D0002CF3D1AF
:10066000012046B0BDE8F0810025404624F089F81D
:100670004319FF2B0446DED806AE414670192246C8
:1006800023F086FCD7E7002506AE701942463B688A
:10069000C5F5807124F00EF80446CCE7002506AEBF
:1006A0007A683B68009270194246C5F5807124F063
:1006B00001F80446BFE7002506AE7A68B9683B68D2
:1006C0000092019170194246C5F5807123F0F2FF46
:1006D0000446B0E7002506AE7A68BC68F9683B6856
:1006E00000920194029170194246C5F5807123F081
:1006F000E1FF04469FE7002506AE07F108017A688E
:100700003B6892C970190092019102944246039786
:10071000C5F5807123F0CEFF04468CE7002490E7F6
:1007200000248AE7E853020070B5074C074D237890
:10073000064613B12B78834204D002F071FC0123EA
:100740002E702370002070BD7509002074090020F0
:1007500000487047B9050000004870475903000081
:1007600038B50120FFF7E0FF044638B9FFF7F0FF86
:100770000546FFF7F1FF024B5D619861204638BDE9
:100780007809002010B5054C82B00A460021646942
:1007900000910B46A04702B010BD00BF78090020B1
:1007A00030B585B004AB054C43F8042D01250A464D
:1007B000646900950021A04705B030BD780900208C
:1007C00030B5064C85B00225029203930A4664694F
:1007D0000095002102ABA04705B030BD780900208C
:1007E000084B1B5C1F2B8ABF074A4FF0A04203F047
:1007F0001F03D2F80405D84000F0010080F001008A
:10080000704700BFF053020000030050074B1B5C11
:100810001F2B86BF03F01F0305494FF0A0410122A3
:1008200002FA03F3C1F80C35704700BFF053020021
:1008300000030050064B1A5C1F2A86BF02F01F02FD
:1008400004494FF0A04101239340C1F80835704797
:10085000F0530200000300504FF0A04310B44FF4D7
:1008600080404FF400544FF400414FF48032C3F8FD
:100870000845C3F80805C3F80815C3F808255DF84E
:10088000044B70474FF0A04310B44FF480404FF436
:1008900000544FF400414FF48032C3F80C45C3F8C4
:1008A0000C05C3F80C15C3F80C255DF8044B704714
:1008B0000A4B195C1F298ABF09484FF0A04001F07C
:1008C0001F01D0F8043501228A4022EA03011340B7
:1008D000C0F80815C0F80C35704700BFF05302008F
:1008E0000003005030B44FF0A04303224FF40055F2
:1008F0004FF480444FF400404FF48031C3F8342764
:10090000C3F83827C3F83C27C3F84027C3F8085575
:10091000C3F80845C3F80805C3F8081530BC70478C
:100920000B2809D00C2809D0182809D0192814BF81
:100930004FF0FF30032070470020704701207047C0
:10094000022070474B4B1978002900F091802DE967
:10095000F04F87B0DFF828C104910024012504E09E
:100960000134049BE4B29C4265D227B2DCF80060FB
:1009700016F83700A0F1200305FA03F93E4BC0F149
:10098000200ED3E9002325FA0EFE49EA0E0905FAE6
:1009900000F808EA020A09EA030B06EBC7015AEA63
:1009A0000B0E0591DCD03449CDF810C022EA0802C4
:1009B00023EA0903C1E9002301F092F816F8376031
:1009C000DDF810C0A6F1200205FA02F201920199A9
:1009D000C6F120035FFA80FA25FA03F3A6F120029C
:1009E00019430AFA02F30393019105FA06F1009103
:1009F000C6F120070399214B2AFA07F739430391DF
:100A00000AFA06F1D3E900230291DDE90001104062
:100A1000194002460B46DDE902018B4208BF8242C3
:100A20004FF0000B0AD0134B1B7804930134049B46
:100A3000E4B29C4299D307B0BDE8F08F059A57689D
:100A400052780023A2F10102B2FA82F25209002F79
:100A5000E9D05B4506BF5245012100213046CDF863
:100A600014C0B847034BDDF814C01B78049377E734
:100A7000704700BF9C090020C8090020C009002061
:100A8000980900202DE9F8430746204800F06CFD46
:100A9000D0B91F4E0123A7F1200103FA01F5C7F1D8
:100AA0002002D6E9000123FA02F2154303FA07F403
:100AB00004EA000205EA0103134307D020EA040414
:100AC00021EA0505C6E90045BDE8F883384601F08E
:100AD00007F8104FD7E9002398B144EA020845EA25
:100AE0000309D6E9002314431D43C7E90089C6E979
:100AF00000450949054809680022BDE8F84300F0AF
:100B0000DFBC22EA040823EA0509EAE7A00900207D
:100B1000C8090020C009002094090020F0B5042A6B
:100B200083B0164602D8072003B0F0BD05460F4635
:100B300000F076FE002836D01D4BDFF88CC0DFF8C1
:100B40008CE01C481C491D60002200237C1E8CF890
:100B50000070CEF80060C0E90023C1E90023E4B2D0
:100B6000DFB10327002600E01C4623B205EBC302D9
:100B700015F833009378114A8DF8053001A98DF8E6
:100B800004708DF806608DF8076000F053FE631E58
:100B90000028C9D1DBB2002CE6D1094A094800215E
:100BA00000F07CFCC0E700F0F5FD0028C4D0BBE7F6
:100BB00098090020C0090020C8090020850A00000B
:100BC00045090000F45302009C090020940900200C
:100BD00070B5084D2B785BB1074E002433680121B6
:100BE00013F8340000F000FF2B780134A342F5D84D
:100BF000002070BD9C0900209809002000B585B038
:100C000000230390194644F2010001AAADF8043014
:100C1000029300F003F805B05DF804FB08B501206D
:100C20000949FFF7AFFD03200849FFF7ABFDBFF30C
:100C30004F8F0749074BCA6802F4E0621343CB6049
:100C4000BFF34F8F00BFFDE7F853020008540200C6
:100C500000ED00E00400FA05F8B5204A204B00251D
:100C6000C2F84051C2F84451C2F84851C2F84C5140
:100C7000C2F80051C2F804511B6813B31949D2F8E5
:100C800004250C68141B1A6824F07F44A2422F46E6
:100C900009D8197CDE69A41A154499B91EB13346E6
:100CA0001A68A242F5D9104B10491A780B789A426B
:100CB0000DD00F490F4A41F823504FF48013C2F86A
:100CC0000031F8BD1F745A6998699047E6E7531CD4
:100CD000DBB2022B08BF00230B70EAE700100140D3
:100CE000D4090020D0090020D8090020D90900200B
:100CF000E80A002000E100E02DE9F04F7D4A7E493E
:100D0000137809787D48994287B0066800F0E88139
:100D10000133DBB2022B08BF002379491370794AF3
:100D20000291084652F82310036874488A19002576
:100D300022F07F420260AE462846A3B11A688A427A
:100D400000F2D681DC68C3F800E0891A1044DA6941
:100D500034B1871927F07F47DD619C605F601D46D5
:100D60001346002BEAD1029A04931360049C0123DA
:100D70000593654BDFF894811B7801935F4BDFF897
:100D800090C1D3F800A0029B1F680023BB462F46EA
:100D90000093C1461E464FF0010E37B37A68B9681A
:100DA0003D46FF69CAEB020323F07F4363453CD80D
:100DB0000B442B606E60AE6085F810E0EE61002C95
:100DC00067D021688B4242D9204603E011689942DE
:100DD00044D21046C2695B1A002AF7D12B60EA613F
:100DE0002346C5611C46002FD8D198F8003098F8EA
:100DF00001209A4200F08E805A1C03EB430308EB5B
:100E0000C30399F802109D68D2B2914289F800207C
:100E10001A7908BF89F80070022A48D0032A3CD00A
:100E2000012A22D023461C46DDE7C2EB0A0222F04B
:100E30007F428A4202D28B1A2B60BBE72E606E6023
:100E4000AE6085F810E0EE611CB321680023CB1A78
:100E500023602B46EC61AB461C46C4E7C91A1160FF
:100E60002B60EA612346C561BCE72A7C0392002A15
:100E7000D8D1DA686A601969A9605869E8601033E6
:100E80009B68AB61019B002B8CD0039B6B601A4667
:100E900088E72B46AB461C46A5E70CB9C2E71C46C3
:100EA000E3692674002BFAD19B461C469BE754B19C
:100EB000A54200F00881234602E0954207D0134680
:100EC000DA69002AF9D123462E741C468BE7AB421F
:100ED00000F0FA80E9692868D9610029F3D0234637
:100EE0000A6802440A60009A2E749C4218BF0122CC
:100EF0000092EAE7D8090020D9090020D009002093
:100F0000D4090020E80A0020DA090020DC090020CA
:100F1000FEFF7F00029B9DF80420C3F800B0764BD3
:100F2000C3F800A0754B1A70009B1BB9049BA34229
:100F300000F0D081002C00F03C81714D6E4BD5F853
:100F400004051B686F4ED4F800C03178C21A22F035
:100F50007F420332002952D16B4FDFF8B091DFF8A6
:100F6000B0814FF480314FF4003E0124C5F84413A2
:100F7000C5F80413C7F880E1C7F800E02C602F2102
:100F8000D9F8005000BF00BF00BF00BF00BF00BFC6
:100F900000BF00BF45452FD000BF00BF00BF00BF4E
:100FA00000BF00BF00BF00BF00BF00BF00BF00BF49
:100FB00000BF00BF00BF00BF00BF00BF00BF00BF39
:100FC00000BF00BF00BF00BF00BF00BF00BF00BF29
:100FD00000BF00BF00BF00BF00BF00BF00BF00BF19
:100FE00000BF00BF00BF00BF00BF00BF00BF00BF09
:100FF00000BF00BF00BF00BF0139C3D134706245DC
:101000002CBF9A1803EB0C023D4922F07F43C1F834
:101010004035D1F80425121A1B1A22F07F4223F022
:101020007F4303329A4248D9D1F80435374AC1F890
:101030004035126836492F2300BF00BF00BF00BFF4
:1010400000BF00BF00BF00BF8A422FD000BF00BF5B
:1010500000BF00BF00BF00BF00BF00BF00BF00BF98
:1010600000BF00BF00BF00BF00BF00BF00BF00BF88
:1010700000BF00BF00BF00BF00BF00BF00BF00BF78
:1010800000BF00BF00BF00BF00BF00BF00BF00BF68
:1010900000BF00BF00BF00BF00BF00BF00BF00BF58
:1010A00000BF00BF00BF00BF00BF00BF013BC3D1F6
:1010B000154B4FF40032C3F80021104A002313707F
:1010C00007B0BDE8F08F2246D4F81CB0BBF1000F8A
:1010D00022D0D16910685B4600297FF401AF02E796
:1010E0000C4B02931B680493002505951C4640E6B3
:1010F000521A1A6037E600BFD0090020DA09002032
:1011000000100140F00A002000E100E0FC0800208F
:101110000024F400D40900207549764BC1F808E09A
:1011200075492F20096800BF00BF00BF00BF00BF86
:1011300000BF00BF00BF99422FD000BF00BF00BF5B
:1011400000BF00BF00BF00BF00BF00BF00BF00BFA7
:1011500000BF00BF00BF00BF00BF00BF00BF00BF97
:1011600000BF00BF00BF00BF00BF00BF00BF00BF87
:1011700000BF00BF00BF00BF00BF00BF00BF00BF77
:1011800000BF00BF00BF00BF00BF00BF00BF00BF67
:1011900000BF00BF00BF00BF00BF0138C3D1D1698D
:1011A0001068002900F09B800122DA465B4601921C
:1011B00096E64F4A514B504E4E484FF480314FF413
:1011C00000370125C3F88070C2F848132F23C2F8F6
:1011D0000813556031681E4600BF00BF00BF00BF46
:1011E00000BF00BF00BF00BF81422FD000BF00BFC3
:1011F00000BF00BF00BF00BF00BF00BF00BF00BFF7
:1012000000BF00BF00BF00BF00BF00BF00BF00BFE6
:1012100000BF00BF00BF00BF00BF00BF00BF00BFD6
:1012200000BF00BF00BF00BF00BF00BF00BF00BFC6
:1012300000BF00BF00BF00BF00BF00BF00BF00BFB6
:1012400000BF00BF00BF00BF00BF00BF013EC3D151
:1012500095602B4A146000BF00BF00BF00BF00BFF5
:1012600000BF00BF00BF81422FD000BF00BF00BF42
:1012700000BF00BF00BF00BF00BF00BF00BF00BF76
:1012800000BF00BF00BF00BF00BF00BF00BF00BF66
:1012900000BF00BF00BF00BF00BF00BF00BF00BF56
:1012A00000BF00BF00BF00BF00BF00BF00BF00BF46
:1012B00000BF00BF00BF00BF00BF00BF00BF00BF36
:1012C00000BF00BF00BF00BF00BF013BC3D10D4B3B
:1012D0001C70F2E6059B002B3FF4EFAE2AE60123DB
:1012E0001A4601938A468B460B4600922E74ECE513
:1012F000001001400024F400FC08002000E100E0A0
:10130000D0090020F00A00202DE9F041594B5A4A3B
:101310005A4D5B4E4FF480344FF400310120C2F837
:101320008010C3F848432F21C3F8084358602D6844
:101330000C4600BF00BF00BF00BF00BF00BF00BF22
:1013400000BFB5422FD000BF00BF00BF00BF00BF2D
:1013500000BF00BF00BF00BF00BF00BF00BF00BF95
:1013600000BF00BF00BF00BF00BF00BF00BF00BF85
:1013700000BF00BF00BF00BF00BF00BF00BF00BF75
:1013800000BF00BF00BF00BF00BF00BF00BF00BF65
:1013900000BF00BF00BF00BF00BF00BF00BF00BF55
:1013A00000BF00BF00BF013CC3D1364C9860002095
:1013B000206000BF00BF00BF00BF00BF00BF00BF74
:1013C00000BFB5422FD000BF00BF00BF00BF00BFAD
:1013D00000BF00BF00BF00BF00BF00BF00BF00BF15
:1013E00000BF00BF00BF00BF00BF00BF00BF00BF05
:1013F00000BF00BF00BF00BF00BF00BF00BF00BFF5
:1014000000BF00BF00BF00BF00BF00BF00BF00BFE4
:1014100000BF00BF00BF00BF00BF00BF00BF00BFD4
:1014200000BF00BF00BF0139C3D1174D1749DFF816
:101430006080DFF860C0DFF860E028704FF480164D
:10144000E0250B27C8F800008CF800008EF800009B
:10145000087048708F70C2F8806182F8145316606B
:10146000C3F8080582F81153D3F804352360BDE8AA
:10147000F08100BF0010014000E100E0FC08002006
:101480000024F400D0090020F00A0020DC0900202C
:10149000D4090020D8090020D9090020074B9B78E7
:1014A0000BB9082070473AB130B10368187C0028A6
:1014B000F7D159745A61704707207047DC09002042
:1014C0002DE9F041254CA37813B90820BDE8F0813F
:1014D0000028FAD0042902D80720BDE8F08143692A
:1014E000002BF2D0437C0546012B4FF000000CBFCF
:1014F0008846804617460E4600F06CF86378A07860
:1015000021785A1CD2B2904208BF002291421ED0CC
:1015100003EB430304EBC30319464FF0010E41F8FC
:10152000085F0F4883F804E0D0F8040548608E6037
:101530000020C3F814809F61627000F053F8094BDB
:101540004FF48012C3F800210020BDE8F081002094
:1015500000F048F80420BDE8F08100BFDC0900205D
:101560000010014000E100E070B5184CA3780BB901
:10157000082070BD0028FBD04369002BF8D000255F
:1015800005740646284600F025F86278A078217890
:10159000531CDBB2984208BF2B46994211D002EB94
:1015A000420204EBC2020221284696601171637068
:1015B00000F018F8064B4FF48012C3F800212846BB
:1015C00070BD284600F00EF8042070BDDC09002034
:1015D00000E100E072B6024A1368013313607047FD
:1015E000F40A0020034A1368013B136003B962B692
:1015F000704700BFF40A002010B50C4C23780BB1E3
:10160000852010BD0A4A6360E3601068A36010F093
:101610000100236102D1072100F094F84FF08042CD
:101620000123C2F818352370002010BDF80A0020ED
:1016300000E100E030B51B4DAB78044683B003F009
:10164000FF0073B114B16368012098470020FFF7D1
:10165000C1FFEB6800200133EB60FFF7C3FF03B06D
:1016600030BDFFF7B7FF64B12A6942B1944208D098
:10167000134601E09C4204D01B68002BFAD1226083
:101680002C61EB68002BE4D1074A0849136013680A
:1016900001934FF0804202200123019CC2F8040311
:1016A0000B60D6E7F80A0020040100400800004063
:1016B0004FF08043D3F81804C0F30040704700BFD8
:1016C00010B51D4B1A6882B0F2B91C4B1A680AB9E2
:1016D00002B010BD00221A601B6801934FF08043D6
:1016E0000222174C0199C3F8082323690122A27032
:1016F000002BEDD01A6822615B68012098472369AE
:10170000002BF7D102B010BD00221A601B680093B5
:101710004FF0804301220A4C0099C3F80823A368C4
:101720006270002BD1D01A68A2605B6800209847D5
:10173000A368002BF7D1C8E7000100400401004076
:10174000F80A0020002810B418DB00F1604303F50C
:1017500061434901C9B283F80013C3B24009800054
:1017600000F1604000F5614003F01F020123934047
:10177000C0F8803103605DF8044B7047C3B2044A7F
:1017800003F00F0449012244C9B21176E6E700BF15
:10179000FCEC00E030B51F4C94F8645083B015B1F8
:1017A000082003B030BD4FF0FF33FF220620072191
:1017B00023636363A363E36323646364A364E364F5
:1017C00023656365A365E36523606360A360E360ED
:1017D00023616361A361E361236284F86030636223
:1017E000A36284F86230E36284F8633084F8612095
:1017F000FFF7A8FF084B094A1D601B680193019879
:101800004FF000430121284684F86410C2F80433E5
:1018100003B030BD0C0B00207C6100400060004034
:10182000034B93F86400003018BF0120704700BFDD
:101830000C0B0020F0B56A4C251895F93030002BC0
:1018400001DB0820F0BD91F803E09446BEF1000FE3
:1018500056D02368013300F0BB80082600256B1C9E
:101860005F4F54F82320013251D0AB1C9E4245D922
:1018700057F8232001324AD0EB1C9E423ED957F83C
:101880002320013243D02B1D9E4237D957F8232005
:1018900001323CD06B1D9E4230D957F8237001377E
:1018A00035D0AB1D9E4229D954F823204C4F01322C
:1018B0002DD0EB1D9E4221D957F82320013226D08E
:1018C00005F108039E4219D957F8232001321ED092
:1018D00005F109039E4211D957F82320013216D091
:1018E00005F10A039E4209D957F8237001370ED03B
:1018F0000B35AE4202D9E36A013307D00420F0BDB4
:10190000236A01335CD00C260825A8E70B23261890
:10191000DDB244F823C0324686F83050BEF1000FE5
:1019200002D1234483F858008B78DBB91F284A780A
:1019300087BF2C4E00F01F0303464FF0A04603F56F
:10194000E073920046F82320CB78E3B96AB2083AF4
:101950001444097894F8602042EA811284F86020E7
:101960001846F0BD1F2887BF1E4B00F01F0202461D
:101970004FF0A04303EB8203D3F8002722F00202CA
:10198000C3F80027E0E76BB29B0003F1804303F547
:10199000C0430A78D3F8101521F44F3121F4407177
:1019A000C3F810151204000202F44031D3F81045B8
:1019B00000F47C520A432243C3F810250020F0BDF6
:1019C000082685F830603346C4F820C03546A8E7BD
:1019D000002385F83030C4F800C01D46A4E700BFDE
:1019E0000C0B002000030050F0B43A4D2E1882B0CA
:1019F00096F8302053B2072B20DD2B4493F8583053
:101A00009B09032B44D0012B0CBF4FF400324FF441
:101A100040321F2849D900F01F002F4B03EB8000F4
:101A2000D0F8003723F44033C0F80037D0F800373F
:101A30001A43C0F8002702B0F0BC7047072AFAD852
:101A4000980000F1804000F5C04003F14002920090
:101A5000D0F8104592B202F18042002744F0010410
:101A600002F5C042C0F8104501970198176000299F
:101A7000E1D096F9302055F82220002ADBD001224F
:101A8000164902FA03F3C1F8043302B0F0BC704700
:101A90001F280DD9104BD3F8103500F01F00C3409C
:101AA000DB0713D54FF44032B7E74FF0A043B5E75B
:101AB0004FF0A0421346D2F81025C24012F0010F99
:101AC0000CBF4FF400324FF44032A7E74FF400321E
:101AD000A3E700BF0C0B0020000300500060004093
:101AE0001F288ABF054B4FF0A04300F01F00D3F81A
:101AF000103523FA00F000F0010070470003005099
:101B00002DE9F04F89B00025B24B029503951A6874
:101B1000012A00F05081B04B1A68012A00F03D8183
:101B2000AE4B1A68012A00F02A81AD4B1A68012ACF
:101B300000F01781AB4B1A68012A00F00481AA4B10
:101B40001A68012A00F0F180A84B1A68012A00F0F7
:101B5000DE80A74B1A68012A00F0CB80A54B1A68DB
:101B6000012A00F0B58015F0FF0F1AD0A24F012610
:101B70000024A30003F180432E4203F5C0434FEA43
:101B800046060BD0D3F8100557F82420D3F81015CB
:101B9000C0F30520C1F3014102B190470134082C84
:101BA000E7D1002D02DB09B0BDE8F08F934F002292
:101BB0004FF0FF33A7F16309049205920693079350
:101BC0008F4C4FF0000A4FF0010814F8013FFF2B33
:101BD00030D0DBB223F0C00008AAC608951903F084
:101BE000070215F8081C08FA02F2114222D009EB8C
:101BF000000E99099EF930E059F82EC0BCF1000F93
:101C000056D0032956D01F288ABF03F01F06064668
:101C1000DFF8F0E115F818BC98BF4FF0A04E06F5BC
:101C2000E0761BEA020F5EF82650C5F301451AD193
:101C3000032D48D0BC42C8D1BAF1000FB3D04FF049
:101C4000A0430299D3F810356E4A9942D2F8102574
:101C500002D103999142A6D0049805990293039268
:101C600006900791ACE7022DE4D1032904D0BCF122
:101C7000000FDFD0E047DDE74FF440321F288BBF75
:101C8000604D4FF0A04503F01F03034605EB8303AF
:101C90000AF1010AD3F8005725F44035C3F800577C
:101CA000D3F800572A435FFA8AFAC3F80027DEE721
:101CB0000329BFD10DF1100B1BF806E04EEA020E0E
:101CC0000BF806E09FE70329D1D14FF40032D5E7A6
:101CD00000221A601B6801934FF0A042019BD2F8CA
:101CE0001025484B0292D3F81035039345F0004578
:101CF00039E7454AD2F8042312067FF52FAF0022B8
:101D00001A601B680093009B45F0800526E73E4A59
:101D1000D2F8042351067FF51CAF00221A601B681D
:101D20000093009B45F0400513E7374AD2F804239F
:101D300090067FF509AF00221A601B680093009B94
:101D400045F0200500E7304AD2F80423D4067FF599
:101D5000F6AE00221A601B680093009B45F0100548
:101D6000EDE6294AD2F8042316077FF5E3AE0022F8
:101D70001A601B680093009B45F00805DAE6224ACA
:101D8000D2F8042357077FF5D0AE00221A601B68F3
:101D90000093009B45F00405C7E61B4AD2F80423D4
:101DA00092077FF5BDAE00221A601B680093009B6E
:101DB00045F00205B4E61449D1F8041311F001010D
:101DC00005D01D601B680093009B1546A3E60D46D9
:101DD000A1E600BF006100400461004008610040CE
:101DE0000C61004010610040146100401861004027
:101DF0001C6100407C6100400C0B00206F0B002038
:101E00006B0B002000030050006000400220FEF732
:101E10004FBD00BF2DE9F0470D460646FEF780FD99
:101E2000032804461DD8012D1FD00ED3022D1AD130
:101E30001C4B00EB40041C44657895B11A4B1B68A1
:101E40007BB12846BDE8F04718471848FFF78CFBE0
:101E50001449174A04EB44030B44155D9B789D42DB
:101E6000EBD0BDE8F087BDE8F087DFF838804700A9
:101E70003B1808EB030218F8035053782BB927449A
:101E800047440B4BBA781A55D7E7DFF82890074834
:101E90004A464FF40041FFF713FB0028EFD189F8C1
:101EA0000060ECE7F00B0020A40B0020A80B002042
:101EB0009C0B0020EC0B002010B50078FEF730FDE5
:101EC00003280BD8064B00EB40001844407828B19B
:101ED000044B1B6813B1BDE81040184710BD00BF8C
:101EE000F00B0020A40B0020B34B1B68DB0700D4D1
:101EF000704770B5B14EB24D33782C78FBB9172CC2
:101F00001CD8DFE814F0F10014011401630076001E
:101F1000830096005D0039002C0039002C00A300DE
:101F2000A800A800A800A800A800CE00DE000101BB
:101F3000460018001800FEF7A5FC2C7070BDA14BE0
:101F40001B7800203070002B00F00581FEF772FC3A
:101F50000120FEF76FFC0320FEF76CFCCFE70123A6
:101F600018463370FEF7A4FC97484FF480410022D6
:101F7000BDE87040FFF7A4BA012318463370FEF79E
:101F800097FC914840F6CD410022BDE87040FFF734
:101F900097BA8C4B1B78002B00F0FE800020FEF7D8
:101FA00049FC0120FEF746FC0320FEF743FC00201D
:101FB000FEF72CFC0120FEF729FC15232B7070BDC9
:101FC0000020FEF723FC07232B7070BD0020FEF7D6
:101FD00007FC002800F0D3800020FEF72BFC46F21F
:101FE000666103232B7078480022BDE87040FFF73C
:101FF00067BA0020FEF7F4FB002800F0C58000203F
:10200000FEF718FC4FF400310423EBE70020FEF745
:10201000E7FB002800F0BD800020FEF70BFC052345
:102020002B70694841F69A110022BDE87040FFF715
:1020300047BA0020FEF73CFC06232B70624840F6AE
:10204000CD410022BDE87040FFF73ABAFEF71AFC16
:102050000C232B7070BD5D48FFF786FAD4F1110494
:1020600005467BD0002879D1012C13D0C82303FB6F
:1020700004F44FF4FA704FF400430021C3FB040151
:102080004FF47A72002321F06FFC2A4601464F4834
:10209000FFF716FA0220FEF7B9FB4A4B01221A702D
:1020A00070BD484B1B78002B79D00020FEF7C2FB97
:1020B0000120FEF7BFFB0320FEF7BCFB12232B70B1
:1020C00070BD404B1B78002B6FD00020FEF7B2FB99
:1020D0000120FEF7AFFB0320FEF7ACFB0020FEF76C
:1020E00095FB13232B7070BD364B1B78002B59D0FA
:1020F0000020FEF79FFB0120FEF79CFB0320FEF76C
:1021000099FB00232B7070BD2E4B1B78002B4FD0FA
:102110000020FEF78FFB0120FEF78CFB0320FEF76B
:1021200089FB0120FEF772FB14232B7070BD002089
:10213000FEF756FBC8B10020FEF77CFB022C4EF2E6
:10214000666118BF4FF400312C701F480022BDE8B3
:102150007040FFF7B5B9FEF77FFBD0E60220FEF72F
:1021600069FB184B00221A7070BDFEF74FFB41F659
:102170009A1343F23331022C08BF1946E4E7FEF705
:1021800045FB41F69A112CE7FEF740FB43F2333151
:102190003AE7FEF73BFB42E7FEF75EFB07E7FEF799
:1021A0005BFB8BE7FEF758FBABE7FEF755FB95E7CC
:1021B000FEF752FBB5E700BF980B0020A00B0020F4
:1021C000C80B0020940B0020740B0020CC0B0020C7
:1021D00038B5C44B1B6813F0010401D1204638BD4B
:1021E000C14C23780546E3B9172D00F27881DFE86A
:1021F00015F00B013101310169007D009100A5004E
:102200005B003500280035002800B300BA00BA0092
:10221000BA00BA00BA00E300F6001C0142006300F5
:102220006300B24B1B7800202070002B00F0278148
:10223000FEF700FB0120FEF7FDFA0320FEF7FAFA95
:10224000D2E7012318462370FEF732FBA8484FF46B
:1022500080410022BDE83840FFF732B9012318461B
:102260002370FEF725FBA24840F6CD410022BDE8D1
:102270003840FFF725B99D4B1B78002B00F02081DB
:102280000020FEF7D7FA0120FEF7D4FA0320FEF76C
:10229000D1FA0020FEF7BAFA0120FEF7B7FA954B03
:1022A00015221A70002499E70020FEF7AFFA914B2F
:1022B00007221A70002491E7FEF7E4FA8D4B002400
:1022C0001D708BE70020FEF78BFA002800F0E180FC
:1022D0000020FEF7AFFA46F26661864B844803247D
:1022E0001C700022BDE83840FFF7EAB80020FEF776
:1022F00077FA002800F0DC800020FEF79BFA4FF40C
:1023000000317C4B7A4804241C700022BDE8384020
:10231000FFF7D6B80020FEF763FA002800F0CD8062
:102320000020FEF787FA734B714805241C7041F6B4
:102330009A110022BDE83840FFF7C2B80020FEF72E
:10234000B7FA6C4B6A4806241C7040F6CD41002257
:10235000BDE83840FFF7B4B8FEF794FA654B0C229D
:102360001A7000243AE76448FFF7FEF8D5F111052A
:10237000044600F08780002840F08480012D14D0AE
:10238000C82303FB05F54FF4FA704FF40043002116
:10239000C3FB05014FF47A72002321F0E5FA2246CF
:1023A00001465548FFF78CF804460220FEF72EFA46
:1023B0004E4B01221A7011E74C4B1B78002B00F09A
:1023C00082800020FEF736FA0120FEF733FA032060
:1023D000FEF730FA474B12221A700024FEE6434BF8
:1023E0001B78002B75D00020FEF724FA0120FEF7A1
:1023F00021FA0320FEF71EFA0020FEF707FA3D4BF4
:1024000013221A700024E9E6384B1B78002B5DD0AC
:102410000020FEF70FFA0120FEF70CFA0320FEF76A
:1024200009FA344B00241C70D8E6304B1B78002B83
:1024300052D00020FEF7FEF90120FEF7FBF9032041
:10244000FEF7F8F90120FEF7E1F92A4B14221A7081
:102450000024C3E60020FEF7C3F9F8B10020FEF720
:10246000E9F9022D4EF2666118BF4FF40031214B9D
:102470001F481D700022BDE83840FFF721B8FEF765
:10248000EBF9B1E60220FEF7D5F9184B00221A70DD
:10249000A4E6FEF7BBF941F69A111EE7FEF7B6F97E
:1024A00041F69A1343F23331022D08BF1946DEE795
:1024B000FEF7ACF943F2333123E7FEF7A7F932E731
:1024C000FEF7CAF9E5E6FEF7C7F983E7FEF7C4F9B8
:1024D000A7E7FEF7C1F98FE7FEF7BEF9B2E70024E0
:1024E0007CE600BF980B0020A00B0020940B00207E
:1024F000740B0020C80B0020CC0B0020F0B5214A43
:10250000214B1060044610F0020083B0196015D012
:102510001E4B1F484FF00E0E0F27102611250421C9
:1025200040F2666283F800E0DF709E715D72FEF734
:10253000F5FAA0B1E3071DD403B0F0BDE20719D44A
:102540001448154A0021FEF7A9FF0028F4D11348CA
:10255000134A012103B0BDE8F040FEF79FBFFEF72C
:1025600037FB0028E6D101460E4A0F48FEF796FFDA
:10257000E10703D50190FEF7B5F901980028DFD0F7
:1025800003B0F0BD980B0020A40B0020F00B00203E
:102590002C54020028540200E91E00004C54020092
:1025A0000D1E0000B91E000024540200420700D492
:1025B000704708B5084601F0BFF888B1831E022BAA
:1025C0000A4A06D9062313701846BDE80840FFF7EB
:1025D000FFBD072313701846BDE80840FFF7F8BD9C
:1025E000024A1070BDE80840FFF7F2BD0A0C002057
:1025F00008B51C4B1B78032B27D8DFE803F021120A
:1026000007020120BDE80840FEF700B90120FEF7EF
:102610004FF9154840F6CD410022BDE80840FEF7CD
:102620004FBF0120FEF7DCF880B90120FEF7EEF87D
:1026300041F69A110C480022BDE80840FEF740BF61
:102640000120BDE80840FEF7F5B808BD0120FEF7FF
:10265000F1F846F2666104480022BDE80840FEF742
:102660002FBF00BF090C00202C0C002008B51B78E0
:10267000802B00D008BD0D4B072201201A70FEF7F9
:10268000AFF868B10020FEF7D5F80120FEF7D2F8C8
:10269000074841F69A110022BDE80840FEF710BF36
:1026A000FEF7B4F80120FEF7B1F8F1E7080C0020BE
:1026B0000C0C002008B52C4A1378013BDBB21370D8
:1026C00083B10120FEF78CF8A0B9FEF79FF8012036
:1026D000FEF79CF8254841F69A110022BDE8084013
:1026E000FEF7EEBE224B1B78032B0DD8DFE803F07C
:1026F000121B2B090020FEF79DF80120FEF79AF827
:10270000E8E70120FEF782F81A4B1878BDE8084088
:10271000FFF75EBD0120FEF78DF8164B1878BDE877
:102720000840FFF755BD0120FEF75AF8A8B1012077
:10273000FEF780F846F266610F480022FEF7C0FE01
:102740000028E1D008BD0120FEF7B2F840F6CD41E7
:1027500000220948FEF7B4FEF2E70120FEF756F822
:1027600041F69A11E8E700BF080C00200C0C00208D
:10277000090C00200A0C00202C0C0020F8B51A4E81
:102780001A4B1B4F002421460C22054630461C7074
:102790003C70FDF7D7FD2146164B1748174A3360AA
:1027A000FEF77CFE044660B1284615492A4600F033
:1027B00001FE98B928460C4900F094FD40B9204626
:1027C000F8BD01460F4A1048FEF768FE0446EBE7E5
:1027D0000E480F4A0F4BE62121F09CFB0B480C4A98
:1027E0000D4BE52121F096FBFC0B0020090C00208D
:1027F0000A0C00206D26000050540200F125000054
:10280000AD250000B52600005454020068540200B3
:10281000585402000C550200B0540200420770B533
:1028200004460D4612D4230605D50F4800228260C7
:102830004260C2600261284600F07EFF22460346E5
:102840000A490320BDE87040FDF7BABF084600F012
:1028500073FF02380228E6D9034900228A604A60E1
:10286000CA600A61DFE700BF4C0C0020645502001B
:1028700003200149FDF786BF9C55020070B5B4B036
:10288000032205468DF80F1010A8102100F0EEFC71
:102890001F4910A800F0EEFC10A800F0EDFC28463F
:1028A00010A900F0EBFC68B30DF10F010122064600
:1028B00000F0E4FE044648B1224616490320FDF725
:1028C0006FFF304600F0D6FE34B070BD21462C229A
:1028D00005A8FDF737FD012241F2336309A90E482F
:1028E0008DF83820ADF8363000F097FD009423467F
:1028F00005AA2846314600F0CAFC04460028DBD170
:1029000034B070BD03200549FDF73CFF34B070BD05
:10291000E85502002C56020024560200F055020031
:1029200038B50D4C9DF81050206842F2107100F03F
:10293000B1FD55B12A4603200849FDF731FF0022B9
:10294000A2606260E260226138BD03200449BDE8F4
:102950003840FDF717BF00BF4C0C00208056020026
:102960005456020070B582B0164E9DF8184030687B
:1029700042F21071154600F08DFD6CB9284600F04A
:102980007BFE0DF1070201460123284600F078FE88
:10299000012808D002B070BD224603200A49FDF785
:1029A000FFFE02B070BD9DF80730012BF2D1284622
:1029B00000F062FE411C89B22846321D102300F04F
:1029C0005FFEE7E74C0C0020A8560200F0B50E3879
:1029D000B3B003280FD8DFE800F066024710604B61
:1029E000197D186881F001011975002900F08B80AC
:1029F0000121FFF743FF33B0F0BD594C01220EA86F
:102A00001021256800F032FC0EA8022100F030FCF5
:102A100054490EA800F02EFC28460EA900F02EFC0A
:102A20000646D0B100212C2203A8FDF78BFC012221
:102A300041F2336307A94C488DF83020ADF82E30B1
:102A400000F0EBFC03AA009528463146474B00F006
:102A50001EFC10B1304600F00DFE20684FF4FA71F4
:102A600000F018FD33B0F0BD3D4C206800F021FEB1
:102A7000014611F001004FF0A0424FF4004346D14F
:102A8000C2F80C350123C2F8080563F30001206881
:102A900000F037FE0028AED03548364A364B4FF4AA
:102AA000AE7121F037FA2E4C3449201D00F0B3FCF2
:102AB0000028A0D10322014602250EA88DF80B5054
:102AC000266800F0D3FB29460EA800F0D1FB2C4964
:102AD0000EA800F0CFFB0EA800F0CEFB30460EA9EA
:102AE00000F0CCFB0546C8B10DF10B01012200F04E
:102AF000C5FDC0B1024623490320FDF751FE28461B
:102B000000F0B8FDA9E7FFF7B9FE33B0F0BD002033
:102B1000C2F808350346C2F80C05B6E703201A4987
:102B2000FDF730FE99E701462C2203A8FDF70AFCC9
:102B3000012741F23363211D102207A8ADF82E3082
:102B40008DF8307021F024FA03AA00963046294609
:102B50000E4B00F09CFB00283FF47FAFCAE700BF9C
:102B60004C0C002018570200245602006529000072
:102B7000C8560200D4580200D8560200545502002C
:102B8000E85502002C560200F055020021290000F1
:102B900000B5002083B0FDF7E3FD002001460FF0F3
:102BA0007CFC00F0F5FB0546002800F0C18000F039
:102BB000C7FD6A4902460320FDF7F2FD284600F0F2
:102BC000B7FD674902460320FDF7EAFD284665493F
:102BD0002A4600F0EFFB002840F0A380284600F0D2
:102BE00065FB70B928460B2100F01CFC002840F062
:102BF000AD8028464AF6CD3100F030FC002840F088
:102C00009E80002101A80122FDF79CFB9DF8043065
:102C100003F0FE0343F00203194628468DF8043002
:102C200000F06FFD002875D1284642F2107100F0C7
:102C300031FC2846282100F037FD2846012100F00C
:102C4000D8FB00285FD12846012100F07DFD002837
:102C500052D1454C284641F23361256000F01CFBFF
:102C60000246002841D12068404900F01AFBFEF7D7
:102C70004BFB002836D103203D49FFF73FFC70BBDA
:102C80002068FFF77BFD38BB00234FF4F0314FF095
:102C9000A045032007E041FA03F2D20744BF03F541
:102CA000E07245F822000133202BF4D14FF0A0430D
:102CB0004FF4F0310022C3F80815C3F80C25206842
:102CC00000F0E5FC20680FF0FBFB206800F0E4FC5E
:102CD0000028F4D120BFF2E7FDF790FFD4E7FDF71D
:102CE0008DFFCDE7FDF78AFFC5E72248224A234B37
:102CF00040F2931121F00EF91E48214A214B4FF466
:102D0000C67121F007F91B481D4A1F4B40F28B1179
:102D100021F000F917481A4A1C4B4FF4C37121F0F7
:102D2000F9F81448164A1A4B4FF4BD7121F0F2F825
:102D30001048134A174B40F2751121F0EBF80D487B
:102D40000F4A154B40F27F1121F0E4F809480C4A74
:102D5000124B4FF4BF7121F0DDF800BF3457020071
:102D6000505702001D2800004C0C00207128000064
:102D7000CD290000C8560200F45802008C58020009
:102D8000E85802005458020020580200E857020098
:102D9000B054020028570200AC5702006C570200E2
:102DA0002DE9F84F43001F18DFF880B1FF000BEB4F
:102DB00007048846E16A0129164644D034D3022923
:102DC0003CD1013000EB4000656A0BEBC0094FF0CD
:102DD000000A1DE0126A641BB4422346A2EB0504FC
:102DE00028BF33469C42D9F8040028BF1C4622461F
:102DF0002844414621F0CCF80BEB070325441A6A1E
:102E0000954208BF0025361BA244A0445D6217D03E
:102E10000BEB0702936AAB4203F1FF34DAD8126A74
:102E20001344013B5C1BD7E7A16A626A91429CBFD5
:102E3000246A091901398A1A964238D94FF0000AD2
:102E40005046BDE8F88FA16A656AA94229D90139BF
:102E5000226AC5EB010A03440BEBC30B0BF1200BF9
:102E6000DBF80450314BB24528BFB246561B013047
:102E7000B24500EB40003FD303EBC004414660681D
:102E800032462844C6EB0A0521F082F8606808EB58
:102E900006012A4621F07CF8CBF804505046BDE8E4
:102EA000F88F226A8C18013CC5EB040AD3E703446F
:102EB0000BEBC30B0BF12007DBF82040D7F8049095
:102EC0001A4BC9EB04040130A64200EB40001FD3AB
:102ED00003EBC0054146686822464844C4EB060936
:102EE00021F056F8686808EB04014A4621F050F8D2
:102EF000B246C7F80490A3E703EBC0034146586805
:102F000052462844554421F043F8CBF8045097E743
:102F100003EBC003414658683246484421F038F874
:102F200006EB09037B60B2468AE700BF74AC002061
:102F30002DE9F04F344C94F800E083B00546884604
:102F400017461E46BEF1000F2ED02369DFF8B8A049
:102F5000AB4256D94FF000094846CDF80490FEF731
:102F600039FB6DB929460D4404EBC5040C9BE362A3
:102F70000020019BFEF736FB002003B0BDE8F08F78
:102F80006B1C690003EB4303DB004A190AEBC20226
:102F90000AEB030EC2F828904AF80380CEF80470BA
:102FA0001662C2F82490DEE7184BDFF86CB0DFF849
:102FB0006C90C4F828E04FF0100C4FF4007A022215
:102FC000C4F824E0A361C4F858E0A3641049C4F82D
:102FD0002CE0C4F85CE0C4F854E0C4F850C0E01D34
:102FE000C4F81CB0C4F820A0C4F84C9022616261FF
:102FF00021F0AAFB2046074921F0A6FB2023A3715C
:10300000A3E74FF0FF30B8E774AC0020005902008E
:103010000C59020010590200740C0020640C0020AE
:10302000F8B5134C23780BBB124ADFF858C0124F87
:10303000A3624FF4007E10266362E362A365E3653A
:10304000636502250D49A261A264C4F81CC0C4F8DE
:1030500020E0E01DE76426652561656121F074FBD1
:103060002046074921F070FB2023A371F8BD00BF63
:1030700074AC002000590200640C00200C590200BE
:1030800010590200740C00200649074A074B9B1A8E
:1030900003DD043BC858D050FBDC00F013F8FDF70B
:1030A000DDF8000030B40200980800205809002024
:1030B000FEE7FEE7FEE7FEE7FEE7FEE7FEE7FEE7E8
:1030C000FEE7FEE770B45E4B1B68082B19D05D4A23
:1030D000D2F8883043F47003C2F88830BFF34F8FC2
:1030E000BFF36F8F4FF01023D3F80022002A75DB57
:1030F000D3F80432002B71DB534B544A1A6070BC76
:103100007047534B19680029E1D14FF080404FF0D0
:103110008052C0F80C114F4BC0F81011C0F8381590
:10312000D2F80414C3F82015D2F80814C3F82415F3
:10313000D2F80C14C3F82815D2F81014C3F82C15C3
:10314000D2F81414C3F83015D2F81814C3F8341593
:10315000D2F81C14C3F84015D2F82014C3F8441553
:10316000D2F82414C3F84815D2F82814C3F84C1523
:10317000D2F82C14C3F85015D2F83014C3F85415F3
:10318000D2F83414C3F86015D2F83814C3F86415B3
:10319000D2F83C14C3F86815D2F84014C3F86C1583
:1031A000D2F844642C4C2D49C3F870652C4D256031
:1031B000FB23C1F81835D0F8E43ED2F8581204F5D4
:1031C0000F3423F00F0204F56D7401F00F03134365
:1031D0004FF40072C0F8E43E226078E7214B0122F0
:1031E000C3F80425D3F80024002AFBD04FF01023A5
:1031F00012221C49C3F80022D1F80034002BFBD066
:103200004FF0102312221749C3F80422D1F80024EA
:10321000144B002AFAD00022C3F80425D3F8002466
:10322000002AFBD0BFF34F8F06490F4BCA6802F448
:10323000E0621343CB60BFF34F8F00BFFDE700BFD9
:103240003001001000ED00E0FC0800200090D003E9
:103250003401001000C000408C56004000F00040D7
:103260004881030000E001400400FA0501F094B831
:1032700001F080BA01F0EDB901F06FBA29B100F5A3
:1032800019400222043000F03DBB0846704700F5AB
:103290001940043000F094BE00F51940043000F0ED
:1032A00001BB00F51940043000F027BB00B500F564
:1032B00003409BB00430694603F006FD9DF864307E
:1032C000C3F3800058B1C3F3C00040B1C3F3001092
:1032D00028B1D8091CBF9DF8650000F001001BB0A3
:1032E0005DF804FB00F58040443004F0A2BA70B5EC
:1032F0000246044600F124010023136053609360EA
:103300000C328A42F9D104F580466362A362E3621B
:1033100023636363A3633C3604F13C0004F5014579
:1033200001F07BFF7035304604F0B2FB3146284691
:103330000BF042FF04F518402146D83000F0BEF8EB
:1033400004F519402946043000F038FD204670BDD0
:1033500038B5044611F06AFA04F50C40C43007F0A1
:10336000B7FF204600F007FA80B10121204600F0A7
:1033700040F8054650B90121204600F0E5F928B192
:1033800029462046BDE8384000F033B838BD00007B
:1033900038B5064C23683BB9054D2846FFF7A7FF13
:1033A00028462560FFF7D4FF206838BD08A8002014
:1033B000780E0020036830B40D469BB1C36800F15D
:1033C0000C018BB1836900F118017BB902230C2435
:1033D0006343C418C55000F501406260703030BCD2
:1033E00005F08CBD0146F2E70123F0E7032030BC75
:1033F000704749F6DC03C35C29B153B900F50140BD
:1034000070300BF071BF23B900F5014070300BF044
:103410008BBF0D20704705F01CBA0B4601461846BD
:1034200005F027BA48F6D34370B5C55C04469DB98C
:1034300000F508404C3002F0ADF9064604F50340B3
:103440002946043003F0FDFF04F5054029464430C9
:1034500004F071F9304670BD0D26FBE748F6D34302
:1034600070B5C55C04469DB900F508404C3001F0CC
:1034700051FF064604F503402946043003F0E1FFFE
:1034800004F505402946443004F055F9304670BD36
:103490000D26FBE700F50C40843006F0D9B808B5DE
:1034A00000680FF0E3F9C20700D5FEE7430700D537
:1034B000FEE740F00500C0B208BD000010B50B22C9
:1034C00004460160427101F501410A4A826100230C
:1034D000383100F1140203718360C36003614161FC
:1034E000E0610362426280F82830FFF7D8FF20468F
:1034F00010BD00BF7136000083680BB1006818472B
:10350000704770B5044600680E460FF090F9054606
:10351000304603F0C8F858B1012384F828300EF083
:10352000D3FE1030206204F11401606901F051FEF5
:10353000284670BD036910B504461BB10068984762
:103540000023236110BD000030B590F82A3090F8B8
:1035500029501D4487B0033504460FF043FB052D69
:1035600028BF05250123AB40013B18404FF4A0754F
:10357000454302A80EF0C4FE4FF47A73B5FBF3F393
:10358000C3EB4310049303EB8003A5EBC303ADF837
:103590001430022384F828300094044B206804AAD5
:1035A00002A90EF0B9FE07B030BD00BF71360000B1
:1035B0002DE9F0411D4604460F4600F11401406913
:1035C000904601F0C3FD0F2D0BD194F82A20032A59
:1035D00015D8013284F82A202046BDE8F041FFF7D3
:1035E000B3BF00230E2D84F82A3008D194F8292087
:1035F0003B7A9A4203DA013284F82920ECE76179B8
:1036000020680FF00CF9E66836B12B464246394681
:103610002068B0470023E360BDE8F08190F82830CF
:1036200070B5012B4FF00005044680F8285002D0F9
:10363000022B0FD0FEE7417900680FF0F0F8206808
:103640000FF00EF90E232A4601462046BDE87040D1
:10365000FFF7AEBF00680FF003F9014606462046AB
:10366000FFF74FFF034610B12A463146EDE770BD24
:10367000FFF7D4BF01F014B9008C704701F016BAFF
:1036800010B51C461346224601F077F910BD00F52F
:103690000140303001F01ABD48F23013C0580030FC
:1036A00018BF01207047704700F50C40C43009F086
:1036B000FDB948F6F84382B0C35C002218078DF8C4
:1036C000042044BF01228DF80420590742BF9DF811
:1036D000042042F002028DF804209A0742BF9DF8B0
:1036E000042042F004028DF80420DB0742BF9DF85D
:1036F000043043F008038DF804309DF8040002B054
:10370000704711F0010F0CBF002308238A0748BF40
:1037100043F004034A0748BF43F002030A0748BFC7
:1037200043F0010300F50C401946C43009F0E1B93B
:1037300000F508408630704748F6D343C05C7047B8
:10374000004870471859020069B148F68203C25A0E
:103750004FF6FF739A420CD000F50C400022012175
:10376000C43009F0EDB900F50C400121C43007F078
:103770002DBD0D2070471FB501230024ADF80E307C
:103780000DF10E03009322460DF10D0306218DF875
:103790000D4011F08DF808B18DF80D409DF80D0029
:1037A000003018BF012004B010BD03685B681847E3
:1037B000083005F037BD08B502780B7802F00F022B
:1037C00003F00F039A4207D10431043020F0D0FBFC
:1037D000B0FA80F0400908BD002008BD38B50C469D
:1037E00005460EF071FD002C00DAFEE70444EC60A3
:1037F00029462868BDE8384001F0EBBC90F833104A
:10380000002201F0FE0162F3410180F8202080F8DF
:10381000212080F8222080F8232080F8242080F8BE
:10382000252080F8262080F8272080F8282080F89E
:10383000292080F82A2080F82B2080F82C2080F87E
:103840002D2080F82E2080F82F2080F8302080F85E
:10385000312080F8322080F83310704710B40C46C5
:10386000C98B343903463422204689B25DF8044BB3
:1038700001F083B810B40C46C98B343903463422A6
:10388000204689B25DF8044B01F0C2B810B40C4672
:10389000C98B303903463022204689B25DF8044B8B
:1038A00001F06BB830B587B005460C4610220021F8
:1038B00001A8FCF747FDADF8144005F1080400230A
:1038C0002A4606498DF81630204605F042FC18B904
:1038D00001A9204605F083FC07B030BDAB370000DE
:1038E000C26D13461BB18B4205D0DB68FAE7CA6094
:1038F000C1651846704718207047C0F88010C0F89E
:103900008420704770B50D4691F880100329164643
:1039100013DD083005F080FC044660B195F8802086
:10392000294601F0DBF80021204600F0F8FF31467F
:10393000204601F0F3FA204670BD0024FBE7F0B505
:103940001546127812F03002A5B004461F461AD16F
:10395000684600F021FD6B88ADF80230022269460E
:103960002046FFF7CFFF054678B1236801461E6861
:1039700020463A46B047044610B1284600F090FF72
:10398000204625B0F0BD0724FAE70324F8E770B518
:103990000546084611461E4601F023FB0446C0B109
:1039A0003422314601F082F8A8B9AB6D05F1480028
:1039B000984205D0D6F82A206B6D9B1A002B03DDA8
:1039C000D6F82E10FFF70AFF214605F1400001F05E
:1039D00004FA204670BD204600F062FF0024F8E79C
:1039E000F8B5044600F1400630460F4601F03AFAB9
:1039F000A36D04F148059D4203D0304601F05EF905
:103A000020B13846BDE8F84000F04ABF2946A06C16
:103A100001F09CFBF5E72DE9F04715461E46089F8F
:103A2000DDF824809DF82890FFF7DAFFD5F82240D2
:103A300054B1D5F82600CDF8209043463A46314699
:103A4000A446BDE8F0476047BDE8F08770B504467E
:103A50000846C98B343989B2164601F0C2FA0546C8
:103A600058B1236801461B682046324698470446F1
:103A700020B1284600F014FF00E00324204670BD6A
:103A80002DE9F04F9DB080460EF01EFC0FAC814634
:103A90002046FFF7B3FE08F1400001F00FF904AF34
:103AA00005462C2200213846FCF74CFC4FF0FF362F
:103AB0004FF0000A002D55D0284601F045F929465F
:103AC00083462046FFF7CAFEDDF86630A9EB030205
:103AD000002A06DAA3EB09039E4228BF1E465D4674
:103AE000E8E79DF86F3099072FD59DF86E30032BCE
:103AF0002BDC01338DF86E30DDF86A305B00CDF8D9
:103B00006A3029464B442046CDF86630FFF7B2FEB6
:103B1000DDF86A309E4228BF1E469DF86F30DA07F6
:103B2000DDD413AB0FCB0DF1200E8EE80F00BDF8E6
:103B30005C30ADF8323094E80F0087E80F003A4669
:103B400029464046FFF782FFC9E71C230293CDF8C0
:103B500004A0CDF800A00023224629464046FFF7E6
:103B60005AFFBCE7731C04D0314608F14800FFF748
:103B700035FE1DB0BDE8F08FFFF782BF2DE9F0479D
:103B800040309146089F0D461E4601F097F807F118
:103B90001008044609F1100A002C3AD02146384694
:103BA000FFF75CFE5146404604F053FEB0B13A8C3C
:103BB000B9F822309A421BD134222146304600F017
:103BC000F8FB2B7803F03003102B01D015D87BB90C
:103BD00031462846FFF7EFFD50B11AE0404604F0A9
:103BE0005AFD0028E3D1404604F0C4FD0028DED190
:103BF000204601F0A9F80446CEE7202B01D0302B57
:103C0000F6D172886B8852BA5BBA92B29BB29A4272
:103C1000EED12046BDE8F0872DE9F043B7B00C4661
:103C200005AF9146054638469846FFF7E7FD94F8FC
:103C30008010484600F066FE12AB009742462146CF
:103C40002846FFF79BFF23780646002848D003F05C
:103C50003003102B35D004D8002B3AD037B0BDE854
:103C6000F083202B0ED0302BF8D16378002BF5D1C8
:103C70000B220292019300933A4631462846FFF701
:103C8000CAFEEBE76378A3B99DF847309A0707D5DA
:103C900043F00103014638468DF84730FFF7EAFD4F
:103CA000DDF83630002BD9D131462846FFF798FE93
:103CB000D4E73F2BD2DD12A92046FFF77CFD002878
:103CC000CCD000230293CDF80480CDF80090234699
:103CD000D2E74346224620212846FFF730FEF0E790
:103CE0009B06BBD44346224630212846FFF727FED9
:103CF000B4E7F8B50D460446114602F1100651F836
:103D0000047B40F8047BB142F9D1528C22840A46EC
:103D100002F1100004F1100152F8046B41F8046B39
:103D20008242F9D1C4F822306FF02F02069BC4F80A
:103D3000263084F82E200023072284F8323084F8BD
:103D40002F2084F8303084F831300EF04BFF40F2F1
:103D5000E933B0FBF3F202FB1300D4F82E30184421
:103D6000C4F82E0085B10EF0AFFAD4F82E30184406
:103D700094F83330C4F82A0003F0FE0365F34103DE
:103D800084F833302046F8BD0EF09EFA5D30EFE740
:103D900038B50D46044600F054FF6B68E46003F547
:103DA00081437C336360044BA36000232361231DA4
:103DB0006361204638BD00BF6943000070B5164BF3
:103DC0000E464968044680E848001431083005F082
:103DD0009AF904F1400000F034FF7368246503F59C
:103DE00081437C33A3640D4BE364002504F1480355
:103DF000A36531466565E5652566656604F168007D
:103E0000FFF7C6FFC4F88050C4F884500EF0EAFEF5
:103E1000A4F84400204670BD5C590200793B0000C4
:103E20002DE9F0470024BCB00546174688462C22F1
:103E300021460DA899460C94FCF784FA2C222146C1
:103E400001A8FCF77FFA284600F038FF07F1100AB6
:103E50000646002E3AD031460CA80DADFFF716FDF0
:103E60000FCD01AC0FC40FCD0FC495E8070084E857
:103E700007007B8CBDF826209A4222D1514605A826
:103E800004F0EFFCE8B93022314618A800F091FAAE
:103E9000B8B9B8F80220BDF8623052BA5BBA92B233
:103EA0009BB29A420DD1F18B304601F09AF8C9F8D5
:103EB000000078B1C18B303989B200F0F5FC30B127
:103EC000FEE7304600F040FF0646C2E717203CB050
:103ED000BDE8F0870320FAE770B5A4B004461546A4
:103EE000684600221E4600F064FA28B933462A4686
:103EF00069462046FFF794FF24B070BD38B50546EB
:103F000000F0DCFE044640B10146284600F0AAFF5E
:103F10002046BDE8384000F0C3BC38BD2DE9F04173
:103F2000B2B00F46904606460EF0CEF900F571305D
:103F3000D830454602900FCD03AC0FC40FCD0FC44F
:103F400095E8070084E80700002239460EA800F033
:103F500030FA40B901AB424639463046FFF7BCFF64
:103F600020B1172806D032B0BDE8F081019800F0EA
:103F700097FCF8E70DF102026946304600F0F7FEC3
:103F8000BDF80030092B02DD3046FFF7B7FFF98B93
:103F9000384601F026F801900028E4D0302202A92A
:103FA00000F084FD0199304600F017FF7369301D61
:103FB0009842D8D10149FFF711FCD4E7D8C40300D7
:103FC0002DE9F043C1B00F46064602A890461D46B3
:103FD000FFF714FC002239461CA800F0EAF9044659
:103FE000002852D19DF870309B0603D59DF87130A2
:103FF000002B4ED1BDF8721049BA89B261B9B6F83A
:1040000044305A1C5BBAA6F84420ADF87230042242
:104010001CAB384600F0FCFC9DF8701011F030012C
:1040200022D1B7F81E90B9F1000F20D0489B009321
:10403000B1FA81F12B46424649090FA80FACFFF7B0
:1040400058FE0FCC02AD0FC50FCC0FC50FCC0FC55E
:1040500023682B604A4602AB39463046FFF797FC8F
:10406000054628B9032410E0102900D1C5B9002560
:10407000336842461B68394630469847044620B1AB
:104080001DB129463046FFF7ABFC204641B0BDE8E4
:10409000F0834246394606F16800FFF73FFFA9E783
:1040A0009DF8F090BFE72DE9F0411F465378013BA2
:1040B000032BA6B00646144639D9072431E00A4638
:1040C00002A8202100F068F96388ADF80A30214683
:1040D0009DF8083011F8045B0DF1980805F00F0504
:1040E00023F00F032B432A4603A808F8903D1FF046
:1040F0004FFF9DF8883002221D44414630468DF81E
:104100008850FFF7FFFB054678B100230146009376
:104110003A463046FFF754FF044610B1284600F0F7
:10412000BFFB204626B0BDE8F0810324F9E71378F1
:1041300013F03003C3D0102BBFD10A4602A8194692
:1041400000F02AF9B6F844305A1CA6F844205BBAAD
:10415000BBE72DE9F04F00248BB005460E46914693
:1041600021461C2203A81F460294FCF7EBF86B6E55
:104170000194002B36D02A6E39464846984780462F
:1041800000283CD196F88010484600F0BBFB01ABFC
:104190003A46314605F16800FFF742FE28B303288E
:1041A0002AD0304600F0CBFA02ACA2464FF02F0BDB
:1041B00098B303880B2B11D1544516BF631C53468B
:1041C00084F800B0AAEB030244881F32944213D251
:1041D0002246416818461FF0DBFE0444304600F0DA
:1041E0005CFAE5E74FF01708CCE72B6801991B68EC
:1041F0003A46284698478046B8F1000F1BD0B8F1E0
:10420000170F05D13B46324684212846FFF74BFF66
:10421000019880B100F044FB0DE02070EC6D7CB1A2
:104220005146206820F086FA40B96568A0683B4690
:104230004A463146A8470BB0BDE8F08FE468EEE788
:10424000D5F88040002CD7D03B464A463146D5F8B9
:104250008400A047EFE770B5A4B004461646684650
:1042600000220D4600F0A5F850B99DF80120013A52
:10427000032A33462A466946204603D8FFF769FFDA
:1042800024B070BDFFF7C8FCFAE738B505462846EC
:1042900000F014FD044638B10146284600F0E2FD66
:1042A000204600F0FDFAF2E738BD2DE9F041054661
:1042B00092B0403000F002FD044605A8FFF79EFAD8
:1042C0004FF00B0800269CB1204600F03DFD214632
:1042D000074605A8FFF7C2FA2146CDF808800196E7
:1042E0000096002305AA2846FFF795FB3C46EAE71F
:1042F00005F16800FFF7C9FF05F1080004F050FF61
:1043000012B0BDE8F08110B504680DF0DDFF201A91
:1043100020EAE07010BD30B58DB0054600212C229A
:1043200001A80091FCF70EF8284600F0C7FC0446EF
:10433000C0B101466846FFF7A9FA0DF0C5FF009B22
:10434000C01A002807DD2146284600F08BFD2046D4
:1043500000F0A6FAE8E76846FFF7D5FF0146281DFA
:10436000FFF73CFA0DB030BDFFF7D5BF10B5002107
:104370000423044680F88030A0F88210A0F884104E
:10438000A0F88610C0F88810C0F88C108022FBF7C7
:10439000D9FF4023237010BD70B504460D46164664
:1043A000FFF7E4FF2178667021F030010D4325709E
:1043B00070BD2DE9F0470D8CCC8B641BA41AA4B200
:1043C00006468846FFF7D2FF032C41D93346042224
:1043D0002946404600F0D1FA37784FEA971904236E
:1043E000B9F1010F86F8803032D107F00F07082F9E
:1043F0002ED8043CA4B2A7422ADC1D441FFA87FA37
:10440000ADB2F31829465246404600F0B6FA96F887
:10441000803055441F44A4EB0A0486F88070ADB286
:10442000A4B2002C00F0968096F880300522294630
:104430003344404600F0A1FA96F88020B05CFF2893
:1044400002F101010AD1012C86F8801040F082802F
:104450000023A6F884300620BDE8F087B9F1000FEC
:1044600001D0A6F884204FEA201EC9B200F00F0048
:10447000BEF10C0F1FFA8EF387B286F8801037DC7E
:104480000135ADB2013C0C28A4B20CD90D284ED197
:1044900096F88020B75C013501320D3786F8802010
:1044A000ADB2013CA4B2B9F1000F0BD0A6F8883030
:1044B00096F88030A6F88A70F2183B44C6F88C2033
:1044C000A6F88630A742C3DC96F8803029463344EC
:1044D0003A46404600F051FA96F880303D443B445D
:1044E000E41B86F88030ADB2A4B24FF0000998E723
:1044F000BEF10D0F08D1735C023202350D3386F820
:104500008020ADB2023CBEE7BEF10E0FA0D116F87E
:1045100001E0314403324B7886F8802043EA0E23D1
:1045200003F20D1303359BB2ADB2033CABE70E2F84
:104530008ED196F88020B018B15C477847EA012701
:1045400007F20D1702320235BFB286F88020ADB2F5
:10455000023CA7E70020BDE8F087F8B5B0F882205C
:104560000B88934205460E466FDB9B1A49889BB227
:104570004A1C0C2B90B233D9B3F5867F94BF01222D
:10458000022202440C2990B22CDDB1F5867FD4BF03
:104590000122022295F88010024411FA82F27F2A49
:1045A00055DC0C2B05EB01071ED81B016B547C1C42
:1045B00072886B5C0C2A2EDC13436B547288716812
:1045C00020461FF0E5FC738895F880202344DB1B10
:1045D000134485F880303388A5F882300020F8BD78
:1045E0000022CEE70022D5E7B3F5867F6A5C06D8C5
:1045F00062F02F020D3B6A54BC1C7B70D8E762F05E
:104600001F026FF486706A541A1892B213127B70EC
:10461000FC1CBA70CCE7B2F5867F07DC43F00D03D3
:104620006B54B3780D3B23700134C7E743F00E039E
:104630006B5473886FF4867213449BB2224619122E
:1046400002F8021B63701446B8E70720F8BD032088
:10465000F8BDF7B502AD0B2325F8083D07460C461B
:104660002F21204620F058F8064650B1031B29465A
:104670003846ADF802300194FFF76FFF58B9741C4B
:10468000EEE7204620F07DF82946ADF802003846D6
:104690000194FFF762FF03B0F0BD70B5B0F886106B
:1046A00090F88030994201DB002070BD455C4C1CC5
:1046B0002E11A4B205F00F050C2EB2B2ABB2A0F8C9
:1046C000864006DD0D2E20D1025D02310D32A0F8AC
:1046D00086100C2D08D90D2D23D1B0F88610435C1F
:1046E00001310D33A0F88610B0F88810A0F88A3098
:1046F0000A44A0F88820B0F8862081181344C0F836
:104700008C10A0F88630883070BD0E2ECCD1065D9E
:1047100004440331627842EA062202F20D1292B298
:10472000D5E70E2BC0D1B0F886104318445C5B78F7
:1047300043EA042303F20D139BB20231D2E7B0F82F
:10474000842042B10021C0F88810C0F88C10A0F875
:104750008620FFF7A2BF1046704790F880307F2B6D
:10476000DFBF5A1C80F88020FF22C254D4BF002033
:10477000032070470829F7B506460C4600DDFEE722
:10478000002500950195EFB2BC4205F1010506DD5B
:104790000EF028FA02AB1F4407F8080CF3E7337851
:1047A00004F00F02304623F00F03134300F8043BDC
:1047B000224669461FF0ECFB96F880301C4486F8D0
:1047C000804003B0F0BD38B50C4605464422202198
:1047D000FFF7E2FD63886B8021462B7811F8044BCC
:1047E000284604F00F0423F00F03234300F8043B92
:1047F00022461FF0CDFB95F880301C4485F88040A0
:1048000038BD44F20402835833B119688150002244
:104810001A600288013A02801846704710B500F508
:104820008043043341B11A680C680A600288196039
:10483000013202802146F5E7084610BD4A680AB9F0
:10484000CA6802B1FEE78A680AB90B6903B1FEE7DC
:10485000FFF7E4BF0029008804DB8142CCBF0320BE
:104860000020704700207047F8B506460F46054601
:104870004C24BC4229680CDA19B17C34A4B22D68EE
:10488000F7E77069FFF7BDFF28600028F5D1032026
:10489000F8BD00242C607069FFF7C0FF2046F8BD0A
:1048A00001464069FFF7CABF38B5838B0C46CA186A
:1048B000C18B92B24C2A0B449BB288BFA2F14D012E
:1048C000054691BF00217C2091FBF0F101314C2B7A
:1048D00005D94D3B7C2093FBF0F30133C91A68697D
:1048E000FFF7B8FF28B911462846FFF7BDFF00B90A
:1048F000EC8338BD036801201BB10130C0B21B68D6
:10490000FAE77047038CC28B1944914200DDFEE741
:1049100089B28A42018400DAFEE700207047C38B27
:10492000994200DDFEE701840020704790F83000D6
:1049300000F03C000438C3B21C2B9DBF0448D84093
:10494000C043012000F0010080F00100704700BF6B
:1049500011011010C38B994200DDFEE75B1AC3837F
:10496000038C828B99420A44ACBF0023591A82837C
:10497000B4BF0184038400207047F8B51546C28B8C
:104980009142064641DA6818B48B8242D8BF551A64
:1049900021448CB2D8BFADB24B2C16D8C4F14C0711
:1049A000BFB2AF42A8BF2F4606F1340121441846DA
:1049B0003A461FF0EDFAED1B0346ADB23B44002131
:1049C0007B2936681DD92EB9FEE7A4F14C0189B2C6
:1049D0000027F5E77C3989B2F2E7C1F17C04A4B283
:1049E000AC42A8BF2C46301D0144224618461FF099
:1049F000CFFA2D1B034627443668ADB2BFB223441D
:104A000000211DB1002EE8D1FEE700273846F8BD91
:104A10002DE9F0411E46C38B15468A189A42074677
:104A200000DDFEE7848BA8BF5D1A21448CB2A8BFCD
:104A3000ADB24B2C16D8C4F14C081FFA88F8A84523
:104A4000A8BFA8463430314642462044A5EB0805AD
:104A50001FF09EFAADB2464400207B283F681ED965
:104A600037B9FEE7A4F14C0080B24FF00008F4E73C
:104A70007C3880B2F1E7C0F17C04A4B2AC42A8BF9C
:104A80002C463B1D3146224618441FF081FA2D1B4F
:104A9000A0443F68ADB21FFA88F82644002015B143
:104AA000002FE8D1FEE74046BDE8F0812DE9F04156
:104AB000C78B8846D11989B206461446FFF7F4FE23
:104AC000054640B94346224639463046FFF7A0FF27
:104AD000A04200D0FEE72846BDE8F081F8B50446C4
:104AE0000D46164600F13407A38B9E4214DD606923
:104AF000FFF787FE30B323680360A38B20604B2B46
:104B000006D83430C3F14C02F91818441FF040FAAB
:104B1000A38B7C33A383E7E79B1BE28BA383238CCC
:104B20003244334492B29BB29342E28300DDFEE70B
:104B300023842DB12B46324600212046FFF768FF23
:104B40000020F8BD0320F8BD2DE9F043814685B073
:104B5000884617461D460026CDB1102D2C4628BF8D
:104B60001024224641466B464846FFF706FFA04404
:104B7000224639462D1B27446B460C983444FFF7D8
:104B800047FF1FFA88F8BFB2ADB2A6B2E4E73046DD
:104B900005B0BDE8F0833F2900D9FEE700EBD10066
:104BA00001F007038021194190F82430194380F85F
:104BB0002410704700F1240200F12C0312F8010BBD
:104BC00010B99A42FAD1704701207047F8B50746EC
:104BD0001D460846D118FB8B994200DDFEE7BC8BD1
:104BE0001444A4B24B2C13D8C4F14C06B6B2AE4256
:104BF000A8BF2E4607F134012144324602F095FF4A
:104C0000AD1BADB200247B2C3F6815D91FB9FEE760
:104C10004C3CA4B2F7E77C3CFBE7C4F17C06B6B29F
:104C2000AE42A8BF2E46391D2144324602F07DFF18
:104C3000AD1B3F68ADB2002415B1002FEDD1FEE7EA
:104C4000F8BD00220260704702EB810370B55C681A
:104C50000CB9DC6804B1FEE705681DB95A60DA607A
:104C6000026070BD8E0035446C685C6004EB8104AA
:104C70000568DD60E260036833445A60F0E702EBE8
:104C8000810330B55C680CB1DC6804B9FEE70568E7
:104C9000AA4205D1A24208BF0022046008BF0260F8
:104CA000DA68586802EB810250605A68D86802EBF3
:104CB0008102D0600022DA605A6030BD006800B125
:104CC000806870470022026042608260C260704764
:104CD00038B544F208030446C15000F58040251D54
:104CE0000C30FFF7EFFF4FF4804200212846FBF71E
:104CF00029FB44F20403E218E55004F184039342D3
:104D000003D043F8803C8033F9E743F684730022F4
:104D1000E25080232380204638BD0B4650F82320E4
:104D200022B92BB1013BDBB29942F7D11046704753
:104D30000323F9E708B50321FFF7EFFF00B180680F
:104D400008BD0321FFF7E9BF10B590F831305B07CC
:104D50000446806906D548B1FFF7F3FFA04204D0AE
:104D6000A06810BD10B10068F8E7002010BD38B58C
:104D700000230B8013800D461446FFF79FFF024669
:104D800058B12B8801332B80FFF7B4FD23881844DA
:104D900020801046FFF7D8FFF1E738BDF8B592F84C
:104DA000315005F003050F46294606461446FFF725
:104DB000B4FF3BB260B19B00C218234451685960F4
:104DC00001EB8701D860CC60546046F82540F8BDFF
:104DD00004EB83035C60DC60F7E738B58C690D4653
:104DE000A4B9A86191F8313064F3820381F83130BD
:104DF0000A460121FFF728FF686900F580402A462E
:104E000021460C30FFF7CAFF204638BD182038BDB8
:104E100070B592F8314004F003048E1C50F8243031
:104E20009A420DD102EB86035B689A4218D093F840
:104E3000315005F00305A54218BF002340F8243087
:104E400002EB81025368D06803EB86035860D36895
:104E5000506803EB8103586000235360D36070BD3A
:104E60000023EBE738B591F83140C4F380040D46D8
:104E7000BCB98B69984214D10A460121FFF7FFFEA5
:104E8000686900F580402A4621460C30FFF7C0FFD4
:104E900095F83130AC6164F3820385F831302046F7
:104EA00038BD172038BD38B58D690C46A5B9A0614D
:104EB00091F8313043F0040381F831300A46012182
:104EC000FFF76CFF606900F58040224629460C30F0
:104ED000FFF764FF284638BD182038BD91F83130FF
:104EE0005B0710B50C4617D58B69984214D10A465A
:104EF0000121FFF78DFF606900F580402246002107
:104F00000C30FFF785FF94F83130002060F3820306
:104F1000A06184F8313010BD172010BD0329F8B509
:104F200005460E4635DC87693FB990F8313061F3AC
:104F3000010380F831300020F8BD90F8310000F016
:104F400003039942F7D0C0F3800484B12946384660
:104F5000FFF7C4FF3C4695F8313066F3010385F84E
:104F600031306CB129462046FFF79DFFE3E76869C1
:104F700000F580402A4621460C30FFF749FFEAE75A
:104F8000686900F580402A4621460C30FFF706FF8D
:104F9000D1E70720F8BDF8B505460F461646FFF7DE
:104FA00030FC0446D8B180220021FBF7CBF994F8FD
:104FB0003030656167F3010363F07F030221A6834C
:104FC00084F830302046FFF7A9FF00212046FFF784
:104FD0006BFC20B121462846FFF730FC0024204618
:104FE000F8BD73B50E4690F83010828B054601F07F
:104FF00003014069FFF7CFFF044670B33146FFF766
:1050000053FC024660BB3346014600942846FFF736
:105010009BFD2B8CE28B934200DDFEE7238495F908
:105020002D3084F82D3095F8303094F83020C3F3CB
:10503000830363F3850284F8302095F8311020460D
:1050400001F00301FFF76AFF95F8303094F8302043
:10505000DB0963F3C71284F83020204602B070BD2C
:105060002046FFF71DFC0024F7E710B580E80E008E
:105070000023C36010BD002202604260704710B57B
:1050800044688C4212D0CB6883B95CB9016041603E
:105090000868A0F58140743803F0D1FAFEF703FBED
:1050A000204610BDE1604160184610BD182010BDBB
:1050B00001460068FFF7E3BF03682BB1DA680260BE
:1050C00002B942600022DA601846704770B546683F
:1050D00005462846FFF7F0FF044680B14368806824
:1050E0009847A642F5D12B684BB13068A0F58140B6
:1050F000743803F0A4FABDE87040FEF7D4BA70BD6E
:10510000002202607047036870B50446A0F581462E
:105110003BB9A6F17C0003F092FABDE870400DF0B7
:10512000ECB80DF0D1F82368DC68031B002BB8BF86
:10513000241A0546A8BF0024A6F17C0003F07FFADC
:1051400022462946BDE870400DF0C6B80A69914272
:1051500038B50C4606D00368994205D10260FFF7C6
:10516000D2FF246138BD0B46002BFAD019698C425E
:10517000F9D11A61F5E770B50468054674B10DF010
:10518000A3F8E368C01A002808DB28462146FFF789
:10519000DDFF6368A068BDE8704018472846BDE899
:1051A0007040FFF7B0BF00F501403830FFF7E3BFB4
:1051B00038B505460C460DF087F8EA68E168131A21
:1051C000DB0F081AB3EBD07F04BF531ADB0F18466E
:1051D00038BDF8B506460C46FFF7B8FF356835B957
:1051E000346025613046BDE8F840FFF78CBF0027EA
:1051F00029462046FFF7DCFF38B117B125613C6135
:10520000F8BD336823613460ECE72B692F460BB19E
:105210001D46EDE72C612361F8BD10B54FF48041C8
:10522000044610F0D1FB204610BD00BA7047806ADA
:105230000AF09EB810B590F86430022B044613D1E2
:10524000FFF7F5FF0DF010FB7F2807D094F98030B1
:105250007F2B01D0984201DD84F8800004F18400A6
:10526000BDE81040FFF724BF10BDFFF7E3BF036E9A
:105270008B4201D0CA6802B1FEE71BB9C165016665
:1052800000207047D960FAE770B50C464D1ECE1D60
:105290000DF0A8FC05F8010FB542F9D1237823F0F1
:1052A000010343F00203237070BD37B500230446A9
:1052B0000D46CA1D12F801190DF803100133082B11
:1052C000F8D12046FFF7B3FF69460DF064FA28686D
:1052D000696804F12C0303C303B030BD10B50C465C
:1052E0008186FFF7A4FF21460DF058FA002010BD7B
:1052F00038B5054608460C461FF043FA102807D873
:105300001122214605F13A001FF026FA002038BD8F
:10531000072038BD10B50446C186FFF788FFE18E2F
:105320000DF02DFA002010BD0B68C0F84B304B6813
:10533000C0F84F3000207047F8B50E46044672683A
:10534000464B436044F2FC010A440260A06073686B
:1053500000250B44C56020614361414B836100F12E
:105360001403E06143624FF6FE730B2783864FF60A
:10537000FF73C3860562866280F8387080F8395002
:1053800045658565C565056680F864500DF02AFCA5
:1053900084F865000DF026FCFF2323677F2384F843
:1053A000660084F8803084F8685084F8695084F886
:1053B0006D70A567E56771682A4A84F8675001F542
:1053C00081412346743184F86A5084F86B5084F824
:1053D0006C50A4F8745004F18400FFF746FEC4F842
:1053E0009450C4F8985004F19C0001F00EFC04F2B3
:1053F000DD1001F0BDF8304609F0BAFF0DF030FACB
:1054000004F12C06C4F8000331462046C4F880534A
:1054100084F88453FFF738FF7C22294604F5417055
:10542000FAF790FF10492046FFF77EFF0F4920460C
:10543000FFF75EFFE18E2046FFF76CFF3146204606
:10544000FFF733FFA18E2046FFF748FF2046FFF706
:10545000EEFE0DF0CDF92046F8BD00BFBD640000A2
:10546000115F00006B5200007B590200705902006E
:1054700070B504984C1E451E073114F8016F05F8ED
:10548000016F8C42F9D1110E0172110C4172110A97
:105490008172C272037370BD10B50C46002240F6D3
:1054A0000301204601F0D1FA4FF6FF71204601F0CA
:1054B00026F94FF6FF71204601F04FF920460721EB
:1054C000BDE8104001F05DBB2DE9F7430E460546EF
:1054D00000224FF44041304601F0B7FAE98E3046E1
:1054E00001F085F905F12C01304601F0DEF9304676
:1054F00001F0FCFA4FF0FF33037000238370C37098
:105500000F2204464270A86A90F8D4361B0733D5A0
:1055100003232371202363710DF1070100F5C66099
:1055200003F052FA9DF80720637912B343F00103A8
:1055300005F13A086371102140461FF044F9A71D98
:105540008146102200213846FAF7FCFE41464A46C1
:1055500038461EF01DFD55F84B3FC4F816306B68F9
:10556000C4F81A301E21304601F038FB03B0BDE804
:10557000F08323F00103DBE70421F4E72DE9F04198
:10558000E2B00C460023054609A804930AF06AFA23
:10559000204601F083F8002877D00DF10E01204657
:1055A00001F0D2F99DF80E30082B74D0102B00F0CA
:1055B0008E80002B40F0A280627AAB6A510703F51F
:1055C000D86605F12C080AD4D3F8D016204601F08D
:1055D000D4F9AA6AD2F8D0360133C2F8D0360DF128
:1055E0000D01204601F0A3F905AF04A9204601F002
:1055F000B8F99DF80D30049A009728464146FFF708
:1056000037FF3146102209A80AF07CF8204601F045
:1056100002FA02388DF80F00204601F0BDFA054667
:10562000204601F0CEFA0D229DF80F300192294656
:105630000246009709A80AF06CF8204601F054FAD7
:105640000546204601F0A8FA2946024609A80AF0B4
:1056500010F9204601F04AFA0546204601F046FAC4
:105660000646204601F0ADFA012332462946009352
:10567000034609A80AF042F9204601F0BDFA0DF1EF
:105680000F02014609A80AF0C5F909A80AF0F7F9BE
:1056900062B0BDE8F081627AAB6A520703F25C66E1
:1056A00005F12C089BD4D3F88C16204601F065F93F
:1056B000A86A00F2346004F0E0F8AB6AD3F8481648
:1056C00001F07F010131204601F095F987E70C4B8D
:1056D000D5F88013186805900131C5F8801320466D
:1056E00001F04BF905A9204601F05FF9FF212046A2
:1056F00001F081F9DFF81080024E70E7FEE700BF8D
:1057000064590200835902006859020010B50C4622
:10571000FFF78DFD2146BDE810400DF088B810B5AB
:105720000C46FFF784FD2146BDE810400DF077B828
:1057300008B5FFF77CFDBDE808400DF063B810B573
:1057400090F86430013B012B044605D890F86D10A9
:10575000BDE81040FFF7E3BF90F867304BB9426AED
:1057600000F114039A4204D1FFF761FD0DF080F8B7
:1057700018B194F838102046EAE72046BDE81040FA
:10578000FFF7D6BF90F8643080F867100BB9FFF7C9
:10579000D6BF704708B590F8643080F838100BB960
:1057A000FFF7CDFF002008BD2DE9F0470D46E6B01C
:1057B00081460DA8984617460AF054F96B7A6FF3A4
:1057C00000036B72284600F069FF002800F0C380D8
:1057D00003A9284601F0ABF804A9284601F0C1F856
:1057E0000DF10D01284601F0AFF89DF80D40082C91
:1057F0000AD0102C00F0D28024B9D9F8286016F510
:10580000D8662DD10824A7E0B8F1000FFAD00DF129
:105810000F01284601F0DDF8D9F828009DF80F3077
:10582000D0F84846013BDBB204F07F0293428DF88A
:105830000F3040F0988000F25C6698F81C3003F05E
:105840000703062B0CD1D8F818309C42DAD307D1C5
:10585000049BD8F80C2001339342D3D300F0A280EC
:10586000B91C05AF9DF80C30049A00974846FFF725
:10587000FFFD284601F0CFF80238314610228DF89E
:105880000E000DA809F03EFF284601F085F90646F6
:10589000284601F096F90D229DF80E30019231460E
:1058A000024600970DA809F034FF284601F01CF9C4
:1058B0000646284601F070F9314602460DA809F067
:1058C000D8FF284601F012F90646284601F00EF9E5
:1058D0000746284601F075F9002300933A4603462F
:1058E00031460DA80AF00AF80DF10E0209A90DA81B
:1058F0000AF090F8284601F07FF99DF80E20014645
:1059000009A81EF035FB00287FF47CAF9DF80D3010
:10591000082B1CD198F81C3003F00703062B16D176
:10592000D8F818309C4203D0C8F81840C8F81000C6
:10593000049BD9F828000133C8F80C30D0F8483659
:105940009C4204D9214600F2346003F0DBFF6B7AFD
:1059500043F001036B7200240DA80AF090F8204672
:1059600066B0BDE8F08704F1FF3A0AF07F02934287
:1059700007D1514600F2346003F06EFF54460646EC
:105980005BE7013404F07F0293427FF43BAF214692
:1059900000F2346003F060FF06464EE70249034E12
:1059A00000245EE71D24D7E76859020083590200EE
:1059B00008B5FFF73CFC0CF059FF10F00C0F14BFBA
:1059C0000120002008BD08B5FFF731FC0CF04EFFA8
:1059D000C0F3800008BDF8B590F86930D0F80063D6
:1059E00001330B2904460D4680F8693006D001D8F2
:1059F00069B1FEE7A1F10E03012BFAD82046FFF7AB
:105A0000E2FF20B994F86920337A9A425CDB0023E4
:105A100084F8693084F86830304600F044FEE8B11C
:105A2000D4F810330133C4F8103325B9D4F8143343
:105A30000133C4F8143394F86430032B14D0042BCE
:105A40001CD0012B3FD1D4F82833B4F874100133A3
:105A5000C4F828332046FDF7C1FEF8BDD4F818334A
:105A60000133C4F81833E6E7D4F824330133C4F81B
:105A700024332046BDE8F84000F09AB9626A04F188
:105A800014039A4215BFD4F82033D4F81C330133E1
:105A9000013314BFC4F82033C4F81C33636DDA68D3
:105AA000626502B9A2650022DA60727A52075EBFAF
:105AB00094F86620013284F866205F6898682A4668
:105AC0003146B847D5E7FEE7204600F01FF9D4F885
:105AD00030330133C4F83033F8BD2DE9F0430446C8
